{
  "address": "0x1BdaD66B457f126Df25BF32E7C581179B35fcc5E",
  "abi": [
    {
      "inputs": [
        {
          "internalType": "address",
          "name": "_ops",
          "type": "address"
        }
      ],
      "stateMutability": "nonpayable",
      "type": "constructor"
    },
    {
      "anonymous": false,
      "inputs": [
        {
          "indexed": true,
          "internalType": "address",
          "name": "deployer",
          "type": "address"
        },
        {
          "indexed": true,
          "internalType": "address",
          "name": "owner",
          "type": "address"
        },
        {
          "indexed": true,
          "internalType": "address",
          "name": "proxy",
          "type": "address"
        }
      ],
      "name": "DeployProxy",
      "type": "event"
    },
    {
      "anonymous": false,
      "inputs": [
        {
          "indexed": false,
          "internalType": "uint8",
          "name": "version",
          "type": "uint8"
        }
      ],
      "name": "Initialized",
      "type": "event"
    },
    {
      "anonymous": false,
      "inputs": [
        {
          "indexed": true,
          "internalType": "address",
          "name": "oldImplementation",
          "type": "address"
        },
        {
          "indexed": true,
          "internalType": "address",
          "name": "newImplementation",
          "type": "address"
        }
      ],
      "name": "SetImplementation",
      "type": "event"
    },
    {
      "anonymous": false,
      "inputs": [
        {
          "indexed": true,
          "internalType": "address",
          "name": "implementation",
          "type": "address"
        },
        {
          "indexed": true,
          "internalType": "bool",
          "name": "whitelisted",
          "type": "bool"
        }
      ],
      "name": "UpdateWhitelistedImplementation",
      "type": "event"
    },
    {
      "inputs": [],
      "name": "deploy",
      "outputs": [
        {
          "internalType": "address payable",
          "name": "proxy",
          "type": "address"
        }
      ],
      "stateMutability": "nonpayable",
      "type": "function"
    },
    {
      "inputs": [
        {
          "internalType": "address",
          "name": "owner",
          "type": "address"
        }
      ],
      "name": "deployFor",
      "outputs": [
        {
          "internalType": "address payable",
          "name": "proxy",
          "type": "address"
        }
      ],
      "stateMutability": "nonpayable",
      "type": "function"
    },
    {
      "inputs": [
        {
          "internalType": "address",
          "name": "_account",
          "type": "address"
        }
      ],
      "name": "determineProxyAddress",
      "outputs": [
        {
          "internalType": "address",
          "name": "",
          "type": "address"
        }
      ],
      "stateMutability": "view",
      "type": "function"
    },
    {
      "inputs": [
        {
          "internalType": "address",
          "name": "_account",
          "type": "address"
        }
      ],
      "name": "getProxyOf",
      "outputs": [
        {
          "internalType": "address",
          "name": "",
          "type": "address"
        },
        {
          "internalType": "bool",
          "name": "",
          "type": "bool"
        }
      ],
      "stateMutability": "view",
      "type": "function"
    },
    {
      "inputs": [],
      "name": "implementation",
      "outputs": [
        {
          "internalType": "address",
          "name": "",
          "type": "address"
        }
      ],
      "stateMutability": "view",
      "type": "function"
    },
    {
      "inputs": [
        {
          "internalType": "address",
          "name": "_implementation",
          "type": "address"
        }
      ],
      "name": "initialize",
      "outputs": [],
      "stateMutability": "nonpayable",
      "type": "function"
    },
    {
      "inputs": [],
      "name": "ops",
      "outputs": [
        {
          "internalType": "address",
          "name": "",
          "type": "address"
        }
      ],
      "stateMutability": "view",
      "type": "function"
    },
    {
      "inputs": [
        {
          "internalType": "address",
          "name": "_proxy",
          "type": "address"
        }
      ],
      "name": "ownerOf",
      "outputs": [
        {
          "internalType": "address",
          "name": "",
          "type": "address"
        }
      ],
      "stateMutability": "view",
      "type": "function"
    },
    {
      "inputs": [
        {
          "internalType": "address",
          "name": "_newImplementation",
          "type": "address"
        }
      ],
      "name": "setImplementation",
      "outputs": [],
      "stateMutability": "nonpayable",
      "type": "function"
    },
    {
      "inputs": [
        {
          "internalType": "address",
          "name": "_implementation",
          "type": "address"
        },
        {
          "internalType": "bool",
          "name": "_whitelist",
          "type": "bool"
        }
      ],
      "name": "updateWhitelistedImplementations",
      "outputs": [],
      "stateMutability": "nonpayable",
      "type": "function"
    },
    {
      "inputs": [
        {
          "internalType": "address",
          "name": "",
          "type": "address"
        }
      ],
      "name": "whitelistedImplementations",
      "outputs": [
        {
          "internalType": "bool",
          "name": "",
          "type": "bool"
        }
      ],
      "stateMutability": "view",
      "type": "function"
    }
  ],
  "transactionHash": "0xf60d5e5a7c6ee8eee02f61f00a9f4047cff295dacaac64749741cd908cb98e40",
  "args": [
    "0xE5AC6cf74EC875ad9a48432716eE626Bbb2b12c3"
  ],
  "numDeployments": 1,
  "solcInputHash": "5ec0b75b82308a43c369e536d3b31fb6",
  "bytecode": "0x60a06040523480156200001157600080fd5b506040516200296e3803806200296e8339818101604052810190620000379190620000dc565b8073ffffffffffffffffffffffffffffffffffffffff1660808173ffffffffffffffffffffffffffffffffffffffff1681525050506200010e565b600080fd5b600073ffffffffffffffffffffffffffffffffffffffff82169050919050565b6000620000a48262000077565b9050919050565b620000b68162000097565b8114620000c257600080fd5b50565b600081519050620000d681620000ab565b92915050565b600060208284031215620000f557620000f462000072565b5b60006200010584828501620000c5565b91505092915050565b6080516128446200012a6000396000610d2f01526128446000f3fe60806040523480156200001157600080fd5b5060043610620000b85760003560e01c8063775c300c116200007b578063775c300c14620001a1578063c4d66de814620001c3578063d784d42614620001e3578063ded89a7c1462000203578063e70abe92146200023a578063fcff48ed146200025c57620000b8565b806314afd79e14620000bd5780635c60da1b14620000f35780635c6c4bbe1462000115578063606aa715146200013557806374912cd2146200016b575b600080fd5b620000db6004803603810190620000d5919062000ef8565b62000292565b604051620000ea919062000f3b565b60405180910390f35b620000fd620002fb565b6040516200010c919062000f3b565b60405180910390f35b6200013360048036038101906200012d919062000f95565b62000321565b005b6200015360048036038101906200014d919062000ef8565b6200043c565b60405162000162919062000f3b565b60405180910390f35b62000189600480360381019062000183919062000ef8565b6200053f565b60405162000198919062001001565b60405180910390f35b620001ab62000874565b604051620001ba919062001001565b60405180910390f35b620001e16004803603810190620001db919062000ef8565b62000886565b005b620002016004803603810190620001fb919062000ef8565b62000a61565b005b6200022160048036038101906200021b919062000ef8565b62000c68565b604051620002319291906200102f565b60405180910390f35b6200024462000d2d565b60405162000253919062000f3b565b60405180910390f35b6200027a600480360381019062000274919062000ef8565b62000d51565b6040516200028991906200105c565b60405180910390f35b6000600360008373ffffffffffffffffffffffffffffffffffffffff1673ffffffffffffffffffffffffffffffffffffffff16815260200190815260200160002060009054906101000a900473ffffffffffffffffffffffffffffffffffffffff169050919050565b600060029054906101000a900473ffffffffffffffffffffffffffffffffffffffff1681565b6200032b62000d71565b73ffffffffffffffffffffffffffffffffffffffff163373ffffffffffffffffffffffffffffffffffffffff16146200039b576040517f08c379a00000000000000000000000000000000000000000000000000000000081526004016200039290620010da565b60405180910390fd5b80600160008473ffffffffffffffffffffffffffffffffffffffff1673ffffffffffffffffffffffffffffffffffffffff16815260200190815260200160002060006101000a81548160ff0219169083151502179055508015158273ffffffffffffffffffffffffffffffffffffffff167f0501828758a98b15fa5ef2b0f0100e2266e65c28175face06351ac414c14005f60405160405180910390a35050565b600080600260008473ffffffffffffffffffffffffffffffffffffffff1673ffffffffffffffffffffffffffffffffffffffff16815260200190815260200160002060009054906101000a900473ffffffffffffffffffffffffffffffffffffffff169050600073ffffffffffffffffffffffffffffffffffffffff168173ffffffffffffffffffffffffffffffffffffffff1614620004e057809150506200053a565b6000620004ed8462000d9a565b9050600060ff60f81b306000801b8480519060200120604051602001620005189493929190620011cc565b6040516020818303038152906040528051906020012090508060001c93505050505b919050565b600081600073ffffffffffffffffffffffffffffffffffffffff16600260008373ffffffffffffffffffffffffffffffffffffffff1673ffffffffffffffffffffffffffffffffffffffff16815260200190815260200160002060009054906101000a900473ffffffffffffffffffffffffffffffffffffffff1673ffffffffffffffffffffffffffffffffffffffff161462000613576040517f08c379a00000000000000000000000000000000000000000000000000000000081526004016200060a9062001272565b60405180910390fd5b82600073ffffffffffffffffffffffffffffffffffffffff16600360008373ffffffffffffffffffffffffffffffffffffffff1673ffffffffffffffffffffffffffffffffffffffff16815260200190815260200160002060009054906101000a900473ffffffffffffffffffffffffffffffffffffffff1673ffffffffffffffffffffffffffffffffffffffff1614620006e5576040517f08c379a0000000000000000000000000000000000000000000000000000000008152600401620006dc90620012e4565b60405180910390fd5b620006fe6000801b620006f88662000d9a565b62000e44565b925082600260008673ffffffffffffffffffffffffffffffffffffffff1673ffffffffffffffffffffffffffffffffffffffff16815260200190815260200160002060006101000a81548173ffffffffffffffffffffffffffffffffffffffff021916908373ffffffffffffffffffffffffffffffffffffffff16021790555083600360008573ffffffffffffffffffffffffffffffffffffffff1673ffffffffffffffffffffffffffffffffffffffff16815260200190815260200160002060006101000a81548173ffffffffffffffffffffffffffffffffffffffff021916908373ffffffffffffffffffffffffffffffffffffffff1602179055508273ffffffffffffffffffffffffffffffffffffffff168473ffffffffffffffffffffffffffffffffffffffff163373ffffffffffffffffffffffffffffffffffffffff167f2d8895d948115783fa362a57339c4c179365fafeafdd7dca66364ae296f50b7560405160405180910390a45050919050565b600062000881336200053f565b905090565b60008060019054906101000a900460ff16159050808015620008b85750600160008054906101000a900460ff1660ff16105b80620008e95750620008ca3062000e5d565b158015620008e85750600160008054906101000a900460ff1660ff16145b5b6200092b576040517f08c379a000000000000000000000000000000000000000000000000000000000815260040162000922906200137c565b60405180910390fd5b60016000806101000a81548160ff021916908360ff160217905550801562000969576001600060016101000a81548160ff0219169083151502179055505b81600060026101000a81548173ffffffffffffffffffffffffffffffffffffffff021916908373ffffffffffffffffffffffffffffffffffffffff16021790555060018060008473ffffffffffffffffffffffffffffffffffffffff1673ffffffffffffffffffffffffffffffffffffffff16815260200190815260200160002060006101000a81548160ff021916908315150217905550801562000a5d5760008060016101000a81548160ff0219169083151502179055507f7f26b83ff96e1f2b6a682f133852f6798a09c465da95921460cefb3847402498600160405162000a549190620013f8565b60405180910390a15b5050565b62000a6b62000d71565b73ffffffffffffffffffffffffffffffffffffffff163373ffffffffffffffffffffffffffffffffffffffff161462000adb576040517f08c379a000000000000000000000000000000000000000000000000000000000815260040162000ad290620010da565b60405180910390fd5b60008060029054906101000a900473ffffffffffffffffffffffffffffffffffffffff1690508173ffffffffffffffffffffffffffffffffffffffff168173ffffffffffffffffffffffffffffffffffffffff161415801562000b875750600160008373ffffffffffffffffffffffffffffffffffffffff1673ffffffffffffffffffffffffffffffffffffffff16815260200190815260200160002060009054906101000a900460ff165b62000bc9576040517f08c379a000000000000000000000000000000000000000000000000000000000815260040162000bc0906200148b565b60405180910390fd5b81600060026101000a81548173ffffffffffffffffffffffffffffffffffffffff021916908373ffffffffffffffffffffffffffffffffffffffff1602179055508173ffffffffffffffffffffffffffffffffffffffff168173ffffffffffffffffffffffffffffffffffffffff167f273696cd8b7028587777b784decf945aca2e42036459d9d5fd81e493b112682860405160405180910390a35050565b6000806000600260008573ffffffffffffffffffffffffffffffffffffffff1673ffffffffffffffffffffffffffffffffffffffff16815260200190815260200160002060009054906101000a900473ffffffffffffffffffffffffffffffffffffffff169050600073ffffffffffffffffffffffffffffffffffffffff168173ffffffffffffffffffffffffffffffffffffffff161462000d1257806001925092505062000d28565b62000d1d846200043c565b905080600092509250505b915091565b7f000000000000000000000000000000000000000000000000000000000000000081565b60016020528060005260406000206000915054906101000a900460ff1681565b60007fb53127684a568b3173ae13b9f8a6016e243e63b6e8ee1178d6a717850b5d610354905090565b60606040518060200162000dae9062000e80565b6020820181038252601f19601f8201166040525030600060029054906101000a900473ffffffffffffffffffffffffffffffffffffffff16846040518060200160405280600081525060405160200162000e0c949392919062001551565b60405160208183030381529060405260405160200162000e2e929190620015e7565b6040516020818303038152906040529050919050565b60008060208301835185818385f5935050505092915050565b6000808273ffffffffffffffffffffffffffffffffffffffff163b119050919050565b6111ff806200161083390190565b600080fd5b600073ffffffffffffffffffffffffffffffffffffffff82169050919050565b600062000ec08262000e93565b9050919050565b62000ed28162000eb3565b811462000ede57600080fd5b50565b60008135905062000ef28162000ec7565b92915050565b60006020828403121562000f115762000f1062000e8e565b5b600062000f218482850162000ee1565b91505092915050565b62000f358162000eb3565b82525050565b600060208201905062000f52600083018462000f2a565b92915050565b60008115159050919050565b62000f6f8162000f58565b811462000f7b57600080fd5b50565b60008135905062000f8f8162000f64565b92915050565b6000806040838503121562000faf5762000fae62000e8e565b5b600062000fbf8582860162000ee1565b925050602062000fd28582860162000f7e565b9150509250929050565b600062000fe98262000e93565b9050919050565b62000ffb8162000fdc565b82525050565b600060208201905062001018600083018462000ff0565b92915050565b620010298162000f58565b82525050565b600060408201905062001046600083018562000f2a565b6200105560208301846200101e565b9392505050565b60006020820190506200107360008301846200101e565b92915050565b600082825260208201905092915050565b7f4e4f545f415554484f52495a4544000000000000000000000000000000000000600082015250565b6000620010c2600e8362001079565b9150620010cf826200108a565b602082019050919050565b60006020820190508181036000830152620010f581620010b3565b9050919050565b60007fff0000000000000000000000000000000000000000000000000000000000000082169050919050565b6000819050919050565b620011476200114182620010fc565b62001128565b82525050565b60008160601b9050919050565b600062001167826200114d565b9050919050565b60006200117b826200115a565b9050919050565b62001197620011918262000eb3565b6200116e565b82525050565b6000819050919050565b6000819050919050565b620011c6620011c0826200119d565b620011a7565b82525050565b6000620011da828762001132565b600182019150620011ec828662001182565b601482019150620011fe8285620011b1565b602082019150620012108284620011b1565b60208201915081905095945050505050565b7f4f707350726f7879466163746f72793a204f6e652070726f7879000000000000600082015250565b60006200125a601a8362001079565b9150620012678262001222565b602082019050919050565b600060208201905081810360008301526200128d816200124b565b9050919050565b7f4f707350726f7879466163746f72793a204e6f2070726f787900000000000000600082015250565b6000620012cc60198362001079565b9150620012d98262001294565b602082019050919050565b60006020820190508181036000830152620012ff81620012bd565b9050919050565b7f496e697469616c697a61626c653a20636f6e747261637420697320616c72656160008201527f647920696e697469616c697a6564000000000000000000000000000000000000602082015250565b600062001364602e8362001079565b9150620013718262001306565b604082019050919050565b60006020820190508181036000830152620013978162001355565b9050919050565b6000819050919050565b600060ff82169050919050565b6000819050919050565b6000620013e0620013da620013d4846200139e565b620013b5565b620013a8565b9050919050565b620013f281620013bf565b82525050565b60006020820190506200140f6000830184620013e7565b92915050565b7f4f707350726f7879466163746f72793a20496e76616c696420696d706c656d6560008201527f6e746174696f6e00000000000000000000000000000000000000000000000000602082015250565b60006200147360278362001079565b9150620014808262001415565b604082019050919050565b60006020820190508181036000830152620014a68162001464565b9050919050565b600081519050919050565b600082825260208201905092915050565b60005b83811015620014e9578082015181840152602081019050620014cc565b83811115620014f9576000848401525b50505050565b6000601f19601f8301169050919050565b60006200151d82620014ad565b620015298185620014b8565b93506200153b818560208601620014c9565b6200154681620014ff565b840191505092915050565b600060808201905062001568600083018762000f2a565b62001577602083018662000f2a565b62001586604083018562000f2a565b81810360608301526200159a818462001510565b905095945050505050565b600081905092915050565b6000620015bd82620014ad565b620015c98185620015a5565b9350620015db818560208601620014c9565b80840191505092915050565b6000620015f58285620015b0565b9150620016038284620015b0565b9150819050939250505056fe60a0604052604051620011ff380380620011ff83398181016040528101906200002991906200047f565b8373ffffffffffffffffffffffffffffffffffffffff1660808173ffffffffffffffffffffffffffffffffffffffff16815250506200006f83826200008a60201b60201c565b6200008082620001bf60201b60201c565b5050505062000576565b60007f360894a13ba1a3210667c828492db98dca3e2076cc3735a920a3ca505d382bbc549050827f360894a13ba1a3210667c828492db98dca3e2076cc3735a920a3ca505d382bbc558273ffffffffffffffffffffffffffffffffffffffff168173ffffffffffffffffffffffffffffffffffffffff167f5570d70a002632a7b0b3c9304cc89efb62d8da9eca0dbd7752c83b737906829660405160405180910390a3600082511115620001ba5760008373ffffffffffffffffffffffffffffffffffffffff16836040516200016191906200055d565b600060405180830381855af49150503d80600081146200019e576040519150601f19603f3d011682016040523d82523d6000602084013e620001a3565b606091505b5050905080620001b8573d806000803e806000fd5b505b505050565b6000620001d16200025460201b60201c565b9050817fb53127684a568b3173ae13b9f8a6016e243e63b6e8ee1178d6a717850b5d6103558173ffffffffffffffffffffffffffffffffffffffff168173ffffffffffffffffffffffffffffffffffffffff167fdf435d422321da6b195902d70fc417c06a32f88379c20dd8f2a8da07088cec2960405160405180910390a35050565b60007fb53127684a568b3173ae13b9f8a6016e243e63b6e8ee1178d6a717850b5d610354905090565b6000604051905090565b600080fd5b600080fd5b600073ffffffffffffffffffffffffffffffffffffffff82169050919050565b6000620002be8262000291565b9050919050565b620002d081620002b1565b8114620002dc57600080fd5b50565b600081519050620002f081620002c5565b92915050565b600080fd5b600080fd5b6000601f19601f8301169050919050565b7f4e487b7100000000000000000000000000000000000000000000000000000000600052604160045260246000fd5b6200034b8262000300565b810181811067ffffffffffffffff821117156200036d576200036c62000311565b5b80604052505050565b6000620003826200027d565b905062000390828262000340565b919050565b600067ffffffffffffffff821115620003b357620003b262000311565b5b620003be8262000300565b9050602081019050919050565b60005b83811015620003eb578082015181840152602081019050620003ce565b83811115620003fb576000848401525b50505050565b600062000418620004128462000395565b62000376565b905082815260208101848484011115620004375762000436620002fb565b5b62000444848285620003cb565b509392505050565b600082601f830112620004645762000463620002f6565b5b81516200047684826020860162000401565b91505092915050565b600080600080608085870312156200049c576200049b62000287565b5b6000620004ac87828801620002df565b9450506020620004bf87828801620002df565b9350506040620004d287828801620002df565b925050606085015167ffffffffffffffff811115620004f657620004f56200028c565b5b62000504878288016200044c565b91505092959194509250565b600081519050919050565b600081905092915050565b6000620005338262000510565b6200053f81856200051b565b935062000551818560208601620003cb565b80840191505092915050565b60006200056b828462000526565b915081905092915050565b608051610c5f620005a060003960008181610351015281816104cc01526105f90152610c5f6000f3fe60806040526004361061004e5760003560e01c806301ffc9a7146100675780633659cfe6146100a45780633e47158c146100cd5780634f1ef286146100f8578063ba1d0ff4146101145761005d565b3661005d5761005b61013f565b005b61006561013f565b005b34801561007357600080fd5b5061008e600480360381019061008991906107d5565b610188565b60405161009b919061081d565b60405180910390f35b3480156100b057600080fd5b506100cb60048036038101906100c69190610896565b6102d9565b005b3480156100d957600080fd5b506100e2610445565b6040516100ef91906108d2565b60405180910390f35b610112600480360381019061010d9190610952565b610454565b005b34801561012057600080fd5b506101296105f7565b6040516101369190610a11565b60405180910390f35b7f360894a13ba1a3210667c828492db98dca3e2076cc3735a920a3ca505d382bbc543660008037600080366000845af43d806000803e816000811461018357816000f35b816000fd5b60006301ffc9a760e01b827bffffffffffffffffffffffffffffffffffffffffffffffffffffffff191614806101e35750637f5828d060e01b827bffffffffffffffffffffffffffffffffffffffffffffffffffffffff1916145b156101f157600190506102d4565b63ffffffff60e01b827bffffffffffffffffffffffffffffffffffffffffffffffffffffffff19160361022757600090506102d4565b60007f360894a13ba1a3210667c828492db98dca3e2076cc3735a920a3ca505d382bbc5490508073ffffffffffffffffffffffffffffffffffffffff166301ffc9a7846040518263ffffffff1660e01b81526004016102869190610a3b565b602060405180830381865afa9250505080156102c057506040513d601f19601f820116820180604052508101906102bd9190610a82565b60015b6102ce5760009150506102d4565b80925050505b919050565b6102e161061b565b73ffffffffffffffffffffffffffffffffffffffff163373ffffffffffffffffffffffffffffffffffffffff161461034e576040517f08c379a000000000000000000000000000000000000000000000000000000000815260040161034590610b0c565b60405180910390fd5b807f000000000000000000000000000000000000000000000000000000000000000073ffffffffffffffffffffffffffffffffffffffff1663fcff48ed826040518263ffffffff1660e01b81526004016103a891906108d2565b602060405180830381865afa1580156103c5573d6000803e3d6000fd5b505050506040513d601f19601f820116820180604052508101906103e99190610a82565b610428576040517f08c379a000000000000000000000000000000000000000000000000000000000815260040161041f90610b78565b60405180910390fd5b6104418260405180602001604052806000815250610644565b5050565b600061044f61061b565b905090565b61045c61061b565b73ffffffffffffffffffffffffffffffffffffffff163373ffffffffffffffffffffffffffffffffffffffff16146104c9576040517f08c379a00000000000000000000000000000000000000000000000000000000081526004016104c090610b0c565b60405180910390fd5b827f000000000000000000000000000000000000000000000000000000000000000073ffffffffffffffffffffffffffffffffffffffff1663fcff48ed826040518263ffffffff1660e01b815260040161052391906108d2565b602060405180830381865afa158015610540573d6000803e3d6000fd5b505050506040513d601f19601f820116820180604052508101906105649190610a82565b6105a3576040517f08c379a000000000000000000000000000000000000000000000000000000000815260040161059a90610b78565b60405180910390fd5b6105f18484848080601f016020809104026020016040519081016040528093929190818152602001838380828437600081840152601f19601f82011690508083019250505050505050610644565b50505050565b7f000000000000000000000000000000000000000000000000000000000000000081565b60007fb53127684a568b3173ae13b9f8a6016e243e63b6e8ee1178d6a717850b5d610354905090565b60007f360894a13ba1a3210667c828492db98dca3e2076cc3735a920a3ca505d382bbc549050827f360894a13ba1a3210667c828492db98dca3e2076cc3735a920a3ca505d382bbc558273ffffffffffffffffffffffffffffffffffffffff168173ffffffffffffffffffffffffffffffffffffffff167f5570d70a002632a7b0b3c9304cc89efb62d8da9eca0dbd7752c83b737906829660405160405180910390a360008251111561076e5760008373ffffffffffffffffffffffffffffffffffffffff16836040516107189190610c12565b600060405180830381855af49150503d8060008114610753576040519150601f19603f3d011682016040523d82523d6000602084013e610758565b606091505b505090508061076c573d806000803e806000fd5b505b505050565b600080fd5b600080fd5b60007fffffffff0000000000000000000000000000000000000000000000000000000082169050919050565b6107b28161077d565b81146107bd57600080fd5b50565b6000813590506107cf816107a9565b92915050565b6000602082840312156107eb576107ea610773565b5b60006107f9848285016107c0565b91505092915050565b60008115159050919050565b61081781610802565b82525050565b6000602082019050610832600083018461080e565b92915050565b600073ffffffffffffffffffffffffffffffffffffffff82169050919050565b600061086382610838565b9050919050565b61087381610858565b811461087e57600080fd5b50565b6000813590506108908161086a565b92915050565b6000602082840312156108ac576108ab610773565b5b60006108ba84828501610881565b91505092915050565b6108cc81610858565b82525050565b60006020820190506108e760008301846108c3565b92915050565b600080fd5b600080fd5b600080fd5b60008083601f840112610912576109116108ed565b5b8235905067ffffffffffffffff81111561092f5761092e6108f2565b5b60208301915083600182028301111561094b5761094a6108f7565b5b9250929050565b60008060006040848603121561096b5761096a610773565b5b600061097986828701610881565b935050602084013567ffffffffffffffff81111561099a57610999610778565b5b6109a6868287016108fc565b92509250509250925092565b6000819050919050565b60006109d76109d26109cd84610838565b6109b2565b610838565b9050919050565b60006109e9826109bc565b9050919050565b60006109fb826109de565b9050919050565b610a0b816109f0565b82525050565b6000602082019050610a266000830184610a02565b92915050565b610a358161077d565b82525050565b6000602082019050610a506000830184610a2c565b92915050565b610a5f81610802565b8114610a6a57600080fd5b50565b600081519050610a7c81610a56565b92915050565b600060208284031215610a9857610a97610773565b5b6000610aa684828501610a6d565b91505092915050565b600082825260208201905092915050565b7f4e4f545f415554484f52495a4544000000000000000000000000000000000000600082015250565b6000610af6600e83610aaf565b9150610b0182610ac0565b602082019050919050565b60006020820190508181036000830152610b2581610ae9565b9050919050565b7f496d706c656d656e746174696f6e206e6f742077686974656c69737465640000600082015250565b6000610b62601e83610aaf565b9150610b6d82610b2c565b602082019050919050565b60006020820190508181036000830152610b9181610b55565b9050919050565b600081519050919050565b600081905092915050565b60005b83811015610bcc578082015181840152602081019050610bb1565b83811115610bdb576000848401525b50505050565b6000610bec82610b98565b610bf68185610ba3565b9350610c06818560208601610bae565b80840191505092915050565b6000610c1e8284610be1565b91508190509291505056fea2646970667358221220e1383b8d53f44c0189f6040dcd0147a80a9b144d114d866a2dad68295018327864736f6c634300080e0033a26469706673582212208990fd71e75c1dd809041d119eeb16b6688f06d581881195f9cf80f0d95bd18164736f6c634300080e0033",
  "devdoc": {
    "kind": "dev",
    "methods": {
      "deploy()": {
        "returns": {
          "proxy": "Address of deployed proxy."
        }
      },
      "deployFor(address)": {
        "params": {
          "owner": "Address to deploy the proxy for."
        },
        "returns": {
          "proxy": "Address of deployed proxy."
        }
      },
      "determineProxyAddress(address)": {
        "params": {
          "account": "Address to determine the proxy address for."
        }
      },
      "getProxyOf(address)": {
        "returns": {
          "_0": "address Proxy address owned by account.",
          "_1": "bool Whether if proxy is deployed"
        }
      },
      "ownerOf(address)": {
        "returns": {
          "_0": "address Owner of deployed proxy."
        }
      }
    },
    "stateVariables": {
      "_ownerOf": {
        "details": "track owner of proxy"
      },
      "_proxyOf": {
        "details": "track proxy of user"
      },
      "whitelistedImplementations": {
        "return": "bool Whether if implementation is whitelisted.",
        "returns": {
          "_0": "bool Whether if implementation is whitelisted."
        }
      }
    },
    "version": 1
  },
  "userdoc": {
    "events": {
      "DeployProxy(address,address,address)": {
        "notice": "Emitted when an OpsProxy is deployed."
      },
      "SetImplementation(address,address)": {
        "notice": "Emitted when OpsProxy implementation to be deployed is changed."
      },
      "UpdateWhitelistedImplementation(address,bool)": {
        "notice": "Emitted when OpsProxy implementation is added or removed from whitelist."
      }
    },
    "kind": "user",
    "methods": {
      "deploy()": {
        "notice": "Deploys OpsProxy for the msg.sender."
      },
      "deployFor(address)": {
        "notice": "Deploys OpsProxy for another address."
      },
      "determineProxyAddress(address)": {
        "notice": "Determines the OpsProxy address when it is not deployed."
      }
    },
    "version": 1
  },
  "storageLayout": {
    "storage": [
      {
        "astId": 6,
        "contract": "contracts/opsProxy/OpsProxyFactory.sol:OpsProxyFactory",
        "label": "_initialized",
        "offset": 0,
        "slot": "0",
        "type": "t_uint8"
      },
      {
        "astId": 9,
        "contract": "contracts/opsProxy/OpsProxyFactory.sol:OpsProxyFactory",
        "label": "_initializing",
        "offset": 1,
        "slot": "0",
        "type": "t_bool"
      },
      {
        "astId": 7084,
        "contract": "contracts/opsProxy/OpsProxyFactory.sol:OpsProxyFactory",
        "label": "implementation",
        "offset": 2,
        "slot": "0",
        "type": "t_address"
      },
      {
        "astId": 7089,
        "contract": "contracts/opsProxy/OpsProxyFactory.sol:OpsProxyFactory",
        "label": "whitelistedImplementations",
        "offset": 0,
        "slot": "1",
        "type": "t_mapping(t_address,t_bool)"
      },
      {
        "astId": 7094,
        "contract": "contracts/opsProxy/OpsProxyFactory.sol:OpsProxyFactory",
        "label": "_proxyOf",
        "offset": 0,
        "slot": "2",
        "type": "t_mapping(t_address,t_address)"
      },
      {
        "astId": 7099,
        "contract": "contracts/opsProxy/OpsProxyFactory.sol:OpsProxyFactory",
        "label": "_ownerOf",
        "offset": 0,
        "slot": "3",
        "type": "t_mapping(t_address,t_address)"
      }
    ],
    "types": {
      "t_address": {
        "encoding": "inplace",
        "label": "address",
        "numberOfBytes": "20"
      },
      "t_bool": {
        "encoding": "inplace",
        "label": "bool",
        "numberOfBytes": "1"
      },
      "t_mapping(t_address,t_address)": {
        "encoding": "mapping",
        "key": "t_address",
        "label": "mapping(address => address)",
        "numberOfBytes": "32",
        "value": "t_address"
      },
      "t_mapping(t_address,t_bool)": {
        "encoding": "mapping",
        "key": "t_address",
        "label": "mapping(address => bool)",
        "numberOfBytes": "32",
        "value": "t_bool"
      },
      "t_uint8": {
        "encoding": "inplace",
        "label": "uint8",
        "numberOfBytes": "1"
      }
    }
  }
}