{
  "address": "0xc6BAcf27F19CD786775dF7C7806C6BA13ceCABc9",
  "abi": [
    {
      "inputs": [],
      "name": "count",
      "outputs": [
        {
          "internalType": "uint256",
          "name": "",
          "type": "uint256"
        }
      ],
      "stateMutability": "view",
      "type": "function"
    },
    {
      "inputs": [
        {
          "internalType": "uint256",
          "name": "amount",
          "type": "uint256"
        }
      ],
      "name": "increaseCount",
      "outputs": [],
      "stateMutability": "nonpayable",
      "type": "function"
    },
    {
      "inputs": [],
      "name": "lastExecuted",
      "outputs": [
        {
          "internalType": "uint256",
          "name": "",
          "type": "uint256"
        }
      ],
      "stateMutability": "view",
      "type": "function"
    }
  ],
  "transactionHash": "0x78a203ff35d87ec8236ce8ed73a0199f0e7ea8c2a0a5e1eeb42c9830412833b1",
  "args": [],
  "solcInputHash": "fb5aff0ab01527e093034514887c981d",
  "bytecode": "0x608060405234801561001057600080fd5b5061032b806100206000396000f3fe608060405234801561001057600080fd5b50600436106100415760003560e01c806306661abd146100465780631c15ff771461006457806346d4adf214610082575b600080fd5b61004e61009e565b60405161005b91906101ef565b60405180910390f35b61006c6100a4565b60405161007991906101ef565b60405180910390f35b61009c60048036038101906100979190610131565b6100aa565b005b60005481565b60015481565b60b4600154426100ba9190610271565b116100fa576040517f08c379a00000000000000000000000000000000000000000000000000000000081526004016100f1906101cf565b60405180910390fd5b8060008082825461010b919061021b565b925050819055504260018190555050565b60008135905061012b816102de565b92915050565b60006020828403121561014357600080fd5b60006101518482850161011c565b91505092915050565b600061016760288361020a565b91507f436f756e7465723a20696e637265617365436f756e743a2054696d65206e6f7460008301527f20656c61707365640000000000000000000000000000000000000000000000006020830152604082019050919050565b6101c9816102a5565b82525050565b600060208201905081810360008301526101e88161015a565b9050919050565b600060208201905061020460008301846101c0565b92915050565b600082825260208201905092915050565b6000610226826102a5565b9150610231836102a5565b9250827fffffffffffffffffffffffffffffffffffffffffffffffffffffffffffffffff03821115610266576102656102af565b5b828201905092915050565b600061027c826102a5565b9150610287836102a5565b92508282101561029a576102996102af565b5b828203905092915050565b6000819050919050565b7f4e487b7100000000000000000000000000000000000000000000000000000000600052601160045260246000fd5b6102e7816102a5565b81146102f257600080fd5b5056fea26469706673582212209930518723a43ee9ab08eb8a79cb12956bb1584a4e01272ed39ea165af7ac0d364736f6c63430008000033",
  "devdoc": {
    "kind": "dev",
    "methods": {},
    "version": 1
  },
  "userdoc": {
    "kind": "user",
    "methods": {},
    "version": 1
  },
  "storageLayout": {
    "storage": [
      {
        "astId": 1562,
        "contract": "contracts/Counter.sol:Counter",
        "label": "count",
        "offset": 0,
        "slot": "0",
        "type": "t_uint256"
      },
      {
        "astId": 1564,
        "contract": "contracts/Counter.sol:Counter",
        "label": "lastExecuted",
        "offset": 0,
        "slot": "1",
        "type": "t_uint256"
      }
    ],
    "types": {
      "t_uint256": {
        "encoding": "inplace",
        "label": "uint256",
        "numberOfBytes": "32"
      }
    }
  }
}