{
  "address": "0x340759c8346A1E6Ed92035FB8B6ec57cE1D82c2c",
  "abi": [
    {
      "inputs": [
        {
          "internalType": "address payable",
          "name": "_pokeMe",
          "type": "address"
        }
      ],
      "stateMutability": "nonpayable",
      "type": "constructor"
    },
    {
      "inputs": [],
      "name": "count",
      "outputs": [
        {
          "internalType": "uint256",
          "name": "",
          "type": "uint256"
        }
      ],
      "stateMutability": "view",
      "type": "function"
    },
    {
      "inputs": [
        {
          "internalType": "uint256",
          "name": "amount",
          "type": "uint256"
        }
      ],
      "name": "increaseCount",
      "outputs": [],
      "stateMutability": "nonpayable",
      "type": "function"
    },
    {
      "inputs": [],
      "name": "pokeMe",
      "outputs": [
        {
          "internalType": "address payable",
          "name": "",
          "type": "address"
        }
      ],
      "stateMutability": "view",
      "type": "function"
    }
  ],
  "transactionHash": "0x0ad93842d27481bb9e13bd0a7822595755fe4e825a36d956380032bfe3162cb1",
  "args": [
    "0x9C4771560d84222fD8B7d9f15C59193388cC81B3"
  ],
  "solcInputHash": "b5149caadd00f288dc54b3f6e8bcd2a0",
  "bytecode": "0x60a060405234801561001057600080fd5b5060405161049e38038061049e83398181016040528101906100329190610086565b808073ffffffffffffffffffffffffffffffffffffffff1660808173ffffffffffffffffffffffffffffffffffffffff1660601b8152505050506100f8565b600081519050610080816100e1565b92915050565b60006020828403121561009857600080fd5b60006100a684828501610071565b91505092915050565b60006100ba826100c1565b9050919050565b600073ffffffffffffffffffffffffffffffffffffffff82169050919050565b6100ea816100af565b81146100f557600080fd5b50565b60805160601c61038261011c6000396000818160a6015261014f01526103826000f3fe608060405234801561001057600080fd5b50600436106100415760003560e01c806306661abd1461004657806346d4adf214610064578063c84eee0d14610080575b600080fd5b61004e61009e565b60405161005b9190610248565b60405180910390f35b61007e60048036038101906100799190610186565b6100a4565b005b61008861014d565b604051610095919061020d565b60405180910390f35b60005481565b7f000000000000000000000000000000000000000000000000000000000000000073ffffffffffffffffffffffffffffffffffffffff163373ffffffffffffffffffffffffffffffffffffffff1614610132576040517f08c379a000000000000000000000000000000000000000000000000000000000815260040161012990610228565b60405180910390fd5b806000808282546101439190610274565b9250508190555050565b7f000000000000000000000000000000000000000000000000000000000000000081565b60008135905061018081610335565b92915050565b60006020828403121561019857600080fd5b60006101a684828501610171565b91505092915050565b6101b8816102ca565b82525050565b60006101cb601783610263565b91507f506f6b654d6552656164793a206f6e6c79506f6b654d650000000000000000006000830152602082019050919050565b610207816102fc565b82525050565b600060208201905061022260008301846101af565b92915050565b60006020820190508181036000830152610241816101be565b9050919050565b600060208201905061025d60008301846101fe565b92915050565b600082825260208201905092915050565b600061027f826102fc565b915061028a836102fc565b9250827fffffffffffffffffffffffffffffffffffffffffffffffffffffffffffffffff038211156102bf576102be610306565b5b828201905092915050565b60006102d5826102dc565b9050919050565b600073ffffffffffffffffffffffffffffffffffffffff82169050919050565b6000819050919050565b7f4e487b7100000000000000000000000000000000000000000000000000000000600052601160045260246000fd5b61033e816102fc565b811461034957600080fd5b5056fea2646970667358221220ba12c8705bd8f65fc2eadb498826a78162d5fcbe8a09d4a0ba8f4e020e487f7764736f6c63430008000033",
  "devdoc": {
    "kind": "dev",
    "methods": {},
    "version": 1
  },
  "userdoc": {
    "kind": "user",
    "methods": {},
    "version": 1
  },
  "storageLayout": {
    "storage": [
      {
        "astId": 7,
        "contract": "contracts/ExampleWithTreasury/CounterTimedTask.sol:CounterTimedTask",
        "label": "count",
        "offset": 0,
        "slot": "0",
        "type": "t_uint256"
      }
    ],
    "types": {
      "t_uint256": {
        "encoding": "inplace",
        "label": "uint256",
        "numberOfBytes": "32"
      }
    }
  }
}