{
  "address": "0xfaf634e4Db23B3A7d19bb9aB9B640531dbd5779E",
  "abi": [
    {
      "inputs": [
        {
          "internalType": "bytes",
          "name": "execData",
          "type": "bytes"
        }
      ],
      "name": "checker",
      "outputs": [
        {
          "internalType": "bool",
          "name": "",
          "type": "bool"
        },
        {
          "internalType": "bytes",
          "name": "",
          "type": "bytes"
        }
      ],
      "stateMutability": "view",
      "type": "function"
    }
  ],
  "transactionHash": "0x26c5d8027559f90f509c1689d6a037c15e7f413294fcbcc3ae6ff89327466c97",
  "args": [],
  "solcInputHash": "5015d10b4865aa36eb0fadcc1f047873",
  "bytecode": "0x608060405234801561001057600080fd5b506102d3806100206000396000f3fe608060405234801561001057600080fd5b506004361061002b5760003560e01c8063e931fd5b14610030575b600080fd5b61004a600480360381019061004591906100d9565b610061565b604051610058929190610162565b60405180910390f35b6000606060018391509150915091565b600061008461007f846101c3565b610192565b90508281526020810184848401111561009c57600080fd5b6100a784828561021b565b509392505050565b600082601f8301126100c057600080fd5b81356100d0848260208601610071565b91505092915050565b6000602082840312156100eb57600080fd5b600082013567ffffffffffffffff81111561010557600080fd5b610111848285016100af565b91505092915050565b6101238161020f565b82525050565b6000610134826101f3565b61013e81856101fe565b935061014e81856020860161022a565b6101578161028c565b840191505092915050565b6000604082019050610177600083018561011a565b81810360208301526101898184610129565b90509392505050565b6000604051905081810181811067ffffffffffffffff821117156101b9576101b861025d565b5b8060405250919050565b600067ffffffffffffffff8211156101de576101dd61025d565b5b601f19601f8301169050602081019050919050565b600081519050919050565b600082825260208201905092915050565b60008115159050919050565b82818337600083830152505050565b60005b8381101561024857808201518184015260208101905061022d565b83811115610257576000848401525b50505050565b7f4e487b7100000000000000000000000000000000000000000000000000000000600052604160045260246000fd5b6000601f19601f830116905091905056fea26469706673582212201d9d7b50cc468628940f3c20608f7d65c1c71e428aec0f958273ebe38da7e67f64736f6c63430008000033",
  "devdoc": {
    "kind": "dev",
    "methods": {},
    "version": 1
  },
  "userdoc": {
    "kind": "user",
    "methods": {},
    "version": 1
  },
  "storageLayout": {
    "storage": [],
    "types": null
  }
}