{
  "address": "0x7A7680767a4e41Ace578470d8B0EB1Ff97b0c023",
  "abi": [
    {
      "inputs": [
        {
          "internalType": "address payable",
          "name": "_gelato",
          "type": "address"
        },
        {
          "internalType": "address",
          "name": "_taskTreasury",
          "type": "address"
        }
      ],
      "stateMutability": "nonpayable",
      "type": "constructor"
    },
    {
      "anonymous": false,
      "inputs": [
        {
          "indexed": true,
          "internalType": "uint256",
          "name": "txFee",
          "type": "uint256"
        },
        {
          "indexed": true,
          "internalType": "address",
          "name": "feeToken",
          "type": "address"
        },
        {
          "indexed": true,
          "internalType": "address",
          "name": "execAddress",
          "type": "address"
        },
        {
          "indexed": false,
          "internalType": "bytes",
          "name": "execData",
          "type": "bytes"
        },
        {
          "indexed": false,
          "internalType": "bytes32",
          "name": "taskId",
          "type": "bytes32"
        },
        {
          "indexed": false,
          "internalType": "bool",
          "name": "callSuccess",
          "type": "bool"
        }
      ],
      "name": "ExecSuccess",
      "type": "event"
    },
    {
      "anonymous": false,
      "inputs": [
        {
          "indexed": false,
          "internalType": "bytes32",
          "name": "taskId",
          "type": "bytes32"
        },
        {
          "indexed": false,
          "internalType": "address",
          "name": "taskCreator",
          "type": "address"
        }
      ],
      "name": "TaskCancelled",
      "type": "event"
    },
    {
      "anonymous": false,
      "inputs": [
        {
          "indexed": false,
          "internalType": "address",
          "name": "taskCreator",
          "type": "address"
        },
        {
          "indexed": false,
          "internalType": "address",
          "name": "execAddress",
          "type": "address"
        },
        {
          "indexed": false,
          "internalType": "bytes4",
          "name": "selector",
          "type": "bytes4"
        },
        {
          "indexed": false,
          "internalType": "address",
          "name": "resolverAddress",
          "type": "address"
        },
        {
          "indexed": false,
          "internalType": "bytes32",
          "name": "taskId",
          "type": "bytes32"
        },
        {
          "indexed": false,
          "internalType": "bytes",
          "name": "resolverData",
          "type": "bytes"
        },
        {
          "indexed": false,
          "internalType": "bool",
          "name": "useTaskTreasuryFunds",
          "type": "bool"
        },
        {
          "indexed": false,
          "internalType": "address",
          "name": "feeToken",
          "type": "address"
        },
        {
          "indexed": false,
          "internalType": "bytes32",
          "name": "resolverHash",
          "type": "bytes32"
        }
      ],
      "name": "TaskCreated",
      "type": "event"
    },
    {
      "anonymous": false,
      "inputs": [
        {
          "indexed": true,
          "internalType": "bytes32",
          "name": "taskId",
          "type": "bytes32"
        },
        {
          "indexed": true,
          "internalType": "uint128",
          "name": "nextExec",
          "type": "uint128"
        },
        {
          "indexed": true,
          "internalType": "uint128",
          "name": "interval",
          "type": "uint128"
        }
      ],
      "name": "TimerSet",
      "type": "event"
    },
    {
      "inputs": [
        {
          "internalType": "bytes32",
          "name": "_taskId",
          "type": "bytes32"
        }
      ],
      "name": "cancelTask",
      "outputs": [],
      "stateMutability": "nonpayable",
      "type": "function"
    },
    {
      "inputs": [
        {
          "internalType": "address",
          "name": "_execAddress",
          "type": "address"
        },
        {
          "internalType": "bytes4",
          "name": "_execSelector",
          "type": "bytes4"
        },
        {
          "internalType": "address",
          "name": "_resolverAddress",
          "type": "address"
        },
        {
          "internalType": "bytes",
          "name": "_resolverData",
          "type": "bytes"
        }
      ],
      "name": "createTask",
      "outputs": [
        {
          "internalType": "bytes32",
          "name": "task",
          "type": "bytes32"
        }
      ],
      "stateMutability": "nonpayable",
      "type": "function"
    },
    {
      "inputs": [
        {
          "internalType": "address",
          "name": "_execAddress",
          "type": "address"
        },
        {
          "internalType": "bytes4",
          "name": "_execSelector",
          "type": "bytes4"
        },
        {
          "internalType": "address",
          "name": "_resolverAddress",
          "type": "address"
        },
        {
          "internalType": "bytes",
          "name": "_resolverData",
          "type": "bytes"
        },
        {
          "internalType": "address",
          "name": "_feeToken",
          "type": "address"
        }
      ],
      "name": "createTaskNoPrepayment",
      "outputs": [
        {
          "internalType": "bytes32",
          "name": "task",
          "type": "bytes32"
        }
      ],
      "stateMutability": "nonpayable",
      "type": "function"
    },
    {
      "inputs": [
        {
          "internalType": "uint128",
          "name": "_startTime",
          "type": "uint128"
        },
        {
          "internalType": "uint128",
          "name": "_interval",
          "type": "uint128"
        },
        {
          "internalType": "address",
          "name": "_execAddress",
          "type": "address"
        },
        {
          "internalType": "bytes4",
          "name": "_execSelector",
          "type": "bytes4"
        },
        {
          "internalType": "address",
          "name": "_resolverAddress",
          "type": "address"
        },
        {
          "internalType": "bytes",
          "name": "_resolverData",
          "type": "bytes"
        },
        {
          "internalType": "address",
          "name": "_feeToken",
          "type": "address"
        },
        {
          "internalType": "bool",
          "name": "_useTreasury",
          "type": "bool"
        }
      ],
      "name": "createTimedTask",
      "outputs": [
        {
          "internalType": "bytes32",
          "name": "task",
          "type": "bytes32"
        }
      ],
      "stateMutability": "nonpayable",
      "type": "function"
    },
    {
      "inputs": [
        {
          "internalType": "uint256",
          "name": "_txFee",
          "type": "uint256"
        },
        {
          "internalType": "address",
          "name": "_feeToken",
          "type": "address"
        },
        {
          "internalType": "address",
          "name": "_taskCreator",
          "type": "address"
        },
        {
          "internalType": "bool",
          "name": "_useTaskTreasuryFunds",
          "type": "bool"
        },
        {
          "internalType": "bytes32",
          "name": "_resolverHash",
          "type": "bytes32"
        },
        {
          "internalType": "address",
          "name": "_execAddress",
          "type": "address"
        },
        {
          "internalType": "bytes",
          "name": "_execData",
          "type": "bytes"
        }
      ],
      "name": "exec",
      "outputs": [],
      "stateMutability": "nonpayable",
      "type": "function"
    },
    {
      "inputs": [
        {
          "internalType": "bytes32",
          "name": "",
          "type": "bytes32"
        }
      ],
      "name": "execAddresses",
      "outputs": [
        {
          "internalType": "address",
          "name": "",
          "type": "address"
        }
      ],
      "stateMutability": "view",
      "type": "function"
    },
    {
      "inputs": [],
      "name": "fee",
      "outputs": [
        {
          "internalType": "uint256",
          "name": "",
          "type": "uint256"
        }
      ],
      "stateMutability": "view",
      "type": "function"
    },
    {
      "inputs": [],
      "name": "feeToken",
      "outputs": [
        {
          "internalType": "address",
          "name": "",
          "type": "address"
        }
      ],
      "stateMutability": "view",
      "type": "function"
    },
    {
      "inputs": [],
      "name": "gelato",
      "outputs": [
        {
          "internalType": "address payable",
          "name": "",
          "type": "address"
        }
      ],
      "stateMutability": "view",
      "type": "function"
    },
    {
      "inputs": [],
      "name": "getFeeDetails",
      "outputs": [
        {
          "internalType": "uint256",
          "name": "",
          "type": "uint256"
        },
        {
          "internalType": "address",
          "name": "",
          "type": "address"
        }
      ],
      "stateMutability": "view",
      "type": "function"
    },
    {
      "inputs": [
        {
          "internalType": "address",
          "name": "_resolverAddress",
          "type": "address"
        },
        {
          "internalType": "bytes",
          "name": "_resolverData",
          "type": "bytes"
        }
      ],
      "name": "getResolverHash",
      "outputs": [
        {
          "internalType": "bytes32",
          "name": "",
          "type": "bytes32"
        }
      ],
      "stateMutability": "pure",
      "type": "function"
    },
    {
      "inputs": [
        {
          "internalType": "string",
          "name": "_func",
          "type": "string"
        }
      ],
      "name": "getSelector",
      "outputs": [
        {
          "internalType": "bytes4",
          "name": "",
          "type": "bytes4"
        }
      ],
      "stateMutability": "pure",
      "type": "function"
    },
    {
      "inputs": [
        {
          "internalType": "address",
          "name": "_taskCreator",
          "type": "address"
        },
        {
          "internalType": "address",
          "name": "_execAddress",
          "type": "address"
        },
        {
          "internalType": "bytes4",
          "name": "_selector",
          "type": "bytes4"
        },
        {
          "internalType": "bool",
          "name": "_useTaskTreasuryFunds",
          "type": "bool"
        },
        {
          "internalType": "address",
          "name": "_feeToken",
          "type": "address"
        },
        {
          "internalType": "bytes32",
          "name": "_resolverHash",
          "type": "bytes32"
        }
      ],
      "name": "getTaskId",
      "outputs": [
        {
          "internalType": "bytes32",
          "name": "",
          "type": "bytes32"
        }
      ],
      "stateMutability": "pure",
      "type": "function"
    },
    {
      "inputs": [
        {
          "internalType": "address",
          "name": "_taskCreator",
          "type": "address"
        }
      ],
      "name": "getTaskIdsByUser",
      "outputs": [
        {
          "internalType": "bytes32[]",
          "name": "",
          "type": "bytes32[]"
        }
      ],
      "stateMutability": "view",
      "type": "function"
    },
    {
      "inputs": [
        {
          "internalType": "bytes32",
          "name": "",
          "type": "bytes32"
        }
      ],
      "name": "taskCreator",
      "outputs": [
        {
          "internalType": "address",
          "name": "",
          "type": "address"
        }
      ],
      "stateMutability": "view",
      "type": "function"
    },
    {
      "inputs": [],
      "name": "taskTreasury",
      "outputs": [
        {
          "internalType": "address",
          "name": "",
          "type": "address"
        }
      ],
      "stateMutability": "view",
      "type": "function"
    },
    {
      "inputs": [
        {
          "internalType": "bytes32",
          "name": "",
          "type": "bytes32"
        }
      ],
      "name": "timedTask",
      "outputs": [
        {
          "internalType": "uint128",
          "name": "nextExec",
          "type": "uint128"
        },
        {
          "internalType": "uint128",
          "name": "interval",
          "type": "uint128"
        }
      ],
      "stateMutability": "view",
      "type": "function"
    },
    {
      "inputs": [],
      "name": "version",
      "outputs": [
        {
          "internalType": "string",
          "name": "",
          "type": "string"
        }
      ],
      "stateMutability": "view",
      "type": "function"
    }
  ],
  "transactionHash": "0xdf713e9d4bc1ff5807e49735626b7db5b9820264111cf6097d18dd2d029c4288",
  "args": [
    "0xCc4CcD69D31F9FfDBD3BFfDe49c6aA886DaB98d9",
    "0x2705aCca70CdB3E326C1013eEA2c03A4f2935b66"
  ],
  "solcInputHash": "256522308ec9dce361759a6c85929af0",
  "bytecode": "0x60c06040523480156200001157600080fd5b50604051620030f5380380620030f58339818101604052810190620000379190620000dd565b818073ffffffffffffffffffffffffffffffffffffffff1660808173ffffffffffffffffffffffffffffffffffffffff1660601b81525050508073ffffffffffffffffffffffffffffffffffffffff1660a08173ffffffffffffffffffffffffffffffffffffffff1660601b8152505050506200019a565b600081519050620000c08162000166565b92915050565b600081519050620000d78162000180565b92915050565b60008060408385031215620000f157600080fd5b60006200010185828601620000c6565b92505060206200011485828601620000af565b9150509250929050565b60006200012b8262000146565b9050919050565b60006200013f8262000146565b9050919050565b600073ffffffffffffffffffffffffffffffffffffffff82169050919050565b62000171816200011e565b81146200017d57600080fd5b50565b6200018b8162000132565b81146200019757600080fd5b50565b60805160601c60a05160601c612f21620001d460003960008181610d8501526113a90152600081816105d601526109040152612f216000f3fe608060405234801561001057600080fd5b50600436106101165760003560e01c80638e8b5279116100a2578063b9f45adb11610071578063b9f45adb14610331578063cabcb34914610361578063ddca3f4314610391578063e60a3213146103af578063ee8ca3b5146103cd57610116565b80638e8b527914610295578063a8738825146102b1578063b810c636146102e1578063b81cd8661461030057610116565b8063647846a5116100e9578063647846a5146101b75780636d2dd29f146101d55780637b4e45e91461020557806380a003ff146102355780638b92696a1461026557610116565b80630407145c1461011b5780632e6e0bd01461014b57806354fd4d501461017b578063573ea57514610199575b600080fd5b61013560048036038101906101309190611e71565b6103e9565b60405161014291906128e9565b60405180910390f35b61016560048036038101906101609190612089565b610568565b6040516101729190612755565b60405180910390f35b61018361059b565b60405161019091906129aa565b60405180910390f35b6101a16105d4565b6040516101ae9190612770565b60405180910390f35b6101bf6105f8565b6040516101cc9190612755565b60405180910390f35b6101ef60048036038101906101ea9190612089565b61061e565b6040516101fc9190612755565b60405180910390f35b61021f600480360381019061021a9190611e9a565b610651565b60405161022c919061290b565b60405180910390f35b61024f600480360381019061024a91906120b2565b610690565b60405161025c919061294f565b60405180910390f35b61027f600480360381019061027a9190611f23565b6106b2565b60405161028c919061290b565b60405180910390f35b6102af60048036038101906102aa91906121c5565b610902565b005b6102cb60048036038101906102c691906120f7565b610ebe565b6040516102d8919061290b565b60405180910390f35b6102e9611092565b6040516102f7929190612ad0565b60405180910390f35b61031a60048036038101906103159190612089565b6110c3565b604051610328929190612a8c565b60405180910390f35b61034b60048036038101906103469190611fa3565b61111f565b604051610358919061290b565b60405180910390f35b61037b60048036038101906103769190612035565b61136e565b604051610388919061290b565b60405180910390f35b6103996113a1565b6040516103a69190612ab5565b60405180910390f35b6103b76113a7565b6040516103c49190612755565b60405180910390f35b6103e760048036038101906103e29190612089565b6113cb565b005b60606000610434600260008573ffffffffffffffffffffffffffffffffffffffff1673ffffffffffffffffffffffffffffffffffffffff1681526020019081526020016000206116ab565b905060008167ffffffffffffffff811115610478577f4e487b7100000000000000000000000000000000000000000000000000000000600052604160045260246000fd5b6040519080825280602002602001820160405280156104a65781602001602082028036833780820191505090505b50905060005b8281101561055d5761050581600260008873ffffffffffffffffffffffffffffffffffffffff1673ffffffffffffffffffffffffffffffffffffffff1681526020019081526020016000206116c090919063ffffffff16565b82828151811061053e577f4e487b7100000000000000000000000000000000000000000000000000000000600052603260045260246000fd5b602002602001018181525050808061055590612d49565b9150506104ac565b508092505050919050565b60006020528060005260406000206000915054906101000a900473ffffffffffffffffffffffffffffffffffffffff1681565b6040518060400160405280600181526020017f330000000000000000000000000000000000000000000000000000000000000081525081565b7f000000000000000000000000000000000000000000000000000000000000000081565b600460009054906101000a900473ffffffffffffffffffffffffffffffffffffffff1681565b60016020528060005260406000206000915054906101000a900473ffffffffffffffffffffffffffffffffffffffff1681565b600086868686868660405160200161066e96959493929190612821565b6040516020818303038152906040528051906020012090509695505050505050565b600082826040516106a29291906126d4565b6040518091039020905092915050565b6000806107038585858080601f016020809104026020016040519081016040528093929190818152602001838380828437600081840152601f19601f8201169050808301925050505050505061136e565b90506107153388886001600086610651565b9150600073ffffffffffffffffffffffffffffffffffffffff1660008084815260200190815260200160002060009054906101000a900473ffffffffffffffffffffffffffffffffffffffff1673ffffffffffffffffffffffffffffffffffffffff16146107b8576040517f08c379a00000000000000000000000000000000000000000000000000000000081526004016107af906129ec565b60405180910390fd5b61080982600260003373ffffffffffffffffffffffffffffffffffffffff1673ffffffffffffffffffffffffffffffffffffffff1681526020019081526020016000206116d790919063ffffffff16565b503360008084815260200190815260200160002060006101000a81548173ffffffffffffffffffffffffffffffffffffffff021916908373ffffffffffffffffffffffffffffffffffffffff160217905550866001600084815260200190815260200160002060006101000a81548173ffffffffffffffffffffffffffffffffffffffff021916908373ffffffffffffffffffffffffffffffffffffffff1602179055507fcfd64545826fbe236e660141349bd1ed0b30c9bec7e213894afd7745a1f76f3333888888868989600160008a6040516108f09a9998979695949392919061278b565b60405180910390a15095945050505050565b7f000000000000000000000000000000000000000000000000000000000000000073ffffffffffffffffffffffffffffffffffffffff163373ffffffffffffffffffffffffffffffffffffffff1614610990576040517f08c379a0000000000000000000000000000000000000000000000000000000008152600401610987906129cc565b60405180910390fd5b60006109b687856109a186866116ee565b898a6109ad578c6109b0565b60005b8a610651565b90508673ffffffffffffffffffffffffffffffffffffffff1660008083815260200190815260200160002060009054906101000a900473ffffffffffffffffffffffffffffffffffffffff1673ffffffffffffffffffffffffffffffffffffffff1614610a58576040517f08c379a0000000000000000000000000000000000000000000000000000000008152600401610a4f90612a4c565b60405180910390fd5b85610aa6578860038190555087600460006101000a81548173ffffffffffffffffffffffffffffffffffffffff021916908373ffffffffffffffffffffffffffffffffffffffff1602179055505b60006005600083815260200190815260200160002090506000808260000160009054906101000a90046fffffffffffffffffffffffffffffffff166fffffffffffffffffffffffffffffffff161415610b00576000610b03565b60015b90508015610c8457426fffffffffffffffffffffffffffffffff168260000160009054906101000a90046fffffffffffffffffffffffffffffffff166fffffffffffffffffffffffffffffffff161115610b92576040517f08c379a0000000000000000000000000000000000000000000000000000000008152600401610b8990612a2c565b60405180910390fd5b60008260000160109054906101000a90046fffffffffffffffffffffffffffffffff168360000160009054906101000a90046fffffffffffffffffffffffffffffffff16610be09190612be1565b905060004290505b816fffffffffffffffffffffffffffffffff16816fffffffffffffffffffffffffffffffff1610610c46578360000160109054906101000a90046fffffffffffffffffffffffffffffffff1682610c3f9190612be1565b9150610be8565b818460000160006101000a8154816fffffffffffffffffffffffffffffffff02191690836fffffffffffffffffffffffffffffffff16021790555050505b6000808773ffffffffffffffffffffffffffffffffffffffff168787604051610cae9291906126d4565b6000604051808303816000865af19150503d8060008114610ceb576040519150601f19603f3d011682016040523d82523d6000602084013e610cf0565b606091505b5091509150600073ffffffffffffffffffffffffffffffffffffffff163273ffffffffffffffffffffffffffffffffffffffff16148015610d2f575081155b15610d7d57610d7c6040518060400160405280600981526020017f4f70732e657865633a0000000000000000000000000000000000000000000000815250826118fc90919063ffffffff16565b5b8915610e17577f000000000000000000000000000000000000000000000000000000000000000073ffffffffffffffffffffffffffffffffffffffff16636f192acc8d8f8e6040518463ffffffff1660e01b8152600401610de0939291906128b2565b600060405180830381600087803b158015610dfa57600080fd5b505af1158015610e0e573d6000803e3d6000fd5b50505050610e43565b600360009055600460006101000a81549073ffffffffffffffffffffffffffffffffffffffff02191690555b8773ffffffffffffffffffffffffffffffffffffffff168c73ffffffffffffffffffffffffffffffffffffffff168e7fa458375b1282695a972870cbfbc4891a9d856b79d563d17667d171d87e0c527a8a8a8a88604051610ea7949392919061296a565b60405180910390a450505050505050505050505050565b600080896fffffffffffffffffffffffffffffffff1611610f14576040517f08c379a0000000000000000000000000000000000000000000000000000000008152600401610f0b90612a0c565b60405180910390fd5b8115610f2e57610f2788888888886106b2565b9050610f3f565b610f3c88888888888861111f565b90505b6000428b6fffffffffffffffffffffffffffffffff1611610f605742610f62565b8a5b90506040518060400160405280826fffffffffffffffffffffffffffffffff1681526020018b6fffffffffffffffffffffffffffffffff168152506005600084815260200190815260200160002060008201518160000160006101000a8154816fffffffffffffffffffffffffffffffff02191690836fffffffffffffffffffffffffffffffff16021790555060208201518160000160106101000a8154816fffffffffffffffffffffffffffffffff02191690836fffffffffffffffffffffffffffffffff160217905550905050896fffffffffffffffffffffffffffffffff16816fffffffffffffffffffffffffffffffff16837f857791ec95701b6fff966bff1b5ce9a86107aeabaf6d2fdfd89993aa0f084e3760405160405180910390a4509998505050505050505050565b600080600354600460009054906101000a900473ffffffffffffffffffffffffffffffffffffffff16915091509091565b60056020528060005260406000206000915090508060000160009054906101000a90046fffffffffffffffffffffffffffffffff16908060000160109054906101000a90046fffffffffffffffffffffffffffffffff16905082565b6000806111708686868080601f016020809104026020016040519081016040528093929190818152602001838380828437600081840152601f19601f8201169050808301925050505050505061136e565b905061118133898960008786610651565b9150600073ffffffffffffffffffffffffffffffffffffffff1660008084815260200190815260200160002060009054906101000a900473ffffffffffffffffffffffffffffffffffffffff1673ffffffffffffffffffffffffffffffffffffffff1614611224576040517f08c379a000000000000000000000000000000000000000000000000000000000815260040161121b906129ec565b60405180910390fd5b61127582600260003373ffffffffffffffffffffffffffffffffffffffff1673ffffffffffffffffffffffffffffffffffffffff1681526020019081526020016000206116d790919063ffffffff16565b503360008084815260200190815260200160002060006101000a81548173ffffffffffffffffffffffffffffffffffffffff021916908373ffffffffffffffffffffffffffffffffffffffff160217905550876001600084815260200190815260200160002060006101000a81548173ffffffffffffffffffffffffffffffffffffffff021916908373ffffffffffffffffffffffffffffffffffffffff1602179055507fcfd64545826fbe236e660141349bd1ed0b30c9bec7e213894afd7745a1f76f3333898989868a8a60008b8a60405161135b9a9998979695949392919061278b565b60405180910390a1509695505050505050565b60008282604051602001611383929190612882565b60405160208183030381529060405280519060200120905092915050565b60035481565b7f000000000000000000000000000000000000000000000000000000000000000081565b3373ffffffffffffffffffffffffffffffffffffffff1660008083815260200190815260200160002060009054906101000a900473ffffffffffffffffffffffffffffffffffffffff1673ffffffffffffffffffffffffffffffffffffffff161461146b576040517f08c379a000000000000000000000000000000000000000000000000000000000815260040161146290612a6c565b60405180910390fd5b6114bc81600260003373ffffffffffffffffffffffffffffffffffffffff1673ffffffffffffffffffffffffffffffffffffffff168152602001908152602001600020611a6590919063ffffffff16565b5060008082815260200190815260200160002060006101000a81549073ffffffffffffffffffffffffffffffffffffffff02191690556001600082815260200190815260200160002060006101000a81549073ffffffffffffffffffffffffffffffffffffffff02191690556000600560008381526020019081526020016000206040518060400160405290816000820160009054906101000a90046fffffffffffffffffffffffffffffffff166fffffffffffffffffffffffffffffffff166fffffffffffffffffffffffffffffffff1681526020016000820160109054906101000a90046fffffffffffffffffffffffffffffffff166fffffffffffffffffffffffffffffffff166fffffffffffffffffffffffffffffffff1681525050905060008082600001516fffffffffffffffffffffffffffffffff161415611605576000611608565b60015b9050801561166d5760056000848152602001908152602001600020600080820160006101000a8154906fffffffffffffffffffffffffffffffff02191690556000820160106101000a8154906fffffffffffffffffffffffffffffffff021916905550505b7f44d83729a43f9c6046446df014d073dd242e0ad672071e9b292f31b669c25b09833360405161169e929190612926565b60405180910390a1505050565b60006116b982600001611a7c565b9050919050565b60006116cf8360000183611a8d565b905092915050565b60006116e68360000183611ade565b905092915050565b600060188383600381811061172c577f4e487b7100000000000000000000000000000000000000000000000000000000600052603260045260246000fd5b9050013560f81c60f81b7effffffffffffffffffffffffffffffffffffffffffffffffffffffffffffff19167bffffffffffffffffffffffffffffffffffffffffffffffffffffffff1916901c6010848460028181106117b5577f4e487b7100000000000000000000000000000000000000000000000000000000600052603260045260246000fd5b9050013560f81c60f81b7effffffffffffffffffffffffffffffffffffffffffffffffffffffffffffff19167bffffffffffffffffffffffffffffffffffffffffffffffffffffffff1916901c60088585600181811061183e577f4e487b7100000000000000000000000000000000000000000000000000000000600052603260045260246000fd5b9050013560f81c60f81b7effffffffffffffffffffffffffffffffffffffffffffffffffffffffffffff19167bffffffffffffffffffffffffffffffffffffffffffffffffffffffff1916901c858560008181106118c5577f4e487b7100000000000000000000000000000000000000000000000000000000600052603260045260246000fd5b9050013560f81c60f81b7effffffffffffffffffffffffffffffffffffffffffffffffffffffffffffff1916171717905092915050565b60046020835161190c9190612d92565b1415611a09576000826020015190506308c379a060e01b817bffffffffffffffffffffffffffffffffffffffffffffffffffffffff191614156119ad5760448301925081836040516020016119629291906126ed565b6040516020818303038152906040526040517f08c379a00000000000000000000000000000000000000000000000000000000081526004016119a491906129aa565b60405180910390fd5b816040516020016119be9190612711565b6040516020818303038152906040526040517f08c379a0000000000000000000000000000000000000000000000000000000008152600401611a0091906129aa565b60405180910390fd5b80604051602001611a1a9190612733565b6040516020818303038152906040526040517f08c379a0000000000000000000000000000000000000000000000000000000008152600401611a5c91906129aa565b60405180910390fd5b6000611a748360000183611b4e565b905092915050565b600081600001805490509050919050565b6000826000018281548110611acb577f4e487b7100000000000000000000000000000000000000000000000000000000600052603260045260246000fd5b9060005260206000200154905092915050565b6000611aea8383611cd4565b611b43578260000182908060018154018082558091505060019003906000526020600020016000909190919091505582600001805490508360010160008481526020019081526020016000208190555060019050611b48565b600090505b92915050565b60008083600101600084815260200190815260200160002054905060008114611cc8576000600182611b809190612c27565b9050600060018660000180549050611b989190612c27565b9050818114611c53576000866000018281548110611bdf577f4e487b7100000000000000000000000000000000000000000000000000000000600052603260045260246000fd5b9060005260206000200154905080876000018481548110611c29577f4e487b7100000000000000000000000000000000000000000000000000000000600052603260045260246000fd5b90600052602060002001819055508387600101600083815260200190815260200160002081905550505b85600001805480611c8d577f4e487b7100000000000000000000000000000000000000000000000000000000600052603160045260246000fd5b600190038181906000526020600020016000905590558560010160008681526020019081526020016000206000905560019350505050611cce565b60009150505b92915050565b600080836001016000848152602001908152602001600020541415905092915050565b6000611d0a611d0584612b2a565b612af9565b905082815260208101848484011115611d2257600080fd5b611d2d848285612d07565b509392505050565b600081359050611d4481612e61565b92915050565b600081359050611d5981612e78565b92915050565b600081359050611d6e81612e8f565b92915050565b600081359050611d8381612ea6565b92915050565b60008083601f840112611d9b57600080fd5b8235905067ffffffffffffffff811115611db457600080fd5b602083019150836001820283011115611dcc57600080fd5b9250929050565b600082601f830112611de457600080fd5b8135611df4848260208601611cf7565b91505092915050565b60008083601f840112611e0f57600080fd5b8235905067ffffffffffffffff811115611e2857600080fd5b602083019150836001820283011115611e4057600080fd5b9250929050565b600081359050611e5681612ebd565b92915050565b600081359050611e6b81612ed4565b92915050565b600060208284031215611e8357600080fd5b6000611e9184828501611d35565b91505092915050565b60008060008060008060c08789031215611eb357600080fd5b6000611ec189828a01611d35565b9650506020611ed289828a01611d35565b9550506040611ee389828a01611d74565b9450506060611ef489828a01611d4a565b9350506080611f0589828a01611d35565b92505060a0611f1689828a01611d5f565b9150509295509295509295565b600080600080600060808688031215611f3b57600080fd5b6000611f4988828901611d35565b9550506020611f5a88828901611d74565b9450506040611f6b88828901611d35565b935050606086013567ffffffffffffffff811115611f8857600080fd5b611f9488828901611d89565b92509250509295509295909350565b60008060008060008060a08789031215611fbc57600080fd5b6000611fca89828a01611d35565b9650506020611fdb89828a01611d74565b9550506040611fec89828a01611d35565b945050606087013567ffffffffffffffff81111561200957600080fd5b61201589828a01611d89565b9350935050608061202889828a01611d35565b9150509295509295509295565b6000806040838503121561204857600080fd5b600061205685828601611d35565b925050602083013567ffffffffffffffff81111561207357600080fd5b61207f85828601611dd3565b9150509250929050565b60006020828403121561209b57600080fd5b60006120a984828501611d5f565b91505092915050565b600080602083850312156120c557600080fd5b600083013567ffffffffffffffff8111156120df57600080fd5b6120eb85828601611dfd565b92509250509250929050565b60008060008060008060008060006101008a8c03121561211657600080fd5b60006121248c828d01611e47565b99505060206121358c828d01611e47565b98505060406121468c828d01611d35565b97505060606121578c828d01611d74565b96505060806121688c828d01611d35565b95505060a08a013567ffffffffffffffff81111561218557600080fd5b6121918c828d01611d89565b945094505060c06121a48c828d01611d35565b92505060e06121b58c828d01611d4a565b9150509295985092959850929598565b60008060008060008060008060e0898b0312156121e157600080fd5b60006121ef8b828c01611e5c565b98505060206122008b828c01611d35565b97505060406122118b828c01611d35565b96505060606122228b828c01611d4a565b95505060806122338b828c01611d5f565b94505060a06122448b828c01611d35565b93505060c089013567ffffffffffffffff81111561226157600080fd5b61226d8b828c01611d89565b92509250509295985092959890939650565b600061228b8383612322565b60208301905092915050565b6122a081612c6d565b82525050565b6122af81612c5b565b82525050565b60006122c082612b6a565b6122ca8185612b98565b93506122d583612b5a565b8060005b838110156123065781516122ed888261227f565b97506122f883612b8b565b9250506001810190506122d9565b5085935050505092915050565b61231c81612c7f565b82525050565b61232b81612c8b565b82525050565b61233a81612c8b565b82525050565b61234981612c95565b82525050565b600061235b8385612ba9565b9350612368838584612d07565b61237183612e50565b840190509392505050565b60006123888385612bba565b9350612395838584612d07565b82840190509392505050565b60006123ac82612b75565b6123b68185612ba9565b93506123c6818560208601612d16565b6123cf81612e50565b840191505092915050565b60006123e582612b80565b6123ef8185612bc5565b93506123ff818560208601612d16565b61240881612e50565b840191505092915050565b600061241e82612b80565b6124288185612bd6565b9350612438818560208601612d16565b80840191505092915050565b6000612451601783612bc5565b91507f47656c61746f666965643a204f6e6c792067656c61746f0000000000000000006000830152602082019050919050565b6000612491602c83612bc5565b91507f4f70733a206372656174655461736b3a2053656e64657220616c72656164792060008301527f73746172746564207461736b00000000000000000000000000000000000000006020830152604082019050919050565b60006124f7602a83612bc5565b91507f4f70733a2063726561746554696d65645461736b3a20696e74657276616c206360008301527f616e6e6f742062652030000000000000000000000000000000000000000000006020830152604082019050919050565b600061255d601483612bc5565b91507f4f70733a20657865633a20546f6f206561726c790000000000000000000000006000830152602082019050919050565b600061259d600f83612bd6565b91507f4e6f4572726f7253656c6563746f7200000000000000000000000000000000006000830152600f82019050919050565b60006125dd601883612bc5565b91507f4f70733a20657865633a204e6f207461736b20666f756e6400000000000000006000830152602082019050919050565b600061261d602e83612bc5565b91507f4f70733a2063616e63656c5461736b3a2053656e64657220646964206e6f742060008301527f7374617274207461736b207965740000000000000000000000000000000000006020830152604082019050919050565b6000612683601483612bd6565b91507f556e657870656374656452657475726e646174610000000000000000000000006000830152601482019050919050565b6126bf81612cc1565b82525050565b6126ce81612cfd565b82525050565b60006126e182848661237c565b91508190509392505050565b60006126f98285612413565b91506127058284612413565b91508190509392505050565b600061271d8284612413565b915061272882612590565b915081905092915050565b600061273f8284612413565b915061274a82612676565b915081905092915050565b600060208201905061276a60008301846122a6565b92915050565b60006020820190506127856000830184612297565b92915050565b6000610120820190506127a1600083018d6122a6565b6127ae602083018c6122a6565b6127bb604083018b612340565b6127c8606083018a6122a6565b6127d56080830189612331565b81810360a08301526127e881878961234f565b90506127f760c0830186612313565b61280460e08301856122a6565b612812610100830184612331565b9b9a5050505050505050505050565b600060c08201905061283660008301896122a6565b61284360208301886122a6565b6128506040830187612340565b61285d6060830186612313565b61286a60808301856122a6565b61287760a0830184612331565b979650505050505050565b600060408201905061289760008301856122a6565b81810360208301526128a981846123a1565b90509392505050565b60006060820190506128c760008301866122a6565b6128d460208301856126c5565b6128e160408301846122a6565b949350505050565b6000602082019050818103600083015261290381846122b5565b905092915050565b60006020820190506129206000830184612331565b92915050565b600060408201905061293b6000830185612331565b61294860208301846122a6565b9392505050565b60006020820190506129646000830184612340565b92915050565b6000606082019050818103600083015261298581868861234f565b90506129946020830185612331565b6129a16040830184612313565b95945050505050565b600060208201905081810360008301526129c481846123da565b905092915050565b600060208201905081810360008301526129e581612444565b9050919050565b60006020820190508181036000830152612a0581612484565b9050919050565b60006020820190508181036000830152612a25816124ea565b9050919050565b60006020820190508181036000830152612a4581612550565b9050919050565b60006020820190508181036000830152612a65816125d0565b9050919050565b60006020820190508181036000830152612a8581612610565b9050919050565b6000604082019050612aa160008301856126b6565b612aae60208301846126b6565b9392505050565b6000602082019050612aca60008301846126c5565b92915050565b6000604082019050612ae560008301856126c5565b612af260208301846122a6565b9392505050565b6000604051905081810181811067ffffffffffffffff82111715612b2057612b1f612e21565b5b8060405250919050565b600067ffffffffffffffff821115612b4557612b44612e21565b5b601f19601f8301169050602081019050919050565b6000819050602082019050919050565b600081519050919050565b600081519050919050565b600081519050919050565b6000602082019050919050565b600082825260208201905092915050565b600082825260208201905092915050565b600081905092915050565b600082825260208201905092915050565b600081905092915050565b6000612bec82612cc1565b9150612bf783612cc1565b9250826fffffffffffffffffffffffffffffffff03821115612c1c57612c1b612dc3565b5b828201905092915050565b6000612c3282612cfd565b9150612c3d83612cfd565b925082821015612c5057612c4f612dc3565b5b828203905092915050565b6000612c6682612cdd565b9050919050565b6000612c7882612cdd565b9050919050565b60008115159050919050565b6000819050919050565b60007fffffffff0000000000000000000000000000000000000000000000000000000082169050919050565b60006fffffffffffffffffffffffffffffffff82169050919050565b600073ffffffffffffffffffffffffffffffffffffffff82169050919050565b6000819050919050565b82818337600083830152505050565b60005b83811015612d34578082015181840152602081019050612d19565b83811115612d43576000848401525b50505050565b6000612d5482612cfd565b91507fffffffffffffffffffffffffffffffffffffffffffffffffffffffffffffffff821415612d8757612d86612dc3565b5b600182019050919050565b6000612d9d82612cfd565b9150612da883612cfd565b925082612db857612db7612df2565b5b828206905092915050565b7f4e487b7100000000000000000000000000000000000000000000000000000000600052601160045260246000fd5b7f4e487b7100000000000000000000000000000000000000000000000000000000600052601260045260246000fd5b7f4e487b7100000000000000000000000000000000000000000000000000000000600052604160045260246000fd5b6000601f19601f8301169050919050565b612e6a81612c5b565b8114612e7557600080fd5b50565b612e8181612c7f565b8114612e8c57600080fd5b50565b612e9881612c8b565b8114612ea357600080fd5b50565b612eaf81612c95565b8114612eba57600080fd5b50565b612ec681612cc1565b8114612ed157600080fd5b50565b612edd81612cfd565b8114612ee857600080fd5b5056fea2646970667358221220384322338e10c3d24816b7e80ff5cfb49029f13802f98c699c9b06a6752522b364736f6c63430008000033",
  "devdoc": {
    "kind": "dev",
    "methods": {
      "cancelTask(bytes32)": {
        "params": {
          "_taskId": "The hash of the task, can be computed using getTaskId()"
        }
      },
      "createTask(address,bytes4,address,bytes)": {
        "details": "Requires funds to be added in Task Treasury, assumes treasury sends fee to Gelato via Ops",
        "params": {
          "_execAddress": "On which contract should Gelato execute the transactions",
          "_execSelector": "Which function Gelato should eecute on the _execAddress",
          "_resolverAddress": "On which contract should Gelato check when to execute the tx",
          "_resolverData": "Which data should be used to check on the Resolver when to execute the tx"
        }
      },
      "createTaskNoPrepayment(address,bytes4,address,bytes,address)": {
        "details": "Requires no funds to be added in Task Treasury, assumes tasks sends fee to Gelato directly",
        "params": {
          "_execAddress": "On which contract should Gelato execute the transactions",
          "_execSelector": "Which function Gelato should eecute on the _execAddress",
          "_feeToken": "Which token to use as fee payment",
          "_resolverAddress": "On which contract should Gelato check when to execute the tx",
          "_resolverData": "Which data should be used to check on the Resolver when to execute the tx"
        }
      },
      "createTimedTask(uint128,uint128,address,bytes4,address,bytes,address,bool)": {
        "params": {
          "_execAddress": "On which contract should Gelato execute the transactions",
          "_execSelector": "Which function Gelato should eecute on the _execAddress",
          "_feeToken": "Which token to use as fee payment",
          "_interval": "After how many seconds should each task be executed",
          "_resolverAddress": "On which contract should Gelato check when to execute the tx",
          "_resolverData": "Which data should be used to check on the Resolver when to execute the tx",
          "_startTime": "Timestamp when the first task should become executable. 0 for right now",
          "_useTreasury": "True if Gelato should charge fees from TaskTreasury, false if not"
        }
      },
      "exec(uint256,address,address,bool,bytes32,address,bytes)": {
        "params": {
          "_execAddress": "On which contract should Gelato execute the tx",
          "_execData": "Data used to execute the tx, queried from the Resolver by Gelato",
          "_feeToken": "Token used to pay for the execution. ETH = 0xeeeeee...",
          "_taskCreator": "On which contract should Gelato check when to execute the tx",
          "_txFee": "Fee paid to Gelato for execution, deducted on the TaskTreasury",
          "_useTaskTreasuryFunds": "If msg.sender's balance on TaskTreasury should pay for the tx"
        }
      },
      "getResolverHash(address,bytes)": {
        "params": {
          "_resolverAddress": "Address of resolver",
          "_resolverData": "Data passed to resolver"
        }
      },
      "getSelector(string)": {
        "details": "Example: \"transferFrom(address,address,uint256)\" => 0x23b872dd",
        "params": {
          "_func": "String of the function you want the selector from"
        }
      },
      "getTaskId(address,address,bytes4,bool,address,bytes32)": {
        "params": {
          "_execAddress": "Address of the contract to be executed by Gelato",
          "_feeToken": "FeeToken to use, address 0 if task treasury is used",
          "_resolverHash": "hash of resolver address and data",
          "_selector": "Function on the _execAddress which should be executed",
          "_taskCreator": "Address of the task creator",
          "_useTaskTreasuryFunds": "If msg.sender's balance on TaskTreasury should pay for the tx"
        }
      },
      "getTaskIdsByUser(address)": {
        "params": {
          "_taskCreator": "Address who created the task"
        }
      }
    },
    "version": 1
  },
  "userdoc": {
    "kind": "user",
    "methods": {
      "cancelTask(bytes32)": {
        "notice": "Cancel a task so that Gelato can no longer execute it"
      },
      "createTask(address,bytes4,address,bytes)": {
        "notice": "Create a task that tells Gelato to monitor and execute transactions on specific contracts"
      },
      "createTaskNoPrepayment(address,bytes4,address,bytes,address)": {
        "notice": "Create a task that tells Gelato to monitor and execute transactions on specific contracts"
      },
      "createTimedTask(uint128,uint128,address,bytes4,address,bytes,address,bool)": {
        "notice": "Create a timed task that executes every so often based on the inputted interval"
      },
      "exec(uint256,address,address,bool,bytes32,address,bytes)": {
        "notice": "Execution API called by Gelato"
      },
      "getFeeDetails()": {
        "notice": "Helper func to query fee and feeToken"
      },
      "getResolverHash(address,bytes)": {
        "notice": "Helper func to query the resolverHash"
      },
      "getSelector(string)": {
        "notice": "Helper func to query the _selector of a function you want to automate"
      },
      "getTaskId(address,address,bytes4,bool,address,bytes32)": {
        "notice": "Returns TaskId of a task Creator"
      },
      "getTaskIdsByUser(address)": {
        "notice": "Helper func to query all open tasks by a task creator"
      }
    },
    "notice": "Ops enables everyone to communicate to Gelato Bots to monitor and execute certain transactionsResolverAddresses determine when Gelato should execute and provides bots with the payload they should use to executeExecAddress determine the actual contracts to execute a function on",
    "version": 1
  },
  "storageLayout": {
    "storage": [
      {
        "astId": 1427,
        "contract": "contracts/Ops.sol:Ops",
        "label": "taskCreator",
        "offset": 0,
        "slot": "0",
        "type": "t_mapping(t_bytes32,t_address)"
      },
      {
        "astId": 1431,
        "contract": "contracts/Ops.sol:Ops",
        "label": "execAddresses",
        "offset": 0,
        "slot": "1",
        "type": "t_mapping(t_bytes32,t_address)"
      },
      {
        "astId": 1436,
        "contract": "contracts/Ops.sol:Ops",
        "label": "_createdTasks",
        "offset": 0,
        "slot": "2",
        "type": "t_mapping(t_address,t_struct(Bytes32Set)1053_storage)"
      },
      {
        "astId": 1440,
        "contract": "contracts/Ops.sol:Ops",
        "label": "fee",
        "offset": 0,
        "slot": "3",
        "type": "t_uint256"
      },
      {
        "astId": 1442,
        "contract": "contracts/Ops.sol:Ops",
        "label": "feeToken",
        "offset": 0,
        "slot": "4",
        "type": "t_address"
      },
      {
        "astId": 1447,
        "contract": "contracts/Ops.sol:Ops",
        "label": "timedTask",
        "offset": 0,
        "slot": "5",
        "type": "t_mapping(t_bytes32,t_struct(Time)1420_storage)"
      }
    ],
    "types": {
      "t_address": {
        "encoding": "inplace",
        "label": "address",
        "numberOfBytes": "20"
      },
      "t_array(t_bytes32)dyn_storage": {
        "base": "t_bytes32",
        "encoding": "dynamic_array",
        "label": "bytes32[]",
        "numberOfBytes": "32"
      },
      "t_bytes32": {
        "encoding": "inplace",
        "label": "bytes32",
        "numberOfBytes": "32"
      },
      "t_mapping(t_address,t_struct(Bytes32Set)1053_storage)": {
        "encoding": "mapping",
        "key": "t_address",
        "label": "mapping(address => struct EnumerableSet.Bytes32Set)",
        "numberOfBytes": "32",
        "value": "t_struct(Bytes32Set)1053_storage"
      },
      "t_mapping(t_bytes32,t_address)": {
        "encoding": "mapping",
        "key": "t_bytes32",
        "label": "mapping(bytes32 => address)",
        "numberOfBytes": "32",
        "value": "t_address"
      },
      "t_mapping(t_bytes32,t_struct(Time)1420_storage)": {
        "encoding": "mapping",
        "key": "t_bytes32",
        "label": "mapping(bytes32 => struct Ops.Time)",
        "numberOfBytes": "32",
        "value": "t_struct(Time)1420_storage"
      },
      "t_mapping(t_bytes32,t_uint256)": {
        "encoding": "mapping",
        "key": "t_bytes32",
        "label": "mapping(bytes32 => uint256)",
        "numberOfBytes": "32",
        "value": "t_uint256"
      },
      "t_struct(Bytes32Set)1053_storage": {
        "encoding": "inplace",
        "label": "struct EnumerableSet.Bytes32Set",
        "members": [
          {
            "astId": 1052,
            "contract": "contracts/Ops.sol:Ops",
            "label": "_inner",
            "offset": 0,
            "slot": "0",
            "type": "t_struct(Set)873_storage"
          }
        ],
        "numberOfBytes": "64"
      },
      "t_struct(Set)873_storage": {
        "encoding": "inplace",
        "label": "struct EnumerableSet.Set",
        "members": [
          {
            "astId": 868,
            "contract": "contracts/Ops.sol:Ops",
            "label": "_values",
            "offset": 0,
            "slot": "0",
            "type": "t_array(t_bytes32)dyn_storage"
          },
          {
            "astId": 872,
            "contract": "contracts/Ops.sol:Ops",
            "label": "_indexes",
            "offset": 0,
            "slot": "1",
            "type": "t_mapping(t_bytes32,t_uint256)"
          }
        ],
        "numberOfBytes": "64"
      },
      "t_struct(Time)1420_storage": {
        "encoding": "inplace",
        "label": "struct Ops.Time",
        "members": [
          {
            "astId": 1417,
            "contract": "contracts/Ops.sol:Ops",
            "label": "nextExec",
            "offset": 0,
            "slot": "0",
            "type": "t_uint128"
          },
          {
            "astId": 1419,
            "contract": "contracts/Ops.sol:Ops",
            "label": "interval",
            "offset": 16,
            "slot": "0",
            "type": "t_uint128"
          }
        ],
        "numberOfBytes": "32"
      },
      "t_uint128": {
        "encoding": "inplace",
        "label": "uint128",
        "numberOfBytes": "16"
      },
      "t_uint256": {
        "encoding": "inplace",
        "label": "uint256",
        "numberOfBytes": "32"
      }
    }
  }
}