{
  "address": "0x799c81DA89F5Dc7f216bd0d54f8F7c3c186a272f",
  "abi": [
    {
      "inputs": [
        {
          "internalType": "address payable",
          "name": "_gelato",
          "type": "address"
        }
      ],
      "stateMutability": "nonpayable",
      "type": "constructor"
    },
    {
      "anonymous": false,
      "inputs": [
        {
          "indexed": true,
          "internalType": "uint256",
          "name": "txFee",
          "type": "uint256"
        },
        {
          "indexed": true,
          "internalType": "address",
          "name": "feeToken",
          "type": "address"
        },
        {
          "indexed": true,
          "internalType": "address",
          "name": "execAddress",
          "type": "address"
        },
        {
          "indexed": false,
          "internalType": "bytes",
          "name": "execData",
          "type": "bytes"
        }
      ],
      "name": "ExecSuccess",
      "type": "event"
    },
    {
      "anonymous": false,
      "inputs": [
        {
          "indexed": true,
          "internalType": "address",
          "name": "sender",
          "type": "address"
        },
        {
          "indexed": true,
          "internalType": "address",
          "name": "token",
          "type": "address"
        },
        {
          "indexed": true,
          "internalType": "uint256",
          "name": "amount",
          "type": "uint256"
        }
      ],
      "name": "FundsDeposited",
      "type": "event"
    },
    {
      "anonymous": false,
      "inputs": [
        {
          "indexed": true,
          "internalType": "address",
          "name": "receiver",
          "type": "address"
        },
        {
          "indexed": true,
          "internalType": "address",
          "name": "token",
          "type": "address"
        },
        {
          "indexed": false,
          "internalType": "uint256",
          "name": "amount",
          "type": "uint256"
        }
      ],
      "name": "FundsWithdrawn",
      "type": "event"
    },
    {
      "anonymous": false,
      "inputs": [
        {
          "indexed": false,
          "internalType": "bytes32",
          "name": "taskId",
          "type": "bytes32"
        }
      ],
      "name": "TaskCancelled",
      "type": "event"
    },
    {
      "anonymous": false,
      "inputs": [
        {
          "indexed": false,
          "internalType": "address",
          "name": "callee",
          "type": "address"
        },
        {
          "indexed": false,
          "internalType": "address",
          "name": "execAddress",
          "type": "address"
        },
        {
          "indexed": false,
          "internalType": "bytes4",
          "name": "selector",
          "type": "bytes4"
        },
        {
          "indexed": false,
          "internalType": "address",
          "name": "resolver",
          "type": "address"
        },
        {
          "indexed": false,
          "internalType": "bytes32",
          "name": "taskId",
          "type": "bytes32"
        },
        {
          "indexed": false,
          "internalType": "bytes",
          "name": "resolverData",
          "type": "bytes"
        }
      ],
      "name": "TaskCreated",
      "type": "event"
    },
    {
      "inputs": [],
      "name": "ETH",
      "outputs": [
        {
          "internalType": "address",
          "name": "",
          "type": "address"
        }
      ],
      "stateMutability": "view",
      "type": "function"
    },
    {
      "inputs": [
        {
          "internalType": "address",
          "name": "",
          "type": "address"
        },
        {
          "internalType": "address",
          "name": "",
          "type": "address"
        }
      ],
      "name": "balanceOfCallee",
      "outputs": [
        {
          "internalType": "uint256",
          "name": "",
          "type": "uint256"
        }
      ],
      "stateMutability": "view",
      "type": "function"
    },
    {
      "inputs": [
        {
          "internalType": "bytes32",
          "name": "",
          "type": "bytes32"
        }
      ],
      "name": "calleeOfTask",
      "outputs": [
        {
          "internalType": "address",
          "name": "",
          "type": "address"
        }
      ],
      "stateMutability": "view",
      "type": "function"
    },
    {
      "inputs": [
        {
          "internalType": "bytes32",
          "name": "_task",
          "type": "bytes32"
        }
      ],
      "name": "cancelTask",
      "outputs": [],
      "stateMutability": "nonpayable",
      "type": "function"
    },
    {
      "inputs": [
        {
          "internalType": "address",
          "name": "_execAddress",
          "type": "address"
        },
        {
          "internalType": "bytes4",
          "name": "_execSelector",
          "type": "bytes4"
        },
        {
          "internalType": "address",
          "name": "_resolver",
          "type": "address"
        },
        {
          "internalType": "bytes",
          "name": "_resolverData",
          "type": "bytes"
        }
      ],
      "name": "createTask",
      "outputs": [],
      "stateMutability": "nonpayable",
      "type": "function"
    },
    {
      "inputs": [
        {
          "internalType": "address",
          "name": "_receiver",
          "type": "address"
        },
        {
          "internalType": "address",
          "name": "_token",
          "type": "address"
        },
        {
          "internalType": "uint256",
          "name": "_amount",
          "type": "uint256"
        }
      ],
      "name": "depositFunds",
      "outputs": [],
      "stateMutability": "payable",
      "type": "function"
    },
    {
      "inputs": [
        {
          "internalType": "uint256",
          "name": "_txFee",
          "type": "uint256"
        },
        {
          "internalType": "address",
          "name": "_feeToken",
          "type": "address"
        },
        {
          "internalType": "address",
          "name": "_execAddress",
          "type": "address"
        },
        {
          "internalType": "bytes",
          "name": "_execData",
          "type": "bytes"
        }
      ],
      "name": "exec",
      "outputs": [],
      "stateMutability": "nonpayable",
      "type": "function"
    },
    {
      "inputs": [
        {
          "internalType": "bytes32",
          "name": "",
          "type": "bytes32"
        }
      ],
      "name": "execAddresses",
      "outputs": [
        {
          "internalType": "address",
          "name": "",
          "type": "address"
        }
      ],
      "stateMutability": "view",
      "type": "function"
    },
    {
      "inputs": [],
      "name": "gelato",
      "outputs": [
        {
          "internalType": "address payable",
          "name": "",
          "type": "address"
        }
      ],
      "stateMutability": "view",
      "type": "function"
    },
    {
      "inputs": [
        {
          "internalType": "address",
          "name": "_callee",
          "type": "address"
        }
      ],
      "name": "getCreditTokensByUser",
      "outputs": [
        {
          "internalType": "address[]",
          "name": "creditTokens",
          "type": "address[]"
        }
      ],
      "stateMutability": "view",
      "type": "function"
    },
    {
      "inputs": [
        {
          "internalType": "string",
          "name": "_func",
          "type": "string"
        }
      ],
      "name": "getSelector",
      "outputs": [
        {
          "internalType": "bytes4",
          "name": "",
          "type": "bytes4"
        }
      ],
      "stateMutability": "pure",
      "type": "function"
    },
    {
      "inputs": [
        {
          "internalType": "address",
          "name": "_execAddress",
          "type": "address"
        },
        {
          "internalType": "bytes4",
          "name": "_selector",
          "type": "bytes4"
        }
      ],
      "name": "getTaskId",
      "outputs": [
        {
          "internalType": "bytes32",
          "name": "",
          "type": "bytes32"
        }
      ],
      "stateMutability": "pure",
      "type": "function"
    },
    {
      "inputs": [
        {
          "internalType": "address",
          "name": "_callee",
          "type": "address"
        }
      ],
      "name": "getTaskIdsByUser",
      "outputs": [
        {
          "internalType": "bytes32[]",
          "name": "taskIds",
          "type": "bytes32[]"
        }
      ],
      "stateMutability": "view",
      "type": "function"
    },
    {
      "inputs": [
        {
          "internalType": "address",
          "name": "_token",
          "type": "address"
        },
        {
          "internalType": "uint256",
          "name": "_amount",
          "type": "uint256"
        }
      ],
      "name": "withdrawFunds",
      "outputs": [],
      "stateMutability": "nonpayable",
      "type": "function"
    }
  ],
  "transactionHash": "0x441ca56231ad1ee4e3e9bf5fb35ae3b8035f8095799c8401846d48633577d40f",
  "args": [
    "0xCc4CcD69D31F9FfDBD3BFfDe49c6aA886DaB98d9"
  ],
  "solcInputHash": "bd512e35da8fcfa7944b46679e49661c",
  "bytecode": "0x60a06040523480156200001157600080fd5b5060405162002fe338038062002fe3833981810160405281019062000037919062000096565b8060016000819055508073ffffffffffffffffffffffffffffffffffffffff1660808173ffffffffffffffffffffffffffffffffffffffff1660601b81525050505062000110565b6000815190506200009081620000f6565b92915050565b600060208284031215620000a957600080fd5b6000620000b9848285016200007f565b91505092915050565b6000620000cf82620000d6565b9050919050565b600073ffffffffffffffffffffffffffffffffffffffff82169050919050565b6200010181620000c2565b81146200010d57600080fd5b50565b60805160601c612ea66200013d600039600081816105fc01528181610ef701526112760152612ea66000f3fe6080604052600436106100dd5760003560e01c8063812975071161007f578063c107532911610059578063c10753291461030c578063c1461d5714610335578063dd2cfd4a14610351578063ee8ca3b51461037a576100dd565b8063812975071461027b5780638322fff2146102b85780638b92696a146102e3576100dd565b8063573ea575116100bb578063573ea5751461019957806361847227146101c45780636d2dd29f1461020157806380a003ff1461023e576100dd565b80630407145c146100e2578063215a43ca1461011f5780632bf30a0e1461015c575b600080fd5b3480156100ee57600080fd5b5061010960048036038101906101049190611fab565b6103a3565b604051610116919061296a565b60405180910390f35b34801561012b57600080fd5b5061014660048036038101906101419190611fd4565b6104a5565b6040516101539190612b48565b60405180910390f35b34801561016857600080fd5b50610183600480360381019061017e9190611fab565b6104ca565b6040516101909190612948565b60405180910390f35b3480156101a557600080fd5b506101ae6105fa565b6040516101bb919061283a565b60405180910390f35b3480156101d057600080fd5b506101eb60048036038101906101e69190612180565b61061e565b6040516101f8919061281f565b60405180910390f35b34801561020d57600080fd5b5061022860048036038101906102239190612180565b610651565b604051610235919061281f565b60405180910390f35b34801561024a57600080fd5b50610265600480360381019061026091906121a9565b610684565b60405161027291906129a7565b60405180910390f35b34801561028757600080fd5b506102a2600480360381019061029d919061205f565b6106a6565b6040516102af919061298c565b60405180910390f35b3480156102c457600080fd5b506102cd6106d9565b6040516102da919061281f565b60405180910390f35b3480156102ef57600080fd5b5061030a6004803603810190610305919061209b565b6106f1565b005b34801561031857600080fd5b50610333600480360381019061032e919061211b565b6108e2565b005b61034f600480360381019061034a9190612010565b610b2b565b005b34801561035d57600080fd5b5061037860048036038101906103739190612217565b610ef3565b005b34801561038657600080fd5b506103a1600480360381019061039c9190612180565b6112a5565b005b606060005b6103ef600460008573ffffffffffffffffffffffffffffffffffffffff1673ffffffffffffffffffffffffffffffffffffffff168152602001908152602001600020611440565b81101561049f5761044781600460008673ffffffffffffffffffffffffffffffffffffffff1673ffffffffffffffffffffffffffffffffffffffff16815260200190815260200160002061145590919063ffffffff16565b828281518110610480577f4e487b7100000000000000000000000000000000000000000000000000000000600052603260045260246000fd5b602002602001018181525050808061049790612d74565b9150506103a8565b50919050565b6003602052816000526040600020602052806000526040600020600091509150505481565b606060005b610516600460008573ffffffffffffffffffffffffffffffffffffffff1673ffffffffffffffffffffffffffffffffffffffff168152602001908152602001600020611440565b8110156105f45761056e81600560008673ffffffffffffffffffffffffffffffffffffffff1673ffffffffffffffffffffffffffffffffffffffff16815260200190815260200160002061146c90919063ffffffff16565b8282815181106105a7577f4e487b7100000000000000000000000000000000000000000000000000000000600052603260045260246000fd5b602002602001019073ffffffffffffffffffffffffffffffffffffffff16908173ffffffffffffffffffffffffffffffffffffffff168152505080806105ec90612d74565b9150506104cf565b50919050565b7f000000000000000000000000000000000000000000000000000000000000000081565b60016020528060005260406000206000915054906101000a900473ffffffffffffffffffffffffffffffffffffffff1681565b60026020528060005260406000206000915054906101000a900473ffffffffffffffffffffffffffffffffffffffff1681565b600082826040516106969291906127da565b6040518091039020905092915050565b600082826040516020016106bb9291906128f6565b60405160208183030381529060405280519060200120905092915050565b73eeeeeeeeeeeeeeeeeeeeeeeeeeeeeeeeeeeeeeee81565b60006106fd86866106a6565b9050600073ffffffffffffffffffffffffffffffffffffffff166001600083815260200190815260200160002060009054906101000a900473ffffffffffffffffffffffffffffffffffffffff1673ffffffffffffffffffffffffffffffffffffffff16146107a1576040517f08c379a000000000000000000000000000000000000000000000000000000000815260040161079890612aa8565b60405180910390fd5b6107f281600460003373ffffffffffffffffffffffffffffffffffffffff1673ffffffffffffffffffffffffffffffffffffffff16815260200190815260200160002061148690919063ffffffff16565b50336001600083815260200190815260200160002060006101000a81548173ffffffffffffffffffffffffffffffffffffffff021916908373ffffffffffffffffffffffffffffffffffffffff160217905550856002600083815260200190815260200160002060006101000a81548173ffffffffffffffffffffffffffffffffffffffff021916908373ffffffffffffffffffffffffffffffffffffffff1602179055507f9d59214787f3824da2b165425d040688cd7dc25a540e26c05200d2b92c248bf9338787878588886040516108d29796959493929190612855565b60405180910390a1505050505050565b60026000541415610928576040517f08c379a000000000000000000000000000000000000000000000000000000000815260040161091f90612b08565b60405180910390fd5b60026000819055506000600360003373ffffffffffffffffffffffffffffffffffffffff1673ffffffffffffffffffffffffffffffffffffffff16815260200190815260200160002060008473ffffffffffffffffffffffffffffffffffffffff1673ffffffffffffffffffffffffffffffffffffffff16815260200190815260200160002054905060006109bd828461149d565b90506109d281836114b690919063ffffffff16565b600360003373ffffffffffffffffffffffffffffffffffffffff1673ffffffffffffffffffffffffffffffffffffffff16815260200190815260200160002060008673ffffffffffffffffffffffffffffffffffffffff1673ffffffffffffffffffffffffffffffffffffffff16815260200190815260200160002081905550610a5d3385836114cc565b81811415610ab857610ab684600560003373ffffffffffffffffffffffffffffffffffffffff1673ffffffffffffffffffffffffffffffffffffffff1681526020019081526020016000206115d790919063ffffffff16565b505b8373ffffffffffffffffffffffffffffffffffffffff163373ffffffffffffffffffffffffffffffffffffffff167fa92ff919b850e4909ab2261d907ef955f11bc1716733a6cbece38d163a69af8a83604051610b159190612b48565b60405180910390a3505060016000819055505050565b600073eeeeeeeeeeeeeeeeeeeeeeeeeeeeeeeeeeeeeeee73ffffffffffffffffffffffffffffffffffffffff168373ffffffffffffffffffffffffffffffffffffffff161415610b7d57349050610cdb565b600083905060008173ffffffffffffffffffffffffffffffffffffffff166370a08231306040518263ffffffff1660e01b8152600401610bbd919061281f565b60206040518083038186803b158015610bd557600080fd5b505afa158015610be9573d6000803e3d6000fd5b505050506040513d601f19601f82011682018060405250810190610c0d91906121ee565b9050610c3c3330868573ffffffffffffffffffffffffffffffffffffffff16611607909392919063ffffffff16565b60008273ffffffffffffffffffffffffffffffffffffffff166370a08231306040518263ffffffff1660e01b8152600401610c77919061281f565b60206040518083038186803b158015610c8f57600080fd5b505afa158015610ca3573d6000803e3d6000fd5b505050506040513d601f19601f82011682018060405250810190610cc791906121ee565b90508181610cd59190612c6e565b93505050505b610d6a81600360008773ffffffffffffffffffffffffffffffffffffffff1673ffffffffffffffffffffffffffffffffffffffff16815260200190815260200160002060008673ffffffffffffffffffffffffffffffffffffffff1673ffffffffffffffffffffffffffffffffffffffff1681526020019081526020016000205461169090919063ffffffff16565b600360008673ffffffffffffffffffffffffffffffffffffffff1673ffffffffffffffffffffffffffffffffffffffff16815260200190815260200160002060008573ffffffffffffffffffffffffffffffffffffffff1673ffffffffffffffffffffffffffffffffffffffff16815260200190815260200160002081905550610e3b83600560003373ffffffffffffffffffffffffffffffffffffffff1673ffffffffffffffffffffffffffffffffffffffff1681526020019081526020016000206116a690919063ffffffff16565b610e9257610e9083600560003373ffffffffffffffffffffffffffffffffffffffff1673ffffffffffffffffffffffffffffffffffffffff1681526020019081526020016000206116d690919063ffffffff16565b505b808373ffffffffffffffffffffffffffffffffffffffff168573ffffffffffffffffffffffffffffffffffffffff167ff0d0e99cae184d0187b093b48894117462462379674a6e11d89c3fbb618e96b060405160405180910390a450505050565b84847f000000000000000000000000000000000000000000000000000000000000000073ffffffffffffffffffffffffffffffffffffffff163373ffffffffffffffffffffffffffffffffffffffff1614610f83576040517f08c379a0000000000000000000000000000000000000000000000000000000008152600401610f7a90612a08565b60405180910390fd5b6000610f9886610f938787611706565b6106a6565b905060006001600083815260200190815260200160002060009054906101000a900473ffffffffffffffffffffffffffffffffffffffff169050600073ffffffffffffffffffffffffffffffffffffffff168173ffffffffffffffffffffffffffffffffffffffff161415611042576040517f08c379a000000000000000000000000000000000000000000000000000000000815260040161103990612a28565b60405180910390fd5b60008773ffffffffffffffffffffffffffffffffffffffff16878760405161106b9291906127da565b6000604051808303816000865af19150503d80600081146110a8576040519150601f19603f3d011682016040523d82523d6000602084013e6110ad565b606091505b50509050806110f1576040517f08c379a00000000000000000000000000000000000000000000000000000000081526004016110e890612a68565b60405180910390fd5b6000600360008473ffffffffffffffffffffffffffffffffffffffff1673ffffffffffffffffffffffffffffffffffffffff16815260200190815260200160002060008b73ffffffffffffffffffffffffffffffffffffffff1673ffffffffffffffffffffffffffffffffffffffff1681526020019081526020016000205490506111858b826114b690919063ffffffff16565b600360008573ffffffffffffffffffffffffffffffffffffffff1673ffffffffffffffffffffffffffffffffffffffff16815260200190815260200160002060008c73ffffffffffffffffffffffffffffffffffffffff1673ffffffffffffffffffffffffffffffffffffffff168152602001908152602001600020819055508873ffffffffffffffffffffffffffffffffffffffff168a73ffffffffffffffffffffffffffffffffffffffff168c7f66a4a8f38001cd244b1836cb610e638d1cea110cf51ab035c6dc9d1c0264f83a8b8b6040516112659291906129c2565b60405180910390a45050505061129c7f000000000000000000000000000000000000000000000000000000000000000082846114cc565b50505050505050565b600073ffffffffffffffffffffffffffffffffffffffff166001600083815260200190815260200160002060009054906101000a900473ffffffffffffffffffffffffffffffffffffffff1673ffffffffffffffffffffffffffffffffffffffff161415611348576040517f08c379a000000000000000000000000000000000000000000000000000000000815260040161133f90612a88565b60405180910390fd5b61139981600460003373ffffffffffffffffffffffffffffffffffffffff1673ffffffffffffffffffffffffffffffffffffffff16815260200190815260200160002061191490919063ffffffff16565b506001600082815260200190815260200160002060006101000a81549073ffffffffffffffffffffffffffffffffffffffff02191690556002600082815260200190815260200160002060006101000a81549073ffffffffffffffffffffffffffffffffffffffff02191690557fe1e1d79b8f28d3379fc32f617eaf54dd6bd4071074c77e91134770e04a81d62681604051611435919061298c565b60405180910390a150565b600061144e8260000161192b565b9050919050565b6000611464836000018361193c565b905092915050565b600061147b836000018361193c565b60001c905092915050565b6000611495836000018361198d565b905092915050565b60008183106114ac57816114ae565b825b905092915050565b600081836114c49190612c6e565b905092915050565b73eeeeeeeeeeeeeeeeeeeeeeeeeeeeeeeeeeeeeeee73ffffffffffffffffffffffffffffffffffffffff168273ffffffffffffffffffffffffffffffffffffffff1614156115c65760008373ffffffffffffffffffffffffffffffffffffffff168260405161153a9061280a565b60006040518083038185875af1925050503d8060008114611577576040519150601f19603f3d011682016040523d82523d6000602084013e61157c565b606091505b50509050806115c0576040517f08c379a00000000000000000000000000000000000000000000000000000000081526004016115b790612b28565b60405180910390fd5b506115d2565b6115d18284836119fd565b5b505050565b60006115ff836000018373ffffffffffffffffffffffffffffffffffffffff1660001b611a83565b905092915050565b61168a846323b872dd60e01b858585604051602401611628939291906128bf565b604051602081830303815290604052907bffffffffffffffffffffffffffffffffffffffffffffffffffffffff19166020820180517bffffffffffffffffffffffffffffffffffffffffffffffffffffffff8381831617835250505050611c09565b50505050565b6000818361169e9190612c18565b905092915050565b60006116ce836000018373ffffffffffffffffffffffffffffffffffffffff1660001b611cd0565b905092915050565b60006116fe836000018373ffffffffffffffffffffffffffffffffffffffff1660001b61198d565b905092915050565b6000601883836003818110611744577f4e487b7100000000000000000000000000000000000000000000000000000000600052603260045260246000fd5b9050013560f81c60f81b7effffffffffffffffffffffffffffffffffffffffffffffffffffffffffffff19167bffffffffffffffffffffffffffffffffffffffffffffffffffffffff1916901c6010848460028181106117cd577f4e487b7100000000000000000000000000000000000000000000000000000000600052603260045260246000fd5b9050013560f81c60f81b7effffffffffffffffffffffffffffffffffffffffffffffffffffffffffffff19167bffffffffffffffffffffffffffffffffffffffffffffffffffffffff1916901c600885856001818110611856577f4e487b7100000000000000000000000000000000000000000000000000000000600052603260045260246000fd5b9050013560f81c60f81b7effffffffffffffffffffffffffffffffffffffffffffffffffffffffffffff19167bffffffffffffffffffffffffffffffffffffffffffffffffffffffff1916901c858560008181106118dd577f4e487b7100000000000000000000000000000000000000000000000000000000600052603260045260246000fd5b9050013560f81c60f81b7effffffffffffffffffffffffffffffffffffffffffffffffffffffffffffff1916171717905092915050565b60006119238360000183611a83565b905092915050565b600081600001805490509050919050565b600082600001828154811061197a577f4e487b7100000000000000000000000000000000000000000000000000000000600052603260045260246000fd5b9060005260206000200154905092915050565b60006119998383611cd0565b6119f25782600001829080600181540180825580915050600190039060005260206000200160009091909190915055826000018054905083600101600084815260200190815260200160002081905550600190506119f7565b600090505b92915050565b611a7e8363a9059cbb60e01b8484604051602401611a1c92919061291f565b604051602081830303815290604052907bffffffffffffffffffffffffffffffffffffffffffffffffffffffff19166020820180517bffffffffffffffffffffffffffffffffffffffffffffffffffffffff8381831617835250505050611c09565b505050565b60008083600101600084815260200190815260200160002054905060008114611bfd576000600182611ab59190612c6e565b9050600060018660000180549050611acd9190612c6e565b9050818114611b88576000866000018281548110611b14577f4e487b7100000000000000000000000000000000000000000000000000000000600052603260045260246000fd5b9060005260206000200154905080876000018481548110611b5e577f4e487b7100000000000000000000000000000000000000000000000000000000600052603260045260246000fd5b90600052602060002001819055508387600101600083815260200190815260200160002081905550505b85600001805480611bc2577f4e487b7100000000000000000000000000000000000000000000000000000000600052603160045260246000fd5b600190038181906000526020600020016000905590558560010160008681526020019081526020016000206000905560019350505050611c03565b60009150505b92915050565b6000611c6b826040518060400160405280602081526020017f5361666545524332303a206c6f772d6c6576656c2063616c6c206661696c65648152508573ffffffffffffffffffffffffffffffffffffffff16611cf39092919063ffffffff16565b9050600081511115611ccb5780806020019051810190611c8b9190612157565b611cca576040517f08c379a0000000000000000000000000000000000000000000000000000000008152600401611cc190612ae8565b60405180910390fd5b5b505050565b600080836001016000848152602001908152602001600020541415905092915050565b6060611d028484600085611d0b565b90509392505050565b606082471015611d50576040517f08c379a0000000000000000000000000000000000000000000000000000000008152600401611d4790612a48565b60405180910390fd5b611d5985611e1f565b611d98576040517f08c379a0000000000000000000000000000000000000000000000000000000008152600401611d8f90612ac8565b60405180910390fd5b6000808673ffffffffffffffffffffffffffffffffffffffff168587604051611dc191906127f3565b60006040518083038185875af1925050503d8060008114611dfe576040519150601f19603f3d011682016040523d82523d6000602084013e611e03565b606091505b5091509150611e13828286611e32565b92505050949350505050565b600080823b905060008111915050919050565b60608315611e4257829050611e92565b600083511115611e555782518084602001fd5b816040517f08c379a0000000000000000000000000000000000000000000000000000000008152600401611e8991906129e6565b60405180910390fd5b9392505050565b600081359050611ea881612dfd565b92915050565b600081519050611ebd81612e14565b92915050565b600081359050611ed281612e2b565b92915050565b600081359050611ee781612e42565b92915050565b60008083601f840112611eff57600080fd5b8235905067ffffffffffffffff811115611f1857600080fd5b602083019150836001820283011115611f3057600080fd5b9250929050565b60008083601f840112611f4957600080fd5b8235905067ffffffffffffffff811115611f6257600080fd5b602083019150836001820283011115611f7a57600080fd5b9250929050565b600081359050611f9081612e59565b92915050565b600081519050611fa581612e59565b92915050565b600060208284031215611fbd57600080fd5b6000611fcb84828501611e99565b91505092915050565b60008060408385031215611fe757600080fd5b6000611ff585828601611e99565b925050602061200685828601611e99565b9150509250929050565b60008060006060848603121561202557600080fd5b600061203386828701611e99565b935050602061204486828701611e99565b925050604061205586828701611f81565b9150509250925092565b6000806040838503121561207257600080fd5b600061208085828601611e99565b925050602061209185828601611ed8565b9150509250929050565b6000806000806000608086880312156120b357600080fd5b60006120c188828901611e99565b95505060206120d288828901611ed8565b94505060406120e388828901611e99565b935050606086013567ffffffffffffffff81111561210057600080fd5b61210c88828901611eed565b92509250509295509295909350565b6000806040838503121561212e57600080fd5b600061213c85828601611e99565b925050602061214d85828601611f81565b9150509250929050565b60006020828403121561216957600080fd5b600061217784828501611eae565b91505092915050565b60006020828403121561219257600080fd5b60006121a084828501611ec3565b91505092915050565b600080602083850312156121bc57600080fd5b600083013567ffffffffffffffff8111156121d657600080fd5b6121e285828601611f37565b92509250509250929050565b60006020828403121561220057600080fd5b600061220e84828501611f96565b91505092915050565b60008060008060006080868803121561222f57600080fd5b600061223d88828901611f81565b955050602061224e88828901611e99565b945050604061225f88828901611e99565b935050606086013567ffffffffffffffff81111561227c57600080fd5b61228888828901611eed565b92509250509295509295909350565b60006122a383836122d6565b60208301905092915050565b60006122bb83836123b0565b60208301905092915050565b6122d081612cb4565b82525050565b6122df81612ca2565b82525050565b6122ee81612ca2565b82525050565b60006122ff82612b83565b6123098185612bc9565b935061231483612b63565b8060005b8381101561234557815161232c8882612297565b975061233783612baf565b925050600181019050612318565b5085935050505092915050565b600061235d82612b8e565b6123678185612bda565b935061237283612b73565b8060005b838110156123a357815161238a88826122af565b975061239583612bbc565b925050600181019050612376565b5085935050505092915050565b6123b981612cd2565b82525050565b6123c881612cd2565b82525050565b6123d781612cdc565b82525050565b60006123e98385612beb565b93506123f6838584612d32565b6123ff83612dec565b840190509392505050565b60006124168385612bfc565b9350612423838584612d32565b82840190509392505050565b600061243a82612b99565b6124448185612bfc565b9350612454818560208601612d41565b80840191505092915050565b600061246b82612ba4565b6124758185612c07565b9350612485818560208601612d41565b61248e81612dec565b840191505092915050565b60006124a6601783612c07565b91507f47656c61746f666965643a204f6e6c792067656c61746f0000000000000000006000830152602082019050919050565b60006124e6601b83612c07565b91507f506f6b654d653a20657865633a204e6f207461736b20666f756e6400000000006000830152602082019050919050565b6000612526602683612c07565b91507f416464726573733a20696e73756666696369656e742062616c616e636520666f60008301527f722063616c6c00000000000000000000000000000000000000000000000000006020830152604082019050919050565b600061258c601e83612c07565b91507f506f6b654d653a20657865633a20457865637574696f6e206661696c656400006000830152602082019050919050565b60006125cc603183612c07565b91507f506f6b654d653a2063616e63656c5461736b3a2053656e64657220646964206e60008301527f6f74207374617274207461736b207965740000000000000000000000000000006020830152604082019050919050565b6000612632602f83612c07565b91507f506f6b654d653a206372656174655461736b3a2053656e64657220616c72656160008301527f64792073746172746564207461736b00000000000000000000000000000000006020830152604082019050919050565b6000612698600083612bfc565b9150600082019050919050565b60006126b2601d83612c07565b91507f416464726573733a2063616c6c20746f206e6f6e2d636f6e74726163740000006000830152602082019050919050565b60006126f2602a83612c07565b91507f5361666545524332303a204552433230206f7065726174696f6e20646964206e60008301527f6f742073756363656564000000000000000000000000000000000000000000006020830152604082019050919050565b6000612758601f83612c07565b91507f5265656e7472616e637947756172643a207265656e7472616e742063616c6c006000830152602082019050919050565b6000612798601d83612c07565b91507f47656c61746f666965643a2047656c61746f20666565206661696c65640000006000830152602082019050919050565b6127d481612d28565b82525050565b60006127e782848661240a565b91508190509392505050565b60006127ff828461242f565b915081905092915050565b60006128158261268b565b9150819050919050565b600060208201905061283460008301846122e5565b92915050565b600060208201905061284f60008301846122c7565b92915050565b600060c08201905061286a600083018a6122e5565b61287760208301896122e5565b61288460408301886123ce565b61289160608301876122e5565b61289e60808301866123bf565b81810360a08301526128b18184866123dd565b905098975050505050505050565b60006060820190506128d460008301866122e5565b6128e160208301856122e5565b6128ee60408301846127cb565b949350505050565b600060408201905061290b60008301856122e5565b61291860208301846123ce565b9392505050565b600060408201905061293460008301856122e5565b61294160208301846127cb565b9392505050565b6000602082019050818103600083015261296281846122f4565b905092915050565b600060208201905081810360008301526129848184612352565b905092915050565b60006020820190506129a160008301846123bf565b92915050565b60006020820190506129bc60008301846123ce565b92915050565b600060208201905081810360008301526129dd8184866123dd565b90509392505050565b60006020820190508181036000830152612a008184612460565b905092915050565b60006020820190508181036000830152612a2181612499565b9050919050565b60006020820190508181036000830152612a41816124d9565b9050919050565b60006020820190508181036000830152612a6181612519565b9050919050565b60006020820190508181036000830152612a818161257f565b9050919050565b60006020820190508181036000830152612aa1816125bf565b9050919050565b60006020820190508181036000830152612ac181612625565b9050919050565b60006020820190508181036000830152612ae1816126a5565b9050919050565b60006020820190508181036000830152612b01816126e5565b9050919050565b60006020820190508181036000830152612b218161274b565b9050919050565b60006020820190508181036000830152612b418161278b565b9050919050565b6000602082019050612b5d60008301846127cb565b92915050565b6000819050602082019050919050565b6000819050602082019050919050565b600081519050919050565b600081519050919050565b600081519050919050565b600081519050919050565b6000602082019050919050565b6000602082019050919050565b600082825260208201905092915050565b600082825260208201905092915050565b600082825260208201905092915050565b600081905092915050565b600082825260208201905092915050565b6000612c2382612d28565b9150612c2e83612d28565b9250827fffffffffffffffffffffffffffffffffffffffffffffffffffffffffffffffff03821115612c6357612c62612dbd565b5b828201905092915050565b6000612c7982612d28565b9150612c8483612d28565b925082821015612c9757612c96612dbd565b5b828203905092915050565b6000612cad82612d08565b9050919050565b6000612cbf82612d08565b9050919050565b60008115159050919050565b6000819050919050565b60007fffffffff0000000000000000000000000000000000000000000000000000000082169050919050565b600073ffffffffffffffffffffffffffffffffffffffff82169050919050565b6000819050919050565b82818337600083830152505050565b60005b83811015612d5f578082015181840152602081019050612d44565b83811115612d6e576000848401525b50505050565b6000612d7f82612d28565b91507fffffffffffffffffffffffffffffffffffffffffffffffffffffffffffffffff821415612db257612db1612dbd565b5b600182019050919050565b7f4e487b7100000000000000000000000000000000000000000000000000000000600052601160045260246000fd5b6000601f19601f8301169050919050565b612e0681612ca2565b8114612e1157600080fd5b50565b612e1d81612cc6565b8114612e2857600080fd5b50565b612e3481612cd2565b8114612e3f57600080fd5b50565b612e4b81612cdc565b8114612e5657600080fd5b50565b612e6281612d28565b8114612e6d57600080fd5b5056fea26469706673582212203552dc50b2f8a60d08d601d45353cbc6c236207e504e1c612cda9234ccf14c3164736f6c63430008000033",
  "devdoc": {
    "kind": "dev",
    "methods": {},
    "version": 1
  },
  "userdoc": {
    "kind": "user",
    "methods": {},
    "version": 1
  },
  "storageLayout": {
    "storage": [
      {
        "astId": 10,
        "contract": "contracts/PokeMe2.sol:PokeMe2",
        "label": "_status",
        "offset": 0,
        "slot": "0",
        "type": "t_uint256"
      },
      {
        "astId": 1899,
        "contract": "contracts/PokeMe2.sol:PokeMe2",
        "label": "calleeOfTask",
        "offset": 0,
        "slot": "1",
        "type": "t_mapping(t_bytes32,t_address)"
      },
      {
        "astId": 1903,
        "contract": "contracts/PokeMe2.sol:PokeMe2",
        "label": "execAddresses",
        "offset": 0,
        "slot": "2",
        "type": "t_mapping(t_bytes32,t_address)"
      },
      {
        "astId": 1909,
        "contract": "contracts/PokeMe2.sol:PokeMe2",
        "label": "balanceOfCallee",
        "offset": 0,
        "slot": "3",
        "type": "t_mapping(t_address,t_mapping(t_address,t_uint256))"
      },
      {
        "astId": 1914,
        "contract": "contracts/PokeMe2.sol:PokeMe2",
        "label": "_createdTasks",
        "offset": 0,
        "slot": "4",
        "type": "t_mapping(t_address,t_struct(Bytes32Set)1240_storage)"
      },
      {
        "astId": 1919,
        "contract": "contracts/PokeMe2.sol:PokeMe2",
        "label": "_tokenCredits",
        "offset": 0,
        "slot": "5",
        "type": "t_mapping(t_address,t_struct(AddressSet)1331_storage)"
      }
    ],
    "types": {
      "t_address": {
        "encoding": "inplace",
        "label": "address",
        "numberOfBytes": "20"
      },
      "t_array(t_bytes32)dyn_storage": {
        "base": "t_bytes32",
        "encoding": "dynamic_array",
        "label": "bytes32[]",
        "numberOfBytes": "32"
      },
      "t_bytes32": {
        "encoding": "inplace",
        "label": "bytes32",
        "numberOfBytes": "32"
      },
      "t_mapping(t_address,t_mapping(t_address,t_uint256))": {
        "encoding": "mapping",
        "key": "t_address",
        "label": "mapping(address => mapping(address => uint256))",
        "numberOfBytes": "32",
        "value": "t_mapping(t_address,t_uint256)"
      },
      "t_mapping(t_address,t_struct(AddressSet)1331_storage)": {
        "encoding": "mapping",
        "key": "t_address",
        "label": "mapping(address => struct EnumerableSet.AddressSet)",
        "numberOfBytes": "32",
        "value": "t_struct(AddressSet)1331_storage"
      },
      "t_mapping(t_address,t_struct(Bytes32Set)1240_storage)": {
        "encoding": "mapping",
        "key": "t_address",
        "label": "mapping(address => struct EnumerableSet.Bytes32Set)",
        "numberOfBytes": "32",
        "value": "t_struct(Bytes32Set)1240_storage"
      },
      "t_mapping(t_address,t_uint256)": {
        "encoding": "mapping",
        "key": "t_address",
        "label": "mapping(address => uint256)",
        "numberOfBytes": "32",
        "value": "t_uint256"
      },
      "t_mapping(t_bytes32,t_address)": {
        "encoding": "mapping",
        "key": "t_bytes32",
        "label": "mapping(bytes32 => address)",
        "numberOfBytes": "32",
        "value": "t_address"
      },
      "t_mapping(t_bytes32,t_uint256)": {
        "encoding": "mapping",
        "key": "t_bytes32",
        "label": "mapping(bytes32 => uint256)",
        "numberOfBytes": "32",
        "value": "t_uint256"
      },
      "t_struct(AddressSet)1331_storage": {
        "encoding": "inplace",
        "label": "struct EnumerableSet.AddressSet",
        "members": [
          {
            "astId": 1330,
            "contract": "contracts/PokeMe2.sol:PokeMe2",
            "label": "_inner",
            "offset": 0,
            "slot": "0",
            "type": "t_struct(Set)1060_storage"
          }
        ],
        "numberOfBytes": "64"
      },
      "t_struct(Bytes32Set)1240_storage": {
        "encoding": "inplace",
        "label": "struct EnumerableSet.Bytes32Set",
        "members": [
          {
            "astId": 1239,
            "contract": "contracts/PokeMe2.sol:PokeMe2",
            "label": "_inner",
            "offset": 0,
            "slot": "0",
            "type": "t_struct(Set)1060_storage"
          }
        ],
        "numberOfBytes": "64"
      },
      "t_struct(Set)1060_storage": {
        "encoding": "inplace",
        "label": "struct EnumerableSet.Set",
        "members": [
          {
            "astId": 1055,
            "contract": "contracts/PokeMe2.sol:PokeMe2",
            "label": "_values",
            "offset": 0,
            "slot": "0",
            "type": "t_array(t_bytes32)dyn_storage"
          },
          {
            "astId": 1059,
            "contract": "contracts/PokeMe2.sol:PokeMe2",
            "label": "_indexes",
            "offset": 0,
            "slot": "1",
            "type": "t_mapping(t_bytes32,t_uint256)"
          }
        ],
        "numberOfBytes": "64"
      },
      "t_uint256": {
        "encoding": "inplace",
        "label": "uint256",
        "numberOfBytes": "32"
      }
    }
  }
}