{
  "address": "0x847943e80ff4fe0283Df4456D9727fF149D9D3A9",
  "abi": [
    {
      "inputs": [
        {
          "internalType": "address payable",
          "name": "_gelato",
          "type": "address"
        }
      ],
      "stateMutability": "nonpayable",
      "type": "constructor"
    },
    {
      "anonymous": false,
      "inputs": [
        {
          "indexed": true,
          "internalType": "uint256",
          "name": "txFee",
          "type": "uint256"
        },
        {
          "indexed": true,
          "internalType": "address",
          "name": "feeToken",
          "type": "address"
        },
        {
          "indexed": true,
          "internalType": "address",
          "name": "execAddress",
          "type": "address"
        },
        {
          "indexed": false,
          "internalType": "bytes",
          "name": "execData",
          "type": "bytes"
        }
      ],
      "name": "ExecSuccess",
      "type": "event"
    },
    {
      "anonymous": false,
      "inputs": [
        {
          "indexed": true,
          "internalType": "address",
          "name": "sender",
          "type": "address"
        },
        {
          "indexed": true,
          "internalType": "address",
          "name": "token",
          "type": "address"
        },
        {
          "indexed": true,
          "internalType": "uint256",
          "name": "amount",
          "type": "uint256"
        }
      ],
      "name": "FundsDeposited",
      "type": "event"
    },
    {
      "anonymous": false,
      "inputs": [
        {
          "indexed": true,
          "internalType": "address",
          "name": "receiver",
          "type": "address"
        },
        {
          "indexed": true,
          "internalType": "address",
          "name": "token",
          "type": "address"
        },
        {
          "indexed": false,
          "internalType": "uint256",
          "name": "amount",
          "type": "uint256"
        }
      ],
      "name": "FundsWithdrawn",
      "type": "event"
    },
    {
      "anonymous": false,
      "inputs": [
        {
          "indexed": false,
          "internalType": "bytes32",
          "name": "task",
          "type": "bytes32"
        }
      ],
      "name": "TaskCancelled",
      "type": "event"
    },
    {
      "anonymous": false,
      "inputs": [
        {
          "indexed": false,
          "internalType": "address",
          "name": "execAddress",
          "type": "address"
        },
        {
          "indexed": false,
          "internalType": "bytes4",
          "name": "selector",
          "type": "bytes4"
        },
        {
          "indexed": false,
          "internalType": "address",
          "name": "resolver",
          "type": "address"
        },
        {
          "indexed": false,
          "internalType": "bytes",
          "name": "resolverData",
          "type": "bytes"
        }
      ],
      "name": "TaskCreated",
      "type": "event"
    },
    {
      "inputs": [],
      "name": "ETH",
      "outputs": [
        {
          "internalType": "address",
          "name": "",
          "type": "address"
        }
      ],
      "stateMutability": "view",
      "type": "function"
    },
    {
      "inputs": [
        {
          "internalType": "address",
          "name": "",
          "type": "address"
        },
        {
          "internalType": "address",
          "name": "",
          "type": "address"
        }
      ],
      "name": "balanceOfCallee",
      "outputs": [
        {
          "internalType": "uint256",
          "name": "",
          "type": "uint256"
        }
      ],
      "stateMutability": "view",
      "type": "function"
    },
    {
      "inputs": [
        {
          "internalType": "bytes32",
          "name": "",
          "type": "bytes32"
        }
      ],
      "name": "calleeOfTask",
      "outputs": [
        {
          "internalType": "address",
          "name": "",
          "type": "address"
        }
      ],
      "stateMutability": "view",
      "type": "function"
    },
    {
      "inputs": [
        {
          "internalType": "bytes32",
          "name": "_task",
          "type": "bytes32"
        }
      ],
      "name": "cancelTask",
      "outputs": [],
      "stateMutability": "nonpayable",
      "type": "function"
    },
    {
      "inputs": [
        {
          "internalType": "address",
          "name": "_execAddress",
          "type": "address"
        },
        {
          "internalType": "bytes4",
          "name": "_execSelector",
          "type": "bytes4"
        },
        {
          "internalType": "address",
          "name": "_resolver",
          "type": "address"
        },
        {
          "internalType": "bytes",
          "name": "_resolverData",
          "type": "bytes"
        }
      ],
      "name": "createTask",
      "outputs": [],
      "stateMutability": "nonpayable",
      "type": "function"
    },
    {
      "inputs": [
        {
          "internalType": "address",
          "name": "_receiver",
          "type": "address"
        },
        {
          "internalType": "address",
          "name": "_token",
          "type": "address"
        },
        {
          "internalType": "uint256",
          "name": "_amount",
          "type": "uint256"
        }
      ],
      "name": "depositFunds",
      "outputs": [],
      "stateMutability": "payable",
      "type": "function"
    },
    {
      "inputs": [
        {
          "internalType": "uint256",
          "name": "_txFee",
          "type": "uint256"
        },
        {
          "internalType": "address",
          "name": "_feeToken",
          "type": "address"
        },
        {
          "internalType": "address",
          "name": "_execAddress",
          "type": "address"
        },
        {
          "internalType": "bytes",
          "name": "_execData",
          "type": "bytes"
        }
      ],
      "name": "exec",
      "outputs": [],
      "stateMutability": "nonpayable",
      "type": "function"
    },
    {
      "inputs": [
        {
          "internalType": "bytes32",
          "name": "",
          "type": "bytes32"
        }
      ],
      "name": "execAddresses",
      "outputs": [
        {
          "internalType": "address",
          "name": "",
          "type": "address"
        }
      ],
      "stateMutability": "view",
      "type": "function"
    },
    {
      "inputs": [],
      "name": "gelato",
      "outputs": [
        {
          "internalType": "address payable",
          "name": "",
          "type": "address"
        }
      ],
      "stateMutability": "view",
      "type": "function"
    },
    {
      "inputs": [
        {
          "internalType": "address",
          "name": "_execAddress",
          "type": "address"
        },
        {
          "internalType": "bytes4",
          "name": "_selector",
          "type": "bytes4"
        }
      ],
      "name": "getTaskHash",
      "outputs": [
        {
          "internalType": "bytes32",
          "name": "",
          "type": "bytes32"
        }
      ],
      "stateMutability": "pure",
      "type": "function"
    },
    {
      "inputs": [
        {
          "internalType": "address",
          "name": "_token",
          "type": "address"
        },
        {
          "internalType": "uint256",
          "name": "_amount",
          "type": "uint256"
        }
      ],
      "name": "withdrawFunds",
      "outputs": [],
      "stateMutability": "nonpayable",
      "type": "function"
    }
  ],
  "transactionHash": "0xb802314e77b3ec010d9c633edaf99cc11b776143b1d8fa6716550e4d68967179",
  "args": [
    "0xCc4CcD69D31F9FfDBD3BFfDe49c6aA886DaB98d9"
  ],
  "solcInputHash": "fb5aff0ab01527e093034514887c981d",
  "bytecode": "0x60a06040523480156200001157600080fd5b5060405162002a1c38038062002a1c833981810160405281019062000037919062000096565b8060016000819055508073ffffffffffffffffffffffffffffffffffffffff1660808173ffffffffffffffffffffffffffffffffffffffff1660601b81525050505062000110565b6000815190506200009081620000f6565b92915050565b600060208284031215620000a957600080fd5b6000620000b9848285016200007f565b91505092915050565b6000620000cf82620000d6565b9050919050565b600073ffffffffffffffffffffffffffffffffffffffff82169050919050565b6200010181620000c2565b81146200010d57600080fd5b50565b60805160601c6128df6200013d6000396000818161030501528181610ba70152610fc901526128df6000f3fe60806040526004361061009c5760003560e01c80638322fff2116100645780638322fff2146101c05780638b92696a146101eb578063c107532914610214578063c1461d571461023d578063dd2cfd4a14610259578063ee8ca3b5146102825761009c565b806304bb7dbb146100a1578063215a43ca146100de578063573ea5751461011b57806361847227146101465780636d2dd29f14610183575b600080fd5b3480156100ad57600080fd5b506100c860048036038101906100c39190611c97565b6102ab565b6040516100d5919061247b565b60405180910390f35b3480156100ea57600080fd5b5061010560048036038101906101009190611c0c565b6102de565b604051610112919061263c565b60405180910390f35b34801561012757600080fd5b50610130610303565b60405161013d9190612389565b60405180910390f35b34801561015257600080fd5b5061016d60048036038101906101689190611db8565b610327565b60405161017a919061236e565b60405180910390f35b34801561018f57600080fd5b506101aa60048036038101906101a59190611db8565b61035a565b6040516101b7919061236e565b60405180910390f35b3480156101cc57600080fd5b506101d561038d565b6040516101e2919061236e565b60405180910390f35b3480156101f757600080fd5b50610212600480360381019061020d9190611cd3565b6103a5565b005b34801561022057600080fd5b5061023b60048036038101906102369190611d53565b610592565b005b61025760048036038101906102529190611c48565b6107db565b005b34801561026557600080fd5b50610280600480360381019061027b9190611e0a565b610ba3565b005b34801561028e57600080fd5b506102a960048036038101906102a49190611db8565b610ff8565b005b600082826040516020016102c09291906123db565b60405160208183030381529060405280519060200120905092915050565b6003602052816000526040600020602052806000526040600020600091509150505481565b7f000000000000000000000000000000000000000000000000000000000000000081565b60016020528060005260406000206000915054906101000a900473ffffffffffffffffffffffffffffffffffffffff1681565b60026020528060005260406000206000915054906101000a900473ffffffffffffffffffffffffffffffffffffffff1681565b73eeeeeeeeeeeeeeeeeeeeeeeeeeeeeeeeeeeeeeee81565b60006103b186866102ab565b9050600073ffffffffffffffffffffffffffffffffffffffff166001600083815260200190815260200160002060009054906101000a900473ffffffffffffffffffffffffffffffffffffffff1673ffffffffffffffffffffffffffffffffffffffff1614610455576040517f08c379a000000000000000000000000000000000000000000000000000000000815260040161044c9061259c565b60405180910390fd5b6104a681600460003373ffffffffffffffffffffffffffffffffffffffff1673ffffffffffffffffffffffffffffffffffffffff16815260200190815260200160002061119390919063ffffffff16565b50336001600083815260200190815260200160002060006101000a81548173ffffffffffffffffffffffffffffffffffffffff021916908373ffffffffffffffffffffffffffffffffffffffff160217905550856002600083815260200190815260200160002060006101000a81548173ffffffffffffffffffffffffffffffffffffffff021916908373ffffffffffffffffffffffffffffffffffffffff1602179055507ff9737fb21ba0a655cfd646d5eaa8663a7e631f45e5d5b1eb6c16d50ec8e947a08686868686604051610582959493929190612404565b60405180910390a1505050505050565b600260005414156105d8576040517f08c379a00000000000000000000000000000000000000000000000000000000081526004016105cf906125fc565b60405180910390fd5b60026000819055506000600360003373ffffffffffffffffffffffffffffffffffffffff1673ffffffffffffffffffffffffffffffffffffffff16815260200190815260200160002060008473ffffffffffffffffffffffffffffffffffffffff1673ffffffffffffffffffffffffffffffffffffffff168152602001908152602001600020549050600061066d82846111aa565b905061068281836111c390919063ffffffff16565b600360003373ffffffffffffffffffffffffffffffffffffffff1673ffffffffffffffffffffffffffffffffffffffff16815260200190815260200160002060008673ffffffffffffffffffffffffffffffffffffffff1673ffffffffffffffffffffffffffffffffffffffff1681526020019081526020016000208190555061070d3385836111d9565b818114156107685761076684600560003373ffffffffffffffffffffffffffffffffffffffff1673ffffffffffffffffffffffffffffffffffffffff1681526020019081526020016000206112e490919063ffffffff16565b505b8373ffffffffffffffffffffffffffffffffffffffff163373ffffffffffffffffffffffffffffffffffffffff167fa92ff919b850e4909ab2261d907ef955f11bc1716733a6cbece38d163a69af8a836040516107c5919061263c565b60405180910390a3505060016000819055505050565b600073eeeeeeeeeeeeeeeeeeeeeeeeeeeeeeeeeeeeeeee73ffffffffffffffffffffffffffffffffffffffff168373ffffffffffffffffffffffffffffffffffffffff16141561082d5734905061098b565b600083905060008173ffffffffffffffffffffffffffffffffffffffff166370a08231306040518263ffffffff1660e01b815260040161086d919061236e565b60206040518083038186803b15801561088557600080fd5b505afa158015610899573d6000803e3d6000fd5b505050506040513d601f19601f820116820180604052508101906108bd9190611de1565b90506108ec3330868573ffffffffffffffffffffffffffffffffffffffff16611314909392919063ffffffff16565b60008273ffffffffffffffffffffffffffffffffffffffff166370a08231306040518263ffffffff1660e01b8152600401610927919061236e565b60206040518083038186803b15801561093f57600080fd5b505afa158015610953573d6000803e3d6000fd5b505050506040513d601f19601f820116820180604052508101906109779190611de1565b9050818161098591906126f0565b93505050505b610a1a81600360008773ffffffffffffffffffffffffffffffffffffffff1673ffffffffffffffffffffffffffffffffffffffff16815260200190815260200160002060008673ffffffffffffffffffffffffffffffffffffffff1673ffffffffffffffffffffffffffffffffffffffff1681526020019081526020016000205461139d90919063ffffffff16565b600360008673ffffffffffffffffffffffffffffffffffffffff1673ffffffffffffffffffffffffffffffffffffffff16815260200190815260200160002060008573ffffffffffffffffffffffffffffffffffffffff1673ffffffffffffffffffffffffffffffffffffffff16815260200190815260200160002081905550610aeb83600560003373ffffffffffffffffffffffffffffffffffffffff1673ffffffffffffffffffffffffffffffffffffffff1681526020019081526020016000206113b390919063ffffffff16565b610b4257610b4083600560003373ffffffffffffffffffffffffffffffffffffffff1673ffffffffffffffffffffffffffffffffffffffff1681526020019081526020016000206113e390919063ffffffff16565b505b808373ffffffffffffffffffffffffffffffffffffffff168573ffffffffffffffffffffffffffffffffffffffff167ff0d0e99cae184d0187b093b48894117462462379674a6e11d89c3fbb618e96b060405160405180910390a450505050565b84847f000000000000000000000000000000000000000000000000000000000000000073ffffffffffffffffffffffffffffffffffffffff163373ffffffffffffffffffffffffffffffffffffffff1614610c33576040517f08c379a0000000000000000000000000000000000000000000000000000000008152600401610c2a906124dc565b60405180910390fd5b6000610c4886610c438787611413565b6102ab565b9050600073ffffffffffffffffffffffffffffffffffffffff166001600083815260200190815260200160002060009054906101000a900473ffffffffffffffffffffffffffffffffffffffff1673ffffffffffffffffffffffffffffffffffffffff161415610ced576040517f08c379a0000000000000000000000000000000000000000000000000000000008152600401610ce49061255c565b60405180910390fd5b60006001600083815260200190815260200160002060009054906101000a900473ffffffffffffffffffffffffffffffffffffffff169050600073ffffffffffffffffffffffffffffffffffffffff168173ffffffffffffffffffffffffffffffffffffffff161415610d95576040517f08c379a0000000000000000000000000000000000000000000000000000000008152600401610d8c906124fc565b60405180910390fd5b60008773ffffffffffffffffffffffffffffffffffffffff168787604051610dbe929190612329565b6000604051808303816000865af19150503d8060008114610dfb576040519150601f19603f3d011682016040523d82523d6000602084013e610e00565b606091505b5050905080610e44576040517f08c379a0000000000000000000000000000000000000000000000000000000008152600401610e3b9061253c565b60405180910390fd5b6000600360008473ffffffffffffffffffffffffffffffffffffffff1673ffffffffffffffffffffffffffffffffffffffff16815260200190815260200160002060008b73ffffffffffffffffffffffffffffffffffffffff1673ffffffffffffffffffffffffffffffffffffffff168152602001908152602001600020549050610ed88b826111c390919063ffffffff16565b600360008573ffffffffffffffffffffffffffffffffffffffff1673ffffffffffffffffffffffffffffffffffffffff16815260200190815260200160002060008c73ffffffffffffffffffffffffffffffffffffffff1673ffffffffffffffffffffffffffffffffffffffff168152602001908152602001600020819055508873ffffffffffffffffffffffffffffffffffffffff168a73ffffffffffffffffffffffffffffffffffffffff168c7f66a4a8f38001cd244b1836cb610e638d1cea110cf51ab035c6dc9d1c0264f83a8b8b604051610fb8929190612496565b60405180910390a450505050610fef7f000000000000000000000000000000000000000000000000000000000000000082846111d9565b50505050505050565b600073ffffffffffffffffffffffffffffffffffffffff166001600083815260200190815260200160002060009054906101000a900473ffffffffffffffffffffffffffffffffffffffff1673ffffffffffffffffffffffffffffffffffffffff16141561109b576040517f08c379a00000000000000000000000000000000000000000000000000000000081526004016110929061257c565b60405180910390fd5b6110ec81600460003373ffffffffffffffffffffffffffffffffffffffff1673ffffffffffffffffffffffffffffffffffffffff16815260200190815260200160002061162190919063ffffffff16565b506001600082815260200190815260200160002060006101000a81549073ffffffffffffffffffffffffffffffffffffffff02191690556002600082815260200190815260200160002060006101000a81549073ffffffffffffffffffffffffffffffffffffffff02191690557fe1e1d79b8f28d3379fc32f617eaf54dd6bd4071074c77e91134770e04a81d62681604051611188919061247b565b60405180910390a150565b60006111a28360000183611638565b905092915050565b60008183106111b957816111bb565b825b905092915050565b600081836111d191906126f0565b905092915050565b73eeeeeeeeeeeeeeeeeeeeeeeeeeeeeeeeeeeeeeee73ffffffffffffffffffffffffffffffffffffffff168273ffffffffffffffffffffffffffffffffffffffff1614156112d35760008373ffffffffffffffffffffffffffffffffffffffff168260405161124790612359565b60006040518083038185875af1925050503d8060008114611284576040519150601f19603f3d011682016040523d82523d6000602084013e611289565b606091505b50509050806112cd576040517f08c379a00000000000000000000000000000000000000000000000000000000081526004016112c49061261c565b60405180910390fd5b506112df565b6112de8284836116a8565b5b505050565b600061130c836000018373ffffffffffffffffffffffffffffffffffffffff1660001b61172e565b905092915050565b611397846323b872dd60e01b858585604051602401611335939291906123a4565b604051602081830303815290604052907bffffffffffffffffffffffffffffffffffffffffffffffffffffffff19166020820180517bffffffffffffffffffffffffffffffffffffffffffffffffffffffff83818316178352505050506118b4565b50505050565b600081836113ab919061269a565b905092915050565b60006113db836000018373ffffffffffffffffffffffffffffffffffffffff1660001b61197b565b905092915050565b600061140b836000018373ffffffffffffffffffffffffffffffffffffffff1660001b611638565b905092915050565b6000601883836003818110611451577f4e487b7100000000000000000000000000000000000000000000000000000000600052603260045260246000fd5b9050013560f81c60f81b7effffffffffffffffffffffffffffffffffffffffffffffffffffffffffffff19167bffffffffffffffffffffffffffffffffffffffffffffffffffffffff1916901c6010848460028181106114da577f4e487b7100000000000000000000000000000000000000000000000000000000600052603260045260246000fd5b9050013560f81c60f81b7effffffffffffffffffffffffffffffffffffffffffffffffffffffffffffff19167bffffffffffffffffffffffffffffffffffffffffffffffffffffffff1916901c600885856001818110611563577f4e487b7100000000000000000000000000000000000000000000000000000000600052603260045260246000fd5b9050013560f81c60f81b7effffffffffffffffffffffffffffffffffffffffffffffffffffffffffffff19167bffffffffffffffffffffffffffffffffffffffffffffffffffffffff1916901c858560008181106115ea577f4e487b7100000000000000000000000000000000000000000000000000000000600052603260045260246000fd5b9050013560f81c60f81b7effffffffffffffffffffffffffffffffffffffffffffffffffffffffffffff1916171717905092915050565b6000611630836000018361172e565b905092915050565b6000611644838361197b565b61169d5782600001829080600181540180825580915050600190039060005260206000200160009091909190915055826000018054905083600101600084815260200190815260200160002081905550600190506116a2565b600090505b92915050565b6117298363a9059cbb60e01b84846040516024016116c7929190612452565b604051602081830303815290604052907bffffffffffffffffffffffffffffffffffffffffffffffffffffffff19166020820180517bffffffffffffffffffffffffffffffffffffffffffffffffffffffff83818316178352505050506118b4565b505050565b600080836001016000848152602001908152602001600020549050600081146118a857600060018261176091906126f0565b905060006001866000018054905061177891906126f0565b90508181146118335760008660000182815481106117bf577f4e487b7100000000000000000000000000000000000000000000000000000000600052603260045260246000fd5b9060005260206000200154905080876000018481548110611809577f4e487b7100000000000000000000000000000000000000000000000000000000600052603260045260246000fd5b90600052602060002001819055508387600101600083815260200190815260200160002081905550505b8560000180548061186d577f4e487b7100000000000000000000000000000000000000000000000000000000600052603160045260246000fd5b6001900381819060005260206000200160009055905585600101600086815260200190815260200160002060009055600193505050506118ae565b60009150505b92915050565b6000611916826040518060400160405280602081526020017f5361666545524332303a206c6f772d6c6576656c2063616c6c206661696c65648152508573ffffffffffffffffffffffffffffffffffffffff1661199e9092919063ffffffff16565b905060008151111561197657808060200190518101906119369190611d8f565b611975576040517f08c379a000000000000000000000000000000000000000000000000000000000815260040161196c906125dc565b60405180910390fd5b5b505050565b600080836001016000848152602001908152602001600020541415905092915050565b60606119ad84846000856119b6565b90509392505050565b6060824710156119fb576040517f08c379a00000000000000000000000000000000000000000000000000000000081526004016119f29061251c565b60405180910390fd5b611a0485611aca565b611a43576040517f08c379a0000000000000000000000000000000000000000000000000000000008152600401611a3a906125bc565b60405180910390fd5b6000808673ffffffffffffffffffffffffffffffffffffffff168587604051611a6c9190612342565b60006040518083038185875af1925050503d8060008114611aa9576040519150601f19603f3d011682016040523d82523d6000602084013e611aae565b606091505b5091509150611abe828286611add565b92505050949350505050565b600080823b905060008111915050919050565b60608315611aed57829050611b3d565b600083511115611b005782518084602001fd5b816040517f08c379a0000000000000000000000000000000000000000000000000000000008152600401611b3491906124ba565b60405180910390fd5b9392505050565b600081359050611b5381612836565b92915050565b600081519050611b688161284d565b92915050565b600081359050611b7d81612864565b92915050565b600081359050611b928161287b565b92915050565b60008083601f840112611baa57600080fd5b8235905067ffffffffffffffff811115611bc357600080fd5b602083019150836001820283011115611bdb57600080fd5b9250929050565b600081359050611bf181612892565b92915050565b600081519050611c0681612892565b92915050565b60008060408385031215611c1f57600080fd5b6000611c2d85828601611b44565b9250506020611c3e85828601611b44565b9150509250929050565b600080600060608486031215611c5d57600080fd5b6000611c6b86828701611b44565b9350506020611c7c86828701611b44565b9250506040611c8d86828701611be2565b9150509250925092565b60008060408385031215611caa57600080fd5b6000611cb885828601611b44565b9250506020611cc985828601611b83565b9150509250929050565b600080600080600060808688031215611ceb57600080fd5b6000611cf988828901611b44565b9550506020611d0a88828901611b83565b9450506040611d1b88828901611b44565b935050606086013567ffffffffffffffff811115611d3857600080fd5b611d4488828901611b98565b92509250509295509295909350565b60008060408385031215611d6657600080fd5b6000611d7485828601611b44565b9250506020611d8585828601611be2565b9150509250929050565b600060208284031215611da157600080fd5b6000611daf84828501611b59565b91505092915050565b600060208284031215611dca57600080fd5b6000611dd884828501611b6e565b91505092915050565b600060208284031215611df357600080fd5b6000611e0184828501611bf7565b91505092915050565b600080600080600060808688031215611e2257600080fd5b6000611e3088828901611be2565b9550506020611e4188828901611b44565b9450506040611e5288828901611b44565b935050606086013567ffffffffffffffff811115611e6f57600080fd5b611e7b88828901611b98565b92509250509295509295909350565b611e9381612736565b82525050565b611ea281612724565b82525050565b611eb181612754565b82525050565b611ec08161275e565b82525050565b6000611ed2838561266d565b9350611edf8385846127b4565b611ee883612825565b840190509392505050565b6000611eff838561267e565b9350611f0c8385846127b4565b82840190509392505050565b6000611f2382612657565b611f2d818561267e565b9350611f3d8185602086016127c3565b80840191505092915050565b6000611f5482612662565b611f5e8185612689565b9350611f6e8185602086016127c3565b611f7781612825565b840191505092915050565b6000611f8f601783612689565b91507f47656c61746f666965643a204f6e6c792067656c61746f0000000000000000006000830152602082019050919050565b6000611fcf601b83612689565b91507f506f6b654d653a20657865633a204e6f207461736b20666f756e6400000000006000830152602082019050919050565b600061200f602683612689565b91507f416464726573733a20696e73756666696369656e742062616c616e636520666f60008301527f722063616c6c00000000000000000000000000000000000000000000000000006020830152604082019050919050565b6000612075601e83612689565b91507f506f6b654d653a20657865633a20457865637574696f6e206661696c656400006000830152602082019050919050565b60006120b5602b83612689565b91507f506f6b654d653a20657865633a2053656e64657220646964206e6f742073746160008301527f7274207461736b207965740000000000000000000000000000000000000000006020830152604082019050919050565b600061211b603183612689565b91507f506f6b654d653a2063616e63656c5461736b3a2053656e64657220646964206e60008301527f6f74207374617274207461736b207965740000000000000000000000000000006020830152604082019050919050565b6000612181602f83612689565b91507f506f6b654d653a206372656174655461736b3a2053656e64657220616c72656160008301527f64792073746172746564207461736b00000000000000000000000000000000006020830152604082019050919050565b60006121e760008361267e565b9150600082019050919050565b6000612201601d83612689565b91507f416464726573733a2063616c6c20746f206e6f6e2d636f6e74726163740000006000830152602082019050919050565b6000612241602a83612689565b91507f5361666545524332303a204552433230206f7065726174696f6e20646964206e60008301527f6f742073756363656564000000000000000000000000000000000000000000006020830152604082019050919050565b60006122a7601f83612689565b91507f5265656e7472616e637947756172643a207265656e7472616e742063616c6c006000830152602082019050919050565b60006122e7601d83612689565b91507f47656c61746f666965643a2047656c61746f20666565206661696c65640000006000830152602082019050919050565b612323816127aa565b82525050565b6000612336828486611ef3565b91508190509392505050565b600061234e8284611f18565b915081905092915050565b6000612364826121da565b9150819050919050565b60006020820190506123836000830184611e99565b92915050565b600060208201905061239e6000830184611e8a565b92915050565b60006060820190506123b96000830186611e99565b6123c66020830185611e99565b6123d3604083018461231a565b949350505050565b60006040820190506123f06000830185611e99565b6123fd6020830184611eb7565b9392505050565b60006080820190506124196000830188611e99565b6124266020830187611eb7565b6124336040830186611e99565b8181036060830152612446818486611ec6565b90509695505050505050565b60006040820190506124676000830185611e99565b612474602083018461231a565b9392505050565b60006020820190506124906000830184611ea8565b92915050565b600060208201905081810360008301526124b1818486611ec6565b90509392505050565b600060208201905081810360008301526124d48184611f49565b905092915050565b600060208201905081810360008301526124f581611f82565b9050919050565b6000602082019050818103600083015261251581611fc2565b9050919050565b6000602082019050818103600083015261253581612002565b9050919050565b6000602082019050818103600083015261255581612068565b9050919050565b60006020820190508181036000830152612575816120a8565b9050919050565b600060208201905081810360008301526125958161210e565b9050919050565b600060208201905081810360008301526125b581612174565b9050919050565b600060208201905081810360008301526125d5816121f4565b9050919050565b600060208201905081810360008301526125f581612234565b9050919050565b600060208201905081810360008301526126158161229a565b9050919050565b60006020820190508181036000830152612635816122da565b9050919050565b6000602082019050612651600083018461231a565b92915050565b600081519050919050565b600081519050919050565b600082825260208201905092915050565b600081905092915050565b600082825260208201905092915050565b60006126a5826127aa565b91506126b0836127aa565b9250827fffffffffffffffffffffffffffffffffffffffffffffffffffffffffffffffff038211156126e5576126e46127f6565b5b828201905092915050565b60006126fb826127aa565b9150612706836127aa565b925082821015612719576127186127f6565b5b828203905092915050565b600061272f8261278a565b9050919050565b60006127418261278a565b9050919050565b60008115159050919050565b6000819050919050565b60007fffffffff0000000000000000000000000000000000000000000000000000000082169050919050565b600073ffffffffffffffffffffffffffffffffffffffff82169050919050565b6000819050919050565b82818337600083830152505050565b60005b838110156127e15780820151818401526020810190506127c6565b838111156127f0576000848401525b50505050565b7f4e487b7100000000000000000000000000000000000000000000000000000000600052601160045260246000fd5b6000601f19601f8301169050919050565b61283f81612724565b811461284a57600080fd5b50565b61285681612748565b811461286157600080fd5b50565b61286d81612754565b811461287857600080fd5b50565b6128848161275e565b811461288f57600080fd5b50565b61289b816127aa565b81146128a657600080fd5b5056fea2646970667358221220ceac9849eb1b0a131e0e94aeac693fbe437c782f2c4f207112e36bd3c9d6faf364736f6c63430008000033",
  "devdoc": {
    "kind": "dev",
    "methods": {},
    "version": 1
  },
  "userdoc": {
    "kind": "user",
    "methods": {},
    "version": 1
  },
  "storageLayout": {
    "storage": [
      {
        "astId": 10,
        "contract": "contracts/PokeMe2.sol:PokeMe2",
        "label": "_status",
        "offset": 0,
        "slot": "0",
        "type": "t_uint256"
      },
      {
        "astId": 2265,
        "contract": "contracts/PokeMe2.sol:PokeMe2",
        "label": "calleeOfTask",
        "offset": 0,
        "slot": "1",
        "type": "t_mapping(t_bytes32,t_address)"
      },
      {
        "astId": 2269,
        "contract": "contracts/PokeMe2.sol:PokeMe2",
        "label": "execAddresses",
        "offset": 0,
        "slot": "2",
        "type": "t_mapping(t_bytes32,t_address)"
      },
      {
        "astId": 2275,
        "contract": "contracts/PokeMe2.sol:PokeMe2",
        "label": "balanceOfCallee",
        "offset": 0,
        "slot": "3",
        "type": "t_mapping(t_address,t_mapping(t_address,t_uint256))"
      },
      {
        "astId": 2280,
        "contract": "contracts/PokeMe2.sol:PokeMe2",
        "label": "_createdTasks",
        "offset": 0,
        "slot": "4",
        "type": "t_mapping(t_address,t_struct(Bytes32Set)1240_storage)"
      },
      {
        "astId": 2285,
        "contract": "contracts/PokeMe2.sol:PokeMe2",
        "label": "_tokenCredits",
        "offset": 0,
        "slot": "5",
        "type": "t_mapping(t_address,t_struct(AddressSet)1331_storage)"
      }
    ],
    "types": {
      "t_address": {
        "encoding": "inplace",
        "label": "address",
        "numberOfBytes": "20"
      },
      "t_array(t_bytes32)dyn_storage": {
        "base": "t_bytes32",
        "encoding": "dynamic_array",
        "label": "bytes32[]",
        "numberOfBytes": "32"
      },
      "t_bytes32": {
        "encoding": "inplace",
        "label": "bytes32",
        "numberOfBytes": "32"
      },
      "t_mapping(t_address,t_mapping(t_address,t_uint256))": {
        "encoding": "mapping",
        "key": "t_address",
        "label": "mapping(address => mapping(address => uint256))",
        "numberOfBytes": "32",
        "value": "t_mapping(t_address,t_uint256)"
      },
      "t_mapping(t_address,t_struct(AddressSet)1331_storage)": {
        "encoding": "mapping",
        "key": "t_address",
        "label": "mapping(address => struct EnumerableSet.AddressSet)",
        "numberOfBytes": "32",
        "value": "t_struct(AddressSet)1331_storage"
      },
      "t_mapping(t_address,t_struct(Bytes32Set)1240_storage)": {
        "encoding": "mapping",
        "key": "t_address",
        "label": "mapping(address => struct EnumerableSet.Bytes32Set)",
        "numberOfBytes": "32",
        "value": "t_struct(Bytes32Set)1240_storage"
      },
      "t_mapping(t_address,t_uint256)": {
        "encoding": "mapping",
        "key": "t_address",
        "label": "mapping(address => uint256)",
        "numberOfBytes": "32",
        "value": "t_uint256"
      },
      "t_mapping(t_bytes32,t_address)": {
        "encoding": "mapping",
        "key": "t_bytes32",
        "label": "mapping(bytes32 => address)",
        "numberOfBytes": "32",
        "value": "t_address"
      },
      "t_mapping(t_bytes32,t_uint256)": {
        "encoding": "mapping",
        "key": "t_bytes32",
        "label": "mapping(bytes32 => uint256)",
        "numberOfBytes": "32",
        "value": "t_uint256"
      },
      "t_struct(AddressSet)1331_storage": {
        "encoding": "inplace",
        "label": "struct EnumerableSet.AddressSet",
        "members": [
          {
            "astId": 1330,
            "contract": "contracts/PokeMe2.sol:PokeMe2",
            "label": "_inner",
            "offset": 0,
            "slot": "0",
            "type": "t_struct(Set)1060_storage"
          }
        ],
        "numberOfBytes": "64"
      },
      "t_struct(Bytes32Set)1240_storage": {
        "encoding": "inplace",
        "label": "struct EnumerableSet.Bytes32Set",
        "members": [
          {
            "astId": 1239,
            "contract": "contracts/PokeMe2.sol:PokeMe2",
            "label": "_inner",
            "offset": 0,
            "slot": "0",
            "type": "t_struct(Set)1060_storage"
          }
        ],
        "numberOfBytes": "64"
      },
      "t_struct(Set)1060_storage": {
        "encoding": "inplace",
        "label": "struct EnumerableSet.Set",
        "members": [
          {
            "astId": 1055,
            "contract": "contracts/PokeMe2.sol:PokeMe2",
            "label": "_values",
            "offset": 0,
            "slot": "0",
            "type": "t_array(t_bytes32)dyn_storage"
          },
          {
            "astId": 1059,
            "contract": "contracts/PokeMe2.sol:PokeMe2",
            "label": "_indexes",
            "offset": 0,
            "slot": "1",
            "type": "t_mapping(t_bytes32,t_uint256)"
          }
        ],
        "numberOfBytes": "64"
      },
      "t_uint256": {
        "encoding": "inplace",
        "label": "uint256",
        "numberOfBytes": "32"
      }
    }
  }
}