{
  "address": "0xB3f5503f93d5Ef84b06993a1975B9D21B962892F",
  "abi": [
    {
      "inputs": [
        {
          "internalType": "address payable",
          "name": "_gelato",
          "type": "address"
        },
        {
          "internalType": "address",
          "name": "_taskTreasury",
          "type": "address"
        }
      ],
      "stateMutability": "nonpayable",
      "type": "constructor"
    },
    {
      "anonymous": false,
      "inputs": [
        {
          "indexed": true,
          "internalType": "uint256",
          "name": "txFee",
          "type": "uint256"
        },
        {
          "indexed": true,
          "internalType": "address",
          "name": "feeToken",
          "type": "address"
        },
        {
          "indexed": true,
          "internalType": "address",
          "name": "execAddress",
          "type": "address"
        },
        {
          "indexed": false,
          "internalType": "bytes",
          "name": "execData",
          "type": "bytes"
        },
        {
          "indexed": false,
          "internalType": "bytes32",
          "name": "taskId",
          "type": "bytes32"
        }
      ],
      "name": "ExecSuccess",
      "type": "event"
    },
    {
      "anonymous": false,
      "inputs": [
        {
          "indexed": false,
          "internalType": "bytes32",
          "name": "taskId",
          "type": "bytes32"
        },
        {
          "indexed": false,
          "internalType": "address",
          "name": "taskCreator",
          "type": "address"
        }
      ],
      "name": "TaskCancelled",
      "type": "event"
    },
    {
      "anonymous": false,
      "inputs": [
        {
          "indexed": false,
          "internalType": "address",
          "name": "taskCreator",
          "type": "address"
        },
        {
          "indexed": false,
          "internalType": "address",
          "name": "execAddress",
          "type": "address"
        },
        {
          "indexed": false,
          "internalType": "bytes4",
          "name": "selector",
          "type": "bytes4"
        },
        {
          "indexed": false,
          "internalType": "address",
          "name": "resolverAddress",
          "type": "address"
        },
        {
          "indexed": false,
          "internalType": "bytes32",
          "name": "taskId",
          "type": "bytes32"
        },
        {
          "indexed": false,
          "internalType": "bytes",
          "name": "resolverData",
          "type": "bytes"
        },
        {
          "indexed": false,
          "internalType": "bool",
          "name": "useTaskTreasuryFunds",
          "type": "bool"
        },
        {
          "indexed": false,
          "internalType": "address",
          "name": "feeToken",
          "type": "address"
        },
        {
          "indexed": false,
          "internalType": "bytes32",
          "name": "resolverHash",
          "type": "bytes32"
        }
      ],
      "name": "TaskCreated",
      "type": "event"
    },
    {
      "anonymous": false,
      "inputs": [
        {
          "indexed": true,
          "internalType": "bytes32",
          "name": "hash",
          "type": "bytes32"
        },
        {
          "indexed": true,
          "internalType": "uint128",
          "name": "nextExec",
          "type": "uint128"
        },
        {
          "indexed": true,
          "internalType": "uint128",
          "name": "interval",
          "type": "uint128"
        }
      ],
      "name": "TimerSet",
      "type": "event"
    },
    {
      "inputs": [
        {
          "internalType": "bytes32",
          "name": "_taskId",
          "type": "bytes32"
        }
      ],
      "name": "cancelTask",
      "outputs": [],
      "stateMutability": "nonpayable",
      "type": "function"
    },
    {
      "inputs": [
        {
          "internalType": "address",
          "name": "_execAddress",
          "type": "address"
        },
        {
          "internalType": "bytes4",
          "name": "_execSelector",
          "type": "bytes4"
        },
        {
          "internalType": "address",
          "name": "_resolverAddress",
          "type": "address"
        },
        {
          "internalType": "bytes",
          "name": "_resolverData",
          "type": "bytes"
        }
      ],
      "name": "createTask",
      "outputs": [
        {
          "internalType": "bytes32",
          "name": "task",
          "type": "bytes32"
        }
      ],
      "stateMutability": "nonpayable",
      "type": "function"
    },
    {
      "inputs": [
        {
          "internalType": "address",
          "name": "_execAddress",
          "type": "address"
        },
        {
          "internalType": "bytes4",
          "name": "_execSelector",
          "type": "bytes4"
        },
        {
          "internalType": "address",
          "name": "_resolverAddress",
          "type": "address"
        },
        {
          "internalType": "bytes",
          "name": "_resolverData",
          "type": "bytes"
        },
        {
          "internalType": "address",
          "name": "_feeToken",
          "type": "address"
        }
      ],
      "name": "createTaskNoPrepayment",
      "outputs": [
        {
          "internalType": "bytes32",
          "name": "task",
          "type": "bytes32"
        }
      ],
      "stateMutability": "nonpayable",
      "type": "function"
    },
    {
      "inputs": [
        {
          "internalType": "uint128",
          "name": "_interval",
          "type": "uint128"
        },
        {
          "internalType": "address",
          "name": "_execAddress",
          "type": "address"
        },
        {
          "internalType": "bytes4",
          "name": "_execSelector",
          "type": "bytes4"
        },
        {
          "internalType": "address",
          "name": "_resolverAddress",
          "type": "address"
        },
        {
          "internalType": "bytes",
          "name": "_resolverData",
          "type": "bytes"
        },
        {
          "internalType": "address",
          "name": "_feeToken",
          "type": "address"
        },
        {
          "internalType": "bool",
          "name": "_useTreasury",
          "type": "bool"
        }
      ],
      "name": "createTimedTask",
      "outputs": [
        {
          "internalType": "bytes32",
          "name": "task",
          "type": "bytes32"
        }
      ],
      "stateMutability": "nonpayable",
      "type": "function"
    },
    {
      "inputs": [
        {
          "internalType": "uint256",
          "name": "_txFee",
          "type": "uint256"
        },
        {
          "internalType": "address",
          "name": "_feeToken",
          "type": "address"
        },
        {
          "internalType": "address",
          "name": "_taskCreator",
          "type": "address"
        },
        {
          "internalType": "bool",
          "name": "_useTaskTreasuryFunds",
          "type": "bool"
        },
        {
          "internalType": "bytes32",
          "name": "_resolverHash",
          "type": "bytes32"
        },
        {
          "internalType": "address",
          "name": "_execAddress",
          "type": "address"
        },
        {
          "internalType": "bytes",
          "name": "_execData",
          "type": "bytes"
        }
      ],
      "name": "exec",
      "outputs": [],
      "stateMutability": "nonpayable",
      "type": "function"
    },
    {
      "inputs": [
        {
          "internalType": "bytes32",
          "name": "",
          "type": "bytes32"
        }
      ],
      "name": "execAddresses",
      "outputs": [
        {
          "internalType": "address",
          "name": "",
          "type": "address"
        }
      ],
      "stateMutability": "view",
      "type": "function"
    },
    {
      "inputs": [],
      "name": "fee",
      "outputs": [
        {
          "internalType": "uint256",
          "name": "",
          "type": "uint256"
        }
      ],
      "stateMutability": "view",
      "type": "function"
    },
    {
      "inputs": [],
      "name": "feeToken",
      "outputs": [
        {
          "internalType": "address",
          "name": "",
          "type": "address"
        }
      ],
      "stateMutability": "view",
      "type": "function"
    },
    {
      "inputs": [],
      "name": "gelato",
      "outputs": [
        {
          "internalType": "address payable",
          "name": "",
          "type": "address"
        }
      ],
      "stateMutability": "view",
      "type": "function"
    },
    {
      "inputs": [],
      "name": "getFeeDetails",
      "outputs": [
        {
          "internalType": "uint256",
          "name": "",
          "type": "uint256"
        },
        {
          "internalType": "address",
          "name": "",
          "type": "address"
        }
      ],
      "stateMutability": "view",
      "type": "function"
    },
    {
      "inputs": [
        {
          "internalType": "address",
          "name": "_resolverAddress",
          "type": "address"
        },
        {
          "internalType": "bytes",
          "name": "_resolverData",
          "type": "bytes"
        }
      ],
      "name": "getResolverHash",
      "outputs": [
        {
          "internalType": "bytes32",
          "name": "",
          "type": "bytes32"
        }
      ],
      "stateMutability": "pure",
      "type": "function"
    },
    {
      "inputs": [
        {
          "internalType": "string",
          "name": "_func",
          "type": "string"
        }
      ],
      "name": "getSelector",
      "outputs": [
        {
          "internalType": "bytes4",
          "name": "",
          "type": "bytes4"
        }
      ],
      "stateMutability": "pure",
      "type": "function"
    },
    {
      "inputs": [
        {
          "internalType": "address",
          "name": "_taskCreator",
          "type": "address"
        },
        {
          "internalType": "address",
          "name": "_execAddress",
          "type": "address"
        },
        {
          "internalType": "bytes4",
          "name": "_selector",
          "type": "bytes4"
        },
        {
          "internalType": "bool",
          "name": "_useTaskTreasuryFunds",
          "type": "bool"
        },
        {
          "internalType": "address",
          "name": "_feeToken",
          "type": "address"
        },
        {
          "internalType": "bytes32",
          "name": "_resolverHash",
          "type": "bytes32"
        }
      ],
      "name": "getTaskId",
      "outputs": [
        {
          "internalType": "bytes32",
          "name": "",
          "type": "bytes32"
        }
      ],
      "stateMutability": "pure",
      "type": "function"
    },
    {
      "inputs": [
        {
          "internalType": "address",
          "name": "_taskCreator",
          "type": "address"
        }
      ],
      "name": "getTaskIdsByUser",
      "outputs": [
        {
          "internalType": "bytes32[]",
          "name": "",
          "type": "bytes32[]"
        }
      ],
      "stateMutability": "view",
      "type": "function"
    },
    {
      "inputs": [
        {
          "internalType": "bytes32",
          "name": "",
          "type": "bytes32"
        }
      ],
      "name": "taskCreator",
      "outputs": [
        {
          "internalType": "address",
          "name": "",
          "type": "address"
        }
      ],
      "stateMutability": "view",
      "type": "function"
    },
    {
      "inputs": [],
      "name": "taskTreasury",
      "outputs": [
        {
          "internalType": "address",
          "name": "",
          "type": "address"
        }
      ],
      "stateMutability": "view",
      "type": "function"
    },
    {
      "inputs": [
        {
          "internalType": "bytes32",
          "name": "",
          "type": "bytes32"
        }
      ],
      "name": "timedTask",
      "outputs": [
        {
          "internalType": "uint128",
          "name": "nextExec",
          "type": "uint128"
        },
        {
          "internalType": "uint128",
          "name": "interval",
          "type": "uint128"
        }
      ],
      "stateMutability": "view",
      "type": "function"
    },
    {
      "inputs": [],
      "name": "version",
      "outputs": [
        {
          "internalType": "string",
          "name": "",
          "type": "string"
        }
      ],
      "stateMutability": "view",
      "type": "function"
    }
  ],
  "transactionHash": "0xde7b7bedba8ddeb0b5238cdae6176b87e643b844da2426183b8ba28093f8ecd3",
  "args": [
    "0xCc4CcD69D31F9FfDBD3BFfDe49c6aA886DaB98d9",
    "0x2705aCca70CdB3E326C1013eEA2c03A4f2935b66"
  ],
  "solcInputHash": "e558ecc4ae191c7639b6edc29ece9cb5",
  "bytecode": "0x60c06040523480156200001157600080fd5b5060405162002e9a38038062002e9a8339818101604052810190620000379190620000dd565b818073ffffffffffffffffffffffffffffffffffffffff1660808173ffffffffffffffffffffffffffffffffffffffff1660601b81525050508073ffffffffffffffffffffffffffffffffffffffff1660a08173ffffffffffffffffffffffffffffffffffffffff1660601b8152505050506200019a565b600081519050620000c08162000166565b92915050565b600081519050620000d78162000180565b92915050565b60008060408385031215620000f157600080fd5b60006200010185828601620000c6565b92505060206200011485828601620000af565b9150509250929050565b60006200012b8262000146565b9050919050565b60006200013f8262000146565b9050919050565b600073ffffffffffffffffffffffffffffffffffffffff82169050919050565b62000171816200011e565b81146200017d57600080fd5b50565b6200018b8162000132565b81146200019757600080fd5b50565b60805160601c60a05160601c612cc6620001d460003960008181610cac01526112b70152600081816105d601526109040152612cc66000f3fe608060405234801561001057600080fd5b50600436106101165760003560e01c80638e8b5279116100a2578063bcf17ae711610071578063bcf17ae714610331578063cabcb34914610361578063ddca3f4314610391578063e60a3213146103af578063ee8ca3b5146103cd57610116565b80638e8b527914610295578063b810c636146102b1578063b81cd866146102d0578063b9f45adb1461030157610116565b8063647846a5116100e9578063647846a5146101b75780636d2dd29f146101d55780637b4e45e91461020557806380a003ff146102355780638b92696a1461026557610116565b80630407145c1461011b5780632e6e0bd01461014b57806354fd4d501461017b578063573ea57514610199575b600080fd5b61013560048036038101906101309190611c38565b6103e9565b604051610142919061269c565b60405180910390f35b61016560048036038101906101609190611e50565b610568565b6040516101729190612508565b60405180910390f35b61018361059b565b604051610190919061274f565b60405180910390f35b6101a16105d4565b6040516101ae9190612523565b60405180910390f35b6101bf6105f8565b6040516101cc9190612508565b60405180910390f35b6101ef60048036038101906101ea9190611e50565b61061e565b6040516101fc9190612508565b60405180910390f35b61021f600480360381019061021a9190611c61565b610651565b60405161022c91906126be565b60405180910390f35b61024f600480360381019061024a9190611e79565b610690565b60405161025c9190612702565b60405180910390f35b61027f600480360381019061027a9190611cea565b6106b2565b60405161028c91906126be565b60405180910390f35b6102af60048036038101906102aa9190611f78565b610902565b005b6102b9610de2565b6040516102c7929190612875565b60405180910390f35b6102ea60048036038101906102e59190611e50565b610e13565b6040516102f8929190612831565b60405180910390f35b61031b60048036038101906103169190611d6a565b610e6f565b60405161032891906126be565b60405180910390f35b61034b60048036038101906103469190611ebe565b6110be565b60405161035891906126be565b60405180910390f35b61037b60048036038101906103769190611dfc565b61127c565b60405161038891906126be565b60405180910390f35b6103996112af565b6040516103a6919061285a565b60405180910390f35b6103b76112b5565b6040516103c49190612508565b60405180910390f35b6103e760048036038101906103e29190611e50565b6112d9565b005b60606000610434600260008573ffffffffffffffffffffffffffffffffffffffff1673ffffffffffffffffffffffffffffffffffffffff168152602001908152602001600020611472565b905060008167ffffffffffffffff811115610478577f4e487b7100000000000000000000000000000000000000000000000000000000600052604160045260246000fd5b6040519080825280602002602001820160405280156104a65781602001602082028036833780820191505090505b50905060005b8281101561055d5761050581600260008873ffffffffffffffffffffffffffffffffffffffff1673ffffffffffffffffffffffffffffffffffffffff16815260200190815260200160002061148790919063ffffffff16565b82828151811061053e577f4e487b7100000000000000000000000000000000000000000000000000000000600052603260045260246000fd5b602002602001018181525050808061055590612aee565b9150506104ac565b508092505050919050565b60006020528060005260406000206000915054906101000a900473ffffffffffffffffffffffffffffffffffffffff1681565b6040518060400160405280600181526020017f330000000000000000000000000000000000000000000000000000000000000081525081565b7f000000000000000000000000000000000000000000000000000000000000000081565b600460009054906101000a900473ffffffffffffffffffffffffffffffffffffffff1681565b60016020528060005260406000206000915054906101000a900473ffffffffffffffffffffffffffffffffffffffff1681565b600086868686868660405160200161066e969594939291906125d4565b6040516020818303038152906040528051906020012090509695505050505050565b600082826040516106a2929190612487565b6040518091039020905092915050565b6000806107038585858080601f016020809104026020016040519081016040528093929190818152602001838380828437600081840152601f19601f8201169050808301925050505050505061127c565b90506107153388886001600086610651565b9150600073ffffffffffffffffffffffffffffffffffffffff1660008084815260200190815260200160002060009054906101000a900473ffffffffffffffffffffffffffffffffffffffff1673ffffffffffffffffffffffffffffffffffffffff16146107b8576040517f08c379a00000000000000000000000000000000000000000000000000000000081526004016107af906127f1565b60405180910390fd5b61080982600260003373ffffffffffffffffffffffffffffffffffffffff1673ffffffffffffffffffffffffffffffffffffffff16815260200190815260200160002061149e90919063ffffffff16565b503360008084815260200190815260200160002060006101000a81548173ffffffffffffffffffffffffffffffffffffffff021916908373ffffffffffffffffffffffffffffffffffffffff160217905550866001600084815260200190815260200160002060006101000a81548173ffffffffffffffffffffffffffffffffffffffff021916908373ffffffffffffffffffffffffffffffffffffffff1602179055507fcfd64545826fbe236e660141349bd1ed0b30c9bec7e213894afd7745a1f76f3333888888868989600160008a6040516108f09a9998979695949392919061253e565b60405180910390a15095945050505050565b7f000000000000000000000000000000000000000000000000000000000000000073ffffffffffffffffffffffffffffffffffffffff163373ffffffffffffffffffffffffffffffffffffffff1614610990576040517f08c379a000000000000000000000000000000000000000000000000000000000815260040161098790612771565b60405180910390fd5b846109de578760038190555086600460006101000a81548173ffffffffffffffffffffffffffffffffffffffff021916908373ffffffffffffffffffffffffffffffffffffffff1602179055505b6000610a0487856109ef86866114b5565b898a6109fb578c6109fe565b60005b8a610651565b90508673ffffffffffffffffffffffffffffffffffffffff1660008083815260200190815260200160002060009054906101000a900473ffffffffffffffffffffffffffffffffffffffff1673ffffffffffffffffffffffffffffffffffffffff1614610aa6576040517f08c379a0000000000000000000000000000000000000000000000000000000008152600401610a9d90612791565b60405180910390fd5b600060056000838152602001908152602001600020905060008160000160009054906101000a90046fffffffffffffffffffffffffffffffff166fffffffffffffffffffffffffffffffff1614610be557426fffffffffffffffffffffffffffffffff168160000160009054906101000a90046fffffffffffffffffffffffffffffffff166fffffffffffffffffffffffffffffffff161115610b7e576040517f08c379a0000000000000000000000000000000000000000000000000000000008152600401610b75906127d1565b60405180910390fd5b8060000160109054906101000a90046fffffffffffffffffffffffffffffffff1642610baa9190612986565b8160000160006101000a8154816fffffffffffffffffffffffffffffffff02191690836fffffffffffffffffffffffffffffffff1602179055505b6000808673ffffffffffffffffffffffffffffffffffffffff168686604051610c0f929190612487565b6000604051808303816000865af19150503d8060008114610c4c576040519150601f19603f3d011682016040523d82523d6000602084013e610c51565b606091505b509150915081610ca457610ca36040518060400160405280600c81526020017f506f6b654d652e657865633a0000000000000000000000000000000000000000815250826116c390919063ffffffff16565b5b8815610d3e577f000000000000000000000000000000000000000000000000000000000000000073ffffffffffffffffffffffffffffffffffffffff16636f192acc8c8e8d6040518463ffffffff1660e01b8152600401610d0793929190612665565b600060405180830381600087803b158015610d2157600080fd5b505af1158015610d35573d6000803e3d6000fd5b50505050610d6a565b600360009055600460006101000a81549073ffffffffffffffffffffffffffffffffffffffff02191690555b8673ffffffffffffffffffffffffffffffffffffffff168b73ffffffffffffffffffffffffffffffffffffffff168d7ff5785831cc21ed1a6e74f60bd9268a70a7a3f3fc03c815dba22ceda33aea26ce898989604051610dcc9392919061271d565b60405180910390a4505050505050505050505050565b600080600354600460009054906101000a900473ffffffffffffffffffffffffffffffffffffffff16915091509091565b60056020528060005260406000206000915090508060000160009054906101000a90046fffffffffffffffffffffffffffffffff16908060000160109054906101000a90046fffffffffffffffffffffffffffffffff16905082565b600080610ec08686868080601f016020809104026020016040519081016040528093929190818152602001838380828437600081840152601f19601f8201169050808301925050505050505061127c565b9050610ed133898960008786610651565b9150600073ffffffffffffffffffffffffffffffffffffffff1660008084815260200190815260200160002060009054906101000a900473ffffffffffffffffffffffffffffffffffffffff1673ffffffffffffffffffffffffffffffffffffffff1614610f74576040517f08c379a0000000000000000000000000000000000000000000000000000000008152600401610f6b906127f1565b60405180910390fd5b610fc582600260003373ffffffffffffffffffffffffffffffffffffffff1673ffffffffffffffffffffffffffffffffffffffff16815260200190815260200160002061149e90919063ffffffff16565b503360008084815260200190815260200160002060006101000a81548173ffffffffffffffffffffffffffffffffffffffff021916908373ffffffffffffffffffffffffffffffffffffffff160217905550876001600084815260200190815260200160002060006101000a81548173ffffffffffffffffffffffffffffffffffffffff021916908373ffffffffffffffffffffffffffffffffffffffff1602179055507fcfd64545826fbe236e660141349bd1ed0b30c9bec7e213894afd7745a1f76f3333898989868a8a60008b8a6040516110ab9a9998979695949392919061253e565b60405180910390a1509695505050505050565b600080896fffffffffffffffffffffffffffffffff1611611114576040517f08c379a000000000000000000000000000000000000000000000000000000000815260040161110b90612811565b60405180910390fd5b811561112e5761112788888888886106b2565b905061113f565b61113c888888888888610e6f565b90505b6000894261114d9190612986565b90506040518060400160405280826fffffffffffffffffffffffffffffffff1681526020018b6fffffffffffffffffffffffffffffffff168152506005600084815260200190815260200160002060008201518160000160006101000a8154816fffffffffffffffffffffffffffffffff02191690836fffffffffffffffffffffffffffffffff16021790555060208201518160000160106101000a8154816fffffffffffffffffffffffffffffffff02191690836fffffffffffffffffffffffffffffffff160217905550905050896fffffffffffffffffffffffffffffffff16816fffffffffffffffffffffffffffffffff16837f857791ec95701b6fff966bff1b5ce9a86107aeabaf6d2fdfd89993aa0f084e3760405160405180910390a45098975050505050505050565b60008282604051602001611291929190612635565b60405160208183030381529060405280519060200120905092915050565b60035481565b7f000000000000000000000000000000000000000000000000000000000000000081565b3373ffffffffffffffffffffffffffffffffffffffff1660008083815260200190815260200160002060009054906101000a900473ffffffffffffffffffffffffffffffffffffffff1673ffffffffffffffffffffffffffffffffffffffff1614611379576040517f08c379a0000000000000000000000000000000000000000000000000000000008152600401611370906127b1565b60405180910390fd5b6113ca81600260003373ffffffffffffffffffffffffffffffffffffffff1673ffffffffffffffffffffffffffffffffffffffff16815260200190815260200160002061182c90919063ffffffff16565b5060008082815260200190815260200160002060006101000a81549073ffffffffffffffffffffffffffffffffffffffff02191690556001600082815260200190815260200160002060006101000a81549073ffffffffffffffffffffffffffffffffffffffff02191690557f44d83729a43f9c6046446df014d073dd242e0ad672071e9b292f31b669c25b0981336040516114679291906126d9565b60405180910390a150565b600061148082600001611843565b9050919050565b60006114968360000183611854565b905092915050565b60006114ad83600001836118a5565b905092915050565b60006018838360038181106114f3577f4e487b7100000000000000000000000000000000000000000000000000000000600052603260045260246000fd5b9050013560f81c60f81b7effffffffffffffffffffffffffffffffffffffffffffffffffffffffffffff19167bffffffffffffffffffffffffffffffffffffffffffffffffffffffff1916901c60108484600281811061157c577f4e487b7100000000000000000000000000000000000000000000000000000000600052603260045260246000fd5b9050013560f81c60f81b7effffffffffffffffffffffffffffffffffffffffffffffffffffffffffffff19167bffffffffffffffffffffffffffffffffffffffffffffffffffffffff1916901c600885856001818110611605577f4e487b7100000000000000000000000000000000000000000000000000000000600052603260045260246000fd5b9050013560f81c60f81b7effffffffffffffffffffffffffffffffffffffffffffffffffffffffffffff19167bffffffffffffffffffffffffffffffffffffffffffffffffffffffff1916901c8585600081811061168c577f4e487b7100000000000000000000000000000000000000000000000000000000600052603260045260246000fd5b9050013560f81c60f81b7effffffffffffffffffffffffffffffffffffffffffffffffffffffffffffff1916171717905092915050565b6004602083516116d39190612b37565b14156117d0576000826020015190506308c379a060e01b817bffffffffffffffffffffffffffffffffffffffffffffffffffffffff191614156117745760448301925081836040516020016117299291906124a0565b6040516020818303038152906040526040517f08c379a000000000000000000000000000000000000000000000000000000000815260040161176b919061274f565b60405180910390fd5b8160405160200161178591906124c4565b6040516020818303038152906040526040517f08c379a00000000000000000000000000000000000000000000000000000000081526004016117c7919061274f565b60405180910390fd5b806040516020016117e191906124e6565b6040516020818303038152906040526040517f08c379a0000000000000000000000000000000000000000000000000000000008152600401611823919061274f565b60405180910390fd5b600061183b8360000183611915565b905092915050565b600081600001805490509050919050565b6000826000018281548110611892577f4e487b7100000000000000000000000000000000000000000000000000000000600052603260045260246000fd5b9060005260206000200154905092915050565b60006118b18383611a9b565b61190a57826000018290806001815401808255809150506001900390600052602060002001600090919091909150558260000180549050836001016000848152602001908152602001600020819055506001905061190f565b600090505b92915050565b60008083600101600084815260200190815260200160002054905060008114611a8f57600060018261194791906129cc565b905060006001866000018054905061195f91906129cc565b9050818114611a1a5760008660000182815481106119a6577f4e487b7100000000000000000000000000000000000000000000000000000000600052603260045260246000fd5b90600052602060002001549050808760000184815481106119f0577f4e487b7100000000000000000000000000000000000000000000000000000000600052603260045260246000fd5b90600052602060002001819055508387600101600083815260200190815260200160002081905550505b85600001805480611a54577f4e487b7100000000000000000000000000000000000000000000000000000000600052603160045260246000fd5b600190038181906000526020600020016000905590558560010160008681526020019081526020016000206000905560019350505050611a95565b60009150505b92915050565b600080836001016000848152602001908152602001600020541415905092915050565b6000611ad1611acc846128cf565b61289e565b905082815260208101848484011115611ae957600080fd5b611af4848285612aac565b509392505050565b600081359050611b0b81612c06565b92915050565b600081359050611b2081612c1d565b92915050565b600081359050611b3581612c34565b92915050565b600081359050611b4a81612c4b565b92915050565b60008083601f840112611b6257600080fd5b8235905067ffffffffffffffff811115611b7b57600080fd5b602083019150836001820283011115611b9357600080fd5b9250929050565b600082601f830112611bab57600080fd5b8135611bbb848260208601611abe565b91505092915050565b60008083601f840112611bd657600080fd5b8235905067ffffffffffffffff811115611bef57600080fd5b602083019150836001820283011115611c0757600080fd5b9250929050565b600081359050611c1d81612c62565b92915050565b600081359050611c3281612c79565b92915050565b600060208284031215611c4a57600080fd5b6000611c5884828501611afc565b91505092915050565b60008060008060008060c08789031215611c7a57600080fd5b6000611c8889828a01611afc565b9650506020611c9989828a01611afc565b9550506040611caa89828a01611b3b565b9450506060611cbb89828a01611b11565b9350506080611ccc89828a01611afc565b92505060a0611cdd89828a01611b26565b9150509295509295509295565b600080600080600060808688031215611d0257600080fd5b6000611d1088828901611afc565b9550506020611d2188828901611b3b565b9450506040611d3288828901611afc565b935050606086013567ffffffffffffffff811115611d4f57600080fd5b611d5b88828901611b50565b92509250509295509295909350565b60008060008060008060a08789031215611d8357600080fd5b6000611d9189828a01611afc565b9650506020611da289828a01611b3b565b9550506040611db389828a01611afc565b945050606087013567ffffffffffffffff811115611dd057600080fd5b611ddc89828a01611b50565b93509350506080611def89828a01611afc565b9150509295509295509295565b60008060408385031215611e0f57600080fd5b6000611e1d85828601611afc565b925050602083013567ffffffffffffffff811115611e3a57600080fd5b611e4685828601611b9a565b9150509250929050565b600060208284031215611e6257600080fd5b6000611e7084828501611b26565b91505092915050565b60008060208385031215611e8c57600080fd5b600083013567ffffffffffffffff811115611ea657600080fd5b611eb285828601611bc4565b92509250509250929050565b60008060008060008060008060e0898b031215611eda57600080fd5b6000611ee88b828c01611c0e565b9850506020611ef98b828c01611afc565b9750506040611f0a8b828c01611b3b565b9650506060611f1b8b828c01611afc565b955050608089013567ffffffffffffffff811115611f3857600080fd5b611f448b828c01611b50565b945094505060a0611f578b828c01611afc565b92505060c0611f688b828c01611b11565b9150509295985092959890939650565b60008060008060008060008060e0898b031215611f9457600080fd5b6000611fa28b828c01611c23565b9850506020611fb38b828c01611afc565b9750506040611fc48b828c01611afc565b9650506060611fd58b828c01611b11565b9550506080611fe68b828c01611b26565b94505060a0611ff78b828c01611afc565b93505060c089013567ffffffffffffffff81111561201457600080fd5b6120208b828c01611b50565b92509250509295985092959890939650565b600061203e83836120d5565b60208301905092915050565b61205381612a12565b82525050565b61206281612a00565b82525050565b60006120738261290f565b61207d818561293d565b9350612088836128ff565b8060005b838110156120b95781516120a08882612032565b97506120ab83612930565b92505060018101905061208c565b5085935050505092915050565b6120cf81612a24565b82525050565b6120de81612a30565b82525050565b6120ed81612a30565b82525050565b6120fc81612a3a565b82525050565b600061210e838561294e565b935061211b838584612aac565b61212483612bf5565b840190509392505050565b600061213b838561295f565b9350612148838584612aac565b82840190509392505050565b600061215f8261291a565b612169818561294e565b9350612179818560208601612abb565b61218281612bf5565b840191505092915050565b600061219882612925565b6121a2818561296a565b93506121b2818560208601612abb565b6121bb81612bf5565b840191505092915050565b60006121d182612925565b6121db818561297b565b93506121eb818560208601612abb565b80840191505092915050565b600061220460178361296a565b91507f47656c61746f666965643a204f6e6c792067656c61746f0000000000000000006000830152602082019050919050565b6000612244601b8361296a565b91507f506f6b654d653a20657865633a204e6f207461736b20666f756e6400000000006000830152602082019050919050565b6000612284600f8361297b565b91507f4e6f4572726f7253656c6563746f7200000000000000000000000000000000006000830152600f82019050919050565b60006122c460318361296a565b91507f506f6b654d653a2063616e63656c5461736b3a2053656e64657220646964206e60008301527f6f74207374617274207461736b207965740000000000000000000000000000006020830152604082019050919050565b600061232a60178361296a565b91507f506f6b654d653a20657865633a20546f6f206561726c790000000000000000006000830152602082019050919050565b600061236a602f8361296a565b91507f506f6b654d653a206372656174655461736b3a2053656e64657220616c72656160008301527f64792073746172746564207461736b00000000000000000000000000000000006020830152604082019050919050565b60006123d0602d8361296a565b91507f506f6b654d653a2063726561746554696d65645461736b3a20696e746572766160008301527f6c2063616e6e6f742062652030000000000000000000000000000000000000006020830152604082019050919050565b600061243660148361297b565b91507f556e657870656374656452657475726e646174610000000000000000000000006000830152601482019050919050565b61247281612a66565b82525050565b61248181612aa2565b82525050565b600061249482848661212f565b91508190509392505050565b60006124ac82856121c6565b91506124b882846121c6565b91508190509392505050565b60006124d082846121c6565b91506124db82612277565b915081905092915050565b60006124f282846121c6565b91506124fd82612429565b915081905092915050565b600060208201905061251d6000830184612059565b92915050565b6000602082019050612538600083018461204a565b92915050565b600061012082019050612554600083018d612059565b612561602083018c612059565b61256e604083018b6120f3565b61257b606083018a612059565b61258860808301896120e4565b81810360a083015261259b818789612102565b90506125aa60c08301866120c6565b6125b760e0830185612059565b6125c56101008301846120e4565b9b9a5050505050505050505050565b600060c0820190506125e96000830189612059565b6125f66020830188612059565b61260360408301876120f3565b61261060608301866120c6565b61261d6080830185612059565b61262a60a08301846120e4565b979650505050505050565b600060408201905061264a6000830185612059565b818103602083015261265c8184612154565b90509392505050565b600060608201905061267a6000830186612059565b6126876020830185612478565b6126946040830184612059565b949350505050565b600060208201905081810360008301526126b68184612068565b905092915050565b60006020820190506126d360008301846120e4565b92915050565b60006040820190506126ee60008301856120e4565b6126fb6020830184612059565b9392505050565b600060208201905061271760008301846120f3565b92915050565b60006040820190508181036000830152612738818587612102565b905061274760208301846120e4565b949350505050565b60006020820190508181036000830152612769818461218d565b905092915050565b6000602082019050818103600083015261278a816121f7565b9050919050565b600060208201905081810360008301526127aa81612237565b9050919050565b600060208201905081810360008301526127ca816122b7565b9050919050565b600060208201905081810360008301526127ea8161231d565b9050919050565b6000602082019050818103600083015261280a8161235d565b9050919050565b6000602082019050818103600083015261282a816123c3565b9050919050565b60006040820190506128466000830185612469565b6128536020830184612469565b9392505050565b600060208201905061286f6000830184612478565b92915050565b600060408201905061288a6000830185612478565b6128976020830184612059565b9392505050565b6000604051905081810181811067ffffffffffffffff821117156128c5576128c4612bc6565b5b8060405250919050565b600067ffffffffffffffff8211156128ea576128e9612bc6565b5b601f19601f8301169050602081019050919050565b6000819050602082019050919050565b600081519050919050565b600081519050919050565b600081519050919050565b6000602082019050919050565b600082825260208201905092915050565b600082825260208201905092915050565b600081905092915050565b600082825260208201905092915050565b600081905092915050565b600061299182612a66565b915061299c83612a66565b9250826fffffffffffffffffffffffffffffffff038211156129c1576129c0612b68565b5b828201905092915050565b60006129d782612aa2565b91506129e283612aa2565b9250828210156129f5576129f4612b68565b5b828203905092915050565b6000612a0b82612a82565b9050919050565b6000612a1d82612a82565b9050919050565b60008115159050919050565b6000819050919050565b60007fffffffff0000000000000000000000000000000000000000000000000000000082169050919050565b60006fffffffffffffffffffffffffffffffff82169050919050565b600073ffffffffffffffffffffffffffffffffffffffff82169050919050565b6000819050919050565b82818337600083830152505050565b60005b83811015612ad9578082015181840152602081019050612abe565b83811115612ae8576000848401525b50505050565b6000612af982612aa2565b91507fffffffffffffffffffffffffffffffffffffffffffffffffffffffffffffffff821415612b2c57612b2b612b68565b5b600182019050919050565b6000612b4282612aa2565b9150612b4d83612aa2565b925082612b5d57612b5c612b97565b5b828206905092915050565b7f4e487b7100000000000000000000000000000000000000000000000000000000600052601160045260246000fd5b7f4e487b7100000000000000000000000000000000000000000000000000000000600052601260045260246000fd5b7f4e487b7100000000000000000000000000000000000000000000000000000000600052604160045260246000fd5b6000601f19601f8301169050919050565b612c0f81612a00565b8114612c1a57600080fd5b50565b612c2681612a24565b8114612c3157600080fd5b50565b612c3d81612a30565b8114612c4857600080fd5b50565b612c5481612a3a565b8114612c5f57600080fd5b50565b612c6b81612a66565b8114612c7657600080fd5b50565b612c8281612aa2565b8114612c8d57600080fd5b5056fea264697066735822122023faf34fff5c5bb0ab36ed1be8aeda5a30718b561f1ef38a3214c96f9174304b64736f6c63430008000033",
  "devdoc": {
    "kind": "dev",
    "methods": {
      "cancelTask(bytes32)": {
        "params": {
          "_taskId": "The hash of the task, can be computed using getTaskId()"
        }
      },
      "createTask(address,bytes4,address,bytes)": {
        "details": "Requires funds to be added in Task Treasury, assumes treasury sends fee to Gelato via PokeMe",
        "params": {
          "_execAddress": "On which contract should Gelato execute the transactions",
          "_execSelector": "Which function Gelato should eecute on the _execAddress",
          "_resolverAddress": "On which contract should Gelato check when to execute the tx",
          "_resolverData": "Which data should be used to check on the Resolver when to execute the tx"
        }
      },
      "createTaskNoPrepayment(address,bytes4,address,bytes,address)": {
        "details": "Requires no funds to be added in Task Treasury, assumes tasks sends fee to Gelato directly",
        "params": {
          "_execAddress": "On which contract should Gelato execute the transactions",
          "_execSelector": "Which function Gelato should eecute on the _execAddress",
          "_feeToken": "Which token to use as fee payment",
          "_resolverAddress": "On which contract should Gelato check when to execute the tx",
          "_resolverData": "Which data should be used to check on the Resolver when to execute the tx"
        }
      },
      "exec(uint256,address,address,bool,bytes32,address,bytes)": {
        "params": {
          "_execAddress": "On which contract should Gelato execute the tx",
          "_execData": "Data used to execute the tx, queried from the Resolver by Gelato",
          "_feeToken": "Token used to pay for the execution. ETH = 0xeeeeee...",
          "_taskCreator": "On which contract should Gelato check when to execute the tx",
          "_txFee": "Fee paid to Gelato for execution, deducted on the TaskTreasury",
          "_useTaskTreasuryFunds": "If msg.sender's balance on TaskTreasury should pay for the tx"
        }
      },
      "getResolverHash(address,bytes)": {
        "params": {
          "_resolverAddress": "Address of resolver",
          "_resolverData": "Data passed to resolver"
        }
      },
      "getSelector(string)": {
        "details": "Example: \"transferFrom(address,address,uint256)\" => 0x23b872dd",
        "params": {
          "_func": "String of the function you want the selector from"
        }
      },
      "getTaskId(address,address,bytes4,bool,address,bytes32)": {
        "params": {
          "_execAddress": "Address of the contract to be executed by Gelato",
          "_feeToken": "FeeToken to use, address 0 if task treasury is used",
          "_resolverHash": "hash of resolver address and data",
          "_selector": "Function on the _execAddress which should be executed",
          "_taskCreator": "Address of the task creator",
          "_useTaskTreasuryFunds": "If msg.sender's balance on TaskTreasury should pay for the tx"
        }
      },
      "getTaskIdsByUser(address)": {
        "params": {
          "_taskCreator": "Address who created the task"
        }
      }
    },
    "version": 1
  },
  "userdoc": {
    "kind": "user",
    "methods": {
      "cancelTask(bytes32)": {
        "notice": "Cancel a task so that Gelato can no longer execute it"
      },
      "createTask(address,bytes4,address,bytes)": {
        "notice": "Create a task that tells Gelato to monitor and execute transactions on specific contracts"
      },
      "createTaskNoPrepayment(address,bytes4,address,bytes,address)": {
        "notice": "Create a task that tells Gelato to monitor and execute transactions on specific contracts"
      },
      "exec(uint256,address,address,bool,bytes32,address,bytes)": {
        "notice": "Execution API called by Gelato"
      },
      "getFeeDetails()": {
        "notice": "Helper func to query fee and feeToken"
      },
      "getResolverHash(address,bytes)": {
        "notice": "Helper func to query the resolverHash"
      },
      "getSelector(string)": {
        "notice": "Helper func to query the _selector of a function you want to automate"
      },
      "getTaskId(address,address,bytes4,bool,address,bytes32)": {
        "notice": "Returns TaskId of a task Creator"
      },
      "getTaskIdsByUser(address)": {
        "notice": "Helper func to query all open tasks by a task creator"
      }
    },
    "notice": "PokeMe enables everyone to communicate to Gelato Bots to monitor and execute certain transactionsResolverAddresses determine when Gelato should execute and provides bots with the payload they should use to executeExecAddress determine the actual contracts to execute a function on",
    "version": 1
  },
  "storageLayout": {
    "storage": [
      {
        "astId": 2130,
        "contract": "contracts/PokeMe.sol:PokeMe",
        "label": "taskCreator",
        "offset": 0,
        "slot": "0",
        "type": "t_mapping(t_bytes32,t_address)"
      },
      {
        "astId": 2134,
        "contract": "contracts/PokeMe.sol:PokeMe",
        "label": "execAddresses",
        "offset": 0,
        "slot": "1",
        "type": "t_mapping(t_bytes32,t_address)"
      },
      {
        "astId": 2139,
        "contract": "contracts/PokeMe.sol:PokeMe",
        "label": "_createdTasks",
        "offset": 0,
        "slot": "2",
        "type": "t_mapping(t_address,t_struct(Bytes32Set)1053_storage)"
      },
      {
        "astId": 2143,
        "contract": "contracts/PokeMe.sol:PokeMe",
        "label": "fee",
        "offset": 0,
        "slot": "3",
        "type": "t_uint256"
      },
      {
        "astId": 2145,
        "contract": "contracts/PokeMe.sol:PokeMe",
        "label": "feeToken",
        "offset": 0,
        "slot": "4",
        "type": "t_address"
      },
      {
        "astId": 2150,
        "contract": "contracts/PokeMe.sol:PokeMe",
        "label": "timedTask",
        "offset": 0,
        "slot": "5",
        "type": "t_mapping(t_bytes32,t_struct(Time)2123_storage)"
      }
    ],
    "types": {
      "t_address": {
        "encoding": "inplace",
        "label": "address",
        "numberOfBytes": "20"
      },
      "t_array(t_bytes32)dyn_storage": {
        "base": "t_bytes32",
        "encoding": "dynamic_array",
        "label": "bytes32[]",
        "numberOfBytes": "32"
      },
      "t_bytes32": {
        "encoding": "inplace",
        "label": "bytes32",
        "numberOfBytes": "32"
      },
      "t_mapping(t_address,t_struct(Bytes32Set)1053_storage)": {
        "encoding": "mapping",
        "key": "t_address",
        "label": "mapping(address => struct EnumerableSet.Bytes32Set)",
        "numberOfBytes": "32",
        "value": "t_struct(Bytes32Set)1053_storage"
      },
      "t_mapping(t_bytes32,t_address)": {
        "encoding": "mapping",
        "key": "t_bytes32",
        "label": "mapping(bytes32 => address)",
        "numberOfBytes": "32",
        "value": "t_address"
      },
      "t_mapping(t_bytes32,t_struct(Time)2123_storage)": {
        "encoding": "mapping",
        "key": "t_bytes32",
        "label": "mapping(bytes32 => struct PokeMe.Time)",
        "numberOfBytes": "32",
        "value": "t_struct(Time)2123_storage"
      },
      "t_mapping(t_bytes32,t_uint256)": {
        "encoding": "mapping",
        "key": "t_bytes32",
        "label": "mapping(bytes32 => uint256)",
        "numberOfBytes": "32",
        "value": "t_uint256"
      },
      "t_struct(Bytes32Set)1053_storage": {
        "encoding": "inplace",
        "label": "struct EnumerableSet.Bytes32Set",
        "members": [
          {
            "astId": 1052,
            "contract": "contracts/PokeMe.sol:PokeMe",
            "label": "_inner",
            "offset": 0,
            "slot": "0",
            "type": "t_struct(Set)873_storage"
          }
        ],
        "numberOfBytes": "64"
      },
      "t_struct(Set)873_storage": {
        "encoding": "inplace",
        "label": "struct EnumerableSet.Set",
        "members": [
          {
            "astId": 868,
            "contract": "contracts/PokeMe.sol:PokeMe",
            "label": "_values",
            "offset": 0,
            "slot": "0",
            "type": "t_array(t_bytes32)dyn_storage"
          },
          {
            "astId": 872,
            "contract": "contracts/PokeMe.sol:PokeMe",
            "label": "_indexes",
            "offset": 0,
            "slot": "1",
            "type": "t_mapping(t_bytes32,t_uint256)"
          }
        ],
        "numberOfBytes": "64"
      },
      "t_struct(Time)2123_storage": {
        "encoding": "inplace",
        "label": "struct PokeMe.Time",
        "members": [
          {
            "astId": 2120,
            "contract": "contracts/PokeMe.sol:PokeMe",
            "label": "nextExec",
            "offset": 0,
            "slot": "0",
            "type": "t_uint128"
          },
          {
            "astId": 2122,
            "contract": "contracts/PokeMe.sol:PokeMe",
            "label": "interval",
            "offset": 16,
            "slot": "0",
            "type": "t_uint128"
          }
        ],
        "numberOfBytes": "32"
      },
      "t_uint128": {
        "encoding": "inplace",
        "label": "uint128",
        "numberOfBytes": "16"
      },
      "t_uint256": {
        "encoding": "inplace",
        "label": "uint256",
        "numberOfBytes": "32"
      }
    }
  }
}