{
  "address": "0x6331b6d2A40F1FA0A65CA61f97dfaE8527616C81",
  "abi": [
    {
      "inputs": [
        {
          "internalType": "address payable",
          "name": "_gelato",
          "type": "address"
        },
        {
          "internalType": "address",
          "name": "_taskTreasury",
          "type": "address"
        }
      ],
      "stateMutability": "nonpayable",
      "type": "constructor"
    },
    {
      "anonymous": false,
      "inputs": [
        {
          "indexed": true,
          "internalType": "uint256",
          "name": "txFee",
          "type": "uint256"
        },
        {
          "indexed": true,
          "internalType": "address",
          "name": "feeToken",
          "type": "address"
        },
        {
          "indexed": true,
          "internalType": "address",
          "name": "execAddress",
          "type": "address"
        },
        {
          "indexed": false,
          "internalType": "bytes",
          "name": "execData",
          "type": "bytes"
        }
      ],
      "name": "ExecSuccess",
      "type": "event"
    },
    {
      "anonymous": false,
      "inputs": [
        {
          "indexed": false,
          "internalType": "bytes32",
          "name": "taskId",
          "type": "bytes32"
        }
      ],
      "name": "TaskCancelled",
      "type": "event"
    },
    {
      "anonymous": false,
      "inputs": [
        {
          "indexed": false,
          "internalType": "address",
          "name": "callee",
          "type": "address"
        },
        {
          "indexed": false,
          "internalType": "address",
          "name": "execAddress",
          "type": "address"
        },
        {
          "indexed": false,
          "internalType": "bytes4",
          "name": "selector",
          "type": "bytes4"
        },
        {
          "indexed": false,
          "internalType": "address",
          "name": "resolverAddress",
          "type": "address"
        },
        {
          "indexed": false,
          "internalType": "bytes32",
          "name": "taskId",
          "type": "bytes32"
        },
        {
          "indexed": false,
          "internalType": "bytes",
          "name": "resolverData",
          "type": "bytes"
        }
      ],
      "name": "TaskCreated",
      "type": "event"
    },
    {
      "inputs": [
        {
          "internalType": "address",
          "name": "",
          "type": "address"
        },
        {
          "internalType": "address",
          "name": "",
          "type": "address"
        }
      ],
      "name": "balanceOfCallee",
      "outputs": [
        {
          "internalType": "uint256",
          "name": "",
          "type": "uint256"
        }
      ],
      "stateMutability": "view",
      "type": "function"
    },
    {
      "inputs": [
        {
          "internalType": "bytes32",
          "name": "",
          "type": "bytes32"
        }
      ],
      "name": "calleeOfTask",
      "outputs": [
        {
          "internalType": "address",
          "name": "",
          "type": "address"
        }
      ],
      "stateMutability": "view",
      "type": "function"
    },
    {
      "inputs": [
        {
          "internalType": "bytes32",
          "name": "_task",
          "type": "bytes32"
        }
      ],
      "name": "cancelTask",
      "outputs": [],
      "stateMutability": "nonpayable",
      "type": "function"
    },
    {
      "inputs": [
        {
          "internalType": "address",
          "name": "_execAddress",
          "type": "address"
        },
        {
          "internalType": "bytes4",
          "name": "_execSelector",
          "type": "bytes4"
        },
        {
          "internalType": "address",
          "name": "_resolverAddress",
          "type": "address"
        },
        {
          "internalType": "bytes",
          "name": "_resolverData",
          "type": "bytes"
        }
      ],
      "name": "createTask",
      "outputs": [],
      "stateMutability": "nonpayable",
      "type": "function"
    },
    {
      "inputs": [
        {
          "internalType": "uint256",
          "name": "_txFee",
          "type": "uint256"
        },
        {
          "internalType": "address",
          "name": "_feeToken",
          "type": "address"
        },
        {
          "internalType": "address",
          "name": "_callee",
          "type": "address"
        },
        {
          "internalType": "address",
          "name": "_execAddress",
          "type": "address"
        },
        {
          "internalType": "bytes",
          "name": "_execData",
          "type": "bytes"
        }
      ],
      "name": "exec",
      "outputs": [],
      "stateMutability": "nonpayable",
      "type": "function"
    },
    {
      "inputs": [
        {
          "internalType": "bytes32",
          "name": "",
          "type": "bytes32"
        }
      ],
      "name": "execAddresses",
      "outputs": [
        {
          "internalType": "address",
          "name": "",
          "type": "address"
        }
      ],
      "stateMutability": "view",
      "type": "function"
    },
    {
      "inputs": [],
      "name": "gelato",
      "outputs": [
        {
          "internalType": "address payable",
          "name": "",
          "type": "address"
        }
      ],
      "stateMutability": "view",
      "type": "function"
    },
    {
      "inputs": [
        {
          "internalType": "string",
          "name": "_func",
          "type": "string"
        }
      ],
      "name": "getSelector",
      "outputs": [
        {
          "internalType": "bytes4",
          "name": "",
          "type": "bytes4"
        }
      ],
      "stateMutability": "pure",
      "type": "function"
    },
    {
      "inputs": [
        {
          "internalType": "address",
          "name": "_callee",
          "type": "address"
        },
        {
          "internalType": "address",
          "name": "_execAddress",
          "type": "address"
        },
        {
          "internalType": "bytes4",
          "name": "_selector",
          "type": "bytes4"
        }
      ],
      "name": "getTaskId",
      "outputs": [
        {
          "internalType": "bytes32",
          "name": "",
          "type": "bytes32"
        }
      ],
      "stateMutability": "pure",
      "type": "function"
    },
    {
      "inputs": [
        {
          "internalType": "address",
          "name": "_callee",
          "type": "address"
        }
      ],
      "name": "getTaskIdsByUser",
      "outputs": [
        {
          "internalType": "bytes32[]",
          "name": "",
          "type": "bytes32[]"
        }
      ],
      "stateMutability": "view",
      "type": "function"
    },
    {
      "inputs": [],
      "name": "taskTreasury",
      "outputs": [
        {
          "internalType": "address",
          "name": "",
          "type": "address"
        }
      ],
      "stateMutability": "view",
      "type": "function"
    },
    {
      "inputs": [],
      "name": "version",
      "outputs": [
        {
          "internalType": "string",
          "name": "",
          "type": "string"
        }
      ],
      "stateMutability": "view",
      "type": "function"
    }
  ],
  "transactionHash": "0x2708a4ae3fb14642022bb695c202144246080d49ad4cff80da1b496eaf6e8c57",
  "args": [
    "0xCc4CcD69D31F9FfDBD3BFfDe49c6aA886DaB98d9",
    "0x7315478b45D9801826C819202fc8B2db55e41504"
  ],
  "solcInputHash": "4f969e9a70bc313f30c7e3719b021258",
  "bytecode": "0x60c06040523480156200001157600080fd5b5060405162001daf38038062001daf8339818101604052810190620000379190620000dd565b818073ffffffffffffffffffffffffffffffffffffffff1660808173ffffffffffffffffffffffffffffffffffffffff1660601b81525050508073ffffffffffffffffffffffffffffffffffffffff1660a08173ffffffffffffffffffffffffffffffffffffffff1660601b8152505050506200019a565b600081519050620000c08162000166565b92915050565b600081519050620000d78162000180565b92915050565b60008060408385031215620000f157600080fd5b60006200010185828601620000c6565b92505060206200011485828601620000af565b9150509250929050565b60006200012b8262000146565b9050919050565b60006200013f8262000146565b9050919050565b600073ffffffffffffffffffffffffffffffffffffffff82169050919050565b62000171816200011e565b81146200017d57600080fd5b50565b6200018b8162000132565b81146200019757600080fd5b50565b60805160601c60a05160601c611bdb620001d4600039600081816106270152610a3401526000818161042d01526107980152611bdb6000f3fe608060405234801561001057600080fd5b50600436106100b45760003560e01c8063618472271161007157806361847227146101a15780636d2dd29f146101d157806380a003ff146102015780638b92696a14610231578063e60a32131461024d578063ee8ca3b51461026b576100b4565b80630407145c146100b9578063215a43ca146100e957806347e283d81461011957806352e0ac5e1461013557806354fd4d5014610165578063573ea57514610183575b600080fd5b6100d360048036038101906100ce91906111ba565b610287565b6040516100e091906117fc565b60405180910390f35b61010360048036038101906100fe91906111e3565b610406565b604051610110919061193a565b60405180910390f35b610133600480360381019061012e919061135c565b61042b565b005b61014f600480360381019061014a919061121f565b610727565b60405161015c919061181e565b60405180910390f35b61016d61075d565b60405161017a9190611878565b60405180910390f35b61018b610796565b6040516101989190611709565b60405180910390f35b6101bb60048036038101906101b691906112ee565b6107ba565b6040516101c891906116ee565b60405180910390f35b6101eb60048036038101906101e691906112ee565b6107ed565b6040516101f891906116ee565b60405180910390f35b61021b60048036038101906102169190611317565b610820565b6040516102289190611839565b60405180910390f35b61024b6004803603810190610246919061126e565b610842565b005b610255610a32565b60405161026291906116ee565b60405180910390f35b610285600480360381019061028091906112ee565b610a56565b005b606060006102d2600360008573ffffffffffffffffffffffffffffffffffffffff1673ffffffffffffffffffffffffffffffffffffffff168152602001908152602001600020610bef565b905060008167ffffffffffffffff811115610316577f4e487b7100000000000000000000000000000000000000000000000000000000600052604160045260246000fd5b6040519080825280602002602001820160405280156103445781602001602082028036833780820191505090505b50905060005b828110156103fb576103a381600360008873ffffffffffffffffffffffffffffffffffffffff1673ffffffffffffffffffffffffffffffffffffffff168152602001908152602001600020610c0490919063ffffffff16565b8282815181106103dc577f4e487b7100000000000000000000000000000000000000000000000000000000600052603260045260246000fd5b60200260200101818152505080806103f390611ac0565b91505061034a565b508092505050919050565b6002602052816000526040600020602052806000526040600020600091509150505481565b7f000000000000000000000000000000000000000000000000000000000000000073ffffffffffffffffffffffffffffffffffffffff163373ffffffffffffffffffffffffffffffffffffffff16146104b9576040517f08c379a00000000000000000000000000000000000000000000000000000000081526004016104b09061189a565b60405180910390fd5b60006104cf85856104ca8686610c1b565b610727565b9050600080600083815260200190815260200160002060009054906101000a900473ffffffffffffffffffffffffffffffffffffffff1690508573ffffffffffffffffffffffffffffffffffffffff168173ffffffffffffffffffffffffffffffffffffffff1614610576576040517f08c379a000000000000000000000000000000000000000000000000000000000815260040161056d906118ba565b60405180910390fd5b60008573ffffffffffffffffffffffffffffffffffffffff16858560405161059f9291906116d5565b6000604051808303816000865af19150503d80600081146105dc576040519150601f19603f3d011682016040523d82523d6000602084013e6105e1565b606091505b5050905080610625576040517f08c379a000000000000000000000000000000000000000000000000000000000815260040161061c906118da565b60405180910390fd5b7f000000000000000000000000000000000000000000000000000000000000000073ffffffffffffffffffffffffffffffffffffffff16636f192acc898b856040518463ffffffff1660e01b8152600401610682939291906117c5565b600060405180830381600087803b15801561069c57600080fd5b505af11580156106b0573d6000803e3d6000fd5b505050508573ffffffffffffffffffffffffffffffffffffffff168873ffffffffffffffffffffffffffffffffffffffff168a7f66a4a8f38001cd244b1836cb610e638d1cea110cf51ab035c6dc9d1c0264f83a8888604051610714929190611854565b60405180910390a4505050505050505050565b600083838360405160200161073e93929190611724565b6040516020818303038152906040528051906020012090509392505050565b6040518060400160405280600181526020017f320000000000000000000000000000000000000000000000000000000000000081525081565b7f000000000000000000000000000000000000000000000000000000000000000081565b60006020528060005260406000206000915054906101000a900473ffffffffffffffffffffffffffffffffffffffff1681565b60016020528060005260406000206000915054906101000a900473ffffffffffffffffffffffffffffffffffffffff1681565b600082826040516108329291906116d5565b6040518091039020905092915050565b600061084f338787610727565b9050600073ffffffffffffffffffffffffffffffffffffffff1660008083815260200190815260200160002060009054906101000a900473ffffffffffffffffffffffffffffffffffffffff1673ffffffffffffffffffffffffffffffffffffffff16146108f2576040517f08c379a00000000000000000000000000000000000000000000000000000000081526004016108e99061191a565b60405180910390fd5b61094381600360003373ffffffffffffffffffffffffffffffffffffffff1673ffffffffffffffffffffffffffffffffffffffff168152602001908152602001600020610e2990919063ffffffff16565b503360008083815260200190815260200160002060006101000a81548173ffffffffffffffffffffffffffffffffffffffff021916908373ffffffffffffffffffffffffffffffffffffffff160217905550856001600083815260200190815260200160002060006101000a81548173ffffffffffffffffffffffffffffffffffffffff021916908373ffffffffffffffffffffffffffffffffffffffff1602179055507f9d59214787f3824da2b165425d040688cd7dc25a540e26c05200d2b92c248bf933878787858888604051610a22979695949392919061175b565b60405180910390a1505050505050565b7f000000000000000000000000000000000000000000000000000000000000000081565b600073ffffffffffffffffffffffffffffffffffffffff1660008083815260200190815260200160002060009054906101000a900473ffffffffffffffffffffffffffffffffffffffff1673ffffffffffffffffffffffffffffffffffffffff161415610af8576040517f08c379a0000000000000000000000000000000000000000000000000000000008152600401610aef906118fa565b60405180910390fd5b610b4981600360003373ffffffffffffffffffffffffffffffffffffffff1673ffffffffffffffffffffffffffffffffffffffff168152602001908152602001600020610e4090919063ffffffff16565b5060008082815260200190815260200160002060006101000a81549073ffffffffffffffffffffffffffffffffffffffff02191690556001600082815260200190815260200160002060006101000a81549073ffffffffffffffffffffffffffffffffffffffff02191690557fe1e1d79b8f28d3379fc32f617eaf54dd6bd4071074c77e91134770e04a81d62681604051610be4919061181e565b60405180910390a150565b6000610bfd82600001610e57565b9050919050565b6000610c138360000183610e68565b905092915050565b6000601883836003818110610c59577f4e487b7100000000000000000000000000000000000000000000000000000000600052603260045260246000fd5b9050013560f81c60f81b7effffffffffffffffffffffffffffffffffffffffffffffffffffffffffffff19167bffffffffffffffffffffffffffffffffffffffffffffffffffffffff1916901c601084846002818110610ce2577f4e487b7100000000000000000000000000000000000000000000000000000000600052603260045260246000fd5b9050013560f81c60f81b7effffffffffffffffffffffffffffffffffffffffffffffffffffffffffffff19167bffffffffffffffffffffffffffffffffffffffffffffffffffffffff1916901c600885856001818110610d6b577f4e487b7100000000000000000000000000000000000000000000000000000000600052603260045260246000fd5b9050013560f81c60f81b7effffffffffffffffffffffffffffffffffffffffffffffffffffffffffffff19167bffffffffffffffffffffffffffffffffffffffffffffffffffffffff1916901c85856000818110610df2577f4e487b7100000000000000000000000000000000000000000000000000000000600052603260045260246000fd5b9050013560f81c60f81b7effffffffffffffffffffffffffffffffffffffffffffffffffffffffffffff1916171717905092915050565b6000610e388360000183610eb9565b905092915050565b6000610e4f8360000183610f29565b905092915050565b600081600001805490509050919050565b6000826000018281548110610ea6577f4e487b7100000000000000000000000000000000000000000000000000000000600052603260045260246000fd5b9060005260206000200154905092915050565b6000610ec583836110af565b610f1e578260000182908060018154018082558091505060019003906000526020600020016000909190919091505582600001805490508360010160008481526020019081526020016000208190555060019050610f23565b600090505b92915050565b600080836001016000848152602001908152602001600020549050600081146110a3576000600182610f5b91906119c6565b9050600060018660000180549050610f7391906119c6565b905081811461102e576000866000018281548110610fba577f4e487b7100000000000000000000000000000000000000000000000000000000600052603260045260246000fd5b9060005260206000200154905080876000018481548110611004577f4e487b7100000000000000000000000000000000000000000000000000000000600052603260045260246000fd5b90600052602060002001819055508387600101600083815260200190815260200160002081905550505b85600001805480611068577f4e487b7100000000000000000000000000000000000000000000000000000000600052603160045260246000fd5b6001900381819060005260206000200160009055905585600101600086815260200190815260200160002060009055600193505050506110a9565b60009150505b92915050565b600080836001016000848152602001908152602001600020541415905092915050565b6000813590506110e181611b49565b92915050565b6000813590506110f681611b60565b92915050565b60008135905061110b81611b77565b92915050565b60008083601f84011261112357600080fd5b8235905067ffffffffffffffff81111561113c57600080fd5b60208301915083600182028301111561115457600080fd5b9250929050565b60008083601f84011261116d57600080fd5b8235905067ffffffffffffffff81111561118657600080fd5b60208301915083600182028301111561119e57600080fd5b9250929050565b6000813590506111b481611b8e565b92915050565b6000602082840312156111cc57600080fd5b60006111da848285016110d2565b91505092915050565b600080604083850312156111f657600080fd5b6000611204858286016110d2565b9250506020611215858286016110d2565b9150509250929050565b60008060006060848603121561123457600080fd5b6000611242868287016110d2565b9350506020611253868287016110d2565b9250506040611264868287016110fc565b9150509250925092565b60008060008060006080868803121561128657600080fd5b6000611294888289016110d2565b95505060206112a5888289016110fc565b94505060406112b6888289016110d2565b935050606086013567ffffffffffffffff8111156112d357600080fd5b6112df88828901611111565b92509250509295509295909350565b60006020828403121561130057600080fd5b600061130e848285016110e7565b91505092915050565b6000806020838503121561132a57600080fd5b600083013567ffffffffffffffff81111561134457600080fd5b6113508582860161115b565b92509250509250929050565b60008060008060008060a0878903121561137557600080fd5b600061138389828a016111a5565b965050602061139489828a016110d2565b95505060406113a589828a016110d2565b94505060606113b689828a016110d2565b935050608087013567ffffffffffffffff8111156113d357600080fd5b6113df89828a01611111565b92509250509295509295509295565b60006113fa8383611482565b60208301905092915050565b61140f81611a0c565b82525050565b61141e816119fa565b82525050565b600061142f82611965565b6114398185611988565b935061144483611955565b8060005b8381101561147557815161145c88826113ee565b97506114678361197b565b925050600181019050611448565b5085935050505092915050565b61148b81611a1e565b82525050565b61149a81611a1e565b82525050565b6114a981611a28565b82525050565b60006114bb8385611999565b93506114c8838584611a7e565b6114d183611b38565b840190509392505050565b60006114e883856119aa565b93506114f5838584611a7e565b82840190509392505050565b600061150c82611970565b61151681856119b5565b9350611526818560208601611a8d565b61152f81611b38565b840191505092915050565b60006115476017836119b5565b91507f47656c61746f666965643a204f6e6c792067656c61746f0000000000000000006000830152602082019050919050565b6000611587601b836119b5565b91507f506f6b654d653a20657865633a204e6f207461736b20666f756e6400000000006000830152602082019050919050565b60006115c7601e836119b5565b91507f506f6b654d653a20657865633a20457865637574696f6e206661696c656400006000830152602082019050919050565b60006116076031836119b5565b91507f506f6b654d653a2063616e63656c5461736b3a2053656e64657220646964206e60008301527f6f74207374617274207461736b207965740000000000000000000000000000006020830152604082019050919050565b600061166d602f836119b5565b91507f506f6b654d653a206372656174655461736b3a2053656e64657220616c72656160008301527f64792073746172746564207461736b00000000000000000000000000000000006020830152604082019050919050565b6116cf81611a74565b82525050565b60006116e28284866114dc565b91508190509392505050565b60006020820190506117036000830184611415565b92915050565b600060208201905061171e6000830184611406565b92915050565b60006060820190506117396000830186611415565b6117466020830185611415565b61175360408301846114a0565b949350505050565b600060c082019050611770600083018a611415565b61177d6020830189611415565b61178a60408301886114a0565b6117976060830187611415565b6117a46080830186611491565b81810360a08301526117b78184866114af565b905098975050505050505050565b60006060820190506117da6000830186611415565b6117e760208301856116c6565b6117f46040830184611415565b949350505050565b600060208201905081810360008301526118168184611424565b905092915050565b60006020820190506118336000830184611491565b92915050565b600060208201905061184e60008301846114a0565b92915050565b6000602082019050818103600083015261186f8184866114af565b90509392505050565b600060208201905081810360008301526118928184611501565b905092915050565b600060208201905081810360008301526118b38161153a565b9050919050565b600060208201905081810360008301526118d38161157a565b9050919050565b600060208201905081810360008301526118f3816115ba565b9050919050565b60006020820190508181036000830152611913816115fa565b9050919050565b6000602082019050818103600083015261193381611660565b9050919050565b600060208201905061194f60008301846116c6565b92915050565b6000819050602082019050919050565b600081519050919050565b600081519050919050565b6000602082019050919050565b600082825260208201905092915050565b600082825260208201905092915050565b600081905092915050565b600082825260208201905092915050565b60006119d182611a74565b91506119dc83611a74565b9250828210156119ef576119ee611b09565b5b828203905092915050565b6000611a0582611a54565b9050919050565b6000611a1782611a54565b9050919050565b6000819050919050565b60007fffffffff0000000000000000000000000000000000000000000000000000000082169050919050565b600073ffffffffffffffffffffffffffffffffffffffff82169050919050565b6000819050919050565b82818337600083830152505050565b60005b83811015611aab578082015181840152602081019050611a90565b83811115611aba576000848401525b50505050565b6000611acb82611a74565b91507fffffffffffffffffffffffffffffffffffffffffffffffffffffffffffffffff821415611afe57611afd611b09565b5b600182019050919050565b7f4e487b7100000000000000000000000000000000000000000000000000000000600052601160045260246000fd5b6000601f19601f8301169050919050565b611b52816119fa565b8114611b5d57600080fd5b50565b611b6981611a1e565b8114611b7457600080fd5b50565b611b8081611a28565b8114611b8b57600080fd5b50565b611b9781611a74565b8114611ba257600080fd5b5056fea264697066735822122017d179e7c503b3c8587ae3115acb0fc56e2f40ac01f733fb3bc5b54db39a7a1c64736f6c63430008000033",
  "devdoc": {
    "kind": "dev",
    "methods": {
      "getSelector(string)": {
        "details": "Example: \"transferFrom(address,address,uint256)\" => 0x23b872dd"
      }
    },
    "version": 1
  },
  "userdoc": {
    "kind": "user",
    "methods": {},
    "version": 1
  },
  "storageLayout": {
    "storage": [
      {
        "astId": 2309,
        "contract": "contracts/PokeMe2.sol:PokeMe2",
        "label": "calleeOfTask",
        "offset": 0,
        "slot": "0",
        "type": "t_mapping(t_bytes32,t_address)"
      },
      {
        "astId": 2313,
        "contract": "contracts/PokeMe2.sol:PokeMe2",
        "label": "execAddresses",
        "offset": 0,
        "slot": "1",
        "type": "t_mapping(t_bytes32,t_address)"
      },
      {
        "astId": 2319,
        "contract": "contracts/PokeMe2.sol:PokeMe2",
        "label": "balanceOfCallee",
        "offset": 0,
        "slot": "2",
        "type": "t_mapping(t_address,t_mapping(t_address,t_uint256))"
      },
      {
        "astId": 2324,
        "contract": "contracts/PokeMe2.sol:PokeMe2",
        "label": "_createdTasks",
        "offset": 0,
        "slot": "3",
        "type": "t_mapping(t_address,t_struct(Bytes32Set)1365_storage)"
      }
    ],
    "types": {
      "t_address": {
        "encoding": "inplace",
        "label": "address",
        "numberOfBytes": "20"
      },
      "t_array(t_bytes32)dyn_storage": {
        "base": "t_bytes32",
        "encoding": "dynamic_array",
        "label": "bytes32[]",
        "numberOfBytes": "32"
      },
      "t_bytes32": {
        "encoding": "inplace",
        "label": "bytes32",
        "numberOfBytes": "32"
      },
      "t_mapping(t_address,t_mapping(t_address,t_uint256))": {
        "encoding": "mapping",
        "key": "t_address",
        "label": "mapping(address => mapping(address => uint256))",
        "numberOfBytes": "32",
        "value": "t_mapping(t_address,t_uint256)"
      },
      "t_mapping(t_address,t_struct(Bytes32Set)1365_storage)": {
        "encoding": "mapping",
        "key": "t_address",
        "label": "mapping(address => struct EnumerableSet.Bytes32Set)",
        "numberOfBytes": "32",
        "value": "t_struct(Bytes32Set)1365_storage"
      },
      "t_mapping(t_address,t_uint256)": {
        "encoding": "mapping",
        "key": "t_address",
        "label": "mapping(address => uint256)",
        "numberOfBytes": "32",
        "value": "t_uint256"
      },
      "t_mapping(t_bytes32,t_address)": {
        "encoding": "mapping",
        "key": "t_bytes32",
        "label": "mapping(bytes32 => address)",
        "numberOfBytes": "32",
        "value": "t_address"
      },
      "t_mapping(t_bytes32,t_uint256)": {
        "encoding": "mapping",
        "key": "t_bytes32",
        "label": "mapping(bytes32 => uint256)",
        "numberOfBytes": "32",
        "value": "t_uint256"
      },
      "t_struct(Bytes32Set)1365_storage": {
        "encoding": "inplace",
        "label": "struct EnumerableSet.Bytes32Set",
        "members": [
          {
            "astId": 1364,
            "contract": "contracts/PokeMe2.sol:PokeMe2",
            "label": "_inner",
            "offset": 0,
            "slot": "0",
            "type": "t_struct(Set)1185_storage"
          }
        ],
        "numberOfBytes": "64"
      },
      "t_struct(Set)1185_storage": {
        "encoding": "inplace",
        "label": "struct EnumerableSet.Set",
        "members": [
          {
            "astId": 1180,
            "contract": "contracts/PokeMe2.sol:PokeMe2",
            "label": "_values",
            "offset": 0,
            "slot": "0",
            "type": "t_array(t_bytes32)dyn_storage"
          },
          {
            "astId": 1184,
            "contract": "contracts/PokeMe2.sol:PokeMe2",
            "label": "_indexes",
            "offset": 0,
            "slot": "1",
            "type": "t_mapping(t_bytes32,t_uint256)"
          }
        ],
        "numberOfBytes": "64"
      },
      "t_uint256": {
        "encoding": "inplace",
        "label": "uint256",
        "numberOfBytes": "32"
      }
    }
  }
}