{
  "address": "0x42c4411424cf68e0104AD2E035ed8bA29c4F9a7D",
  "abi": [
    {
      "inputs": [
        {
          "internalType": "address payable",
          "name": "_gelato",
          "type": "address"
        },
        {
          "internalType": "address",
          "name": "_taskTreasury",
          "type": "address"
        }
      ],
      "stateMutability": "nonpayable",
      "type": "constructor"
    },
    {
      "anonymous": false,
      "inputs": [
        {
          "indexed": true,
          "internalType": "uint256",
          "name": "txFee",
          "type": "uint256"
        },
        {
          "indexed": true,
          "internalType": "address",
          "name": "feeToken",
          "type": "address"
        },
        {
          "indexed": true,
          "internalType": "address",
          "name": "execAddress",
          "type": "address"
        },
        {
          "indexed": false,
          "internalType": "bytes",
          "name": "execData",
          "type": "bytes"
        },
        {
          "indexed": false,
          "internalType": "bytes32",
          "name": "taskId",
          "type": "bytes32"
        }
      ],
      "name": "ExecSuccess",
      "type": "event"
    },
    {
      "anonymous": false,
      "inputs": [
        {
          "indexed": false,
          "internalType": "bytes32",
          "name": "taskId",
          "type": "bytes32"
        },
        {
          "indexed": false,
          "internalType": "address",
          "name": "taskCreator",
          "type": "address"
        }
      ],
      "name": "TaskCancelled",
      "type": "event"
    },
    {
      "anonymous": false,
      "inputs": [
        {
          "indexed": false,
          "internalType": "address",
          "name": "taskCreator",
          "type": "address"
        },
        {
          "indexed": false,
          "internalType": "address",
          "name": "execAddress",
          "type": "address"
        },
        {
          "indexed": false,
          "internalType": "bytes4",
          "name": "selector",
          "type": "bytes4"
        },
        {
          "indexed": false,
          "internalType": "address",
          "name": "resolverAddress",
          "type": "address"
        },
        {
          "indexed": false,
          "internalType": "bytes32",
          "name": "taskId",
          "type": "bytes32"
        },
        {
          "indexed": false,
          "internalType": "bytes",
          "name": "resolverData",
          "type": "bytes"
        },
        {
          "indexed": false,
          "internalType": "bool",
          "name": "useTaskTreasuryFunds",
          "type": "bool"
        },
        {
          "indexed": false,
          "internalType": "address",
          "name": "feeToken",
          "type": "address"
        },
        {
          "indexed": false,
          "internalType": "bytes32",
          "name": "resolverHash",
          "type": "bytes32"
        }
      ],
      "name": "TaskCreated",
      "type": "event"
    },
    {
      "inputs": [
        {
          "internalType": "bytes32",
          "name": "_taskId",
          "type": "bytes32"
        }
      ],
      "name": "cancelTask",
      "outputs": [],
      "stateMutability": "nonpayable",
      "type": "function"
    },
    {
      "inputs": [
        {
          "internalType": "address",
          "name": "_execAddress",
          "type": "address"
        },
        {
          "internalType": "bytes4",
          "name": "_execSelector",
          "type": "bytes4"
        },
        {
          "internalType": "address",
          "name": "_resolverAddress",
          "type": "address"
        },
        {
          "internalType": "bytes",
          "name": "_resolverData",
          "type": "bytes"
        }
      ],
      "name": "createTask",
      "outputs": [
        {
          "internalType": "bytes32",
          "name": "task",
          "type": "bytes32"
        }
      ],
      "stateMutability": "nonpayable",
      "type": "function"
    },
    {
      "inputs": [
        {
          "internalType": "address",
          "name": "_execAddress",
          "type": "address"
        },
        {
          "internalType": "bytes4",
          "name": "_execSelector",
          "type": "bytes4"
        },
        {
          "internalType": "address",
          "name": "_resolverAddress",
          "type": "address"
        },
        {
          "internalType": "bytes",
          "name": "_resolverData",
          "type": "bytes"
        },
        {
          "internalType": "address",
          "name": "_feeToken",
          "type": "address"
        }
      ],
      "name": "createTaskNoPrepayment",
      "outputs": [
        {
          "internalType": "bytes32",
          "name": "task",
          "type": "bytes32"
        }
      ],
      "stateMutability": "nonpayable",
      "type": "function"
    },
    {
      "inputs": [
        {
          "internalType": "uint256",
          "name": "_txFee",
          "type": "uint256"
        },
        {
          "internalType": "address",
          "name": "_feeToken",
          "type": "address"
        },
        {
          "internalType": "address",
          "name": "_taskCreator",
          "type": "address"
        },
        {
          "internalType": "bool",
          "name": "_useTaskTreasuryFunds",
          "type": "bool"
        },
        {
          "internalType": "bytes32",
          "name": "_resolverHash",
          "type": "bytes32"
        },
        {
          "internalType": "address",
          "name": "_execAddress",
          "type": "address"
        },
        {
          "internalType": "bytes",
          "name": "_execData",
          "type": "bytes"
        }
      ],
      "name": "exec",
      "outputs": [],
      "stateMutability": "nonpayable",
      "type": "function"
    },
    {
      "inputs": [
        {
          "internalType": "bytes32",
          "name": "",
          "type": "bytes32"
        }
      ],
      "name": "execAddresses",
      "outputs": [
        {
          "internalType": "address",
          "name": "",
          "type": "address"
        }
      ],
      "stateMutability": "view",
      "type": "function"
    },
    {
      "inputs": [],
      "name": "fee",
      "outputs": [
        {
          "internalType": "uint256",
          "name": "",
          "type": "uint256"
        }
      ],
      "stateMutability": "view",
      "type": "function"
    },
    {
      "inputs": [],
      "name": "feeToken",
      "outputs": [
        {
          "internalType": "address",
          "name": "",
          "type": "address"
        }
      ],
      "stateMutability": "view",
      "type": "function"
    },
    {
      "inputs": [],
      "name": "gelato",
      "outputs": [
        {
          "internalType": "address payable",
          "name": "",
          "type": "address"
        }
      ],
      "stateMutability": "view",
      "type": "function"
    },
    {
      "inputs": [],
      "name": "getFeeDetails",
      "outputs": [
        {
          "internalType": "uint256",
          "name": "",
          "type": "uint256"
        },
        {
          "internalType": "address",
          "name": "",
          "type": "address"
        }
      ],
      "stateMutability": "view",
      "type": "function"
    },
    {
      "inputs": [
        {
          "internalType": "address",
          "name": "_resolverAddress",
          "type": "address"
        },
        {
          "internalType": "bytes",
          "name": "_resolverData",
          "type": "bytes"
        }
      ],
      "name": "getResolverHash",
      "outputs": [
        {
          "internalType": "bytes32",
          "name": "",
          "type": "bytes32"
        }
      ],
      "stateMutability": "pure",
      "type": "function"
    },
    {
      "inputs": [
        {
          "internalType": "string",
          "name": "_func",
          "type": "string"
        }
      ],
      "name": "getSelector",
      "outputs": [
        {
          "internalType": "bytes4",
          "name": "",
          "type": "bytes4"
        }
      ],
      "stateMutability": "pure",
      "type": "function"
    },
    {
      "inputs": [
        {
          "internalType": "address",
          "name": "_taskCreator",
          "type": "address"
        },
        {
          "internalType": "address",
          "name": "_execAddress",
          "type": "address"
        },
        {
          "internalType": "bytes4",
          "name": "_selector",
          "type": "bytes4"
        },
        {
          "internalType": "bool",
          "name": "_useTaskTreasuryFunds",
          "type": "bool"
        },
        {
          "internalType": "address",
          "name": "_feeToken",
          "type": "address"
        },
        {
          "internalType": "bytes32",
          "name": "_resolverHash",
          "type": "bytes32"
        }
      ],
      "name": "getTaskId",
      "outputs": [
        {
          "internalType": "bytes32",
          "name": "",
          "type": "bytes32"
        }
      ],
      "stateMutability": "pure",
      "type": "function"
    },
    {
      "inputs": [
        {
          "internalType": "address",
          "name": "_taskCreator",
          "type": "address"
        }
      ],
      "name": "getTaskIdsByUser",
      "outputs": [
        {
          "internalType": "bytes32[]",
          "name": "",
          "type": "bytes32[]"
        }
      ],
      "stateMutability": "view",
      "type": "function"
    },
    {
      "inputs": [
        {
          "internalType": "bytes32",
          "name": "",
          "type": "bytes32"
        }
      ],
      "name": "taskCreator",
      "outputs": [
        {
          "internalType": "address",
          "name": "",
          "type": "address"
        }
      ],
      "stateMutability": "view",
      "type": "function"
    },
    {
      "inputs": [],
      "name": "taskTreasury",
      "outputs": [
        {
          "internalType": "address",
          "name": "",
          "type": "address"
        }
      ],
      "stateMutability": "view",
      "type": "function"
    },
    {
      "inputs": [],
      "name": "version",
      "outputs": [
        {
          "internalType": "string",
          "name": "",
          "type": "string"
        }
      ],
      "stateMutability": "view",
      "type": "function"
    }
  ],
  "transactionHash": "0x0a3c9d3485d3b4db43b64bf258d423ca621f4bbdc69c2585d381caab2ba47236",
  "args": [
    "0xCc4CcD69D31F9FfDBD3BFfDe49c6aA886DaB98d9",
    "0x2705aCca70CdB3E326C1013eEA2c03A4f2935b66"
  ],
  "solcInputHash": "2dca846cb2d1ddb0b0cd5834c48c390c",
  "bytecode": "0x60c06040523480156200001157600080fd5b5060405162002863380380620028638339818101604052810190620000379190620000dd565b818073ffffffffffffffffffffffffffffffffffffffff1660808173ffffffffffffffffffffffffffffffffffffffff1660601b81525050508073ffffffffffffffffffffffffffffffffffffffff1660a08173ffffffffffffffffffffffffffffffffffffffff1660601b8152505050506200019a565b600081519050620000c08162000166565b92915050565b600081519050620000d78162000180565b92915050565b60008060408385031215620000f157600080fd5b60006200010185828601620000c6565b92505060206200011485828601620000af565b9150509250929050565b60006200012b8262000146565b9050919050565b60006200013f8262000146565b9050919050565b600073ffffffffffffffffffffffffffffffffffffffff82169050919050565b62000171816200011e565b81146200017d57600080fd5b50565b6200018b8162000132565b81146200019757600080fd5b50565b60805160601c60a05160601c61268f620001d460003960008181610af60152610ee601526000818161055f015261088d015261268f6000f3fe608060405234801561001057600080fd5b50600436106101005760003560e01c80638b92696a11610097578063cabcb34911610066578063cabcb349146102ea578063ddca3f431461031a578063e60a321314610338578063ee8ca3b51461035657610100565b80638b92696a1461024f5780638e8b52791461027f578063b810c6361461029b578063b9f45adb146102ba57610100565b8063647846a5116100d3578063647846a5146101a15780636d2dd29f146101bf5780637b4e45e9146101ef57806380a003ff1461021f57610100565b80630407145c146101055780632e6e0bd01461013557806354fd4d5014610165578063573ea57514610183575b600080fd5b61011f600480360381019061011a9190611852565b610372565b60405161012c9190612147565b60405180910390f35b61014f600480360381019061014a9190611a6a565b6104f1565b60405161015c9190611fb3565b60405180910390f35b61016d610524565b60405161017a91906121fa565b60405180910390f35b61018b61055d565b6040516101989190611fce565b60405180910390f35b6101a9610581565b6040516101b69190611fb3565b60405180910390f35b6101d960048036038101906101d49190611a6a565b6105a7565b6040516101e69190611fb3565b60405180910390f35b6102096004803603810190610204919061187b565b6105da565b6040516102169190612169565b60405180910390f35b61023960048036038101906102349190611a93565b610619565b60405161024691906121ad565b60405180910390f35b61026960048036038101906102649190611904565b61063b565b6040516102769190612169565b60405180910390f35b61029960048036038101906102949190611ad8565b61088b565b005b6102a3610c2b565b6040516102b19291906122b7565b60405180910390f35b6102d460048036038101906102cf9190611984565b610c5c565b6040516102e19190612169565b60405180910390f35b61030460048036038101906102ff9190611a16565b610eab565b6040516103119190612169565b60405180910390f35b610322610ede565b60405161032f919061229c565b60405180910390f35b610340610ee4565b60405161034d9190611fb3565b60405180910390f35b610370600480360381019061036b9190611a6a565b610f08565b005b606060006103bd600260008573ffffffffffffffffffffffffffffffffffffffff1673ffffffffffffffffffffffffffffffffffffffff1681526020019081526020016000206110a1565b905060008167ffffffffffffffff811115610401577f4e487b7100000000000000000000000000000000000000000000000000000000600052604160045260246000fd5b60405190808252806020026020018201604052801561042f5781602001602082028036833780820191505090505b50905060005b828110156104e65761048e81600260008873ffffffffffffffffffffffffffffffffffffffff1673ffffffffffffffffffffffffffffffffffffffff1681526020019081526020016000206110b690919063ffffffff16565b8282815181106104c7577f4e487b7100000000000000000000000000000000000000000000000000000000600052603260045260246000fd5b60200260200101818152505080806104de906124ce565b915050610435565b508092505050919050565b60006020528060005260406000206000915054906101000a900473ffffffffffffffffffffffffffffffffffffffff1681565b6040518060400160405280600181526020017f330000000000000000000000000000000000000000000000000000000000000081525081565b7f000000000000000000000000000000000000000000000000000000000000000081565b600460009054906101000a900473ffffffffffffffffffffffffffffffffffffffff1681565b60016020528060005260406000206000915054906101000a900473ffffffffffffffffffffffffffffffffffffffff1681565b60008686868686866040516020016105f79695949392919061207f565b6040516020818303038152906040528051906020012090509695505050505050565b6000828260405161062b929190611f32565b6040518091039020905092915050565b60008061068c8585858080601f016020809104026020016040519081016040528093929190818152602001838380828437600081840152601f19601f82011690508083019250505050505050610eab565b905061069e33888860016000866105da565b9150600073ffffffffffffffffffffffffffffffffffffffff1660008084815260200190815260200160002060009054906101000a900473ffffffffffffffffffffffffffffffffffffffff1673ffffffffffffffffffffffffffffffffffffffff1614610741576040517f08c379a00000000000000000000000000000000000000000000000000000000081526004016107389061227c565b60405180910390fd5b61079282600260003373ffffffffffffffffffffffffffffffffffffffff1673ffffffffffffffffffffffffffffffffffffffff1681526020019081526020016000206110cd90919063ffffffff16565b503360008084815260200190815260200160002060006101000a81548173ffffffffffffffffffffffffffffffffffffffff021916908373ffffffffffffffffffffffffffffffffffffffff160217905550866001600084815260200190815260200160002060006101000a81548173ffffffffffffffffffffffffffffffffffffffff021916908373ffffffffffffffffffffffffffffffffffffffff1602179055507fcfd64545826fbe236e660141349bd1ed0b30c9bec7e213894afd7745a1f76f3333888888868989600160008a6040516108799a99989796959493929190611fe9565b60405180910390a15095945050505050565b7f000000000000000000000000000000000000000000000000000000000000000073ffffffffffffffffffffffffffffffffffffffff163373ffffffffffffffffffffffffffffffffffffffff1614610919576040517f08c379a00000000000000000000000000000000000000000000000000000000081526004016109109061221c565b60405180910390fd5b84610967578760038190555086600460006101000a81548173ffffffffffffffffffffffffffffffffffffffff021916908373ffffffffffffffffffffffffffffffffffffffff1602179055505b600061098d878561097886866110e4565b898a610984578c610987565b60005b8a6105da565b90508673ffffffffffffffffffffffffffffffffffffffff1660008083815260200190815260200160002060009054906101000a900473ffffffffffffffffffffffffffffffffffffffff1673ffffffffffffffffffffffffffffffffffffffff1614610a2f576040517f08c379a0000000000000000000000000000000000000000000000000000000008152600401610a269061223c565b60405180910390fd5b6000808573ffffffffffffffffffffffffffffffffffffffff168585604051610a59929190611f32565b6000604051808303816000865af19150503d8060008114610a96576040519150601f19603f3d011682016040523d82523d6000602084013e610a9b565b606091505b509150915081610aee57610aed6040518060400160405280600c81526020017f506f6b654d652e657865633a0000000000000000000000000000000000000000815250826112f290919063ffffffff16565b5b8715610b88577f000000000000000000000000000000000000000000000000000000000000000073ffffffffffffffffffffffffffffffffffffffff16636f192acc8b8d8c6040518463ffffffff1660e01b8152600401610b5193929190612110565b600060405180830381600087803b158015610b6b57600080fd5b505af1158015610b7f573d6000803e3d6000fd5b50505050610bb4565b600360009055600460006101000a81549073ffffffffffffffffffffffffffffffffffffffff02191690555b8573ffffffffffffffffffffffffffffffffffffffff168a73ffffffffffffffffffffffffffffffffffffffff168c7ff5785831cc21ed1a6e74f60bd9268a70a7a3f3fc03c815dba22ceda33aea26ce888888604051610c16939291906121c8565b60405180910390a45050505050505050505050565b600080600354600460009054906101000a900473ffffffffffffffffffffffffffffffffffffffff16915091509091565b600080610cad8686868080601f016020809104026020016040519081016040528093929190818152602001838380828437600081840152601f19601f82011690508083019250505050505050610eab565b9050610cbe338989600087866105da565b9150600073ffffffffffffffffffffffffffffffffffffffff1660008084815260200190815260200160002060009054906101000a900473ffffffffffffffffffffffffffffffffffffffff1673ffffffffffffffffffffffffffffffffffffffff1614610d61576040517f08c379a0000000000000000000000000000000000000000000000000000000008152600401610d589061227c565b60405180910390fd5b610db282600260003373ffffffffffffffffffffffffffffffffffffffff1673ffffffffffffffffffffffffffffffffffffffff1681526020019081526020016000206110cd90919063ffffffff16565b503360008084815260200190815260200160002060006101000a81548173ffffffffffffffffffffffffffffffffffffffff021916908373ffffffffffffffffffffffffffffffffffffffff160217905550876001600084815260200190815260200160002060006101000a81548173ffffffffffffffffffffffffffffffffffffffff021916908373ffffffffffffffffffffffffffffffffffffffff1602179055507fcfd64545826fbe236e660141349bd1ed0b30c9bec7e213894afd7745a1f76f3333898989868a8a60008b8a604051610e989a99989796959493929190611fe9565b60405180910390a1509695505050505050565b60008282604051602001610ec09291906120e0565b60405160208183030381529060405280519060200120905092915050565b60035481565b7f000000000000000000000000000000000000000000000000000000000000000081565b3373ffffffffffffffffffffffffffffffffffffffff1660008083815260200190815260200160002060009054906101000a900473ffffffffffffffffffffffffffffffffffffffff1673ffffffffffffffffffffffffffffffffffffffff1614610fa8576040517f08c379a0000000000000000000000000000000000000000000000000000000008152600401610f9f9061225c565b60405180910390fd5b610ff981600260003373ffffffffffffffffffffffffffffffffffffffff1673ffffffffffffffffffffffffffffffffffffffff16815260200190815260200160002061145b90919063ffffffff16565b5060008082815260200190815260200160002060006101000a81549073ffffffffffffffffffffffffffffffffffffffff02191690556001600082815260200190815260200160002060006101000a81549073ffffffffffffffffffffffffffffffffffffffff02191690557f44d83729a43f9c6046446df014d073dd242e0ad672071e9b292f31b669c25b098133604051611096929190612184565b60405180910390a150565b60006110af82600001611472565b9050919050565b60006110c58360000183611483565b905092915050565b60006110dc83600001836114d4565b905092915050565b6000601883836003818110611122577f4e487b7100000000000000000000000000000000000000000000000000000000600052603260045260246000fd5b9050013560f81c60f81b7effffffffffffffffffffffffffffffffffffffffffffffffffffffffffffff19167bffffffffffffffffffffffffffffffffffffffffffffffffffffffff1916901c6010848460028181106111ab577f4e487b7100000000000000000000000000000000000000000000000000000000600052603260045260246000fd5b9050013560f81c60f81b7effffffffffffffffffffffffffffffffffffffffffffffffffffffffffffff19167bffffffffffffffffffffffffffffffffffffffffffffffffffffffff1916901c600885856001818110611234577f4e487b7100000000000000000000000000000000000000000000000000000000600052603260045260246000fd5b9050013560f81c60f81b7effffffffffffffffffffffffffffffffffffffffffffffffffffffffffffff19167bffffffffffffffffffffffffffffffffffffffffffffffffffffffff1916901c858560008181106112bb577f4e487b7100000000000000000000000000000000000000000000000000000000600052603260045260246000fd5b9050013560f81c60f81b7effffffffffffffffffffffffffffffffffffffffffffffffffffffffffffff1916171717905092915050565b6004602083516113029190612517565b14156113ff576000826020015190506308c379a060e01b817bffffffffffffffffffffffffffffffffffffffffffffffffffffffff191614156113a3576044830192508183604051602001611358929190611f4b565b6040516020818303038152906040526040517f08c379a000000000000000000000000000000000000000000000000000000000815260040161139a91906121fa565b60405180910390fd5b816040516020016113b49190611f6f565b6040516020818303038152906040526040517f08c379a00000000000000000000000000000000000000000000000000000000081526004016113f691906121fa565b60405180910390fd5b806040516020016114109190611f91565b6040516020818303038152906040526040517f08c379a000000000000000000000000000000000000000000000000000000000815260040161145291906121fa565b60405180910390fd5b600061146a8360000183611544565b905092915050565b600081600001805490509050919050565b60008260000182815481106114c1577f4e487b7100000000000000000000000000000000000000000000000000000000600052603260045260246000fd5b9060005260206000200154905092915050565b60006114e083836116ca565b61153957826000018290806001815401808255809150506001900390600052602060002001600090919091909150558260000180549050836001016000848152602001908152602001600020819055506001905061153e565b600090505b92915050565b600080836001016000848152602001908152602001600020549050600081146116be57600060018261157691906123c8565b905060006001866000018054905061158e91906123c8565b90508181146116495760008660000182815481106115d5577f4e487b7100000000000000000000000000000000000000000000000000000000600052603260045260246000fd5b906000526020600020015490508087600001848154811061161f577f4e487b7100000000000000000000000000000000000000000000000000000000600052603260045260246000fd5b90600052602060002001819055508387600101600083815260200190815260200160002081905550505b85600001805480611683577f4e487b7100000000000000000000000000000000000000000000000000000000600052603160045260246000fd5b6001900381819060005260206000200160009055905585600101600086815260200190815260200160002060009055600193505050506116c4565b60009150505b92915050565b600080836001016000848152602001908152602001600020541415905092915050565b60006117006116fb84612311565b6122e0565b90508281526020810184848401111561171857600080fd5b61172384828561248c565b509392505050565b60008135905061173a816125e6565b92915050565b60008135905061174f816125fd565b92915050565b60008135905061176481612614565b92915050565b6000813590506117798161262b565b92915050565b60008083601f84011261179157600080fd5b8235905067ffffffffffffffff8111156117aa57600080fd5b6020830191508360018202830111156117c257600080fd5b9250929050565b600082601f8301126117da57600080fd5b81356117ea8482602086016116ed565b91505092915050565b60008083601f84011261180557600080fd5b8235905067ffffffffffffffff81111561181e57600080fd5b60208301915083600182028301111561183657600080fd5b9250929050565b60008135905061184c81612642565b92915050565b60006020828403121561186457600080fd5b60006118728482850161172b565b91505092915050565b60008060008060008060c0878903121561189457600080fd5b60006118a289828a0161172b565b96505060206118b389828a0161172b565b95505060406118c489828a0161176a565b94505060606118d589828a01611740565b93505060806118e689828a0161172b565b92505060a06118f789828a01611755565b9150509295509295509295565b60008060008060006080868803121561191c57600080fd5b600061192a8882890161172b565b955050602061193b8882890161176a565b945050604061194c8882890161172b565b935050606086013567ffffffffffffffff81111561196957600080fd5b6119758882890161177f565b92509250509295509295909350565b60008060008060008060a0878903121561199d57600080fd5b60006119ab89828a0161172b565b96505060206119bc89828a0161176a565b95505060406119cd89828a0161172b565b945050606087013567ffffffffffffffff8111156119ea57600080fd5b6119f689828a0161177f565b93509350506080611a0989828a0161172b565b9150509295509295509295565b60008060408385031215611a2957600080fd5b6000611a378582860161172b565b925050602083013567ffffffffffffffff811115611a5457600080fd5b611a60858286016117c9565b9150509250929050565b600060208284031215611a7c57600080fd5b6000611a8a84828501611755565b91505092915050565b60008060208385031215611aa657600080fd5b600083013567ffffffffffffffff811115611ac057600080fd5b611acc858286016117f3565b92509250509250929050565b60008060008060008060008060e0898b031215611af457600080fd5b6000611b028b828c0161183d565b9850506020611b138b828c0161172b565b9750506040611b248b828c0161172b565b9650506060611b358b828c01611740565b9550506080611b468b828c01611755565b94505060a0611b578b828c0161172b565b93505060c089013567ffffffffffffffff811115611b7457600080fd5b611b808b828c0161177f565b92509250509295985092959890939650565b6000611b9e8383611c35565b60208301905092915050565b611bb38161240e565b82525050565b611bc2816123fc565b82525050565b6000611bd382612351565b611bdd818561237f565b9350611be883612341565b8060005b83811015611c19578151611c008882611b92565b9750611c0b83612372565b925050600181019050611bec565b5085935050505092915050565b611c2f81612420565b82525050565b611c3e8161242c565b82525050565b611c4d8161242c565b82525050565b611c5c81612436565b82525050565b6000611c6e8385612390565b9350611c7b83858461248c565b611c84836125d5565b840190509392505050565b6000611c9b83856123a1565b9350611ca883858461248c565b82840190509392505050565b6000611cbf8261235c565b611cc98185612390565b9350611cd981856020860161249b565b611ce2816125d5565b840191505092915050565b6000611cf882612367565b611d0281856123ac565b9350611d1281856020860161249b565b611d1b816125d5565b840191505092915050565b6000611d3182612367565b611d3b81856123bd565b9350611d4b81856020860161249b565b80840191505092915050565b6000611d646017836123ac565b91507f47656c61746f666965643a204f6e6c792067656c61746f0000000000000000006000830152602082019050919050565b6000611da4601b836123ac565b91507f506f6b654d653a20657865633a204e6f207461736b20666f756e6400000000006000830152602082019050919050565b6000611de4600f836123bd565b91507f4e6f4572726f7253656c6563746f7200000000000000000000000000000000006000830152600f82019050919050565b6000611e246031836123ac565b91507f506f6b654d653a2063616e63656c5461736b3a2053656e64657220646964206e60008301527f6f74207374617274207461736b207965740000000000000000000000000000006020830152604082019050919050565b6000611e8a602f836123ac565b91507f506f6b654d653a206372656174655461736b3a2053656e64657220616c72656160008301527f64792073746172746564207461736b00000000000000000000000000000000006020830152604082019050919050565b6000611ef06014836123bd565b91507f556e657870656374656452657475726e646174610000000000000000000000006000830152601482019050919050565b611f2c81612482565b82525050565b6000611f3f828486611c8f565b91508190509392505050565b6000611f578285611d26565b9150611f638284611d26565b91508190509392505050565b6000611f7b8284611d26565b9150611f8682611dd7565b915081905092915050565b6000611f9d8284611d26565b9150611fa882611ee3565b915081905092915050565b6000602082019050611fc86000830184611bb9565b92915050565b6000602082019050611fe36000830184611baa565b92915050565b600061012082019050611fff600083018d611bb9565b61200c602083018c611bb9565b612019604083018b611c53565b612026606083018a611bb9565b6120336080830189611c44565b81810360a0830152612046818789611c62565b905061205560c0830186611c26565b61206260e0830185611bb9565b612070610100830184611c44565b9b9a5050505050505050505050565b600060c0820190506120946000830189611bb9565b6120a16020830188611bb9565b6120ae6040830187611c53565b6120bb6060830186611c26565b6120c86080830185611bb9565b6120d560a0830184611c44565b979650505050505050565b60006040820190506120f56000830185611bb9565b81810360208301526121078184611cb4565b90509392505050565b60006060820190506121256000830186611bb9565b6121326020830185611f23565b61213f6040830184611bb9565b949350505050565b600060208201905081810360008301526121618184611bc8565b905092915050565b600060208201905061217e6000830184611c44565b92915050565b60006040820190506121996000830185611c44565b6121a66020830184611bb9565b9392505050565b60006020820190506121c26000830184611c53565b92915050565b600060408201905081810360008301526121e3818587611c62565b90506121f26020830184611c44565b949350505050565b600060208201905081810360008301526122148184611ced565b905092915050565b6000602082019050818103600083015261223581611d57565b9050919050565b6000602082019050818103600083015261225581611d97565b9050919050565b6000602082019050818103600083015261227581611e17565b9050919050565b6000602082019050818103600083015261229581611e7d565b9050919050565b60006020820190506122b16000830184611f23565b92915050565b60006040820190506122cc6000830185611f23565b6122d96020830184611bb9565b9392505050565b6000604051905081810181811067ffffffffffffffff82111715612307576123066125a6565b5b8060405250919050565b600067ffffffffffffffff82111561232c5761232b6125a6565b5b601f19601f8301169050602081019050919050565b6000819050602082019050919050565b600081519050919050565b600081519050919050565b600081519050919050565b6000602082019050919050565b600082825260208201905092915050565b600082825260208201905092915050565b600081905092915050565b600082825260208201905092915050565b600081905092915050565b60006123d382612482565b91506123de83612482565b9250828210156123f1576123f0612548565b5b828203905092915050565b600061240782612462565b9050919050565b600061241982612462565b9050919050565b60008115159050919050565b6000819050919050565b60007fffffffff0000000000000000000000000000000000000000000000000000000082169050919050565b600073ffffffffffffffffffffffffffffffffffffffff82169050919050565b6000819050919050565b82818337600083830152505050565b60005b838110156124b957808201518184015260208101905061249e565b838111156124c8576000848401525b50505050565b60006124d982612482565b91507fffffffffffffffffffffffffffffffffffffffffffffffffffffffffffffffff82141561250c5761250b612548565b5b600182019050919050565b600061252282612482565b915061252d83612482565b92508261253d5761253c612577565b5b828206905092915050565b7f4e487b7100000000000000000000000000000000000000000000000000000000600052601160045260246000fd5b7f4e487b7100000000000000000000000000000000000000000000000000000000600052601260045260246000fd5b7f4e487b7100000000000000000000000000000000000000000000000000000000600052604160045260246000fd5b6000601f19601f8301169050919050565b6125ef816123fc565b81146125fa57600080fd5b50565b61260681612420565b811461261157600080fd5b50565b61261d8161242c565b811461262857600080fd5b50565b61263481612436565b811461263f57600080fd5b50565b61264b81612482565b811461265657600080fd5b5056fea2646970667358221220c998eeb958784385b6ede98fe89dc26ca82f4291ea13621ee0aaf956c11ac32b64736f6c63430008000033",
  "devdoc": {
    "kind": "dev",
    "methods": {
      "cancelTask(bytes32)": {
        "params": {
          "_taskId": "The hash of the task, can be computed using getTaskId()"
        }
      },
      "createTask(address,bytes4,address,bytes)": {
        "details": "Requires funds to be added in Task Treasury, assumes treasury sends fee to Gelato via PokeMe",
        "params": {
          "_execAddress": "On which contract should Gelato execute the transactions",
          "_execSelector": "Which function Gelato should eecute on the _execAddress",
          "_resolverAddress": "On which contract should Gelato check when to execute the tx",
          "_resolverData": "Which data should be used to check on the Resolver when to execute the tx"
        }
      },
      "createTaskNoPrepayment(address,bytes4,address,bytes,address)": {
        "details": "Requires no funds to be added in Task Treasury, assumes tasks sends fee to Gelato directly",
        "params": {
          "_execAddress": "On which contract should Gelato execute the transactions",
          "_execSelector": "Which function Gelato should eecute on the _execAddress",
          "_feeToken": "Which token to use as fee payment",
          "_resolverAddress": "On which contract should Gelato check when to execute the tx",
          "_resolverData": "Which data should be used to check on the Resolver when to execute the tx"
        }
      },
      "exec(uint256,address,address,bool,bytes32,address,bytes)": {
        "params": {
          "_execAddress": "On which contract should Gelato execute the tx",
          "_execData": "Data used to execute the tx, queried from the Resolver by Gelato",
          "_feeToken": "Token used to pay for the execution. ETH = 0xeeeeee...",
          "_taskCreator": "On which contract should Gelato check when to execute the tx",
          "_txFee": "Fee paid to Gelato for execution, deducted on the TaskTreasury",
          "_useTaskTreasuryFunds": "If msg.sender's balance on TaskTreasury should pay for the tx"
        }
      },
      "getResolverHash(address,bytes)": {
        "params": {
          "_resolverAddress": "Address of resolver",
          "_resolverData": "Data passed to resolver"
        }
      },
      "getSelector(string)": {
        "details": "Example: \"transferFrom(address,address,uint256)\" => 0x23b872dd",
        "params": {
          "_func": "String of the function you want the selector from"
        }
      },
      "getTaskId(address,address,bytes4,bool,address,bytes32)": {
        "params": {
          "_execAddress": "Address of the contract to be executed by Gelato",
          "_feeToken": "FeeToken to use, address 0 if task treasury is used",
          "_resolverHash": "hash of resolver address and data",
          "_selector": "Function on the _execAddress which should be executed",
          "_taskCreator": "Address of the task creator",
          "_useTaskTreasuryFunds": "If msg.sender's balance on TaskTreasury should pay for the tx"
        }
      },
      "getTaskIdsByUser(address)": {
        "params": {
          "_taskCreator": "Address who created the task"
        }
      }
    },
    "version": 1
  },
  "userdoc": {
    "kind": "user",
    "methods": {
      "cancelTask(bytes32)": {
        "notice": "Cancel a task so that Gelato can no longer execute it"
      },
      "createTask(address,bytes4,address,bytes)": {
        "notice": "Create a task that tells Gelato to monitor and execute transactions on specific contracts"
      },
      "createTaskNoPrepayment(address,bytes4,address,bytes,address)": {
        "notice": "Create a task that tells Gelato to monitor and execute transactions on specific contracts"
      },
      "exec(uint256,address,address,bool,bytes32,address,bytes)": {
        "notice": "Execution API called by Gelato"
      },
      "getFeeDetails()": {
        "notice": "Helper func to query fee and feeToken"
      },
      "getResolverHash(address,bytes)": {
        "notice": "Helper func to query the resolverHash"
      },
      "getSelector(string)": {
        "notice": "Helper func to query the _selector of a function you want to automate"
      },
      "getTaskId(address,address,bytes4,bool,address,bytes32)": {
        "notice": "Returns TaskId of a task Creator"
      },
      "getTaskIdsByUser(address)": {
        "notice": "Helper func to query all open tasks by a task creator"
      }
    },
    "notice": "PokeMe enables everyone to communicate to Gelato Bots to monitor and execute certain transactionsResolverAddresses determine when Gelato should execute and provides bots with the payload they should use to executeExecAddress determine the actual contracts to execute a function on",
    "version": 1
  },
  "storageLayout": {
    "storage": [
      {
        "astId": 1723,
        "contract": "contracts/PokeMe.sol:PokeMe",
        "label": "taskCreator",
        "offset": 0,
        "slot": "0",
        "type": "t_mapping(t_bytes32,t_address)"
      },
      {
        "astId": 1727,
        "contract": "contracts/PokeMe.sol:PokeMe",
        "label": "execAddresses",
        "offset": 0,
        "slot": "1",
        "type": "t_mapping(t_bytes32,t_address)"
      },
      {
        "astId": 1732,
        "contract": "contracts/PokeMe.sol:PokeMe",
        "label": "_createdTasks",
        "offset": 0,
        "slot": "2",
        "type": "t_mapping(t_address,t_struct(Bytes32Set)1053_storage)"
      },
      {
        "astId": 1736,
        "contract": "contracts/PokeMe.sol:PokeMe",
        "label": "fee",
        "offset": 0,
        "slot": "3",
        "type": "t_uint256"
      },
      {
        "astId": 1738,
        "contract": "contracts/PokeMe.sol:PokeMe",
        "label": "feeToken",
        "offset": 0,
        "slot": "4",
        "type": "t_address"
      }
    ],
    "types": {
      "t_address": {
        "encoding": "inplace",
        "label": "address",
        "numberOfBytes": "20"
      },
      "t_array(t_bytes32)dyn_storage": {
        "base": "t_bytes32",
        "encoding": "dynamic_array",
        "label": "bytes32[]",
        "numberOfBytes": "32"
      },
      "t_bytes32": {
        "encoding": "inplace",
        "label": "bytes32",
        "numberOfBytes": "32"
      },
      "t_mapping(t_address,t_struct(Bytes32Set)1053_storage)": {
        "encoding": "mapping",
        "key": "t_address",
        "label": "mapping(address => struct EnumerableSet.Bytes32Set)",
        "numberOfBytes": "32",
        "value": "t_struct(Bytes32Set)1053_storage"
      },
      "t_mapping(t_bytes32,t_address)": {
        "encoding": "mapping",
        "key": "t_bytes32",
        "label": "mapping(bytes32 => address)",
        "numberOfBytes": "32",
        "value": "t_address"
      },
      "t_mapping(t_bytes32,t_uint256)": {
        "encoding": "mapping",
        "key": "t_bytes32",
        "label": "mapping(bytes32 => uint256)",
        "numberOfBytes": "32",
        "value": "t_uint256"
      },
      "t_struct(Bytes32Set)1053_storage": {
        "encoding": "inplace",
        "label": "struct EnumerableSet.Bytes32Set",
        "members": [
          {
            "astId": 1052,
            "contract": "contracts/PokeMe.sol:PokeMe",
            "label": "_inner",
            "offset": 0,
            "slot": "0",
            "type": "t_struct(Set)873_storage"
          }
        ],
        "numberOfBytes": "64"
      },
      "t_struct(Set)873_storage": {
        "encoding": "inplace",
        "label": "struct EnumerableSet.Set",
        "members": [
          {
            "astId": 868,
            "contract": "contracts/PokeMe.sol:PokeMe",
            "label": "_values",
            "offset": 0,
            "slot": "0",
            "type": "t_array(t_bytes32)dyn_storage"
          },
          {
            "astId": 872,
            "contract": "contracts/PokeMe.sol:PokeMe",
            "label": "_indexes",
            "offset": 0,
            "slot": "1",
            "type": "t_mapping(t_bytes32,t_uint256)"
          }
        ],
        "numberOfBytes": "64"
      },
      "t_uint256": {
        "encoding": "inplace",
        "label": "uint256",
        "numberOfBytes": "32"
      }
    }
  }
}