{
  "address": "0x1d360DdAaCdD4218e1e6aA4aaa0d4cC1fDecf4B0",
  "abi": [
    {
      "inputs": [
        {
          "internalType": "address payable",
          "name": "_gelato",
          "type": "address"
        }
      ],
      "stateMutability": "nonpayable",
      "type": "constructor"
    },
    {
      "anonymous": false,
      "inputs": [
        {
          "indexed": true,
          "internalType": "address",
          "name": "sender",
          "type": "address"
        },
        {
          "indexed": true,
          "internalType": "address",
          "name": "token",
          "type": "address"
        },
        {
          "indexed": true,
          "internalType": "uint256",
          "name": "amount",
          "type": "uint256"
        }
      ],
      "name": "FundsDeposited",
      "type": "event"
    },
    {
      "anonymous": false,
      "inputs": [
        {
          "indexed": true,
          "internalType": "address",
          "name": "receiver",
          "type": "address"
        },
        {
          "indexed": true,
          "internalType": "address",
          "name": "initiator",
          "type": "address"
        },
        {
          "indexed": true,
          "internalType": "address",
          "name": "token",
          "type": "address"
        },
        {
          "indexed": false,
          "internalType": "uint256",
          "name": "amount",
          "type": "uint256"
        }
      ],
      "name": "FundsWithdrawn",
      "type": "event"
    },
    {
      "anonymous": false,
      "inputs": [
        {
          "indexed": true,
          "internalType": "address",
          "name": "previousOwner",
          "type": "address"
        },
        {
          "indexed": true,
          "internalType": "address",
          "name": "newOwner",
          "type": "address"
        }
      ],
      "name": "OwnershipTransferred",
      "type": "event"
    },
    {
      "inputs": [
        {
          "internalType": "address",
          "name": "_service",
          "type": "address"
        }
      ],
      "name": "addWhitelistedService",
      "outputs": [],
      "stateMutability": "nonpayable",
      "type": "function"
    },
    {
      "inputs": [
        {
          "internalType": "address",
          "name": "_receiver",
          "type": "address"
        },
        {
          "internalType": "address",
          "name": "_token",
          "type": "address"
        },
        {
          "internalType": "uint256",
          "name": "_amount",
          "type": "uint256"
        }
      ],
      "name": "depositFunds",
      "outputs": [],
      "stateMutability": "payable",
      "type": "function"
    },
    {
      "inputs": [],
      "name": "gelato",
      "outputs": [
        {
          "internalType": "address payable",
          "name": "",
          "type": "address"
        }
      ],
      "stateMutability": "view",
      "type": "function"
    },
    {
      "inputs": [
        {
          "internalType": "address",
          "name": "_user",
          "type": "address"
        }
      ],
      "name": "getCreditTokensByUser",
      "outputs": [
        {
          "internalType": "address[]",
          "name": "",
          "type": "address[]"
        }
      ],
      "stateMutability": "view",
      "type": "function"
    },
    {
      "inputs": [],
      "name": "owner",
      "outputs": [
        {
          "internalType": "address",
          "name": "",
          "type": "address"
        }
      ],
      "stateMutability": "view",
      "type": "function"
    },
    {
      "inputs": [
        {
          "internalType": "address",
          "name": "_service",
          "type": "address"
        }
      ],
      "name": "removeWhitelistedService",
      "outputs": [],
      "stateMutability": "nonpayable",
      "type": "function"
    },
    {
      "inputs": [],
      "name": "renounceOwnership",
      "outputs": [],
      "stateMutability": "nonpayable",
      "type": "function"
    },
    {
      "inputs": [
        {
          "internalType": "address",
          "name": "newOwner",
          "type": "address"
        }
      ],
      "name": "transferOwnership",
      "outputs": [],
      "stateMutability": "nonpayable",
      "type": "function"
    },
    {
      "inputs": [
        {
          "internalType": "address",
          "name": "_token",
          "type": "address"
        },
        {
          "internalType": "uint256",
          "name": "_amount",
          "type": "uint256"
        },
        {
          "internalType": "address",
          "name": "_user",
          "type": "address"
        }
      ],
      "name": "useFunds",
      "outputs": [],
      "stateMutability": "nonpayable",
      "type": "function"
    },
    {
      "inputs": [
        {
          "internalType": "address",
          "name": "",
          "type": "address"
        },
        {
          "internalType": "address",
          "name": "",
          "type": "address"
        }
      ],
      "name": "userTokenBalance",
      "outputs": [
        {
          "internalType": "uint256",
          "name": "",
          "type": "uint256"
        }
      ],
      "stateMutability": "view",
      "type": "function"
    },
    {
      "inputs": [
        {
          "internalType": "address",
          "name": "",
          "type": "address"
        }
      ],
      "name": "whitelistedServices",
      "outputs": [
        {
          "internalType": "bool",
          "name": "",
          "type": "bool"
        }
      ],
      "stateMutability": "view",
      "type": "function"
    },
    {
      "inputs": [
        {
          "internalType": "address payable",
          "name": "_receiver",
          "type": "address"
        },
        {
          "internalType": "address",
          "name": "_token",
          "type": "address"
        },
        {
          "internalType": "uint256",
          "name": "_amount",
          "type": "uint256"
        }
      ],
      "name": "withdrawFunds",
      "outputs": [],
      "stateMutability": "nonpayable",
      "type": "function"
    }
  ],
  "transactionHash": "0x89fb31c65be2eb93fc050788c0428ae495da5a3cbd7972e10935b502a733a749",
  "args": [
    "0xCc4CcD69D31F9FfDBD3BFfDe49c6aA886DaB98d9"
  ],
  "solcInputHash": "91bcbbdf57b94fe1eccab144230f124f",
  "bytecode": "0x60a06040523480156200001157600080fd5b50604051620028963803806200289683398181016040528101906200003791906200017f565b620000576200004b6200009c60201b60201c565b620000a460201b60201c565b600180819055508073ffffffffffffffffffffffffffffffffffffffff1660808173ffffffffffffffffffffffffffffffffffffffff1660601b8152505050620001f9565b600033905090565b60008060009054906101000a900473ffffffffffffffffffffffffffffffffffffffff169050816000806101000a81548173ffffffffffffffffffffffffffffffffffffffff021916908373ffffffffffffffffffffffffffffffffffffffff1602179055508173ffffffffffffffffffffffffffffffffffffffff168173ffffffffffffffffffffffffffffffffffffffff167f8be0079c531659141344cd1fd0a4f28419497f9722a3daafe3b4186f6b6457e060405160405180910390a35050565b6000815190506200017981620001df565b92915050565b6000602082840312156200019257600080fd5b6000620001a28482850162000168565b91505092915050565b6000620001b882620001bf565b9050919050565b600073ffffffffffffffffffffffffffffffffffffffff82169050919050565b620001ea81620001ab565b8114620001f657600080fd5b50565b60805160601c6126776200021f600039600081816106c1015261095401526126776000f3fe6080604052600436106100a75760003560e01c80638da5cb5b116100645780638da5cb5b146101a6578063b47064c8146101d1578063c1461d571461020e578063c63aa0291461022a578063cb41cf6414610253578063f2fde38b14610290576100a7565b80631c20fadd146100ac5780632bf30a0e146100d5578063573ea575146101125780636f192acc1461013d578063715018a614610166578063848f5f3d1461017d575b600080fd5b3480156100b857600080fd5b506100d360048036038101906100ce9190611b3a565b6102b9565b005b3480156100e157600080fd5b506100fc60048036038101906100f79190611b11565b610512565b6040516101099190612220565b60405180910390f35b34801561011e57600080fd5b506101276106bf565b60405161013491906121a5565b60405180910390f35b34801561014957600080fd5b50610164600480360381019061015f9190611c14565b6106e3565b005b34801561017257600080fd5b5061017b61097f565b005b34801561018957600080fd5b506101a4600480360381019061019f9190611b11565b610a07565b005b3480156101b257600080fd5b506101bb610b71565b6040516101c8919061218a565b60405180910390f35b3480156101dd57600080fd5b506101f860048036038101906101f39190611b89565b610b9a565b60405161020591906123bf565b60405180910390f35b61022860048036038101906102239190611bc5565b610bbf565b005b34801561023657600080fd5b50610251600480360381019061024c9190611b11565b610f80565b005b34801561025f57600080fd5b5061027a60048036038101906102759190611b11565b6110ea565b6040516102879190612242565b60405180910390f35b34801561029c57600080fd5b506102b760048036038101906102b29190611b11565b61110a565b005b600260015414156102ff576040517f08c379a00000000000000000000000000000000000000000000000000000000081526004016102f69061239f565b60405180910390fd5b60026001819055506000600260003373ffffffffffffffffffffffffffffffffffffffff1673ffffffffffffffffffffffffffffffffffffffff16815260200190815260200160002060008473ffffffffffffffffffffffffffffffffffffffff1673ffffffffffffffffffffffffffffffffffffffff16815260200190815260200160002054905060006103948284611202565b905080826103a2919061249b565b600260003373ffffffffffffffffffffffffffffffffffffffff1673ffffffffffffffffffffffffffffffffffffffff16815260200190815260200160002060008673ffffffffffffffffffffffffffffffffffffffff1673ffffffffffffffffffffffffffffffffffffffff1681526020019081526020016000208190555061042d85858361121b565b818114156104885761048684600360003373ffffffffffffffffffffffffffffffffffffffff1673ffffffffffffffffffffffffffffffffffffffff16815260200190815260200160002061132690919063ffffffff16565b505b8373ffffffffffffffffffffffffffffffffffffffff163373ffffffffffffffffffffffffffffffffffffffff168673ffffffffffffffffffffffffffffffffffffffff167fc322efa58c9cb2c39cfffdac61d35c8643f5cbf13c6a7d0034de2cf18923aff3846040516104fc91906123bf565b60405180910390a4505060018081905550505050565b6060600061055d600360008573ffffffffffffffffffffffffffffffffffffffff1673ffffffffffffffffffffffffffffffffffffffff168152602001908152602001600020611356565b905060008167ffffffffffffffff8111156105a1577f4e487b7100000000000000000000000000000000000000000000000000000000600052604160045260246000fd5b6040519080825280602002602001820160405280156105cf5781602001602082028036833780820191505090505b50905060005b828110156106b45761062e81600360008873ffffffffffffffffffffffffffffffffffffffff1673ffffffffffffffffffffffffffffffffffffffff16815260200190815260200160002061136b90919063ffffffff16565b828281518110610667577f4e487b7100000000000000000000000000000000000000000000000000000000600052603260045260246000fd5b602002602001019073ffffffffffffffffffffffffffffffffffffffff16908173ffffffffffffffffffffffffffffffffffffffff168152505080806106ac9061255c565b9150506105d5565b508092505050919050565b7f000000000000000000000000000000000000000000000000000000000000000081565b600460003373ffffffffffffffffffffffffffffffffffffffff1673ffffffffffffffffffffffffffffffffffffffff16815260200190815260200160002060009054906101000a900460ff1661076f576040517f08c379a00000000000000000000000000000000000000000000000000000000081526004016107669061235f565b60405180910390fd5b81600260008373ffffffffffffffffffffffffffffffffffffffff1673ffffffffffffffffffffffffffffffffffffffff16815260200190815260200160002060008573ffffffffffffffffffffffffffffffffffffffff1673ffffffffffffffffffffffffffffffffffffffff168152602001908152602001600020546107f7919061249b565b600260008373ffffffffffffffffffffffffffffffffffffffff1673ffffffffffffffffffffffffffffffffffffffff16815260200190815260200160002060008573ffffffffffffffffffffffffffffffffffffffff1673ffffffffffffffffffffffffffffffffffffffff168152602001908152602001600020819055506000600260008373ffffffffffffffffffffffffffffffffffffffff1673ffffffffffffffffffffffffffffffffffffffff16815260200190815260200160002060008573ffffffffffffffffffffffffffffffffffffffff1673ffffffffffffffffffffffffffffffffffffffff16815260200190815260200160002054141561094f5761094d83600360008473ffffffffffffffffffffffffffffffffffffffff1673ffffffffffffffffffffffffffffffffffffffff16815260200190815260200160002061132690919063ffffffff16565b505b61097a7f0000000000000000000000000000000000000000000000000000000000000000848461121b565b505050565b610987611385565b73ffffffffffffffffffffffffffffffffffffffff166109a5610b71565b73ffffffffffffffffffffffffffffffffffffffff16146109fb576040517f08c379a00000000000000000000000000000000000000000000000000000000081526004016109f2906122ff565b60405180910390fd5b610a05600061138d565b565b610a0f611385565b73ffffffffffffffffffffffffffffffffffffffff16610a2d610b71565b73ffffffffffffffffffffffffffffffffffffffff1614610a83576040517f08c379a0000000000000000000000000000000000000000000000000000000008152600401610a7a906122ff565b60405180910390fd5b60011515600460008373ffffffffffffffffffffffffffffffffffffffff1673ffffffffffffffffffffffffffffffffffffffff16815260200190815260200160002060009054906101000a900460ff16151514610b16576040517f08c379a0000000000000000000000000000000000000000000000000000000008152600401610b0d9061229f565b60405180910390fd5b6000600460008373ffffffffffffffffffffffffffffffffffffffff1673ffffffffffffffffffffffffffffffffffffffff16815260200190815260200160002060006101000a81548160ff02191690831515021790555050565b60008060009054906101000a900473ffffffffffffffffffffffffffffffffffffffff16905090565b6002602052816000526040600020602052806000526040600020600091509150505481565b600073eeeeeeeeeeeeeeeeeeeeeeeeeeeeeeeeeeeeeeee73ffffffffffffffffffffffffffffffffffffffff168373ffffffffffffffffffffffffffffffffffffffff161415610c1157349050610d6f565b600083905060008173ffffffffffffffffffffffffffffffffffffffff166370a08231306040518263ffffffff1660e01b8152600401610c51919061218a565b60206040518083038186803b158015610c6957600080fd5b505afa158015610c7d573d6000803e3d6000fd5b505050506040513d601f19601f82011682018060405250810190610ca19190611c8c565b9050610cd03330868573ffffffffffffffffffffffffffffffffffffffff16611451909392919063ffffffff16565b60008273ffffffffffffffffffffffffffffffffffffffff166370a08231306040518263ffffffff1660e01b8152600401610d0b919061218a565b60206040518083038186803b158015610d2357600080fd5b505afa158015610d37573d6000803e3d6000fd5b505050506040513d601f19601f82011682018060405250810190610d5b9190611c8c565b90508181610d69919061249b565b93505050505b80600260008673ffffffffffffffffffffffffffffffffffffffff1673ffffffffffffffffffffffffffffffffffffffff16815260200190815260200160002060008573ffffffffffffffffffffffffffffffffffffffff1673ffffffffffffffffffffffffffffffffffffffff16815260200190815260200160002054610df79190612445565b600260008673ffffffffffffffffffffffffffffffffffffffff1673ffffffffffffffffffffffffffffffffffffffff16815260200190815260200160002060008573ffffffffffffffffffffffffffffffffffffffff1673ffffffffffffffffffffffffffffffffffffffff16815260200190815260200160002081905550610ec883600360008773ffffffffffffffffffffffffffffffffffffffff1673ffffffffffffffffffffffffffffffffffffffff1681526020019081526020016000206114da90919063ffffffff16565b610f1f57610f1d83600360008773ffffffffffffffffffffffffffffffffffffffff1673ffffffffffffffffffffffffffffffffffffffff16815260200190815260200160002061150a90919063ffffffff16565b505b808373ffffffffffffffffffffffffffffffffffffffff168573ffffffffffffffffffffffffffffffffffffffff167ff0d0e99cae184d0187b093b48894117462462379674a6e11d89c3fbb618e96b060405160405180910390a450505050565b610f88611385565b73ffffffffffffffffffffffffffffffffffffffff16610fa6610b71565b73ffffffffffffffffffffffffffffffffffffffff1614610ffc576040517f08c379a0000000000000000000000000000000000000000000000000000000008152600401610ff3906122ff565b60405180910390fd5b60001515600460008373ffffffffffffffffffffffffffffffffffffffff1673ffffffffffffffffffffffffffffffffffffffff16815260200190815260200160002060009054906101000a900460ff1615151461108f576040517f08c379a00000000000000000000000000000000000000000000000000000000081526004016110869061231f565b60405180910390fd5b6001600460008373ffffffffffffffffffffffffffffffffffffffff1673ffffffffffffffffffffffffffffffffffffffff16815260200190815260200160002060006101000a81548160ff02191690831515021790555050565b60046020528060005260406000206000915054906101000a900460ff1681565b611112611385565b73ffffffffffffffffffffffffffffffffffffffff16611130610b71565b73ffffffffffffffffffffffffffffffffffffffff1614611186576040517f08c379a000000000000000000000000000000000000000000000000000000000815260040161117d906122ff565b60405180910390fd5b600073ffffffffffffffffffffffffffffffffffffffff168173ffffffffffffffffffffffffffffffffffffffff1614156111f6576040517f08c379a00000000000000000000000000000000000000000000000000000000081526004016111ed9061227f565b60405180910390fd5b6111ff8161138d565b50565b60008183106112115781611213565b825b905092915050565b73eeeeeeeeeeeeeeeeeeeeeeeeeeeeeeeeeeeeeeee73ffffffffffffffffffffffffffffffffffffffff168273ffffffffffffffffffffffffffffffffffffffff1614156113155760008373ffffffffffffffffffffffffffffffffffffffff168260405161128990612175565b60006040518083038185875af1925050503d80600081146112c6576040519150601f19603f3d011682016040523d82523d6000602084013e6112cb565b606091505b505090508061130f576040517f08c379a0000000000000000000000000000000000000000000000000000000008152600401611306906122df565b60405180910390fd5b50611321565b61132082848361153a565b5b505050565b600061134e836000018373ffffffffffffffffffffffffffffffffffffffff1660001b6115c0565b905092915050565b600061136482600001611746565b9050919050565b600061137a8360000183611757565b60001c905092915050565b600033905090565b60008060009054906101000a900473ffffffffffffffffffffffffffffffffffffffff169050816000806101000a81548173ffffffffffffffffffffffffffffffffffffffff021916908373ffffffffffffffffffffffffffffffffffffffff1602179055508173ffffffffffffffffffffffffffffffffffffffff168173ffffffffffffffffffffffffffffffffffffffff167f8be0079c531659141344cd1fd0a4f28419497f9722a3daafe3b4186f6b6457e060405160405180910390a35050565b6114d4846323b872dd60e01b858585604051602401611472939291906121c0565b604051602081830303815290604052907bffffffffffffffffffffffffffffffffffffffffffffffffffffffff19166020820180517bffffffffffffffffffffffffffffffffffffffffffffffffffffffff83818316178352505050506117a8565b50505050565b6000611502836000018373ffffffffffffffffffffffffffffffffffffffff1660001b61186f565b905092915050565b6000611532836000018373ffffffffffffffffffffffffffffffffffffffff1660001b611892565b905092915050565b6115bb8363a9059cbb60e01b84846040516024016115599291906121f7565b604051602081830303815290604052907bffffffffffffffffffffffffffffffffffffffffffffffffffffffff19166020820180517bffffffffffffffffffffffffffffffffffffffffffffffffffffffff83818316178352505050506117a8565b505050565b6000808360010160008481526020019081526020016000205490506000811461173a5760006001826115f2919061249b565b905060006001866000018054905061160a919061249b565b90508181146116c5576000866000018281548110611651577f4e487b7100000000000000000000000000000000000000000000000000000000600052603260045260246000fd5b906000526020600020015490508087600001848154811061169b577f4e487b7100000000000000000000000000000000000000000000000000000000600052603260045260246000fd5b90600052602060002001819055508387600101600083815260200190815260200160002081905550505b856000018054806116ff577f4e487b7100000000000000000000000000000000000000000000000000000000600052603160045260246000fd5b600190038181906000526020600020016000905590558560010160008681526020019081526020016000206000905560019350505050611740565b60009150505b92915050565b600081600001805490509050919050565b6000826000018281548110611795577f4e487b7100000000000000000000000000000000000000000000000000000000600052603260045260246000fd5b9060005260206000200154905092915050565b600061180a826040518060400160405280602081526020017f5361666545524332303a206c6f772d6c6576656c2063616c6c206661696c65648152508573ffffffffffffffffffffffffffffffffffffffff166119029092919063ffffffff16565b905060008151111561186a578080602001905181019061182a9190611c63565b611869576040517f08c379a00000000000000000000000000000000000000000000000000000000081526004016118609061237f565b60405180910390fd5b5b505050565b600080836001016000848152602001908152602001600020541415905092915050565b600061189e838361186f565b6118f75782600001829080600181540180825580915050600190039060005260206000200160009091909190915055826000018054905083600101600084815260200190815260200160002081905550600190506118fc565b600090505b92915050565b6060611911848460008561191a565b90509392505050565b60608247101561195f576040517f08c379a0000000000000000000000000000000000000000000000000000000008152600401611956906122bf565b60405180910390fd5b61196885611a2e565b6119a7576040517f08c379a000000000000000000000000000000000000000000000000000000000815260040161199e9061233f565b60405180910390fd5b6000808673ffffffffffffffffffffffffffffffffffffffff1685876040516119d0919061215e565b60006040518083038185875af1925050503d8060008114611a0d576040519150601f19603f3d011682016040523d82523d6000602084013e611a12565b606091505b5091509150611a22828286611a41565b92505050949350505050565b600080823b905060008111915050919050565b60608315611a5157829050611aa1565b600083511115611a645782518084602001fd5b816040517f08c379a0000000000000000000000000000000000000000000000000000000008152600401611a98919061225d565b60405180910390fd5b9392505050565b600081359050611ab7816125e5565b92915050565b600081359050611acc816125fc565b92915050565b600081519050611ae181612613565b92915050565b600081359050611af68161262a565b92915050565b600081519050611b0b8161262a565b92915050565b600060208284031215611b2357600080fd5b6000611b3184828501611aa8565b91505092915050565b600080600060608486031215611b4f57600080fd5b6000611b5d86828701611abd565b9350506020611b6e86828701611aa8565b9250506040611b7f86828701611ae7565b9150509250925092565b60008060408385031215611b9c57600080fd5b6000611baa85828601611aa8565b9250506020611bbb85828601611aa8565b9150509250929050565b600080600060608486031215611bda57600080fd5b6000611be886828701611aa8565b9350506020611bf986828701611aa8565b9250506040611c0a86828701611ae7565b9150509250925092565b600080600060608486031215611c2957600080fd5b6000611c3786828701611aa8565b9350506020611c4886828701611ae7565b9250506040611c5986828701611aa8565b9150509250925092565b600060208284031215611c7557600080fd5b6000611c8384828501611ad2565b91505092915050565b600060208284031215611c9e57600080fd5b6000611cac84828501611afc565b91505092915050565b6000611cc18383611cdc565b60208301905092915050565b611cd6816124e1565b82525050565b611ce5816124cf565b82525050565b611cf4816124cf565b82525050565b6000611d05826123ea565b611d0f8185612418565b9350611d1a836123da565b8060005b83811015611d4b578151611d328882611cb5565b9750611d3d8361240b565b925050600181019050611d1e565b5085935050505092915050565b611d61816124f3565b82525050565b6000611d72826123f5565b611d7c8185612429565b9350611d8c818560208601612529565b80840191505092915050565b6000611da382612400565b611dad8185612434565b9350611dbd818560208601612529565b611dc6816125d4565b840191505092915050565b6000611dde602683612434565b91507f4f776e61626c653a206e6577206f776e657220697320746865207a65726f206160008301527f64647265737300000000000000000000000000000000000000000000000000006020830152604082019050919050565b6000611e44603183612434565b91507f5461736b54726561737572793a2061646457686974656c69737465645365727660008301527f6963653a202177686974656c69737465640000000000000000000000000000006020830152604082019050919050565b6000611eaa602683612434565b91507f416464726573733a20696e73756666696369656e742062616c616e636520666f60008301527f722063616c6c00000000000000000000000000000000000000000000000000006020830152604082019050919050565b6000611f10601e83612434565b91507f5f7472616e736665723a20455448207472616e73666572206661696c656400006000830152602082019050919050565b6000611f50602083612434565b91507f4f776e61626c653a2063616c6c6572206973206e6f7420746865206f776e65726000830152602082019050919050565b6000611f90603083612434565b91507f5461736b54726561737572793a2061646457686974656c69737465645365727660008301527f6963653a2077686974656c6973746564000000000000000000000000000000006020830152604082019050919050565b6000611ff6600083612429565b9150600082019050919050565b6000612010601d83612434565b91507f416464726573733a2063616c6c20746f206e6f6e2d636f6e74726163740000006000830152602082019050919050565b6000612050602583612434565b91507f5461736b54726561737572793a206f6e6c7957686974656c697374656453657260008301527f76696365730000000000000000000000000000000000000000000000000000006020830152604082019050919050565b60006120b6602a83612434565b91507f5361666545524332303a204552433230206f7065726174696f6e20646964206e60008301527f6f742073756363656564000000000000000000000000000000000000000000006020830152604082019050919050565b600061211c601f83612434565b91507f5265656e7472616e637947756172643a207265656e7472616e742063616c6c006000830152602082019050919050565b6121588161251f565b82525050565b600061216a8284611d67565b915081905092915050565b600061218082611fe9565b9150819050919050565b600060208201905061219f6000830184611ceb565b92915050565b60006020820190506121ba6000830184611ccd565b92915050565b60006060820190506121d56000830186611ceb565b6121e26020830185611ceb565b6121ef604083018461214f565b949350505050565b600060408201905061220c6000830185611ceb565b612219602083018461214f565b9392505050565b6000602082019050818103600083015261223a8184611cfa565b905092915050565b60006020820190506122576000830184611d58565b92915050565b600060208201905081810360008301526122778184611d98565b905092915050565b6000602082019050818103600083015261229881611dd1565b9050919050565b600060208201905081810360008301526122b881611e37565b9050919050565b600060208201905081810360008301526122d881611e9d565b9050919050565b600060208201905081810360008301526122f881611f03565b9050919050565b6000602082019050818103600083015261231881611f43565b9050919050565b6000602082019050818103600083015261233881611f83565b9050919050565b6000602082019050818103600083015261235881612003565b9050919050565b6000602082019050818103600083015261237881612043565b9050919050565b60006020820190508181036000830152612398816120a9565b9050919050565b600060208201905081810360008301526123b88161210f565b9050919050565b60006020820190506123d4600083018461214f565b92915050565b6000819050602082019050919050565b600081519050919050565b600081519050919050565b600081519050919050565b6000602082019050919050565b600082825260208201905092915050565b600081905092915050565b600082825260208201905092915050565b60006124508261251f565b915061245b8361251f565b9250827fffffffffffffffffffffffffffffffffffffffffffffffffffffffffffffffff038211156124905761248f6125a5565b5b828201905092915050565b60006124a68261251f565b91506124b18361251f565b9250828210156124c4576124c36125a5565b5b828203905092915050565b60006124da826124ff565b9050919050565b60006124ec826124ff565b9050919050565b60008115159050919050565b600073ffffffffffffffffffffffffffffffffffffffff82169050919050565b6000819050919050565b60005b8381101561254757808201518184015260208101905061252c565b83811115612556576000848401525b50505050565b60006125678261251f565b91507fffffffffffffffffffffffffffffffffffffffffffffffffffffffffffffffff82141561259a576125996125a5565b5b600182019050919050565b7f4e487b7100000000000000000000000000000000000000000000000000000000600052601160045260246000fd5b6000601f19601f8301169050919050565b6125ee816124cf565b81146125f957600080fd5b50565b612605816124e1565b811461261057600080fd5b50565b61261c816124f3565b811461262757600080fd5b50565b6126338161251f565b811461263e57600080fd5b5056fea2646970667358221220124cb58dd747c4ab286f303a099d99ed5977d809e7274b2d0bcbd94ae590cd1464736f6c63430008000033",
  "devdoc": {
    "kind": "dev",
    "methods": {
      "addWhitelistedService(address)": {
        "params": {
          "_service": "New service to add"
        }
      },
      "depositFunds(address,address,uint256)": {
        "params": {
          "_amount": "Amount to be credited",
          "_receiver": "Address receiving the credits",
          "_token": "Token to be credited, use \"0xeeee....\" for ETH"
        }
      },
      "getCreditTokensByUser(address)": {
        "params": {
          "_user": "User to get the balances from"
        }
      },
      "owner()": {
        "details": "Returns the address of the current owner."
      },
      "removeWhitelistedService(address)": {
        "params": {
          "_service": "Old service to remove"
        }
      },
      "renounceOwnership()": {
        "details": "Leaves the contract without owner. It will not be possible to call `onlyOwner` functions anymore. Can only be called by the current owner. NOTE: Renouncing ownership will leave the contract without an owner, thereby removing any functionality that is only available to the owner."
      },
      "transferOwnership(address)": {
        "details": "Transfers ownership of the contract to a new account (`newOwner`). Can only be called by the current owner."
      },
      "useFunds(address,uint256,address)": {
        "params": {
          "_amount": "Amount to be deducted",
          "_token": "Token to be used for payment by users",
          "_user": "Address of user whose balance will be deducted"
        }
      },
      "withdrawFunds(address,address,uint256)": {
        "params": {
          "_amount": "Amount to be credited",
          "_receiver": "Address receiving the credits",
          "_token": "Token to be credited, use \"0xeeee....\" for ETH"
        }
      }
    },
    "version": 1
  },
  "userdoc": {
    "kind": "user",
    "methods": {
      "addWhitelistedService(address)": {
        "notice": "Add new service that can call useFunds. Gelato Governance"
      },
      "depositFunds(address,address,uint256)": {
        "notice": "Function to deposit Funds which will be used to execute transactions on various services"
      },
      "getCreditTokensByUser(address)": {
        "notice": "Helper func to get all deposited tokens by a user"
      },
      "removeWhitelistedService(address)": {
        "notice": "Remove old service that can call useFunds. Gelato Governance"
      },
      "useFunds(address,uint256,address)": {
        "notice": "Function called by whitelisted services to handle payments, e.g. PokeMe\""
      },
      "withdrawFunds(address,address,uint256)": {
        "notice": "Function to withdraw Funds back to the _receiver"
      }
    },
    "version": 1
  },
  "storageLayout": {
    "storage": [
      {
        "astId": 7,
        "contract": "contracts/TaskTreasury.sol:TaskTreasury",
        "label": "_owner",
        "offset": 0,
        "slot": "0",
        "type": "t_address"
      },
      {
        "astId": 114,
        "contract": "contracts/TaskTreasury.sol:TaskTreasury",
        "label": "_status",
        "offset": 0,
        "slot": "1",
        "type": "t_uint256"
      },
      {
        "astId": 2084,
        "contract": "contracts/TaskTreasury.sol:TaskTreasury",
        "label": "userTokenBalance",
        "offset": 0,
        "slot": "2",
        "type": "t_mapping(t_address,t_mapping(t_address,t_uint256))"
      },
      {
        "astId": 2089,
        "contract": "contracts/TaskTreasury.sol:TaskTreasury",
        "label": "_tokenCredits",
        "offset": 0,
        "slot": "3",
        "type": "t_mapping(t_address,t_struct(AddressSet)1144_storage)"
      },
      {
        "astId": 2093,
        "contract": "contracts/TaskTreasury.sol:TaskTreasury",
        "label": "whitelistedServices",
        "offset": 0,
        "slot": "4",
        "type": "t_mapping(t_address,t_bool)"
      }
    ],
    "types": {
      "t_address": {
        "encoding": "inplace",
        "label": "address",
        "numberOfBytes": "20"
      },
      "t_array(t_bytes32)dyn_storage": {
        "base": "t_bytes32",
        "encoding": "dynamic_array",
        "label": "bytes32[]",
        "numberOfBytes": "32"
      },
      "t_bool": {
        "encoding": "inplace",
        "label": "bool",
        "numberOfBytes": "1"
      },
      "t_bytes32": {
        "encoding": "inplace",
        "label": "bytes32",
        "numberOfBytes": "32"
      },
      "t_mapping(t_address,t_bool)": {
        "encoding": "mapping",
        "key": "t_address",
        "label": "mapping(address => bool)",
        "numberOfBytes": "32",
        "value": "t_bool"
      },
      "t_mapping(t_address,t_mapping(t_address,t_uint256))": {
        "encoding": "mapping",
        "key": "t_address",
        "label": "mapping(address => mapping(address => uint256))",
        "numberOfBytes": "32",
        "value": "t_mapping(t_address,t_uint256)"
      },
      "t_mapping(t_address,t_struct(AddressSet)1144_storage)": {
        "encoding": "mapping",
        "key": "t_address",
        "label": "mapping(address => struct EnumerableSet.AddressSet)",
        "numberOfBytes": "32",
        "value": "t_struct(AddressSet)1144_storage"
      },
      "t_mapping(t_address,t_uint256)": {
        "encoding": "mapping",
        "key": "t_address",
        "label": "mapping(address => uint256)",
        "numberOfBytes": "32",
        "value": "t_uint256"
      },
      "t_mapping(t_bytes32,t_uint256)": {
        "encoding": "mapping",
        "key": "t_bytes32",
        "label": "mapping(bytes32 => uint256)",
        "numberOfBytes": "32",
        "value": "t_uint256"
      },
      "t_struct(AddressSet)1144_storage": {
        "encoding": "inplace",
        "label": "struct EnumerableSet.AddressSet",
        "members": [
          {
            "astId": 1143,
            "contract": "contracts/TaskTreasury.sol:TaskTreasury",
            "label": "_inner",
            "offset": 0,
            "slot": "0",
            "type": "t_struct(Set)873_storage"
          }
        ],
        "numberOfBytes": "64"
      },
      "t_struct(Set)873_storage": {
        "encoding": "inplace",
        "label": "struct EnumerableSet.Set",
        "members": [
          {
            "astId": 868,
            "contract": "contracts/TaskTreasury.sol:TaskTreasury",
            "label": "_values",
            "offset": 0,
            "slot": "0",
            "type": "t_array(t_bytes32)dyn_storage"
          },
          {
            "astId": 872,
            "contract": "contracts/TaskTreasury.sol:TaskTreasury",
            "label": "_indexes",
            "offset": 0,
            "slot": "1",
            "type": "t_mapping(t_bytes32,t_uint256)"
          }
        ],
        "numberOfBytes": "64"
      },
      "t_uint256": {
        "encoding": "inplace",
        "label": "uint256",
        "numberOfBytes": "32"
      }
    }
  }
}