{
  "address": "0x7315478b45D9801826C819202fc8B2db55e41504",
  "abi": [
    {
      "inputs": [
        {
          "internalType": "address payable",
          "name": "_gelato",
          "type": "address"
        }
      ],
      "stateMutability": "nonpayable",
      "type": "constructor"
    },
    {
      "anonymous": false,
      "inputs": [
        {
          "indexed": true,
          "internalType": "address",
          "name": "sender",
          "type": "address"
        },
        {
          "indexed": true,
          "internalType": "address",
          "name": "token",
          "type": "address"
        },
        {
          "indexed": true,
          "internalType": "uint256",
          "name": "amount",
          "type": "uint256"
        }
      ],
      "name": "FundsDeposited",
      "type": "event"
    },
    {
      "anonymous": false,
      "inputs": [
        {
          "indexed": true,
          "internalType": "address",
          "name": "receiver",
          "type": "address"
        },
        {
          "indexed": true,
          "internalType": "address",
          "name": "token",
          "type": "address"
        },
        {
          "indexed": false,
          "internalType": "uint256",
          "name": "amount",
          "type": "uint256"
        }
      ],
      "name": "FundsWithdrawn",
      "type": "event"
    },
    {
      "anonymous": false,
      "inputs": [
        {
          "indexed": true,
          "internalType": "address",
          "name": "previousOwner",
          "type": "address"
        },
        {
          "indexed": true,
          "internalType": "address",
          "name": "newOwner",
          "type": "address"
        }
      ],
      "name": "OwnershipTransferred",
      "type": "event"
    },
    {
      "inputs": [
        {
          "internalType": "address",
          "name": "_service",
          "type": "address"
        }
      ],
      "name": "addWhitelistedService",
      "outputs": [],
      "stateMutability": "nonpayable",
      "type": "function"
    },
    {
      "inputs": [
        {
          "internalType": "address",
          "name": "_receiver",
          "type": "address"
        },
        {
          "internalType": "address",
          "name": "_token",
          "type": "address"
        },
        {
          "internalType": "uint256",
          "name": "_amount",
          "type": "uint256"
        }
      ],
      "name": "depositFunds",
      "outputs": [],
      "stateMutability": "payable",
      "type": "function"
    },
    {
      "inputs": [],
      "name": "gelato",
      "outputs": [
        {
          "internalType": "address payable",
          "name": "",
          "type": "address"
        }
      ],
      "stateMutability": "view",
      "type": "function"
    },
    {
      "inputs": [
        {
          "internalType": "address",
          "name": "_callee",
          "type": "address"
        }
      ],
      "name": "getCreditTokensByUser",
      "outputs": [
        {
          "internalType": "address[]",
          "name": "",
          "type": "address[]"
        }
      ],
      "stateMutability": "view",
      "type": "function"
    },
    {
      "inputs": [],
      "name": "owner",
      "outputs": [
        {
          "internalType": "address",
          "name": "",
          "type": "address"
        }
      ],
      "stateMutability": "view",
      "type": "function"
    },
    {
      "inputs": [
        {
          "internalType": "address",
          "name": "_service",
          "type": "address"
        }
      ],
      "name": "removeWhitelistedService",
      "outputs": [],
      "stateMutability": "nonpayable",
      "type": "function"
    },
    {
      "inputs": [],
      "name": "renounceOwnership",
      "outputs": [],
      "stateMutability": "nonpayable",
      "type": "function"
    },
    {
      "inputs": [
        {
          "internalType": "address",
          "name": "newOwner",
          "type": "address"
        }
      ],
      "name": "transferOwnership",
      "outputs": [],
      "stateMutability": "nonpayable",
      "type": "function"
    },
    {
      "inputs": [
        {
          "internalType": "address",
          "name": "_token",
          "type": "address"
        },
        {
          "internalType": "uint256",
          "name": "_amount",
          "type": "uint256"
        },
        {
          "internalType": "address",
          "name": "_user",
          "type": "address"
        }
      ],
      "name": "useFunds",
      "outputs": [],
      "stateMutability": "nonpayable",
      "type": "function"
    },
    {
      "inputs": [
        {
          "internalType": "address",
          "name": "",
          "type": "address"
        },
        {
          "internalType": "address",
          "name": "",
          "type": "address"
        }
      ],
      "name": "userTokenBalance",
      "outputs": [
        {
          "internalType": "uint256",
          "name": "",
          "type": "uint256"
        }
      ],
      "stateMutability": "view",
      "type": "function"
    },
    {
      "inputs": [
        {
          "internalType": "address",
          "name": "",
          "type": "address"
        }
      ],
      "name": "whitelistedServices",
      "outputs": [
        {
          "internalType": "bool",
          "name": "",
          "type": "bool"
        }
      ],
      "stateMutability": "view",
      "type": "function"
    },
    {
      "inputs": [
        {
          "internalType": "address",
          "name": "_token",
          "type": "address"
        },
        {
          "internalType": "uint256",
          "name": "_amount",
          "type": "uint256"
        }
      ],
      "name": "withdrawFunds",
      "outputs": [],
      "stateMutability": "nonpayable",
      "type": "function"
    }
  ],
  "transactionHash": "0x4b3902c7d76669d343e6cbaf4d33bbc0be02f2727f354e32e5d072ede3ae2c8d",
  "args": [
    "0xCc4CcD69D31F9FfDBD3BFfDe49c6aA886DaB98d9"
  ],
  "solcInputHash": "4f969e9a70bc313f30c7e3719b021258",
  "bytecode": "0x60a06040523480156200001157600080fd5b506040516200276d3803806200276d83398181016040528101906200003791906200017f565b620000576200004b6200009c60201b60201c565b620000a460201b60201c565b600180819055508073ffffffffffffffffffffffffffffffffffffffff1660808173ffffffffffffffffffffffffffffffffffffffff1660601b8152505050620001f9565b600033905090565b60008060009054906101000a900473ffffffffffffffffffffffffffffffffffffffff169050816000806101000a81548173ffffffffffffffffffffffffffffffffffffffff021916908373ffffffffffffffffffffffffffffffffffffffff1602179055508173ffffffffffffffffffffffffffffffffffffffff168173ffffffffffffffffffffffffffffffffffffffff167f8be0079c531659141344cd1fd0a4f28419497f9722a3daafe3b4186f6b6457e060405160405180910390a35050565b6000815190506200017981620001df565b92915050565b6000602082840312156200019257600080fd5b6000620001a28482850162000168565b91505092915050565b6000620001b882620001bf565b9050919050565b600073ffffffffffffffffffffffffffffffffffffffff82169050919050565b620001ea81620001ab565b8114620001f657600080fd5b50565b60805160601c61254e6200021f600039600081816104680152610628015261254e6000f3fe6080604052600436106100a75760003560e01c8063b47064c811610064578063b47064c8146101a8578063c1075329146101e5578063c1461d571461020e578063c63aa0291461022a578063cb41cf6414610253578063f2fde38b14610290576100a7565b80632bf30a0e146100ac578063573ea575146100e95780636f192acc14610114578063715018a61461013d578063848f5f3d146101545780638da5cb5b1461017d575b600080fd5b3480156100b857600080fd5b506100d360048036038101906100ce9190611a12565b6102b9565b6040516100e0919061210e565b60405180910390f35b3480156100f557600080fd5b506100fe610466565b60405161010b9190612093565b60405180910390f35b34801561012057600080fd5b5061013b60048036038101906101369190611b02565b61048a565b005b34801561014957600080fd5b50610152610654565b005b34801561016057600080fd5b5061017b60048036038101906101769190611a12565b6106dc565b005b34801561018957600080fd5b50610192610846565b60405161019f9190612078565b60405180910390f35b3480156101b457600080fd5b506101cf60048036038101906101ca9190611a3b565b61086f565b6040516101dc91906122ad565b60405180910390f35b3480156101f157600080fd5b5061020c60048036038101906102079190611ac6565b610894565b005b61022860048036038101906102239190611a77565b610ad5565b005b34801561023657600080fd5b50610251600480360381019061024c9190611a12565b610e96565b005b34801561025f57600080fd5b5061027a60048036038101906102759190611a12565b611000565b6040516102879190612130565b60405180910390f35b34801561029c57600080fd5b506102b760048036038101906102b29190611a12565b611020565b005b60606000610304600360008573ffffffffffffffffffffffffffffffffffffffff1673ffffffffffffffffffffffffffffffffffffffff168152602001908152602001600020611118565b905060008167ffffffffffffffff811115610348577f4e487b7100000000000000000000000000000000000000000000000000000000600052604160045260246000fd5b6040519080825280602002602001820160405280156103765781602001602082028036833780820191505090505b50905060005b8281101561045b576103d581600360008873ffffffffffffffffffffffffffffffffffffffff1673ffffffffffffffffffffffffffffffffffffffff16815260200190815260200160002061112d90919063ffffffff16565b82828151811061040e577f4e487b7100000000000000000000000000000000000000000000000000000000600052603260045260246000fd5b602002602001019073ffffffffffffffffffffffffffffffffffffffff16908173ffffffffffffffffffffffffffffffffffffffff168152505080806104539061244a565b91505061037c565b508092505050919050565b7f000000000000000000000000000000000000000000000000000000000000000081565b600460003373ffffffffffffffffffffffffffffffffffffffff1673ffffffffffffffffffffffffffffffffffffffff16815260200190815260200160002060009054906101000a900460ff16610516576040517f08c379a000000000000000000000000000000000000000000000000000000000815260040161050d9061224d565b60405180910390fd5b6000600260008373ffffffffffffffffffffffffffffffffffffffff1673ffffffffffffffffffffffffffffffffffffffff16815260200190815260200160002060008573ffffffffffffffffffffffffffffffffffffffff1673ffffffffffffffffffffffffffffffffffffffff16815260200190815260200160002054905082816105a39190612389565b600260008473ffffffffffffffffffffffffffffffffffffffff1673ffffffffffffffffffffffffffffffffffffffff16815260200190815260200160002060008673ffffffffffffffffffffffffffffffffffffffff1673ffffffffffffffffffffffffffffffffffffffff1681526020019081526020016000208190555061064e7f00000000000000000000000000000000000000000000000000000000000000008585611147565b50505050565b61065c611252565b73ffffffffffffffffffffffffffffffffffffffff1661067a610846565b73ffffffffffffffffffffffffffffffffffffffff16146106d0576040517f08c379a00000000000000000000000000000000000000000000000000000000081526004016106c7906121ed565b60405180910390fd5b6106da600061125a565b565b6106e4611252565b73ffffffffffffffffffffffffffffffffffffffff16610702610846565b73ffffffffffffffffffffffffffffffffffffffff1614610758576040517f08c379a000000000000000000000000000000000000000000000000000000000815260040161074f906121ed565b60405180910390fd5b60011515600460008373ffffffffffffffffffffffffffffffffffffffff1673ffffffffffffffffffffffffffffffffffffffff16815260200190815260200160002060009054906101000a900460ff161515146107eb576040517f08c379a00000000000000000000000000000000000000000000000000000000081526004016107e29061218d565b60405180910390fd5b6000600460008373ffffffffffffffffffffffffffffffffffffffff1673ffffffffffffffffffffffffffffffffffffffff16815260200190815260200160002060006101000a81548160ff02191690831515021790555050565b60008060009054906101000a900473ffffffffffffffffffffffffffffffffffffffff16905090565b6002602052816000526040600020602052806000526040600020600091509150505481565b600260015414156108da576040517f08c379a00000000000000000000000000000000000000000000000000000000081526004016108d19061228d565b60405180910390fd5b60026001819055506000600260003373ffffffffffffffffffffffffffffffffffffffff1673ffffffffffffffffffffffffffffffffffffffff16815260200190815260200160002060008473ffffffffffffffffffffffffffffffffffffffff1673ffffffffffffffffffffffffffffffffffffffff168152602001908152602001600020549050600061096f828461131e565b9050808261097d9190612389565b600260003373ffffffffffffffffffffffffffffffffffffffff1673ffffffffffffffffffffffffffffffffffffffff16815260200190815260200160002060008673ffffffffffffffffffffffffffffffffffffffff1673ffffffffffffffffffffffffffffffffffffffff16815260200190815260200160002081905550610a08338583611147565b81811415610a6357610a6184600360003373ffffffffffffffffffffffffffffffffffffffff1673ffffffffffffffffffffffffffffffffffffffff16815260200190815260200160002061133790919063ffffffff16565b505b8373ffffffffffffffffffffffffffffffffffffffff163373ffffffffffffffffffffffffffffffffffffffff167fa92ff919b850e4909ab2261d907ef955f11bc1716733a6cbece38d163a69af8a83604051610ac091906122ad565b60405180910390a35050600180819055505050565b600073eeeeeeeeeeeeeeeeeeeeeeeeeeeeeeeeeeeeeeee73ffffffffffffffffffffffffffffffffffffffff168373ffffffffffffffffffffffffffffffffffffffff161415610b2757349050610c85565b600083905060008173ffffffffffffffffffffffffffffffffffffffff166370a08231306040518263ffffffff1660e01b8152600401610b679190612078565b60206040518083038186803b158015610b7f57600080fd5b505afa158015610b93573d6000803e3d6000fd5b505050506040513d601f19601f82011682018060405250810190610bb79190611b7a565b9050610be63330868573ffffffffffffffffffffffffffffffffffffffff16611367909392919063ffffffff16565b60008273ffffffffffffffffffffffffffffffffffffffff166370a08231306040518263ffffffff1660e01b8152600401610c219190612078565b60206040518083038186803b158015610c3957600080fd5b505afa158015610c4d573d6000803e3d6000fd5b505050506040513d601f19601f82011682018060405250810190610c719190611b7a565b90508181610c7f9190612389565b93505050505b80600260008673ffffffffffffffffffffffffffffffffffffffff1673ffffffffffffffffffffffffffffffffffffffff16815260200190815260200160002060008573ffffffffffffffffffffffffffffffffffffffff1673ffffffffffffffffffffffffffffffffffffffff16815260200190815260200160002054610d0d9190612333565b600260008673ffffffffffffffffffffffffffffffffffffffff1673ffffffffffffffffffffffffffffffffffffffff16815260200190815260200160002060008573ffffffffffffffffffffffffffffffffffffffff1673ffffffffffffffffffffffffffffffffffffffff16815260200190815260200160002081905550610dde83600360003373ffffffffffffffffffffffffffffffffffffffff1673ffffffffffffffffffffffffffffffffffffffff1681526020019081526020016000206113f090919063ffffffff16565b610e3557610e3383600360003373ffffffffffffffffffffffffffffffffffffffff1673ffffffffffffffffffffffffffffffffffffffff16815260200190815260200160002061142090919063ffffffff16565b505b808373ffffffffffffffffffffffffffffffffffffffff168573ffffffffffffffffffffffffffffffffffffffff167ff0d0e99cae184d0187b093b48894117462462379674a6e11d89c3fbb618e96b060405160405180910390a450505050565b610e9e611252565b73ffffffffffffffffffffffffffffffffffffffff16610ebc610846565b73ffffffffffffffffffffffffffffffffffffffff1614610f12576040517f08c379a0000000000000000000000000000000000000000000000000000000008152600401610f09906121ed565b60405180910390fd5b60001515600460008373ffffffffffffffffffffffffffffffffffffffff1673ffffffffffffffffffffffffffffffffffffffff16815260200190815260200160002060009054906101000a900460ff16151514610fa5576040517f08c379a0000000000000000000000000000000000000000000000000000000008152600401610f9c9061220d565b60405180910390fd5b6001600460008373ffffffffffffffffffffffffffffffffffffffff1673ffffffffffffffffffffffffffffffffffffffff16815260200190815260200160002060006101000a81548160ff02191690831515021790555050565b60046020528060005260406000206000915054906101000a900460ff1681565b611028611252565b73ffffffffffffffffffffffffffffffffffffffff16611046610846565b73ffffffffffffffffffffffffffffffffffffffff161461109c576040517f08c379a0000000000000000000000000000000000000000000000000000000008152600401611093906121ed565b60405180910390fd5b600073ffffffffffffffffffffffffffffffffffffffff168173ffffffffffffffffffffffffffffffffffffffff16141561110c576040517f08c379a00000000000000000000000000000000000000000000000000000000081526004016111039061216d565b60405180910390fd5b6111158161125a565b50565b600061112682600001611450565b9050919050565b600061113c8360000183611461565b60001c905092915050565b73eeeeeeeeeeeeeeeeeeeeeeeeeeeeeeeeeeeeeeee73ffffffffffffffffffffffffffffffffffffffff168273ffffffffffffffffffffffffffffffffffffffff1614156112415760008373ffffffffffffffffffffffffffffffffffffffff16826040516111b590612063565b60006040518083038185875af1925050503d80600081146111f2576040519150601f19603f3d011682016040523d82523d6000602084013e6111f7565b606091505b505090508061123b576040517f08c379a0000000000000000000000000000000000000000000000000000000008152600401611232906121cd565b60405180910390fd5b5061124d565b61124c8284836114b2565b5b505050565b600033905090565b60008060009054906101000a900473ffffffffffffffffffffffffffffffffffffffff169050816000806101000a81548173ffffffffffffffffffffffffffffffffffffffff021916908373ffffffffffffffffffffffffffffffffffffffff1602179055508173ffffffffffffffffffffffffffffffffffffffff168173ffffffffffffffffffffffffffffffffffffffff167f8be0079c531659141344cd1fd0a4f28419497f9722a3daafe3b4186f6b6457e060405160405180910390a35050565b600081831061132d578161132f565b825b905092915050565b600061135f836000018373ffffffffffffffffffffffffffffffffffffffff1660001b611538565b905092915050565b6113ea846323b872dd60e01b858585604051602401611388939291906120ae565b604051602081830303815290604052907bffffffffffffffffffffffffffffffffffffffffffffffffffffffff19166020820180517bffffffffffffffffffffffffffffffffffffffffffffffffffffffff83818316178352505050506116be565b50505050565b6000611418836000018373ffffffffffffffffffffffffffffffffffffffff1660001b611785565b905092915050565b6000611448836000018373ffffffffffffffffffffffffffffffffffffffff1660001b6117a8565b905092915050565b600081600001805490509050919050565b600082600001828154811061149f577f4e487b7100000000000000000000000000000000000000000000000000000000600052603260045260246000fd5b9060005260206000200154905092915050565b6115338363a9059cbb60e01b84846040516024016114d19291906120e5565b604051602081830303815290604052907bffffffffffffffffffffffffffffffffffffffffffffffffffffffff19166020820180517bffffffffffffffffffffffffffffffffffffffffffffffffffffffff83818316178352505050506116be565b505050565b600080836001016000848152602001908152602001600020549050600081146116b257600060018261156a9190612389565b90506000600186600001805490506115829190612389565b905081811461163d5760008660000182815481106115c9577f4e487b7100000000000000000000000000000000000000000000000000000000600052603260045260246000fd5b9060005260206000200154905080876000018481548110611613577f4e487b7100000000000000000000000000000000000000000000000000000000600052603260045260246000fd5b90600052602060002001819055508387600101600083815260200190815260200160002081905550505b85600001805480611677577f4e487b7100000000000000000000000000000000000000000000000000000000600052603160045260246000fd5b6001900381819060005260206000200160009055905585600101600086815260200190815260200160002060009055600193505050506116b8565b60009150505b92915050565b6000611720826040518060400160405280602081526020017f5361666545524332303a206c6f772d6c6576656c2063616c6c206661696c65648152508573ffffffffffffffffffffffffffffffffffffffff166118189092919063ffffffff16565b905060008151111561178057808060200190518101906117409190611b51565b61177f576040517f08c379a00000000000000000000000000000000000000000000000000000000081526004016117769061226d565b60405180910390fd5b5b505050565b600080836001016000848152602001908152602001600020541415905092915050565b60006117b48383611785565b61180d578260000182908060018154018082558091505060019003906000526020600020016000909190919091505582600001805490508360010160008481526020019081526020016000208190555060019050611812565b600090505b92915050565b60606118278484600085611830565b90509392505050565b606082471015611875576040517f08c379a000000000000000000000000000000000000000000000000000000000815260040161186c906121ad565b60405180910390fd5b61187e85611944565b6118bd576040517f08c379a00000000000000000000000000000000000000000000000000000000081526004016118b49061222d565b60405180910390fd5b6000808673ffffffffffffffffffffffffffffffffffffffff1685876040516118e6919061204c565b60006040518083038185875af1925050503d8060008114611923576040519150601f19603f3d011682016040523d82523d6000602084013e611928565b606091505b5091509150611938828286611957565b92505050949350505050565b600080823b905060008111915050919050565b60608315611967578290506119b7565b60008351111561197a5782518084602001fd5b816040517f08c379a00000000000000000000000000000000000000000000000000000000081526004016119ae919061214b565b60405180910390fd5b9392505050565b6000813590506119cd816124d3565b92915050565b6000815190506119e2816124ea565b92915050565b6000813590506119f781612501565b92915050565b600081519050611a0c81612501565b92915050565b600060208284031215611a2457600080fd5b6000611a32848285016119be565b91505092915050565b60008060408385031215611a4e57600080fd5b6000611a5c858286016119be565b9250506020611a6d858286016119be565b9150509250929050565b600080600060608486031215611a8c57600080fd5b6000611a9a868287016119be565b9350506020611aab868287016119be565b9250506040611abc868287016119e8565b9150509250925092565b60008060408385031215611ad957600080fd5b6000611ae7858286016119be565b9250506020611af8858286016119e8565b9150509250929050565b600080600060608486031215611b1757600080fd5b6000611b25868287016119be565b9350506020611b36868287016119e8565b9250506040611b47868287016119be565b9150509250925092565b600060208284031215611b6357600080fd5b6000611b71848285016119d3565b91505092915050565b600060208284031215611b8c57600080fd5b6000611b9a848285016119fd565b91505092915050565b6000611baf8383611bca565b60208301905092915050565b611bc4816123cf565b82525050565b611bd3816123bd565b82525050565b611be2816123bd565b82525050565b6000611bf3826122d8565b611bfd8185612306565b9350611c08836122c8565b8060005b83811015611c39578151611c208882611ba3565b9750611c2b836122f9565b925050600181019050611c0c565b5085935050505092915050565b611c4f816123e1565b82525050565b6000611c60826122e3565b611c6a8185612317565b9350611c7a818560208601612417565b80840191505092915050565b6000611c91826122ee565b611c9b8185612322565b9350611cab818560208601612417565b611cb4816124c2565b840191505092915050565b6000611ccc602683612322565b91507f4f776e61626c653a206e6577206f776e657220697320746865207a65726f206160008301527f64647265737300000000000000000000000000000000000000000000000000006020830152604082019050919050565b6000611d32603183612322565b91507f5461736b54726561737572793a2061646457686974656c69737465645365727660008301527f6963653a202177686974656c69737465640000000000000000000000000000006020830152604082019050919050565b6000611d98602683612322565b91507f416464726573733a20696e73756666696369656e742062616c616e636520666f60008301527f722063616c6c00000000000000000000000000000000000000000000000000006020830152604082019050919050565b6000611dfe601e83612322565b91507f5f7472616e736665723a20455448207472616e73666572206661696c656400006000830152602082019050919050565b6000611e3e602083612322565b91507f4f776e61626c653a2063616c6c6572206973206e6f7420746865206f776e65726000830152602082019050919050565b6000611e7e603083612322565b91507f5461736b54726561737572793a2061646457686974656c69737465645365727660008301527f6963653a2077686974656c6973746564000000000000000000000000000000006020830152604082019050919050565b6000611ee4600083612317565b9150600082019050919050565b6000611efe601d83612322565b91507f416464726573733a2063616c6c20746f206e6f6e2d636f6e74726163740000006000830152602082019050919050565b6000611f3e602583612322565b91507f5461736b54726561737572793a206f6e6c7957686974656c697374656453657260008301527f76696365730000000000000000000000000000000000000000000000000000006020830152604082019050919050565b6000611fa4602a83612322565b91507f5361666545524332303a204552433230206f7065726174696f6e20646964206e60008301527f6f742073756363656564000000000000000000000000000000000000000000006020830152604082019050919050565b600061200a601f83612322565b91507f5265656e7472616e637947756172643a207265656e7472616e742063616c6c006000830152602082019050919050565b6120468161240d565b82525050565b60006120588284611c55565b915081905092915050565b600061206e82611ed7565b9150819050919050565b600060208201905061208d6000830184611bd9565b92915050565b60006020820190506120a86000830184611bbb565b92915050565b60006060820190506120c36000830186611bd9565b6120d06020830185611bd9565b6120dd604083018461203d565b949350505050565b60006040820190506120fa6000830185611bd9565b612107602083018461203d565b9392505050565b600060208201905081810360008301526121288184611be8565b905092915050565b60006020820190506121456000830184611c46565b92915050565b600060208201905081810360008301526121658184611c86565b905092915050565b6000602082019050818103600083015261218681611cbf565b9050919050565b600060208201905081810360008301526121a681611d25565b9050919050565b600060208201905081810360008301526121c681611d8b565b9050919050565b600060208201905081810360008301526121e681611df1565b9050919050565b6000602082019050818103600083015261220681611e31565b9050919050565b6000602082019050818103600083015261222681611e71565b9050919050565b6000602082019050818103600083015261224681611ef1565b9050919050565b6000602082019050818103600083015261226681611f31565b9050919050565b6000602082019050818103600083015261228681611f97565b9050919050565b600060208201905081810360008301526122a681611ffd565b9050919050565b60006020820190506122c2600083018461203d565b92915050565b6000819050602082019050919050565b600081519050919050565b600081519050919050565b600081519050919050565b6000602082019050919050565b600082825260208201905092915050565b600081905092915050565b600082825260208201905092915050565b600061233e8261240d565b91506123498361240d565b9250827fffffffffffffffffffffffffffffffffffffffffffffffffffffffffffffffff0382111561237e5761237d612493565b5b828201905092915050565b60006123948261240d565b915061239f8361240d565b9250828210156123b2576123b1612493565b5b828203905092915050565b60006123c8826123ed565b9050919050565b60006123da826123ed565b9050919050565b60008115159050919050565b600073ffffffffffffffffffffffffffffffffffffffff82169050919050565b6000819050919050565b60005b8381101561243557808201518184015260208101905061241a565b83811115612444576000848401525b50505050565b60006124558261240d565b91507fffffffffffffffffffffffffffffffffffffffffffffffffffffffffffffffff82141561248857612487612493565b5b600182019050919050565b7f4e487b7100000000000000000000000000000000000000000000000000000000600052601160045260246000fd5b6000601f19601f8301169050919050565b6124dc816123bd565b81146124e757600080fd5b50565b6124f3816123e1565b81146124fe57600080fd5b50565b61250a8161240d565b811461251557600080fd5b5056fea26469706673582212206e7960011ab4b760690fc0174359afff8c79641553a840d65a37b3b91611406f64736f6c63430008000033",
  "devdoc": {
    "kind": "dev",
    "methods": {
      "owner()": {
        "details": "Returns the address of the current owner."
      },
      "renounceOwnership()": {
        "details": "Leaves the contract without owner. It will not be possible to call `onlyOwner` functions anymore. Can only be called by the current owner. NOTE: Renouncing ownership will leave the contract without an owner, thereby removing any functionality that is only available to the owner."
      },
      "transferOwnership(address)": {
        "details": "Transfers ownership of the contract to a new account (`newOwner`). Can only be called by the current owner."
      }
    },
    "version": 1
  },
  "userdoc": {
    "kind": "user",
    "methods": {},
    "version": 1
  },
  "storageLayout": {
    "storage": [
      {
        "astId": 7,
        "contract": "contracts/TaskTreasury.sol:TaskTreasury",
        "label": "_owner",
        "offset": 0,
        "slot": "0",
        "type": "t_address"
      },
      {
        "astId": 114,
        "contract": "contracts/TaskTreasury.sol:TaskTreasury",
        "label": "_status",
        "offset": 0,
        "slot": "1",
        "type": "t_uint256"
      },
      {
        "astId": 2667,
        "contract": "contracts/TaskTreasury.sol:TaskTreasury",
        "label": "userTokenBalance",
        "offset": 0,
        "slot": "2",
        "type": "t_mapping(t_address,t_mapping(t_address,t_uint256))"
      },
      {
        "astId": 2672,
        "contract": "contracts/TaskTreasury.sol:TaskTreasury",
        "label": "_tokenCredits",
        "offset": 0,
        "slot": "3",
        "type": "t_mapping(t_address,t_struct(AddressSet)1456_storage)"
      },
      {
        "astId": 2676,
        "contract": "contracts/TaskTreasury.sol:TaskTreasury",
        "label": "whitelistedServices",
        "offset": 0,
        "slot": "4",
        "type": "t_mapping(t_address,t_bool)"
      }
    ],
    "types": {
      "t_address": {
        "encoding": "inplace",
        "label": "address",
        "numberOfBytes": "20"
      },
      "t_array(t_bytes32)dyn_storage": {
        "base": "t_bytes32",
        "encoding": "dynamic_array",
        "label": "bytes32[]",
        "numberOfBytes": "32"
      },
      "t_bool": {
        "encoding": "inplace",
        "label": "bool",
        "numberOfBytes": "1"
      },
      "t_bytes32": {
        "encoding": "inplace",
        "label": "bytes32",
        "numberOfBytes": "32"
      },
      "t_mapping(t_address,t_bool)": {
        "encoding": "mapping",
        "key": "t_address",
        "label": "mapping(address => bool)",
        "numberOfBytes": "32",
        "value": "t_bool"
      },
      "t_mapping(t_address,t_mapping(t_address,t_uint256))": {
        "encoding": "mapping",
        "key": "t_address",
        "label": "mapping(address => mapping(address => uint256))",
        "numberOfBytes": "32",
        "value": "t_mapping(t_address,t_uint256)"
      },
      "t_mapping(t_address,t_struct(AddressSet)1456_storage)": {
        "encoding": "mapping",
        "key": "t_address",
        "label": "mapping(address => struct EnumerableSet.AddressSet)",
        "numberOfBytes": "32",
        "value": "t_struct(AddressSet)1456_storage"
      },
      "t_mapping(t_address,t_uint256)": {
        "encoding": "mapping",
        "key": "t_address",
        "label": "mapping(address => uint256)",
        "numberOfBytes": "32",
        "value": "t_uint256"
      },
      "t_mapping(t_bytes32,t_uint256)": {
        "encoding": "mapping",
        "key": "t_bytes32",
        "label": "mapping(bytes32 => uint256)",
        "numberOfBytes": "32",
        "value": "t_uint256"
      },
      "t_struct(AddressSet)1456_storage": {
        "encoding": "inplace",
        "label": "struct EnumerableSet.AddressSet",
        "members": [
          {
            "astId": 1455,
            "contract": "contracts/TaskTreasury.sol:TaskTreasury",
            "label": "_inner",
            "offset": 0,
            "slot": "0",
            "type": "t_struct(Set)1185_storage"
          }
        ],
        "numberOfBytes": "64"
      },
      "t_struct(Set)1185_storage": {
        "encoding": "inplace",
        "label": "struct EnumerableSet.Set",
        "members": [
          {
            "astId": 1180,
            "contract": "contracts/TaskTreasury.sol:TaskTreasury",
            "label": "_values",
            "offset": 0,
            "slot": "0",
            "type": "t_array(t_bytes32)dyn_storage"
          },
          {
            "astId": 1184,
            "contract": "contracts/TaskTreasury.sol:TaskTreasury",
            "label": "_indexes",
            "offset": 0,
            "slot": "1",
            "type": "t_mapping(t_bytes32,t_uint256)"
          }
        ],
        "numberOfBytes": "64"
      },
      "t_uint256": {
        "encoding": "inplace",
        "label": "uint256",
        "numberOfBytes": "32"
      }
    }
  }
}