{
  "address": "0x71b9d65d2bCBD3787fb63840223A4d12D0951C8E",
  "abi": [
    {
      "inputs": [
        {
          "internalType": "address",
          "name": "_counter",
          "type": "address"
        }
      ],
      "stateMutability": "nonpayable",
      "type": "constructor"
    },
    {
      "inputs": [],
      "name": "COUNTER",
      "outputs": [
        {
          "internalType": "address",
          "name": "",
          "type": "address"
        }
      ],
      "stateMutability": "view",
      "type": "function"
    },
    {
      "inputs": [],
      "name": "checker",
      "outputs": [
        {
          "internalType": "bool",
          "name": "canExec",
          "type": "bool"
        },
        {
          "internalType": "bytes",
          "name": "execPayload",
          "type": "bytes"
        }
      ],
      "stateMutability": "view",
      "type": "function"
    }
  ],
  "transactionHash": "0x0236af9fdaa53a5a0f18b6738de454f011a7d98462d7e61ffd2e5b88b35d683c",
  "args": [
    "0x0003A8C88cd2901C18944518Df01354B634E8AA0"
  ],
  "numDeployments": 1,
  "solcInputHash": "07324167f4bf468b271334a7271a4559",
  "bytecode": "0x60a060405234801561001057600080fd5b50604051610549380380610549833981810160405281019061003291906100cf565b8073ffffffffffffffffffffffffffffffffffffffff1660808173ffffffffffffffffffffffffffffffffffffffff1681525050506100fc565b600080fd5b600073ffffffffffffffffffffffffffffffffffffffff82169050919050565b600061009c82610071565b9050919050565b6100ac81610091565b81146100b757600080fd5b50565b6000815190506100c9816100a3565b92915050565b6000602082840312156100e5576100e461006c565b5b60006100f3848285016100ba565b91505092915050565b60805161042d61011c60003960008181607a015260a4015261042d6000f3fe608060405234801561001057600080fd5b50600436106100365760003560e01c806399b705791461003b578063cf5303cf14610059575b600080fd5b610043610078565b6040516100509190610203565b60405180910390f35b61006161009c565b60405161006f9291906102d2565b60405180910390f35b7f000000000000000000000000000000000000000000000000000000000000000081565b6000606060007f000000000000000000000000000000000000000000000000000000000000000073ffffffffffffffffffffffffffffffffffffffff16631c15ff776040518163ffffffff1660e01b8152600401602060405180830381865afa15801561010d573d6000803e3d6000fd5b505050506040513d601f19601f82011682018060405250810190610131919061033d565b905060b481426101419190610399565b1192506346d4adf260e01b606460405160240161015e91906103dc565b604051602081830303815290604052907bffffffffffffffffffffffffffffffffffffffffffffffffffffffff19166020820180517bffffffffffffffffffffffffffffffffffffffffffffffffffffffff83818316178352505050509150509091565b600073ffffffffffffffffffffffffffffffffffffffff82169050919050565b60006101ed826101c2565b9050919050565b6101fd816101e2565b82525050565b600060208201905061021860008301846101f4565b92915050565b60008115159050919050565b6102338161021e565b82525050565b600081519050919050565b600082825260208201905092915050565b60005b83811015610273578082015181840152602081019050610258565b83811115610282576000848401525b50505050565b6000601f19601f8301169050919050565b60006102a482610239565b6102ae8185610244565b93506102be818560208601610255565b6102c781610288565b840191505092915050565b60006040820190506102e7600083018561022a565b81810360208301526102f98184610299565b90509392505050565b600080fd5b6000819050919050565b61031a81610307565b811461032557600080fd5b50565b60008151905061033781610311565b92915050565b60006020828403121561035357610352610302565b5b600061036184828501610328565b91505092915050565b7f4e487b7100000000000000000000000000000000000000000000000000000000600052601160045260246000fd5b60006103a482610307565b91506103af83610307565b9250828210156103c2576103c161036a565b5b828203905092915050565b6103d681610307565b82525050565b60006020820190506103f160008301846103cd565b9291505056fea2646970667358221220824d0a139e393e1c87292f26c448a2a164e5ef44c81d9ed5577555a159187eaf64736f6c634300080c0033",
  "devdoc": {
    "kind": "dev",
    "methods": {},
    "version": 1
  },
  "userdoc": {
    "kind": "user",
    "methods": {},
    "version": 1
  },
  "storageLayout": {
    "storage": [],
    "types": null
  }
}