{
  "address": "0x0c685e0414F6651fCa613f16B24FCF5dcEDd3338",
  "abi": [
    {
      "inputs": [
        {
          "internalType": "address payable",
          "name": "_ops",
          "type": "address"
        }
      ],
      "stateMutability": "nonpayable",
      "type": "constructor"
    },
    {
      "inputs": [],
      "name": "ETH",
      "outputs": [
        {
          "internalType": "address",
          "name": "",
          "type": "address"
        }
      ],
      "stateMutability": "view",
      "type": "function"
    },
    {
      "inputs": [],
      "name": "count",
      "outputs": [
        {
          "internalType": "uint256",
          "name": "",
          "type": "uint256"
        }
      ],
      "stateMutability": "view",
      "type": "function"
    },
    {
      "inputs": [],
      "name": "executable",
      "outputs": [
        {
          "internalType": "bool",
          "name": "",
          "type": "bool"
        }
      ],
      "stateMutability": "view",
      "type": "function"
    },
    {
      "inputs": [],
      "name": "gelato",
      "outputs": [
        {
          "internalType": "address payable",
          "name": "",
          "type": "address"
        }
      ],
      "stateMutability": "view",
      "type": "function"
    },
    {
      "inputs": [
        {
          "internalType": "uint256",
          "name": "amount",
          "type": "uint256"
        }
      ],
      "name": "increaseCount",
      "outputs": [],
      "stateMutability": "nonpayable",
      "type": "function"
    },
    {
      "inputs": [],
      "name": "ops",
      "outputs": [
        {
          "internalType": "address",
          "name": "",
          "type": "address"
        }
      ],
      "stateMutability": "view",
      "type": "function"
    },
    {
      "inputs": [
        {
          "internalType": "bool",
          "name": "_executable",
          "type": "bool"
        }
      ],
      "name": "setExecutable",
      "outputs": [],
      "stateMutability": "nonpayable",
      "type": "function"
    }
  ],
  "transactionHash": "0xf806b97491a5aaf573e185138008944df74372e8f87e3f28451af1a7ef34e922",
  "args": [
    "0x255F82563b5973264e89526345EcEa766DB3baB2"
  ],
  "numDeployments": 1,
  "solcInputHash": "07324167f4bf468b271334a7271a4559",
  "bytecode": "0x60c060405234801561001057600080fd5b5060405161082d38038061082d83398181016040528101906100329190610173565b808073ffffffffffffffffffffffffffffffffffffffff1660808173ffffffffffffffffffffffffffffffffffffffff16815250508073ffffffffffffffffffffffffffffffffffffffff1663573ea5756040518163ffffffff1660e01b8152600401602060405180830381865afa1580156100b2573d6000803e3d6000fd5b505050506040513d601f19601f820116820180604052508101906100d69190610173565b73ffffffffffffffffffffffffffffffffffffffff1660a08173ffffffffffffffffffffffffffffffffffffffff168152505050506101a0565b600080fd5b600073ffffffffffffffffffffffffffffffffffffffff82169050919050565b600061014082610115565b9050919050565b61015081610135565b811461015b57600080fd5b50565b60008151905061016d81610147565b92915050565b60006020828403121561018957610188610110565b5b60006101978482850161015e565b91505092915050565b60805160a0516106616101cc600039600061026301526000818161016b01526102bc01526106616000f3fe608060405234801561001057600080fd5b506004361061007d5760003560e01c8063573ea5751161005b578063573ea575146100da5780638322fff2146100f8578063bfdd1c8914610116578063e70abe92146101325761007d565b806306661abd1461008257806316131a18146100a057806346d4adf2146100be575b600080fd5b61008a610150565b60405161009791906102f7565b60405180910390f35b6100a8610156565b6040516100b5919061032d565b60405180910390f35b6100d860048036038101906100d39190610379565b610169565b005b6100e2610261565b6040516100ef91906103e7565b60405180910390f35b610100610285565b60405161010d9190610423565b60405180910390f35b610130600480360381019061012b919061046a565b61029d565b005b61013a6102ba565b6040516101479190610423565b60405180910390f35b60005481565b600160009054906101000a900460ff1681565b7f000000000000000000000000000000000000000000000000000000000000000073ffffffffffffffffffffffffffffffffffffffff163373ffffffffffffffffffffffffffffffffffffffff16146101f7576040517f08c379a00000000000000000000000000000000000000000000000000000000081526004016101ee906104f4565b60405180910390fd5b600160009054906101000a900460ff16610246576040517f08c379a000000000000000000000000000000000000000000000000000000000815260040161023d90610586565b60405180910390fd5b8060008082825461025791906105d5565b9250508190555050565b7f000000000000000000000000000000000000000000000000000000000000000081565b73eeeeeeeeeeeeeeeeeeeeeeeeeeeeeeeeeeeeeeee81565b80600160006101000a81548160ff02191690831515021790555050565b7f000000000000000000000000000000000000000000000000000000000000000081565b6000819050919050565b6102f1816102de565b82525050565b600060208201905061030c60008301846102e8565b92915050565b60008115159050919050565b61032781610312565b82525050565b6000602082019050610342600083018461031e565b92915050565b600080fd5b610356816102de565b811461036157600080fd5b50565b6000813590506103738161034d565b92915050565b60006020828403121561038f5761038e610348565b5b600061039d84828501610364565b91505092915050565b600073ffffffffffffffffffffffffffffffffffffffff82169050919050565b60006103d1826103a6565b9050919050565b6103e1816103c6565b82525050565b60006020820190506103fc60008301846103d8565b92915050565b600061040d826103a6565b9050919050565b61041d81610402565b82525050565b60006020820190506104386000830184610414565b92915050565b61044781610312565b811461045257600080fd5b50565b6000813590506104648161043e565b92915050565b6000602082840312156104805761047f610348565b5b600061048e84828501610455565b91505092915050565b600082825260208201905092915050565b7f4f707352656164793a206f6e6c794f7073000000000000000000000000000000600082015250565b60006104de601183610497565b91506104e9826104a8565b602082019050919050565b6000602082019050818103600083015261050d816104d1565b9050919050565b7f436f756e74657254696d65645461736b3a20696e637265617365436f756e743a60008201527f204e6f742065786563757461626c650000000000000000000000000000000000602082015250565b6000610570602f83610497565b915061057b82610514565b604082019050919050565b6000602082019050818103600083015261059f81610563565b9050919050565b7f4e487b7100000000000000000000000000000000000000000000000000000000600052601160045260246000fd5b60006105e0826102de565b91506105eb836102de565b9250827fffffffffffffffffffffffffffffffffffffffffffffffffffffffffffffffff038211156106205761061f6105a6565b5b82820190509291505056fea2646970667358221220e209ac0fab1166fc56bbbb4ac05820fccc02cc8538db5c5e5606a1683938784764736f6c634300080c0033",
  "devdoc": {
    "kind": "dev",
    "methods": {},
    "version": 1
  },
  "userdoc": {
    "kind": "user",
    "methods": {},
    "version": 1
  },
  "storageLayout": {
    "storage": [
      {
        "astId": 3420,
        "contract": "contracts/mocks/CounterTimedTask.sol:CounterTimedTask",
        "label": "count",
        "offset": 0,
        "slot": "0",
        "type": "t_uint256"
      },
      {
        "astId": 3422,
        "contract": "contracts/mocks/CounterTimedTask.sol:CounterTimedTask",
        "label": "executable",
        "offset": 0,
        "slot": "1",
        "type": "t_bool"
      }
    ],
    "types": {
      "t_bool": {
        "encoding": "inplace",
        "label": "bool",
        "numberOfBytes": "1"
      },
      "t_uint256": {
        "encoding": "inplace",
        "label": "uint256",
        "numberOfBytes": "32"
      }
    }
  }
}