{
  "address": "0x0003A8C88cd2901C18944518Df01354B634E8AA0",
  "abi": [
    {
      "inputs": [
        {
          "internalType": "address",
          "name": "_ops",
          "type": "address"
        }
      ],
      "stateMutability": "nonpayable",
      "type": "constructor"
    },
    {
      "inputs": [],
      "name": "ETH",
      "outputs": [
        {
          "internalType": "address",
          "name": "",
          "type": "address"
        }
      ],
      "stateMutability": "view",
      "type": "function"
    },
    {
      "inputs": [],
      "name": "count",
      "outputs": [
        {
          "internalType": "uint256",
          "name": "",
          "type": "uint256"
        }
      ],
      "stateMutability": "view",
      "type": "function"
    },
    {
      "inputs": [],
      "name": "gelato",
      "outputs": [
        {
          "internalType": "address payable",
          "name": "",
          "type": "address"
        }
      ],
      "stateMutability": "view",
      "type": "function"
    },
    {
      "inputs": [
        {
          "internalType": "uint256",
          "name": "amount",
          "type": "uint256"
        }
      ],
      "name": "increaseCount",
      "outputs": [],
      "stateMutability": "nonpayable",
      "type": "function"
    },
    {
      "inputs": [],
      "name": "lastExecuted",
      "outputs": [
        {
          "internalType": "uint256",
          "name": "",
          "type": "uint256"
        }
      ],
      "stateMutability": "view",
      "type": "function"
    },
    {
      "inputs": [],
      "name": "ops",
      "outputs": [
        {
          "internalType": "address",
          "name": "",
          "type": "address"
        }
      ],
      "stateMutability": "view",
      "type": "function"
    },
    {
      "stateMutability": "payable",
      "type": "receive"
    }
  ],
  "transactionHash": "0xdd0022a79df40de3a9b20bee7aa97019766157cef8215490ff212919a43ff0e9",
  "args": [
    "0x255F82563b5973264e89526345EcEa766DB3baB2"
  ],
  "numDeployments": 1,
  "solcInputHash": "07324167f4bf468b271334a7271a4559",
  "bytecode": "0x60c06040523480156200001157600080fd5b50604051620011a7380380620011a7833981810160405281019062000037919062000183565b808073ffffffffffffffffffffffffffffffffffffffff1660808173ffffffffffffffffffffffffffffffffffffffff16815250508073ffffffffffffffffffffffffffffffffffffffff1663573ea5756040518163ffffffff1660e01b8152600401602060405180830381865afa158015620000b8573d6000803e3d6000fd5b505050506040513d601f19601f82011682018060405250810190620000de9190620001fa565b73ffffffffffffffffffffffffffffffffffffffff1660a08173ffffffffffffffffffffffffffffffffffffffff168152505050506200022c565b600080fd5b600073ffffffffffffffffffffffffffffffffffffffff82169050919050565b60006200014b826200011e565b9050919050565b6200015d816200013e565b81146200016957600080fd5b50565b6000815190506200017d8162000152565b92915050565b6000602082840312156200019c576200019b62000119565b5b6000620001ac848285016200016c565b91505092915050565b6000620001c2826200011e565b9050919050565b620001d481620001b5565b8114620001e057600080fd5b50565b600081519050620001f481620001c9565b92915050565b60006020828403121562000213576200021262000119565b5b60006200022384828501620001e3565b91505092915050565b60805160a051610f396200026e60003960008181610318015281816103c201526104960152600081816101730152818161027301526103540152610f396000f3fe6080604052600436106100595760003560e01c806306661abd146100655780631c15ff771461009057806346d4adf2146100bb578063573ea575146100e45780638322fff21461010f578063e70abe921461013a57610060565b3661006057005b600080fd5b34801561007157600080fd5b5061007a610165565b60405161008791906107dc565b60405180910390f35b34801561009c57600080fd5b506100a561016b565b6040516100b291906107dc565b60405180910390f35b3480156100c757600080fd5b506100e260048036038101906100dd9190610828565b610171565b005b3480156100f057600080fd5b506100f9610316565b6040516101069190610896565b60405180910390f35b34801561011b57600080fd5b5061012461033a565b60405161013191906108d2565b60405180910390f35b34801561014657600080fd5b5061014f610352565b60405161015c91906108d2565b60405180910390f35b60005481565b60015481565b7f000000000000000000000000000000000000000000000000000000000000000073ffffffffffffffffffffffffffffffffffffffff163373ffffffffffffffffffffffffffffffffffffffff16146101ff576040517f08c379a00000000000000000000000000000000000000000000000000000000081526004016101f69061094a565b60405180910390fd5b60b46001544261020f9190610999565b1161024f576040517f08c379a000000000000000000000000000000000000000000000000000000000815260040161024690610a3f565b60405180910390fd5b806000808282546102609190610a5f565b92505081905550426001819055506000807f000000000000000000000000000000000000000000000000000000000000000073ffffffffffffffffffffffffffffffffffffffff1663b810c6366040518163ffffffff1660e01b81526004016040805180830381865afa1580156102db573d6000803e3d6000fd5b505050506040513d601f19601f820116820180604052508101906102ff9190610af6565b80925081935050506103118282610376565b505050565b7f000000000000000000000000000000000000000000000000000000000000000081565b73eeeeeeeeeeeeeeeeeeeeeeeeeeeeeeeeeeeeeeee81565b7f000000000000000000000000000000000000000000000000000000000000000081565b73eeeeeeeeeeeeeeeeeeeeeeeeeeeeeeeeeeeeeeee73ffffffffffffffffffffffffffffffffffffffff168173ffffffffffffffffffffffffffffffffffffffff1614156104905760007f000000000000000000000000000000000000000000000000000000000000000073ffffffffffffffffffffffffffffffffffffffff168360405161040490610b67565b60006040518083038185875af1925050503d8060008114610441576040519150601f19603f3d011682016040523d82523d6000602084013e610446565b606091505b505090508061048a576040517f08c379a000000000000000000000000000000000000000000000000000000000815260040161048190610bc8565b60405180910390fd5b506104bc565b6104bb817f0000000000000000000000000000000000000000000000000000000000000000846104c0565b5b5050565b6105418363a9059cbb60e01b84846040516024016104df929190610be8565b604051602081830303815290604052907bffffffffffffffffffffffffffffffffffffffffffffffffffffffff19166020820180517bffffffffffffffffffffffffffffffffffffffffffffffffffffffff8381831617835250505050610546565b505050565b60006105a8826040518060400160405280602081526020017f5361666545524332303a206c6f772d6c6576656c2063616c6c206661696c65648152508573ffffffffffffffffffffffffffffffffffffffff1661060d9092919063ffffffff16565b905060008151111561060857808060200190518101906105c89190610c49565b610607576040517f08c379a00000000000000000000000000000000000000000000000000000000081526004016105fe90610ce8565b60405180910390fd5b5b505050565b606061061c8484600085610625565b90509392505050565b60608247101561066a576040517f08c379a000000000000000000000000000000000000000000000000000000000815260040161066190610d7a565b60405180910390fd5b61067385610739565b6106b2576040517f08c379a00000000000000000000000000000000000000000000000000000000081526004016106a990610de6565b60405180910390fd5b6000808673ffffffffffffffffffffffffffffffffffffffff1685876040516106db9190610e75565b60006040518083038185875af1925050503d8060008114610718576040519150601f19603f3d011682016040523d82523d6000602084013e61071d565b606091505b509150915061072d82828661075c565b92505050949350505050565b6000808273ffffffffffffffffffffffffffffffffffffffff163b119050919050565b6060831561076c578290506107bc565b60008351111561077f5782518084602001fd5b816040517f08c379a00000000000000000000000000000000000000000000000000000000081526004016107b39190610ee1565b60405180910390fd5b9392505050565b6000819050919050565b6107d6816107c3565b82525050565b60006020820190506107f160008301846107cd565b92915050565b600080fd5b610805816107c3565b811461081057600080fd5b50565b600081359050610822816107fc565b92915050565b60006020828403121561083e5761083d6107f7565b5b600061084c84828501610813565b91505092915050565b600073ffffffffffffffffffffffffffffffffffffffff82169050919050565b600061088082610855565b9050919050565b61089081610875565b82525050565b60006020820190506108ab6000830184610887565b92915050565b60006108bc82610855565b9050919050565b6108cc816108b1565b82525050565b60006020820190506108e760008301846108c3565b92915050565b600082825260208201905092915050565b7f4f707352656164793a206f6e6c794f7073000000000000000000000000000000600082015250565b60006109346011836108ed565b915061093f826108fe565b602082019050919050565b6000602082019050818103600083015261096381610927565b9050919050565b7f4e487b7100000000000000000000000000000000000000000000000000000000600052601160045260246000fd5b60006109a4826107c3565b91506109af836107c3565b9250828210156109c2576109c161096a565b5b828203905092915050565b7f436f756e7465723a20696e637265617365436f756e743a2054696d65206e6f7460008201527f20656c6170736564000000000000000000000000000000000000000000000000602082015250565b6000610a296028836108ed565b9150610a34826109cd565b604082019050919050565b60006020820190508181036000830152610a5881610a1c565b9050919050565b6000610a6a826107c3565b9150610a75836107c3565b9250827fffffffffffffffffffffffffffffffffffffffffffffffffffffffffffffffff03821115610aaa57610aa961096a565b5b828201905092915050565b600081519050610ac4816107fc565b92915050565b610ad3816108b1565b8114610ade57600080fd5b50565b600081519050610af081610aca565b92915050565b60008060408385031215610b0d57610b0c6107f7565b5b6000610b1b85828601610ab5565b9250506020610b2c85828601610ae1565b9150509250929050565b600081905092915050565b50565b6000610b51600083610b36565b9150610b5c82610b41565b600082019050919050565b6000610b7282610b44565b9150819050919050565b7f5f7472616e736665723a20455448207472616e73666572206661696c65640000600082015250565b6000610bb2601e836108ed565b9150610bbd82610b7c565b602082019050919050565b60006020820190508181036000830152610be181610ba5565b9050919050565b6000604082019050610bfd60008301856108c3565b610c0a60208301846107cd565b9392505050565b60008115159050919050565b610c2681610c11565b8114610c3157600080fd5b50565b600081519050610c4381610c1d565b92915050565b600060208284031215610c5f57610c5e6107f7565b5b6000610c6d84828501610c34565b91505092915050565b7f5361666545524332303a204552433230206f7065726174696f6e20646964206e60008201527f6f74207375636365656400000000000000000000000000000000000000000000602082015250565b6000610cd2602a836108ed565b9150610cdd82610c76565b604082019050919050565b60006020820190508181036000830152610d0181610cc5565b9050919050565b7f416464726573733a20696e73756666696369656e742062616c616e636520666f60008201527f722063616c6c0000000000000000000000000000000000000000000000000000602082015250565b6000610d646026836108ed565b9150610d6f82610d08565b604082019050919050565b60006020820190508181036000830152610d9381610d57565b9050919050565b7f416464726573733a2063616c6c20746f206e6f6e2d636f6e7472616374000000600082015250565b6000610dd0601d836108ed565b9150610ddb82610d9a565b602082019050919050565b60006020820190508181036000830152610dff81610dc3565b9050919050565b600081519050919050565b60005b83811015610e2f578082015181840152602081019050610e14565b83811115610e3e576000848401525b50505050565b6000610e4f82610e06565b610e598185610b36565b9350610e69818560208601610e11565b80840191505092915050565b6000610e818284610e44565b915081905092915050565b600081519050919050565b6000601f19601f8301169050919050565b6000610eb382610e8c565b610ebd81856108ed565b9350610ecd818560208601610e11565b610ed681610e97565b840191505092915050565b60006020820190508181036000830152610efb8184610ea8565b90509291505056fea264697066735822122063080361727cc3cf2efb44ec85a9c3a178f489ca1d49896d09cad5853e059d2c64736f6c634300080c0033",
  "devdoc": {
    "kind": "dev",
    "methods": {},
    "version": 1
  },
  "userdoc": {
    "kind": "user",
    "methods": {},
    "version": 1
  },
  "storageLayout": {
    "storage": [
      {
        "astId": 2813,
        "contract": "contracts/examples/withoutTreasury/CounterWithoutTreasury.sol:CounterWithoutTreasury",
        "label": "count",
        "offset": 0,
        "slot": "0",
        "type": "t_uint256"
      },
      {
        "astId": 2815,
        "contract": "contracts/examples/withoutTreasury/CounterWithoutTreasury.sol:CounterWithoutTreasury",
        "label": "lastExecuted",
        "offset": 0,
        "slot": "1",
        "type": "t_uint256"
      }
    ],
    "types": {
      "t_uint256": {
        "encoding": "inplace",
        "label": "uint256",
        "numberOfBytes": "32"
      }
    }
  }
}