{
  "address": "0x1917890BE8341550b2e155f40599c6b0C79a24aF",
  "abi": [
    {
      "inputs": [],
      "name": "encodeBlockTriggerModuleArg",
      "outputs": [
        {
          "internalType": "bytes",
          "name": "",
          "type": "bytes"
        }
      ],
      "stateMutability": "pure",
      "type": "function"
    },
    {
      "inputs": [
        {
          "internalType": "string",
          "name": "_expression",
          "type": "string"
        }
      ],
      "name": "encodeCronTriggerModuleArg",
      "outputs": [
        {
          "internalType": "bytes",
          "name": "",
          "type": "bytes"
        }
      ],
      "stateMutability": "pure",
      "type": "function"
    },
    {
      "inputs": [
        {
          "internalType": "address",
          "name": "_address",
          "type": "address"
        },
        {
          "internalType": "bytes32[][]",
          "name": "_topics",
          "type": "bytes32[][]"
        },
        {
          "internalType": "uint256",
          "name": "_blockConfirmations",
          "type": "uint256"
        }
      ],
      "name": "encodeEventTriggerModuleArg",
      "outputs": [
        {
          "internalType": "bytes",
          "name": "",
          "type": "bytes"
        }
      ],
      "stateMutability": "pure",
      "type": "function"
    },
    {
      "inputs": [
        {
          "internalType": "uint128",
          "name": "_start",
          "type": "uint128"
        },
        {
          "internalType": "uint128",
          "name": "_interval",
          "type": "uint128"
        }
      ],
      "name": "encodeTimeTriggerModuleArg",
      "outputs": [
        {
          "internalType": "bytes",
          "name": "",
          "type": "bytes"
        }
      ],
      "stateMutability": "pure",
      "type": "function"
    },
    {
      "inputs": [
        {
          "internalType": "bytes32",
          "name": "",
          "type": "bytes32"
        }
      ],
      "name": "execAddresses",
      "outputs": [
        {
          "internalType": "address",
          "name": "",
          "type": "address"
        }
      ],
      "stateMutability": "view",
      "type": "function"
    },
    {
      "inputs": [],
      "name": "fee",
      "outputs": [
        {
          "internalType": "uint256",
          "name": "",
          "type": "uint256"
        }
      ],
      "stateMutability": "view",
      "type": "function"
    },
    {
      "inputs": [],
      "name": "feeToken",
      "outputs": [
        {
          "internalType": "address",
          "name": "",
          "type": "address"
        }
      ],
      "stateMutability": "view",
      "type": "function"
    },
    {
      "inputs": [
        {
          "internalType": "bytes32",
          "name": "",
          "type": "bytes32"
        }
      ],
      "name": "nonce1Balance",
      "outputs": [
        {
          "internalType": "uint256",
          "name": "",
          "type": "uint256"
        }
      ],
      "stateMutability": "view",
      "type": "function"
    },
    {
      "inputs": [
        {
          "internalType": "bytes32",
          "name": "",
          "type": "bytes32"
        },
        {
          "internalType": "address",
          "name": "",
          "type": "address"
        },
        {
          "internalType": "address",
          "name": "",
          "type": "address"
        },
        {
          "internalType": "bytes",
          "name": "",
          "type": "bytes"
        },
        {
          "internalType": "bytes",
          "name": "",
          "type": "bytes"
        }
      ],
      "name": "onCreateTask",
      "outputs": [],
      "stateMutability": "nonpayable",
      "type": "function"
    },
    {
      "inputs": [
        {
          "internalType": "bytes32",
          "name": "taskId",
          "type": "bytes32"
        },
        {
          "internalType": "address",
          "name": "taskCreator",
          "type": "address"
        },
        {
          "internalType": "address",
          "name": "execAddress",
          "type": "address"
        },
        {
          "internalType": "bytes",
          "name": "execData",
          "type": "bytes"
        }
      ],
      "name": "postExecCall",
      "outputs": [],
      "stateMutability": "nonpayable",
      "type": "function"
    },
    {
      "inputs": [
        {
          "internalType": "bytes32",
          "name": "",
          "type": "bytes32"
        },
        {
          "internalType": "address",
          "name": "_taskCreator",
          "type": "address"
        }
      ],
      "name": "preCancelTask",
      "outputs": [
        {
          "internalType": "address",
          "name": "",
          "type": "address"
        }
      ],
      "stateMutability": "nonpayable",
      "type": "function"
    },
    {
      "inputs": [
        {
          "internalType": "address",
          "name": "_taskCreator",
          "type": "address"
        },
        {
          "internalType": "address",
          "name": "_execAddress",
          "type": "address"
        }
      ],
      "name": "preCreateTask",
      "outputs": [
        {
          "internalType": "address",
          "name": "",
          "type": "address"
        },
        {
          "internalType": "address",
          "name": "",
          "type": "address"
        }
      ],
      "stateMutability": "nonpayable",
      "type": "function"
    },
    {
      "inputs": [
        {
          "internalType": "bytes32",
          "name": "",
          "type": "bytes32"
        },
        {
          "internalType": "address",
          "name": "",
          "type": "address"
        },
        {
          "internalType": "address",
          "name": "_execAddress",
          "type": "address"
        },
        {
          "internalType": "bytes",
          "name": "_execData",
          "type": "bytes"
        }
      ],
      "name": "preExecCall",
      "outputs": [
        {
          "internalType": "address",
          "name": "",
          "type": "address"
        },
        {
          "internalType": "bytes",
          "name": "",
          "type": "bytes"
        }
      ],
      "stateMutability": "nonpayable",
      "type": "function"
    },
    {
      "inputs": [
        {
          "internalType": "bytes32",
          "name": "",
          "type": "bytes32"
        }
      ],
      "name": "taskCreator",
      "outputs": [
        {
          "internalType": "address",
          "name": "",
          "type": "address"
        }
      ],
      "stateMutability": "view",
      "type": "function"
    },
    {
      "inputs": [
        {
          "internalType": "enum LibDataTypes.Module",
          "name": "",
          "type": "uint8"
        }
      ],
      "name": "taskModuleAddresses",
      "outputs": [
        {
          "internalType": "address",
          "name": "",
          "type": "address"
        }
      ],
      "stateMutability": "view",
      "type": "function"
    },
    {
      "inputs": [
        {
          "internalType": "bytes32",
          "name": "",
          "type": "bytes32"
        }
      ],
      "name": "timedTask",
      "outputs": [
        {
          "internalType": "uint128",
          "name": "nextExec",
          "type": "uint128"
        },
        {
          "internalType": "uint128",
          "name": "interval",
          "type": "uint128"
        }
      ],
      "stateMutability": "view",
      "type": "function"
    }
  ],
  "transactionHash": "0x4a31276aaba6c76d253fc60a93cc021cf9d99fd7c4eb342585eac9cdca481ff4",
  "args": [],
  "numDeployments": 1,
  "solcInputHash": "c0ad8ac892af039154187898a9ce3bb5",
  "bytecode": "0x608060405234801561001057600080fd5b50611299806100206000396000f3fe608060405234801561001057600080fd5b50600436106101005760003560e01c8063994ee8b711610097578063b81cd86611610066578063b81cd866146102fa578063c10304f71461032b578063cd3d4fb91461035c578063ddca3f431461038c57610100565b8063994ee8b714610262578063ac21631a14610292578063b0ccbdf0146102c2578063b2db0b41146102de57610100565b8063647846a5116100d3578063647846a5146101b35780636d2dd29f146101d1578063714d732f1461020157806376474e6a1461023157610100565b8063121b944c1461010557806314ae9926146101235780631fc2d3d0146101535780632e6e0bd014610183575b600080fd5b61010d6103aa565b60405161011a919061072c565b60405180910390f35b61013d600480360381019061013891906107f6565b6103d2565b60405161014a9190610845565b60405180910390f35b61016d600480360381019061016891906108a8565b6103dd565b60405161017a919061072c565b60405180910390f35b61019d600480360381019061019891906108e8565b610431565b6040516101aa9190610845565b60405180910390f35b6101bb610464565b6040516101c89190610845565b60405180910390f35b6101eb60048036038101906101e691906108e8565b61048a565b6040516101f89190610845565b60405180910390f35b61021b6004803603810190610216919061097a565b6104bd565b604051610228919061072c565b60405180910390f35b61024b600480360381019061024691906109c7565b610511565b604051610259929190610a07565b60405180910390f35b61027c60048036038101906102779190610c85565b610521565b604051610289919061072c565b60405180910390f35b6102ac60048036038101906102a791906108e8565b610578565b6040516102b99190610d03565b60405180910390f35b6102dc60048036038101906102d79190610d74565b610590565b005b6102f860048036038101906102f39190610e30565b610599565b005b610314600480360381019061030f91906108e8565b6105a0565b604051610322929190610ec7565b60405180910390f35b61034560048036038101906103409190610e30565b6105fc565b604051610353929190610ef0565b60405180910390f35b61037660048036038101906103719190610f45565b61065a565b6040516103839190610845565b60405180910390f35b61039461068d565b6040516103a19190610d03565b60405180910390f35b606060036040516020016103be9190610fe9565b604051602081830303815290604052905090565b600081905092915050565b6060600083836040516020016103f4929190610ec7565b6040516020818303038152906040529050600081604051602001610419929190611004565b60405160208183030381529060405291505092915050565b60006020528060005260406000206000915054906101000a900473ffffffffffffffffffffffffffffffffffffffff1681565b600460009054906101000a900473ffffffffffffffffffffffffffffffffffffffff1681565b60016020528060005260406000206000915054906101000a900473ffffffffffffffffffffffffffffffffffffffff1681565b6060600083836040516020016104d4929190611081565b60405160208183030381529060405290506001816040516020016104f9929190611004565b60405160208183030381529060405291505092915050565b6000808383915091509250929050565b6060600084848460405160200161053a93929190611225565b604051602081830303815290604052905060028160405160200161055f929190611004565b6040516020818303038152906040529150509392505050565b60076020528060005260406000206000915090505481565b50505050505050565b5050505050565b60056020528060005260406000206000915090508060000160009054906101000a90046fffffffffffffffffffffffffffffffff16908060000160109054906101000a90046fffffffffffffffffffffffffffffffff16905082565b6000606084848481818080601f016020809104026020016040519081016040528093929190818152602001838380828437600081840152601f19601f8201169050808301925050505050505090509050915091509550959350505050565b60066020528060005260406000206000915054906101000a900473ffffffffffffffffffffffffffffffffffffffff1681565b60035481565b600081519050919050565b600082825260208201905092915050565b60005b838110156106cd5780820151818401526020810190506106b2565b838111156106dc576000848401525b50505050565b6000601f19601f8301169050919050565b60006106fe82610693565b610708818561069e565b93506107188185602086016106af565b610721816106e2565b840191505092915050565b6000602082019050818103600083015261074681846106f3565b905092915050565b6000604051905090565b600080fd5b600080fd5b6000819050919050565b61077581610762565b811461078057600080fd5b50565b6000813590506107928161076c565b92915050565b600073ffffffffffffffffffffffffffffffffffffffff82169050919050565b60006107c382610798565b9050919050565b6107d3816107b8565b81146107de57600080fd5b50565b6000813590506107f0816107ca565b92915050565b6000806040838503121561080d5761080c610758565b5b600061081b85828601610783565b925050602061082c858286016107e1565b9150509250929050565b61083f816107b8565b82525050565b600060208201905061085a6000830184610836565b92915050565b60006fffffffffffffffffffffffffffffffff82169050919050565b61088581610860565b811461089057600080fd5b50565b6000813590506108a28161087c565b92915050565b600080604083850312156108bf576108be610758565b5b60006108cd85828601610893565b92505060206108de85828601610893565b9150509250929050565b6000602082840312156108fe576108fd610758565b5b600061090c84828501610783565b91505092915050565b600080fd5b600080fd5b600080fd5b60008083601f84011261093a57610939610915565b5b8235905067ffffffffffffffff8111156109575761095661091a565b5b6020830191508360018202830111156109735761097261091f565b5b9250929050565b6000806020838503121561099157610990610758565b5b600083013567ffffffffffffffff8111156109af576109ae61075d565b5b6109bb85828601610924565b92509250509250929050565b600080604083850312156109de576109dd610758565b5b60006109ec858286016107e1565b92505060206109fd858286016107e1565b9150509250929050565b6000604082019050610a1c6000830185610836565b610a296020830184610836565b9392505050565b7f4e487b7100000000000000000000000000000000000000000000000000000000600052604160045260246000fd5b610a68826106e2565b810181811067ffffffffffffffff82111715610a8757610a86610a30565b5b80604052505050565b6000610a9a61074e565b9050610aa68282610a5f565b919050565b600067ffffffffffffffff821115610ac657610ac5610a30565b5b602082029050602081019050919050565b600067ffffffffffffffff821115610af257610af1610a30565b5b602082029050602081019050919050565b6000610b16610b1184610ad7565b610a90565b90508083825260208201905060208402830185811115610b3957610b3861091f565b5b835b81811015610b625780610b4e8882610783565b845260208401935050602081019050610b3b565b5050509392505050565b600082601f830112610b8157610b80610915565b5b8135610b91848260208601610b03565b91505092915050565b6000610bad610ba884610aab565b610a90565b90508083825260208201905060208402830185811115610bd057610bcf61091f565b5b835b81811015610c1757803567ffffffffffffffff811115610bf557610bf4610915565b5b808601610c028982610b6c565b85526020850194505050602081019050610bd2565b5050509392505050565b600082601f830112610c3657610c35610915565b5b8135610c46848260208601610b9a565b91505092915050565b6000819050919050565b610c6281610c4f565b8114610c6d57600080fd5b50565b600081359050610c7f81610c59565b92915050565b600080600060608486031215610c9e57610c9d610758565b5b6000610cac868287016107e1565b935050602084013567ffffffffffffffff811115610ccd57610ccc61075d565b5b610cd986828701610c21565b9250506040610cea86828701610c70565b9150509250925092565b610cfd81610c4f565b82525050565b6000602082019050610d186000830184610cf4565b92915050565b60008083601f840112610d3457610d33610915565b5b8235905067ffffffffffffffff811115610d5157610d5061091a565b5b602083019150836001820283011115610d6d57610d6c61091f565b5b9250929050565b600080600080600080600060a0888a031215610d9357610d92610758565b5b6000610da18a828b01610783565b9750506020610db28a828b016107e1565b9650506040610dc38a828b016107e1565b955050606088013567ffffffffffffffff811115610de457610de361075d565b5b610df08a828b01610d1e565b9450945050608088013567ffffffffffffffff811115610e1357610e1261075d565b5b610e1f8a828b01610d1e565b925092505092959891949750929550565b600080600080600060808688031215610e4c57610e4b610758565b5b6000610e5a88828901610783565b9550506020610e6b888289016107e1565b9450506040610e7c888289016107e1565b935050606086013567ffffffffffffffff811115610e9d57610e9c61075d565b5b610ea988828901610d1e565b92509250509295509295909350565b610ec181610860565b82525050565b6000604082019050610edc6000830185610eb8565b610ee96020830184610eb8565b9392505050565b6000604082019050610f056000830185610836565b8181036020830152610f1781846106f3565b90509392505050565b60068110610f2d57600080fd5b50565b600081359050610f3f81610f20565b92915050565b600060208284031215610f5b57610f5a610758565b5b6000610f6984828501610f30565b91505092915050565b7f4e487b7100000000000000000000000000000000000000000000000000000000600052602160045260246000fd5b60048110610fb257610fb1610f72565b5b50565b6000819050610fc382610fa1565b919050565b6000610fd382610fb5565b9050919050565b610fe381610fc8565b82525050565b6000602082019050610ffe6000830184610fda565b92915050565b60006040820190506110196000830185610fda565b818103602083015261102b81846106f3565b90509392505050565b600082825260208201905092915050565b82818337600083830152505050565b60006110608385611034565b935061106d838584611045565b611076836106e2565b840190509392505050565b6000602082019050818103600083015261109c818486611054565b90509392505050565b600081519050919050565b600082825260208201905092915050565b6000819050602082019050919050565b600081519050919050565b600082825260208201905092915050565b6000819050602082019050919050565b61110681610762565b82525050565b600061111883836110fd565b60208301905092915050565b6000602082019050919050565b600061113c826110d1565b61114681856110dc565b9350611151836110ed565b8060005b83811015611182578151611169888261110c565b975061117483611124565b925050600181019050611155565b5085935050505092915050565b600061119b8383611131565b905092915050565b6000602082019050919050565b60006111bb826110a5565b6111c581856110b0565b9350836020820285016111d7856110c1565b8060005b8581101561121357848403895281516111f4858261118f565b94506111ff836111a3565b925060208a019950506001810190506111db565b50829750879550505050505092915050565b600060608201905061123a6000830186610836565b818103602083015261124c81856111b0565b905061125b6040830184610cf4565b94935050505056fea26469706673582212203aeb4ef49e5cf31fc11f60aecbd182a71f48e1d11c5b229502b4571ed3109f2d64736f6c634300080e0033",
  "devdoc": {
    "kind": "dev",
    "methods": {
      "encodeCronTriggerModuleArg(string)": {
        "params": {
          "_expression": "Cron expression"
        }
      },
      "encodeEventTriggerModuleArg(address,bytes32[][],uint256)": {
        "params": {
          "_address": "Address to listen to for events.",
          "_blockConfirmations": "Number of blocks to wait for before triggering.",
          "_topics": "Set of topics to filter at each topic position."
        }
      },
      "encodeTimeTriggerModuleArg(uint128,uint128)": {
        "params": {
          "_interval": "Time interval between each execution.",
          "_start": "Time when the first execution should occur."
        }
      },
      "onCreateTask(bytes32,address,address,bytes,bytes)": {
        "params": {
          "execAddress": "Address of contract that should be called.",
          "execData": "Execution data to be called with / function selector if execution data is yet to be determined.",
          "initModuleArg": "Encoded arguments for module if any.",
          "taskCreator": "The address which created the task.",
          "taskId": "Unique hash of the task created."
        }
      },
      "postExecCall(bytes32,address,address,bytes)": {
        "params": {
          "execAddress": "Address of contract that should be called.",
          "execData": "Execution data to be called with / function selector if execution data is yet to be determined.",
          "taskCreator": "The address which created the task.",
          "taskId": "Unique hash of the task created."
        }
      },
      "preCancelTask(bytes32,address)": {
        "details": "Modules can override taskCreator.",
        "params": {
          "taskCreator": "The address which created the task.",
          "taskId": "Unique hash of the task created."
        },
        "returns": {
          "_0": "address Overriden or original taskCreator."
        }
      },
      "preCreateTask(address,address)": {
        "details": "Modules can override execAddress or taskCreator. {See ProxyModule-preCreateTask}",
        "params": {
          "execAddress": "Address of contract that should be called.",
          "taskCreator": "The address which created the task."
        },
        "returns": {
          "_0": "address Overriden or original taskCreator.",
          "_1": "address Overriden or original execAddress."
        }
      },
      "preExecCall(bytes32,address,address,bytes)": {
        "params": {
          "execAddress": "Address of contract that should be called.",
          "execData": "Execution data to be called with / function selector if execution data is yet to be determined.",
          "taskCreator": "The address which created the task.",
          "taskId": "Unique hash of the task created."
        },
        "returns": {
          "_0": "address Overriden or original execution address.",
          "_1": "bytes Overriden or original execution data."
        }
      }
    },
    "version": 1
  },
  "userdoc": {
    "kind": "user",
    "methods": {
      "encodeBlockTriggerModuleArg()": {
        "notice": "Helper function to encode arguments for TriggerModule for Block."
      },
      "encodeCronTriggerModuleArg(string)": {
        "notice": "Helper function to encode arguments for TriggerModule for Cron."
      },
      "encodeEventTriggerModuleArg(address,bytes32[][],uint256)": {
        "notice": "Helper function to encode arguments for TriggerModule for Event."
      },
      "encodeTimeTriggerModuleArg(uint128,uint128)": {
        "notice": "Helper function to encode arguments for TriggerModule for Timer."
      },
      "onCreateTask(bytes32,address,address,bytes,bytes)": {
        "notice": "Initiates task module whenever `createTask` is being called."
      },
      "postExecCall(bytes32,address,address,bytes)": {
        "notice": "Called during `exec` and after execAddress is called."
      },
      "preCancelTask(bytes32,address)": {
        "notice": "Called before taskId is removed from _createdTasks[]."
      },
      "preCreateTask(address,address)": {
        "notice": "Called before generating taskId."
      },
      "preExecCall(bytes32,address,address,bytes)": {
        "notice": "Called during `exec` and before execAddress is called."
      }
    },
    "version": 1
  },
  "storageLayout": {
    "storage": [
      {
        "astId": 2149,
        "contract": "contracts/taskModules/TriggerModule.sol:TriggerModule",
        "label": "taskCreator",
        "offset": 0,
        "slot": "0",
        "type": "t_mapping(t_bytes32,t_address)"
      },
      {
        "astId": 2154,
        "contract": "contracts/taskModules/TriggerModule.sol:TriggerModule",
        "label": "execAddresses",
        "offset": 0,
        "slot": "1",
        "type": "t_mapping(t_bytes32,t_address)"
      },
      {
        "astId": 2160,
        "contract": "contracts/taskModules/TriggerModule.sol:TriggerModule",
        "label": "_createdTasks",
        "offset": 0,
        "slot": "2",
        "type": "t_mapping(t_address,t_struct(Bytes32Set)1247_storage)"
      },
      {
        "astId": 2162,
        "contract": "contracts/taskModules/TriggerModule.sol:TriggerModule",
        "label": "fee",
        "offset": 0,
        "slot": "3",
        "type": "t_uint256"
      },
      {
        "astId": 2164,
        "contract": "contracts/taskModules/TriggerModule.sol:TriggerModule",
        "label": "feeToken",
        "offset": 0,
        "slot": "4",
        "type": "t_address"
      },
      {
        "astId": 2170,
        "contract": "contracts/taskModules/TriggerModule.sol:TriggerModule",
        "label": "timedTask",
        "offset": 0,
        "slot": "5",
        "type": "t_mapping(t_bytes32,t_struct(Time)5227_storage)"
      },
      {
        "astId": 2176,
        "contract": "contracts/taskModules/TriggerModule.sol:TriggerModule",
        "label": "taskModuleAddresses",
        "offset": 0,
        "slot": "6",
        "type": "t_mapping(t_enum(Module)5214,t_address)"
      },
      {
        "astId": 2180,
        "contract": "contracts/taskModules/TriggerModule.sol:TriggerModule",
        "label": "nonce1Balance",
        "offset": 0,
        "slot": "7",
        "type": "t_mapping(t_bytes32,t_uint256)"
      }
    ],
    "types": {
      "t_address": {
        "encoding": "inplace",
        "label": "address",
        "numberOfBytes": "20"
      },
      "t_array(t_bytes32)dyn_storage": {
        "base": "t_bytes32",
        "encoding": "dynamic_array",
        "label": "bytes32[]",
        "numberOfBytes": "32"
      },
      "t_bytes32": {
        "encoding": "inplace",
        "label": "bytes32",
        "numberOfBytes": "32"
      },
      "t_enum(Module)5214": {
        "encoding": "inplace",
        "label": "enum LibDataTypes.Module",
        "numberOfBytes": "1"
      },
      "t_mapping(t_address,t_struct(Bytes32Set)1247_storage)": {
        "encoding": "mapping",
        "key": "t_address",
        "label": "mapping(address => struct EnumerableSet.Bytes32Set)",
        "numberOfBytes": "32",
        "value": "t_struct(Bytes32Set)1247_storage"
      },
      "t_mapping(t_bytes32,t_address)": {
        "encoding": "mapping",
        "key": "t_bytes32",
        "label": "mapping(bytes32 => address)",
        "numberOfBytes": "32",
        "value": "t_address"
      },
      "t_mapping(t_bytes32,t_struct(Time)5227_storage)": {
        "encoding": "mapping",
        "key": "t_bytes32",
        "label": "mapping(bytes32 => struct LibDataTypes.Time)",
        "numberOfBytes": "32",
        "value": "t_struct(Time)5227_storage"
      },
      "t_mapping(t_bytes32,t_uint256)": {
        "encoding": "mapping",
        "key": "t_bytes32",
        "label": "mapping(bytes32 => uint256)",
        "numberOfBytes": "32",
        "value": "t_uint256"
      },
      "t_mapping(t_enum(Module)5214,t_address)": {
        "encoding": "mapping",
        "key": "t_enum(Module)5214",
        "label": "mapping(enum LibDataTypes.Module => address)",
        "numberOfBytes": "32",
        "value": "t_address"
      },
      "t_struct(Bytes32Set)1247_storage": {
        "encoding": "inplace",
        "label": "struct EnumerableSet.Bytes32Set",
        "members": [
          {
            "astId": 1246,
            "contract": "contracts/taskModules/TriggerModule.sol:TriggerModule",
            "label": "_inner",
            "offset": 0,
            "slot": "0",
            "type": "t_struct(Set)1053_storage"
          }
        ],
        "numberOfBytes": "64"
      },
      "t_struct(Set)1053_storage": {
        "encoding": "inplace",
        "label": "struct EnumerableSet.Set",
        "members": [
          {
            "astId": 1048,
            "contract": "contracts/taskModules/TriggerModule.sol:TriggerModule",
            "label": "_values",
            "offset": 0,
            "slot": "0",
            "type": "t_array(t_bytes32)dyn_storage"
          },
          {
            "astId": 1052,
            "contract": "contracts/taskModules/TriggerModule.sol:TriggerModule",
            "label": "_indexes",
            "offset": 0,
            "slot": "1",
            "type": "t_mapping(t_bytes32,t_uint256)"
          }
        ],
        "numberOfBytes": "64"
      },
      "t_struct(Time)5227_storage": {
        "encoding": "inplace",
        "label": "struct LibDataTypes.Time",
        "members": [
          {
            "astId": 5224,
            "contract": "contracts/taskModules/TriggerModule.sol:TriggerModule",
            "label": "nextExec",
            "offset": 0,
            "slot": "0",
            "type": "t_uint128"
          },
          {
            "astId": 5226,
            "contract": "contracts/taskModules/TriggerModule.sol:TriggerModule",
            "label": "interval",
            "offset": 16,
            "slot": "0",
            "type": "t_uint128"
          }
        ],
        "numberOfBytes": "32"
      },
      "t_uint128": {
        "encoding": "inplace",
        "label": "uint128",
        "numberOfBytes": "16"
      },
      "t_uint256": {
        "encoding": "inplace",
        "label": "uint256",
        "numberOfBytes": "32"
      }
    }
  }
}