{
  "address": "0x00e8f432b33D1C550E02Ff55c8413Fd50a931c39",
  "abi": [
    {
      "inputs": [
        {
          "internalType": "address payable",
          "name": "_gelato",
          "type": "address"
        },
        {
          "internalType": "address",
          "name": "_taskTreasury",
          "type": "address"
        }
      ],
      "stateMutability": "nonpayable",
      "type": "constructor"
    },
    {
      "anonymous": false,
      "inputs": [
        {
          "indexed": true,
          "internalType": "uint256",
          "name": "txFee",
          "type": "uint256"
        },
        {
          "indexed": true,
          "internalType": "address",
          "name": "feeToken",
          "type": "address"
        },
        {
          "indexed": true,
          "internalType": "address",
          "name": "execAddress",
          "type": "address"
        },
        {
          "indexed": false,
          "internalType": "bytes",
          "name": "execData",
          "type": "bytes"
        },
        {
          "indexed": false,
          "internalType": "bytes32",
          "name": "taskId",
          "type": "bytes32"
        }
      ],
      "name": "ExecSuccess",
      "type": "event"
    },
    {
      "anonymous": false,
      "inputs": [
        {
          "indexed": false,
          "internalType": "bytes32",
          "name": "taskId",
          "type": "bytes32"
        },
        {
          "indexed": false,
          "internalType": "address",
          "name": "taskCreator",
          "type": "address"
        }
      ],
      "name": "TaskCancelled",
      "type": "event"
    },
    {
      "anonymous": false,
      "inputs": [
        {
          "indexed": false,
          "internalType": "address",
          "name": "taskCreator",
          "type": "address"
        },
        {
          "indexed": false,
          "internalType": "address",
          "name": "execAddress",
          "type": "address"
        },
        {
          "indexed": false,
          "internalType": "bytes4",
          "name": "selector",
          "type": "bytes4"
        },
        {
          "indexed": false,
          "internalType": "address",
          "name": "resolverAddress",
          "type": "address"
        },
        {
          "indexed": false,
          "internalType": "bytes32",
          "name": "taskId",
          "type": "bytes32"
        },
        {
          "indexed": false,
          "internalType": "bytes",
          "name": "resolverData",
          "type": "bytes"
        }
      ],
      "name": "TaskCreated",
      "type": "event"
    },
    {
      "inputs": [
        {
          "internalType": "bytes32",
          "name": "_taskId",
          "type": "bytes32"
        }
      ],
      "name": "cancelTask",
      "outputs": [],
      "stateMutability": "nonpayable",
      "type": "function"
    },
    {
      "inputs": [
        {
          "internalType": "address",
          "name": "_execAddress",
          "type": "address"
        },
        {
          "internalType": "bytes4",
          "name": "_execSelector",
          "type": "bytes4"
        },
        {
          "internalType": "address",
          "name": "_resolverAddress",
          "type": "address"
        },
        {
          "internalType": "bytes",
          "name": "_resolverData",
          "type": "bytes"
        }
      ],
      "name": "createTask",
      "outputs": [],
      "stateMutability": "nonpayable",
      "type": "function"
    },
    {
      "inputs": [
        {
          "internalType": "uint256",
          "name": "_txFee",
          "type": "uint256"
        },
        {
          "internalType": "address",
          "name": "_feeToken",
          "type": "address"
        },
        {
          "internalType": "address",
          "name": "_taskCreator",
          "type": "address"
        },
        {
          "internalType": "address",
          "name": "_execAddress",
          "type": "address"
        },
        {
          "internalType": "bytes",
          "name": "_execData",
          "type": "bytes"
        }
      ],
      "name": "exec",
      "outputs": [],
      "stateMutability": "nonpayable",
      "type": "function"
    },
    {
      "inputs": [
        {
          "internalType": "bytes32",
          "name": "",
          "type": "bytes32"
        }
      ],
      "name": "execAddresses",
      "outputs": [
        {
          "internalType": "address",
          "name": "",
          "type": "address"
        }
      ],
      "stateMutability": "view",
      "type": "function"
    },
    {
      "inputs": [],
      "name": "gelato",
      "outputs": [
        {
          "internalType": "address payable",
          "name": "",
          "type": "address"
        }
      ],
      "stateMutability": "view",
      "type": "function"
    },
    {
      "inputs": [
        {
          "internalType": "string",
          "name": "_func",
          "type": "string"
        }
      ],
      "name": "getSelector",
      "outputs": [
        {
          "internalType": "bytes4",
          "name": "",
          "type": "bytes4"
        }
      ],
      "stateMutability": "pure",
      "type": "function"
    },
    {
      "inputs": [
        {
          "internalType": "address",
          "name": "_taskCreator",
          "type": "address"
        },
        {
          "internalType": "address",
          "name": "_execAddress",
          "type": "address"
        },
        {
          "internalType": "bytes4",
          "name": "_selector",
          "type": "bytes4"
        }
      ],
      "name": "getTaskId",
      "outputs": [
        {
          "internalType": "bytes32",
          "name": "",
          "type": "bytes32"
        }
      ],
      "stateMutability": "pure",
      "type": "function"
    },
    {
      "inputs": [
        {
          "internalType": "address",
          "name": "_taskCreator",
          "type": "address"
        }
      ],
      "name": "getTaskIdsByUser",
      "outputs": [
        {
          "internalType": "bytes32[]",
          "name": "",
          "type": "bytes32[]"
        }
      ],
      "stateMutability": "view",
      "type": "function"
    },
    {
      "inputs": [
        {
          "internalType": "bytes32",
          "name": "",
          "type": "bytes32"
        }
      ],
      "name": "taskCreator",
      "outputs": [
        {
          "internalType": "address",
          "name": "",
          "type": "address"
        }
      ],
      "stateMutability": "view",
      "type": "function"
    },
    {
      "inputs": [],
      "name": "taskTreasury",
      "outputs": [
        {
          "internalType": "address",
          "name": "",
          "type": "address"
        }
      ],
      "stateMutability": "view",
      "type": "function"
    },
    {
      "inputs": [],
      "name": "version",
      "outputs": [
        {
          "internalType": "string",
          "name": "",
          "type": "string"
        }
      ],
      "stateMutability": "view",
      "type": "function"
    }
  ],
  "transactionHash": "0x42760b599543c1fd0ee920a1b8d9aa48834dd545ef4e402b225fe2f94e75cdd4",
  "args": [
    "0x7598e84B2E114AB62CAB288CE5f7d5f6bad35BbA",
    "0xA8a7BBe83960B29789d5CB06Dcd2e6C1DF20581C"
  ],
  "solcInputHash": "373734d9ab445dffcc8f2ceb59e38b79",
  "bytecode": "0x60c06040523480156200001157600080fd5b5060405162001d2b38038062001d2b8339818101604052810190620000379190620000dd565b818073ffffffffffffffffffffffffffffffffffffffff1660808173ffffffffffffffffffffffffffffffffffffffff1660601b81525050508073ffffffffffffffffffffffffffffffffffffffff1660a08173ffffffffffffffffffffffffffffffffffffffff1660601b8152505050506200019a565b600081519050620000c08162000166565b92915050565b600081519050620000d78162000180565b92915050565b60008060408385031215620000f157600080fd5b60006200010185828601620000c6565b92505060206200011485828601620000af565b9150509250929050565b60006200012b8262000146565b9050919050565b60006200013f8262000146565b9050919050565b600073ffffffffffffffffffffffffffffffffffffffff82169050919050565b62000171816200011e565b81146200017d57600080fd5b50565b6200018b8162000132565b81146200019757600080fd5b50565b60805160601c60a05160601c611b57620001d4600039600081816105f501526109d001526000818161040001526107670152611b576000f3fe608060405234801561001057600080fd5b50600436106100a95760003560e01c8063573ea57511610071578063573ea575146101785780636d2dd29f1461019657806380a003ff146101c65780638b92696a146101f6578063e60a321314610212578063ee8ca3b514610230576100a9565b80630407145c146100ae5780632e6e0bd0146100de57806347e283d81461010e57806352e0ac5e1461012a57806354fd4d501461015a575b600080fd5b6100c860048036038101906100c39190611156565b61024c565b6040516100d5919061175c565b60405180910390f35b6100f860048036038101906100f3919061124e565b6103cb565b604051610105919061164e565b60405180910390f35b610128600480360381019061012391906112bc565b6103fe565b005b610144600480360381019061013f919061117f565b6106f6565b604051610151919061177e565b60405180910390f35b61016261072c565b60405161016f919061180f565b60405180910390f35b610180610765565b60405161018d9190611669565b60405180910390f35b6101b060048036038101906101ab919061124e565b610789565b6040516101bd919061164e565b60405180910390f35b6101e060048036038101906101db9190611277565b6107bc565b6040516101ed91906117c2565b60405180910390f35b610210600480360381019061020b91906111ce565b6107de565b005b61021a6109ce565b604051610227919061164e565b60405180910390f35b61024a6004803603810190610245919061124e565b6109f2565b005b60606000610297600260008573ffffffffffffffffffffffffffffffffffffffff1673ffffffffffffffffffffffffffffffffffffffff168152602001908152602001600020610b8b565b905060008167ffffffffffffffff8111156102db577f4e487b7100000000000000000000000000000000000000000000000000000000600052604160045260246000fd5b6040519080825280602002602001820160405280156103095781602001602082028036833780820191505090505b50905060005b828110156103c05761036881600260008873ffffffffffffffffffffffffffffffffffffffff1673ffffffffffffffffffffffffffffffffffffffff168152602001908152602001600020610ba090919063ffffffff16565b8282815181106103a1577f4e487b7100000000000000000000000000000000000000000000000000000000600052603260045260246000fd5b60200260200101818152505080806103b890611a3c565b91505061030f565b508092505050919050565b60006020528060005260406000206000915054906101000a900473ffffffffffffffffffffffffffffffffffffffff1681565b7f000000000000000000000000000000000000000000000000000000000000000073ffffffffffffffffffffffffffffffffffffffff163373ffffffffffffffffffffffffffffffffffffffff161461048c576040517f08c379a000000000000000000000000000000000000000000000000000000000815260040161048390611831565b60405180910390fd5b60006104a2858561049d8686610bb7565b6106f6565b90508473ffffffffffffffffffffffffffffffffffffffff1660008083815260200190815260200160002060009054906101000a900473ffffffffffffffffffffffffffffffffffffffff1673ffffffffffffffffffffffffffffffffffffffff1614610544576040517f08c379a000000000000000000000000000000000000000000000000000000000815260040161053b90611851565b60405180910390fd5b60008473ffffffffffffffffffffffffffffffffffffffff16848460405161056d929190611635565b6000604051808303816000865af19150503d80600081146105aa576040519150601f19603f3d011682016040523d82523d6000602084013e6105af565b606091505b50509050806105f3576040517f08c379a00000000000000000000000000000000000000000000000000000000081526004016105ea90611871565b60405180910390fd5b7f000000000000000000000000000000000000000000000000000000000000000073ffffffffffffffffffffffffffffffffffffffff16636f192acc888a896040518463ffffffff1660e01b815260040161065093929190611725565b600060405180830381600087803b15801561066a57600080fd5b505af115801561067e573d6000803e3d6000fd5b505050508473ffffffffffffffffffffffffffffffffffffffff168773ffffffffffffffffffffffffffffffffffffffff16897ff5785831cc21ed1a6e74f60bd9268a70a7a3f3fc03c815dba22ceda33aea26ce8787876040516106e4939291906117dd565b60405180910390a45050505050505050565b600083838360405160200161070d93929190611684565b6040516020818303038152906040528051906020012090509392505050565b6040518060400160405280600181526020017f320000000000000000000000000000000000000000000000000000000000000081525081565b7f000000000000000000000000000000000000000000000000000000000000000081565b60016020528060005260406000206000915054906101000a900473ffffffffffffffffffffffffffffffffffffffff1681565b600082826040516107ce929190611635565b6040518091039020905092915050565b60006107eb3387876106f6565b9050600073ffffffffffffffffffffffffffffffffffffffff1660008083815260200190815260200160002060009054906101000a900473ffffffffffffffffffffffffffffffffffffffff1673ffffffffffffffffffffffffffffffffffffffff161461088e576040517f08c379a0000000000000000000000000000000000000000000000000000000008152600401610885906118b1565b60405180910390fd5b6108df81600260003373ffffffffffffffffffffffffffffffffffffffff1673ffffffffffffffffffffffffffffffffffffffff168152602001908152602001600020610dc590919063ffffffff16565b503360008083815260200190815260200160002060006101000a81548173ffffffffffffffffffffffffffffffffffffffff021916908373ffffffffffffffffffffffffffffffffffffffff160217905550856001600083815260200190815260200160002060006101000a81548173ffffffffffffffffffffffffffffffffffffffff021916908373ffffffffffffffffffffffffffffffffffffffff1602179055507f9d59214787f3824da2b165425d040688cd7dc25a540e26c05200d2b92c248bf9338787878588886040516109be97969594939291906116bb565b60405180910390a1505050505050565b7f000000000000000000000000000000000000000000000000000000000000000081565b3373ffffffffffffffffffffffffffffffffffffffff1660008083815260200190815260200160002060009054906101000a900473ffffffffffffffffffffffffffffffffffffffff1673ffffffffffffffffffffffffffffffffffffffff1614610a92576040517f08c379a0000000000000000000000000000000000000000000000000000000008152600401610a8990611891565b60405180910390fd5b610ae381600260003373ffffffffffffffffffffffffffffffffffffffff1673ffffffffffffffffffffffffffffffffffffffff168152602001908152602001600020610ddc90919063ffffffff16565b5060008082815260200190815260200160002060006101000a81549073ffffffffffffffffffffffffffffffffffffffff02191690556001600082815260200190815260200160002060006101000a81549073ffffffffffffffffffffffffffffffffffffffff02191690557f44d83729a43f9c6046446df014d073dd242e0ad672071e9b292f31b669c25b098133604051610b80929190611799565b60405180910390a150565b6000610b9982600001610df3565b9050919050565b6000610baf8360000183610e04565b905092915050565b6000601883836003818110610bf5577f4e487b7100000000000000000000000000000000000000000000000000000000600052603260045260246000fd5b9050013560f81c60f81b7effffffffffffffffffffffffffffffffffffffffffffffffffffffffffffff19167bffffffffffffffffffffffffffffffffffffffffffffffffffffffff1916901c601084846002818110610c7e577f4e487b7100000000000000000000000000000000000000000000000000000000600052603260045260246000fd5b9050013560f81c60f81b7effffffffffffffffffffffffffffffffffffffffffffffffffffffffffffff19167bffffffffffffffffffffffffffffffffffffffffffffffffffffffff1916901c600885856001818110610d07577f4e487b7100000000000000000000000000000000000000000000000000000000600052603260045260246000fd5b9050013560f81c60f81b7effffffffffffffffffffffffffffffffffffffffffffffffffffffffffffff19167bffffffffffffffffffffffffffffffffffffffffffffffffffffffff1916901c85856000818110610d8e577f4e487b7100000000000000000000000000000000000000000000000000000000600052603260045260246000fd5b9050013560f81c60f81b7effffffffffffffffffffffffffffffffffffffffffffffffffffffffffffff1916171717905092915050565b6000610dd48360000183610e55565b905092915050565b6000610deb8360000183610ec5565b905092915050565b600081600001805490509050919050565b6000826000018281548110610e42577f4e487b7100000000000000000000000000000000000000000000000000000000600052603260045260246000fd5b9060005260206000200154905092915050565b6000610e61838361104b565b610eba578260000182908060018154018082558091505060019003906000526020600020016000909190919091505582600001805490508360010160008481526020019081526020016000208190555060019050610ebf565b600090505b92915050565b6000808360010160008481526020019081526020016000205490506000811461103f576000600182610ef79190611942565b9050600060018660000180549050610f0f9190611942565b9050818114610fca576000866000018281548110610f56577f4e487b7100000000000000000000000000000000000000000000000000000000600052603260045260246000fd5b9060005260206000200154905080876000018481548110610fa0577f4e487b7100000000000000000000000000000000000000000000000000000000600052603260045260246000fd5b90600052602060002001819055508387600101600083815260200190815260200160002081905550505b85600001805480611004577f4e487b7100000000000000000000000000000000000000000000000000000000600052603160045260246000fd5b600190038181906000526020600020016000905590558560010160008681526020019081526020016000206000905560019350505050611045565b60009150505b92915050565b600080836001016000848152602001908152602001600020541415905092915050565b60008135905061107d81611ac5565b92915050565b60008135905061109281611adc565b92915050565b6000813590506110a781611af3565b92915050565b60008083601f8401126110bf57600080fd5b8235905067ffffffffffffffff8111156110d857600080fd5b6020830191508360018202830111156110f057600080fd5b9250929050565b60008083601f84011261110957600080fd5b8235905067ffffffffffffffff81111561112257600080fd5b60208301915083600182028301111561113a57600080fd5b9250929050565b60008135905061115081611b0a565b92915050565b60006020828403121561116857600080fd5b60006111768482850161106e565b91505092915050565b60008060006060848603121561119457600080fd5b60006111a28682870161106e565b93505060206111b38682870161106e565b92505060406111c486828701611098565b9150509250925092565b6000806000806000608086880312156111e657600080fd5b60006111f48882890161106e565b955050602061120588828901611098565b94505060406112168882890161106e565b935050606086013567ffffffffffffffff81111561123357600080fd5b61123f888289016110ad565b92509250509295509295909350565b60006020828403121561126057600080fd5b600061126e84828501611083565b91505092915050565b6000806020838503121561128a57600080fd5b600083013567ffffffffffffffff8111156112a457600080fd5b6112b0858286016110f7565b92509250509250929050565b60008060008060008060a087890312156112d557600080fd5b60006112e389828a01611141565b96505060206112f489828a0161106e565b955050604061130589828a0161106e565b945050606061131689828a0161106e565b935050608087013567ffffffffffffffff81111561133357600080fd5b61133f89828a016110ad565b92509250509295509295509295565b600061135a83836113e2565b60208301905092915050565b61136f81611988565b82525050565b61137e81611976565b82525050565b600061138f826118e1565b6113998185611904565b93506113a4836118d1565b8060005b838110156113d55781516113bc888261134e565b97506113c7836118f7565b9250506001810190506113a8565b5085935050505092915050565b6113eb8161199a565b82525050565b6113fa8161199a565b82525050565b611409816119a4565b82525050565b600061141b8385611915565b93506114288385846119fa565b61143183611ab4565b840190509392505050565b60006114488385611926565b93506114558385846119fa565b82840190509392505050565b600061146c826118ec565b6114768185611931565b9350611486818560208601611a09565b61148f81611ab4565b840191505092915050565b60006114a7601783611931565b91507f47656c61746f666965643a204f6e6c792067656c61746f0000000000000000006000830152602082019050919050565b60006114e7601b83611931565b91507f506f6b654d653a20657865633a204e6f207461736b20666f756e6400000000006000830152602082019050919050565b6000611527601e83611931565b91507f506f6b654d653a20657865633a20457865637574696f6e206661696c656400006000830152602082019050919050565b6000611567603183611931565b91507f506f6b654d653a2063616e63656c5461736b3a2053656e64657220646964206e60008301527f6f74207374617274207461736b207965740000000000000000000000000000006020830152604082019050919050565b60006115cd602f83611931565b91507f506f6b654d653a206372656174655461736b3a2053656e64657220616c72656160008301527f64792073746172746564207461736b00000000000000000000000000000000006020830152604082019050919050565b61162f816119f0565b82525050565b600061164282848661143c565b91508190509392505050565b60006020820190506116636000830184611375565b92915050565b600060208201905061167e6000830184611366565b92915050565b60006060820190506116996000830186611375565b6116a66020830185611375565b6116b36040830184611400565b949350505050565b600060c0820190506116d0600083018a611375565b6116dd6020830189611375565b6116ea6040830188611400565b6116f76060830187611375565b61170460808301866113f1565b81810360a083015261171781848661140f565b905098975050505050505050565b600060608201905061173a6000830186611375565b6117476020830185611626565b6117546040830184611375565b949350505050565b600060208201905081810360008301526117768184611384565b905092915050565b600060208201905061179360008301846113f1565b92915050565b60006040820190506117ae60008301856113f1565b6117bb6020830184611375565b9392505050565b60006020820190506117d76000830184611400565b92915050565b600060408201905081810360008301526117f881858761140f565b905061180760208301846113f1565b949350505050565b600060208201905081810360008301526118298184611461565b905092915050565b6000602082019050818103600083015261184a8161149a565b9050919050565b6000602082019050818103600083015261186a816114da565b9050919050565b6000602082019050818103600083015261188a8161151a565b9050919050565b600060208201905081810360008301526118aa8161155a565b9050919050565b600060208201905081810360008301526118ca816115c0565b9050919050565b6000819050602082019050919050565b600081519050919050565b600081519050919050565b6000602082019050919050565b600082825260208201905092915050565b600082825260208201905092915050565b600081905092915050565b600082825260208201905092915050565b600061194d826119f0565b9150611958836119f0565b92508282101561196b5761196a611a85565b5b828203905092915050565b6000611981826119d0565b9050919050565b6000611993826119d0565b9050919050565b6000819050919050565b60007fffffffff0000000000000000000000000000000000000000000000000000000082169050919050565b600073ffffffffffffffffffffffffffffffffffffffff82169050919050565b6000819050919050565b82818337600083830152505050565b60005b83811015611a27578082015181840152602081019050611a0c565b83811115611a36576000848401525b50505050565b6000611a47826119f0565b91507fffffffffffffffffffffffffffffffffffffffffffffffffffffffffffffffff821415611a7a57611a79611a85565b5b600182019050919050565b7f4e487b7100000000000000000000000000000000000000000000000000000000600052601160045260246000fd5b6000601f19601f8301169050919050565b611ace81611976565b8114611ad957600080fd5b50565b611ae58161199a565b8114611af057600080fd5b50565b611afc816119a4565b8114611b0757600080fd5b50565b611b13816119f0565b8114611b1e57600080fd5b5056fea26469706673582212202e32288ab8c4a0c99289cd45dd25c50ab911d2988b78b9ec806723b5a2e8080e64736f6c63430008000033",
  "devdoc": {
    "kind": "dev",
    "methods": {
      "cancelTask(bytes32)": {
        "params": {
          "_taskId": "The hash of the task, can be computed using getTaskId()"
        }
      },
      "createTask(address,bytes4,address,bytes)": {
        "params": {
          "_execAddress": "On which contract should Gelato execute the transactions",
          "_execSelector": "Which function Gelato should eecute on the _execAddress",
          "_resolverAddress": "On which contract should Gelato check when to execute the tx",
          "_resolverData": "Which data should be used to check on the Resolver when to execute the tx"
        }
      },
      "exec(uint256,address,address,address,bytes)": {
        "params": {
          "_execAddress": "On which contract should Gelato execute the tx",
          "_execData": "Data used to execute the tx, queried from the Resolver by Gelato",
          "_feeToken": "Token used to pay for the execution. ETH = 0xeeeeee...",
          "_taskCreator": "On which contract should Gelato check when to execute the tx",
          "_txFee": "Fee paid to Gelato for execution, deducted on the TaskTreasury"
        }
      },
      "getSelector(string)": {
        "details": "Example: \"transferFrom(address,address,uint256)\" => 0x23b872dd",
        "params": {
          "_func": "String of the function you want the selector from"
        }
      },
      "getTaskId(address,address,bytes4)": {
        "params": {
          "_execAddress": "Address of the contract to be executed by Gelato",
          "_selector": "Function on the _execAddress which should be executed",
          "_taskCreator": "Address of the task creator"
        }
      },
      "getTaskIdsByUser(address)": {
        "params": {
          "_taskCreator": "Address who created the task"
        }
      }
    },
    "version": 1
  },
  "userdoc": {
    "kind": "user",
    "methods": {
      "cancelTask(bytes32)": {
        "notice": "Cancel a task so that Gelato can no longer execute it"
      },
      "createTask(address,bytes4,address,bytes)": {
        "notice": "Create a task that tells Gelato to monitor and execute transactions on specific contracts"
      },
      "exec(uint256,address,address,address,bytes)": {
        "notice": "Execution API called by Gelato"
      },
      "getSelector(string)": {
        "notice": "Helper func to query the _selector of a function you want to automate"
      },
      "getTaskId(address,address,bytes4)": {
        "notice": "Returns TaskId of a task Creator"
      },
      "getTaskIdsByUser(address)": {
        "notice": "Helper func to query all open tasks by a task creator"
      }
    },
    "notice": "PokeMe enables everyone to communicate to Gelato Bots to monitor and execute certain transactionsResolverAddresses determine when Gelato should execute and provides bots with the payload they should use to executeExecAddress determine the actual contracts to execute a function on",
    "version": 1
  },
  "storageLayout": {
    "storage": [
      {
        "astId": 1726,
        "contract": "contracts/PokeMe.sol:PokeMe",
        "label": "taskCreator",
        "offset": 0,
        "slot": "0",
        "type": "t_mapping(t_bytes32,t_address)"
      },
      {
        "astId": 1730,
        "contract": "contracts/PokeMe.sol:PokeMe",
        "label": "execAddresses",
        "offset": 0,
        "slot": "1",
        "type": "t_mapping(t_bytes32,t_address)"
      },
      {
        "astId": 1735,
        "contract": "contracts/PokeMe.sol:PokeMe",
        "label": "_createdTasks",
        "offset": 0,
        "slot": "2",
        "type": "t_mapping(t_address,t_struct(Bytes32Set)1053_storage)"
      }
    ],
    "types": {
      "t_address": {
        "encoding": "inplace",
        "label": "address",
        "numberOfBytes": "20"
      },
      "t_array(t_bytes32)dyn_storage": {
        "base": "t_bytes32",
        "encoding": "dynamic_array",
        "label": "bytes32[]",
        "numberOfBytes": "32"
      },
      "t_bytes32": {
        "encoding": "inplace",
        "label": "bytes32",
        "numberOfBytes": "32"
      },
      "t_mapping(t_address,t_struct(Bytes32Set)1053_storage)": {
        "encoding": "mapping",
        "key": "t_address",
        "label": "mapping(address => struct EnumerableSet.Bytes32Set)",
        "numberOfBytes": "32",
        "value": "t_struct(Bytes32Set)1053_storage"
      },
      "t_mapping(t_bytes32,t_address)": {
        "encoding": "mapping",
        "key": "t_bytes32",
        "label": "mapping(bytes32 => address)",
        "numberOfBytes": "32",
        "value": "t_address"
      },
      "t_mapping(t_bytes32,t_uint256)": {
        "encoding": "mapping",
        "key": "t_bytes32",
        "label": "mapping(bytes32 => uint256)",
        "numberOfBytes": "32",
        "value": "t_uint256"
      },
      "t_struct(Bytes32Set)1053_storage": {
        "encoding": "inplace",
        "label": "struct EnumerableSet.Bytes32Set",
        "members": [
          {
            "astId": 1052,
            "contract": "contracts/PokeMe.sol:PokeMe",
            "label": "_inner",
            "offset": 0,
            "slot": "0",
            "type": "t_struct(Set)873_storage"
          }
        ],
        "numberOfBytes": "64"
      },
      "t_struct(Set)873_storage": {
        "encoding": "inplace",
        "label": "struct EnumerableSet.Set",
        "members": [
          {
            "astId": 868,
            "contract": "contracts/PokeMe.sol:PokeMe",
            "label": "_values",
            "offset": 0,
            "slot": "0",
            "type": "t_array(t_bytes32)dyn_storage"
          },
          {
            "astId": 872,
            "contract": "contracts/PokeMe.sol:PokeMe",
            "label": "_indexes",
            "offset": 0,
            "slot": "1",
            "type": "t_mapping(t_bytes32,t_uint256)"
          }
        ],
        "numberOfBytes": "64"
      },
      "t_uint256": {
        "encoding": "inplace",
        "label": "uint256",
        "numberOfBytes": "32"
      }
    }
  }
}