{
  "address": "0xE8E0873f12d7E04630989401bC7b54a67E403df9",
  "abi": [
    {
      "inputs": [
        {
          "internalType": "contract IOpsProxyFactory",
          "name": "_opsProxyFactory",
          "type": "address"
        }
      ],
      "stateMutability": "nonpayable",
      "type": "constructor"
    },
    {
      "inputs": [
        {
          "internalType": "bytes32",
          "name": "",
          "type": "bytes32"
        }
      ],
      "name": "execAddresses",
      "outputs": [
        {
          "internalType": "address",
          "name": "",
          "type": "address"
        }
      ],
      "stateMutability": "view",
      "type": "function"
    },
    {
      "inputs": [],
      "name": "fee",
      "outputs": [
        {
          "internalType": "uint256",
          "name": "",
          "type": "uint256"
        }
      ],
      "stateMutability": "view",
      "type": "function"
    },
    {
      "inputs": [],
      "name": "feeToken",
      "outputs": [
        {
          "internalType": "address",
          "name": "",
          "type": "address"
        }
      ],
      "stateMutability": "view",
      "type": "function"
    },
    {
      "inputs": [
        {
          "internalType": "bytes32",
          "name": "",
          "type": "bytes32"
        },
        {
          "internalType": "address",
          "name": "_taskCreator",
          "type": "address"
        },
        {
          "internalType": "address",
          "name": "",
          "type": "address"
        },
        {
          "internalType": "bytes",
          "name": "",
          "type": "bytes"
        },
        {
          "internalType": "bytes",
          "name": "",
          "type": "bytes"
        }
      ],
      "name": "onCreateTask",
      "outputs": [],
      "stateMutability": "nonpayable",
      "type": "function"
    },
    {
      "inputs": [],
      "name": "opsProxyFactory",
      "outputs": [
        {
          "internalType": "contract IOpsProxyFactory",
          "name": "",
          "type": "address"
        }
      ],
      "stateMutability": "view",
      "type": "function"
    },
    {
      "inputs": [
        {
          "internalType": "bytes32",
          "name": "taskId",
          "type": "bytes32"
        },
        {
          "internalType": "address",
          "name": "taskCreator",
          "type": "address"
        },
        {
          "internalType": "address",
          "name": "execAddress",
          "type": "address"
        },
        {
          "internalType": "bytes",
          "name": "execData",
          "type": "bytes"
        }
      ],
      "name": "postExecCall",
      "outputs": [],
      "stateMutability": "nonpayable",
      "type": "function"
    },
    {
      "inputs": [
        {
          "internalType": "bytes32",
          "name": "",
          "type": "bytes32"
        },
        {
          "internalType": "address",
          "name": "_taskCreator",
          "type": "address"
        }
      ],
      "name": "preCancelTask",
      "outputs": [
        {
          "internalType": "address",
          "name": "",
          "type": "address"
        }
      ],
      "stateMutability": "view",
      "type": "function"
    },
    {
      "inputs": [
        {
          "internalType": "address",
          "name": "_taskCreator",
          "type": "address"
        },
        {
          "internalType": "address",
          "name": "_execAddress",
          "type": "address"
        }
      ],
      "name": "preCreateTask",
      "outputs": [
        {
          "internalType": "address",
          "name": "",
          "type": "address"
        },
        {
          "internalType": "address",
          "name": "",
          "type": "address"
        }
      ],
      "stateMutability": "view",
      "type": "function"
    },
    {
      "inputs": [
        {
          "internalType": "bytes32",
          "name": "",
          "type": "bytes32"
        },
        {
          "internalType": "address",
          "name": "_taskCreator",
          "type": "address"
        },
        {
          "internalType": "address",
          "name": "_execAddress",
          "type": "address"
        },
        {
          "internalType": "bytes",
          "name": "_execData",
          "type": "bytes"
        }
      ],
      "name": "preExecCall",
      "outputs": [
        {
          "internalType": "address",
          "name": "",
          "type": "address"
        },
        {
          "internalType": "bytes",
          "name": "execData",
          "type": "bytes"
        }
      ],
      "stateMutability": "view",
      "type": "function"
    },
    {
      "inputs": [
        {
          "internalType": "bytes32",
          "name": "",
          "type": "bytes32"
        }
      ],
      "name": "taskCreator",
      "outputs": [
        {
          "internalType": "address",
          "name": "",
          "type": "address"
        }
      ],
      "stateMutability": "view",
      "type": "function"
    },
    {
      "inputs": [
        {
          "internalType": "enum LibDataTypes.Module",
          "name": "",
          "type": "uint8"
        }
      ],
      "name": "taskModuleAddresses",
      "outputs": [
        {
          "internalType": "address",
          "name": "",
          "type": "address"
        }
      ],
      "stateMutability": "view",
      "type": "function"
    },
    {
      "inputs": [
        {
          "internalType": "bytes32",
          "name": "",
          "type": "bytes32"
        }
      ],
      "name": "timedTask",
      "outputs": [
        {
          "internalType": "uint128",
          "name": "nextExec",
          "type": "uint128"
        },
        {
          "internalType": "uint128",
          "name": "interval",
          "type": "uint128"
        }
      ],
      "stateMutability": "view",
      "type": "function"
    }
  ],
  "transactionHash": "0x69bf9cd86101c27d76a08fe5ef0015d1be75c303b04a2b1af8cfc1dfa1532d69",
  "args": [
    "0xC815dB16D4be6ddf2685C201937905aBf338F5D7"
  ],
  "numDeployments": 1,
  "solcInputHash": "46e05d039a6f051c260568df03bedd4f",
  "bytecode": "0x60a06040523480156200001157600080fd5b50604051620014a5380380620014a58339818101604052810190620000379190620000f0565b8073ffffffffffffffffffffffffffffffffffffffff1660808173ffffffffffffffffffffffffffffffffffffffff16815250505062000122565b600080fd5b600073ffffffffffffffffffffffffffffffffffffffff82169050919050565b6000620000a48262000077565b9050919050565b6000620000b88262000097565b9050919050565b620000ca81620000ab565b8114620000d657600080fd5b50565b600081519050620000ea81620000bf565b92915050565b60006020828403121562000109576200010862000072565b5b60006200011984828501620000d9565b91505092915050565b6080516113366200016f600039600081816102a3015281816104180152818161059a015281816106fc01528181610726015281816108b00152818161096b0152610a0c01526113366000f3fe608060405234801561001057600080fd5b50600436106100b45760003560e01c8063b2db0b4111610071578063b2db0b41146101b4578063b81cd866146101d0578063ba1d0ff414610201578063c10304f71461021f578063cd3d4fb914610250578063ddca3f4314610280576100b4565b806314ae9926146100b95780632e6e0bd0146100e9578063647846a5146101195780636d2dd29f1461013757806376474e6a14610167578063b0ccbdf014610198575b600080fd5b6100d360048036038101906100ce9190610bd4565b61029e565b6040516100e09190610c23565b60405180910390f35b61010360048036038101906100fe9190610c3e565b610385565b6040516101109190610c23565b60405180910390f35b6101216103b8565b60405161012e9190610c23565b60405180910390f35b610151600480360381019061014c9190610c3e565b6103de565b60405161015e9190610c23565b60405180910390f35b610181600480360381019061017c9190610c6b565b610411565b60405161018f929190610cab565b60405180910390f35b6101b260048036038101906101ad9190610d39565b610685565b005b6101ce60048036038101906101c99190610df5565b610697565b005b6101ea60048036038101906101e59190610c3e565b61069e565b6040516101f8929190610ea8565b60405180910390f35b6102096106fa565b6040516102169190610f30565b60405180910390f35b61023960048036038101906102349190610df5565b61071e565b604051610247929190610fe4565b60405180910390f35b61026a60048036038101906102659190611039565b61085c565b6040516102779190610c23565b60405180910390f35b61028861088f565b604051610295919061107f565b60405180910390f35b6000807f000000000000000000000000000000000000000000000000000000000000000073ffffffffffffffffffffffffffffffffffffffff166314afd79e846040518263ffffffff1660e01b81526004016102fa9190610c23565b602060405180830381865afa158015610317573d6000803e3d6000fd5b505050506040513d601f19601f8201168201806040525081019061033b91906110af565b9050600073ffffffffffffffffffffffffffffffffffffffff168173ffffffffffffffffffffffffffffffffffffffff161461037a578091505061037f565b829150505b92915050565b60006020528060005260406000206000915054906101000a900473ffffffffffffffffffffffffffffffffffffffff1681565b600460009054906101000a900473ffffffffffffffffffffffffffffffffffffffff1681565b60016020528060005260406000206000915054906101000a900473ffffffffffffffffffffffffffffffffffffffff1681565b60008060007f000000000000000000000000000000000000000000000000000000000000000073ffffffffffffffffffffffffffffffffffffffff166314afd79e856040518263ffffffff1660e01b815260040161046f9190610c23565b602060405180830381865afa15801561048c573d6000803e3d6000fd5b505050506040513d601f19601f820116820180604052508101906104b091906110af565b9050600073ffffffffffffffffffffffffffffffffffffffff168173ffffffffffffffffffffffffffffffffffffffff1614610596578073ffffffffffffffffffffffffffffffffffffffff168573ffffffffffffffffffffffffffffffffffffffff16148061054b57508373ffffffffffffffffffffffffffffffffffffffff168573ffffffffffffffffffffffffffffffffffffffff16145b61058a576040517f08c379a000000000000000000000000000000000000000000000000000000000815260040161058190611139565b60405180910390fd5b8084925092505061067e565b60007f000000000000000000000000000000000000000000000000000000000000000073ffffffffffffffffffffffffffffffffffffffff166314afd79e876040518263ffffffff1660e01b81526004016105f19190610c23565b602060405180830381865afa15801561060e573d6000803e3d6000fd5b505050506040513d601f19601f8201168201806040525081019061063291906110af565b9050600073ffffffffffffffffffffffffffffffffffffffff168173ffffffffffffffffffffffffffffffffffffffff161461067557808593509350505061067e565b85859350935050505b9250929050565b61068e86610895565b50505050505050565b5050505050565b60056020528060005260406000206000915090508060000160009054906101000a90046fffffffffffffffffffffffffffffffff16908060000160109054906101000a90046fffffffffffffffffffffffffffffffff16905082565b7f000000000000000000000000000000000000000000000000000000000000000081565b6000606060007f000000000000000000000000000000000000000000000000000000000000000073ffffffffffffffffffffffffffffffffffffffff1663ded89a7c886040518263ffffffff1660e01b815260040161077d9190610c23565b6040805180830381865afa158015610799573d6000803e3d6000fd5b505050506040513d601f19601f820116820180604052508101906107bd9190611191565b5090508073ffffffffffffffffffffffffffffffffffffffff168673ffffffffffffffffffffffffffffffffffffffff1614610803576107fe868686610aae565b610849565b84848080601f016020809104026020016040519081016040528093929190818152602001838380828437600081840152601f19601f820116905080830192505050505050505b9150809550859250509550959350505050565b60066020528060005260406000206000915054906101000a900473ffffffffffffffffffffffffffffffffffffffff1681565b60035481565b60008073ffffffffffffffffffffffffffffffffffffffff167f000000000000000000000000000000000000000000000000000000000000000073ffffffffffffffffffffffffffffffffffffffff166314afd79e846040518263ffffffff1660e01b81526004016109079190610c23565b602060405180830381865afa158015610924573d6000803e3d6000fd5b505050506040513d601f19601f8201168201806040525081019061094891906110af565b73ffffffffffffffffffffffffffffffffffffffff161415905080610aaa5760007f000000000000000000000000000000000000000000000000000000000000000073ffffffffffffffffffffffffffffffffffffffff1663ded89a7c846040518263ffffffff1660e01b81526004016109c29190610c23565b6040805180830381865afa1580156109de573d6000803e3d6000fd5b505050506040513d601f19601f82011682018060405250810190610a029190611191565b91505080610aa8577f000000000000000000000000000000000000000000000000000000000000000073ffffffffffffffffffffffffffffffffffffffff166374912cd2846040518263ffffffff1660e01b8152600401610a639190610c23565b6020604051808303816000875af1158015610a82573d6000803e3d6000fd5b505050506040513d601f19601f82011682018060405250810190610aa6919061120f565b505b505b5050565b60606354132d7860e01b8484846000604051602401610ad094939291906112c0565b604051602081830303815290604052907bffffffffffffffffffffffffffffffffffffffffffffffffffffffff19166020820180517bffffffffffffffffffffffffffffffffffffffffffffffffffffffff838183161783525050505090509392505050565b600080fd5b600080fd5b6000819050919050565b610b5381610b40565b8114610b5e57600080fd5b50565b600081359050610b7081610b4a565b92915050565b600073ffffffffffffffffffffffffffffffffffffffff82169050919050565b6000610ba182610b76565b9050919050565b610bb181610b96565b8114610bbc57600080fd5b50565b600081359050610bce81610ba8565b92915050565b60008060408385031215610beb57610bea610b36565b5b6000610bf985828601610b61565b9250506020610c0a85828601610bbf565b9150509250929050565b610c1d81610b96565b82525050565b6000602082019050610c386000830184610c14565b92915050565b600060208284031215610c5457610c53610b36565b5b6000610c6284828501610b61565b91505092915050565b60008060408385031215610c8257610c81610b36565b5b6000610c9085828601610bbf565b9250506020610ca185828601610bbf565b9150509250929050565b6000604082019050610cc06000830185610c14565b610ccd6020830184610c14565b9392505050565b600080fd5b600080fd5b600080fd5b60008083601f840112610cf957610cf8610cd4565b5b8235905067ffffffffffffffff811115610d1657610d15610cd9565b5b602083019150836001820283011115610d3257610d31610cde565b5b9250929050565b600080600080600080600060a0888a031215610d5857610d57610b36565b5b6000610d668a828b01610b61565b9750506020610d778a828b01610bbf565b9650506040610d888a828b01610bbf565b955050606088013567ffffffffffffffff811115610da957610da8610b3b565b5b610db58a828b01610ce3565b9450945050608088013567ffffffffffffffff811115610dd857610dd7610b3b565b5b610de48a828b01610ce3565b925092505092959891949750929550565b600080600080600060808688031215610e1157610e10610b36565b5b6000610e1f88828901610b61565b9550506020610e3088828901610bbf565b9450506040610e4188828901610bbf565b935050606086013567ffffffffffffffff811115610e6257610e61610b3b565b5b610e6e88828901610ce3565b92509250509295509295909350565b60006fffffffffffffffffffffffffffffffff82169050919050565b610ea281610e7d565b82525050565b6000604082019050610ebd6000830185610e99565b610eca6020830184610e99565b9392505050565b6000819050919050565b6000610ef6610ef1610eec84610b76565b610ed1565b610b76565b9050919050565b6000610f0882610edb565b9050919050565b6000610f1a82610efd565b9050919050565b610f2a81610f0f565b82525050565b6000602082019050610f456000830184610f21565b92915050565b600081519050919050565b600082825260208201905092915050565b60005b83811015610f85578082015181840152602081019050610f6a565b83811115610f94576000848401525b50505050565b6000601f19601f8301169050919050565b6000610fb682610f4b565b610fc08185610f56565b9350610fd0818560208601610f67565b610fd981610f9a565b840191505092915050565b6000604082019050610ff96000830185610c14565b818103602083015261100b8184610fab565b90509392505050565b6004811061102157600080fd5b50565b60008135905061103381611014565b92915050565b60006020828403121561104f5761104e610b36565b5b600061105d84828501611024565b91505092915050565b6000819050919050565b61107981611066565b82525050565b60006020820190506110946000830184611070565b92915050565b6000815190506110a981610ba8565b92915050565b6000602082840312156110c5576110c4610b36565b5b60006110d38482850161109a565b91505092915050565b600082825260208201905092915050565b7f50726f78794d6f64756c653a204f6e6c79206f776e6572206f662070726f7879600082015250565b60006111236020836110dc565b915061112e826110ed565b602082019050919050565b6000602082019050818103600083015261115281611116565b9050919050565b60008115159050919050565b61116e81611159565b811461117957600080fd5b50565b60008151905061118b81611165565b92915050565b600080604083850312156111a8576111a7610b36565b5b60006111b68582860161109a565b92505060206111c78582860161117c565b9150509250929050565b60006111dc82610b76565b9050919050565b6111ec816111d1565b81146111f757600080fd5b50565b600081519050611209816111e3565b92915050565b60006020828403121561122557611224610b36565b5b6000611233848285016111fa565b91505092915050565b82818337600083830152505050565b60006112578385610f56565b935061126483858461123c565b61126d83610f9a565b840190509392505050565b6000819050919050565b600060ff82169050919050565b60006112aa6112a56112a084611278565b610ed1565b611282565b9050919050565b6112ba8161128f565b82525050565b60006060820190506112d56000830187610c14565b81810360208301526112e881858761124b565b90506112f760408301846112b1565b9594505050505056fea264697066735822122050ecea14d3794becfcefdd20e632183256a6ee4fe00a06dbb0451f2d55f314e464736f6c634300080e0033",
  "devdoc": {
    "kind": "dev",
    "methods": {
      "onCreateTask(bytes32,address,address,bytes,bytes)": {
        "params": {
          "execAddress": "Address of contract that should be called.",
          "execData": "Execution data to be called with / function selector if execution data is yet to be determined.",
          "initModuleArg": "Encoded arguments for module if any.",
          "taskCreator": "The address which created the task.",
          "taskId": "Unique hash of the task created."
        }
      },
      "postExecCall(bytes32,address,address,bytes)": {
        "params": {
          "execAddress": "Address of contract that should be called.",
          "execData": "Execution data to be called with / function selector if execution data is yet to be determined.",
          "taskCreator": "The address which created the task.",
          "taskId": "Unique hash of the task created."
        }
      },
      "preCancelTask(bytes32,address)": {
        "details": "Modules can override taskCreator.",
        "params": {
          "taskCreator": "The address which created the task.",
          "taskId": "Unique hash of the task created."
        },
        "returns": {
          "_0": "address Overriden or original taskCreator."
        }
      },
      "preCreateTask(address,address)": {
        "details": "_taskCreator cannot create task to other user's proxy",
        "params": {
          "execAddress": "Address of contract that should be called.",
          "taskCreator": "The address which created the task."
        },
        "returns": {
          "_0": "address Overriden or original taskCreator.",
          "_1": "address Overriden or original execAddress."
        }
      },
      "preExecCall(bytes32,address,address,bytes)": {
        "details": "_execData is encoded with proxy's `executeCall` function unless _execAddress is OpsProxy which assumes that _execData is encoded with `executeCall` or `batchExecuteCall`.",
        "params": {
          "execAddress": "Address of contract that should be called.",
          "execData": "Execution data to be called with / function selector if execution data is yet to be determined.",
          "taskCreator": "The address which created the task.",
          "taskId": "Unique hash of the task created."
        },
        "returns": {
          "_0": "address Overriden or original execution address.",
          "execData": "bytes Overriden or original execution data."
        }
      }
    },
    "version": 1
  },
  "userdoc": {
    "kind": "user",
    "methods": {
      "onCreateTask(bytes32,address,address,bytes,bytes)": {
        "notice": "Initiates task module whenever `createTask` is being called."
      },
      "postExecCall(bytes32,address,address,bytes)": {
        "notice": "Called during `exec` and after execAddress is called."
      },
      "preCancelTask(bytes32,address)": {
        "notice": "Called before taskId is removed from _createdTasks[]."
      },
      "preCreateTask(address,address)": {
        "notice": "Called before generating taskId."
      },
      "preExecCall(bytes32,address,address,bytes)": {
        "notice": "Called during `exec` and before execAddress is called."
      }
    },
    "version": 1
  },
  "storageLayout": {
    "storage": [
      {
        "astId": 2351,
        "contract": "contracts/taskModules/ProxyModule.sol:ProxyModule",
        "label": "taskCreator",
        "offset": 0,
        "slot": "0",
        "type": "t_mapping(t_bytes32,t_address)"
      },
      {
        "astId": 2356,
        "contract": "contracts/taskModules/ProxyModule.sol:ProxyModule",
        "label": "execAddresses",
        "offset": 0,
        "slot": "1",
        "type": "t_mapping(t_bytes32,t_address)"
      },
      {
        "astId": 2362,
        "contract": "contracts/taskModules/ProxyModule.sol:ProxyModule",
        "label": "_createdTasks",
        "offset": 0,
        "slot": "2",
        "type": "t_mapping(t_address,t_struct(Bytes32Set)1433_storage)"
      },
      {
        "astId": 2364,
        "contract": "contracts/taskModules/ProxyModule.sol:ProxyModule",
        "label": "fee",
        "offset": 0,
        "slot": "3",
        "type": "t_uint256"
      },
      {
        "astId": 2366,
        "contract": "contracts/taskModules/ProxyModule.sol:ProxyModule",
        "label": "feeToken",
        "offset": 0,
        "slot": "4",
        "type": "t_address"
      },
      {
        "astId": 2372,
        "contract": "contracts/taskModules/ProxyModule.sol:ProxyModule",
        "label": "timedTask",
        "offset": 0,
        "slot": "5",
        "type": "t_mapping(t_bytes32,t_struct(Time)3569_storage)"
      },
      {
        "astId": 2377,
        "contract": "contracts/taskModules/ProxyModule.sol:ProxyModule",
        "label": "taskModuleAddresses",
        "offset": 0,
        "slot": "6",
        "type": "t_mapping(t_enum(Module)3556,t_address)"
      }
    ],
    "types": {
      "t_address": {
        "encoding": "inplace",
        "label": "address",
        "numberOfBytes": "20"
      },
      "t_array(t_bytes32)dyn_storage": {
        "base": "t_bytes32",
        "encoding": "dynamic_array",
        "label": "bytes32[]",
        "numberOfBytes": "32"
      },
      "t_bytes32": {
        "encoding": "inplace",
        "label": "bytes32",
        "numberOfBytes": "32"
      },
      "t_enum(Module)3556": {
        "encoding": "inplace",
        "label": "enum LibDataTypes.Module",
        "numberOfBytes": "1"
      },
      "t_mapping(t_address,t_struct(Bytes32Set)1433_storage)": {
        "encoding": "mapping",
        "key": "t_address",
        "label": "mapping(address => struct EnumerableSet.Bytes32Set)",
        "numberOfBytes": "32",
        "value": "t_struct(Bytes32Set)1433_storage"
      },
      "t_mapping(t_bytes32,t_address)": {
        "encoding": "mapping",
        "key": "t_bytes32",
        "label": "mapping(bytes32 => address)",
        "numberOfBytes": "32",
        "value": "t_address"
      },
      "t_mapping(t_bytes32,t_struct(Time)3569_storage)": {
        "encoding": "mapping",
        "key": "t_bytes32",
        "label": "mapping(bytes32 => struct LibDataTypes.Time)",
        "numberOfBytes": "32",
        "value": "t_struct(Time)3569_storage"
      },
      "t_mapping(t_bytes32,t_uint256)": {
        "encoding": "mapping",
        "key": "t_bytes32",
        "label": "mapping(bytes32 => uint256)",
        "numberOfBytes": "32",
        "value": "t_uint256"
      },
      "t_mapping(t_enum(Module)3556,t_address)": {
        "encoding": "mapping",
        "key": "t_enum(Module)3556",
        "label": "mapping(enum LibDataTypes.Module => address)",
        "numberOfBytes": "32",
        "value": "t_address"
      },
      "t_struct(Bytes32Set)1433_storage": {
        "encoding": "inplace",
        "label": "struct EnumerableSet.Bytes32Set",
        "members": [
          {
            "astId": 1432,
            "contract": "contracts/taskModules/ProxyModule.sol:ProxyModule",
            "label": "_inner",
            "offset": 0,
            "slot": "0",
            "type": "t_struct(Set)1239_storage"
          }
        ],
        "numberOfBytes": "64"
      },
      "t_struct(Set)1239_storage": {
        "encoding": "inplace",
        "label": "struct EnumerableSet.Set",
        "members": [
          {
            "astId": 1234,
            "contract": "contracts/taskModules/ProxyModule.sol:ProxyModule",
            "label": "_values",
            "offset": 0,
            "slot": "0",
            "type": "t_array(t_bytes32)dyn_storage"
          },
          {
            "astId": 1238,
            "contract": "contracts/taskModules/ProxyModule.sol:ProxyModule",
            "label": "_indexes",
            "offset": 0,
            "slot": "1",
            "type": "t_mapping(t_bytes32,t_uint256)"
          }
        ],
        "numberOfBytes": "64"
      },
      "t_struct(Time)3569_storage": {
        "encoding": "inplace",
        "label": "struct LibDataTypes.Time",
        "members": [
          {
            "astId": 3566,
            "contract": "contracts/taskModules/ProxyModule.sol:ProxyModule",
            "label": "nextExec",
            "offset": 0,
            "slot": "0",
            "type": "t_uint128"
          },
          {
            "astId": 3568,
            "contract": "contracts/taskModules/ProxyModule.sol:ProxyModule",
            "label": "interval",
            "offset": 16,
            "slot": "0",
            "type": "t_uint128"
          }
        ],
        "numberOfBytes": "32"
      },
      "t_uint128": {
        "encoding": "inplace",
        "label": "uint128",
        "numberOfBytes": "16"
      },
      "t_uint256": {
        "encoding": "inplace",
        "label": "uint256",
        "numberOfBytes": "32"
      }
    }
  }
}