{
  "address": "0x99D30A8B8700f6C7bF6AA61506b1E895FAbc5E3A",
  "abi": [
    {
      "inputs": [
        {
          "internalType": "contract ITaskTreasury",
          "name": "_oldTreasury",
          "type": "address"
        }
      ],
      "stateMutability": "nonpayable",
      "type": "constructor"
    },
    {
      "anonymous": false,
      "inputs": [
        {
          "indexed": true,
          "internalType": "address",
          "name": "sender",
          "type": "address"
        },
        {
          "indexed": true,
          "internalType": "address",
          "name": "token",
          "type": "address"
        },
        {
          "indexed": true,
          "internalType": "uint256",
          "name": "amount",
          "type": "uint256"
        }
      ],
      "name": "FundsDeposited",
      "type": "event"
    },
    {
      "anonymous": false,
      "inputs": [
        {
          "indexed": true,
          "internalType": "address",
          "name": "receiver",
          "type": "address"
        },
        {
          "indexed": true,
          "internalType": "address",
          "name": "initiator",
          "type": "address"
        },
        {
          "indexed": true,
          "internalType": "address",
          "name": "token",
          "type": "address"
        },
        {
          "indexed": false,
          "internalType": "uint256",
          "name": "amount",
          "type": "uint256"
        }
      ],
      "name": "FundsWithdrawn",
      "type": "event"
    },
    {
      "anonymous": false,
      "inputs": [
        {
          "indexed": true,
          "internalType": "address",
          "name": "user",
          "type": "address"
        },
        {
          "indexed": true,
          "internalType": "address",
          "name": "executor",
          "type": "address"
        },
        {
          "indexed": true,
          "internalType": "address",
          "name": "token",
          "type": "address"
        },
        {
          "indexed": false,
          "internalType": "uint256",
          "name": "fees",
          "type": "uint256"
        },
        {
          "indexed": false,
          "internalType": "address",
          "name": "service",
          "type": "address"
        }
      ],
      "name": "LogDeductFees",
      "type": "event"
    },
    {
      "anonymous": false,
      "inputs": [
        {
          "indexed": true,
          "internalType": "uint256",
          "name": "maxFee",
          "type": "uint256"
        }
      ],
      "name": "UpdatedMaxFee",
      "type": "event"
    },
    {
      "anonymous": false,
      "inputs": [
        {
          "indexed": true,
          "internalType": "address",
          "name": "service",
          "type": "address"
        },
        {
          "indexed": false,
          "internalType": "bool",
          "name": "add",
          "type": "bool"
        }
      ],
      "name": "UpdatedService",
      "type": "event"
    },
    {
      "inputs": [],
      "name": "MIN_SHARES_IN_TREASURY",
      "outputs": [
        {
          "internalType": "uint256",
          "name": "",
          "type": "uint256"
        }
      ],
      "stateMutability": "view",
      "type": "function"
    },
    {
      "inputs": [
        {
          "internalType": "address",
          "name": "_receiver",
          "type": "address"
        },
        {
          "internalType": "address",
          "name": "_token",
          "type": "address"
        },
        {
          "internalType": "uint256",
          "name": "_amount",
          "type": "uint256"
        }
      ],
      "name": "depositFunds",
      "outputs": [],
      "stateMutability": "payable",
      "type": "function"
    },
    {
      "inputs": [
        {
          "internalType": "address",
          "name": "_user",
          "type": "address"
        }
      ],
      "name": "getCreditTokensByUser",
      "outputs": [
        {
          "internalType": "address[]",
          "name": "",
          "type": "address[]"
        }
      ],
      "stateMutability": "view",
      "type": "function"
    },
    {
      "inputs": [
        {
          "internalType": "address",
          "name": "_user",
          "type": "address"
        }
      ],
      "name": "getTotalCreditTokensByUser",
      "outputs": [
        {
          "internalType": "address[]",
          "name": "",
          "type": "address[]"
        }
      ],
      "stateMutability": "view",
      "type": "function"
    },
    {
      "inputs": [],
      "name": "getWhitelistedServices",
      "outputs": [
        {
          "internalType": "address[]",
          "name": "",
          "type": "address[]"
        }
      ],
      "stateMutability": "view",
      "type": "function"
    },
    {
      "inputs": [
        {
          "internalType": "uint256",
          "name": "_maxFee",
          "type": "uint256"
        }
      ],
      "name": "initialize",
      "outputs": [],
      "stateMutability": "nonpayable",
      "type": "function"
    },
    {
      "inputs": [],
      "name": "maxFee",
      "outputs": [
        {
          "internalType": "uint256",
          "name": "",
          "type": "uint256"
        }
      ],
      "stateMutability": "view",
      "type": "function"
    },
    {
      "inputs": [],
      "name": "oldTreasury",
      "outputs": [
        {
          "internalType": "contract ITaskTreasury",
          "name": "",
          "type": "address"
        }
      ],
      "stateMutability": "view",
      "type": "function"
    },
    {
      "inputs": [
        {
          "internalType": "address",
          "name": "",
          "type": "address"
        },
        {
          "internalType": "address",
          "name": "",
          "type": "address"
        }
      ],
      "name": "shares",
      "outputs": [
        {
          "internalType": "uint256",
          "name": "",
          "type": "uint256"
        }
      ],
      "stateMutability": "view",
      "type": "function"
    },
    {
      "inputs": [
        {
          "internalType": "address",
          "name": "",
          "type": "address"
        }
      ],
      "name": "totalShares",
      "outputs": [
        {
          "internalType": "uint256",
          "name": "",
          "type": "uint256"
        }
      ],
      "stateMutability": "view",
      "type": "function"
    },
    {
      "inputs": [
        {
          "internalType": "address",
          "name": "_user",
          "type": "address"
        },
        {
          "internalType": "address",
          "name": "_token",
          "type": "address"
        }
      ],
      "name": "totalUserTokenBalance",
      "outputs": [
        {
          "internalType": "uint256",
          "name": "",
          "type": "uint256"
        }
      ],
      "stateMutability": "view",
      "type": "function"
    },
    {
      "inputs": [
        {
          "internalType": "uint256",
          "name": "_newMaxFee",
          "type": "uint256"
        }
      ],
      "name": "updateMaxFee",
      "outputs": [],
      "stateMutability": "nonpayable",
      "type": "function"
    },
    {
      "inputs": [
        {
          "internalType": "address",
          "name": "_service",
          "type": "address"
        },
        {
          "internalType": "bool",
          "name": "_add",
          "type": "bool"
        }
      ],
      "name": "updateWhitelistedService",
      "outputs": [],
      "stateMutability": "nonpayable",
      "type": "function"
    },
    {
      "inputs": [
        {
          "internalType": "address",
          "name": "_user",
          "type": "address"
        },
        {
          "internalType": "address",
          "name": "_token",
          "type": "address"
        },
        {
          "internalType": "uint256",
          "name": "_amount",
          "type": "uint256"
        }
      ],
      "name": "useFunds",
      "outputs": [],
      "stateMutability": "nonpayable",
      "type": "function"
    },
    {
      "inputs": [
        {
          "internalType": "address",
          "name": "_user",
          "type": "address"
        },
        {
          "internalType": "address",
          "name": "_token",
          "type": "address"
        }
      ],
      "name": "userTokenBalance",
      "outputs": [
        {
          "internalType": "uint256",
          "name": "",
          "type": "uint256"
        }
      ],
      "stateMutability": "view",
      "type": "function"
    },
    {
      "inputs": [
        {
          "internalType": "address payable",
          "name": "_receiver",
          "type": "address"
        },
        {
          "internalType": "address",
          "name": "_token",
          "type": "address"
        },
        {
          "internalType": "uint256",
          "name": "_amount",
          "type": "uint256"
        }
      ],
      "name": "withdrawFunds",
      "outputs": [],
      "stateMutability": "nonpayable",
      "type": "function"
    },
    {
      "stateMutability": "payable",
      "type": "receive"
    }
  ],
  "transactionHash": "0x086a7c1a6c4817dbdd1f509af95cacd706512ee7a2d9a77025c438c901da2d1b",
  "args": [
    "0xA8a7BBe83960B29789d5CB06Dcd2e6C1DF20581C"
  ],
  "solcInputHash": "07324167f4bf468b271334a7271a4559",
  "bytecode": "0x60a06040523480156200001157600080fd5b5060405162003c2d38038062003c2d8339818101604052810190620000379190620000f0565b8073ffffffffffffffffffffffffffffffffffffffff1660808173ffffffffffffffffffffffffffffffffffffffff16815250505062000122565b600080fd5b600073ffffffffffffffffffffffffffffffffffffffff82169050919050565b6000620000a48262000077565b9050919050565b6000620000b88262000097565b9050919050565b620000ca81620000ab565b8114620000d657600080fd5b50565b600081519050620000ea81620000bf565b92915050565b60006020828403121562000109576200010862000072565b5b60006200011984828501620000d9565b91505092915050565b608051613acc6200016160003960008181610aa501528181610b4a01528181610be701528181610d610152818161117901526111ae0152613acc6000f3fe6080604052600436106100f75760003560e01c8063a3f1233e1161008a578063c1461d5711610059578063c1461d5714610378578063cf0ef51614610394578063d147adb9146103bf578063fe4b84df146103fc5761011d565b8063a3f1233e14610298578063b0da8d0b146102c1578063b47064c8146102fe578063bf6b874e1461033b5761011d565b80632bf30a0e116100c65780632bf30a0e146101ca578063550dddeb146102075780635dfad06a146102305780637df446471461025b5761011d565b806301f59d161461012257806303c845961461014d5780630a9b1803146101785780631c20fadd146101a15761011d565b3661011d5761011b3373eeeeeeeeeeeeeeeeeeeeeeeeeeeeeeeeeeeeeeee34610425565b005b600080fd5b34801561012e57600080fd5b506101376106d4565b6040516101449190612619565b60405180910390f35b34801561015957600080fd5b506101626106da565b60405161016f9190612619565b60405180910390f35b34801561018457600080fd5b5061019f600480360381019061019a91906126de565b6106e3565b005b3480156101ad57600080fd5b506101c860048036038101906101c39190612788565b6107e0565b005b3480156101d657600080fd5b506101f160048036038101906101ec91906127db565b6108cc565b6040516101fe91906128c6565b60405180910390f35b34801561021357600080fd5b5061022e600480360381019061022991906128e8565b61091c565b005b34801561023c57600080fd5b506102456109c8565b60405161025291906128c6565b60405180910390f35b34801561026757600080fd5b50610282600480360381019061027d9190612915565b6109d9565b60405161028f9190612619565b60405180910390f35b3480156102a457600080fd5b506102bf60048036038101906102ba9190612955565b6109fe565b005b3480156102cd57600080fd5b506102e860048036038101906102e391906127db565b610d10565b6040516102f591906128c6565b60405180910390f35b34801561030a57600080fd5b5061032560048036038101906103209190612915565b611082565b6040516103329190612619565b60405180910390f35b34801561034757600080fd5b50610362600480360381019061035d91906127db565b61115f565b60405161036f9190612619565b60405180910390f35b610392600480360381019061038d9190612955565b610425565b005b3480156103a057600080fd5b506103a9611177565b6040516103b69190612a07565b60405180910390f35b3480156103cb57600080fd5b506103e660048036038101906103e19190612915565b61119b565b6040516103f39190612619565b60405180910390f35b34801561040857600080fd5b50610423600480360381019061041e91906128e8565b611266565b005b6002600154141561046b576040517f08c379a000000000000000000000000000000000000000000000000000000000815260040161046290612a7f565b60405180910390fd5b600260018190555060008073eeeeeeeeeeeeeeeeeeeeeeeeeeeeeeeeeeeeeeee73ffffffffffffffffffffffffffffffffffffffff168473ffffffffffffffffffffffffffffffffffffffff1614156104c657349150610649565b60003414610509576040517f08c379a000000000000000000000000000000000000000000000000000000000815260040161050090612aeb565b60405180910390fd5b600084905060008173ffffffffffffffffffffffffffffffffffffffff166370a08231306040518263ffffffff1660e01b81526004016105499190612b1a565b602060405180830381865afa158015610566573d6000803e3d6000fd5b505050506040513d601f19601f8201168201806040525081019061058a9190612b4a565b90506105b93330878573ffffffffffffffffffffffffffffffffffffffff1661135a909392919063ffffffff16565b60008273ffffffffffffffffffffffffffffffffffffffff166370a08231306040518263ffffffff1660e01b81526004016105f49190612b1a565b602060405180830381865afa158015610611573d6000803e3d6000fd5b505050506040513d601f19601f820116820180604052508101906106359190612b4a565b905081816106439190612ba6565b94505050505b81610653856113e3565b61065d9190612ba6565b905061066b858584846114b7565b818473ffffffffffffffffffffffffffffffffffffffff168673ffffffffffffffffffffffffffffffffffffffff167ff0d0e99cae184d0187b093b48894117462462379674a6e11d89c3fbb618e96b060405160405180910390a4505060018081905550505050565b60335481565b64e8d4a5100081565b6106eb6116dc565b73ffffffffffffffffffffffffffffffffffffffff163373ffffffffffffffffffffffffffffffffffffffff1614610758576040517f08c379a000000000000000000000000000000000000000000000000000000000815260040161074f90612c26565b60405180910390fd5b80156107785761077282603761170590919063ffffffff16565b5061078e565b61078c82603761173590919063ffffffff16565b505b8173ffffffffffffffffffffffffffffffffffffffff167f112acfcc345761cf642cf6d7086cc68572679c383746552dcf2f71b26623c158826040516107d49190612c55565b60405180910390a25050565b60026001541415610826576040517f08c379a000000000000000000000000000000000000000000000000000000000815260040161081d90612a7f565b60405180910390fd5b6002600181905550610839338383611765565b6108448383836119d9565b8173ffffffffffffffffffffffffffffffffffffffff163373ffffffffffffffffffffffffffffffffffffffff168473ffffffffffffffffffffffffffffffffffffffff167fc322efa58c9cb2c39cfffdac61d35c8643f5cbf13c6a7d0034de2cf18923aff3846040516108b89190612619565b60405180910390a460018081905550505050565b6060610915603660008473ffffffffffffffffffffffffffffffffffffffff1673ffffffffffffffffffffffffffffffffffffffff168152602001908152602001600020611ae4565b9050919050565b6109246116dc565b73ffffffffffffffffffffffffffffffffffffffff163373ffffffffffffffffffffffffffffffffffffffff1614610991576040517f08c379a000000000000000000000000000000000000000000000000000000000815260040161098890612c26565b60405180910390fd5b80603381905550807fd4710696fc3761c070b614c80e5020d726828d5f75aa8a6b8287c4194dfe6da260405160405180910390a250565b60606109d46037611ae4565b905090565b6034602052816000526040600020602052806000526040600020600091509150505481565b610a12336037611b0590919063ffffffff16565b610a51576040517f08c379a0000000000000000000000000000000000000000000000000000000008152600401610a4890612ce2565b60405180910390fd5b600060335414610aa157806033541015610aa0576040517f08c379a0000000000000000000000000000000000000000000000000000000008152600401610a9790612d4e565b60405180910390fd5b5b60007f000000000000000000000000000000000000000000000000000000000000000073ffffffffffffffffffffffffffffffffffffffff1663b47064c885856040518363ffffffff1660e01b8152600401610afe929190612d6e565b602060405180830381865afa158015610b1b573d6000803e3d6000fd5b505050506040513d601f19601f82011682018060405250810190610b3f9190612b4a565b9050808211610bdc577f000000000000000000000000000000000000000000000000000000000000000073ffffffffffffffffffffffffffffffffffffffff16636f192acc8484876040518463ffffffff1660e01b8152600401610ba593929190612d97565b600060405180830381600087803b158015610bbf57600080fd5b505af1158015610bd3573d6000803e3d6000fd5b50505050610c8c565b6000811115610c75577f000000000000000000000000000000000000000000000000000000000000000073ffffffffffffffffffffffffffffffffffffffff16636f192acc8483876040518463ffffffff1660e01b8152600401610c4293929190612d97565b600060405180830381600087803b158015610c5c57600080fd5b505af1158015610c70573d6000803e3d6000fd5b505050505b610c8b84848385610c869190612ba6565b611b35565b5b8273ffffffffffffffffffffffffffffffffffffffff163273ffffffffffffffffffffffffffffffffffffffff168573ffffffffffffffffffffffffffffffffffffffff167fe06da4bed68570a3adccb02d0aed523ccc1dd372f85808168917d1c4a7e78acb8533604051610d02929190612dce565b60405180910390a450505050565b60606000610d5b603660008573ffffffffffffffffffffffffffffffffffffffff1673ffffffffffffffffffffffffffffffffffffffff168152602001908152602001600020611ae4565b905060007f000000000000000000000000000000000000000000000000000000000000000073ffffffffffffffffffffffffffffffffffffffff16632bf30a0e856040518263ffffffff1660e01b8152600401610db89190612b1a565b600060405180830381865afa158015610dd5573d6000803e3d6000fd5b505050506040513d6000823e3d601f19601f82011682018060405250810190610dfe9190612f65565b90506000805b8251811015610f0657610e78838281518110610e2357610e22612fae565b5b6020026020010151603660008973ffffffffffffffffffffffffffffffffffffffff1673ffffffffffffffffffffffffffffffffffffffff168152602001908152602001600020611b0590919063ffffffff16565b610ef357828181518110610e8f57610e8e612fae565b5b6020026020010151838381518110610eaa57610ea9612fae565b5b602002602001019073ffffffffffffffffffffffffffffffffffffffff16908173ffffffffffffffffffffffffffffffffffffffff16815250508180610eef90612fdd565b9250505b8080610efe90612fdd565b915050610e04565b506000818451610f169190613026565b905060008167ffffffffffffffff811115610f3457610f33612e0d565b5b604051908082528060200260200182016040528015610f625781602001602082028036833780820191505090505b50905060005b82811015611074578551811015610fe657858181518110610f8c57610f8b612fae565b5b6020026020010151828281518110610fa757610fa6612fae565b5b602002602001019073ffffffffffffffffffffffffffffffffffffffff16908173ffffffffffffffffffffffffffffffffffffffff1681525050611061565b6000865182610ff59190612ba6565b905085818151811061100a57611009612fae565b5b602002602001015183838151811061102557611024612fae565b5b602002602001019073ffffffffffffffffffffffffffffffffffffffff16908173ffffffffffffffffffffffffffffffffffffffff1681525050505b808061106c90612fdd565b915050610f68565b508095505050505050919050565b60008061108e836113e3565b9050611156603460008673ffffffffffffffffffffffffffffffffffffffff1673ffffffffffffffffffffffffffffffffffffffff16815260200190815260200160002060008573ffffffffffffffffffffffffffffffffffffffff1673ffffffffffffffffffffffffffffffffffffffff16815260200190815260200160002054603560008673ffffffffffffffffffffffffffffffffffffffff1673ffffffffffffffffffffffffffffffffffffffff1681526020019081526020016000205483611df9565b91505092915050565b60356020528060005260406000206000915090505481565b7f000000000000000000000000000000000000000000000000000000000000000081565b6000806111a88484611082565b905060007f000000000000000000000000000000000000000000000000000000000000000073ffffffffffffffffffffffffffffffffffffffff1663b47064c886866040518363ffffffff1660e01b8152600401611207929190612d6e565b602060405180830381865afa158015611224573d6000803e3d6000fd5b505050506040513d601f19601f820116820180604052508101906112489190612b4a565b9050600081836112589190613026565b905080935050505092915050565b600060019054906101000a900460ff1661128e5760008054906101000a900460ff1615611297565b611296611e3e565b5b6112d6576040517f08c379a00000000000000000000000000000000000000000000000000000000081526004016112cd906130ee565b60405180910390fd5b60008060019054906101000a900460ff161590508015611326576001600060016101000a81548160ff02191690831515021790555060016000806101000a81548160ff0219169083151502179055505b81603381905550611335611e4f565b80156113565760008060016101000a81548160ff0219169083151502179055505b5050565b6113dd846323b872dd60e01b85858560405160240161137b9392919061310e565b604051602081830303815290604052907bffffffffffffffffffffffffffffffffffffffffffffffffffffffff19166020820180517bffffffffffffffffffffffffffffffffffffffffffffffffffffffff8381831617835250505050611ea8565b50505050565b600073eeeeeeeeeeeeeeeeeeeeeeeeeeeeeeeeeeeeeeee73ffffffffffffffffffffffffffffffffffffffff168273ffffffffffffffffffffffffffffffffffffffff161415611435574790506114b2565b8173ffffffffffffffffffffffffffffffffffffffff166370a08231306040518263ffffffff1660e01b815260040161146e9190612b1a565b602060405180830381865afa15801561148b573d6000803e3d6000fd5b505050506040513d601f19601f820116820180604052508101906114af9190612b4a565b90505b919050565b6000603560008573ffffffffffffffffffffffffffffffffffffffff1673ffffffffffffffffffffffffffffffffffffffff168152602001908152602001600020549050600061150985858486611f6f565b9050600082141561155d5764e8d4a5100081101561155c576040517f08c379a0000000000000000000000000000000000000000000000000000000008152600401611553906131b7565b60405180910390fd5b5b600081116115a0576040517f08c379a000000000000000000000000000000000000000000000000000000000815260040161159790613249565b60405180910390fd5b80603460008873ffffffffffffffffffffffffffffffffffffffff1673ffffffffffffffffffffffffffffffffffffffff16815260200190815260200160002060008773ffffffffffffffffffffffffffffffffffffffff1673ffffffffffffffffffffffffffffffffffffffff168152602001908152602001600020600082825461162c9190613026565b92505081905550808261163f9190613026565b603560008773ffffffffffffffffffffffffffffffffffffffff1673ffffffffffffffffffffffffffffffffffffffff168152602001908152602001600020819055506116d385603660008973ffffffffffffffffffffffffffffffffffffffff1673ffffffffffffffffffffffffffffffffffffffff16815260200190815260200160002061170590919063ffffffff16565b50505050505050565b60007fb53127684a568b3173ae13b9f8a6016e243e63b6e8ee1178d6a717850b5d610354905090565b600061172d836000018373ffffffffffffffffffffffffffffffffffffffff1660001b611fd0565b905092915050565b600061175d836000018373ffffffffffffffffffffffffffffffffffffffff1660001b612040565b905092915050565b6000611770836113e3565b90506000603560008573ffffffffffffffffffffffffffffffffffffffff1673ffffffffffffffffffffffffffffffffffffffff16815260200190815260200160002054905060006117c485858486611f6f565b905064e8d4a5100081836117d89190612ba6565b1015611819576040517f08c379a0000000000000000000000000000000000000000000000000000000008152600401611810906132db565b60405180910390fd5b6000603460008873ffffffffffffffffffffffffffffffffffffffff1673ffffffffffffffffffffffffffffffffffffffff16815260200190815260200160002060008773ffffffffffffffffffffffffffffffffffffffff1673ffffffffffffffffffffffffffffffffffffffff16815260200190815260200160002054905081816118a69190612ba6565b603460008973ffffffffffffffffffffffffffffffffffffffff1673ffffffffffffffffffffffffffffffffffffffff16815260200190815260200160002060008873ffffffffffffffffffffffffffffffffffffffff1673ffffffffffffffffffffffffffffffffffffffff1681526020019081526020016000208190555081836119329190612ba6565b603560008873ffffffffffffffffffffffffffffffffffffffff1673ffffffffffffffffffffffffffffffffffffffff16815260200190815260200160002081905550818114156119d0576119ce86603660008a73ffffffffffffffffffffffffffffffffffffffff1673ffffffffffffffffffffffffffffffffffffffff16815260200190815260200160002061173590919063ffffffff16565b505b50505050505050565b73eeeeeeeeeeeeeeeeeeeeeeeeeeeeeeeeeeeeeeee73ffffffffffffffffffffffffffffffffffffffff168273ffffffffffffffffffffffffffffffffffffffff161415611ad35760008373ffffffffffffffffffffffffffffffffffffffff1682604051611a479061332c565b60006040518083038185875af1925050503d8060008114611a84576040519150601f19603f3d011682016040523d82523d6000602084013e611a89565b606091505b5050905080611acd576040517f08c379a0000000000000000000000000000000000000000000000000000000008152600401611ac49061338d565b60405180910390fd5b50611adf565b611ade828483612154565b5b505050565b60606000611af4836000016121da565b905060608190508092505050919050565b6000611b2d836000018373ffffffffffffffffffffffffffffffffffffffff1660001b612236565b905092915050565b6000611b3f6116dc565b90508073ffffffffffffffffffffffffffffffffffffffff168473ffffffffffffffffffffffffffffffffffffffff161415611bb0576040517f08c379a0000000000000000000000000000000000000000000000000000000008152600401611ba7906133f9565b60405180910390fd5b6000611bbb846113e3565b90506000611c0a8585603560008973ffffffffffffffffffffffffffffffffffffffff1673ffffffffffffffffffffffffffffffffffffffff1681526020019081526020016000205485611f6f565b905080603460008873ffffffffffffffffffffffffffffffffffffffff1673ffffffffffffffffffffffffffffffffffffffff16815260200190815260200160002060008773ffffffffffffffffffffffffffffffffffffffff1673ffffffffffffffffffffffffffffffffffffffff168152602001908152602001600020541015611ccb576040517f08c379a0000000000000000000000000000000000000000000000000000000008152600401611cc290613465565b60405180910390fd5b80603460008873ffffffffffffffffffffffffffffffffffffffff1673ffffffffffffffffffffffffffffffffffffffff16815260200190815260200160002060008773ffffffffffffffffffffffffffffffffffffffff1673ffffffffffffffffffffffffffffffffffffffff1681526020019081526020016000206000828254611d579190612ba6565b9250508190555080603460008573ffffffffffffffffffffffffffffffffffffffff1673ffffffffffffffffffffffffffffffffffffffff16815260200190815260200160002060008773ffffffffffffffffffffffffffffffffffffffff1673ffffffffffffffffffffffffffffffffffffffff1681526020019081526020016000206000828254611dea9190613026565b92505081905550505050505050565b6000806000841480611e0b5750600083145b15611e195760009050611e33565b838386611e269190613485565b611e30919061350e565b90505b809150509392505050565b6000611e4930612259565b15905090565b600060019054906101000a900460ff16611e9e576040517f08c379a0000000000000000000000000000000000000000000000000000000008152600401611e95906135b1565b60405180910390fd5b611ea661226c565b565b6000611f0a826040518060400160405280602081526020017f5361666545524332303a206c6f772d6c6576656c2063616c6c206661696c65648152508573ffffffffffffffffffffffffffffffffffffffff166122c49092919063ffffffff16565b9050600081511115611f6a5780806020019051810190611f2a91906135e6565b611f69576040517f08c379a0000000000000000000000000000000000000000000000000000000008152600401611f6090613685565b60405180910390fd5b5b505050565b6000806000611f7e87876122dc565b90506000611f8c88866122dc565b90506000861480611f9d5750600085145b15611faa57819250611fc2565b611fbf8683611fb99190613485565b82612404565b92505b829350505050949350505050565b6000611fdc8383612236565b61203557826000018290806001815401808255809150506001900390600052602060002001600090919091909150558260000180549050836001016000848152602001908152602001600020819055506001905061203a565b600090505b92915050565b600080836001016000848152602001908152602001600020549050600081146121485760006001826120729190612ba6565b905060006001866000018054905061208a9190612ba6565b90508181146120f95760008660000182815481106120ab576120aa612fae565b5b90600052602060002001549050808760000184815481106120cf576120ce612fae565b5b90600052602060002001819055508387600101600083815260200190815260200160002081905550505b8560000180548061210d5761210c6136a5565b5b60019003818190600052602060002001600090559055856001016000868152602001908152602001600020600090556001935050505061214e565b60009150505b92915050565b6121d58363a9059cbb60e01b84846040516024016121739291906136d4565b604051602081830303815290604052907bffffffffffffffffffffffffffffffffffffffffffffffffffffffff19166020820180517bffffffffffffffffffffffffffffffffffffffffffffffffffffffff8381831617835250505050611ea8565b505050565b60608160000180548060200260200160405190810160405280929190818152602001828054801561222a57602002820191906000526020600020905b815481526020019060010190808311612216575b50505050509050919050565b600080836001016000848152602001908152602001600020541415905092915050565b600080823b905060008111915050919050565b600060019054906101000a900460ff166122bb576040517f08c379a00000000000000000000000000000000000000000000000000000000081526004016122b2906135b1565b60405180910390fd5b60018081905550565b60606122d38484600085612462565b90509392505050565b600073eeeeeeeeeeeeeeeeeeeeeeeeeeeeeeeeeeeeeeee73ffffffffffffffffffffffffffffffffffffffff168373ffffffffffffffffffffffffffffffffffffffff16141561232e578190506123fe565b60008373ffffffffffffffffffffffffffffffffffffffff1663313ce5676040518163ffffffff1660e01b8152600401602060405180830381865afa15801561237b573d6000803e3d6000fd5b505050506040513d601f19601f8201168201806040525081019061239f9190612b4a565b905060128110156123d6578060126123b79190612ba6565b600a6123c39190613830565b836123ce9190613485565b9150506123fe565b6012816123e39190612ba6565b600a6123ef9190613830565b836123fa919061350e565b9150505b92915050565b6000808284612413919061387b565b905060008082141561243257838561242b919061350e565b9050612457565b838483876124409190612ba6565b61244a9190613026565b612454919061350e565b90505b809250505092915050565b6060824710156124a7576040517f08c379a000000000000000000000000000000000000000000000000000000000815260040161249e9061391e565b60405180910390fd5b6124b085612576565b6124ef576040517f08c379a00000000000000000000000000000000000000000000000000000000081526004016124e69061398a565b60405180910390fd5b6000808673ffffffffffffffffffffffffffffffffffffffff1685876040516125189190613a19565b60006040518083038185875af1925050503d8060008114612555576040519150601f19603f3d011682016040523d82523d6000602084013e61255a565b606091505b509150915061256a828286612599565b92505050949350505050565b6000808273ffffffffffffffffffffffffffffffffffffffff163b119050919050565b606083156125a9578290506125f9565b6000835111156125bc5782518084602001fd5b816040517f08c379a00000000000000000000000000000000000000000000000000000000081526004016125f09190613a74565b60405180910390fd5b9392505050565b6000819050919050565b61261381612600565b82525050565b600060208201905061262e600083018461260a565b92915050565b6000604051905090565b600080fd5b600080fd5b600073ffffffffffffffffffffffffffffffffffffffff82169050919050565b600061267382612648565b9050919050565b61268381612668565b811461268e57600080fd5b50565b6000813590506126a08161267a565b92915050565b60008115159050919050565b6126bb816126a6565b81146126c657600080fd5b50565b6000813590506126d8816126b2565b92915050565b600080604083850312156126f5576126f461263e565b5b600061270385828601612691565b9250506020612714858286016126c9565b9150509250929050565b600061272982612648565b9050919050565b6127398161271e565b811461274457600080fd5b50565b60008135905061275681612730565b92915050565b61276581612600565b811461277057600080fd5b50565b6000813590506127828161275c565b92915050565b6000806000606084860312156127a1576127a061263e565b5b60006127af86828701612747565b93505060206127c086828701612691565b92505060406127d186828701612773565b9150509250925092565b6000602082840312156127f1576127f061263e565b5b60006127ff84828501612691565b91505092915050565b600081519050919050565b600082825260208201905092915050565b6000819050602082019050919050565b61283d81612668565b82525050565b600061284f8383612834565b60208301905092915050565b6000602082019050919050565b600061287382612808565b61287d8185612813565b935061288883612824565b8060005b838110156128b95781516128a08882612843565b97506128ab8361285b565b92505060018101905061288c565b5085935050505092915050565b600060208201905081810360008301526128e08184612868565b905092915050565b6000602082840312156128fe576128fd61263e565b5b600061290c84828501612773565b91505092915050565b6000806040838503121561292c5761292b61263e565b5b600061293a85828601612691565b925050602061294b85828601612691565b9150509250929050565b60008060006060848603121561296e5761296d61263e565b5b600061297c86828701612691565b935050602061298d86828701612691565b925050604061299e86828701612773565b9150509250925092565b6000819050919050565b60006129cd6129c86129c384612648565b6129a8565b612648565b9050919050565b60006129df826129b2565b9050919050565b60006129f1826129d4565b9050919050565b612a01816129e6565b82525050565b6000602082019050612a1c60008301846129f8565b92915050565b600082825260208201905092915050565b7f5265656e7472616e637947756172643a207265656e7472616e742063616c6c00600082015250565b6000612a69601f83612a22565b9150612a7482612a33565b602082019050919050565b60006020820190508181036000830152612a9881612a5c565b9050919050565b7f5461736b54726561737572793a204e6f20455448000000000000000000000000600082015250565b6000612ad5601483612a22565b9150612ae082612a9f565b602082019050919050565b60006020820190508181036000830152612b0481612ac8565b9050919050565b612b1481612668565b82525050565b6000602082019050612b2f6000830184612b0b565b92915050565b600081519050612b448161275c565b92915050565b600060208284031215612b6057612b5f61263e565b5b6000612b6e84828501612b35565b91505092915050565b7f4e487b7100000000000000000000000000000000000000000000000000000000600052601160045260246000fd5b6000612bb182612600565b9150612bbc83612600565b925082821015612bcf57612bce612b77565b5b828203905092915050565b7f4e4f545f415554484f52495a4544000000000000000000000000000000000000600082015250565b6000612c10600e83612a22565b9150612c1b82612bda565b602082019050919050565b60006020820190508181036000830152612c3f81612c03565b9050919050565b612c4f816126a6565b82525050565b6000602082019050612c6a6000830184612c46565b92915050565b7f5461736b54726561737572793a206f6e6c7957686974656c697374656453657260008201527f7669636573000000000000000000000000000000000000000000000000000000602082015250565b6000612ccc602583612a22565b9150612cd782612c70565b604082019050919050565b60006020820190508181036000830152612cfb81612cbf565b9050919050565b7f5461736b54726561737572793a204f7665726368617267656400000000000000600082015250565b6000612d38601983612a22565b9150612d4382612d02565b602082019050919050565b60006020820190508181036000830152612d6781612d2b565b9050919050565b6000604082019050612d836000830185612b0b565b612d906020830184612b0b565b9392505050565b6000606082019050612dac6000830186612b0b565b612db9602083018561260a565b612dc66040830184612b0b565b949350505050565b6000604082019050612de3600083018561260a565b612df06020830184612b0b565b9392505050565b600080fd5b6000601f19601f8301169050919050565b7f4e487b7100000000000000000000000000000000000000000000000000000000600052604160045260246000fd5b612e4582612dfc565b810181811067ffffffffffffffff82111715612e6457612e63612e0d565b5b80604052505050565b6000612e77612634565b9050612e838282612e3c565b919050565b600067ffffffffffffffff821115612ea357612ea2612e0d565b5b602082029050602081019050919050565b600080fd5b600081519050612ec88161267a565b92915050565b6000612ee1612edc84612e88565b612e6d565b90508083825260208201905060208402830185811115612f0457612f03612eb4565b5b835b81811015612f2d5780612f198882612eb9565b845260208401935050602081019050612f06565b5050509392505050565b600082601f830112612f4c57612f4b612df7565b5b8151612f5c848260208601612ece565b91505092915050565b600060208284031215612f7b57612f7a61263e565b5b600082015167ffffffffffffffff811115612f9957612f98612643565b5b612fa584828501612f37565b91505092915050565b7f4e487b7100000000000000000000000000000000000000000000000000000000600052603260045260246000fd5b6000612fe882612600565b91507fffffffffffffffffffffffffffffffffffffffffffffffffffffffffffffffff82141561301b5761301a612b77565b5b600182019050919050565b600061303182612600565b915061303c83612600565b9250827fffffffffffffffffffffffffffffffffffffffffffffffffffffffffffffffff0382111561307157613070612b77565b5b828201905092915050565b7f496e697469616c697a61626c653a20636f6e747261637420697320616c72656160008201527f647920696e697469616c697a6564000000000000000000000000000000000000602082015250565b60006130d8602e83612a22565b91506130e38261307c565b604082019050919050565b60006020820190508181036000830152613107816130cb565b9050919050565b60006060820190506131236000830186612b0b565b6131306020830185612b0b565b61313d604083018461260a565b949350505050565b7f5461736b54726561737572793a2052657175697265204d494e5f53484152455360008201527f5f494e5f54524541535552590000000000000000000000000000000000000000602082015250565b60006131a1602c83612a22565b91506131ac82613145565b604082019050919050565b600060208201905081810360008301526131d081613194565b9050919050565b7f5461736b54726561737572793a205a65726f2073686172657320746f2063726560008201527f6469740000000000000000000000000000000000000000000000000000000000602082015250565b6000613233602383612a22565b915061323e826131d7565b604082019050919050565b6000602082019050818103600083015261326281613226565b9050919050565b7f5461736b54726561737572793a2042656c6f77204d494e5f5348415245535f4960008201527f4e5f545245415355525900000000000000000000000000000000000000000000602082015250565b60006132c5602a83612a22565b91506132d082613269565b604082019050919050565b600060208201905081810360008301526132f4816132b8565b9050919050565b600081905092915050565b50565b60006133166000836132fb565b915061332182613306565b600082019050919050565b600061333782613309565b9150819050919050565b7f5f7472616e736665723a20455448207472616e73666572206661696c65640000600082015250565b6000613377601e83612a22565b915061338282613341565b602082019050919050565b600060208201905081810360008301526133a68161336a565b9050919050565b7f5461736b54726561737572793a204e6f2070726f78792061646d696e00000000600082015250565b60006133e3601c83612a22565b91506133ee826133ad565b602082019050919050565b60006020820190508181036000830152613412816133d6565b9050919050565b7f5461736b54726561737572793a204e6f7420656e6f7567682066756e64730000600082015250565b600061344f601e83612a22565b915061345a82613419565b602082019050919050565b6000602082019050818103600083015261347e81613442565b9050919050565b600061349082612600565b915061349b83612600565b9250817fffffffffffffffffffffffffffffffffffffffffffffffffffffffffffffffff04831182151516156134d4576134d3612b77565b5b828202905092915050565b7f4e487b7100000000000000000000000000000000000000000000000000000000600052601260045260246000fd5b600061351982612600565b915061352483612600565b925082613534576135336134df565b5b828204905092915050565b7f496e697469616c697a61626c653a20636f6e7472616374206973206e6f74206960008201527f6e697469616c697a696e67000000000000000000000000000000000000000000602082015250565b600061359b602b83612a22565b91506135a68261353f565b604082019050919050565b600060208201905081810360008301526135ca8161358e565b9050919050565b6000815190506135e0816126b2565b92915050565b6000602082840312156135fc576135fb61263e565b5b600061360a848285016135d1565b91505092915050565b7f5361666545524332303a204552433230206f7065726174696f6e20646964206e60008201527f6f74207375636365656400000000000000000000000000000000000000000000602082015250565b600061366f602a83612a22565b915061367a82613613565b604082019050919050565b6000602082019050818103600083015261369e81613662565b9050919050565b7f4e487b7100000000000000000000000000000000000000000000000000000000600052603160045260246000fd5b60006040820190506136e96000830185612b0b565b6136f6602083018461260a565b9392505050565b60008160011c9050919050565b6000808291508390505b6001851115613754578086048111156137305761372f612b77565b5b600185161561373f5780820291505b808102905061374d856136fd565b9450613714565b94509492505050565b60008261376d5760019050613829565b8161377b5760009050613829565b8160018114613791576002811461379b576137ca565b6001915050613829565b60ff8411156137ad576137ac612b77565b5b8360020a9150848211156137c4576137c3612b77565b5b50613829565b5060208310610133831016604e8410600b84101617156137ff5782820a9050838111156137fa576137f9612b77565b5b613829565b61380c848484600161370a565b9250905081840481111561382357613822612b77565b5b81810290505b9392505050565b600061383b82612600565b915061384683612600565b92506138737fffffffffffffffffffffffffffffffffffffffffffffffffffffffffffffffff848461375d565b905092915050565b600061388682612600565b915061389183612600565b9250826138a1576138a06134df565b5b828206905092915050565b7f416464726573733a20696e73756666696369656e742062616c616e636520666f60008201527f722063616c6c0000000000000000000000000000000000000000000000000000602082015250565b6000613908602683612a22565b9150613913826138ac565b604082019050919050565b60006020820190508181036000830152613937816138fb565b9050919050565b7f416464726573733a2063616c6c20746f206e6f6e2d636f6e7472616374000000600082015250565b6000613974601d83612a22565b915061397f8261393e565b602082019050919050565b600060208201905081810360008301526139a381613967565b9050919050565b600081519050919050565b60005b838110156139d35780820151818401526020810190506139b8565b838111156139e2576000848401525b50505050565b60006139f3826139aa565b6139fd81856132fb565b9350613a0d8185602086016139b5565b80840191505092915050565b6000613a2582846139e8565b915081905092915050565b600081519050919050565b6000613a4682613a30565b613a508185612a22565b9350613a608185602086016139b5565b613a6981612dfc565b840191505092915050565b60006020820190508181036000830152613a8e8184613a3b565b90509291505056fea264697066735822122041f45bcee684845ffa450d88eb0e84a5b7e307c0a356f2d4829ce349fa7145d664736f6c634300080c0033",
  "devdoc": {
    "kind": "dev",
    "methods": {
      "depositFunds(address,address,uint256)": {
        "params": {
          "_amount": "Amount to be credited",
          "_receiver": "Address receiving the credits",
          "_token": "Token to be credited, use \"0xeeee....\" for ETH"
        }
      },
      "getCreditTokensByUser(address)": {
        "params": {
          "_user": "User to get the balances from"
        }
      },
      "getTotalCreditTokensByUser(address)": {
        "params": {
          "_user": "User to get the balances from"
        }
      },
      "totalUserTokenBalance(address,address)": {
        "params": {
          "_token": "Token to check balance of",
          "_user": "User to get balance from"
        }
      },
      "updateMaxFee(uint256)": {
        "params": {
          "_newMaxFee": "New Max Fee to charge"
        }
      },
      "updateWhitelistedService(address,bool)": {
        "params": {
          "_add": "Add to whitelist if true, else remove from whitelist",
          "_service": "Service to add or remove from whitelist"
        }
      },
      "useFunds(address,address,uint256)": {
        "params": {
          "_amount": "Amount to be deducted",
          "_token": "Token to be used for payment by users",
          "_user": "Address of user whose balance will be deducted"
        }
      },
      "userTokenBalance(address,address)": {
        "params": {
          "_token": "Token to check balance of",
          "_user": "User to get balance from"
        }
      },
      "withdrawFunds(address,address,uint256)": {
        "params": {
          "_amount": "Amount to be credited",
          "_receiver": "Address receiving the credits",
          "_token": "Token to be credited, use \"0xeeee....\" for ETH"
        }
      }
    },
    "stateVariables": {
      "_tokens": {
        "details": "tracks the tokens deposited by users"
      },
      "shares": {
        "details": "tracks token shares of users"
      },
      "totalShares": {
        "details": "tracks total shares of tokens"
      }
    },
    "version": 1
  },
  "userdoc": {
    "events": {
      "FundsDeposited(address,address,uint256)": {
        "notice": "Events ///"
      }
    },
    "kind": "user",
    "methods": {
      "depositFunds(address,address,uint256)": {
        "notice": "Function to deposit Funds which will be used to execute transactions on various services"
      },
      "getCreditTokensByUser(address)": {
        "notice": "Helper func to get all deposited tokens by a user."
      },
      "getTotalCreditTokensByUser(address)": {
        "notice": "Helper func to get all deposited tokens by a user across treasuries."
      },
      "getWhitelistedServices()": {
        "notice": "Get list of services that can call useFunds."
      },
      "totalUserTokenBalance(address,address)": {
        "notice": "Get balance of a token owned by user across treasuries"
      },
      "updateMaxFee(uint256)": {
        "notice": "Change maxFee charged by Gelato (only relevant on Layer2s)"
      },
      "updateWhitelistedService(address,bool)": {
        "notice": "Add or remove service that can call useFunds. Gelato Governance"
      },
      "useFunds(address,address,uint256)": {
        "notice": "Function called by whitelisted services to handle payments, e.g. Gelato Ops"
      },
      "userTokenBalance(address,address)": {
        "notice": "Get balance of a token owned by user"
      },
      "withdrawFunds(address,address,uint256)": {
        "notice": "Function to withdraw Funds back to the _receiver"
      }
    },
    "version": 1
  },
  "storageLayout": {
    "storage": [
      {
        "astId": 6,
        "contract": "contracts/taskTreasury/TaskTreasuryUpgradable.sol:TaskTreasuryUpgradable",
        "label": "_initialized",
        "offset": 0,
        "slot": "0",
        "type": "t_bool"
      },
      {
        "astId": 9,
        "contract": "contracts/taskTreasury/TaskTreasuryUpgradable.sol:TaskTreasuryUpgradable",
        "label": "_initializing",
        "offset": 1,
        "slot": "0",
        "type": "t_bool"
      },
      {
        "astId": 87,
        "contract": "contracts/taskTreasury/TaskTreasuryUpgradable.sol:TaskTreasuryUpgradable",
        "label": "_status",
        "offset": 0,
        "slot": "1",
        "type": "t_uint256"
      },
      {
        "astId": 130,
        "contract": "contracts/taskTreasury/TaskTreasuryUpgradable.sol:TaskTreasuryUpgradable",
        "label": "__gap",
        "offset": 0,
        "slot": "2",
        "type": "t_array(t_uint256)49_storage"
      },
      {
        "astId": 4441,
        "contract": "contracts/taskTreasury/TaskTreasuryUpgradable.sol:TaskTreasuryUpgradable",
        "label": "maxFee",
        "offset": 0,
        "slot": "51",
        "type": "t_uint256"
      },
      {
        "astId": 4448,
        "contract": "contracts/taskTreasury/TaskTreasuryUpgradable.sol:TaskTreasuryUpgradable",
        "label": "shares",
        "offset": 0,
        "slot": "52",
        "type": "t_mapping(t_address,t_mapping(t_address,t_uint256))"
      },
      {
        "astId": 4453,
        "contract": "contracts/taskTreasury/TaskTreasuryUpgradable.sol:TaskTreasuryUpgradable",
        "label": "totalShares",
        "offset": 0,
        "slot": "53",
        "type": "t_mapping(t_address,t_uint256)"
      },
      {
        "astId": 4459,
        "contract": "contracts/taskTreasury/TaskTreasuryUpgradable.sol:TaskTreasuryUpgradable",
        "label": "_tokens",
        "offset": 0,
        "slot": "54",
        "type": "t_mapping(t_address,t_struct(AddressSet)1540_storage)"
      },
      {
        "astId": 4462,
        "contract": "contracts/taskTreasury/TaskTreasuryUpgradable.sol:TaskTreasuryUpgradable",
        "label": "_whitelistedServices",
        "offset": 0,
        "slot": "55",
        "type": "t_struct(AddressSet)1540_storage"
      }
    ],
    "types": {
      "t_address": {
        "encoding": "inplace",
        "label": "address",
        "numberOfBytes": "20"
      },
      "t_array(t_bytes32)dyn_storage": {
        "base": "t_bytes32",
        "encoding": "dynamic_array",
        "label": "bytes32[]",
        "numberOfBytes": "32"
      },
      "t_array(t_uint256)49_storage": {
        "base": "t_uint256",
        "encoding": "inplace",
        "label": "uint256[49]",
        "numberOfBytes": "1568"
      },
      "t_bool": {
        "encoding": "inplace",
        "label": "bool",
        "numberOfBytes": "1"
      },
      "t_bytes32": {
        "encoding": "inplace",
        "label": "bytes32",
        "numberOfBytes": "32"
      },
      "t_mapping(t_address,t_mapping(t_address,t_uint256))": {
        "encoding": "mapping",
        "key": "t_address",
        "label": "mapping(address => mapping(address => uint256))",
        "numberOfBytes": "32",
        "value": "t_mapping(t_address,t_uint256)"
      },
      "t_mapping(t_address,t_struct(AddressSet)1540_storage)": {
        "encoding": "mapping",
        "key": "t_address",
        "label": "mapping(address => struct EnumerableSet.AddressSet)",
        "numberOfBytes": "32",
        "value": "t_struct(AddressSet)1540_storage"
      },
      "t_mapping(t_address,t_uint256)": {
        "encoding": "mapping",
        "key": "t_address",
        "label": "mapping(address => uint256)",
        "numberOfBytes": "32",
        "value": "t_uint256"
      },
      "t_mapping(t_bytes32,t_uint256)": {
        "encoding": "mapping",
        "key": "t_bytes32",
        "label": "mapping(bytes32 => uint256)",
        "numberOfBytes": "32",
        "value": "t_uint256"
      },
      "t_struct(AddressSet)1540_storage": {
        "encoding": "inplace",
        "label": "struct EnumerableSet.AddressSet",
        "members": [
          {
            "astId": 1539,
            "contract": "contracts/taskTreasury/TaskTreasuryUpgradable.sol:TaskTreasuryUpgradable",
            "label": "_inner",
            "offset": 0,
            "slot": "0",
            "type": "t_struct(Set)1239_storage"
          }
        ],
        "numberOfBytes": "64"
      },
      "t_struct(Set)1239_storage": {
        "encoding": "inplace",
        "label": "struct EnumerableSet.Set",
        "members": [
          {
            "astId": 1234,
            "contract": "contracts/taskTreasury/TaskTreasuryUpgradable.sol:TaskTreasuryUpgradable",
            "label": "_values",
            "offset": 0,
            "slot": "0",
            "type": "t_array(t_bytes32)dyn_storage"
          },
          {
            "astId": 1238,
            "contract": "contracts/taskTreasury/TaskTreasuryUpgradable.sol:TaskTreasuryUpgradable",
            "label": "_indexes",
            "offset": 0,
            "slot": "1",
            "type": "t_mapping(t_bytes32,t_uint256)"
          }
        ],
        "numberOfBytes": "64"
      },
      "t_uint256": {
        "encoding": "inplace",
        "label": "uint256",
        "numberOfBytes": "32"
      }
    }
  }
}