{
  "address": "0x1064d40BAd88574d1BD6c844d1E6BD4c84506172",
  "abi": [
    {
      "inputs": [
        {
          "internalType": "address payable",
          "name": "_gelato",
          "type": "address"
        },
        {
          "internalType": "contract ITaskTreasuryUpgradable",
          "name": "_taskTreasury",
          "type": "address"
        }
      ],
      "stateMutability": "nonpayable",
      "type": "constructor"
    },
    {
      "stateMutability": "nonpayable",
      "type": "fallback"
    },
    {
      "inputs": [
        {
          "internalType": "bytes32",
          "name": "_taskId",
          "type": "bytes32"
        }
      ],
      "name": "cancelTask",
      "outputs": [],
      "stateMutability": "nonpayable",
      "type": "function"
    },
    {
      "inputs": [
        {
          "internalType": "address",
          "name": "_execAddress",
          "type": "address"
        },
        {
          "internalType": "bytes",
          "name": "_execDataOrSelector",
          "type": "bytes"
        },
        {
          "components": [
            {
              "internalType": "enum LibDataTypes.Module[]",
              "name": "modules",
              "type": "uint8[]"
            },
            {
              "internalType": "bytes[]",
              "name": "args",
              "type": "bytes[]"
            }
          ],
          "internalType": "struct LibDataTypes.ModuleData",
          "name": "_moduleData",
          "type": "tuple"
        },
        {
          "internalType": "address",
          "name": "_feeToken",
          "type": "address"
        }
      ],
      "name": "createTask",
      "outputs": [
        {
          "internalType": "bytes32",
          "name": "taskId",
          "type": "bytes32"
        }
      ],
      "stateMutability": "nonpayable",
      "type": "function"
    },
    {
      "inputs": [
        {
          "internalType": "address",
          "name": "_taskCreator",
          "type": "address"
        },
        {
          "internalType": "address",
          "name": "_execAddress",
          "type": "address"
        },
        {
          "internalType": "bytes",
          "name": "_execData",
          "type": "bytes"
        },
        {
          "components": [
            {
              "internalType": "enum LibDataTypes.Module[]",
              "name": "modules",
              "type": "uint8[]"
            },
            {
              "internalType": "bytes[]",
              "name": "args",
              "type": "bytes[]"
            }
          ],
          "internalType": "struct LibDataTypes.ModuleData",
          "name": "_moduleData",
          "type": "tuple"
        },
        {
          "internalType": "uint256",
          "name": "_txFee",
          "type": "uint256"
        },
        {
          "internalType": "address",
          "name": "_feeToken",
          "type": "address"
        },
        {
          "internalType": "bool",
          "name": "_useTaskTreasuryFunds",
          "type": "bool"
        },
        {
          "internalType": "bool",
          "name": "_revertOnFailure",
          "type": "bool"
        }
      ],
      "name": "exec",
      "outputs": [],
      "stateMutability": "nonpayable",
      "type": "function"
    },
    {
      "inputs": [
        {
          "internalType": "bytes32",
          "name": "",
          "type": "bytes32"
        }
      ],
      "name": "execAddresses",
      "outputs": [
        {
          "internalType": "address",
          "name": "",
          "type": "address"
        }
      ],
      "stateMutability": "view",
      "type": "function"
    },
    {
      "inputs": [],
      "name": "fee",
      "outputs": [
        {
          "internalType": "uint256",
          "name": "",
          "type": "uint256"
        }
      ],
      "stateMutability": "view",
      "type": "function"
    },
    {
      "inputs": [],
      "name": "feeToken",
      "outputs": [
        {
          "internalType": "address",
          "name": "",
          "type": "address"
        }
      ],
      "stateMutability": "view",
      "type": "function"
    },
    {
      "inputs": [],
      "name": "gelato",
      "outputs": [
        {
          "internalType": "address payable",
          "name": "",
          "type": "address"
        }
      ],
      "stateMutability": "view",
      "type": "function"
    },
    {
      "inputs": [],
      "name": "getFeeDetails",
      "outputs": [
        {
          "internalType": "uint256",
          "name": "",
          "type": "uint256"
        },
        {
          "internalType": "address",
          "name": "",
          "type": "address"
        }
      ],
      "stateMutability": "view",
      "type": "function"
    },
    {
      "inputs": [
        {
          "internalType": "address",
          "name": "taskCreator",
          "type": "address"
        },
        {
          "internalType": "address",
          "name": "execAddress",
          "type": "address"
        },
        {
          "internalType": "bytes4",
          "name": "execSelector",
          "type": "bytes4"
        },
        {
          "components": [
            {
              "internalType": "enum LibDataTypes.Module[]",
              "name": "modules",
              "type": "uint8[]"
            },
            {
              "internalType": "bytes[]",
              "name": "args",
              "type": "bytes[]"
            }
          ],
          "internalType": "struct LibDataTypes.ModuleData",
          "name": "moduleData",
          "type": "tuple"
        },
        {
          "internalType": "address",
          "name": "feeToken",
          "type": "address"
        }
      ],
      "name": "getTaskId",
      "outputs": [
        {
          "internalType": "bytes32",
          "name": "taskId",
          "type": "bytes32"
        }
      ],
      "stateMutability": "pure",
      "type": "function"
    },
    {
      "inputs": [
        {
          "internalType": "address",
          "name": "taskCreator",
          "type": "address"
        },
        {
          "internalType": "address",
          "name": "execAddress",
          "type": "address"
        },
        {
          "internalType": "bytes4",
          "name": "execSelector",
          "type": "bytes4"
        },
        {
          "internalType": "bool",
          "name": "useTaskTreasuryFunds",
          "type": "bool"
        },
        {
          "internalType": "address",
          "name": "feeToken",
          "type": "address"
        },
        {
          "internalType": "bytes32",
          "name": "resolverHash",
          "type": "bytes32"
        }
      ],
      "name": "getTaskId",
      "outputs": [
        {
          "internalType": "bytes32",
          "name": "taskId",
          "type": "bytes32"
        }
      ],
      "stateMutability": "pure",
      "type": "function"
    },
    {
      "inputs": [
        {
          "internalType": "address",
          "name": "_taskCreator",
          "type": "address"
        }
      ],
      "name": "getTaskIdsByUser",
      "outputs": [
        {
          "internalType": "bytes32[]",
          "name": "",
          "type": "bytes32[]"
        }
      ],
      "stateMutability": "view",
      "type": "function"
    },
    {
      "inputs": [
        {
          "internalType": "enum LibDataTypes.Module[]",
          "name": "_modules",
          "type": "uint8[]"
        },
        {
          "internalType": "address[]",
          "name": "_moduleAddresses",
          "type": "address[]"
        }
      ],
      "name": "setModule",
      "outputs": [],
      "stateMutability": "nonpayable",
      "type": "function"
    },
    {
      "inputs": [
        {
          "internalType": "bytes32",
          "name": "",
          "type": "bytes32"
        }
      ],
      "name": "taskCreator",
      "outputs": [
        {
          "internalType": "address",
          "name": "",
          "type": "address"
        }
      ],
      "stateMutability": "view",
      "type": "function"
    },
    {
      "inputs": [
        {
          "internalType": "enum LibDataTypes.Module",
          "name": "",
          "type": "uint8"
        }
      ],
      "name": "taskModuleAddresses",
      "outputs": [
        {
          "internalType": "address",
          "name": "",
          "type": "address"
        }
      ],
      "stateMutability": "view",
      "type": "function"
    },
    {
      "inputs": [],
      "name": "taskTreasury",
      "outputs": [
        {
          "internalType": "contract ITaskTreasuryUpgradable",
          "name": "",
          "type": "address"
        }
      ],
      "stateMutability": "view",
      "type": "function"
    },
    {
      "inputs": [
        {
          "internalType": "bytes32",
          "name": "",
          "type": "bytes32"
        }
      ],
      "name": "timedTask",
      "outputs": [
        {
          "internalType": "uint128",
          "name": "nextExec",
          "type": "uint128"
        },
        {
          "internalType": "uint128",
          "name": "interval",
          "type": "uint128"
        }
      ],
      "stateMutability": "view",
      "type": "function"
    },
    {
      "inputs": [],
      "name": "version",
      "outputs": [
        {
          "internalType": "string",
          "name": "",
          "type": "string"
        }
      ],
      "stateMutability": "view",
      "type": "function"
    }
  ],
  "transactionHash": "0x810b92fb1c3ff4c2a8bfb414a11078f7f392f6056ce6c7ddc3e9bcae47343475",
  "args": [
    "0xebA27A2301975FF5BF7864b99F55A4f7A457ED10",
    "0x0af13072280E10907911ce5d046c2DfA1B604d23"
  ],
  "numDeployments": 5,
  "solcInputHash": "cd68713a230b9726a292de41767c69a6",
  "bytecode": "0x60c06040523480156200001157600080fd5b5060405162004ffd38038062004ffd83398181016040528101906200003791906200016c565b818073ffffffffffffffffffffffffffffffffffffffff1660808173ffffffffffffffffffffffffffffffffffffffff1681525050508073ffffffffffffffffffffffffffffffffffffffff1660a08173ffffffffffffffffffffffffffffffffffffffff16815250505050620001b3565b600080fd5b600073ffffffffffffffffffffffffffffffffffffffff82169050919050565b6000620000db82620000ae565b9050919050565b620000ed81620000ce565b8114620000f957600080fd5b50565b6000815190506200010d81620000e2565b92915050565b60006200012082620000ae565b9050919050565b6000620001348262000113565b9050919050565b620001468162000127565b81146200015257600080fd5b50565b60008151905062000166816200013b565b92915050565b60008060408385031215620001865762000185620000a9565b5b60006200019685828601620000fc565b9250506020620001a98582860162000155565b9150509250929050565b60805160a051614e0f620001ee60003960008181610967015281816113c701526113fd01526000818161057901526107790152614e0f6000f3fe608060405234801561001057600080fd5b506004361061010f5760003560e01c80637b4e45e9116100a2578063b81cd86611610071578063b81cd866146102fd578063cd3d4fb91461032e578063ddca3f431461035e578063e60a32131461037c578063ee8ca3b51461039a57610110565b80637b4e45e914610276578063813785e6146102a6578063ad558ab9146102c2578063b810c636146102de57610110565b806354fd4d50116100de57806354fd4d50146101ec578063573ea5751461020a578063647846a5146102285780636d2dd29f1461024657610110565b80630407145c1461012c5780632e6e0bd01461015c5780633140576e1461018c5780633323b467146101bc57610110565b5b600036606061011f83836103b6565b9050915050805190602001f35b61014660048036038101906101419190612e6a565b61041e565b6040516101539190612f5f565b60405180910390f35b61017660048036038101906101719190612fad565b610474565b6040516101839190612fe9565b60405180910390f35b6101a660048036038101906101a19190613402565b6104a7565b6040516101b391906134a8565b60405180910390f35b6101d660048036038101906101d19190613542565b6104c1565b6040516101e391906134a8565b60405180910390f35b6101f461053e565b604051610201919061366e565b60405180910390f35b610212610577565b60405161021f91906136b1565b60405180910390f35b61023061059b565b60405161023d9190612fe9565b60405180910390f35b610260600480360381019061025b9190612fad565b6105c1565b60405161026d9190612fe9565b60405180910390f35b610290600480360381019061028b9190613704565b6105f4565b60405161029d91906134a8565b60405180910390f35b6102c060048036038101906102bb919061383d565b610610565b005b6102dc60048036038101906102d791906138f4565b610777565b005b6102e661089f565b6040516102f49291906139f1565b60405180910390f35b61031760048036038101906103129190612fad565b6108d0565b604051610325929190613a45565b60405180910390f35b61034860048036038101906103439190613a6e565b61092c565b6040516103559190612fe9565b60405180910390f35b61036661095f565b6040516103739190613a9b565b60405180910390f35b610384610965565b6040516103919190613b15565b60405180910390f35b6103b460048036038101906103af9190612fad565b610989565b005b606060006103c484846109a7565b90506000806000806103d7858989610b1d565b935093509350935060006103ee3386868686610ce5565b9050806040516020016104019190613b51565b604051602081830303815290604052965050505050505092915050565b60606000610469600260008573ffffffffffffffffffffffffffffffffffffffff1673ffffffffffffffffffffffffffffffffffffffff168152602001908152602001600020610e63565b905080915050919050565b60006020528060005260406000206000915054906101000a900473ffffffffffffffffffffffffffffffffffffffff1681565b60006104b68686868686610e78565b905095945050505050565b6000806104d033886006610f38565b8098508192505050610532818888888080601f016020809104026020016040519081016040528093929190818152602001838380828437600081840152601f19601f820116905080830192505050505050508761052c90613b6c565b87610ce5565b91505095945050505050565b6040518060400160405280600181526020017f350000000000000000000000000000000000000000000000000000000000000081525081565b7f000000000000000000000000000000000000000000000000000000000000000081565b600460009054906101000a900473ffffffffffffffffffffffffffffffffffffffff1681565b60016020528060005260406000206000915054906101000a900473ffffffffffffffffffffffffffffffffffffffff1681565b6000610604878787878787611101565b90509695505050505050565b610618611140565b73ffffffffffffffffffffffffffffffffffffffff163373ffffffffffffffffffffffffffffffffffffffff1614610685576040517f08c379a000000000000000000000000000000000000000000000000000000000815260040161067c90613bcb565b60405180910390fd5b600084849050905060005b8181101561076f578383828181106106ab576106aa613beb565b5b90506020020160208101906106c09190612e6a565b600660008888858181106106d7576106d6613beb565b5b90506020020160208101906106ec9190613a6e565b60038111156106fe576106fd613c1a565b5b60038111156107105761070f613c1a565b5b815260200190815260200160002060006101000a81548173ffffffffffffffffffffffffffffffffffffffff021916908373ffffffffffffffffffffffffffffffffffffffff160217905550808061076790613c78565b915050610690565b505050505050565b7f000000000000000000000000000000000000000000000000000000000000000073ffffffffffffffffffffffffffffffffffffffff163373ffffffffffffffffffffffffffffffffffffffff1614610805576040517f08c379a00000000000000000000000000000000000000000000000000000000081526004016107fc90613d0c565b60405180910390fd5b600061083289896108158a611169565b8961081f90613b6c565b8761082a578861082d565b60005b610e78565b9050610894818a8a8a8a806000019061084b9190613d3b565b80806020026020016040519081016040528093929190818152602001838360200280828437600081840152601f19601f820116905080830192505050505050508a8a8a8a6112e2565b505050505050505050565b600080600354600460009054906101000a900473ffffffffffffffffffffffffffffffffffffffff16915091509091565b60056020528060005260406000206000915090508060000160009054906101000a90046fffffffffffffffffffffffffffffffff16908060000160109054906101000a90046fffffffffffffffffffffffffffffffff16905082565b60066020528060005260406000206000915054906101000a900473ffffffffffffffffffffffffffffffffffffffff1681565b60035481565b7f000000000000000000000000000000000000000000000000000000000000000081565b600061099782336006611531565b90506109a381836116ee565b5050565b60006018838360038181106109bf576109be613beb565b5b9050013560f81c60f81b7effffffffffffffffffffffffffffffffffffffffffffffffffffffffffffff19167bffffffffffffffffffffffffffffffffffffffffffffffffffffffff1916901c601084846002818110610a2257610a21613beb565b5b9050013560f81c60f81b7effffffffffffffffffffffffffffffffffffffffffffffffffffffffffffff19167bffffffffffffffffffffffffffffffffffffffffffffffffffffffff1916901c600885856001818110610a8557610a84613beb565b5b9050013560f81c60f81b7effffffffffffffffffffffffffffffffffffffffffffffffffffffffffffff19167bffffffffffffffffffffffffffffffffffffffffffffffffffffffff1916901c85856000818110610ae657610ae5613beb565b5b9050013560f81c60f81b7effffffffffffffffffffffffffffffffffffffffffffffffffffffffffffff1916171717905092915050565b60006060610b29612dde565b6000638b92696a60e01b7bffffffffffffffffffffffffffffffffffffffffffffffffffffffff1916877bffffffffffffffffffffffffffffffffffffffffffffffffffffffff191603610ba757610b9286866004908092610b8d93929190613da8565b61180d565b80945081955082965083975050505050610cdc565b63b9f45adb60e01b7bffffffffffffffffffffffffffffffffffffffffffffffffffffffff1916877bffffffffffffffffffffffffffffffffffffffffffffffffffffffff191603610c2357610c0e86866004908092610c0993929190613da8565b6119b4565b80945081955082965083975050505050610cdb565b63a873882560e01b7bffffffffffffffffffffffffffffffffffffffffffffffffffffffff1916877bffffffffffffffffffffffffffffffffffffffffffffffffffffffff191603610c9f57610c8a86866004908092610c8593929190613da8565b611b5b565b80945081955082965083975050505050610cda565b6040517f08c379a0000000000000000000000000000000000000000000000000000000008152600401610cd190613e55565b60405180910390fd5b5b5b93509350935093565b6000610cfc8686610cf587611169565b8686610e78565b9050610d4f81600260008973ffffffffffffffffffffffffffffffffffffffff1673ffffffffffffffffffffffffffffffffffffffff168152602001908152602001600020611d1f90919063ffffffff16565b15610d8f576040517f08c379a0000000000000000000000000000000000000000000000000000000008152600401610d8690613ee7565b60405180910390fd5b610d9e81878787876006611d36565b610def81600260008973ffffffffffffffffffffffffffffffffffffffff1673ffffffffffffffffffffffffffffffffffffffff168152602001908152602001600020611f0890919063ffffffff16565b50808573ffffffffffffffffffffffffffffffffffffffff168773ffffffffffffffffffffffffffffffffffffffff167f73f079427211e7b93db86024054de0b3c4a076a36cf0f86d2c4bf0d112eb7f1d878787604051610e52939291906141a3565b60405180910390a495945050505050565b6060610e7182600001611f1f565b9050919050565b6000610e878360000151611f7b565b15610efd576000610eb68460200151600081518110610ea957610ea8613beb565b5b602002602001015161208c565b9050610ef5878787600073ffffffffffffffffffffffffffffffffffffffff168773ffffffffffffffffffffffffffffffffffffffff16148786611101565b915050610f2f565b8585858585604051602001610f169594939291906141f7565b6040516020818303038152906040528051906020012090505b95945050505050565b6000806000600380811115610f5057610f4f613c1a565b5b905060005b8181116110f1576000816003811115610f7157610f70613c1a565b5b9050610f8e816003811115610f8957610f88613c1a565b5b61209d565b610f9857506110de565b6000866000836003811115610fb057610faf613c1a565b5b6003811115610fc257610fc1613c1a565b5b815260200190815260200160002060009054906101000a900473ffffffffffffffffffffffffffffffffffffffff169050610ffc816120de565b60006376474e6a60e01b8a8a604051602401611019929190614251565b604051602081830303815290604052907bffffffffffffffffffffffffffffffffffffffffffffffffffffffff19166020820180517bffffffffffffffffffffffffffffffffffffffffffffffffffffffff8381831617835250505050905060006110ba83836040518060400160405280601881526020017f4175746f6d6174652e7072654372656174655461736b3a200000000000000000815250612150565b915050808060200190518101906110d191906142a6565b809b50819c505050505050505b80806110e990613c78565b915050610f55565b5085859250925050935093915050565b600086868686868660405160200161111e969594939291906142f5565b6040516020818303038152906040528051906020012090509695505050505050565b60007fb53127684a568b3173ae13b9f8a6016e243e63b6e8ee1178d6a717850b5d610354905090565b600060188260038151811061118157611180613beb565b5b602001015160f81c60f81b7effffffffffffffffffffffffffffffffffffffffffffffffffffffffffffff19167bffffffffffffffffffffffffffffffffffffffffffffffffffffffff1916901c6010836002815181106111e5576111e4613beb565b5b602001015160f81c60f81b7effffffffffffffffffffffffffffffffffffffffffffffffffffffffffffff19167bffffffffffffffffffffffffffffffffffffffffffffffffffffffff1916901c60088460018151811061124957611248613beb565b5b602001015160f81c60f81b7effffffffffffffffffffffffffffffffffffffffffffffffffffffffffffff19167bffffffffffffffffffffffffffffffffffffffffffffffffffffffff1916901c846000815181106112ab576112aa613beb565b5b602001015160f81c60f81b7effffffffffffffffffffffffffffffffffffffffffffffffffffffffffffff19161717179050919050565b61133389600260008b73ffffffffffffffffffffffffffffffffffffffff1673ffffffffffffffffffffffffffffffffffffffff168152602001908152602001600020611d1f90919063ffffffff16565b611372576040517f08c379a0000000000000000000000000000000000000000000000000000000008152600401611369906143a2565b60405180910390fd5b816113c0578360038190555082600460006101000a81548173ffffffffffffffffffffffffffffffffffffffff021916908373ffffffffffffffffffffffffffffffffffffffff1602179055505b60006113f37f00000000000000000000000000000000000000000000000000000000000000008b8b8b8b8b8860066121da565b9050821561148f577f000000000000000000000000000000000000000000000000000000000000000073ffffffffffffffffffffffffffffffffffffffff1663a3f1233e8a86886040518463ffffffff1660e01b8152600401611458939291906143c2565b600060405180830381600087803b15801561147257600080fd5b505af1158015611486573d6000803e3d6000fd5b505050506114bb565b600360009055600460006101000a81549073ffffffffffffffffffffffffffffffffffffffff02191690555b8773ffffffffffffffffffffffffffffffffffffffff168473ffffffffffffffffffffffffffffffffffffffff16867fa458375b1282695a972870cbfbc4891a9d856b79d563d17667d171d87e0c527a8a8e8660405161151d939291906143f9565b60405180910390a450505050505050505050565b60008060038081111561154757611546613c1a565b5b905060005b8181116116e257600081600381111561156857611567613c1a565b5b90506115858160038111156115805761157f613c1a565b5b6122f1565b61158f57506116cf565b60008560008360038111156115a7576115a6613c1a565b5b60038111156115b9576115b8613c1a565b5b815260200190815260200160002060009054906101000a900473ffffffffffffffffffffffffffffffffffffffff1690506115f3816120de565b60006314ae992660e01b8989604051602401611610929190614437565b604051602081830303815290604052907bffffffffffffffffffffffffffffffffffffffffffffffffffffffff19166020820180517bffffffffffffffffffffffffffffffffffffffffffffffffffffffff8381831617835250505050905060006116b183836040518060400160405280601881526020017f4175746f6d6174652e70726543616e63656c5461736b3a200000000000000000815250612150565b915050808060200190518101906116c89190614460565b9850505050505b80806116da90613c78565b91505061154c565b50839150509392505050565b61173f81600260008573ffffffffffffffffffffffffffffffffffffffff1673ffffffffffffffffffffffffffffffffffffffff168152602001908152602001600020611d1f90919063ffffffff16565b61177e576040517f08c379a0000000000000000000000000000000000000000000000000000000008152600401611775906144ff565b60405180910390fd5b6117cf81600260008573ffffffffffffffffffffffffffffffffffffffff1673ffffffffffffffffffffffffffffffffffffffff16815260200190815260200160002061236290919063ffffffff16565b507f44d83729a43f9c6046446df014d073dd242e0ad672071e9b292f31b669c25b098183604051611801929190614437565b60405180910390a15050565b60006060611819612dde565b60008060006060888881019061182f9190614534565b809450819550829650839a50505050506000600167ffffffffffffffff81111561185c5761185b613072565b5b60405190808252806020026020018201604052801561188a5781602001602082028036833780820191505090505b5090506000816000815181106118a3576118a2613beb565b5b602002602001019060038111156118bd576118bc613c1a565b5b908160038111156118d1576118d0613c1a565b5b815250506000600167ffffffffffffffff8111156118f2576118f1613072565b5b60405190808252806020026020018201604052801561192557816020015b60608152602001906001900390816119105790505b509050838360405160200161193b9291906145b7565b6040516020818303038152906040528160008151811061195e5761195d613beb565b5b60200260200101819052506040518060400160405280838152602001828152509650846040516020016119919190614608565b604051602081830303815290604052975060009550505050505092959194509250565b600060606119c0612dde565b6000806000606088888101906119d69190614623565b809850819550829650839750849b5050505050506000600167ffffffffffffffff811115611a0757611a06613072565b5b604051908082528060200260200182016040528015611a355781602001602082028036833780820191505090505b509050600081600081518110611a4e57611a4d613beb565b5b60200260200101906003811115611a6857611a67613c1a565b5b90816003811115611a7c57611a7b613c1a565b5b815250506000600167ffffffffffffffff811115611a9d57611a9c613072565b5b604051908082528060200260200182016040528015611ad057816020015b6060815260200190600190039081611abb5790505b5090508383604051602001611ae69291906145b7565b60405160208183030381529060405281600081518110611b0957611b08613beb565b5b6020026020010181905250604051806040016040528083815260200182815250965084604051602001611b3c9190614608565b6040516020818303038152906040529750505050505092959194509250565b60006060611b67612dde565b6000606080611b768888612379565b809550819650829750839950849a5050505050506000600267ffffffffffffffff811115611ba757611ba6613072565b5b604051908082528060200260200182016040528015611bd55781602001602082028036833780820191505090505b509050600081600081518110611bee57611bed613beb565b5b60200260200101906003811115611c0857611c07613c1a565b5b90816003811115611c1c57611c1b613c1a565b5b81525050600181600181518110611c3657611c35613beb565b5b60200260200101906003811115611c5057611c4f613c1a565b5b90816003811115611c6457611c63613c1a565b5b815250506000600267ffffffffffffffff811115611c8557611c84613072565b5b604051908082528060200260200182016040528015611cb857816020015b6060815260200190600190039081611ca35790505b5090508381600081518110611cd057611ccf613beb565b5b60200260200101819052508281600181518110611cf057611cef613beb565b5b602002602001018190525060405180604001604052808381526020018281525095505050505092959194509250565b6000611d2e836000018361243f565b905092915050565b60008260000151519050611d4e818460000151612462565b60005b81811015611efe57600084600001518281518110611d7257611d71613beb565b5b60200260200101519050611d97816003811115611d9257611d91613c1a565b5b612541565b611da15750611eeb565b6000846000836003811115611db957611db8613c1a565b5b6003811115611dcb57611dca613c1a565b5b815260200190815260200160002060009054906101000a900473ffffffffffffffffffffffffffffffffffffffff169050611e05816120de565b600063b0ccbdf060e01b8b8b8b8b8b602001518981518110611e2a57611e29613beb565b5b6020026020010151604051602401611e469594939291906146ba565b604051602081830303815290604052907bffffffffffffffffffffffffffffffffffffffffffffffffffffffff19166020820180517bffffffffffffffffffffffffffffffffffffffffffffffffffffffff83818316178352505050509050611ee582826040518060400160405280601781526020017f4175746f6d6174652e6f6e4372656174655461736b3a20000000000000000000815250612150565b50505050505b8080611ef690613c78565b915050611d51565b5050505050505050565b6000611f1783600001836125b2565b905092915050565b606081600001805480602002602001604051908101604052809291908181526020018280548015611f6f57602002820191906000526020600020905b815481526020019060010190808311611f5b575b50505050509050919050565b60008082519050600181148015611fd1575060006003811115611fa157611fa0613c1a565b5b83600081518110611fb557611fb4613beb565b5b60200260200101516003811115611fcf57611fce613c1a565b5b145b806120725750600281148015612026575060006003811115611ff657611ff5613c1a565b5b8360008151811061200a57612009613beb565b5b6020026020010151600381111561202457612023613c1a565b5b145b801561207157506001600381111561204157612040613c1a565b5b8360018151811061205557612054613beb565b5b6020026020010151600381111561206f5761206e613c1a565b5b145b5b15612081576001915050612087565b60009150505b919050565b600081805190602001209050919050565b6000600260038111156120b3576120b2613c1a565b5b8260038111156120c6576120c5613c1a565b5b036120d457600190506120d9565b600090505b919050565b600073ffffffffffffffffffffffffffffffffffffffff168173ffffffffffffffffffffffffffffffffffffffff160361214d576040517f08c379a00000000000000000000000000000000000000000000000000000000081526004016121449061478d565b60405180910390fd5b50565b600060608473ffffffffffffffffffffffffffffffffffffffff168460405161217991906147e9565b600060405180830381855af49150503d80600081146121b4576040519150601f19603f3d011682016040523d82523d6000602084013e6121b9565b606091505b508092508193505050816121d2576121d18184612622565b5b935093915050565b6000806121e78584612789565b90506121f78989898989866128c6565b80975081985050508973ffffffffffffffffffffffffffffffffffffffff168773ffffffffffffffffffffffffffffffffffffffff160361226d576040517f08c379a000000000000000000000000000000000000000000000000000000000815260040161226490614872565b60405180910390fd5b6122d187878a6040516020016122849291906148da565b6040516020818303038152906040526000876040518060400160405280600f81526020017f4175746f6d6174652e657865633a200000000000000000000000000000000000815250612a39565b50809250506122e4898989898986612ad3565b5098975050505050505050565b60006001600381111561230757612306613c1a565b5b82600381111561231a57612319613c1a565b5b148061234a57506002600381111561233557612334613c1a565b5b82600381111561234857612347613c1a565b5b145b15612358576001905061235d565b600090505b919050565b60006123718360000183612c19565b905092915050565b6000606060006060806000806000806000806000808e8e81019061239d919061492e565b9750975097509750975097509750975085856040516020016123bf9190614608565b604051602081830303815290604052826123d957836123dc565b60005b93508386866040516020016123f29291906145b7565b6040516020818303038152906040528b8b604051602001612414929190613a45565b6040516020818303038152906040529c509c509c509c509c5050505050505050509295509295909350565b600080836001016000848152602001908152602001600020541415905092915050565b600182111561253d5760005b60018361247b9190614a00565b81101561253b5781818151811061249557612494613beb565b5b602002602001015160038111156124af576124ae613c1a565b5b826001836124bd9190614a34565b815181106124ce576124cd613beb565b5b602002602001015160038111156124e8576124e7613c1a565b5b11612528576040517f08c379a000000000000000000000000000000000000000000000000000000000815260040161251f90614ad6565b60405180910390fd5b808061253390613c78565b91505061246e565b505b5050565b60006001600381111561255757612556613c1a565b5b82600381111561256a57612569613c1a565b5b148061259a57506002600381111561258557612584613c1a565b5b82600381111561259857612597613c1a565b5b145b156125a857600190506125ad565b600090505b919050565b60006125be838361243f565b61261757826000018290806001815401808255809150506001900390600052602060002001600090919091909150558260000180549050836001016000848152602001908152602001600020819055506001905061261c565b600090505b92915050565b6004602083516126329190614b25565b0361272d576000826020015190506308c379a060e01b817bffffffffffffffffffffffffffffffffffffffffffffffffffffffff1916036126d1576044830192508183604051602001612686929190614b92565b6040516020818303038152906040526040517f08c379a00000000000000000000000000000000000000000000000000000000081526004016126c8919061366e565b60405180910390fd5b816040516020016126e29190614c02565b6040516020818303038152906040526040517f08c379a0000000000000000000000000000000000000000000000000000000008152600401612724919061366e565b60405180910390fd5b8060405160200161273e9190614c70565b6040516020818303038152906040526040517f08c379a0000000000000000000000000000000000000000000000000000000008152600401612780919061366e565b60405180910390fd5b606060008351905060008167ffffffffffffffff8111156127ad576127ac613072565b5b6040519080825280602002602001820160405280156127db5781602001602082028036833780820191505090505b50905060005b828110156128ba578460008783815181106127ff576127fe613beb565b5b6020026020010151600381111561281957612818613c1a565b5b600381111561282b5761282a613c1a565b5b815260200190815260200160002060009054906101000a900473ffffffffffffffffffffffffffffffffffffffff1682828151811061286d5761286c613beb565b5b602002602001019073ffffffffffffffffffffffffffffffffffffffff16908173ffffffffffffffffffffffffffffffffffffffff168152505080806128b290613c78565b9150506127e1565b50809250505092915050565b6000606060008451905060005b81811015612a26576129108682815181106128f1576128f0613beb565b5b6020026020010151600381111561290b5761290a613c1a565b5b612d2d565b15612a1357600063c10304f760e01b8b8b8b8b6040516024016129369493929190614c92565b604051602081830303815290604052907bffffffffffffffffffffffffffffffffffffffffffffffffffffffff19166020820180517bffffffffffffffffffffffffffffffffffffffffffffffffffffffff8381831617835250505050905060006129f18784815181106129ad576129ac613beb565b5b6020026020010151836040518060400160405280601681526020017f4175746f6d6174652e7072654578656343616c6c3a2000000000000000000000815250612150565b91505080806020019051810190612a089190614d4e565b809a50819b50505050505b8080612a1e90613c78565b9150506128d3565b5086869250925050965096945050505050565b600060608673ffffffffffffffffffffffffffffffffffffffff168587604051612a6391906147e9565b60006040518083038185875af1925050503d8060008114612aa0576040519150601f19603f3d011682016040523d82523d6000602084013e612aa5565b606091505b50809250819350505081158015612ab95750835b15612ac957612ac88184612622565b5b9550959350505050565b60008151905060005b81811015612c0f57612b19848281518110612afa57612af9613beb565b5b60200260200101516003811115612b1457612b13613c1a565b5b612d9e565b15612bfc57600063b2db0b4160e01b89898989604051602401612b3f9493929190614c92565b604051602081830303815290604052907bffffffffffffffffffffffffffffffffffffffffffffffffffffffff19166020820180517bffffffffffffffffffffffffffffffffffffffffffffffffffffffff83818316178352505050509050612bf8848381518110612bb457612bb3613beb565b5b6020026020010151826040518060400160405280601781526020017f4175746f6d6174652e706f73744578656343616c6c3a20000000000000000000815250612150565b5050505b8080612c0790613c78565b915050612adc565b5050505050505050565b60008083600101600084815260200190815260200160002054905060008114612d21576000600182612c4b9190614a00565b9050600060018660000180549050612c639190614a00565b9050818114612cd2576000866000018281548110612c8457612c83613beb565b5b9060005260206000200154905080876000018481548110612ca857612ca7613beb565b5b90600052602060002001819055508387600101600083815260200190815260200160002081905550505b85600001805480612ce657612ce5614daa565b5b600190038181906000526020600020016000905590558560010160008681526020019081526020016000206000905560019350505050612d27565b60009150505b92915050565b600060016003811115612d4357612d42613c1a565b5b826003811115612d5657612d55613c1a565b5b1480612d86575060026003811115612d7157612d70613c1a565b5b826003811115612d8457612d83613c1a565b5b145b15612d945760019050612d99565b600090505b919050565b6000600380811115612db357612db2613c1a565b5b826003811115612dc657612dc5613c1a565b5b03612dd45760019050612dd9565b600090505b919050565b604051806040016040528060608152602001606081525090565b6000604051905090565b600080fd5b600080fd5b600073ffffffffffffffffffffffffffffffffffffffff82169050919050565b6000612e3782612e0c565b9050919050565b612e4781612e2c565b8114612e5257600080fd5b50565b600081359050612e6481612e3e565b92915050565b600060208284031215612e8057612e7f612e02565b5b6000612e8e84828501612e55565b91505092915050565b600081519050919050565b600082825260208201905092915050565b6000819050602082019050919050565b6000819050919050565b612ed681612ec3565b82525050565b6000612ee88383612ecd565b60208301905092915050565b6000602082019050919050565b6000612f0c82612e97565b612f168185612ea2565b9350612f2183612eb3565b8060005b83811015612f52578151612f398882612edc565b9750612f4483612ef4565b925050600181019050612f25565b5085935050505092915050565b60006020820190508181036000830152612f798184612f01565b905092915050565b612f8a81612ec3565b8114612f9557600080fd5b50565b600081359050612fa781612f81565b92915050565b600060208284031215612fc357612fc2612e02565b5b6000612fd184828501612f98565b91505092915050565b612fe381612e2c565b82525050565b6000602082019050612ffe6000830184612fda565b92915050565b60007fffffffff0000000000000000000000000000000000000000000000000000000082169050919050565b61303981613004565b811461304457600080fd5b50565b60008135905061305681613030565b92915050565b600080fd5b6000601f19601f8301169050919050565b7f4e487b7100000000000000000000000000000000000000000000000000000000600052604160045260246000fd5b6130aa82613061565b810181811067ffffffffffffffff821117156130c9576130c8613072565b5b80604052505050565b60006130dc612df8565b90506130e882826130a1565b919050565b600080fd5b600080fd5b600067ffffffffffffffff82111561311257613111613072565b5b602082029050602081019050919050565b600080fd5b6004811061313557600080fd5b50565b60008135905061314781613128565b92915050565b600061316061315b846130f7565b6130d2565b9050808382526020820190506020840283018581111561318357613182613123565b5b835b818110156131ac57806131988882613138565b845260208401935050602081019050613185565b5050509392505050565b600082601f8301126131cb576131ca6130f2565b5b81356131db84826020860161314d565b91505092915050565b600067ffffffffffffffff8211156131ff576131fe613072565b5b602082029050602081019050919050565b600080fd5b600067ffffffffffffffff8211156132305761322f613072565b5b61323982613061565b9050602081019050919050565b82818337600083830152505050565b600061326861326384613215565b6130d2565b90508281526020810184848401111561328457613283613210565b5b61328f848285613246565b509392505050565b600082601f8301126132ac576132ab6130f2565b5b81356132bc848260208601613255565b91505092915050565b60006132d86132d3846131e4565b6130d2565b905080838252602082019050602084028301858111156132fb576132fa613123565b5b835b8181101561334257803567ffffffffffffffff8111156133205761331f6130f2565b5b80860161332d8982613297565b855260208501945050506020810190506132fd565b5050509392505050565b600082601f830112613361576133606130f2565b5b81356133718482602086016132c5565b91505092915050565b6000604082840312156133905761338f61305c565b5b61339a60406130d2565b9050600082013567ffffffffffffffff8111156133ba576133b96130ed565b5b6133c6848285016131b6565b600083015250602082013567ffffffffffffffff8111156133ea576133e96130ed565b5b6133f68482850161334c565b60208301525092915050565b600080600080600060a0868803121561341e5761341d612e02565b5b600061342c88828901612e55565b955050602061343d88828901612e55565b945050604061344e88828901613047565b935050606086013567ffffffffffffffff81111561346f5761346e612e07565b5b61347b8882890161337a565b925050608061348c88828901612e55565b9150509295509295909350565b6134a281612ec3565b82525050565b60006020820190506134bd6000830184613499565b92915050565b600080fd5b60008083601f8401126134de576134dd6130f2565b5b8235905067ffffffffffffffff8111156134fb576134fa6134c3565b5b60208301915083600182028301111561351757613516613123565b5b9250929050565b600080fd5b6000604082840312156135395761353861351e565b5b81905092915050565b60008060008060006080868803121561355e5761355d612e02565b5b600061356c88828901612e55565b955050602086013567ffffffffffffffff81111561358d5761358c612e07565b5b613599888289016134c8565b9450945050604086013567ffffffffffffffff8111156135bc576135bb612e07565b5b6135c888828901613523565b92505060606135d988828901612e55565b9150509295509295909350565b600081519050919050565b600082825260208201905092915050565b60005b83811015613620578082015181840152602081019050613605565b8381111561362f576000848401525b50505050565b6000613640826135e6565b61364a81856135f1565b935061365a818560208601613602565b61366381613061565b840191505092915050565b600060208201905081810360008301526136888184613635565b905092915050565b600061369b82612e0c565b9050919050565b6136ab81613690565b82525050565b60006020820190506136c660008301846136a2565b92915050565b60008115159050919050565b6136e1816136cc565b81146136ec57600080fd5b50565b6000813590506136fe816136d8565b92915050565b60008060008060008060c0878903121561372157613720612e02565b5b600061372f89828a01612e55565b965050602061374089828a01612e55565b955050604061375189828a01613047565b945050606061376289828a016136ef565b935050608061377389828a01612e55565b92505060a061378489828a01612f98565b9150509295509295509295565b60008083601f8401126137a7576137a66130f2565b5b8235905067ffffffffffffffff8111156137c4576137c36134c3565b5b6020830191508360208202830111156137e0576137df613123565b5b9250929050565b60008083601f8401126137fd576137fc6130f2565b5b8235905067ffffffffffffffff81111561381a576138196134c3565b5b60208301915083602082028301111561383657613835613123565b5b9250929050565b6000806000806040858703121561385757613856612e02565b5b600085013567ffffffffffffffff81111561387557613874612e07565b5b61388187828801613791565b9450945050602085013567ffffffffffffffff8111156138a4576138a3612e07565b5b6138b0878288016137e7565b925092505092959194509250565b6000819050919050565b6138d1816138be565b81146138dc57600080fd5b50565b6000813590506138ee816138c8565b92915050565b600080600080600080600080610100898b03121561391557613914612e02565b5b60006139238b828c01612e55565b98505060206139348b828c01612e55565b975050604089013567ffffffffffffffff81111561395557613954612e07565b5b6139618b828c01613297565b965050606089013567ffffffffffffffff81111561398257613981612e07565b5b61398e8b828c01613523565b955050608061399f8b828c016138df565b94505060a06139b08b828c01612e55565b93505060c06139c18b828c016136ef565b92505060e06139d28b828c016136ef565b9150509295985092959890939650565b6139eb816138be565b82525050565b6000604082019050613a0660008301856139e2565b613a136020830184612fda565b9392505050565b60006fffffffffffffffffffffffffffffffff82169050919050565b613a3f81613a1a565b82525050565b6000604082019050613a5a6000830185613a36565b613a676020830184613a36565b9392505050565b600060208284031215613a8457613a83612e02565b5b6000613a9284828501613138565b91505092915050565b6000602082019050613ab060008301846139e2565b92915050565b6000819050919050565b6000613adb613ad6613ad184612e0c565b613ab6565b612e0c565b9050919050565b6000613aed82613ac0565b9050919050565b6000613aff82613ae2565b9050919050565b613b0f81613af4565b82525050565b6000602082019050613b2a6000830184613b06565b92915050565b6000819050919050565b613b4b613b4682612ec3565b613b30565b82525050565b6000613b5d8284613b3a565b60208201915081905092915050565b6000613b78368361337a565b9050919050565b7f4e4f545f415554484f52495a4544000000000000000000000000000000000000600082015250565b6000613bb5600e836135f1565b9150613bc082613b7f565b602082019050919050565b60006020820190508181036000830152613be481613ba8565b9050919050565b7f4e487b7100000000000000000000000000000000000000000000000000000000600052603260045260246000fd5b7f4e487b7100000000000000000000000000000000000000000000000000000000600052602160045260246000fd5b7f4e487b7100000000000000000000000000000000000000000000000000000000600052601160045260246000fd5b6000613c83826138be565b91507fffffffffffffffffffffffffffffffffffffffffffffffffffffffffffffffff8203613cb557613cb4613c49565b5b600182019050919050565b7f47656c61746f666965643a204f6e6c792067656c61746f000000000000000000600082015250565b6000613cf66017836135f1565b9150613d0182613cc0565b602082019050919050565b60006020820190508181036000830152613d2581613ce9565b9050919050565b600080fd5b600080fd5b600080fd5b60008083356001602003843603038112613d5857613d57613d2c565b5b80840192508235915067ffffffffffffffff821115613d7a57613d79613d31565b5b602083019250602082023603831315613d9657613d95613d36565b5b509250929050565b600080fd5b600080fd5b60008085851115613dbc57613dbb613d9e565b5b83861115613dcd57613dcc613da3565b5b6001850283019150848603905094509492505050565b7f4175746f6d6174652e66616c6c6261636b3a2046756e6374696f6e206e6f742060008201527f666f756e64000000000000000000000000000000000000000000000000000000602082015250565b6000613e3f6025836135f1565b9150613e4a82613de3565b604082019050919050565b60006020820190508181036000830152613e6e81613e32565b9050919050565b7f4175746f6d6174652e6372656174655461736b3a204475706c6963617465207460008201527f61736b0000000000000000000000000000000000000000000000000000000000602082015250565b6000613ed16023836135f1565b9150613edc82613e75565b604082019050919050565b60006020820190508181036000830152613f0081613ec4565b9050919050565b600081519050919050565b600082825260208201905092915050565b6000613f2e82613f07565b613f388185613f12565b9350613f48818560208601613602565b613f5181613061565b840191505092915050565b600081519050919050565b600082825260208201905092915050565b6000819050602082019050919050565b60048110613f9957613f98613c1a565b5b50565b6000819050613faa82613f88565b919050565b6000613fba82613f9c565b9050919050565b613fca81613faf565b82525050565b6000613fdc8383613fc1565b60208301905092915050565b6000602082019050919050565b600061400082613f5c565b61400a8185613f67565b935061401583613f78565b8060005b8381101561404657815161402d8882613fd0565b975061403883613fe8565b925050600181019050614019565b5085935050505092915050565b600081519050919050565b600082825260208201905092915050565b6000819050602082019050919050565b600082825260208201905092915050565b600061409b82613f07565b6140a5818561407f565b93506140b5818560208601613602565b6140be81613061565b840191505092915050565b60006140d58383614090565b905092915050565b6000602082019050919050565b60006140f582614053565b6140ff818561405e565b9350836020820285016141118561406f565b8060005b8581101561414d578484038952815161412e85826140c9565b9450614139836140dd565b925060208a01995050600181019050614115565b50829750879550505050505092915050565b6000604083016000830151848203600086015261417c8282613ff5565b9150506020830151848203602086015261419682826140ea565b9150508091505092915050565b600060608201905081810360008301526141bd8186613f23565b905081810360208301526141d1818561415f565b90506141e06040830184612fda565b949350505050565b6141f181613004565b82525050565b600060a08201905061420c6000830188612fda565b6142196020830187612fda565b61422660408301866141e8565b8181036060830152614238818561415f565b90506142476080830184612fda565b9695505050505050565b60006040820190506142666000830185612fda565b6142736020830184612fda565b9392505050565b61428381613690565b811461428e57600080fd5b50565b6000815190506142a08161427a565b92915050565b600080604083850312156142bd576142bc612e02565b5b60006142cb85828601614291565b92505060206142dc85828601614291565b9150509250929050565b6142ef816136cc565b82525050565b600060c08201905061430a6000830189612fda565b6143176020830188612fda565b61432460408301876141e8565b61433160608301866142e6565b61433e6080830185612fda565b61434b60a0830184613499565b979650505050505050565b7f4175746f6d6174652e657865633a205461736b206e6f7420666f756e64000000600082015250565b600061438c601d836135f1565b915061439782614356565b602082019050919050565b600060208201905081810360008301526143bb8161437f565b9050919050565b60006060820190506143d76000830186612fda565b6143e46020830185612fda565b6143f160408301846139e2565b949350505050565b600060608201905081810360008301526144138186613f23565b90506144226020830185613499565b61442f60408301846142e6565b949350505050565b600060408201905061444c6000830185613499565b6144596020830184612fda565b9392505050565b60006020828403121561447657614475612e02565b5b600061448484828501614291565b91505092915050565b7f4175746f6d6174652e63616e63656c5461736b3a205461736b206e6f7420666f60008201527f756e640000000000000000000000000000000000000000000000000000000000602082015250565b60006144e96023836135f1565b91506144f48261448d565b604082019050919050565b60006020820190508181036000830152614518816144dc565b9050919050565b60008135905061452e8161427a565b92915050565b6000806000806080858703121561454e5761454d612e02565b5b600061455c8782880161451f565b945050602061456d87828801613047565b935050604061457e8782880161451f565b925050606085013567ffffffffffffffff81111561459f5761459e612e07565b5b6145ab87828801613297565b91505092959194509250565b60006040820190506145cc6000830185612fda565b81810360208301526145de8184613f23565b90509392505050565b6000819050919050565b6146026145fd82613004565b6145e7565b82525050565b600061461482846145f1565b60048201915081905092915050565b600080600080600060a0868803121561463f5761463e612e02565b5b600061464d8882890161451f565b955050602061465e88828901613047565b945050604061466f8882890161451f565b935050606086013567ffffffffffffffff8111156146905761468f612e07565b5b61469c88828901613297565b92505060806146ad8882890161451f565b9150509295509295909350565b600060a0820190506146cf6000830188613499565b6146dc6020830187612fda565b6146e96040830186612fda565b81810360608301526146fb8185613f23565b9050818103608083015261470f8184613f23565b90509695505050505050565b7f4175746f6d6174652e5f6d6f64756c65496e697469616c697365643a204e6f7460008201527f20696e6974000000000000000000000000000000000000000000000000000000602082015250565b60006147776025836135f1565b91506147828261471b565b604082019050919050565b600060208201905081810360008301526147a68161476a565b9050919050565b600081905092915050565b60006147c382613f07565b6147cd81856147ad565b93506147dd818560208601613602565b80840191505092915050565b60006147f582846147b8565b915081905092915050565b7f4175746f6d6174652e6f6e457865635461736b3a20657865634164647265737360008201527f2063616e6e6f74206265207461736b5472656173757279000000000000000000602082015250565b600061485c6037836135f1565b915061486782614800565b604082019050919050565b6000602082019050818103600083015261488b8161484f565b9050919050565b60008160601b9050919050565b60006148aa82614892565b9050919050565b60006148bc8261489f565b9050919050565b6148d46148cf82612e2c565b6148b1565b82525050565b60006148e682856147b8565b91506148f282846148c3565b6014820191508190509392505050565b61490b81613a1a565b811461491657600080fd5b50565b60008135905061492881614902565b92915050565b600080600080600080600080610100898b03121561494f5761494e612e02565b5b600061495d8b828c01614919565b985050602061496e8b828c01614919565b975050604061497f8b828c0161451f565b96505060606149908b828c01613047565b95505060806149a18b828c0161451f565b94505060a089013567ffffffffffffffff8111156149c2576149c1612e07565b5b6149ce8b828c01613297565b93505060c06149df8b828c0161451f565b92505060e06149f08b828c016136ef565b9150509295985092959890939650565b6000614a0b826138be565b9150614a16836138be565b925082821015614a2957614a28613c49565b5b828203905092915050565b6000614a3f826138be565b9150614a4a836138be565b9250827fffffffffffffffffffffffffffffffffffffffffffffffffffffffffffffffff03821115614a7f57614a7e613c49565b5b828201905092915050565b7f4175746f6d6174652e5f76616c69644d6f64756c65733a20417363206f6e6c79600082015250565b6000614ac06020836135f1565b9150614acb82614a8a565b602082019050919050565b60006020820190508181036000830152614aef81614ab3565b9050919050565b7f4e487b7100000000000000000000000000000000000000000000000000000000600052601260045260246000fd5b6000614b30826138be565b9150614b3b836138be565b925082614b4b57614b4a614af6565b5b828206905092915050565b600081905092915050565b6000614b6c826135e6565b614b768185614b56565b9350614b86818560208601613602565b80840191505092915050565b6000614b9e8285614b61565b9150614baa8284614b61565b91508190509392505050565b7f4e6f4572726f7253656c6563746f720000000000000000000000000000000000600082015250565b6000614bec600f83614b56565b9150614bf782614bb6565b600f82019050919050565b6000614c0e8284614b61565b9150614c1982614bdf565b915081905092915050565b7f556e657870656374656452657475726e64617461000000000000000000000000600082015250565b6000614c5a601483614b56565b9150614c6582614c24565b601482019050919050565b6000614c7c8284614b61565b9150614c8782614c4d565b915081905092915050565b6000608082019050614ca76000830187613499565b614cb46020830186612fda565b614cc16040830185612fda565b8181036060830152614cd38184613f23565b905095945050505050565b6000614cf1614cec84613215565b6130d2565b905082815260208101848484011115614d0d57614d0c613210565b5b614d18848285613602565b509392505050565b600082601f830112614d3557614d346130f2565b5b8151614d45848260208601614cde565b91505092915050565b60008060408385031215614d6557614d64612e02565b5b6000614d7385828601614291565b925050602083015167ffffffffffffffff811115614d9457614d93612e07565b5b614da085828601614d20565b9150509250929050565b7f4e487b7100000000000000000000000000000000000000000000000000000000600052603160045260246000fdfea26469706673582212201400b90b045d4f8a78a87a782f8d6724b0928497b5f34d98641cfc4b6558027164736f6c634300080e0033",
  "devdoc": {
    "kind": "dev",
    "methods": {
      "cancelTask(bytes32)": {
        "params": {
          "taskId": "Unique hash of the task that is being cancelled. {See LibTaskId-getTaskId}"
        }
      },
      "createTask(address,bytes,(uint8[],bytes[]),address)": {
        "params": {
          "execAddress": "Address of contract that should be called by Gelato.",
          "execData": "Execution data to be called with / function selector if execution data is yet to be determined.",
          "feeToken": "Address of token to be used as payment. Use address(0) if TaskTreasury is being used, 0xeeeeee... for ETH or native tokens.",
          "moduleData": "Conditional modules that will be used. {See LibDataTypes-ModuleData}"
        },
        "returns": {
          "taskId": "Unique hash of the task created."
        }
      },
      "exec(address,address,bytes,(uint8[],bytes[]),uint256,address,bool,bool)": {
        "params": {
          "execAddress": "Address of contract that should be called by Gelato.",
          "execData": "Execution data to be called with / function selector if execution data is yet to be determined.",
          "feeToken": "Token used to pay for the execution. ETH = 0xeeeeee...",
          "moduleData": "Conditional modules that will be used. {See LibDataTypes-ModuleData}",
          "revertOnFailure": "To revert or not if call to execAddress fails. (Used for off-chain simulations)",
          "taskCreator": "The address which created the task.",
          "txFee": "Fee paid to Gelato for execution, deducted on the TaskTreasury or transfered to Gelato.",
          "useTaskTreasuryFunds": "If taskCreator's balance on TaskTreasury should pay for the tx."
        }
      },
      "getFeeDetails()": {
        "returns": {
          "_0": "uint256 Fee amount to be paid.",
          "_1": "address Token to be paid. (Determined and passed by taskCreator during createTask)"
        }
      },
      "getTaskId(address,address,bytes4,(uint8[],bytes[]),address)": {
        "params": {
          "execAddress": "Address of contract that will be called by Gelato.",
          "execSelector": "Signature of the function which will be called by Gelato.",
          "feeToken": "Address of token to be used as payment. Use address(0) if TaskTreasury is being used, 0xeeeeee... for ETH or native tokens.",
          "moduleData": "Conditional modules that will be used. {See LibDataTypes-ModuleData}",
          "taskCreator": "The address which created the task."
        }
      },
      "getTaskId(address,address,bytes4,bool,address,bytes32)": {
        "params": {
          "execAddress": "Address of contract that will be called by Gelato.",
          "execSelector": "Signature of the function which will be called by Gelato.",
          "feeToken": "Address of token to be used as payment. Use address(0) if TaskTreasury is being used, 0xeeeeee... for ETH or native tokens.",
          "resolverHash": "Hash of resolverAddress and resolverData {See getResolverHash}",
          "taskCreator": "The address which created the task.",
          "useTaskTreasuryFunds": "Wether fee should be deducted from TaskTreasury."
        }
      },
      "getTaskIdsByUser(address)": {
        "params": {
          "taskCreator": "Address of task creator to query."
        },
        "returns": {
          "_0": "bytes32[] List of taskIds created."
        }
      },
      "setModule(uint8[],address[])": {
        "params": {
          "moduleAddresses": "List of addresses for respective modules.",
          "modules": "List of modules to be set"
        }
      }
    },
    "stateVariables": {
      "taskTreasury": {
        "return": "ITaskTreasuryUpgradable TaskTreasury contract interface",
        "returns": {
          "_0": "ITaskTreasuryUpgradable TaskTreasury contract interface"
        }
      }
    },
    "version": 1
  },
  "userdoc": {
    "kind": "user",
    "methods": {
      "cancelTask(bytes32)": {
        "notice": "Terminates a task that was created and Gelato can no longer execute it."
      },
      "createTask(address,bytes,(uint8[],bytes[]),address)": {
        "notice": "Initiates a task with conditions which Gelato will monitor and execute when conditions are met."
      },
      "exec(address,address,bytes,(uint8[],bytes[]),uint256,address,bool,bool)": {
        "notice": "Execution API called by Gelato."
      },
      "getFeeDetails()": {
        "notice": "Helper function to query fee and feeToken to be used for payment. (For executions which pays itself)"
      },
      "getTaskId(address,address,bytes4,(uint8[],bytes[]),address)": {
        "notice": "Helper function to compute task id with module arguments"
      },
      "getTaskId(address,address,bytes4,bool,address,bytes32)": {
        "notice": "(Legacy) Helper function to compute task id."
      },
      "getTaskIdsByUser(address)": {
        "notice": "Helper func to query all open tasks by a task creator."
      },
      "setModule(uint8[],address[])": {
        "notice": "Sets the address of task modules. Only callable by proxy admin."
      },
      "taskTreasury()": {
        "notice": "TaskTreasury contract where user deposit funds to be used for fee payments."
      }
    },
    "notice": "Automate enables everyone to have Gelato monitor and execute transactions.ExecAddress refers to the contract that has the function which Gelato will call.Modules allow users to customise conditions and specifications when creating a task.",
    "version": 1
  },
  "storageLayout": {
    "storage": [
      {
        "astId": 2415,
        "contract": "contracts/Automate.sol:Automate",
        "label": "taskCreator",
        "offset": 0,
        "slot": "0",
        "type": "t_mapping(t_bytes32,t_address)"
      },
      {
        "astId": 2420,
        "contract": "contracts/Automate.sol:Automate",
        "label": "execAddresses",
        "offset": 0,
        "slot": "1",
        "type": "t_mapping(t_bytes32,t_address)"
      },
      {
        "astId": 2426,
        "contract": "contracts/Automate.sol:Automate",
        "label": "_createdTasks",
        "offset": 0,
        "slot": "2",
        "type": "t_mapping(t_address,t_struct(Bytes32Set)1433_storage)"
      },
      {
        "astId": 2428,
        "contract": "contracts/Automate.sol:Automate",
        "label": "fee",
        "offset": 0,
        "slot": "3",
        "type": "t_uint256"
      },
      {
        "astId": 2430,
        "contract": "contracts/Automate.sol:Automate",
        "label": "feeToken",
        "offset": 0,
        "slot": "4",
        "type": "t_address"
      },
      {
        "astId": 2436,
        "contract": "contracts/Automate.sol:Automate",
        "label": "timedTask",
        "offset": 0,
        "slot": "5",
        "type": "t_mapping(t_bytes32,t_struct(Time)5048_storage)"
      },
      {
        "astId": 2441,
        "contract": "contracts/Automate.sol:Automate",
        "label": "taskModuleAddresses",
        "offset": 0,
        "slot": "6",
        "type": "t_mapping(t_enum(Module)5035,t_address)"
      }
    ],
    "types": {
      "t_address": {
        "encoding": "inplace",
        "label": "address",
        "numberOfBytes": "20"
      },
      "t_array(t_bytes32)dyn_storage": {
        "base": "t_bytes32",
        "encoding": "dynamic_array",
        "label": "bytes32[]",
        "numberOfBytes": "32"
      },
      "t_bytes32": {
        "encoding": "inplace",
        "label": "bytes32",
        "numberOfBytes": "32"
      },
      "t_enum(Module)5035": {
        "encoding": "inplace",
        "label": "enum LibDataTypes.Module",
        "numberOfBytes": "1"
      },
      "t_mapping(t_address,t_struct(Bytes32Set)1433_storage)": {
        "encoding": "mapping",
        "key": "t_address",
        "label": "mapping(address => struct EnumerableSet.Bytes32Set)",
        "numberOfBytes": "32",
        "value": "t_struct(Bytes32Set)1433_storage"
      },
      "t_mapping(t_bytes32,t_address)": {
        "encoding": "mapping",
        "key": "t_bytes32",
        "label": "mapping(bytes32 => address)",
        "numberOfBytes": "32",
        "value": "t_address"
      },
      "t_mapping(t_bytes32,t_struct(Time)5048_storage)": {
        "encoding": "mapping",
        "key": "t_bytes32",
        "label": "mapping(bytes32 => struct LibDataTypes.Time)",
        "numberOfBytes": "32",
        "value": "t_struct(Time)5048_storage"
      },
      "t_mapping(t_bytes32,t_uint256)": {
        "encoding": "mapping",
        "key": "t_bytes32",
        "label": "mapping(bytes32 => uint256)",
        "numberOfBytes": "32",
        "value": "t_uint256"
      },
      "t_mapping(t_enum(Module)5035,t_address)": {
        "encoding": "mapping",
        "key": "t_enum(Module)5035",
        "label": "mapping(enum LibDataTypes.Module => address)",
        "numberOfBytes": "32",
        "value": "t_address"
      },
      "t_struct(Bytes32Set)1433_storage": {
        "encoding": "inplace",
        "label": "struct EnumerableSet.Bytes32Set",
        "members": [
          {
            "astId": 1432,
            "contract": "contracts/Automate.sol:Automate",
            "label": "_inner",
            "offset": 0,
            "slot": "0",
            "type": "t_struct(Set)1239_storage"
          }
        ],
        "numberOfBytes": "64"
      },
      "t_struct(Set)1239_storage": {
        "encoding": "inplace",
        "label": "struct EnumerableSet.Set",
        "members": [
          {
            "astId": 1234,
            "contract": "contracts/Automate.sol:Automate",
            "label": "_values",
            "offset": 0,
            "slot": "0",
            "type": "t_array(t_bytes32)dyn_storage"
          },
          {
            "astId": 1238,
            "contract": "contracts/Automate.sol:Automate",
            "label": "_indexes",
            "offset": 0,
            "slot": "1",
            "type": "t_mapping(t_bytes32,t_uint256)"
          }
        ],
        "numberOfBytes": "64"
      },
      "t_struct(Time)5048_storage": {
        "encoding": "inplace",
        "label": "struct LibDataTypes.Time",
        "members": [
          {
            "astId": 5045,
            "contract": "contracts/Automate.sol:Automate",
            "label": "nextExec",
            "offset": 0,
            "slot": "0",
            "type": "t_uint128"
          },
          {
            "astId": 5047,
            "contract": "contracts/Automate.sol:Automate",
            "label": "interval",
            "offset": 16,
            "slot": "0",
            "type": "t_uint128"
          }
        ],
        "numberOfBytes": "32"
      },
      "t_uint128": {
        "encoding": "inplace",
        "label": "uint128",
        "numberOfBytes": "16"
      },
      "t_uint256": {
        "encoding": "inplace",
        "label": "uint256",
        "numberOfBytes": "32"
      }
    }
  }
}