{
  "address": "0x7cF9a9BcE6238f5C27C835b9666F763aADaF686c",
  "abi": [
    {
      "inputs": [
        {
          "internalType": "address payable",
          "name": "_gelato",
          "type": "address"
        },
        {
          "internalType": "address",
          "name": "_taskTreasury",
          "type": "address"
        }
      ],
      "stateMutability": "nonpayable",
      "type": "constructor"
    },
    {
      "anonymous": false,
      "inputs": [
        {
          "indexed": true,
          "internalType": "uint256",
          "name": "txFee",
          "type": "uint256"
        },
        {
          "indexed": true,
          "internalType": "address",
          "name": "feeToken",
          "type": "address"
        },
        {
          "indexed": true,
          "internalType": "address",
          "name": "execAddress",
          "type": "address"
        },
        {
          "indexed": false,
          "internalType": "bytes",
          "name": "execData",
          "type": "bytes"
        },
        {
          "indexed": false,
          "internalType": "bytes32",
          "name": "taskId",
          "type": "bytes32"
        }
      ],
      "name": "ExecSuccess",
      "type": "event"
    },
    {
      "anonymous": false,
      "inputs": [
        {
          "indexed": false,
          "internalType": "bytes32",
          "name": "taskId",
          "type": "bytes32"
        },
        {
          "indexed": false,
          "internalType": "address",
          "name": "taskCreator",
          "type": "address"
        }
      ],
      "name": "TaskCancelled",
      "type": "event"
    },
    {
      "anonymous": false,
      "inputs": [
        {
          "indexed": false,
          "internalType": "address",
          "name": "taskCreator",
          "type": "address"
        },
        {
          "indexed": false,
          "internalType": "address",
          "name": "execAddress",
          "type": "address"
        },
        {
          "indexed": false,
          "internalType": "bytes4",
          "name": "selector",
          "type": "bytes4"
        },
        {
          "indexed": false,
          "internalType": "address",
          "name": "resolverAddress",
          "type": "address"
        },
        {
          "indexed": false,
          "internalType": "bytes32",
          "name": "taskId",
          "type": "bytes32"
        },
        {
          "indexed": false,
          "internalType": "bytes",
          "name": "resolverData",
          "type": "bytes"
        },
        {
          "indexed": false,
          "internalType": "bool",
          "name": "useTaskTreasuryFunds",
          "type": "bool"
        },
        {
          "indexed": false,
          "internalType": "address",
          "name": "feeToken",
          "type": "address"
        },
        {
          "indexed": false,
          "internalType": "bytes32",
          "name": "resolverHash",
          "type": "bytes32"
        }
      ],
      "name": "TaskCreated",
      "type": "event"
    },
    {
      "inputs": [
        {
          "internalType": "bytes32",
          "name": "_taskId",
          "type": "bytes32"
        }
      ],
      "name": "cancelTask",
      "outputs": [],
      "stateMutability": "nonpayable",
      "type": "function"
    },
    {
      "inputs": [
        {
          "internalType": "address",
          "name": "_execAddress",
          "type": "address"
        },
        {
          "internalType": "bytes4",
          "name": "_execSelector",
          "type": "bytes4"
        },
        {
          "internalType": "address",
          "name": "_resolverAddress",
          "type": "address"
        },
        {
          "internalType": "bytes",
          "name": "_resolverData",
          "type": "bytes"
        }
      ],
      "name": "createTask",
      "outputs": [],
      "stateMutability": "nonpayable",
      "type": "function"
    },
    {
      "inputs": [
        {
          "internalType": "address",
          "name": "_execAddress",
          "type": "address"
        },
        {
          "internalType": "bytes4",
          "name": "_execSelector",
          "type": "bytes4"
        },
        {
          "internalType": "address",
          "name": "_resolverAddress",
          "type": "address"
        },
        {
          "internalType": "bytes",
          "name": "_resolverData",
          "type": "bytes"
        },
        {
          "internalType": "address",
          "name": "_feeToken",
          "type": "address"
        }
      ],
      "name": "createTaskNoPrepayment",
      "outputs": [],
      "stateMutability": "nonpayable",
      "type": "function"
    },
    {
      "inputs": [
        {
          "internalType": "uint256",
          "name": "_txFee",
          "type": "uint256"
        },
        {
          "internalType": "address",
          "name": "_feeToken",
          "type": "address"
        },
        {
          "internalType": "address",
          "name": "_taskCreator",
          "type": "address"
        },
        {
          "internalType": "bool",
          "name": "_useTaskTreasuryFunds",
          "type": "bool"
        },
        {
          "internalType": "bytes32",
          "name": "_resolverHash",
          "type": "bytes32"
        },
        {
          "internalType": "address",
          "name": "_execAddress",
          "type": "address"
        },
        {
          "internalType": "bytes",
          "name": "_execData",
          "type": "bytes"
        }
      ],
      "name": "exec",
      "outputs": [],
      "stateMutability": "nonpayable",
      "type": "function"
    },
    {
      "inputs": [
        {
          "internalType": "bytes32",
          "name": "",
          "type": "bytes32"
        }
      ],
      "name": "execAddresses",
      "outputs": [
        {
          "internalType": "address",
          "name": "",
          "type": "address"
        }
      ],
      "stateMutability": "view",
      "type": "function"
    },
    {
      "inputs": [],
      "name": "fee",
      "outputs": [
        {
          "internalType": "uint256",
          "name": "",
          "type": "uint256"
        }
      ],
      "stateMutability": "view",
      "type": "function"
    },
    {
      "inputs": [],
      "name": "feeToken",
      "outputs": [
        {
          "internalType": "address",
          "name": "",
          "type": "address"
        }
      ],
      "stateMutability": "view",
      "type": "function"
    },
    {
      "inputs": [],
      "name": "gelato",
      "outputs": [
        {
          "internalType": "address payable",
          "name": "",
          "type": "address"
        }
      ],
      "stateMutability": "view",
      "type": "function"
    },
    {
      "inputs": [],
      "name": "getFeeDetails",
      "outputs": [
        {
          "internalType": "uint256",
          "name": "",
          "type": "uint256"
        },
        {
          "internalType": "address",
          "name": "",
          "type": "address"
        }
      ],
      "stateMutability": "view",
      "type": "function"
    },
    {
      "inputs": [
        {
          "internalType": "address",
          "name": "_resolverAddress",
          "type": "address"
        },
        {
          "internalType": "bytes",
          "name": "_resolverData",
          "type": "bytes"
        }
      ],
      "name": "getResolverHash",
      "outputs": [
        {
          "internalType": "bytes32",
          "name": "",
          "type": "bytes32"
        }
      ],
      "stateMutability": "pure",
      "type": "function"
    },
    {
      "inputs": [
        {
          "internalType": "string",
          "name": "_func",
          "type": "string"
        }
      ],
      "name": "getSelector",
      "outputs": [
        {
          "internalType": "bytes4",
          "name": "",
          "type": "bytes4"
        }
      ],
      "stateMutability": "pure",
      "type": "function"
    },
    {
      "inputs": [
        {
          "internalType": "address",
          "name": "_taskCreator",
          "type": "address"
        },
        {
          "internalType": "address",
          "name": "_execAddress",
          "type": "address"
        },
        {
          "internalType": "bytes4",
          "name": "_selector",
          "type": "bytes4"
        },
        {
          "internalType": "bool",
          "name": "_useTaskTreasuryFunds",
          "type": "bool"
        },
        {
          "internalType": "address",
          "name": "_feeToken",
          "type": "address"
        },
        {
          "internalType": "bytes32",
          "name": "_resolverHash",
          "type": "bytes32"
        }
      ],
      "name": "getTaskId",
      "outputs": [
        {
          "internalType": "bytes32",
          "name": "",
          "type": "bytes32"
        }
      ],
      "stateMutability": "pure",
      "type": "function"
    },
    {
      "inputs": [
        {
          "internalType": "address",
          "name": "_taskCreator",
          "type": "address"
        }
      ],
      "name": "getTaskIdsByUser",
      "outputs": [
        {
          "internalType": "bytes32[]",
          "name": "",
          "type": "bytes32[]"
        }
      ],
      "stateMutability": "view",
      "type": "function"
    },
    {
      "inputs": [
        {
          "internalType": "bytes32",
          "name": "",
          "type": "bytes32"
        }
      ],
      "name": "taskCreator",
      "outputs": [
        {
          "internalType": "address",
          "name": "",
          "type": "address"
        }
      ],
      "stateMutability": "view",
      "type": "function"
    },
    {
      "inputs": [],
      "name": "taskTreasury",
      "outputs": [
        {
          "internalType": "address",
          "name": "",
          "type": "address"
        }
      ],
      "stateMutability": "view",
      "type": "function"
    },
    {
      "inputs": [],
      "name": "version",
      "outputs": [
        {
          "internalType": "string",
          "name": "",
          "type": "string"
        }
      ],
      "stateMutability": "view",
      "type": "function"
    }
  ],
  "transactionHash": "0x4201d28bab79d052f534a2eaa4d519041df8ad9cf61317224950beccc4ff9439",
  "args": [
    "0xebA27A2301975FF5BF7864b99F55A4f7A457ED10",
    "0x6c3224f9b3feE000A444681d5D45e4532D5BA531"
  ],
  "solcInputHash": "45d20158fe7d69dbec79c187f61b6b93",
  "bytecode": "0x60c06040523480156200001157600080fd5b506040516200259d3803806200259d8339818101604052810190620000379190620000dd565b818073ffffffffffffffffffffffffffffffffffffffff1660808173ffffffffffffffffffffffffffffffffffffffff1660601b81525050508073ffffffffffffffffffffffffffffffffffffffff1660a08173ffffffffffffffffffffffffffffffffffffffff1660601b8152505050506200019a565b600081519050620000c08162000166565b92915050565b600081519050620000d78162000180565b92915050565b60008060408385031215620000f157600080fd5b60006200010185828601620000c6565b92505060206200011485828601620000af565b9150509250929050565b60006200012b8262000146565b9050919050565b60006200013f8262000146565b9050919050565b600073ffffffffffffffffffffffffffffffffffffffff82169050919050565b62000171816200011e565b81146200017d57600080fd5b50565b6200018b8162000132565b81146200019757600080fd5b50565b60805160601c60a05160601c6123c9620001d460003960008181610abe0152610ead015260008181610537015261086501526123c96000f3fe608060405234801561001057600080fd5b50600436106101005760003560e01c80638b92696a11610097578063cabcb34911610066578063cabcb349146102c2578063ddca3f43146102f2578063e60a321314610310578063ee8ca3b51461032e57610100565b80638b92696a1461024f5780638e8b52791461026b578063b810c63614610287578063b9f45adb146102a657610100565b8063647846a5116100d3578063647846a5146101a15780636d2dd29f146101bf5780637b4e45e9146101ef57806380a003ff1461021f57610100565b80630407145c146101055780632e6e0bd01461013557806354fd4d5014610165578063573ea57514610183575b600080fd5b61011f600480360381019061011a91906116b0565b61034a565b60405161012c9190611ecc565b60405180910390f35b61014f600480360381019061014a91906118c8565b6104c9565b60405161015c9190611d38565b60405180910390f35b61016d6104fc565b60405161017a9190611f7f565b60405180910390f35b61018b610535565b6040516101989190611d53565b60405180910390f35b6101a9610559565b6040516101b69190611d38565b60405180910390f35b6101d960048036038101906101d491906118c8565b61057f565b6040516101e69190611d38565b60405180910390f35b610209600480360381019061020491906116d9565b6105b2565b6040516102169190611eee565b60405180910390f35b610239600480360381019061023491906118f1565b6105f1565b6040516102469190611f32565b60405180910390f35b61026960048036038101906102649190611762565b610613565b005b61028560048036038101906102809190611936565b610863565b005b61028f610bf2565b60405161029d92919061205c565b60405180910390f35b6102c060048036038101906102bb91906117e2565b610c23565b005b6102dc60048036038101906102d79190611874565b610e72565b6040516102e99190611eee565b60405180910390f35b6102fa610ea5565b6040516103079190612041565b60405180910390f35b610318610eab565b6040516103259190611d38565b60405180910390f35b610348600480360381019061034391906118c8565b610ecf565b005b60606000610395600260008573ffffffffffffffffffffffffffffffffffffffff1673ffffffffffffffffffffffffffffffffffffffff168152602001908152602001600020611068565b905060008167ffffffffffffffff8111156103d9577f4e487b7100000000000000000000000000000000000000000000000000000000600052604160045260246000fd5b6040519080825280602002602001820160405280156104075781602001602082028036833780820191505090505b50905060005b828110156104be5761046681600260008873ffffffffffffffffffffffffffffffffffffffff1673ffffffffffffffffffffffffffffffffffffffff16815260200190815260200160002061107d90919063ffffffff16565b82828151811061049f577f4e487b7100000000000000000000000000000000000000000000000000000000600052603260045260246000fd5b60200260200101818152505080806104b690612268565b91505061040d565b508092505050919050565b60006020528060005260406000206000915054906101000a900473ffffffffffffffffffffffffffffffffffffffff1681565b6040518060400160405280600181526020017f330000000000000000000000000000000000000000000000000000000000000081525081565b7f000000000000000000000000000000000000000000000000000000000000000081565b600460009054906101000a900473ffffffffffffffffffffffffffffffffffffffff1681565b60016020528060005260406000206000915054906101000a900473ffffffffffffffffffffffffffffffffffffffff1681565b60008686868686866040516020016105cf96959493929190611e04565b6040516020818303038152906040528051906020012090509695505050505050565b60008282604051610603929190611d1f565b6040518091039020905092915050565b60006106638484848080601f016020809104026020016040519081016040528093929190818152602001838380828437600081840152601f19601f82011690508083019250505050505050610e72565b9050600061067733888860016000876105b2565b9050600073ffffffffffffffffffffffffffffffffffffffff1660008083815260200190815260200160002060009054906101000a900473ffffffffffffffffffffffffffffffffffffffff1673ffffffffffffffffffffffffffffffffffffffff161461071a576040517f08c379a000000000000000000000000000000000000000000000000000000000815260040161071190612021565b60405180910390fd5b61076b81600260003373ffffffffffffffffffffffffffffffffffffffff1673ffffffffffffffffffffffffffffffffffffffff16815260200190815260200160002061109490919063ffffffff16565b503360008083815260200190815260200160002060006101000a81548173ffffffffffffffffffffffffffffffffffffffff021916908373ffffffffffffffffffffffffffffffffffffffff160217905550866001600083815260200190815260200160002060006101000a81548173ffffffffffffffffffffffffffffffffffffffff021916908373ffffffffffffffffffffffffffffffffffffffff1602179055507fcfd64545826fbe236e660141349bd1ed0b30c9bec7e213894afd7745a1f76f3333888888858989600160008b6040516108529a99989796959493929190611d6e565b60405180910390a150505050505050565b7f000000000000000000000000000000000000000000000000000000000000000073ffffffffffffffffffffffffffffffffffffffff163373ffffffffffffffffffffffffffffffffffffffff16146108f1576040517f08c379a00000000000000000000000000000000000000000000000000000000081526004016108e890611fa1565b60405180910390fd5b8461093f578760038190555086600460006101000a81548173ffffffffffffffffffffffffffffffffffffffff021916908373ffffffffffffffffffffffffffffffffffffffff1602179055505b6000610965878561095086866110ab565b898a61095c578c61095f565b60005b8a6105b2565b90508673ffffffffffffffffffffffffffffffffffffffff1660008083815260200190815260200160002060009054906101000a900473ffffffffffffffffffffffffffffffffffffffff1673ffffffffffffffffffffffffffffffffffffffff1614610a07576040517f08c379a00000000000000000000000000000000000000000000000000000000081526004016109fe90611fc1565b60405180910390fd5b60008473ffffffffffffffffffffffffffffffffffffffff168484604051610a30929190611d1f565b6000604051808303816000865af19150503d8060008114610a6d576040519150601f19603f3d011682016040523d82523d6000602084013e610a72565b606091505b5050905080610ab6576040517f08c379a0000000000000000000000000000000000000000000000000000000008152600401610aad90611fe1565b60405180910390fd5b8615610b50577f000000000000000000000000000000000000000000000000000000000000000073ffffffffffffffffffffffffffffffffffffffff16636f192acc8a8c8b6040518463ffffffff1660e01b8152600401610b1993929190611e95565b600060405180830381600087803b158015610b3357600080fd5b505af1158015610b47573d6000803e3d6000fd5b50505050610b7c565b600360009055600460006101000a81549073ffffffffffffffffffffffffffffffffffffffff02191690555b8473ffffffffffffffffffffffffffffffffffffffff168973ffffffffffffffffffffffffffffffffffffffff168b7ff5785831cc21ed1a6e74f60bd9268a70a7a3f3fc03c815dba22ceda33aea26ce878787604051610bde93929190611f4d565b60405180910390a450505050505050505050565b600080600354600460009054906101000a900473ffffffffffffffffffffffffffffffffffffffff16915091509091565b6000610c738585858080601f016020809104026020016040519081016040528093929190818152602001838380828437600081840152601f19601f82011690508083019250505050505050610e72565b90506000610c86338989600087876105b2565b9050600073ffffffffffffffffffffffffffffffffffffffff1660008083815260200190815260200160002060009054906101000a900473ffffffffffffffffffffffffffffffffffffffff1673ffffffffffffffffffffffffffffffffffffffff1614610d29576040517f08c379a0000000000000000000000000000000000000000000000000000000008152600401610d2090612021565b60405180910390fd5b610d7a81600260003373ffffffffffffffffffffffffffffffffffffffff1673ffffffffffffffffffffffffffffffffffffffff16815260200190815260200160002061109490919063ffffffff16565b503360008083815260200190815260200160002060006101000a81548173ffffffffffffffffffffffffffffffffffffffff021916908373ffffffffffffffffffffffffffffffffffffffff160217905550876001600083815260200190815260200160002060006101000a81548173ffffffffffffffffffffffffffffffffffffffff021916908373ffffffffffffffffffffffffffffffffffffffff1602179055507fcfd64545826fbe236e660141349bd1ed0b30c9bec7e213894afd7745a1f76f3333898989858a8a60008b8b604051610e609a99989796959493929190611d6e565b60405180910390a15050505050505050565b60008282604051602001610e87929190611e65565b60405160208183030381529060405280519060200120905092915050565b60035481565b7f000000000000000000000000000000000000000000000000000000000000000081565b3373ffffffffffffffffffffffffffffffffffffffff1660008083815260200190815260200160002060009054906101000a900473ffffffffffffffffffffffffffffffffffffffff1673ffffffffffffffffffffffffffffffffffffffff1614610f6f576040517f08c379a0000000000000000000000000000000000000000000000000000000008152600401610f6690612001565b60405180910390fd5b610fc081600260003373ffffffffffffffffffffffffffffffffffffffff1673ffffffffffffffffffffffffffffffffffffffff1681526020019081526020016000206112b990919063ffffffff16565b5060008082815260200190815260200160002060006101000a81549073ffffffffffffffffffffffffffffffffffffffff02191690556001600082815260200190815260200160002060006101000a81549073ffffffffffffffffffffffffffffffffffffffff02191690557f44d83729a43f9c6046446df014d073dd242e0ad672071e9b292f31b669c25b09813360405161105d929190611f09565b60405180910390a150565b6000611076826000016112d0565b9050919050565b600061108c83600001836112e1565b905092915050565b60006110a38360000183611332565b905092915050565b60006018838360038181106110e9577f4e487b7100000000000000000000000000000000000000000000000000000000600052603260045260246000fd5b9050013560f81c60f81b7effffffffffffffffffffffffffffffffffffffffffffffffffffffffffffff19167bffffffffffffffffffffffffffffffffffffffffffffffffffffffff1916901c601084846002818110611172577f4e487b7100000000000000000000000000000000000000000000000000000000600052603260045260246000fd5b9050013560f81c60f81b7effffffffffffffffffffffffffffffffffffffffffffffffffffffffffffff19167bffffffffffffffffffffffffffffffffffffffffffffffffffffffff1916901c6008858560018181106111fb577f4e487b7100000000000000000000000000000000000000000000000000000000600052603260045260246000fd5b9050013560f81c60f81b7effffffffffffffffffffffffffffffffffffffffffffffffffffffffffffff19167bffffffffffffffffffffffffffffffffffffffffffffffffffffffff1916901c85856000818110611282577f4e487b7100000000000000000000000000000000000000000000000000000000600052603260045260246000fd5b9050013560f81c60f81b7effffffffffffffffffffffffffffffffffffffffffffffffffffffffffffff1916171717905092915050565b60006112c883600001836113a2565b905092915050565b600081600001805490509050919050565b600082600001828154811061131f577f4e487b7100000000000000000000000000000000000000000000000000000000600052603260045260246000fd5b9060005260206000200154905092915050565b600061133e8383611528565b61139757826000018290806001815401808255809150506001900390600052602060002001600090919091909150558260000180549050836001016000848152602001908152602001600020819055506001905061139c565b600090505b92915050565b6000808360010160008481526020019081526020016000205490506000811461151c5760006001826113d49190612162565b90506000600186600001805490506113ec9190612162565b90508181146114a7576000866000018281548110611433577f4e487b7100000000000000000000000000000000000000000000000000000000600052603260045260246000fd5b906000526020600020015490508087600001848154811061147d577f4e487b7100000000000000000000000000000000000000000000000000000000600052603260045260246000fd5b90600052602060002001819055508387600101600083815260200190815260200160002081905550505b856000018054806114e1577f4e487b7100000000000000000000000000000000000000000000000000000000600052603160045260246000fd5b600190038181906000526020600020016000905590558560010160008681526020019081526020016000206000905560019350505050611522565b60009150505b92915050565b600080836001016000848152602001908152602001600020541415905092915050565b600061155e611559846120b6565b612085565b90508281526020810184848401111561157657600080fd5b611581848285612226565b509392505050565b60008135905061159881612320565b92915050565b6000813590506115ad81612337565b92915050565b6000813590506115c28161234e565b92915050565b6000813590506115d781612365565b92915050565b60008083601f8401126115ef57600080fd5b8235905067ffffffffffffffff81111561160857600080fd5b60208301915083600182028301111561162057600080fd5b9250929050565b600082601f83011261163857600080fd5b813561164884826020860161154b565b91505092915050565b60008083601f84011261166357600080fd5b8235905067ffffffffffffffff81111561167c57600080fd5b60208301915083600182028301111561169457600080fd5b9250929050565b6000813590506116aa8161237c565b92915050565b6000602082840312156116c257600080fd5b60006116d084828501611589565b91505092915050565b60008060008060008060c087890312156116f257600080fd5b600061170089828a01611589565b965050602061171189828a01611589565b955050604061172289828a016115c8565b945050606061173389828a0161159e565b935050608061174489828a01611589565b92505060a061175589828a016115b3565b9150509295509295509295565b60008060008060006080868803121561177a57600080fd5b600061178888828901611589565b9550506020611799888289016115c8565b94505060406117aa88828901611589565b935050606086013567ffffffffffffffff8111156117c757600080fd5b6117d3888289016115dd565b92509250509295509295909350565b60008060008060008060a087890312156117fb57600080fd5b600061180989828a01611589565b965050602061181a89828a016115c8565b955050604061182b89828a01611589565b945050606087013567ffffffffffffffff81111561184857600080fd5b61185489828a016115dd565b9350935050608061186789828a01611589565b9150509295509295509295565b6000806040838503121561188757600080fd5b600061189585828601611589565b925050602083013567ffffffffffffffff8111156118b257600080fd5b6118be85828601611627565b9150509250929050565b6000602082840312156118da57600080fd5b60006118e8848285016115b3565b91505092915050565b6000806020838503121561190457600080fd5b600083013567ffffffffffffffff81111561191e57600080fd5b61192a85828601611651565b92509250509250929050565b60008060008060008060008060e0898b03121561195257600080fd5b60006119608b828c0161169b565b98505060206119718b828c01611589565b97505060406119828b828c01611589565b96505060606119938b828c0161159e565b95505060806119a48b828c016115b3565b94505060a06119b58b828c01611589565b93505060c089013567ffffffffffffffff8111156119d257600080fd5b6119de8b828c016115dd565b92509250509295985092959890939650565b60006119fc8383611a93565b60208301905092915050565b611a11816121a8565b82525050565b611a2081612196565b82525050565b6000611a31826120f6565b611a3b8185612124565b9350611a46836120e6565b8060005b83811015611a77578151611a5e88826119f0565b9750611a6983612117565b925050600181019050611a4a565b5085935050505092915050565b611a8d816121ba565b82525050565b611a9c816121c6565b82525050565b611aab816121c6565b82525050565b611aba816121d0565b82525050565b6000611acc8385612135565b9350611ad9838584612226565b611ae28361230f565b840190509392505050565b6000611af98385612146565b9350611b06838584612226565b82840190509392505050565b6000611b1d82612101565b611b278185612135565b9350611b37818560208601612235565b611b408161230f565b840191505092915050565b6000611b568261210c565b611b608185612151565b9350611b70818560208601612235565b611b798161230f565b840191505092915050565b6000611b91601783612151565b91507f47656c61746f666965643a204f6e6c792067656c61746f0000000000000000006000830152602082019050919050565b6000611bd1601b83612151565b91507f506f6b654d653a20657865633a204e6f207461736b20666f756e6400000000006000830152602082019050919050565b6000611c11601e83612151565b91507f506f6b654d653a20657865633a20457865637574696f6e206661696c656400006000830152602082019050919050565b6000611c51603183612151565b91507f506f6b654d653a2063616e63656c5461736b3a2053656e64657220646964206e60008301527f6f74207374617274207461736b207965740000000000000000000000000000006020830152604082019050919050565b6000611cb7602f83612151565b91507f506f6b654d653a206372656174655461736b3a2053656e64657220616c72656160008301527f64792073746172746564207461736b00000000000000000000000000000000006020830152604082019050919050565b611d198161221c565b82525050565b6000611d2c828486611aed565b91508190509392505050565b6000602082019050611d4d6000830184611a17565b92915050565b6000602082019050611d686000830184611a08565b92915050565b600061012082019050611d84600083018d611a17565b611d91602083018c611a17565b611d9e604083018b611ab1565b611dab606083018a611a17565b611db86080830189611aa2565b81810360a0830152611dcb818789611ac0565b9050611dda60c0830186611a84565b611de760e0830185611a17565b611df5610100830184611aa2565b9b9a5050505050505050505050565b600060c082019050611e196000830189611a17565b611e266020830188611a17565b611e336040830187611ab1565b611e406060830186611a84565b611e4d6080830185611a17565b611e5a60a0830184611aa2565b979650505050505050565b6000604082019050611e7a6000830185611a17565b8181036020830152611e8c8184611b12565b90509392505050565b6000606082019050611eaa6000830186611a17565b611eb76020830185611d10565b611ec46040830184611a17565b949350505050565b60006020820190508181036000830152611ee68184611a26565b905092915050565b6000602082019050611f036000830184611aa2565b92915050565b6000604082019050611f1e6000830185611aa2565b611f2b6020830184611a17565b9392505050565b6000602082019050611f476000830184611ab1565b92915050565b60006040820190508181036000830152611f68818587611ac0565b9050611f776020830184611aa2565b949350505050565b60006020820190508181036000830152611f998184611b4b565b905092915050565b60006020820190508181036000830152611fba81611b84565b9050919050565b60006020820190508181036000830152611fda81611bc4565b9050919050565b60006020820190508181036000830152611ffa81611c04565b9050919050565b6000602082019050818103600083015261201a81611c44565b9050919050565b6000602082019050818103600083015261203a81611caa565b9050919050565b60006020820190506120566000830184611d10565b92915050565b60006040820190506120716000830185611d10565b61207e6020830184611a17565b9392505050565b6000604051905081810181811067ffffffffffffffff821117156120ac576120ab6122e0565b5b8060405250919050565b600067ffffffffffffffff8211156120d1576120d06122e0565b5b601f19601f8301169050602081019050919050565b6000819050602082019050919050565b600081519050919050565b600081519050919050565b600081519050919050565b6000602082019050919050565b600082825260208201905092915050565b600082825260208201905092915050565b600081905092915050565b600082825260208201905092915050565b600061216d8261221c565b91506121788361221c565b92508282101561218b5761218a6122b1565b5b828203905092915050565b60006121a1826121fc565b9050919050565b60006121b3826121fc565b9050919050565b60008115159050919050565b6000819050919050565b60007fffffffff0000000000000000000000000000000000000000000000000000000082169050919050565b600073ffffffffffffffffffffffffffffffffffffffff82169050919050565b6000819050919050565b82818337600083830152505050565b60005b83811015612253578082015181840152602081019050612238565b83811115612262576000848401525b50505050565b60006122738261221c565b91507fffffffffffffffffffffffffffffffffffffffffffffffffffffffffffffffff8214156122a6576122a56122b1565b5b600182019050919050565b7f4e487b7100000000000000000000000000000000000000000000000000000000600052601160045260246000fd5b7f4e487b7100000000000000000000000000000000000000000000000000000000600052604160045260246000fd5b6000601f19601f8301169050919050565b61232981612196565b811461233457600080fd5b50565b612340816121ba565b811461234b57600080fd5b50565b612357816121c6565b811461236257600080fd5b50565b61236e816121d0565b811461237957600080fd5b50565b6123858161221c565b811461239057600080fd5b5056fea264697066735822122004e4ccf23862d38fba92444c38e3fbb883b43bf348d660f23f20e0e0d2e2aa9564736f6c63430008000033",
  "devdoc": {
    "kind": "dev",
    "methods": {
      "cancelTask(bytes32)": {
        "params": {
          "_taskId": "The hash of the task, can be computed using getTaskId()"
        }
      },
      "createTask(address,bytes4,address,bytes)": {
        "details": "Requires funds to be added in Task Treasury, assumes treasury sends fee to Gelato via PokeMe",
        "params": {
          "_execAddress": "On which contract should Gelato execute the transactions",
          "_execSelector": "Which function Gelato should eecute on the _execAddress",
          "_resolverAddress": "On which contract should Gelato check when to execute the tx",
          "_resolverData": "Which data should be used to check on the Resolver when to execute the tx"
        }
      },
      "createTaskNoPrepayment(address,bytes4,address,bytes,address)": {
        "details": "Requires no funds to be added in Task Treasury, assumes tasks sends fee to Gelato directly",
        "params": {
          "_execAddress": "On which contract should Gelato execute the transactions",
          "_execSelector": "Which function Gelato should eecute on the _execAddress",
          "_feeToken": "Which token to use as fee payment",
          "_resolverAddress": "On which contract should Gelato check when to execute the tx",
          "_resolverData": "Which data should be used to check on the Resolver when to execute the tx"
        }
      },
      "exec(uint256,address,address,bool,bytes32,address,bytes)": {
        "params": {
          "_execAddress": "On which contract should Gelato execute the tx",
          "_execData": "Data used to execute the tx, queried from the Resolver by Gelato",
          "_feeToken": "Token used to pay for the execution. ETH = 0xeeeeee...",
          "_taskCreator": "On which contract should Gelato check when to execute the tx",
          "_txFee": "Fee paid to Gelato for execution, deducted on the TaskTreasury",
          "_useTaskTreasuryFunds": "If msg.sender's balance on TaskTreasury should pay for the tx"
        }
      },
      "getResolverHash(address,bytes)": {
        "params": {
          "_resolverAddress": "Address of resolver",
          "_resolverData": "Data passed to resolver"
        }
      },
      "getSelector(string)": {
        "details": "Example: \"transferFrom(address,address,uint256)\" => 0x23b872dd",
        "params": {
          "_func": "String of the function you want the selector from"
        }
      },
      "getTaskId(address,address,bytes4,bool,address,bytes32)": {
        "params": {
          "_execAddress": "Address of the contract to be executed by Gelato",
          "_feeToken": "FeeToken to use, address 0 if task treasury is used",
          "_resolverHash": "hash of resolver address and data",
          "_selector": "Function on the _execAddress which should be executed",
          "_taskCreator": "Address of the task creator",
          "_useTaskTreasuryFunds": "If msg.sender's balance on TaskTreasury should pay for the tx"
        }
      },
      "getTaskIdsByUser(address)": {
        "params": {
          "_taskCreator": "Address who created the task"
        }
      }
    },
    "version": 1
  },
  "userdoc": {
    "kind": "user",
    "methods": {
      "cancelTask(bytes32)": {
        "notice": "Cancel a task so that Gelato can no longer execute it"
      },
      "createTask(address,bytes4,address,bytes)": {
        "notice": "Create a task that tells Gelato to monitor and execute transactions on specific contracts"
      },
      "createTaskNoPrepayment(address,bytes4,address,bytes,address)": {
        "notice": "Create a task that tells Gelato to monitor and execute transactions on specific contracts"
      },
      "exec(uint256,address,address,bool,bytes32,address,bytes)": {
        "notice": "Execution API called by Gelato"
      },
      "getFeeDetails()": {
        "notice": "Helper func to query fee and feeToken"
      },
      "getResolverHash(address,bytes)": {
        "notice": "Helper func to query the resolverHash"
      },
      "getSelector(string)": {
        "notice": "Helper func to query the _selector of a function you want to automate"
      },
      "getTaskId(address,address,bytes4,bool,address,bytes32)": {
        "notice": "Returns TaskId of a task Creator"
      },
      "getTaskIdsByUser(address)": {
        "notice": "Helper func to query all open tasks by a task creator"
      }
    },
    "notice": "PokeMe enables everyone to communicate to Gelato Bots to monitor and execute certain transactionsResolverAddresses determine when Gelato should execute and provides bots with the payload they should use to executeExecAddress determine the actual contracts to execute a function on",
    "version": 1
  },
  "storageLayout": {
    "storage": [
      {
        "astId": 1723,
        "contract": "contracts/PokeMe.sol:PokeMe",
        "label": "taskCreator",
        "offset": 0,
        "slot": "0",
        "type": "t_mapping(t_bytes32,t_address)"
      },
      {
        "astId": 1727,
        "contract": "contracts/PokeMe.sol:PokeMe",
        "label": "execAddresses",
        "offset": 0,
        "slot": "1",
        "type": "t_mapping(t_bytes32,t_address)"
      },
      {
        "astId": 1732,
        "contract": "contracts/PokeMe.sol:PokeMe",
        "label": "_createdTasks",
        "offset": 0,
        "slot": "2",
        "type": "t_mapping(t_address,t_struct(Bytes32Set)1053_storage)"
      },
      {
        "astId": 1736,
        "contract": "contracts/PokeMe.sol:PokeMe",
        "label": "fee",
        "offset": 0,
        "slot": "3",
        "type": "t_uint256"
      },
      {
        "astId": 1738,
        "contract": "contracts/PokeMe.sol:PokeMe",
        "label": "feeToken",
        "offset": 0,
        "slot": "4",
        "type": "t_address"
      }
    ],
    "types": {
      "t_address": {
        "encoding": "inplace",
        "label": "address",
        "numberOfBytes": "20"
      },
      "t_array(t_bytes32)dyn_storage": {
        "base": "t_bytes32",
        "encoding": "dynamic_array",
        "label": "bytes32[]",
        "numberOfBytes": "32"
      },
      "t_bytes32": {
        "encoding": "inplace",
        "label": "bytes32",
        "numberOfBytes": "32"
      },
      "t_mapping(t_address,t_struct(Bytes32Set)1053_storage)": {
        "encoding": "mapping",
        "key": "t_address",
        "label": "mapping(address => struct EnumerableSet.Bytes32Set)",
        "numberOfBytes": "32",
        "value": "t_struct(Bytes32Set)1053_storage"
      },
      "t_mapping(t_bytes32,t_address)": {
        "encoding": "mapping",
        "key": "t_bytes32",
        "label": "mapping(bytes32 => address)",
        "numberOfBytes": "32",
        "value": "t_address"
      },
      "t_mapping(t_bytes32,t_uint256)": {
        "encoding": "mapping",
        "key": "t_bytes32",
        "label": "mapping(bytes32 => uint256)",
        "numberOfBytes": "32",
        "value": "t_uint256"
      },
      "t_struct(Bytes32Set)1053_storage": {
        "encoding": "inplace",
        "label": "struct EnumerableSet.Bytes32Set",
        "members": [
          {
            "astId": 1052,
            "contract": "contracts/PokeMe.sol:PokeMe",
            "label": "_inner",
            "offset": 0,
            "slot": "0",
            "type": "t_struct(Set)873_storage"
          }
        ],
        "numberOfBytes": "64"
      },
      "t_struct(Set)873_storage": {
        "encoding": "inplace",
        "label": "struct EnumerableSet.Set",
        "members": [
          {
            "astId": 868,
            "contract": "contracts/PokeMe.sol:PokeMe",
            "label": "_values",
            "offset": 0,
            "slot": "0",
            "type": "t_array(t_bytes32)dyn_storage"
          },
          {
            "astId": 872,
            "contract": "contracts/PokeMe.sol:PokeMe",
            "label": "_indexes",
            "offset": 0,
            "slot": "1",
            "type": "t_mapping(t_bytes32,t_uint256)"
          }
        ],
        "numberOfBytes": "64"
      },
      "t_uint256": {
        "encoding": "inplace",
        "label": "uint256",
        "numberOfBytes": "32"
      }
    }
  }
}