{
  "address": "0xFd5851BdE5066Ac84AbA9137F00Ef89BC8777f00",
  "abi": [
    {
      "inputs": [
        {
          "internalType": "address",
          "name": "_ops",
          "type": "address"
        }
      ],
      "stateMutability": "nonpayable",
      "type": "constructor"
    },
    {
      "anonymous": false,
      "inputs": [
        {
          "indexed": true,
          "internalType": "address",
          "name": "deployer",
          "type": "address"
        },
        {
          "indexed": true,
          "internalType": "address",
          "name": "owner",
          "type": "address"
        },
        {
          "indexed": true,
          "internalType": "address",
          "name": "proxy",
          "type": "address"
        }
      ],
      "name": "DeployProxy",
      "type": "event"
    },
    {
      "anonymous": false,
      "inputs": [
        {
          "indexed": true,
          "internalType": "address",
          "name": "oldImplementation",
          "type": "address"
        },
        {
          "indexed": true,
          "internalType": "address",
          "name": "newImplementation",
          "type": "address"
        }
      ],
      "name": "SetImplementation",
      "type": "event"
    },
    {
      "anonymous": false,
      "inputs": [
        {
          "indexed": true,
          "internalType": "address",
          "name": "implementation",
          "type": "address"
        },
        {
          "indexed": true,
          "internalType": "bool",
          "name": "whitelisted",
          "type": "bool"
        }
      ],
      "name": "UpdateWhitelistedImplementation",
      "type": "event"
    },
    {
      "inputs": [],
      "name": "deploy",
      "outputs": [
        {
          "internalType": "address payable",
          "name": "proxy",
          "type": "address"
        }
      ],
      "stateMutability": "nonpayable",
      "type": "function"
    },
    {
      "inputs": [
        {
          "internalType": "address",
          "name": "owner",
          "type": "address"
        }
      ],
      "name": "deployFor",
      "outputs": [
        {
          "internalType": "address payable",
          "name": "proxy",
          "type": "address"
        }
      ],
      "stateMutability": "nonpayable",
      "type": "function"
    },
    {
      "inputs": [
        {
          "internalType": "address",
          "name": "_account",
          "type": "address"
        }
      ],
      "name": "determineProxyAddress",
      "outputs": [
        {
          "internalType": "address",
          "name": "",
          "type": "address"
        }
      ],
      "stateMutability": "view",
      "type": "function"
    },
    {
      "inputs": [
        {
          "internalType": "address",
          "name": "_account",
          "type": "address"
        }
      ],
      "name": "getProxyOf",
      "outputs": [
        {
          "internalType": "address",
          "name": "",
          "type": "address"
        },
        {
          "internalType": "bool",
          "name": "",
          "type": "bool"
        }
      ],
      "stateMutability": "view",
      "type": "function"
    },
    {
      "inputs": [],
      "name": "implementation",
      "outputs": [
        {
          "internalType": "address",
          "name": "",
          "type": "address"
        }
      ],
      "stateMutability": "view",
      "type": "function"
    },
    {
      "inputs": [
        {
          "internalType": "address",
          "name": "_implementation",
          "type": "address"
        }
      ],
      "name": "initialize",
      "outputs": [],
      "stateMutability": "nonpayable",
      "type": "function"
    },
    {
      "inputs": [],
      "name": "ops",
      "outputs": [
        {
          "internalType": "address",
          "name": "",
          "type": "address"
        }
      ],
      "stateMutability": "view",
      "type": "function"
    },
    {
      "inputs": [
        {
          "internalType": "address",
          "name": "_proxy",
          "type": "address"
        }
      ],
      "name": "ownerOf",
      "outputs": [
        {
          "internalType": "address",
          "name": "",
          "type": "address"
        }
      ],
      "stateMutability": "view",
      "type": "function"
    },
    {
      "inputs": [
        {
          "internalType": "address",
          "name": "_newImplementation",
          "type": "address"
        }
      ],
      "name": "setImplementation",
      "outputs": [],
      "stateMutability": "nonpayable",
      "type": "function"
    },
    {
      "inputs": [
        {
          "internalType": "address",
          "name": "_implementation",
          "type": "address"
        },
        {
          "internalType": "bool",
          "name": "_whitelist",
          "type": "bool"
        }
      ],
      "name": "updateWhitelistedImplementations",
      "outputs": [],
      "stateMutability": "nonpayable",
      "type": "function"
    },
    {
      "inputs": [
        {
          "internalType": "address",
          "name": "",
          "type": "address"
        }
      ],
      "name": "whitelistedImplementations",
      "outputs": [
        {
          "internalType": "bool",
          "name": "",
          "type": "bool"
        }
      ],
      "stateMutability": "view",
      "type": "function"
    }
  ],
  "transactionHash": "0xd3a89a35234a5d01b5e4b9bc29628334d2ab9ad28c4034276134a1238f5d4823",
  "args": [
    "0x2A6C106ae13B558BB9E2Ec64Bd2f1f7BEFF3A5E0"
  ],
  "numDeployments": 1,
  "solcInputHash": "6b8e62dda7b180fb31163b9e8eb5473d",
  "bytecode": "0x60a06040523480156200001157600080fd5b50604051620028a5380380620028a58339818101604052810190620000379190620000dc565b8073ffffffffffffffffffffffffffffffffffffffff1660808173ffffffffffffffffffffffffffffffffffffffff1681525050506200010e565b600080fd5b600073ffffffffffffffffffffffffffffffffffffffff82169050919050565b6000620000a48262000077565b9050919050565b620000b68162000097565b8114620000c257600080fd5b50565b600081519050620000d681620000ab565b92915050565b600060208284031215620000f557620000f462000072565b5b60006200010584828501620000c5565b91505092915050565b60805161277b6200012a6000396000610cda015261277b6000f3fe60806040523480156200001157600080fd5b5060043610620000b85760003560e01c8063775c300c116200007b578063775c300c14620001a1578063c4d66de814620001c3578063d784d42614620001e3578063ded89a7c1462000203578063e70abe92146200023a578063fcff48ed146200025c57620000b8565b806314afd79e14620000bd5780635c60da1b14620000f35780635c6c4bbe1462000115578063606aa715146200013557806374912cd2146200016b575b600080fd5b620000db6004803603810190620000d5919062000ea6565b62000292565b604051620000ea919062000ee9565b60405180910390f35b620000fd620002fb565b6040516200010c919062000ee9565b60405180910390f35b6200013360048036038101906200012d919062000f43565b62000321565b005b6200015360048036038101906200014d919062000ea6565b6200043c565b60405162000162919062000ee9565b60405180910390f35b62000189600480360381019062000183919062000ea6565b6200053f565b60405162000198919062000faf565b60405180910390f35b620001ab62000874565b604051620001ba919062000faf565b60405180910390f35b620001e16004803603810190620001db919062000ea6565b62000886565b005b620002016004803603810190620001fb919062000ea6565b62000a0c565b005b6200022160048036038101906200021b919062000ea6565b62000c13565b6040516200023192919062000fdd565b60405180910390f35b6200024462000cd8565b60405162000253919062000ee9565b60405180910390f35b6200027a600480360381019062000274919062000ea6565b62000cfc565b6040516200028991906200100a565b60405180910390f35b6000600360008373ffffffffffffffffffffffffffffffffffffffff1673ffffffffffffffffffffffffffffffffffffffff16815260200190815260200160002060009054906101000a900473ffffffffffffffffffffffffffffffffffffffff169050919050565b600060029054906101000a900473ffffffffffffffffffffffffffffffffffffffff1681565b6200032b62000d1c565b73ffffffffffffffffffffffffffffffffffffffff163373ffffffffffffffffffffffffffffffffffffffff16146200039b576040517f08c379a0000000000000000000000000000000000000000000000000000000008152600401620003929062001088565b60405180910390fd5b80600160008473ffffffffffffffffffffffffffffffffffffffff1673ffffffffffffffffffffffffffffffffffffffff16815260200190815260200160002060006101000a81548160ff0219169083151502179055508015158273ffffffffffffffffffffffffffffffffffffffff167f0501828758a98b15fa5ef2b0f0100e2266e65c28175face06351ac414c14005f60405160405180910390a35050565b600080600260008473ffffffffffffffffffffffffffffffffffffffff1673ffffffffffffffffffffffffffffffffffffffff16815260200190815260200160002060009054906101000a900473ffffffffffffffffffffffffffffffffffffffff169050600073ffffffffffffffffffffffffffffffffffffffff168173ffffffffffffffffffffffffffffffffffffffff1614620004e057809150506200053a565b6000620004ed8462000d45565b9050600060ff60f81b306000801b84805190602001206040516020016200051894939291906200117a565b6040516020818303038152906040528051906020012090508060001c93505050505b919050565b600081600073ffffffffffffffffffffffffffffffffffffffff16600260008373ffffffffffffffffffffffffffffffffffffffff1673ffffffffffffffffffffffffffffffffffffffff16815260200190815260200160002060009054906101000a900473ffffffffffffffffffffffffffffffffffffffff1673ffffffffffffffffffffffffffffffffffffffff161462000613576040517f08c379a00000000000000000000000000000000000000000000000000000000081526004016200060a9062001220565b60405180910390fd5b82600073ffffffffffffffffffffffffffffffffffffffff16600360008373ffffffffffffffffffffffffffffffffffffffff1673ffffffffffffffffffffffffffffffffffffffff16815260200190815260200160002060009054906101000a900473ffffffffffffffffffffffffffffffffffffffff1673ffffffffffffffffffffffffffffffffffffffff1614620006e5576040517f08c379a0000000000000000000000000000000000000000000000000000000008152600401620006dc9062001292565b60405180910390fd5b620006fe6000801b620006f88662000d45565b62000def565b925082600260008673ffffffffffffffffffffffffffffffffffffffff1673ffffffffffffffffffffffffffffffffffffffff16815260200190815260200160002060006101000a81548173ffffffffffffffffffffffffffffffffffffffff021916908373ffffffffffffffffffffffffffffffffffffffff16021790555083600360008573ffffffffffffffffffffffffffffffffffffffff1673ffffffffffffffffffffffffffffffffffffffff16815260200190815260200160002060006101000a81548173ffffffffffffffffffffffffffffffffffffffff021916908373ffffffffffffffffffffffffffffffffffffffff1602179055508273ffffffffffffffffffffffffffffffffffffffff168473ffffffffffffffffffffffffffffffffffffffff163373ffffffffffffffffffffffffffffffffffffffff167f2d8895d948115783fa362a57339c4c179365fafeafdd7dca66364ae296f50b7560405160405180910390a45050919050565b600062000881336200053f565b905090565b600060019054906101000a900460ff16620008b05760008054906101000a900460ff1615620008bb565b620008ba62000e08565b5b620008fd576040517f08c379a0000000000000000000000000000000000000000000000000000000008152600401620008f4906200132a565b60405180910390fd5b60008060019054906101000a900460ff1615905080156200094e576001600060016101000a81548160ff02191690831515021790555060016000806101000a81548160ff0219169083151502179055505b81600060026101000a81548173ffffffffffffffffffffffffffffffffffffffff021916908373ffffffffffffffffffffffffffffffffffffffff16021790555060018060008473ffffffffffffffffffffffffffffffffffffffff1673ffffffffffffffffffffffffffffffffffffffff16815260200190815260200160002060006101000a81548160ff021916908315150217905550801562000a085760008060016101000a81548160ff0219169083151502179055505b5050565b62000a1662000d1c565b73ffffffffffffffffffffffffffffffffffffffff163373ffffffffffffffffffffffffffffffffffffffff161462000a86576040517f08c379a000000000000000000000000000000000000000000000000000000000815260040162000a7d9062001088565b60405180910390fd5b60008060029054906101000a900473ffffffffffffffffffffffffffffffffffffffff1690508173ffffffffffffffffffffffffffffffffffffffff168173ffffffffffffffffffffffffffffffffffffffff161415801562000b325750600160008373ffffffffffffffffffffffffffffffffffffffff1673ffffffffffffffffffffffffffffffffffffffff16815260200190815260200160002060009054906101000a900460ff165b62000b74576040517f08c379a000000000000000000000000000000000000000000000000000000000815260040162000b6b90620013c2565b60405180910390fd5b81600060026101000a81548173ffffffffffffffffffffffffffffffffffffffff021916908373ffffffffffffffffffffffffffffffffffffffff1602179055508173ffffffffffffffffffffffffffffffffffffffff168173ffffffffffffffffffffffffffffffffffffffff167f273696cd8b7028587777b784decf945aca2e42036459d9d5fd81e493b112682860405160405180910390a35050565b6000806000600260008573ffffffffffffffffffffffffffffffffffffffff1673ffffffffffffffffffffffffffffffffffffffff16815260200190815260200160002060009054906101000a900473ffffffffffffffffffffffffffffffffffffffff169050600073ffffffffffffffffffffffffffffffffffffffff168173ffffffffffffffffffffffffffffffffffffffff161462000cbd57806001925092505062000cd3565b62000cc8846200043c565b905080600092509250505b915091565b7f000000000000000000000000000000000000000000000000000000000000000081565b60016020528060005260406000206000915054906101000a900460ff1681565b60007fb53127684a568b3173ae13b9f8a6016e243e63b6e8ee1178d6a717850b5d610354905090565b60606040518060200162000d599062000e2e565b6020820181038252601f19601f8201166040525030600060029054906101000a900473ffffffffffffffffffffffffffffffffffffffff16846040518060200160405280600081525060405160200162000db7949392919062001488565b60405160208183030381529060405260405160200162000dd99291906200151e565b6040516020818303038152906040529050919050565b60008060208301835185818385f5935050505092915050565b600062000e153062000e1b565b15905090565b600080823b905060008111915050919050565b6111ff806200154783390190565b600080fd5b600073ffffffffffffffffffffffffffffffffffffffff82169050919050565b600062000e6e8262000e41565b9050919050565b62000e808162000e61565b811462000e8c57600080fd5b50565b60008135905062000ea08162000e75565b92915050565b60006020828403121562000ebf5762000ebe62000e3c565b5b600062000ecf8482850162000e8f565b91505092915050565b62000ee38162000e61565b82525050565b600060208201905062000f00600083018462000ed8565b92915050565b60008115159050919050565b62000f1d8162000f06565b811462000f2957600080fd5b50565b60008135905062000f3d8162000f12565b92915050565b6000806040838503121562000f5d5762000f5c62000e3c565b5b600062000f6d8582860162000e8f565b925050602062000f808582860162000f2c565b9150509250929050565b600062000f978262000e41565b9050919050565b62000fa98162000f8a565b82525050565b600060208201905062000fc6600083018462000f9e565b92915050565b62000fd78162000f06565b82525050565b600060408201905062000ff4600083018562000ed8565b62001003602083018462000fcc565b9392505050565b600060208201905062001021600083018462000fcc565b92915050565b600082825260208201905092915050565b7f4e4f545f415554484f52495a4544000000000000000000000000000000000000600082015250565b600062001070600e8362001027565b91506200107d8262001038565b602082019050919050565b60006020820190508181036000830152620010a38162001061565b9050919050565b60007fff0000000000000000000000000000000000000000000000000000000000000082169050919050565b6000819050919050565b620010f5620010ef82620010aa565b620010d6565b82525050565b60008160601b9050919050565b60006200111582620010fb565b9050919050565b6000620011298262001108565b9050919050565b620011456200113f8262000e61565b6200111c565b82525050565b6000819050919050565b6000819050919050565b620011746200116e826200114b565b62001155565b82525050565b6000620011888287620010e0565b6001820191506200119a828662001130565b601482019150620011ac82856200115f565b602082019150620011be82846200115f565b60208201915081905095945050505050565b7f4f707350726f7879466163746f72793a204f6e652070726f7879000000000000600082015250565b600062001208601a8362001027565b91506200121582620011d0565b602082019050919050565b600060208201905081810360008301526200123b81620011f9565b9050919050565b7f4f707350726f7879466163746f72793a204e6f2070726f787900000000000000600082015250565b60006200127a60198362001027565b9150620012878262001242565b602082019050919050565b60006020820190508181036000830152620012ad816200126b565b9050919050565b7f496e697469616c697a61626c653a20636f6e747261637420697320616c72656160008201527f647920696e697469616c697a6564000000000000000000000000000000000000602082015250565b600062001312602e8362001027565b91506200131f82620012b4565b604082019050919050565b60006020820190508181036000830152620013458162001303565b9050919050565b7f4f707350726f7879466163746f72793a20496e76616c696420696d706c656d6560008201527f6e746174696f6e00000000000000000000000000000000000000000000000000602082015250565b6000620013aa60278362001027565b9150620013b7826200134c565b604082019050919050565b60006020820190508181036000830152620013dd816200139b565b9050919050565b600081519050919050565b600082825260208201905092915050565b60005b838110156200142057808201518184015260208101905062001403565b8381111562001430576000848401525b50505050565b6000601f19601f8301169050919050565b60006200145482620013e4565b620014608185620013ef565b93506200147281856020860162001400565b6200147d8162001436565b840191505092915050565b60006080820190506200149f600083018762000ed8565b620014ae602083018662000ed8565b620014bd604083018562000ed8565b8181036060830152620014d1818462001447565b905095945050505050565b600081905092915050565b6000620014f482620013e4565b620015008185620014dc565b93506200151281856020860162001400565b80840191505092915050565b60006200152c8285620014e7565b91506200153a8284620014e7565b9150819050939250505056fe60a0604052604051620011ff380380620011ff83398181016040528101906200002991906200047f565b8373ffffffffffffffffffffffffffffffffffffffff1660808173ffffffffffffffffffffffffffffffffffffffff16815250506200006f83826200008a60201b60201c565b6200008082620001bf60201b60201c565b5050505062000576565b60007f360894a13ba1a3210667c828492db98dca3e2076cc3735a920a3ca505d382bbc549050827f360894a13ba1a3210667c828492db98dca3e2076cc3735a920a3ca505d382bbc558273ffffffffffffffffffffffffffffffffffffffff168173ffffffffffffffffffffffffffffffffffffffff167f5570d70a002632a7b0b3c9304cc89efb62d8da9eca0dbd7752c83b737906829660405160405180910390a3600082511115620001ba5760008373ffffffffffffffffffffffffffffffffffffffff16836040516200016191906200055d565b600060405180830381855af49150503d80600081146200019e576040519150601f19603f3d011682016040523d82523d6000602084013e620001a3565b606091505b5050905080620001b8573d806000803e806000fd5b505b505050565b6000620001d16200025460201b60201c565b9050817fb53127684a568b3173ae13b9f8a6016e243e63b6e8ee1178d6a717850b5d6103558173ffffffffffffffffffffffffffffffffffffffff168173ffffffffffffffffffffffffffffffffffffffff167fdf435d422321da6b195902d70fc417c06a32f88379c20dd8f2a8da07088cec2960405160405180910390a35050565b60007fb53127684a568b3173ae13b9f8a6016e243e63b6e8ee1178d6a717850b5d610354905090565b6000604051905090565b600080fd5b600080fd5b600073ffffffffffffffffffffffffffffffffffffffff82169050919050565b6000620002be8262000291565b9050919050565b620002d081620002b1565b8114620002dc57600080fd5b50565b600081519050620002f081620002c5565b92915050565b600080fd5b600080fd5b6000601f19601f8301169050919050565b7f4e487b7100000000000000000000000000000000000000000000000000000000600052604160045260246000fd5b6200034b8262000300565b810181811067ffffffffffffffff821117156200036d576200036c62000311565b5b80604052505050565b6000620003826200027d565b905062000390828262000340565b919050565b600067ffffffffffffffff821115620003b357620003b262000311565b5b620003be8262000300565b9050602081019050919050565b60005b83811015620003eb578082015181840152602081019050620003ce565b83811115620003fb576000848401525b50505050565b600062000418620004128462000395565b62000376565b905082815260208101848484011115620004375762000436620002fb565b5b62000444848285620003cb565b509392505050565b600082601f830112620004645762000463620002f6565b5b81516200047684826020860162000401565b91505092915050565b600080600080608085870312156200049c576200049b62000287565b5b6000620004ac87828801620002df565b9450506020620004bf87828801620002df565b9350506040620004d287828801620002df565b925050606085015167ffffffffffffffff811115620004f657620004f56200028c565b5b62000504878288016200044c565b91505092959194509250565b600081519050919050565b600081905092915050565b6000620005338262000510565b6200053f81856200051b565b935062000551818560208601620003cb565b80840191505092915050565b60006200056b828462000526565b915081905092915050565b608051610c5f620005a060003960008181610351015281816104cc01526105f90152610c5f6000f3fe60806040526004361061004e5760003560e01c806301ffc9a7146100675780633659cfe6146100a45780633e47158c146100cd5780634f1ef286146100f8578063ba1d0ff4146101145761005d565b3661005d5761005b61013f565b005b61006561013f565b005b34801561007357600080fd5b5061008e600480360381019061008991906107d5565b610188565b60405161009b919061081d565b60405180910390f35b3480156100b057600080fd5b506100cb60048036038101906100c69190610896565b6102d9565b005b3480156100d957600080fd5b506100e2610445565b6040516100ef91906108d2565b60405180910390f35b610112600480360381019061010d9190610952565b610454565b005b34801561012057600080fd5b506101296105f7565b6040516101369190610a11565b60405180910390f35b7f360894a13ba1a3210667c828492db98dca3e2076cc3735a920a3ca505d382bbc543660008037600080366000845af43d806000803e816000811461018357816000f35b816000fd5b60006301ffc9a760e01b827bffffffffffffffffffffffffffffffffffffffffffffffffffffffff191614806101e35750637f5828d060e01b827bffffffffffffffffffffffffffffffffffffffffffffffffffffffff1916145b156101f157600190506102d4565b63ffffffff60e01b827bffffffffffffffffffffffffffffffffffffffffffffffffffffffff19160361022757600090506102d4565b60007f360894a13ba1a3210667c828492db98dca3e2076cc3735a920a3ca505d382bbc5490508073ffffffffffffffffffffffffffffffffffffffff166301ffc9a7846040518263ffffffff1660e01b81526004016102869190610a3b565b602060405180830381865afa9250505080156102c057506040513d601f19601f820116820180604052508101906102bd9190610a82565b60015b6102ce5760009150506102d4565b80925050505b919050565b6102e161061b565b73ffffffffffffffffffffffffffffffffffffffff163373ffffffffffffffffffffffffffffffffffffffff161461034e576040517f08c379a000000000000000000000000000000000000000000000000000000000815260040161034590610b0c565b60405180910390fd5b807f000000000000000000000000000000000000000000000000000000000000000073ffffffffffffffffffffffffffffffffffffffff1663fcff48ed826040518263ffffffff1660e01b81526004016103a891906108d2565b602060405180830381865afa1580156103c5573d6000803e3d6000fd5b505050506040513d601f19601f820116820180604052508101906103e99190610a82565b610428576040517f08c379a000000000000000000000000000000000000000000000000000000000815260040161041f90610b78565b60405180910390fd5b6104418260405180602001604052806000815250610644565b5050565b600061044f61061b565b905090565b61045c61061b565b73ffffffffffffffffffffffffffffffffffffffff163373ffffffffffffffffffffffffffffffffffffffff16146104c9576040517f08c379a00000000000000000000000000000000000000000000000000000000081526004016104c090610b0c565b60405180910390fd5b827f000000000000000000000000000000000000000000000000000000000000000073ffffffffffffffffffffffffffffffffffffffff1663fcff48ed826040518263ffffffff1660e01b815260040161052391906108d2565b602060405180830381865afa158015610540573d6000803e3d6000fd5b505050506040513d601f19601f820116820180604052508101906105649190610a82565b6105a3576040517f08c379a000000000000000000000000000000000000000000000000000000000815260040161059a90610b78565b60405180910390fd5b6105f18484848080601f016020809104026020016040519081016040528093929190818152602001838380828437600081840152601f19601f82011690508083019250505050505050610644565b50505050565b7f000000000000000000000000000000000000000000000000000000000000000081565b60007fb53127684a568b3173ae13b9f8a6016e243e63b6e8ee1178d6a717850b5d610354905090565b60007f360894a13ba1a3210667c828492db98dca3e2076cc3735a920a3ca505d382bbc549050827f360894a13ba1a3210667c828492db98dca3e2076cc3735a920a3ca505d382bbc558273ffffffffffffffffffffffffffffffffffffffff168173ffffffffffffffffffffffffffffffffffffffff167f5570d70a002632a7b0b3c9304cc89efb62d8da9eca0dbd7752c83b737906829660405160405180910390a360008251111561076e5760008373ffffffffffffffffffffffffffffffffffffffff16836040516107189190610c12565b600060405180830381855af49150503d8060008114610753576040519150601f19603f3d011682016040523d82523d6000602084013e610758565b606091505b505090508061076c573d806000803e806000fd5b505b505050565b600080fd5b600080fd5b60007fffffffff0000000000000000000000000000000000000000000000000000000082169050919050565b6107b28161077d565b81146107bd57600080fd5b50565b6000813590506107cf816107a9565b92915050565b6000602082840312156107eb576107ea610773565b5b60006107f9848285016107c0565b91505092915050565b60008115159050919050565b61081781610802565b82525050565b6000602082019050610832600083018461080e565b92915050565b600073ffffffffffffffffffffffffffffffffffffffff82169050919050565b600061086382610838565b9050919050565b61087381610858565b811461087e57600080fd5b50565b6000813590506108908161086a565b92915050565b6000602082840312156108ac576108ab610773565b5b60006108ba84828501610881565b91505092915050565b6108cc81610858565b82525050565b60006020820190506108e760008301846108c3565b92915050565b600080fd5b600080fd5b600080fd5b60008083601f840112610912576109116108ed565b5b8235905067ffffffffffffffff81111561092f5761092e6108f2565b5b60208301915083600182028301111561094b5761094a6108f7565b5b9250929050565b60008060006040848603121561096b5761096a610773565b5b600061097986828701610881565b935050602084013567ffffffffffffffff81111561099a57610999610778565b5b6109a6868287016108fc565b92509250509250925092565b6000819050919050565b60006109d76109d26109cd84610838565b6109b2565b610838565b9050919050565b60006109e9826109bc565b9050919050565b60006109fb826109de565b9050919050565b610a0b816109f0565b82525050565b6000602082019050610a266000830184610a02565b92915050565b610a358161077d565b82525050565b6000602082019050610a506000830184610a2c565b92915050565b610a5f81610802565b8114610a6a57600080fd5b50565b600081519050610a7c81610a56565b92915050565b600060208284031215610a9857610a97610773565b5b6000610aa684828501610a6d565b91505092915050565b600082825260208201905092915050565b7f4e4f545f415554484f52495a4544000000000000000000000000000000000000600082015250565b6000610af6600e83610aaf565b9150610b0182610ac0565b602082019050919050565b60006020820190508181036000830152610b2581610ae9565b9050919050565b7f496d706c656d656e746174696f6e206e6f742077686974656c69737465640000600082015250565b6000610b62601e83610aaf565b9150610b6d82610b2c565b602082019050919050565b60006020820190508181036000830152610b9181610b55565b9050919050565b600081519050919050565b600081905092915050565b60005b83811015610bcc578082015181840152602081019050610bb1565b83811115610bdb576000848401525b50505050565b6000610bec82610b98565b610bf68185610ba3565b9350610c06818560208601610bae565b80840191505092915050565b6000610c1e8284610be1565b91508190509291505056fea2646970667358221220e1383b8d53f44c0189f6040dcd0147a80a9b144d114d866a2dad68295018327864736f6c634300080e0033a26469706673582212202fa8ca65a664bfdbe5e7aa7b0228d569ed385e440ca4d8b299811e24453bb7fc64736f6c634300080e0033",
  "devdoc": {
    "kind": "dev",
    "methods": {
      "deploy()": {
        "returns": {
          "proxy": "Address of deployed proxy."
        }
      },
      "deployFor(address)": {
        "params": {
          "owner": "Address to deploy the proxy for."
        },
        "returns": {
          "proxy": "Address of deployed proxy."
        }
      },
      "determineProxyAddress(address)": {
        "params": {
          "account": "Address to determine the proxy address for."
        }
      },
      "getProxyOf(address)": {
        "returns": {
          "_0": "address Proxy address owned by account.",
          "_1": "bool Whether if proxy is deployed"
        }
      },
      "ownerOf(address)": {
        "returns": {
          "_0": "address Owner of deployed proxy."
        }
      }
    },
    "stateVariables": {
      "_ownerOf": {
        "details": "track owner of proxy"
      },
      "_proxyOf": {
        "details": "track proxy of user"
      },
      "whitelistedImplementations": {
        "return": "bool Whether if implementation is whitelisted.",
        "returns": {
          "_0": "bool Whether if implementation is whitelisted."
        }
      }
    },
    "version": 1
  },
  "userdoc": {
    "events": {
      "DeployProxy(address,address,address)": {
        "notice": "Emitted when an OpsProxy is deployed."
      },
      "SetImplementation(address,address)": {
        "notice": "Emitted when OpsProxy implementation to be deployed is changed."
      },
      "UpdateWhitelistedImplementation(address,bool)": {
        "notice": "Emitted when OpsProxy implementation is added or removed from whitelist."
      }
    },
    "kind": "user",
    "methods": {
      "deploy()": {
        "notice": "Deploys OpsProxy for the msg.sender."
      },
      "deployFor(address)": {
        "notice": "Deploys OpsProxy for another address."
      },
      "determineProxyAddress(address)": {
        "notice": "Determines the OpsProxy address when it is not deployed."
      }
    },
    "version": 1
  },
  "storageLayout": {
    "storage": [
      {
        "astId": 6,
        "contract": "contracts/opsProxy/OpsProxyFactory.sol:OpsProxyFactory",
        "label": "_initialized",
        "offset": 0,
        "slot": "0",
        "type": "t_bool"
      },
      {
        "astId": 9,
        "contract": "contracts/opsProxy/OpsProxyFactory.sol:OpsProxyFactory",
        "label": "_initializing",
        "offset": 1,
        "slot": "0",
        "type": "t_bool"
      },
      {
        "astId": 6380,
        "contract": "contracts/opsProxy/OpsProxyFactory.sol:OpsProxyFactory",
        "label": "implementation",
        "offset": 2,
        "slot": "0",
        "type": "t_address"
      },
      {
        "astId": 6385,
        "contract": "contracts/opsProxy/OpsProxyFactory.sol:OpsProxyFactory",
        "label": "whitelistedImplementations",
        "offset": 0,
        "slot": "1",
        "type": "t_mapping(t_address,t_bool)"
      },
      {
        "astId": 6390,
        "contract": "contracts/opsProxy/OpsProxyFactory.sol:OpsProxyFactory",
        "label": "_proxyOf",
        "offset": 0,
        "slot": "2",
        "type": "t_mapping(t_address,t_address)"
      },
      {
        "astId": 6395,
        "contract": "contracts/opsProxy/OpsProxyFactory.sol:OpsProxyFactory",
        "label": "_ownerOf",
        "offset": 0,
        "slot": "3",
        "type": "t_mapping(t_address,t_address)"
      }
    ],
    "types": {
      "t_address": {
        "encoding": "inplace",
        "label": "address",
        "numberOfBytes": "20"
      },
      "t_bool": {
        "encoding": "inplace",
        "label": "bool",
        "numberOfBytes": "1"
      },
      "t_mapping(t_address,t_address)": {
        "encoding": "mapping",
        "key": "t_address",
        "label": "mapping(address => address)",
        "numberOfBytes": "32",
        "value": "t_address"
      },
      "t_mapping(t_address,t_bool)": {
        "encoding": "mapping",
        "key": "t_address",
        "label": "mapping(address => bool)",
        "numberOfBytes": "32",
        "value": "t_bool"
      }
    }
  }
}