{
  "address": "0x0422B6a9c81163FDa443FAb808E5B5BF27AB6720",
  "abi": [
    {
      "inputs": [],
      "stateMutability": "nonpayable",
      "type": "constructor"
    },
    {
      "anonymous": false,
      "inputs": [
        {
          "indexed": true,
          "internalType": "address",
          "name": "previousOwner",
          "type": "address"
        },
        {
          "indexed": true,
          "internalType": "address",
          "name": "newOwner",
          "type": "address"
        }
      ],
      "name": "OwnershipTransferred",
      "type": "event"
    },
    {
      "inputs": [
        {
          "internalType": "string",
          "name": "_offChainResolverHash",
          "type": "string"
        },
        {
          "internalType": "bytes",
          "name": "_offChainResolverArgsHex",
          "type": "bytes"
        }
      ],
      "name": "encodeModuleArg",
      "outputs": [
        {
          "internalType": "bytes",
          "name": "",
          "type": "bytes"
        }
      ],
      "stateMutability": "pure",
      "type": "function"
    },
    {
      "inputs": [
        {
          "internalType": "bytes32",
          "name": "",
          "type": "bytes32"
        }
      ],
      "name": "execAddresses",
      "outputs": [
        {
          "internalType": "address",
          "name": "",
          "type": "address"
        }
      ],
      "stateMutability": "view",
      "type": "function"
    },
    {
      "inputs": [],
      "name": "fee",
      "outputs": [
        {
          "internalType": "uint256",
          "name": "",
          "type": "uint256"
        }
      ],
      "stateMutability": "view",
      "type": "function"
    },
    {
      "inputs": [],
      "name": "feeToken",
      "outputs": [
        {
          "internalType": "address",
          "name": "",
          "type": "address"
        }
      ],
      "stateMutability": "view",
      "type": "function"
    },
    {
      "inputs": [
        {
          "internalType": "bytes32",
          "name": "",
          "type": "bytes32"
        },
        {
          "internalType": "address",
          "name": "_taskCreator",
          "type": "address"
        },
        {
          "internalType": "address",
          "name": "",
          "type": "address"
        },
        {
          "internalType": "bytes",
          "name": "",
          "type": "bytes"
        },
        {
          "internalType": "bytes",
          "name": "",
          "type": "bytes"
        }
      ],
      "name": "onCreateTask",
      "outputs": [],
      "stateMutability": "nonpayable",
      "type": "function"
    },
    {
      "inputs": [
        {
          "internalType": "address",
          "name": "_taskCreator",
          "type": "address"
        }
      ],
      "name": "onlyWhitelisted",
      "outputs": [],
      "stateMutability": "view",
      "type": "function"
    },
    {
      "inputs": [],
      "name": "owner",
      "outputs": [
        {
          "internalType": "address",
          "name": "",
          "type": "address"
        }
      ],
      "stateMutability": "view",
      "type": "function"
    },
    {
      "inputs": [
        {
          "internalType": "bytes32",
          "name": "taskId",
          "type": "bytes32"
        },
        {
          "internalType": "address",
          "name": "taskCreator",
          "type": "address"
        },
        {
          "internalType": "address",
          "name": "execAddress",
          "type": "address"
        },
        {
          "internalType": "bytes",
          "name": "execData",
          "type": "bytes"
        }
      ],
      "name": "postExecCall",
      "outputs": [],
      "stateMutability": "nonpayable",
      "type": "function"
    },
    {
      "inputs": [
        {
          "internalType": "bytes32",
          "name": "",
          "type": "bytes32"
        },
        {
          "internalType": "address",
          "name": "_taskCreator",
          "type": "address"
        }
      ],
      "name": "preCancelTask",
      "outputs": [
        {
          "internalType": "address",
          "name": "",
          "type": "address"
        }
      ],
      "stateMutability": "nonpayable",
      "type": "function"
    },
    {
      "inputs": [
        {
          "internalType": "address",
          "name": "_taskCreator",
          "type": "address"
        },
        {
          "internalType": "address",
          "name": "_execAddress",
          "type": "address"
        }
      ],
      "name": "preCreateTask",
      "outputs": [
        {
          "internalType": "address",
          "name": "",
          "type": "address"
        },
        {
          "internalType": "address",
          "name": "",
          "type": "address"
        }
      ],
      "stateMutability": "nonpayable",
      "type": "function"
    },
    {
      "inputs": [
        {
          "internalType": "bytes32",
          "name": "",
          "type": "bytes32"
        },
        {
          "internalType": "address",
          "name": "",
          "type": "address"
        },
        {
          "internalType": "address",
          "name": "_execAddress",
          "type": "address"
        },
        {
          "internalType": "bytes",
          "name": "_execData",
          "type": "bytes"
        }
      ],
      "name": "preExecCall",
      "outputs": [
        {
          "internalType": "address",
          "name": "",
          "type": "address"
        },
        {
          "internalType": "bytes",
          "name": "",
          "type": "bytes"
        }
      ],
      "stateMutability": "nonpayable",
      "type": "function"
    },
    {
      "inputs": [],
      "name": "renounceOwnership",
      "outputs": [],
      "stateMutability": "nonpayable",
      "type": "function"
    },
    {
      "inputs": [
        {
          "internalType": "address[]",
          "name": "_taskCreators",
          "type": "address[]"
        },
        {
          "internalType": "bool",
          "name": "_whitelist",
          "type": "bool"
        }
      ],
      "name": "setWhitelist",
      "outputs": [],
      "stateMutability": "nonpayable",
      "type": "function"
    },
    {
      "inputs": [
        {
          "internalType": "bool",
          "name": "_enabled",
          "type": "bool"
        }
      ],
      "name": "setWhitelistEnabled",
      "outputs": [],
      "stateMutability": "nonpayable",
      "type": "function"
    },
    {
      "inputs": [
        {
          "internalType": "bytes32",
          "name": "",
          "type": "bytes32"
        }
      ],
      "name": "taskCreator",
      "outputs": [
        {
          "internalType": "address",
          "name": "",
          "type": "address"
        }
      ],
      "stateMutability": "view",
      "type": "function"
    },
    {
      "inputs": [
        {
          "internalType": "enum LibDataTypes.Module",
          "name": "",
          "type": "uint8"
        }
      ],
      "name": "taskModuleAddresses",
      "outputs": [
        {
          "internalType": "address",
          "name": "",
          "type": "address"
        }
      ],
      "stateMutability": "view",
      "type": "function"
    },
    {
      "inputs": [
        {
          "internalType": "bytes32",
          "name": "",
          "type": "bytes32"
        }
      ],
      "name": "timedTask",
      "outputs": [
        {
          "internalType": "uint128",
          "name": "nextExec",
          "type": "uint128"
        },
        {
          "internalType": "uint128",
          "name": "interval",
          "type": "uint128"
        }
      ],
      "stateMutability": "view",
      "type": "function"
    },
    {
      "inputs": [
        {
          "internalType": "address",
          "name": "newOwner",
          "type": "address"
        }
      ],
      "name": "transferOwnership",
      "outputs": [],
      "stateMutability": "nonpayable",
      "type": "function"
    },
    {
      "inputs": [],
      "name": "whitelistEnabled",
      "outputs": [
        {
          "internalType": "bool",
          "name": "",
          "type": "bool"
        }
      ],
      "stateMutability": "view",
      "type": "function"
    },
    {
      "inputs": [
        {
          "internalType": "address",
          "name": "",
          "type": "address"
        }
      ],
      "name": "whitelisted",
      "outputs": [
        {
          "internalType": "bool",
          "name": "",
          "type": "bool"
        }
      ],
      "stateMutability": "view",
      "type": "function"
    }
  ],
  "transactionHash": "0xffcb71f7f8fb0fe24b71cec458ca3ddce21ff016d8ef5ab8ec689a0dfdd3306f",
  "args": [],
  "numDeployments": 1,
  "solcInputHash": "d648436bd66c983e210e7e06c053e5c3",
  "bytecode": "0x608060405234801561001057600080fd5b5061002d61002261004d60201b60201c565b61005560201b60201c565b6001600760146101000a81548160ff02191690831515021790555061011b565b600033905090565b6000600760009054906101000a900473ffffffffffffffffffffffffffffffffffffffff16905081600760006101000a81548173ffffffffffffffffffffffffffffffffffffffff021916908373ffffffffffffffffffffffffffffffffffffffff1602179055508173ffffffffffffffffffffffffffffffffffffffff168173ffffffffffffffffffffffffffffffffffffffff167f8be0079c531659141344cd1fd0a4f28419497f9722a3daafe3b4186f6b6457e060405160405180910390a35050565b611bbd8061012a6000396000f3fe608060405234801561001057600080fd5b506004361061012c5760003560e01c80638da5cb5b116100ad578063cd3d4fb911610071578063cd3d4fb914610358578063d936547e14610388578063ddca3f43146103b8578063e33a581c146103d6578063f2fde38b146103f25761012c565b80638da5cb5b146102a0578063b0ccbdf0146102be578063b2db0b41146102da578063b81cd866146102f6578063c10304f7146103275761012c565b8063647846a5116100f4578063647846a5146101e75780636a796a8a146102055780636d2dd29f14610235578063715018a61461026557806376474e6a1461026f5761012c565b8063052d9e7e1461013157806314ae99261461014d5780632e6e0bd01461017d5780633c271a05146101ad57806351fb012d146101c9575b600080fd5b61014b60048036038101906101469190610e2b565b61040e565b005b61016760048036038101906101629190610eec565b6104a7565b6040516101749190610f3b565b60405180910390f35b61019760048036038101906101929190610f56565b6104b2565b6040516101a49190610f3b565b60405180910390f35b6101c760048036038101906101c291906110dc565b6104e5565b005b6101d16105fc565b6040516101de9190611147565b60405180910390f35b6101ef61060f565b6040516101fc9190610f3b565b60405180910390f35b61021f600480360381019061021a9190611272565b610635565b60405161022c9190611376565b60405180910390f35b61024f600480360381019061024a9190610f56565b610664565b60405161025c9190610f3b565b60405180910390f35b61026d610697565b005b61028960048036038101906102849190611398565b61071f565b6040516102979291906113d8565b60405180910390f35b6102a861072f565b6040516102b59190610f3b565b60405180910390f35b6102d860048036038101906102d39190611401565b610759565b005b6102f460048036038101906102ef91906114bd565b61085a565b005b610310600480360381019061030b9190610f56565b610861565b60405161031e929190611570565b60405180910390f35b610341600480360381019061033c91906114bd565b6108bd565b60405161034f929190611599565b60405180910390f35b610372600480360381019061036d91906115ee565b61091b565b60405161037f9190610f3b565b60405180910390f35b6103a2600480360381019061039d919061161b565b61094e565b6040516103af9190611147565b60405180910390f35b6103c061096e565b6040516103cd9190611661565b60405180910390f35b6103f060048036038101906103eb919061161b565b610974565b005b61040c6004803603810190610407919061161b565b610a19565b005b610416610b10565b73ffffffffffffffffffffffffffffffffffffffff1661043461072f565b73ffffffffffffffffffffffffffffffffffffffff161461048a576040517f08c379a0000000000000000000000000000000000000000000000000000000008152600401610481906116d9565b60405180910390fd5b80600760146101000a81548160ff02191690831515021790555050565b600081905092915050565b60006020528060005260406000206000915054906101000a900473ffffffffffffffffffffffffffffffffffffffff1681565b6104ed610b10565b73ffffffffffffffffffffffffffffffffffffffff1661050b61072f565b73ffffffffffffffffffffffffffffffffffffffff1614610561576040517f08c379a0000000000000000000000000000000000000000000000000000000008152600401610558906116d9565b60405180910390fd5b60008251905060005b818110156105f657826008600086848151811061058a576105896116f9565b5b602002602001015173ffffffffffffffffffffffffffffffffffffffff1673ffffffffffffffffffffffffffffffffffffffff16815260200190815260200160002060006101000a81548160ff02191690831515021790555080806105ee90611757565b91505061056a565b50505050565b600760149054906101000a900460ff1681565b600460009054906101000a900473ffffffffffffffffffffffffffffffffffffffff1681565b606083838360405160200161064c93929190611810565b60405160208183030381529060405290509392505050565b60016020528060005260406000206000915054906101000a900473ffffffffffffffffffffffffffffffffffffffff1681565b61069f610b10565b73ffffffffffffffffffffffffffffffffffffffff166106bd61072f565b73ffffffffffffffffffffffffffffffffffffffff1614610713576040517f08c379a000000000000000000000000000000000000000000000000000000000815260040161070a906116d9565b60405180910390fd5b61071d6000610b18565b565b6000808383915091509250929050565b6000600760009054906101000a900473ffffffffffffffffffffffffffffffffffffffff16905090565b60006006600060048081111561077257610771611849565b5b600481111561078457610783611849565b5b815260200190815260200160002060009054906101000a900473ffffffffffffffffffffffffffffffffffffffff169050600063e33a581c60e01b886040516024016107d09190610f3b565b604051602081830303815290604052907bffffffffffffffffffffffffffffffffffffffffffffffffffffffff19166020820180517bffffffffffffffffffffffffffffffffffffffffffffffffffffffff8381831617835250505050905061084d82826000600160405180602001604052806000815250610bde565b5050505050505050505050565b5050505050565b60056020528060005260406000206000915090508060000160009054906101000a90046fffffffffffffffffffffffffffffffff16908060000160109054906101000a90046fffffffffffffffffffffffffffffffff16905082565b6000606084848481818080601f016020809104026020016040519081016040528093929190818152602001838380828437600081840152601f19601f8201169050808301925050505050505090509050915091509550959350505050565b60066020528060005260406000206000915054906101000a900473ffffffffffffffffffffffffffffffffffffffff1681565b60086020528060005260406000206000915054906101000a900460ff1681565b60035481565b600760149054906101000a900460ff1615610a1657600860008273ffffffffffffffffffffffffffffffffffffffff1673ffffffffffffffffffffffffffffffffffffffff16815260200190815260200160002060009054906101000a900460ff16610a15576040517f08c379a0000000000000000000000000000000000000000000000000000000008152600401610a0c906118c4565b60405180910390fd5b5b50565b610a21610b10565b73ffffffffffffffffffffffffffffffffffffffff16610a3f61072f565b73ffffffffffffffffffffffffffffffffffffffff1614610a95576040517f08c379a0000000000000000000000000000000000000000000000000000000008152600401610a8c906116d9565b60405180910390fd5b600073ffffffffffffffffffffffffffffffffffffffff168173ffffffffffffffffffffffffffffffffffffffff1603610b04576040517f08c379a0000000000000000000000000000000000000000000000000000000008152600401610afb90611956565b60405180910390fd5b610b0d81610b18565b50565b600033905090565b6000600760009054906101000a900473ffffffffffffffffffffffffffffffffffffffff16905081600760006101000a81548173ffffffffffffffffffffffffffffffffffffffff021916908373ffffffffffffffffffffffffffffffffffffffff1602179055508173ffffffffffffffffffffffffffffffffffffffff168173ffffffffffffffffffffffffffffffffffffffff167f8be0079c531659141344cd1fd0a4f28419497f9722a3daafe3b4186f6b6457e060405160405180910390a35050565b600060608673ffffffffffffffffffffffffffffffffffffffff168587604051610c0891906119b2565b60006040518083038185875af1925050503d8060008114610c45576040519150601f19603f3d011682016040523d82523d6000602084013e610c4a565b606091505b50809250819350505081158015610c5e5750835b15610c6e57610c6d8184610c78565b5b9550959350505050565b600460208351610c8891906119f8565b03610d83576000826020015190506308c379a060e01b817bffffffffffffffffffffffffffffffffffffffffffffffffffffffff191603610d27576044830192508183604051602001610cdc929190611a65565b6040516020818303038152906040526040517f08c379a0000000000000000000000000000000000000000000000000000000008152600401610d1e9190611a89565b60405180910390fd5b81604051602001610d389190611af7565b6040516020818303038152906040526040517f08c379a0000000000000000000000000000000000000000000000000000000008152600401610d7a9190611a89565b60405180910390fd5b80604051602001610d949190611b65565b6040516020818303038152906040526040517f08c379a0000000000000000000000000000000000000000000000000000000008152600401610dd69190611a89565b60405180910390fd5b6000604051905090565b600080fd5b600080fd5b60008115159050919050565b610e0881610df3565b8114610e1357600080fd5b50565b600081359050610e2581610dff565b92915050565b600060208284031215610e4157610e40610de9565b5b6000610e4f84828501610e16565b91505092915050565b6000819050919050565b610e6b81610e58565b8114610e7657600080fd5b50565b600081359050610e8881610e62565b92915050565b600073ffffffffffffffffffffffffffffffffffffffff82169050919050565b6000610eb982610e8e565b9050919050565b610ec981610eae565b8114610ed457600080fd5b50565b600081359050610ee681610ec0565b92915050565b60008060408385031215610f0357610f02610de9565b5b6000610f1185828601610e79565b9250506020610f2285828601610ed7565b9150509250929050565b610f3581610eae565b82525050565b6000602082019050610f506000830184610f2c565b92915050565b600060208284031215610f6c57610f6b610de9565b5b6000610f7a84828501610e79565b91505092915050565b600080fd5b6000601f19601f8301169050919050565b7f4e487b7100000000000000000000000000000000000000000000000000000000600052604160045260246000fd5b610fd182610f88565b810181811067ffffffffffffffff82111715610ff057610fef610f99565b5b80604052505050565b6000611003610ddf565b905061100f8282610fc8565b919050565b600067ffffffffffffffff82111561102f5761102e610f99565b5b602082029050602081019050919050565b600080fd5b600061105861105384611014565b610ff9565b9050808382526020820190506020840283018581111561107b5761107a611040565b5b835b818110156110a457806110908882610ed7565b84526020840193505060208101905061107d565b5050509392505050565b600082601f8301126110c3576110c2610f83565b5b81356110d3848260208601611045565b91505092915050565b600080604083850312156110f3576110f2610de9565b5b600083013567ffffffffffffffff81111561111157611110610dee565b5b61111d858286016110ae565b925050602061112e85828601610e16565b9150509250929050565b61114181610df3565b82525050565b600060208201905061115c6000830184611138565b92915050565b600080fd5b600067ffffffffffffffff82111561118257611181610f99565b5b61118b82610f88565b9050602081019050919050565b82818337600083830152505050565b60006111ba6111b584611167565b610ff9565b9050828152602081018484840111156111d6576111d5611162565b5b6111e1848285611198565b509392505050565b600082601f8301126111fe576111fd610f83565b5b813561120e8482602086016111a7565b91505092915050565b600080fd5b60008083601f84011261123257611231610f83565b5b8235905067ffffffffffffffff81111561124f5761124e611217565b5b60208301915083600182028301111561126b5761126a611040565b5b9250929050565b60008060006040848603121561128b5761128a610de9565b5b600084013567ffffffffffffffff8111156112a9576112a8610dee565b5b6112b5868287016111e9565b935050602084013567ffffffffffffffff8111156112d6576112d5610dee565b5b6112e28682870161121c565b92509250509250925092565b600081519050919050565b600082825260208201905092915050565b60005b8381101561132857808201518184015260208101905061130d565b83811115611337576000848401525b50505050565b6000611348826112ee565b61135281856112f9565b935061136281856020860161130a565b61136b81610f88565b840191505092915050565b60006020820190508181036000830152611390818461133d565b905092915050565b600080604083850312156113af576113ae610de9565b5b60006113bd85828601610ed7565b92505060206113ce85828601610ed7565b9150509250929050565b60006040820190506113ed6000830185610f2c565b6113fa6020830184610f2c565b9392505050565b600080600080600080600060a0888a0312156114205761141f610de9565b5b600061142e8a828b01610e79565b975050602061143f8a828b01610ed7565b96505060406114508a828b01610ed7565b955050606088013567ffffffffffffffff81111561147157611470610dee565b5b61147d8a828b0161121c565b9450945050608088013567ffffffffffffffff8111156114a05761149f610dee565b5b6114ac8a828b0161121c565b925092505092959891949750929550565b6000806000806000608086880312156114d9576114d8610de9565b5b60006114e788828901610e79565b95505060206114f888828901610ed7565b945050604061150988828901610ed7565b935050606086013567ffffffffffffffff81111561152a57611529610dee565b5b6115368882890161121c565b92509250509295509295909350565b60006fffffffffffffffffffffffffffffffff82169050919050565b61156a81611545565b82525050565b60006040820190506115856000830185611561565b6115926020830184611561565b9392505050565b60006040820190506115ae6000830185610f2c565b81810360208301526115c0818461133d565b90509392505050565b600581106115d657600080fd5b50565b6000813590506115e8816115c9565b92915050565b60006020828403121561160457611603610de9565b5b6000611612848285016115d9565b91505092915050565b60006020828403121561163157611630610de9565b5b600061163f84828501610ed7565b91505092915050565b6000819050919050565b61165b81611648565b82525050565b60006020820190506116766000830184611652565b92915050565b600082825260208201905092915050565b7f4f776e61626c653a2063616c6c6572206973206e6f7420746865206f776e6572600082015250565b60006116c360208361167c565b91506116ce8261168d565b602082019050919050565b600060208201905081810360008301526116f2816116b6565b9050919050565b7f4e487b7100000000000000000000000000000000000000000000000000000000600052603260045260246000fd5b7f4e487b7100000000000000000000000000000000000000000000000000000000600052601160045260246000fd5b600061176282611648565b91507fffffffffffffffffffffffffffffffffffffffffffffffffffffffffffffffff820361179457611793611728565b5b600182019050919050565b600081519050919050565b60006117b58261179f565b6117bf818561167c565b93506117cf81856020860161130a565b6117d881610f88565b840191505092915050565b60006117ef83856112f9565b93506117fc838584611198565b61180583610f88565b840190509392505050565b6000604082019050818103600083015261182a81866117aa565b9050818103602083015261183f8184866117e3565b9050949350505050565b7f4e487b7100000000000000000000000000000000000000000000000000000000600052602160045260246000fd5b7f4f5265736f6c7665724d6f64756c653a204e6f742077686974656c6973746564600082015250565b60006118ae60208361167c565b91506118b982611878565b602082019050919050565b600060208201905081810360008301526118dd816118a1565b9050919050565b7f4f776e61626c653a206e6577206f776e657220697320746865207a65726f206160008201527f6464726573730000000000000000000000000000000000000000000000000000602082015250565b600061194060268361167c565b915061194b826118e4565b604082019050919050565b6000602082019050818103600083015261196f81611933565b9050919050565b600081905092915050565b600061198c826112ee565b6119968185611976565b93506119a681856020860161130a565b80840191505092915050565b60006119be8284611981565b915081905092915050565b7f4e487b7100000000000000000000000000000000000000000000000000000000600052601260045260246000fd5b6000611a0382611648565b9150611a0e83611648565b925082611a1e57611a1d6119c9565b5b828206905092915050565b600081905092915050565b6000611a3f8261179f565b611a498185611a29565b9350611a5981856020860161130a565b80840191505092915050565b6000611a718285611a34565b9150611a7d8284611a34565b91508190509392505050565b60006020820190508181036000830152611aa381846117aa565b905092915050565b7f4e6f4572726f7253656c6563746f720000000000000000000000000000000000600082015250565b6000611ae1600f83611a29565b9150611aec82611aab565b600f82019050919050565b6000611b038284611a34565b9150611b0e82611ad4565b915081905092915050565b7f556e657870656374656452657475726e64617461000000000000000000000000600082015250565b6000611b4f601483611a29565b9150611b5a82611b19565b601482019050919050565b6000611b718284611a34565b9150611b7c82611b42565b91508190509291505056fea26469706673582212200f00ff843553cfe6a3d6d2b82cf22f083b8f8f544d0ff214844dd877ef24836f64736f6c634300080e0033",
  "devdoc": {
    "kind": "dev",
    "methods": {
      "encodeModuleArg(string,bytes)": {
        "params": {
          "_offChainResolverArgsHex": "off-chain resolver `checker` arguments in hex.",
          "_offChainResolverHash": "IPFS hash of off-chain resolver."
        }
      },
      "onCreateTask(bytes32,address,address,bytes,bytes)": {
        "details": "calls OResolverModule to check if task creator is whitelisted. whitelist state lives in OResolverModule and not on Ops."
      },
      "onlyWhitelisted(address)": {
        "details": "Requires taskCreator to be whitelisted to create an OResolver task only if whitelistEnabled is set to true."
      },
      "owner()": {
        "details": "Returns the address of the current owner."
      },
      "postExecCall(bytes32,address,address,bytes)": {
        "params": {
          "execAddress": "Address of contract that should be called.",
          "execData": "Execution data to be called with / function selector if execution data is yet to be determined.",
          "taskCreator": "The address which created the task.",
          "taskId": "Unique hash of the task created."
        }
      },
      "preCancelTask(bytes32,address)": {
        "details": "Modules can override taskCreator.",
        "params": {
          "taskCreator": "The address which created the task.",
          "taskId": "Unique hash of the task created."
        },
        "returns": {
          "_0": "address Overriden or original taskCreator."
        }
      },
      "preCreateTask(address,address)": {
        "details": "Modules can override execAddress or taskCreator. {See ProxyModule-preCreateTask}",
        "params": {
          "execAddress": "Address of contract that should be called.",
          "taskCreator": "The address which created the task."
        },
        "returns": {
          "_0": "address Overriden or original taskCreator.",
          "_1": "address Overriden or original execAddress."
        }
      },
      "preExecCall(bytes32,address,address,bytes)": {
        "params": {
          "execAddress": "Address of contract that should be called.",
          "execData": "Execution data to be called with / function selector if execution data is yet to be determined.",
          "taskCreator": "The address which created the task.",
          "taskId": "Unique hash of the task created."
        },
        "returns": {
          "_0": "address Overriden or original execution address.",
          "_1": "bytes Overriden or original execution data."
        }
      },
      "renounceOwnership()": {
        "details": "Leaves the contract without owner. It will not be possible to call `onlyOwner` functions anymore. Can only be called by the current owner. NOTE: Renouncing ownership will leave the contract without an owner, thereby removing any functionality that is only available to the owner."
      },
      "transferOwnership(address)": {
        "details": "Transfers ownership of the contract to a new account (`newOwner`). Can only be called by the current owner."
      }
    },
    "version": 1
  },
  "userdoc": {
    "kind": "user",
    "methods": {
      "encodeModuleArg(string,bytes)": {
        "notice": "Helper function to encode arguments for OResolverModule."
      },
      "postExecCall(bytes32,address,address,bytes)": {
        "notice": "Called during `exec` and after execAddress is called."
      },
      "preCancelTask(bytes32,address)": {
        "notice": "Called before taskId is removed from _createdTasks[]."
      },
      "preCreateTask(address,address)": {
        "notice": "Called before generating taskId."
      },
      "preExecCall(bytes32,address,address,bytes)": {
        "notice": "Called during `exec` and before execAddress is called."
      }
    },
    "version": 1
  },
  "storageLayout": {
    "storage": [
      {
        "astId": 2351,
        "contract": "contracts/taskModules/OResolverModule.sol:OResolverModule",
        "label": "taskCreator",
        "offset": 0,
        "slot": "0",
        "type": "t_mapping(t_bytes32,t_address)"
      },
      {
        "astId": 2356,
        "contract": "contracts/taskModules/OResolverModule.sol:OResolverModule",
        "label": "execAddresses",
        "offset": 0,
        "slot": "1",
        "type": "t_mapping(t_bytes32,t_address)"
      },
      {
        "astId": 2362,
        "contract": "contracts/taskModules/OResolverModule.sol:OResolverModule",
        "label": "_createdTasks",
        "offset": 0,
        "slot": "2",
        "type": "t_mapping(t_address,t_struct(Bytes32Set)1433_storage)"
      },
      {
        "astId": 2364,
        "contract": "contracts/taskModules/OResolverModule.sol:OResolverModule",
        "label": "fee",
        "offset": 0,
        "slot": "3",
        "type": "t_uint256"
      },
      {
        "astId": 2366,
        "contract": "contracts/taskModules/OResolverModule.sol:OResolverModule",
        "label": "feeToken",
        "offset": 0,
        "slot": "4",
        "type": "t_address"
      },
      {
        "astId": 2372,
        "contract": "contracts/taskModules/OResolverModule.sol:OResolverModule",
        "label": "timedTask",
        "offset": 0,
        "slot": "5",
        "type": "t_mapping(t_bytes32,t_struct(Time)3570_storage)"
      },
      {
        "astId": 2377,
        "contract": "contracts/taskModules/OResolverModule.sol:OResolverModule",
        "label": "taskModuleAddresses",
        "offset": 0,
        "slot": "6",
        "type": "t_mapping(t_enum(Module)3557,t_address)"
      },
      {
        "astId": 384,
        "contract": "contracts/taskModules/OResolverModule.sol:OResolverModule",
        "label": "_owner",
        "offset": 0,
        "slot": "7",
        "type": "t_address"
      },
      {
        "astId": 5861,
        "contract": "contracts/taskModules/OResolverModule.sol:OResolverModule",
        "label": "whitelistEnabled",
        "offset": 20,
        "slot": "7",
        "type": "t_bool"
      },
      {
        "astId": 5865,
        "contract": "contracts/taskModules/OResolverModule.sol:OResolverModule",
        "label": "whitelisted",
        "offset": 0,
        "slot": "8",
        "type": "t_mapping(t_address,t_bool)"
      }
    ],
    "types": {
      "t_address": {
        "encoding": "inplace",
        "label": "address",
        "numberOfBytes": "20"
      },
      "t_array(t_bytes32)dyn_storage": {
        "base": "t_bytes32",
        "encoding": "dynamic_array",
        "label": "bytes32[]",
        "numberOfBytes": "32"
      },
      "t_bool": {
        "encoding": "inplace",
        "label": "bool",
        "numberOfBytes": "1"
      },
      "t_bytes32": {
        "encoding": "inplace",
        "label": "bytes32",
        "numberOfBytes": "32"
      },
      "t_enum(Module)3557": {
        "encoding": "inplace",
        "label": "enum LibDataTypes.Module",
        "numberOfBytes": "1"
      },
      "t_mapping(t_address,t_bool)": {
        "encoding": "mapping",
        "key": "t_address",
        "label": "mapping(address => bool)",
        "numberOfBytes": "32",
        "value": "t_bool"
      },
      "t_mapping(t_address,t_struct(Bytes32Set)1433_storage)": {
        "encoding": "mapping",
        "key": "t_address",
        "label": "mapping(address => struct EnumerableSet.Bytes32Set)",
        "numberOfBytes": "32",
        "value": "t_struct(Bytes32Set)1433_storage"
      },
      "t_mapping(t_bytes32,t_address)": {
        "encoding": "mapping",
        "key": "t_bytes32",
        "label": "mapping(bytes32 => address)",
        "numberOfBytes": "32",
        "value": "t_address"
      },
      "t_mapping(t_bytes32,t_struct(Time)3570_storage)": {
        "encoding": "mapping",
        "key": "t_bytes32",
        "label": "mapping(bytes32 => struct LibDataTypes.Time)",
        "numberOfBytes": "32",
        "value": "t_struct(Time)3570_storage"
      },
      "t_mapping(t_bytes32,t_uint256)": {
        "encoding": "mapping",
        "key": "t_bytes32",
        "label": "mapping(bytes32 => uint256)",
        "numberOfBytes": "32",
        "value": "t_uint256"
      },
      "t_mapping(t_enum(Module)3557,t_address)": {
        "encoding": "mapping",
        "key": "t_enum(Module)3557",
        "label": "mapping(enum LibDataTypes.Module => address)",
        "numberOfBytes": "32",
        "value": "t_address"
      },
      "t_struct(Bytes32Set)1433_storage": {
        "encoding": "inplace",
        "label": "struct EnumerableSet.Bytes32Set",
        "members": [
          {
            "astId": 1432,
            "contract": "contracts/taskModules/OResolverModule.sol:OResolverModule",
            "label": "_inner",
            "offset": 0,
            "slot": "0",
            "type": "t_struct(Set)1239_storage"
          }
        ],
        "numberOfBytes": "64"
      },
      "t_struct(Set)1239_storage": {
        "encoding": "inplace",
        "label": "struct EnumerableSet.Set",
        "members": [
          {
            "astId": 1234,
            "contract": "contracts/taskModules/OResolverModule.sol:OResolverModule",
            "label": "_values",
            "offset": 0,
            "slot": "0",
            "type": "t_array(t_bytes32)dyn_storage"
          },
          {
            "astId": 1238,
            "contract": "contracts/taskModules/OResolverModule.sol:OResolverModule",
            "label": "_indexes",
            "offset": 0,
            "slot": "1",
            "type": "t_mapping(t_bytes32,t_uint256)"
          }
        ],
        "numberOfBytes": "64"
      },
      "t_struct(Time)3570_storage": {
        "encoding": "inplace",
        "label": "struct LibDataTypes.Time",
        "members": [
          {
            "astId": 3567,
            "contract": "contracts/taskModules/OResolverModule.sol:OResolverModule",
            "label": "nextExec",
            "offset": 0,
            "slot": "0",
            "type": "t_uint128"
          },
          {
            "astId": 3569,
            "contract": "contracts/taskModules/OResolverModule.sol:OResolverModule",
            "label": "interval",
            "offset": 16,
            "slot": "0",
            "type": "t_uint128"
          }
        ],
        "numberOfBytes": "32"
      },
      "t_uint128": {
        "encoding": "inplace",
        "label": "uint128",
        "numberOfBytes": "16"
      },
      "t_uint256": {
        "encoding": "inplace",
        "label": "uint256",
        "numberOfBytes": "32"
      }
    }
  }
}