{
  "address": "0x87B1F9a80cC8CA6dBF6230170C1CaEaC2aa13947",
  "abi": [
    {
      "inputs": [
        {
          "internalType": "address payable",
          "name": "_gelato",
          "type": "address"
        },
        {
          "internalType": "uint256",
          "name": "_maxFee",
          "type": "uint256"
        }
      ],
      "stateMutability": "nonpayable",
      "type": "constructor"
    },
    {
      "anonymous": false,
      "inputs": [
        {
          "indexed": true,
          "internalType": "address",
          "name": "sender",
          "type": "address"
        },
        {
          "indexed": true,
          "internalType": "address",
          "name": "token",
          "type": "address"
        },
        {
          "indexed": true,
          "internalType": "uint256",
          "name": "amount",
          "type": "uint256"
        }
      ],
      "name": "FundsDeposited",
      "type": "event"
    },
    {
      "anonymous": false,
      "inputs": [
        {
          "indexed": true,
          "internalType": "address",
          "name": "receiver",
          "type": "address"
        },
        {
          "indexed": true,
          "internalType": "address",
          "name": "initiator",
          "type": "address"
        },
        {
          "indexed": true,
          "internalType": "address",
          "name": "token",
          "type": "address"
        },
        {
          "indexed": false,
          "internalType": "uint256",
          "name": "amount",
          "type": "uint256"
        }
      ],
      "name": "FundsWithdrawn",
      "type": "event"
    },
    {
      "anonymous": false,
      "inputs": [
        {
          "indexed": true,
          "internalType": "address",
          "name": "previousOwner",
          "type": "address"
        },
        {
          "indexed": true,
          "internalType": "address",
          "name": "newOwner",
          "type": "address"
        }
      ],
      "name": "OwnershipTransferred",
      "type": "event"
    },
    {
      "inputs": [
        {
          "internalType": "address",
          "name": "_service",
          "type": "address"
        }
      ],
      "name": "addWhitelistedService",
      "outputs": [],
      "stateMutability": "nonpayable",
      "type": "function"
    },
    {
      "inputs": [
        {
          "internalType": "address",
          "name": "_receiver",
          "type": "address"
        },
        {
          "internalType": "address",
          "name": "_token",
          "type": "address"
        },
        {
          "internalType": "uint256",
          "name": "_amount",
          "type": "uint256"
        }
      ],
      "name": "depositFunds",
      "outputs": [],
      "stateMutability": "payable",
      "type": "function"
    },
    {
      "inputs": [],
      "name": "gelato",
      "outputs": [
        {
          "internalType": "address payable",
          "name": "",
          "type": "address"
        }
      ],
      "stateMutability": "view",
      "type": "function"
    },
    {
      "inputs": [
        {
          "internalType": "address",
          "name": "_user",
          "type": "address"
        }
      ],
      "name": "getCreditTokensByUser",
      "outputs": [
        {
          "internalType": "address[]",
          "name": "",
          "type": "address[]"
        }
      ],
      "stateMutability": "view",
      "type": "function"
    },
    {
      "inputs": [],
      "name": "getWhitelistedServices",
      "outputs": [
        {
          "internalType": "address[]",
          "name": "",
          "type": "address[]"
        }
      ],
      "stateMutability": "view",
      "type": "function"
    },
    {
      "inputs": [],
      "name": "maxFee",
      "outputs": [
        {
          "internalType": "uint256",
          "name": "",
          "type": "uint256"
        }
      ],
      "stateMutability": "view",
      "type": "function"
    },
    {
      "inputs": [],
      "name": "owner",
      "outputs": [
        {
          "internalType": "address",
          "name": "",
          "type": "address"
        }
      ],
      "stateMutability": "view",
      "type": "function"
    },
    {
      "inputs": [
        {
          "internalType": "address",
          "name": "_service",
          "type": "address"
        }
      ],
      "name": "removeWhitelistedService",
      "outputs": [],
      "stateMutability": "nonpayable",
      "type": "function"
    },
    {
      "inputs": [],
      "name": "renounceOwnership",
      "outputs": [],
      "stateMutability": "nonpayable",
      "type": "function"
    },
    {
      "inputs": [
        {
          "internalType": "uint256",
          "name": "_newMaxFee",
          "type": "uint256"
        }
      ],
      "name": "setMaxFee",
      "outputs": [],
      "stateMutability": "nonpayable",
      "type": "function"
    },
    {
      "inputs": [
        {
          "internalType": "address",
          "name": "newOwner",
          "type": "address"
        }
      ],
      "name": "transferOwnership",
      "outputs": [],
      "stateMutability": "nonpayable",
      "type": "function"
    },
    {
      "inputs": [
        {
          "internalType": "address",
          "name": "_token",
          "type": "address"
        },
        {
          "internalType": "uint256",
          "name": "_amount",
          "type": "uint256"
        },
        {
          "internalType": "address",
          "name": "_user",
          "type": "address"
        }
      ],
      "name": "useFunds",
      "outputs": [],
      "stateMutability": "nonpayable",
      "type": "function"
    },
    {
      "inputs": [
        {
          "internalType": "address",
          "name": "",
          "type": "address"
        },
        {
          "internalType": "address",
          "name": "",
          "type": "address"
        }
      ],
      "name": "userTokenBalance",
      "outputs": [
        {
          "internalType": "uint256",
          "name": "",
          "type": "uint256"
        }
      ],
      "stateMutability": "view",
      "type": "function"
    },
    {
      "inputs": [
        {
          "internalType": "address payable",
          "name": "_receiver",
          "type": "address"
        },
        {
          "internalType": "address",
          "name": "_token",
          "type": "address"
        },
        {
          "internalType": "uint256",
          "name": "_amount",
          "type": "uint256"
        }
      ],
      "name": "withdrawFunds",
      "outputs": [],
      "stateMutability": "nonpayable",
      "type": "function"
    }
  ],
  "transactionHash": "0xbc5107b8e4808df909cd5648085ec45ea73ab26a6d899704b386223b0a7b1851",
  "args": [
    "0x01051113D81D7d6DA508462F2ad6d7fD96cF42Ef",
    0
  ],
  "numDeployments": 1,
  "solcInputHash": "8bbf75e674a7470c3c5715f3b28e416b",
  "bytecode": "0x60a06040523480156200001157600080fd5b5060405162002a9c38038062002a9c833981810160405281019062000037919062000212565b620000576200004b620000a160201b60201c565b620000a960201b60201c565b600180819055508173ffffffffffffffffffffffffffffffffffffffff1660808173ffffffffffffffffffffffffffffffffffffffff168152505080600281905550505062000259565b600033905090565b60008060009054906101000a900473ffffffffffffffffffffffffffffffffffffffff169050816000806101000a81548173ffffffffffffffffffffffffffffffffffffffff021916908373ffffffffffffffffffffffffffffffffffffffff1602179055508173ffffffffffffffffffffffffffffffffffffffff168173ffffffffffffffffffffffffffffffffffffffff167f8be0079c531659141344cd1fd0a4f28419497f9722a3daafe3b4186f6b6457e060405160405180910390a35050565b600080fd5b600073ffffffffffffffffffffffffffffffffffffffff82169050919050565b60006200019f8262000172565b9050919050565b620001b18162000192565b8114620001bd57600080fd5b50565b600081519050620001d181620001a6565b92915050565b6000819050919050565b620001ec81620001d7565b8114620001f857600080fd5b50565b6000815190506200020c81620001e1565b92915050565b600080604083850312156200022c576200022b6200016d565b5b60006200023c85828601620001c0565b92505060206200024f85828601620001fb565b9150509250929050565b6080516128206200027c600039600081816106f10152610a7f01526128206000f3fe6080604052600436106100dd5760003560e01c8063715018a61161007f578063b47064c811610059578063b47064c814610286578063c1461d57146102c3578063c63aa029146102df578063f2fde38b14610308576100dd565b8063715018a61461021b578063848f5f3d146102325780638da5cb5b1461025b576100dd565b8063573ea575116100bb578063573ea575146101735780635dfad06a1461019e5780636f192acc146101c9578063710e5d2f146101f2576100dd565b806301f59d16146100e25780631c20fadd1461010d5780632bf30a0e14610136575b600080fd5b3480156100ee57600080fd5b506100f7610331565b6040516101049190611aa4565b60405180910390f35b34801561011957600080fd5b50610134600480360381019061012f9190611b8c565b610337565b005b34801561014257600080fd5b5061015d60048036038101906101589190611bdf565b61058e565b60405161016a9190611cca565b60405180910390f35b34801561017f57600080fd5b506101886106ef565b6040516101959190611cfb565b60405180910390f35b3480156101aa57600080fd5b506101b3610713565b6040516101c09190611cca565b60405180910390f35b3480156101d557600080fd5b506101f060048036038101906101eb9190611d16565b6107f8565b005b3480156101fe57600080fd5b5061021960048036038101906102149190611d69565b610aaa565b005b34801561022757600080fd5b50610230610b30565b005b34801561023e57600080fd5b5061025960048036038101906102549190611bdf565b610bb8565b005b34801561026757600080fd5b50610270610c9f565b60405161027d9190611da5565b60405180910390f35b34801561029257600080fd5b506102ad60048036038101906102a89190611dc0565b610cc8565b6040516102ba9190611aa4565b60405180910390f35b6102dd60048036038101906102d89190611e00565b610ced565b005b3480156102eb57600080fd5b5061030660048036038101906103019190611bdf565b61108f565b005b34801561031457600080fd5b5061032f600480360381019061032a9190611bdf565b611177565b005b60025481565b60026001540361037c576040517f08c379a000000000000000000000000000000000000000000000000000000000815260040161037390611eb0565b60405180910390fd5b60026001819055506000600360003373ffffffffffffffffffffffffffffffffffffffff1673ffffffffffffffffffffffffffffffffffffffff16815260200190815260200160002060008473ffffffffffffffffffffffffffffffffffffffff1673ffffffffffffffffffffffffffffffffffffffff1681526020019081526020016000205490506000610411828461126e565b9050808261041f9190611eff565b600360003373ffffffffffffffffffffffffffffffffffffffff1673ffffffffffffffffffffffffffffffffffffffff16815260200190815260200160002060008673ffffffffffffffffffffffffffffffffffffffff1673ffffffffffffffffffffffffffffffffffffffff168152602001908152602001600020819055506104aa858583611287565b8181036105045761050284600460003373ffffffffffffffffffffffffffffffffffffffff1673ffffffffffffffffffffffffffffffffffffffff16815260200190815260200160002061139190919063ffffffff16565b505b8373ffffffffffffffffffffffffffffffffffffffff163373ffffffffffffffffffffffffffffffffffffffff168673ffffffffffffffffffffffffffffffffffffffff167fc322efa58c9cb2c39cfffdac61d35c8643f5cbf13c6a7d0034de2cf18923aff3846040516105789190611aa4565b60405180910390a4505060018081905550505050565b606060006105d9600460008573ffffffffffffffffffffffffffffffffffffffff1673ffffffffffffffffffffffffffffffffffffffff1681526020019081526020016000206113c1565b905060008167ffffffffffffffff8111156105f7576105f6611f33565b5b6040519080825280602002602001820160405280156106255781602001602082028036833780820191505090505b50905060005b828110156106e45761068481600460008873ffffffffffffffffffffffffffffffffffffffff1673ffffffffffffffffffffffffffffffffffffffff1681526020019081526020016000206113d690919063ffffffff16565b82828151811061069757610696611f62565b5b602002602001019073ffffffffffffffffffffffffffffffffffffffff16908173ffffffffffffffffffffffffffffffffffffffff168152505080806106dc90611f91565b91505061062b565b508092505050919050565b7f000000000000000000000000000000000000000000000000000000000000000081565b6060600061072160056113c1565b905060008167ffffffffffffffff81111561073f5761073e611f33565b5b60405190808252806020026020018201604052801561076d5781602001602082028036833780820191505090505b50905060005b828110156107ef5761078f8160056113d690919063ffffffff16565b8282815181106107a2576107a1611f62565b5b602002602001019073ffffffffffffffffffffffffffffffffffffffff16908173ffffffffffffffffffffffffffffffffffffffff168152505080806107e790611f91565b915050610773565b50809250505090565b61080c3360056113f090919063ffffffff16565b61084b576040517f08c379a00000000000000000000000000000000000000000000000000000000081526004016108429061204b565b60405180910390fd5b60006002541461089b5781600254101561089a576040517f08c379a0000000000000000000000000000000000000000000000000000000008152600401610891906120dd565b60405180910390fd5b5b81600360008373ffffffffffffffffffffffffffffffffffffffff1673ffffffffffffffffffffffffffffffffffffffff16815260200190815260200160002060008573ffffffffffffffffffffffffffffffffffffffff1673ffffffffffffffffffffffffffffffffffffffff168152602001908152602001600020546109239190611eff565b600360008373ffffffffffffffffffffffffffffffffffffffff1673ffffffffffffffffffffffffffffffffffffffff16815260200190815260200160002060008573ffffffffffffffffffffffffffffffffffffffff1673ffffffffffffffffffffffffffffffffffffffff168152602001908152602001600020819055506000600360008373ffffffffffffffffffffffffffffffffffffffff1673ffffffffffffffffffffffffffffffffffffffff16815260200190815260200160002060008573ffffffffffffffffffffffffffffffffffffffff1673ffffffffffffffffffffffffffffffffffffffff1681526020019081526020016000205403610a7a57610a7883600460008473ffffffffffffffffffffffffffffffffffffffff1673ffffffffffffffffffffffffffffffffffffffff16815260200190815260200160002061139190919063ffffffff16565b505b610aa57f00000000000000000000000000000000000000000000000000000000000000008484611287565b505050565b610ab2611420565b73ffffffffffffffffffffffffffffffffffffffff16610ad0610c9f565b73ffffffffffffffffffffffffffffffffffffffff1614610b26576040517f08c379a0000000000000000000000000000000000000000000000000000000008152600401610b1d90612149565b60405180910390fd5b8060028190555050565b610b38611420565b73ffffffffffffffffffffffffffffffffffffffff16610b56610c9f565b73ffffffffffffffffffffffffffffffffffffffff1614610bac576040517f08c379a0000000000000000000000000000000000000000000000000000000008152600401610ba390612149565b60405180910390fd5b610bb66000611428565b565b610bc0611420565b73ffffffffffffffffffffffffffffffffffffffff16610bde610c9f565b73ffffffffffffffffffffffffffffffffffffffff1614610c34576040517f08c379a0000000000000000000000000000000000000000000000000000000008152600401610c2b90612149565b60405180910390fd5b610c488160056113f090919063ffffffff16565b610c87576040517f08c379a0000000000000000000000000000000000000000000000000000000008152600401610c7e906121db565b60405180910390fd5b610c9b81600561139190919063ffffffff16565b5050565b60008060009054906101000a900473ffffffffffffffffffffffffffffffffffffffff16905090565b6003602052816000526040600020602052806000526040600020600091509150505481565b600073eeeeeeeeeeeeeeeeeeeeeeeeeeeeeeeeeeeeeeee73ffffffffffffffffffffffffffffffffffffffff168373ffffffffffffffffffffffffffffffffffffffff1603610d3e57349050610e7e565b600083905060008173ffffffffffffffffffffffffffffffffffffffff166370a08231306040518263ffffffff1660e01b8152600401610d7e9190611da5565b602060405180830381865afa158015610d9b573d6000803e3d6000fd5b505050506040513d601f19601f82011682018060405250810190610dbf9190612210565b9050610dee3330868573ffffffffffffffffffffffffffffffffffffffff166114ec909392919063ffffffff16565b60008273ffffffffffffffffffffffffffffffffffffffff166370a08231306040518263ffffffff1660e01b8152600401610e299190611da5565b602060405180830381865afa158015610e46573d6000803e3d6000fd5b505050506040513d601f19601f82011682018060405250810190610e6a9190612210565b90508181610e789190611eff565b93505050505b80600360008673ffffffffffffffffffffffffffffffffffffffff1673ffffffffffffffffffffffffffffffffffffffff16815260200190815260200160002060008573ffffffffffffffffffffffffffffffffffffffff1673ffffffffffffffffffffffffffffffffffffffff16815260200190815260200160002054610f06919061223d565b600360008673ffffffffffffffffffffffffffffffffffffffff1673ffffffffffffffffffffffffffffffffffffffff16815260200190815260200160002060008573ffffffffffffffffffffffffffffffffffffffff1673ffffffffffffffffffffffffffffffffffffffff16815260200190815260200160002081905550610fd783600460008773ffffffffffffffffffffffffffffffffffffffff1673ffffffffffffffffffffffffffffffffffffffff1681526020019081526020016000206113f090919063ffffffff16565b61102e5761102c83600460008773ffffffffffffffffffffffffffffffffffffffff1673ffffffffffffffffffffffffffffffffffffffff16815260200190815260200160002061157590919063ffffffff16565b505b808373ffffffffffffffffffffffffffffffffffffffff168573ffffffffffffffffffffffffffffffffffffffff167ff0d0e99cae184d0187b093b48894117462462379674a6e11d89c3fbb618e96b060405160405180910390a450505050565b611097611420565b73ffffffffffffffffffffffffffffffffffffffff166110b5610c9f565b73ffffffffffffffffffffffffffffffffffffffff161461110b576040517f08c379a000000000000000000000000000000000000000000000000000000000815260040161110290612149565b60405180910390fd5b61111f8160056113f090919063ffffffff16565b1561115f576040517f08c379a000000000000000000000000000000000000000000000000000000000815260040161115690612305565b60405180910390fd5b61117381600561157590919063ffffffff16565b5050565b61117f611420565b73ffffffffffffffffffffffffffffffffffffffff1661119d610c9f565b73ffffffffffffffffffffffffffffffffffffffff16146111f3576040517f08c379a00000000000000000000000000000000000000000000000000000000081526004016111ea90612149565b60405180910390fd5b600073ffffffffffffffffffffffffffffffffffffffff168173ffffffffffffffffffffffffffffffffffffffff1603611262576040517f08c379a000000000000000000000000000000000000000000000000000000000815260040161125990612397565b60405180910390fd5b61126b81611428565b50565b600081831061127d578161127f565b825b905092915050565b73eeeeeeeeeeeeeeeeeeeeeeeeeeeeeeeeeeeeeeee73ffffffffffffffffffffffffffffffffffffffff168273ffffffffffffffffffffffffffffffffffffffff16036113805760008373ffffffffffffffffffffffffffffffffffffffff16826040516112f4906123e8565b60006040518083038185875af1925050503d8060008114611331576040519150601f19603f3d011682016040523d82523d6000602084013e611336565b606091505b505090508061137a576040517f08c379a000000000000000000000000000000000000000000000000000000000815260040161137190612449565b60405180910390fd5b5061138c565b61138b8284836115a5565b5b505050565b60006113b9836000018373ffffffffffffffffffffffffffffffffffffffff1660001b61162b565b905092915050565b60006113cf8260000161173f565b9050919050565b60006113e58360000183611750565b60001c905092915050565b6000611418836000018373ffffffffffffffffffffffffffffffffffffffff1660001b61177b565b905092915050565b600033905090565b60008060009054906101000a900473ffffffffffffffffffffffffffffffffffffffff169050816000806101000a81548173ffffffffffffffffffffffffffffffffffffffff021916908373ffffffffffffffffffffffffffffffffffffffff1602179055508173ffffffffffffffffffffffffffffffffffffffff168173ffffffffffffffffffffffffffffffffffffffff167f8be0079c531659141344cd1fd0a4f28419497f9722a3daafe3b4186f6b6457e060405160405180910390a35050565b61156f846323b872dd60e01b85858560405160240161150d93929190612469565b604051602081830303815290604052907bffffffffffffffffffffffffffffffffffffffffffffffffffffffff19166020820180517bffffffffffffffffffffffffffffffffffffffffffffffffffffffff838183161783525050505061179e565b50505050565b600061159d836000018373ffffffffffffffffffffffffffffffffffffffff1660001b611865565b905092915050565b6116268363a9059cbb60e01b84846040516024016115c49291906124a0565b604051602081830303815290604052907bffffffffffffffffffffffffffffffffffffffffffffffffffffffff19166020820180517bffffffffffffffffffffffffffffffffffffffffffffffffffffffff838183161783525050505061179e565b505050565b6000808360010160008481526020019081526020016000205490506000811461173357600060018261165d9190611eff565b90506000600186600001805490506116759190611eff565b90508181146116e457600086600001828154811061169657611695611f62565b5b90600052602060002001549050808760000184815481106116ba576116b9611f62565b5b90600052602060002001819055508387600101600083815260200190815260200160002081905550505b856000018054806116f8576116f76124c9565b5b600190038181906000526020600020016000905590558560010160008681526020019081526020016000206000905560019350505050611739565b60009150505b92915050565b600081600001805490509050919050565b600082600001828154811061176857611767611f62565b5b9060005260206000200154905092915050565b600080836001016000848152602001908152602001600020541415905092915050565b6000611800826040518060400160405280602081526020017f5361666545524332303a206c6f772d6c6576656c2063616c6c206661696c65648152508573ffffffffffffffffffffffffffffffffffffffff166118d59092919063ffffffff16565b905060008151111561186057808060200190518101906118209190612530565b61185f576040517f08c379a0000000000000000000000000000000000000000000000000000000008152600401611856906125cf565b60405180910390fd5b5b505050565b6000611871838361177b565b6118ca5782600001829080600181540180825580915050600190039060005260206000200160009091909190915055826000018054905083600101600084815260200190815260200160002081905550600190506118cf565b600090505b92915050565b60606118e484846000856118ed565b90509392505050565b606082471015611932576040517f08c379a000000000000000000000000000000000000000000000000000000000815260040161192990612661565b60405180910390fd5b61193b85611a01565b61197a576040517f08c379a0000000000000000000000000000000000000000000000000000000008152600401611971906126cd565b60405180910390fd5b6000808673ffffffffffffffffffffffffffffffffffffffff1685876040516119a3919061275c565b60006040518083038185875af1925050503d80600081146119e0576040519150601f19603f3d011682016040523d82523d6000602084013e6119e5565b606091505b50915091506119f5828286611a24565b92505050949350505050565b6000808273ffffffffffffffffffffffffffffffffffffffff163b119050919050565b60608315611a3457829050611a84565b600083511115611a475782518084602001fd5b816040517f08c379a0000000000000000000000000000000000000000000000000000000008152600401611a7b91906127c8565b60405180910390fd5b9392505050565b6000819050919050565b611a9e81611a8b565b82525050565b6000602082019050611ab96000830184611a95565b92915050565b600080fd5b600073ffffffffffffffffffffffffffffffffffffffff82169050919050565b6000611aef82611ac4565b9050919050565b611aff81611ae4565b8114611b0a57600080fd5b50565b600081359050611b1c81611af6565b92915050565b6000611b2d82611ac4565b9050919050565b611b3d81611b22565b8114611b4857600080fd5b50565b600081359050611b5a81611b34565b92915050565b611b6981611a8b565b8114611b7457600080fd5b50565b600081359050611b8681611b60565b92915050565b600080600060608486031215611ba557611ba4611abf565b5b6000611bb386828701611b0d565b9350506020611bc486828701611b4b565b9250506040611bd586828701611b77565b9150509250925092565b600060208284031215611bf557611bf4611abf565b5b6000611c0384828501611b4b565b91505092915050565b600081519050919050565b600082825260208201905092915050565b6000819050602082019050919050565b611c4181611b22565b82525050565b6000611c538383611c38565b60208301905092915050565b6000602082019050919050565b6000611c7782611c0c565b611c818185611c17565b9350611c8c83611c28565b8060005b83811015611cbd578151611ca48882611c47565b9750611caf83611c5f565b925050600181019050611c90565b5085935050505092915050565b60006020820190508181036000830152611ce48184611c6c565b905092915050565b611cf581611ae4565b82525050565b6000602082019050611d106000830184611cec565b92915050565b600080600060608486031215611d2f57611d2e611abf565b5b6000611d3d86828701611b4b565b9350506020611d4e86828701611b77565b9250506040611d5f86828701611b4b565b9150509250925092565b600060208284031215611d7f57611d7e611abf565b5b6000611d8d84828501611b77565b91505092915050565b611d9f81611b22565b82525050565b6000602082019050611dba6000830184611d96565b92915050565b60008060408385031215611dd757611dd6611abf565b5b6000611de585828601611b4b565b9250506020611df685828601611b4b565b9150509250929050565b600080600060608486031215611e1957611e18611abf565b5b6000611e2786828701611b4b565b9350506020611e3886828701611b4b565b9250506040611e4986828701611b77565b9150509250925092565b600082825260208201905092915050565b7f5265656e7472616e637947756172643a207265656e7472616e742063616c6c00600082015250565b6000611e9a601f83611e53565b9150611ea582611e64565b602082019050919050565b60006020820190508181036000830152611ec981611e8d565b9050919050565b7f4e487b7100000000000000000000000000000000000000000000000000000000600052601160045260246000fd5b6000611f0a82611a8b565b9150611f1583611a8b565b925082821015611f2857611f27611ed0565b5b828203905092915050565b7f4e487b7100000000000000000000000000000000000000000000000000000000600052604160045260246000fd5b7f4e487b7100000000000000000000000000000000000000000000000000000000600052603260045260246000fd5b6000611f9c82611a8b565b91507fffffffffffffffffffffffffffffffffffffffffffffffffffffffffffffffff8203611fce57611fcd611ed0565b5b600182019050919050565b7f5461736b54726561737572793a206f6e6c7957686974656c697374656453657260008201527f7669636573000000000000000000000000000000000000000000000000000000602082015250565b6000612035602583611e53565b915061204082611fd9565b604082019050919050565b6000602082019050818103600083015261206481612028565b9050919050565b7f5461736b54726561737572793a2075736546756e64733a204f7665726368617260008201527f6564000000000000000000000000000000000000000000000000000000000000602082015250565b60006120c7602283611e53565b91506120d28261206b565b604082019050919050565b600060208201905081810360008301526120f6816120ba565b9050919050565b7f4f776e61626c653a2063616c6c6572206973206e6f7420746865206f776e6572600082015250565b6000612133602083611e53565b915061213e826120fd565b602082019050919050565b6000602082019050818103600083015261216281612126565b9050919050565b7f5461736b54726561737572793a2061646457686974656c69737465645365727660008201527f6963653a202177686974656c6973746564000000000000000000000000000000602082015250565b60006121c5603183611e53565b91506121d082612169565b604082019050919050565b600060208201905081810360008301526121f4816121b8565b9050919050565b60008151905061220a81611b60565b92915050565b60006020828403121561222657612225611abf565b5b6000612234848285016121fb565b91505092915050565b600061224882611a8b565b915061225383611a8b565b9250827fffffffffffffffffffffffffffffffffffffffffffffffffffffffffffffffff0382111561228857612287611ed0565b5b828201905092915050565b7f5461736b54726561737572793a2061646457686974656c69737465645365727660008201527f6963653a2077686974656c697374656400000000000000000000000000000000602082015250565b60006122ef603083611e53565b91506122fa82612293565b604082019050919050565b6000602082019050818103600083015261231e816122e2565b9050919050565b7f4f776e61626c653a206e6577206f776e657220697320746865207a65726f206160008201527f6464726573730000000000000000000000000000000000000000000000000000602082015250565b6000612381602683611e53565b915061238c82612325565b604082019050919050565b600060208201905081810360008301526123b081612374565b9050919050565b600081905092915050565b50565b60006123d26000836123b7565b91506123dd826123c2565b600082019050919050565b60006123f3826123c5565b9150819050919050565b7f5f7472616e736665723a20455448207472616e73666572206661696c65640000600082015250565b6000612433601e83611e53565b915061243e826123fd565b602082019050919050565b6000602082019050818103600083015261246281612426565b9050919050565b600060608201905061247e6000830186611d96565b61248b6020830185611d96565b6124986040830184611a95565b949350505050565b60006040820190506124b56000830185611d96565b6124c26020830184611a95565b9392505050565b7f4e487b7100000000000000000000000000000000000000000000000000000000600052603160045260246000fd5b60008115159050919050565b61250d816124f8565b811461251857600080fd5b50565b60008151905061252a81612504565b92915050565b60006020828403121561254657612545611abf565b5b60006125548482850161251b565b91505092915050565b7f5361666545524332303a204552433230206f7065726174696f6e20646964206e60008201527f6f74207375636365656400000000000000000000000000000000000000000000602082015250565b60006125b9602a83611e53565b91506125c48261255d565b604082019050919050565b600060208201905081810360008301526125e8816125ac565b9050919050565b7f416464726573733a20696e73756666696369656e742062616c616e636520666f60008201527f722063616c6c0000000000000000000000000000000000000000000000000000602082015250565b600061264b602683611e53565b9150612656826125ef565b604082019050919050565b6000602082019050818103600083015261267a8161263e565b9050919050565b7f416464726573733a2063616c6c20746f206e6f6e2d636f6e7472616374000000600082015250565b60006126b7601d83611e53565b91506126c282612681565b602082019050919050565b600060208201905081810360008301526126e6816126aa565b9050919050565b600081519050919050565b60005b838110156127165780820151818401526020810190506126fb565b83811115612725576000848401525b50505050565b6000612736826126ed565b61274081856123b7565b93506127508185602086016126f8565b80840191505092915050565b6000612768828461272b565b915081905092915050565b600081519050919050565b6000601f19601f8301169050919050565b600061279a82612773565b6127a48185611e53565b93506127b48185602086016126f8565b6127bd8161277e565b840191505092915050565b600060208201905081810360008301526127e2818461278f565b90509291505056fea26469706673582212205c9ddbc9392b8ce93654cac13bfe304e22d195aa6cbd68d0614f3fc1b5cf842e64736f6c634300080e0033",
  "devdoc": {
    "kind": "dev",
    "methods": {
      "addWhitelistedService(address)": {
        "params": {
          "_service": "New service to add"
        }
      },
      "depositFunds(address,address,uint256)": {
        "params": {
          "_amount": "Amount to be credited",
          "_receiver": "Address receiving the credits",
          "_token": "Token to be credited, use \"0xeeee....\" for ETH"
        }
      },
      "getCreditTokensByUser(address)": {
        "params": {
          "_user": "User to get the balances from"
        }
      },
      "owner()": {
        "details": "Returns the address of the current owner."
      },
      "removeWhitelistedService(address)": {
        "params": {
          "_service": "Old service to remove"
        }
      },
      "renounceOwnership()": {
        "details": "Leaves the contract without owner. It will not be possible to call `onlyOwner` functions anymore. Can only be called by the current owner. NOTE: Renouncing ownership will leave the contract without an owner, thereby removing any functionality that is only available to the owner."
      },
      "setMaxFee(uint256)": {
        "params": {
          "_newMaxFee": "New Max Fee to charge"
        }
      },
      "transferOwnership(address)": {
        "details": "Transfers ownership of the contract to a new account (`newOwner`). Can only be called by the current owner."
      },
      "useFunds(address,uint256,address)": {
        "params": {
          "_amount": "Amount to be deducted",
          "_token": "Token to be used for payment by users",
          "_user": "Address of user whose balance will be deducted"
        }
      },
      "withdrawFunds(address,address,uint256)": {
        "params": {
          "_amount": "Amount to be credited",
          "_receiver": "Address receiving the credits",
          "_token": "Token to be credited, use \"0xeeee....\" for ETH"
        }
      }
    },
    "version": 1
  },
  "userdoc": {
    "kind": "user",
    "methods": {
      "addWhitelistedService(address)": {
        "notice": "Add new service that can call useFunds. Gelato Governance"
      },
      "depositFunds(address,address,uint256)": {
        "notice": "Function to deposit Funds which will be used to execute transactions on various services"
      },
      "getCreditTokensByUser(address)": {
        "notice": "Helper func to get all deposited tokens by a user"
      },
      "removeWhitelistedService(address)": {
        "notice": "Remove old service that can call useFunds. Gelato Governance"
      },
      "setMaxFee(uint256)": {
        "notice": "Change maxFee charged by Gelato (only relevant on Layer2s)"
      },
      "useFunds(address,uint256,address)": {
        "notice": "Function called by whitelisted services to handle payments, e.g. Ops\""
      },
      "withdrawFunds(address,address,uint256)": {
        "notice": "Function to withdraw Funds back to the _receiver"
      }
    },
    "version": 1
  },
  "storageLayout": {
    "storage": [
      {
        "astId": 384,
        "contract": "contracts/taskTreasury/TaskTreasuryL2.sol:TaskTreasuryL2",
        "label": "_owner",
        "offset": 0,
        "slot": "0",
        "type": "t_address"
      },
      {
        "astId": 492,
        "contract": "contracts/taskTreasury/TaskTreasuryL2.sol:TaskTreasuryL2",
        "label": "_status",
        "offset": 0,
        "slot": "1",
        "type": "t_uint256"
      },
      {
        "astId": 8573,
        "contract": "contracts/taskTreasury/TaskTreasuryL2.sol:TaskTreasuryL2",
        "label": "maxFee",
        "offset": 0,
        "slot": "2",
        "type": "t_uint256"
      },
      {
        "astId": 8579,
        "contract": "contracts/taskTreasury/TaskTreasuryL2.sol:TaskTreasuryL2",
        "label": "userTokenBalance",
        "offset": 0,
        "slot": "3",
        "type": "t_mapping(t_address,t_mapping(t_address,t_uint256))"
      },
      {
        "astId": 8584,
        "contract": "contracts/taskTreasury/TaskTreasuryL2.sol:TaskTreasuryL2",
        "label": "_tokenCredits",
        "offset": 0,
        "slot": "4",
        "type": "t_mapping(t_address,t_struct(AddressSet)1540_storage)"
      },
      {
        "astId": 8587,
        "contract": "contracts/taskTreasury/TaskTreasuryL2.sol:TaskTreasuryL2",
        "label": "_whitelistedServices",
        "offset": 0,
        "slot": "5",
        "type": "t_struct(AddressSet)1540_storage"
      }
    ],
    "types": {
      "t_address": {
        "encoding": "inplace",
        "label": "address",
        "numberOfBytes": "20"
      },
      "t_array(t_bytes32)dyn_storage": {
        "base": "t_bytes32",
        "encoding": "dynamic_array",
        "label": "bytes32[]",
        "numberOfBytes": "32"
      },
      "t_bytes32": {
        "encoding": "inplace",
        "label": "bytes32",
        "numberOfBytes": "32"
      },
      "t_mapping(t_address,t_mapping(t_address,t_uint256))": {
        "encoding": "mapping",
        "key": "t_address",
        "label": "mapping(address => mapping(address => uint256))",
        "numberOfBytes": "32",
        "value": "t_mapping(t_address,t_uint256)"
      },
      "t_mapping(t_address,t_struct(AddressSet)1540_storage)": {
        "encoding": "mapping",
        "key": "t_address",
        "label": "mapping(address => struct EnumerableSet.AddressSet)",
        "numberOfBytes": "32",
        "value": "t_struct(AddressSet)1540_storage"
      },
      "t_mapping(t_address,t_uint256)": {
        "encoding": "mapping",
        "key": "t_address",
        "label": "mapping(address => uint256)",
        "numberOfBytes": "32",
        "value": "t_uint256"
      },
      "t_mapping(t_bytes32,t_uint256)": {
        "encoding": "mapping",
        "key": "t_bytes32",
        "label": "mapping(bytes32 => uint256)",
        "numberOfBytes": "32",
        "value": "t_uint256"
      },
      "t_struct(AddressSet)1540_storage": {
        "encoding": "inplace",
        "label": "struct EnumerableSet.AddressSet",
        "members": [
          {
            "astId": 1539,
            "contract": "contracts/taskTreasury/TaskTreasuryL2.sol:TaskTreasuryL2",
            "label": "_inner",
            "offset": 0,
            "slot": "0",
            "type": "t_struct(Set)1239_storage"
          }
        ],
        "numberOfBytes": "64"
      },
      "t_struct(Set)1239_storage": {
        "encoding": "inplace",
        "label": "struct EnumerableSet.Set",
        "members": [
          {
            "astId": 1234,
            "contract": "contracts/taskTreasury/TaskTreasuryL2.sol:TaskTreasuryL2",
            "label": "_values",
            "offset": 0,
            "slot": "0",
            "type": "t_array(t_bytes32)dyn_storage"
          },
          {
            "astId": 1238,
            "contract": "contracts/taskTreasury/TaskTreasuryL2.sol:TaskTreasuryL2",
            "label": "_indexes",
            "offset": 0,
            "slot": "1",
            "type": "t_mapping(t_bytes32,t_uint256)"
          }
        ],
        "numberOfBytes": "64"
      },
      "t_uint256": {
        "encoding": "inplace",
        "label": "uint256",
        "numberOfBytes": "32"
      }
    }
  }
}