{
  "address": "0x527a819db1eb0e34426297b03bae11F2f8B3A19E",
  "abi": [
    {
      "inputs": [
        {
          "internalType": "contract ITaskTreasury",
          "name": "_oldTreasury",
          "type": "address"
        }
      ],
      "stateMutability": "nonpayable",
      "type": "constructor"
    },
    {
      "anonymous": false,
      "inputs": [
        {
          "indexed": true,
          "internalType": "address",
          "name": "sender",
          "type": "address"
        },
        {
          "indexed": true,
          "internalType": "address",
          "name": "token",
          "type": "address"
        },
        {
          "indexed": true,
          "internalType": "uint256",
          "name": "amount",
          "type": "uint256"
        }
      ],
      "name": "FundsDeposited",
      "type": "event"
    },
    {
      "anonymous": false,
      "inputs": [
        {
          "indexed": true,
          "internalType": "address",
          "name": "receiver",
          "type": "address"
        },
        {
          "indexed": true,
          "internalType": "address",
          "name": "initiator",
          "type": "address"
        },
        {
          "indexed": true,
          "internalType": "address",
          "name": "token",
          "type": "address"
        },
        {
          "indexed": false,
          "internalType": "uint256",
          "name": "amount",
          "type": "uint256"
        }
      ],
      "name": "FundsWithdrawn",
      "type": "event"
    },
    {
      "anonymous": false,
      "inputs": [
        {
          "indexed": true,
          "internalType": "address",
          "name": "user",
          "type": "address"
        },
        {
          "indexed": true,
          "internalType": "address",
          "name": "executor",
          "type": "address"
        },
        {
          "indexed": true,
          "internalType": "address",
          "name": "token",
          "type": "address"
        },
        {
          "indexed": false,
          "internalType": "uint256",
          "name": "fees",
          "type": "uint256"
        },
        {
          "indexed": false,
          "internalType": "address",
          "name": "service",
          "type": "address"
        }
      ],
      "name": "LogDeductFees",
      "type": "event"
    },
    {
      "anonymous": false,
      "inputs": [
        {
          "indexed": true,
          "internalType": "uint256",
          "name": "maxFee",
          "type": "uint256"
        }
      ],
      "name": "UpdatedMaxFee",
      "type": "event"
    },
    {
      "anonymous": false,
      "inputs": [
        {
          "indexed": true,
          "internalType": "address",
          "name": "service",
          "type": "address"
        },
        {
          "indexed": false,
          "internalType": "bool",
          "name": "add",
          "type": "bool"
        }
      ],
      "name": "UpdatedService",
      "type": "event"
    },
    {
      "inputs": [],
      "name": "MIN_SHARES_IN_TREASURY",
      "outputs": [
        {
          "internalType": "uint256",
          "name": "",
          "type": "uint256"
        }
      ],
      "stateMutability": "view",
      "type": "function"
    },
    {
      "inputs": [
        {
          "internalType": "address",
          "name": "_receiver",
          "type": "address"
        },
        {
          "internalType": "address",
          "name": "_token",
          "type": "address"
        },
        {
          "internalType": "uint256",
          "name": "_amount",
          "type": "uint256"
        }
      ],
      "name": "depositFunds",
      "outputs": [],
      "stateMutability": "payable",
      "type": "function"
    },
    {
      "inputs": [
        {
          "internalType": "address",
          "name": "_user",
          "type": "address"
        }
      ],
      "name": "getCreditTokensByUser",
      "outputs": [
        {
          "internalType": "address[]",
          "name": "",
          "type": "address[]"
        }
      ],
      "stateMutability": "view",
      "type": "function"
    },
    {
      "inputs": [
        {
          "internalType": "address",
          "name": "_user",
          "type": "address"
        }
      ],
      "name": "getTotalCreditTokensByUser",
      "outputs": [
        {
          "internalType": "address[]",
          "name": "",
          "type": "address[]"
        }
      ],
      "stateMutability": "view",
      "type": "function"
    },
    {
      "inputs": [],
      "name": "getWhitelistedServices",
      "outputs": [
        {
          "internalType": "address[]",
          "name": "",
          "type": "address[]"
        }
      ],
      "stateMutability": "view",
      "type": "function"
    },
    {
      "inputs": [
        {
          "internalType": "uint256",
          "name": "_maxFee",
          "type": "uint256"
        }
      ],
      "name": "initialize",
      "outputs": [],
      "stateMutability": "nonpayable",
      "type": "function"
    },
    {
      "inputs": [],
      "name": "maxFee",
      "outputs": [
        {
          "internalType": "uint256",
          "name": "",
          "type": "uint256"
        }
      ],
      "stateMutability": "view",
      "type": "function"
    },
    {
      "inputs": [],
      "name": "oldTreasury",
      "outputs": [
        {
          "internalType": "contract ITaskTreasury",
          "name": "",
          "type": "address"
        }
      ],
      "stateMutability": "view",
      "type": "function"
    },
    {
      "inputs": [
        {
          "internalType": "address",
          "name": "",
          "type": "address"
        },
        {
          "internalType": "address",
          "name": "",
          "type": "address"
        }
      ],
      "name": "shares",
      "outputs": [
        {
          "internalType": "uint256",
          "name": "",
          "type": "uint256"
        }
      ],
      "stateMutability": "view",
      "type": "function"
    },
    {
      "inputs": [
        {
          "internalType": "address",
          "name": "",
          "type": "address"
        }
      ],
      "name": "totalShares",
      "outputs": [
        {
          "internalType": "uint256",
          "name": "",
          "type": "uint256"
        }
      ],
      "stateMutability": "view",
      "type": "function"
    },
    {
      "inputs": [
        {
          "internalType": "address",
          "name": "_user",
          "type": "address"
        },
        {
          "internalType": "address",
          "name": "_token",
          "type": "address"
        }
      ],
      "name": "totalUserTokenBalance",
      "outputs": [
        {
          "internalType": "uint256",
          "name": "",
          "type": "uint256"
        }
      ],
      "stateMutability": "view",
      "type": "function"
    },
    {
      "inputs": [
        {
          "internalType": "uint256",
          "name": "_newMaxFee",
          "type": "uint256"
        }
      ],
      "name": "updateMaxFee",
      "outputs": [],
      "stateMutability": "nonpayable",
      "type": "function"
    },
    {
      "inputs": [
        {
          "internalType": "address",
          "name": "_service",
          "type": "address"
        },
        {
          "internalType": "bool",
          "name": "_add",
          "type": "bool"
        }
      ],
      "name": "updateWhitelistedService",
      "outputs": [],
      "stateMutability": "nonpayable",
      "type": "function"
    },
    {
      "inputs": [
        {
          "internalType": "address",
          "name": "_user",
          "type": "address"
        },
        {
          "internalType": "address",
          "name": "_token",
          "type": "address"
        },
        {
          "internalType": "uint256",
          "name": "_amount",
          "type": "uint256"
        }
      ],
      "name": "useFunds",
      "outputs": [],
      "stateMutability": "nonpayable",
      "type": "function"
    },
    {
      "inputs": [
        {
          "internalType": "address",
          "name": "_user",
          "type": "address"
        },
        {
          "internalType": "address",
          "name": "_token",
          "type": "address"
        }
      ],
      "name": "userTokenBalance",
      "outputs": [
        {
          "internalType": "uint256",
          "name": "",
          "type": "uint256"
        }
      ],
      "stateMutability": "view",
      "type": "function"
    },
    {
      "inputs": [
        {
          "internalType": "address payable",
          "name": "_receiver",
          "type": "address"
        },
        {
          "internalType": "address",
          "name": "_token",
          "type": "address"
        },
        {
          "internalType": "uint256",
          "name": "_amount",
          "type": "uint256"
        }
      ],
      "name": "withdrawFunds",
      "outputs": [],
      "stateMutability": "nonpayable",
      "type": "function"
    },
    {
      "stateMutability": "payable",
      "type": "receive"
    }
  ],
  "transactionHash": "0x65e8e8221e4225d1d803bc3210d26dcb312d72dcabe6503652dbd10623ca2c23",
  "args": [
    "0x95f4538C3950CE0EF5821f2049aE2aC5cCade68D"
  ],
  "numDeployments": 1,
  "solcInputHash": "46e05d039a6f051c260568df03bedd4f",
  "bytecode": "0x60a06040523480156200001157600080fd5b5060405162003c2238038062003c228339818101604052810190620000379190620000f0565b8073ffffffffffffffffffffffffffffffffffffffff1660808173ffffffffffffffffffffffffffffffffffffffff16815250505062000122565b600080fd5b600073ffffffffffffffffffffffffffffffffffffffff82169050919050565b6000620000a48262000077565b9050919050565b6000620000b88262000097565b9050919050565b620000ca81620000ab565b8114620000d657600080fd5b50565b600081519050620000ea81620000bf565b92915050565b60006020828403121562000109576200010862000072565b5b60006200011984828501620000d9565b91505092915050565b608051613ac16200016160003960008181610aa201528181610b4701528181610be401528181610d5e0152818161117601526111ab0152613ac16000f3fe6080604052600436106100f75760003560e01c8063a3f1233e1161008a578063c1461d5711610059578063c1461d5714610378578063cf0ef51614610394578063d147adb9146103bf578063fe4b84df146103fc5761011d565b8063a3f1233e14610298578063b0da8d0b146102c1578063b47064c8146102fe578063bf6b874e1461033b5761011d565b80632bf30a0e116100c65780632bf30a0e146101ca578063550dddeb146102075780635dfad06a146102305780637df446471461025b5761011d565b806301f59d161461012257806303c845961461014d5780630a9b1803146101785780631c20fadd146101a15761011d565b3661011d5761011b3373eeeeeeeeeeeeeeeeeeeeeeeeeeeeeeeeeeeeeeee34610425565b005b600080fd5b34801561012e57600080fd5b506101376106d2565b604051610144919061260f565b60405180910390f35b34801561015957600080fd5b506101626106d8565b60405161016f919061260f565b60405180910390f35b34801561018457600080fd5b5061019f600480360381019061019a91906126d4565b6106e1565b005b3480156101ad57600080fd5b506101c860048036038101906101c3919061277e565b6107de565b005b3480156101d657600080fd5b506101f160048036038101906101ec91906127d1565b6108c9565b6040516101fe91906128bc565b60405180910390f35b34801561021357600080fd5b5061022e600480360381019061022991906128de565b610919565b005b34801561023c57600080fd5b506102456109c5565b60405161025291906128bc565b60405180910390f35b34801561026757600080fd5b50610282600480360381019061027d919061290b565b6109d6565b60405161028f919061260f565b60405180910390f35b3480156102a457600080fd5b506102bf60048036038101906102ba919061294b565b6109fb565b005b3480156102cd57600080fd5b506102e860048036038101906102e391906127d1565b610d0d565b6040516102f591906128bc565b60405180910390f35b34801561030a57600080fd5b506103256004803603810190610320919061290b565b61107f565b604051610332919061260f565b60405180910390f35b34801561034757600080fd5b50610362600480360381019061035d91906127d1565b61115c565b60405161036f919061260f565b60405180910390f35b610392600480360381019061038d919061294b565b610425565b005b3480156103a057600080fd5b506103a9611174565b6040516103b691906129fd565b60405180910390f35b3480156103cb57600080fd5b506103e660048036038101906103e1919061290b565b611198565b6040516103f3919061260f565b60405180910390f35b34801561040857600080fd5b50610423600480360381019061041e91906128de565b611263565b005b60026001540361046a576040517f08c379a000000000000000000000000000000000000000000000000000000000815260040161046190612a75565b60405180910390fd5b600260018190555060008073eeeeeeeeeeeeeeeeeeeeeeeeeeeeeeeeeeeeeeee73ffffffffffffffffffffffffffffffffffffffff168473ffffffffffffffffffffffffffffffffffffffff16036104c457349150610647565b60003414610507576040517f08c379a00000000000000000000000000000000000000000000000000000000081526004016104fe90612ae1565b60405180910390fd5b600084905060008173ffffffffffffffffffffffffffffffffffffffff166370a08231306040518263ffffffff1660e01b81526004016105479190612b10565b602060405180830381865afa158015610564573d6000803e3d6000fd5b505050506040513d601f19601f820116820180604052508101906105889190612b40565b90506105b73330878573ffffffffffffffffffffffffffffffffffffffff16611357909392919063ffffffff16565b60008273ffffffffffffffffffffffffffffffffffffffff166370a08231306040518263ffffffff1660e01b81526004016105f29190612b10565b602060405180830381865afa15801561060f573d6000803e3d6000fd5b505050506040513d601f19601f820116820180604052508101906106339190612b40565b905081816106419190612b9c565b94505050505b81610651856113e0565b61065b9190612b9c565b9050610669858584846114b3565b818473ffffffffffffffffffffffffffffffffffffffff168673ffffffffffffffffffffffffffffffffffffffff167ff0d0e99cae184d0187b093b48894117462462379674a6e11d89c3fbb618e96b060405160405180910390a4505060018081905550505050565b60335481565b64e8d4a5100081565b6106e96116d7565b73ffffffffffffffffffffffffffffffffffffffff163373ffffffffffffffffffffffffffffffffffffffff1614610756576040517f08c379a000000000000000000000000000000000000000000000000000000000815260040161074d90612c1c565b60405180910390fd5b80156107765761077082603761170090919063ffffffff16565b5061078c565b61078a82603761173090919063ffffffff16565b505b8173ffffffffffffffffffffffffffffffffffffffff167f112acfcc345761cf642cf6d7086cc68572679c383746552dcf2f71b26623c158826040516107d29190612c4b565b60405180910390a25050565b600260015403610823576040517f08c379a000000000000000000000000000000000000000000000000000000000815260040161081a90612a75565b60405180910390fd5b6002600181905550610836338383611760565b6108418383836119d3565b8173ffffffffffffffffffffffffffffffffffffffff163373ffffffffffffffffffffffffffffffffffffffff168473ffffffffffffffffffffffffffffffffffffffff167fc322efa58c9cb2c39cfffdac61d35c8643f5cbf13c6a7d0034de2cf18923aff3846040516108b5919061260f565b60405180910390a460018081905550505050565b6060610912603660008473ffffffffffffffffffffffffffffffffffffffff1673ffffffffffffffffffffffffffffffffffffffff168152602001908152602001600020611add565b9050919050565b6109216116d7565b73ffffffffffffffffffffffffffffffffffffffff163373ffffffffffffffffffffffffffffffffffffffff161461098e576040517f08c379a000000000000000000000000000000000000000000000000000000000815260040161098590612c1c565b60405180910390fd5b80603381905550807fd4710696fc3761c070b614c80e5020d726828d5f75aa8a6b8287c4194dfe6da260405160405180910390a250565b60606109d16037611add565b905090565b6034602052816000526040600020602052806000526040600020600091509150505481565b610a0f336037611afe90919063ffffffff16565b610a4e576040517f08c379a0000000000000000000000000000000000000000000000000000000008152600401610a4590612cd8565b60405180910390fd5b600060335414610a9e57806033541015610a9d576040517f08c379a0000000000000000000000000000000000000000000000000000000008152600401610a9490612d44565b60405180910390fd5b5b60007f000000000000000000000000000000000000000000000000000000000000000073ffffffffffffffffffffffffffffffffffffffff1663b47064c885856040518363ffffffff1660e01b8152600401610afb929190612d64565b602060405180830381865afa158015610b18573d6000803e3d6000fd5b505050506040513d601f19601f82011682018060405250810190610b3c9190612b40565b9050808211610bd9577f000000000000000000000000000000000000000000000000000000000000000073ffffffffffffffffffffffffffffffffffffffff16636f192acc8484876040518463ffffffff1660e01b8152600401610ba293929190612d8d565b600060405180830381600087803b158015610bbc57600080fd5b505af1158015610bd0573d6000803e3d6000fd5b50505050610c89565b6000811115610c72577f000000000000000000000000000000000000000000000000000000000000000073ffffffffffffffffffffffffffffffffffffffff16636f192acc8483876040518463ffffffff1660e01b8152600401610c3f93929190612d8d565b600060405180830381600087803b158015610c5957600080fd5b505af1158015610c6d573d6000803e3d6000fd5b505050505b610c8884848385610c839190612b9c565b611b2e565b5b8273ffffffffffffffffffffffffffffffffffffffff163273ffffffffffffffffffffffffffffffffffffffff168573ffffffffffffffffffffffffffffffffffffffff167fe06da4bed68570a3adccb02d0aed523ccc1dd372f85808168917d1c4a7e78acb8533604051610cff929190612dc4565b60405180910390a450505050565b60606000610d58603660008573ffffffffffffffffffffffffffffffffffffffff1673ffffffffffffffffffffffffffffffffffffffff168152602001908152602001600020611add565b905060007f000000000000000000000000000000000000000000000000000000000000000073ffffffffffffffffffffffffffffffffffffffff16632bf30a0e856040518263ffffffff1660e01b8152600401610db59190612b10565b600060405180830381865afa158015610dd2573d6000803e3d6000fd5b505050506040513d6000823e3d601f19601f82011682018060405250810190610dfb9190612f5b565b90506000805b8251811015610f0357610e75838281518110610e2057610e1f612fa4565b5b6020026020010151603660008973ffffffffffffffffffffffffffffffffffffffff1673ffffffffffffffffffffffffffffffffffffffff168152602001908152602001600020611afe90919063ffffffff16565b610ef057828181518110610e8c57610e8b612fa4565b5b6020026020010151838381518110610ea757610ea6612fa4565b5b602002602001019073ffffffffffffffffffffffffffffffffffffffff16908173ffffffffffffffffffffffffffffffffffffffff16815250508180610eec90612fd3565b9250505b8080610efb90612fd3565b915050610e01565b506000818451610f13919061301b565b905060008167ffffffffffffffff811115610f3157610f30612e03565b5b604051908082528060200260200182016040528015610f5f5781602001602082028036833780820191505090505b50905060005b82811015611071578551811015610fe357858181518110610f8957610f88612fa4565b5b6020026020010151828281518110610fa457610fa3612fa4565b5b602002602001019073ffffffffffffffffffffffffffffffffffffffff16908173ffffffffffffffffffffffffffffffffffffffff168152505061105e565b6000865182610ff29190612b9c565b905085818151811061100757611006612fa4565b5b602002602001015183838151811061102257611021612fa4565b5b602002602001019073ffffffffffffffffffffffffffffffffffffffff16908173ffffffffffffffffffffffffffffffffffffffff1681525050505b808061106990612fd3565b915050610f65565b508095505050505050919050565b60008061108b836113e0565b9050611153603460008673ffffffffffffffffffffffffffffffffffffffff1673ffffffffffffffffffffffffffffffffffffffff16815260200190815260200160002060008573ffffffffffffffffffffffffffffffffffffffff1673ffffffffffffffffffffffffffffffffffffffff16815260200190815260200160002054603560008673ffffffffffffffffffffffffffffffffffffffff1673ffffffffffffffffffffffffffffffffffffffff1681526020019081526020016000205483611df1565b91505092915050565b60356020528060005260406000206000915090505481565b7f000000000000000000000000000000000000000000000000000000000000000081565b6000806111a5848461107f565b905060007f000000000000000000000000000000000000000000000000000000000000000073ffffffffffffffffffffffffffffffffffffffff1663b47064c886866040518363ffffffff1660e01b8152600401611204929190612d64565b602060405180830381865afa158015611221573d6000803e3d6000fd5b505050506040513d601f19601f820116820180604052508101906112459190612b40565b905060008183611255919061301b565b905080935050505092915050565b600060019054906101000a900460ff1661128b5760008054906101000a900460ff1615611294565b611293611e36565b5b6112d3576040517f08c379a00000000000000000000000000000000000000000000000000000000081526004016112ca906130e3565b60405180910390fd5b60008060019054906101000a900460ff161590508015611323576001600060016101000a81548160ff02191690831515021790555060016000806101000a81548160ff0219169083151502179055505b81603381905550611332611e47565b80156113535760008060016101000a81548160ff0219169083151502179055505b5050565b6113da846323b872dd60e01b85858560405160240161137893929190613103565b604051602081830303815290604052907bffffffffffffffffffffffffffffffffffffffffffffffffffffffff19166020820180517bffffffffffffffffffffffffffffffffffffffffffffffffffffffff8381831617835250505050611ea0565b50505050565b600073eeeeeeeeeeeeeeeeeeeeeeeeeeeeeeeeeeeeeeee73ffffffffffffffffffffffffffffffffffffffff168273ffffffffffffffffffffffffffffffffffffffff1603611431574790506114ae565b8173ffffffffffffffffffffffffffffffffffffffff166370a08231306040518263ffffffff1660e01b815260040161146a9190612b10565b602060405180830381865afa158015611487573d6000803e3d6000fd5b505050506040513d601f19601f820116820180604052508101906114ab9190612b40565b90505b919050565b6000603560008573ffffffffffffffffffffffffffffffffffffffff1673ffffffffffffffffffffffffffffffffffffffff168152602001908152602001600020549050600061150585858486611f67565b9050600082036115585764e8d4a51000811015611557576040517f08c379a000000000000000000000000000000000000000000000000000000000815260040161154e906131ac565b60405180910390fd5b5b6000811161159b576040517f08c379a00000000000000000000000000000000000000000000000000000000081526004016115929061323e565b60405180910390fd5b80603460008873ffffffffffffffffffffffffffffffffffffffff1673ffffffffffffffffffffffffffffffffffffffff16815260200190815260200160002060008773ffffffffffffffffffffffffffffffffffffffff1673ffffffffffffffffffffffffffffffffffffffff1681526020019081526020016000206000828254611627919061301b565b92505081905550808261163a919061301b565b603560008773ffffffffffffffffffffffffffffffffffffffff1673ffffffffffffffffffffffffffffffffffffffff168152602001908152602001600020819055506116ce85603660008973ffffffffffffffffffffffffffffffffffffffff1673ffffffffffffffffffffffffffffffffffffffff16815260200190815260200160002061170090919063ffffffff16565b50505050505050565b60007fb53127684a568b3173ae13b9f8a6016e243e63b6e8ee1178d6a717850b5d610354905090565b6000611728836000018373ffffffffffffffffffffffffffffffffffffffff1660001b611fc8565b905092915050565b6000611758836000018373ffffffffffffffffffffffffffffffffffffffff1660001b612038565b905092915050565b600061176b836113e0565b90506000603560008573ffffffffffffffffffffffffffffffffffffffff1673ffffffffffffffffffffffffffffffffffffffff16815260200190815260200160002054905060006117bf85858486611f67565b905064e8d4a5100081836117d39190612b9c565b1015611814576040517f08c379a000000000000000000000000000000000000000000000000000000000815260040161180b906132d0565b60405180910390fd5b6000603460008873ffffffffffffffffffffffffffffffffffffffff1673ffffffffffffffffffffffffffffffffffffffff16815260200190815260200160002060008773ffffffffffffffffffffffffffffffffffffffff1673ffffffffffffffffffffffffffffffffffffffff16815260200190815260200160002054905081816118a19190612b9c565b603460008973ffffffffffffffffffffffffffffffffffffffff1673ffffffffffffffffffffffffffffffffffffffff16815260200190815260200160002060008873ffffffffffffffffffffffffffffffffffffffff1673ffffffffffffffffffffffffffffffffffffffff16815260200190815260200160002081905550818361192d9190612b9c565b603560008873ffffffffffffffffffffffffffffffffffffffff1673ffffffffffffffffffffffffffffffffffffffff168152602001908152602001600020819055508181036119ca576119c886603660008a73ffffffffffffffffffffffffffffffffffffffff1673ffffffffffffffffffffffffffffffffffffffff16815260200190815260200160002061173090919063ffffffff16565b505b50505050505050565b73eeeeeeeeeeeeeeeeeeeeeeeeeeeeeeeeeeeeeeee73ffffffffffffffffffffffffffffffffffffffff168273ffffffffffffffffffffffffffffffffffffffff1603611acc5760008373ffffffffffffffffffffffffffffffffffffffff1682604051611a4090613321565b60006040518083038185875af1925050503d8060008114611a7d576040519150601f19603f3d011682016040523d82523d6000602084013e611a82565b606091505b5050905080611ac6576040517f08c379a0000000000000000000000000000000000000000000000000000000008152600401611abd90613382565b60405180910390fd5b50611ad8565b611ad782848361214c565b5b505050565b60606000611aed836000016121d2565b905060608190508092505050919050565b6000611b26836000018373ffffffffffffffffffffffffffffffffffffffff1660001b61222e565b905092915050565b6000611b386116d7565b90508073ffffffffffffffffffffffffffffffffffffffff168473ffffffffffffffffffffffffffffffffffffffff1603611ba8576040517f08c379a0000000000000000000000000000000000000000000000000000000008152600401611b9f906133ee565b60405180910390fd5b6000611bb3846113e0565b90506000611c028585603560008973ffffffffffffffffffffffffffffffffffffffff1673ffffffffffffffffffffffffffffffffffffffff1681526020019081526020016000205485611f67565b905080603460008873ffffffffffffffffffffffffffffffffffffffff1673ffffffffffffffffffffffffffffffffffffffff16815260200190815260200160002060008773ffffffffffffffffffffffffffffffffffffffff1673ffffffffffffffffffffffffffffffffffffffff168152602001908152602001600020541015611cc3576040517f08c379a0000000000000000000000000000000000000000000000000000000008152600401611cba9061345a565b60405180910390fd5b80603460008873ffffffffffffffffffffffffffffffffffffffff1673ffffffffffffffffffffffffffffffffffffffff16815260200190815260200160002060008773ffffffffffffffffffffffffffffffffffffffff1673ffffffffffffffffffffffffffffffffffffffff1681526020019081526020016000206000828254611d4f9190612b9c565b9250508190555080603460008573ffffffffffffffffffffffffffffffffffffffff1673ffffffffffffffffffffffffffffffffffffffff16815260200190815260200160002060008773ffffffffffffffffffffffffffffffffffffffff1673ffffffffffffffffffffffffffffffffffffffff1681526020019081526020016000206000828254611de2919061301b565b92505081905550505050505050565b6000806000841480611e035750600083145b15611e115760009050611e2b565b838386611e1e919061347a565b611e289190613503565b90505b809150509392505050565b6000611e4130612251565b15905090565b600060019054906101000a900460ff16611e96576040517f08c379a0000000000000000000000000000000000000000000000000000000008152600401611e8d906135a6565b60405180910390fd5b611e9e612264565b565b6000611f02826040518060400160405280602081526020017f5361666545524332303a206c6f772d6c6576656c2063616c6c206661696c65648152508573ffffffffffffffffffffffffffffffffffffffff166122bc9092919063ffffffff16565b9050600081511115611f625780806020019051810190611f2291906135db565b611f61576040517f08c379a0000000000000000000000000000000000000000000000000000000008152600401611f589061367a565b60405180910390fd5b5b505050565b6000806000611f7687876122d4565b90506000611f8488866122d4565b90506000861480611f955750600085145b15611fa257819250611fba565b611fb78683611fb1919061347a565b826123fb565b92505b829350505050949350505050565b6000611fd4838361222e565b61202d578260000182908060018154018082558091505060019003906000526020600020016000909190919091505582600001805490508360010160008481526020019081526020016000208190555060019050612032565b600090505b92915050565b6000808360010160008481526020019081526020016000205490506000811461214057600060018261206a9190612b9c565b90506000600186600001805490506120829190612b9c565b90508181146120f15760008660000182815481106120a3576120a2612fa4565b5b90600052602060002001549050808760000184815481106120c7576120c6612fa4565b5b90600052602060002001819055508387600101600083815260200190815260200160002081905550505b856000018054806121055761210461369a565b5b600190038181906000526020600020016000905590558560010160008681526020019081526020016000206000905560019350505050612146565b60009150505b92915050565b6121cd8363a9059cbb60e01b848460405160240161216b9291906136c9565b604051602081830303815290604052907bffffffffffffffffffffffffffffffffffffffffffffffffffffffff19166020820180517bffffffffffffffffffffffffffffffffffffffffffffffffffffffff8381831617835250505050611ea0565b505050565b60608160000180548060200260200160405190810160405280929190818152602001828054801561222257602002820191906000526020600020905b81548152602001906001019080831161220e575b50505050509050919050565b600080836001016000848152602001908152602001600020541415905092915050565b600080823b905060008111915050919050565b600060019054906101000a900460ff166122b3576040517f08c379a00000000000000000000000000000000000000000000000000000000081526004016122aa906135a6565b60405180910390fd5b60018081905550565b60606122cb8484600085612458565b90509392505050565b600073eeeeeeeeeeeeeeeeeeeeeeeeeeeeeeeeeeeeeeee73ffffffffffffffffffffffffffffffffffffffff168373ffffffffffffffffffffffffffffffffffffffff1603612325578190506123f5565b60008373ffffffffffffffffffffffffffffffffffffffff1663313ce5676040518163ffffffff1660e01b8152600401602060405180830381865afa158015612372573d6000803e3d6000fd5b505050506040513d601f19601f820116820180604052508101906123969190612b40565b905060128110156123cd578060126123ae9190612b9c565b600a6123ba9190613825565b836123c5919061347a565b9150506123f5565b6012816123da9190612b9c565b600a6123e69190613825565b836123f19190613503565b9150505b92915050565b600080828461240a9190613870565b905060008082036124285783856124219190613503565b905061244d565b838483876124369190612b9c565b612440919061301b565b61244a9190613503565b90505b809250505092915050565b60608247101561249d576040517f08c379a000000000000000000000000000000000000000000000000000000000815260040161249490613913565b60405180910390fd5b6124a68561256c565b6124e5576040517f08c379a00000000000000000000000000000000000000000000000000000000081526004016124dc9061397f565b60405180910390fd5b6000808673ffffffffffffffffffffffffffffffffffffffff16858760405161250e9190613a0e565b60006040518083038185875af1925050503d806000811461254b576040519150601f19603f3d011682016040523d82523d6000602084013e612550565b606091505b509150915061256082828661258f565b92505050949350505050565b6000808273ffffffffffffffffffffffffffffffffffffffff163b119050919050565b6060831561259f578290506125ef565b6000835111156125b25782518084602001fd5b816040517f08c379a00000000000000000000000000000000000000000000000000000000081526004016125e69190613a69565b60405180910390fd5b9392505050565b6000819050919050565b612609816125f6565b82525050565b60006020820190506126246000830184612600565b92915050565b6000604051905090565b600080fd5b600080fd5b600073ffffffffffffffffffffffffffffffffffffffff82169050919050565b60006126698261263e565b9050919050565b6126798161265e565b811461268457600080fd5b50565b60008135905061269681612670565b92915050565b60008115159050919050565b6126b18161269c565b81146126bc57600080fd5b50565b6000813590506126ce816126a8565b92915050565b600080604083850312156126eb576126ea612634565b5b60006126f985828601612687565b925050602061270a858286016126bf565b9150509250929050565b600061271f8261263e565b9050919050565b61272f81612714565b811461273a57600080fd5b50565b60008135905061274c81612726565b92915050565b61275b816125f6565b811461276657600080fd5b50565b60008135905061277881612752565b92915050565b60008060006060848603121561279757612796612634565b5b60006127a58682870161273d565b93505060206127b686828701612687565b92505060406127c786828701612769565b9150509250925092565b6000602082840312156127e7576127e6612634565b5b60006127f584828501612687565b91505092915050565b600081519050919050565b600082825260208201905092915050565b6000819050602082019050919050565b6128338161265e565b82525050565b6000612845838361282a565b60208301905092915050565b6000602082019050919050565b6000612869826127fe565b6128738185612809565b935061287e8361281a565b8060005b838110156128af5781516128968882612839565b97506128a183612851565b925050600181019050612882565b5085935050505092915050565b600060208201905081810360008301526128d6818461285e565b905092915050565b6000602082840312156128f4576128f3612634565b5b600061290284828501612769565b91505092915050565b6000806040838503121561292257612921612634565b5b600061293085828601612687565b925050602061294185828601612687565b9150509250929050565b60008060006060848603121561296457612963612634565b5b600061297286828701612687565b935050602061298386828701612687565b925050604061299486828701612769565b9150509250925092565b6000819050919050565b60006129c36129be6129b98461263e565b61299e565b61263e565b9050919050565b60006129d5826129a8565b9050919050565b60006129e7826129ca565b9050919050565b6129f7816129dc565b82525050565b6000602082019050612a1260008301846129ee565b92915050565b600082825260208201905092915050565b7f5265656e7472616e637947756172643a207265656e7472616e742063616c6c00600082015250565b6000612a5f601f83612a18565b9150612a6a82612a29565b602082019050919050565b60006020820190508181036000830152612a8e81612a52565b9050919050565b7f5461736b54726561737572793a204e6f20455448000000000000000000000000600082015250565b6000612acb601483612a18565b9150612ad682612a95565b602082019050919050565b60006020820190508181036000830152612afa81612abe565b9050919050565b612b0a8161265e565b82525050565b6000602082019050612b256000830184612b01565b92915050565b600081519050612b3a81612752565b92915050565b600060208284031215612b5657612b55612634565b5b6000612b6484828501612b2b565b91505092915050565b7f4e487b7100000000000000000000000000000000000000000000000000000000600052601160045260246000fd5b6000612ba7826125f6565b9150612bb2836125f6565b925082821015612bc557612bc4612b6d565b5b828203905092915050565b7f4e4f545f415554484f52495a4544000000000000000000000000000000000000600082015250565b6000612c06600e83612a18565b9150612c1182612bd0565b602082019050919050565b60006020820190508181036000830152612c3581612bf9565b9050919050565b612c458161269c565b82525050565b6000602082019050612c606000830184612c3c565b92915050565b7f5461736b54726561737572793a206f6e6c7957686974656c697374656453657260008201527f7669636573000000000000000000000000000000000000000000000000000000602082015250565b6000612cc2602583612a18565b9150612ccd82612c66565b604082019050919050565b60006020820190508181036000830152612cf181612cb5565b9050919050565b7f5461736b54726561737572793a204f7665726368617267656400000000000000600082015250565b6000612d2e601983612a18565b9150612d3982612cf8565b602082019050919050565b60006020820190508181036000830152612d5d81612d21565b9050919050565b6000604082019050612d796000830185612b01565b612d866020830184612b01565b9392505050565b6000606082019050612da26000830186612b01565b612daf6020830185612600565b612dbc6040830184612b01565b949350505050565b6000604082019050612dd96000830185612600565b612de66020830184612b01565b9392505050565b600080fd5b6000601f19601f8301169050919050565b7f4e487b7100000000000000000000000000000000000000000000000000000000600052604160045260246000fd5b612e3b82612df2565b810181811067ffffffffffffffff82111715612e5a57612e59612e03565b5b80604052505050565b6000612e6d61262a565b9050612e798282612e32565b919050565b600067ffffffffffffffff821115612e9957612e98612e03565b5b602082029050602081019050919050565b600080fd5b600081519050612ebe81612670565b92915050565b6000612ed7612ed284612e7e565b612e63565b90508083825260208201905060208402830185811115612efa57612ef9612eaa565b5b835b81811015612f235780612f0f8882612eaf565b845260208401935050602081019050612efc565b5050509392505050565b600082601f830112612f4257612f41612ded565b5b8151612f52848260208601612ec4565b91505092915050565b600060208284031215612f7157612f70612634565b5b600082015167ffffffffffffffff811115612f8f57612f8e612639565b5b612f9b84828501612f2d565b91505092915050565b7f4e487b7100000000000000000000000000000000000000000000000000000000600052603260045260246000fd5b6000612fde826125f6565b91507fffffffffffffffffffffffffffffffffffffffffffffffffffffffffffffffff82036130105761300f612b6d565b5b600182019050919050565b6000613026826125f6565b9150613031836125f6565b9250827fffffffffffffffffffffffffffffffffffffffffffffffffffffffffffffffff0382111561306657613065612b6d565b5b828201905092915050565b7f496e697469616c697a61626c653a20636f6e747261637420697320616c72656160008201527f647920696e697469616c697a6564000000000000000000000000000000000000602082015250565b60006130cd602e83612a18565b91506130d882613071565b604082019050919050565b600060208201905081810360008301526130fc816130c0565b9050919050565b60006060820190506131186000830186612b01565b6131256020830185612b01565b6131326040830184612600565b949350505050565b7f5461736b54726561737572793a2052657175697265204d494e5f53484152455360008201527f5f494e5f54524541535552590000000000000000000000000000000000000000602082015250565b6000613196602c83612a18565b91506131a18261313a565b604082019050919050565b600060208201905081810360008301526131c581613189565b9050919050565b7f5461736b54726561737572793a205a65726f2073686172657320746f2063726560008201527f6469740000000000000000000000000000000000000000000000000000000000602082015250565b6000613228602383612a18565b9150613233826131cc565b604082019050919050565b600060208201905081810360008301526132578161321b565b9050919050565b7f5461736b54726561737572793a2042656c6f77204d494e5f5348415245535f4960008201527f4e5f545245415355525900000000000000000000000000000000000000000000602082015250565b60006132ba602a83612a18565b91506132c58261325e565b604082019050919050565b600060208201905081810360008301526132e9816132ad565b9050919050565b600081905092915050565b50565b600061330b6000836132f0565b9150613316826132fb565b600082019050919050565b600061332c826132fe565b9150819050919050565b7f5f7472616e736665723a20455448207472616e73666572206661696c65640000600082015250565b600061336c601e83612a18565b915061337782613336565b602082019050919050565b6000602082019050818103600083015261339b8161335f565b9050919050565b7f5461736b54726561737572793a204e6f2070726f78792061646d696e00000000600082015250565b60006133d8601c83612a18565b91506133e3826133a2565b602082019050919050565b60006020820190508181036000830152613407816133cb565b9050919050565b7f5461736b54726561737572793a204e6f7420656e6f7567682066756e64730000600082015250565b6000613444601e83612a18565b915061344f8261340e565b602082019050919050565b6000602082019050818103600083015261347381613437565b9050919050565b6000613485826125f6565b9150613490836125f6565b9250817fffffffffffffffffffffffffffffffffffffffffffffffffffffffffffffffff04831182151516156134c9576134c8612b6d565b5b828202905092915050565b7f4e487b7100000000000000000000000000000000000000000000000000000000600052601260045260246000fd5b600061350e826125f6565b9150613519836125f6565b925082613529576135286134d4565b5b828204905092915050565b7f496e697469616c697a61626c653a20636f6e7472616374206973206e6f74206960008201527f6e697469616c697a696e67000000000000000000000000000000000000000000602082015250565b6000613590602b83612a18565b915061359b82613534565b604082019050919050565b600060208201905081810360008301526135bf81613583565b9050919050565b6000815190506135d5816126a8565b92915050565b6000602082840312156135f1576135f0612634565b5b60006135ff848285016135c6565b91505092915050565b7f5361666545524332303a204552433230206f7065726174696f6e20646964206e60008201527f6f74207375636365656400000000000000000000000000000000000000000000602082015250565b6000613664602a83612a18565b915061366f82613608565b604082019050919050565b6000602082019050818103600083015261369381613657565b9050919050565b7f4e487b7100000000000000000000000000000000000000000000000000000000600052603160045260246000fd5b60006040820190506136de6000830185612b01565b6136eb6020830184612600565b9392505050565b60008160011c9050919050565b6000808291508390505b60018511156137495780860481111561372557613724612b6d565b5b60018516156137345780820291505b8081029050613742856136f2565b9450613709565b94509492505050565b600082613762576001905061381e565b81613770576000905061381e565b81600181146137865760028114613790576137bf565b600191505061381e565b60ff8411156137a2576137a1612b6d565b5b8360020a9150848211156137b9576137b8612b6d565b5b5061381e565b5060208310610133831016604e8410600b84101617156137f45782820a9050838111156137ef576137ee612b6d565b5b61381e565b61380184848460016136ff565b9250905081840481111561381857613817612b6d565b5b81810290505b9392505050565b6000613830826125f6565b915061383b836125f6565b92506138687fffffffffffffffffffffffffffffffffffffffffffffffffffffffffffffffff8484613752565b905092915050565b600061387b826125f6565b9150613886836125f6565b925082613896576138956134d4565b5b828206905092915050565b7f416464726573733a20696e73756666696369656e742062616c616e636520666f60008201527f722063616c6c0000000000000000000000000000000000000000000000000000602082015250565b60006138fd602683612a18565b9150613908826138a1565b604082019050919050565b6000602082019050818103600083015261392c816138f0565b9050919050565b7f416464726573733a2063616c6c20746f206e6f6e2d636f6e7472616374000000600082015250565b6000613969601d83612a18565b915061397482613933565b602082019050919050565b600060208201905081810360008301526139988161395c565b9050919050565b600081519050919050565b60005b838110156139c85780820151818401526020810190506139ad565b838111156139d7576000848401525b50505050565b60006139e88261399f565b6139f281856132f0565b9350613a028185602086016139aa565b80840191505092915050565b6000613a1a82846139dd565b915081905092915050565b600081519050919050565b6000613a3b82613a25565b613a458185612a18565b9350613a558185602086016139aa565b613a5e81612df2565b840191505092915050565b60006020820190508181036000830152613a838184613a30565b90509291505056fea264697066735822122083a082162f8706b53709101f6ffc2ac0bd4614a21228577c24964f29c7829e5864736f6c634300080e0033",
  "devdoc": {
    "kind": "dev",
    "methods": {
      "depositFunds(address,address,uint256)": {
        "params": {
          "_amount": "Amount to be credited",
          "_receiver": "Address receiving the credits",
          "_token": "Token to be credited, use \"0xeeee....\" for ETH"
        }
      },
      "getCreditTokensByUser(address)": {
        "params": {
          "_user": "User to get the balances from"
        }
      },
      "getTotalCreditTokensByUser(address)": {
        "params": {
          "_user": "User to get the balances from"
        }
      },
      "totalUserTokenBalance(address,address)": {
        "params": {
          "_token": "Token to check balance of",
          "_user": "User to get balance from"
        }
      },
      "updateMaxFee(uint256)": {
        "params": {
          "_newMaxFee": "New Max Fee to charge"
        }
      },
      "updateWhitelistedService(address,bool)": {
        "params": {
          "_add": "Add to whitelist if true, else remove from whitelist",
          "_service": "Service to add or remove from whitelist"
        }
      },
      "useFunds(address,address,uint256)": {
        "params": {
          "_amount": "Amount to be deducted",
          "_token": "Token to be used for payment by users",
          "_user": "Address of user whose balance will be deducted"
        }
      },
      "userTokenBalance(address,address)": {
        "params": {
          "_token": "Token to check balance of",
          "_user": "User to get balance from"
        }
      },
      "withdrawFunds(address,address,uint256)": {
        "params": {
          "_amount": "Amount to be credited",
          "_receiver": "Address receiving the credits",
          "_token": "Token to be credited, use \"0xeeee....\" for ETH"
        }
      }
    },
    "stateVariables": {
      "_tokens": {
        "details": "tracks the tokens deposited by users"
      },
      "shares": {
        "details": "tracks token shares of users"
      },
      "totalShares": {
        "details": "tracks total shares of tokens"
      }
    },
    "version": 1
  },
  "userdoc": {
    "events": {
      "FundsDeposited(address,address,uint256)": {
        "notice": "Events ///"
      }
    },
    "kind": "user",
    "methods": {
      "depositFunds(address,address,uint256)": {
        "notice": "Function to deposit Funds which will be used to execute transactions on various services"
      },
      "getCreditTokensByUser(address)": {
        "notice": "Helper func to get all deposited tokens by a user."
      },
      "getTotalCreditTokensByUser(address)": {
        "notice": "Helper func to get all deposited tokens by a user across treasuries."
      },
      "getWhitelistedServices()": {
        "notice": "Get list of services that can call useFunds."
      },
      "totalUserTokenBalance(address,address)": {
        "notice": "Get balance of a token owned by user across treasuries"
      },
      "updateMaxFee(uint256)": {
        "notice": "Change maxFee charged by Gelato (only relevant on Layer2s)"
      },
      "updateWhitelistedService(address,bool)": {
        "notice": "Add or remove service that can call useFunds. Gelato Governance"
      },
      "useFunds(address,address,uint256)": {
        "notice": "Function called by whitelisted services to handle payments, e.g. Gelato Ops"
      },
      "userTokenBalance(address,address)": {
        "notice": "Get balance of a token owned by user"
      },
      "withdrawFunds(address,address,uint256)": {
        "notice": "Function to withdraw Funds back to the _receiver"
      }
    },
    "version": 1
  },
  "storageLayout": {
    "storage": [
      {
        "astId": 6,
        "contract": "contracts/taskTreasury/TaskTreasuryUpgradable.sol:TaskTreasuryUpgradable",
        "label": "_initialized",
        "offset": 0,
        "slot": "0",
        "type": "t_bool"
      },
      {
        "astId": 9,
        "contract": "contracts/taskTreasury/TaskTreasuryUpgradable.sol:TaskTreasuryUpgradable",
        "label": "_initializing",
        "offset": 1,
        "slot": "0",
        "type": "t_bool"
      },
      {
        "astId": 87,
        "contract": "contracts/taskTreasury/TaskTreasuryUpgradable.sol:TaskTreasuryUpgradable",
        "label": "_status",
        "offset": 0,
        "slot": "1",
        "type": "t_uint256"
      },
      {
        "astId": 130,
        "contract": "contracts/taskTreasury/TaskTreasuryUpgradable.sol:TaskTreasuryUpgradable",
        "label": "__gap",
        "offset": 0,
        "slot": "2",
        "type": "t_array(t_uint256)49_storage"
      },
      {
        "astId": 7423,
        "contract": "contracts/taskTreasury/TaskTreasuryUpgradable.sol:TaskTreasuryUpgradable",
        "label": "maxFee",
        "offset": 0,
        "slot": "51",
        "type": "t_uint256"
      },
      {
        "astId": 7430,
        "contract": "contracts/taskTreasury/TaskTreasuryUpgradable.sol:TaskTreasuryUpgradable",
        "label": "shares",
        "offset": 0,
        "slot": "52",
        "type": "t_mapping(t_address,t_mapping(t_address,t_uint256))"
      },
      {
        "astId": 7435,
        "contract": "contracts/taskTreasury/TaskTreasuryUpgradable.sol:TaskTreasuryUpgradable",
        "label": "totalShares",
        "offset": 0,
        "slot": "53",
        "type": "t_mapping(t_address,t_uint256)"
      },
      {
        "astId": 7441,
        "contract": "contracts/taskTreasury/TaskTreasuryUpgradable.sol:TaskTreasuryUpgradable",
        "label": "_tokens",
        "offset": 0,
        "slot": "54",
        "type": "t_mapping(t_address,t_struct(AddressSet)1540_storage)"
      },
      {
        "astId": 7444,
        "contract": "contracts/taskTreasury/TaskTreasuryUpgradable.sol:TaskTreasuryUpgradable",
        "label": "_whitelistedServices",
        "offset": 0,
        "slot": "55",
        "type": "t_struct(AddressSet)1540_storage"
      }
    ],
    "types": {
      "t_address": {
        "encoding": "inplace",
        "label": "address",
        "numberOfBytes": "20"
      },
      "t_array(t_bytes32)dyn_storage": {
        "base": "t_bytes32",
        "encoding": "dynamic_array",
        "label": "bytes32[]",
        "numberOfBytes": "32"
      },
      "t_array(t_uint256)49_storage": {
        "base": "t_uint256",
        "encoding": "inplace",
        "label": "uint256[49]",
        "numberOfBytes": "1568"
      },
      "t_bool": {
        "encoding": "inplace",
        "label": "bool",
        "numberOfBytes": "1"
      },
      "t_bytes32": {
        "encoding": "inplace",
        "label": "bytes32",
        "numberOfBytes": "32"
      },
      "t_mapping(t_address,t_mapping(t_address,t_uint256))": {
        "encoding": "mapping",
        "key": "t_address",
        "label": "mapping(address => mapping(address => uint256))",
        "numberOfBytes": "32",
        "value": "t_mapping(t_address,t_uint256)"
      },
      "t_mapping(t_address,t_struct(AddressSet)1540_storage)": {
        "encoding": "mapping",
        "key": "t_address",
        "label": "mapping(address => struct EnumerableSet.AddressSet)",
        "numberOfBytes": "32",
        "value": "t_struct(AddressSet)1540_storage"
      },
      "t_mapping(t_address,t_uint256)": {
        "encoding": "mapping",
        "key": "t_address",
        "label": "mapping(address => uint256)",
        "numberOfBytes": "32",
        "value": "t_uint256"
      },
      "t_mapping(t_bytes32,t_uint256)": {
        "encoding": "mapping",
        "key": "t_bytes32",
        "label": "mapping(bytes32 => uint256)",
        "numberOfBytes": "32",
        "value": "t_uint256"
      },
      "t_struct(AddressSet)1540_storage": {
        "encoding": "inplace",
        "label": "struct EnumerableSet.AddressSet",
        "members": [
          {
            "astId": 1539,
            "contract": "contracts/taskTreasury/TaskTreasuryUpgradable.sol:TaskTreasuryUpgradable",
            "label": "_inner",
            "offset": 0,
            "slot": "0",
            "type": "t_struct(Set)1239_storage"
          }
        ],
        "numberOfBytes": "64"
      },
      "t_struct(Set)1239_storage": {
        "encoding": "inplace",
        "label": "struct EnumerableSet.Set",
        "members": [
          {
            "astId": 1234,
            "contract": "contracts/taskTreasury/TaskTreasuryUpgradable.sol:TaskTreasuryUpgradable",
            "label": "_values",
            "offset": 0,
            "slot": "0",
            "type": "t_array(t_bytes32)dyn_storage"
          },
          {
            "astId": 1238,
            "contract": "contracts/taskTreasury/TaskTreasuryUpgradable.sol:TaskTreasuryUpgradable",
            "label": "_indexes",
            "offset": 0,
            "slot": "1",
            "type": "t_mapping(t_bytes32,t_uint256)"
          }
        ],
        "numberOfBytes": "64"
      },
      "t_uint256": {
        "encoding": "inplace",
        "label": "uint256",
        "numberOfBytes": "32"
      }
    }
  }
}