{
  "address": "0xa5f9b728ecEB9A1F6FCC89dcc2eFd810bA4Dec41",
  "abi": [
    {
      "inputs": [
        {
          "internalType": "address payable",
          "name": "_ops",
          "type": "address"
        }
      ],
      "stateMutability": "nonpayable",
      "type": "constructor"
    },
    {
      "inputs": [],
      "name": "ETH",
      "outputs": [
        {
          "internalType": "address",
          "name": "",
          "type": "address"
        }
      ],
      "stateMutability": "view",
      "type": "function"
    },
    {
      "inputs": [],
      "name": "count",
      "outputs": [
        {
          "internalType": "uint256",
          "name": "",
          "type": "uint256"
        }
      ],
      "stateMutability": "view",
      "type": "function"
    },
    {
      "inputs": [],
      "name": "gelato",
      "outputs": [
        {
          "internalType": "address payable",
          "name": "",
          "type": "address"
        }
      ],
      "stateMutability": "view",
      "type": "function"
    },
    {
      "inputs": [
        {
          "internalType": "uint256",
          "name": "amount",
          "type": "uint256"
        }
      ],
      "name": "increaseCount",
      "outputs": [],
      "stateMutability": "nonpayable",
      "type": "function"
    },
    {
      "inputs": [],
      "name": "lastExecuted",
      "outputs": [
        {
          "internalType": "uint256",
          "name": "",
          "type": "uint256"
        }
      ],
      "stateMutability": "view",
      "type": "function"
    },
    {
      "inputs": [],
      "name": "ops",
      "outputs": [
        {
          "internalType": "address",
          "name": "",
          "type": "address"
        }
      ],
      "stateMutability": "view",
      "type": "function"
    }
  ],
  "transactionHash": "0x01aa347628d8bf1df8af0a7bad507e9e3dbde6d2f210fcf048e1430b3f5806a5",
  "args": [
    "0x8aB6aDbC1fec4F18617C9B889F5cE7F28401B8dB"
  ],
  "solcInputHash": "474728aa48b023738c40cc1508656900",
  "bytecode": "0x60c060405234801561001057600080fd5b5060405161076a38038061076a8339818101604052810190610032919061013a565b808073ffffffffffffffffffffffffffffffffffffffff1660808173ffffffffffffffffffffffffffffffffffffffff1660601b815250508073ffffffffffffffffffffffffffffffffffffffff1663573ea5756040518163ffffffff1660e01b815260040160206040518083038186803b1580156100b057600080fd5b505afa1580156100c4573d6000803e3d6000fd5b505050506040513d601f19601f820116820180604052508101906100e8919061013a565b73ffffffffffffffffffffffffffffffffffffffff1660a08173ffffffffffffffffffffffffffffffffffffffff1660601b8152505050506101ac565b60008151905061013481610195565b92915050565b60006020828403121561014c57600080fd5b600061015a84828501610125565b91505092915050565b600061016e82610175565b9050919050565b600073ffffffffffffffffffffffffffffffffffffffff82169050919050565b61019e81610163565b81146101a957600080fd5b50565b60805160601c60a05160601c61058c6101de60003960006102270152600081816101270152610263015261058c6000f3fe608060405234801561001057600080fd5b50600436106100625760003560e01c806306661abd146100675780631c15ff771461008557806346d4adf2146100a3578063573ea575146100bf5780638322fff2146100dd578063e70abe92146100fb575b600080fd5b61006f610119565b60405161007c919061040c565b60405180910390f35b61008d61011f565b60405161009a919061040c565b60405180910390f35b6100bd60048036038101906100b8919061029a565b610125565b005b6100c7610225565b6040516100d491906103b1565b60405180910390f35b6100e5610249565b6040516100f29190610396565b60405180910390f35b610103610261565b6040516101109190610396565b60405180910390f35b60005481565b60015481565b7f000000000000000000000000000000000000000000000000000000000000000073ffffffffffffffffffffffffffffffffffffffff163373ffffffffffffffffffffffffffffffffffffffff16146101b3576040517f08c379a00000000000000000000000000000000000000000000000000000000081526004016101aa906103cc565b60405180910390fd5b60b4600154426101c3919061048e565b11610203576040517f08c379a00000000000000000000000000000000000000000000000000000000081526004016101fa906103ec565b60405180910390fd5b806000808282546102149190610438565b925050819055504260018190555050565b7f000000000000000000000000000000000000000000000000000000000000000081565b73eeeeeeeeeeeeeeeeeeeeeeeeeeeeeeeeeeeeeeee81565b7f000000000000000000000000000000000000000000000000000000000000000081565b6000813590506102948161053f565b92915050565b6000602082840312156102ac57600080fd5b60006102ba84828501610285565b91505092915050565b6102cc816104d4565b82525050565b6102db816104c2565b82525050565b60006102ee601183610427565b91507f4f707352656164793a206f6e6c794f70730000000000000000000000000000006000830152602082019050919050565b600061032e602883610427565b91507f436f756e7465723a20696e637265617365436f756e743a2054696d65206e6f7460008301527f20656c61707365640000000000000000000000000000000000000000000000006020830152604082019050919050565b61039081610506565b82525050565b60006020820190506103ab60008301846102d2565b92915050565b60006020820190506103c660008301846102c3565b92915050565b600060208201905081810360008301526103e5816102e1565b9050919050565b6000602082019050818103600083015261040581610321565b9050919050565b60006020820190506104216000830184610387565b92915050565b600082825260208201905092915050565b600061044382610506565b915061044e83610506565b9250827fffffffffffffffffffffffffffffffffffffffffffffffffffffffffffffffff0382111561048357610482610510565b5b828201905092915050565b600061049982610506565b91506104a483610506565b9250828210156104b7576104b6610510565b5b828203905092915050565b60006104cd826104e6565b9050919050565b60006104df826104e6565b9050919050565b600073ffffffffffffffffffffffffffffffffffffffff82169050919050565b6000819050919050565b7f4e487b7100000000000000000000000000000000000000000000000000000000600052601160045260246000fd5b61054881610506565b811461055357600080fd5b5056fea2646970667358221220174454c0a20f44fd6c276c98fc912ff539cc90e3abf32ba2c58e5413fb6f041964736f6c63430008000033",
  "devdoc": {
    "kind": "dev",
    "methods": {},
    "version": 1
  },
  "userdoc": {
    "kind": "user",
    "methods": {},
    "version": 1
  },
  "storageLayout": {
    "storage": [
      {
        "astId": 2159,
        "contract": "contracts/examples/withTreasury/Counter.sol:Counter",
        "label": "count",
        "offset": 0,
        "slot": "0",
        "type": "t_uint256"
      },
      {
        "astId": 2161,
        "contract": "contracts/examples/withTreasury/Counter.sol:Counter",
        "label": "lastExecuted",
        "offset": 0,
        "slot": "1",
        "type": "t_uint256"
      }
    ],
    "types": {
      "t_uint256": {
        "encoding": "inplace",
        "label": "uint256",
        "numberOfBytes": "32"
      }
    }
  }
}