{
  "address": "0xDE3554Ad8A0f4BdfE116E047aaAEaD6559eEfB89",
  "abi": [
    {
      "inputs": [
        {
          "internalType": "address payable",
          "name": "_gelato",
          "type": "address"
        },
        {
          "internalType": "contract ITaskTreasuryUpgradable",
          "name": "_taskTreasury",
          "type": "address"
        }
      ],
      "stateMutability": "nonpayable",
      "type": "constructor"
    },
    {
      "stateMutability": "nonpayable",
      "type": "fallback"
    },
    {
      "inputs": [
        {
          "internalType": "bytes32",
          "name": "_taskId",
          "type": "bytes32"
        }
      ],
      "name": "cancelTask",
      "outputs": [],
      "stateMutability": "nonpayable",
      "type": "function"
    },
    {
      "inputs": [
        {
          "internalType": "address",
          "name": "_execAddress",
          "type": "address"
        },
        {
          "internalType": "bytes",
          "name": "_execDataOrSelector",
          "type": "bytes"
        },
        {
          "components": [
            {
              "internalType": "enum LibDataTypes.Module[]",
              "name": "modules",
              "type": "uint8[]"
            },
            {
              "internalType": "bytes[]",
              "name": "args",
              "type": "bytes[]"
            }
          ],
          "internalType": "struct LibDataTypes.ModuleData",
          "name": "_moduleData",
          "type": "tuple"
        },
        {
          "internalType": "address",
          "name": "_feeToken",
          "type": "address"
        }
      ],
      "name": "createTask",
      "outputs": [
        {
          "internalType": "bytes32",
          "name": "taskId",
          "type": "bytes32"
        }
      ],
      "stateMutability": "nonpayable",
      "type": "function"
    },
    {
      "inputs": [
        {
          "internalType": "address",
          "name": "_taskCreator",
          "type": "address"
        },
        {
          "internalType": "address",
          "name": "_execAddress",
          "type": "address"
        },
        {
          "internalType": "bytes",
          "name": "_execData",
          "type": "bytes"
        },
        {
          "components": [
            {
              "internalType": "enum LibDataTypes.Module[]",
              "name": "modules",
              "type": "uint8[]"
            },
            {
              "internalType": "bytes[]",
              "name": "args",
              "type": "bytes[]"
            }
          ],
          "internalType": "struct LibDataTypes.ModuleData",
          "name": "_moduleData",
          "type": "tuple"
        },
        {
          "internalType": "uint256",
          "name": "_txFee",
          "type": "uint256"
        },
        {
          "internalType": "address",
          "name": "_feeToken",
          "type": "address"
        },
        {
          "internalType": "bool",
          "name": "_useTaskTreasuryFunds",
          "type": "bool"
        },
        {
          "internalType": "bool",
          "name": "_revertOnFailure",
          "type": "bool"
        }
      ],
      "name": "exec",
      "outputs": [],
      "stateMutability": "nonpayable",
      "type": "function"
    },
    {
      "inputs": [
        {
          "internalType": "bytes32",
          "name": "",
          "type": "bytes32"
        }
      ],
      "name": "execAddresses",
      "outputs": [
        {
          "internalType": "address",
          "name": "",
          "type": "address"
        }
      ],
      "stateMutability": "view",
      "type": "function"
    },
    {
      "inputs": [],
      "name": "fee",
      "outputs": [
        {
          "internalType": "uint256",
          "name": "",
          "type": "uint256"
        }
      ],
      "stateMutability": "view",
      "type": "function"
    },
    {
      "inputs": [],
      "name": "feeToken",
      "outputs": [
        {
          "internalType": "address",
          "name": "",
          "type": "address"
        }
      ],
      "stateMutability": "view",
      "type": "function"
    },
    {
      "inputs": [],
      "name": "gelato",
      "outputs": [
        {
          "internalType": "address payable",
          "name": "",
          "type": "address"
        }
      ],
      "stateMutability": "view",
      "type": "function"
    },
    {
      "inputs": [],
      "name": "getFeeDetails",
      "outputs": [
        {
          "internalType": "uint256",
          "name": "",
          "type": "uint256"
        },
        {
          "internalType": "address",
          "name": "",
          "type": "address"
        }
      ],
      "stateMutability": "view",
      "type": "function"
    },
    {
      "inputs": [
        {
          "internalType": "address",
          "name": "_taskCreator",
          "type": "address"
        }
      ],
      "name": "getTaskIdsByUser",
      "outputs": [
        {
          "internalType": "bytes32[]",
          "name": "",
          "type": "bytes32[]"
        }
      ],
      "stateMutability": "view",
      "type": "function"
    },
    {
      "inputs": [
        {
          "internalType": "enum LibDataTypes.Module[]",
          "name": "_modules",
          "type": "uint8[]"
        },
        {
          "internalType": "address[]",
          "name": "_moduleAddresses",
          "type": "address[]"
        }
      ],
      "name": "setModule",
      "outputs": [],
      "stateMutability": "nonpayable",
      "type": "function"
    },
    {
      "inputs": [
        {
          "internalType": "bytes32",
          "name": "",
          "type": "bytes32"
        }
      ],
      "name": "taskCreator",
      "outputs": [
        {
          "internalType": "address",
          "name": "",
          "type": "address"
        }
      ],
      "stateMutability": "view",
      "type": "function"
    },
    {
      "inputs": [
        {
          "internalType": "enum LibDataTypes.Module",
          "name": "",
          "type": "uint8"
        }
      ],
      "name": "taskModuleAddresses",
      "outputs": [
        {
          "internalType": "address",
          "name": "",
          "type": "address"
        }
      ],
      "stateMutability": "view",
      "type": "function"
    },
    {
      "inputs": [],
      "name": "taskTreasury",
      "outputs": [
        {
          "internalType": "contract ITaskTreasuryUpgradable",
          "name": "",
          "type": "address"
        }
      ],
      "stateMutability": "view",
      "type": "function"
    },
    {
      "inputs": [
        {
          "internalType": "bytes32",
          "name": "",
          "type": "bytes32"
        }
      ],
      "name": "timedTask",
      "outputs": [
        {
          "internalType": "uint128",
          "name": "nextExec",
          "type": "uint128"
        },
        {
          "internalType": "uint128",
          "name": "interval",
          "type": "uint128"
        }
      ],
      "stateMutability": "view",
      "type": "function"
    },
    {
      "inputs": [],
      "name": "version",
      "outputs": [
        {
          "internalType": "string",
          "name": "",
          "type": "string"
        }
      ],
      "stateMutability": "view",
      "type": "function"
    }
  ],
  "transactionHash": "0x3457a0305cfac43beacd3a85d1855b247c878a721dc478dd42a9b1f8a4ac3edf",
  "args": [
    "0x683913B3A32ada4F8100458A3E1675425BdAa7DF",
    "0xa620799451Fab255A16550776c08Bc461C8F0aBE"
  ],
  "numDeployments": 1,
  "solcInputHash": "496dba1ad347efa6601d8415b9db06ed",
  "bytecode": "0x60c06040523480156200001157600080fd5b5060405162004e2d38038062004e2d83398181016040528101906200003791906200016c565b818073ffffffffffffffffffffffffffffffffffffffff1660808173ffffffffffffffffffffffffffffffffffffffff1681525050508073ffffffffffffffffffffffffffffffffffffffff1660a08173ffffffffffffffffffffffffffffffffffffffff16815250505050620001b3565b600080fd5b600073ffffffffffffffffffffffffffffffffffffffff82169050919050565b6000620000db82620000ae565b9050919050565b620000ed81620000ce565b8114620000f957600080fd5b50565b6000815190506200010d81620000e2565b92915050565b60006200012082620000ae565b9050919050565b6000620001348262000113565b9050919050565b620001468162000127565b81146200015257600080fd5b50565b60008151905062000166816200013b565b92915050565b60008060408385031215620001865762000185620000a9565b5b60006200019685828601620000fc565b9250506020620001a98582860162000155565b9150509250929050565b60805160a051614c46620001e7600039600081816108bb01526112f10152600081816104e901526106cd0152614c466000f3fe608060405234801561001057600080fd5b50600436106100f95760003560e01c8063813785e611610097578063cd3d4fb911610066578063cd3d4fb9146102b8578063ddca3f43146102e8578063e60a321314610306578063ee8ca3b514610324576100fa565b8063813785e614610230578063ad558ab91461024c578063b810c63614610268578063b81cd86614610287576100fa565b806354fd4d50116100d357806354fd4d50146101a6578063573ea575146101c4578063647846a5146101e25780636d2dd29f14610200576100fa565b80630407145c146101165780632e6e0bd0146101465780633323b46714610176576100fa565b5b60003660606101098383610340565b9050915050805190602001f35b610130600480360381019061012b9190612e37565b6103a8565b60405161013d9190612f2c565b60405180910390f35b610160600480360381019061015b9190612f7a565b6103fe565b60405161016d9190612fb6565b60405180910390f35b610190600480360381019061018b919061305a565b610431565b60405161019d919061310d565b60405180910390f35b6101ae6104ae565b6040516101bb91906131c1565b60405180910390f35b6101cc6104e7565b6040516101d99190613204565b60405180910390f35b6101ea61050b565b6040516101f79190612fb6565b60405180910390f35b61021a60048036038101906102159190612f7a565b610531565b6040516102279190612fb6565b60405180910390f35b61024a600480360381019061024591906132cb565b610564565b005b610266600480360381019061026191906134ea565b6106cb565b005b6102706107f3565b60405161027e9291906135e7565b60405180910390f35b6102a1600480360381019061029c9190612f7a565b610824565b6040516102af92919061363b565b60405180910390f35b6102d260048036038101906102cd9190613689565b610880565b6040516102df9190612fb6565b60405180910390f35b6102f06108b3565b6040516102fd91906136b6565b60405180910390f35b61030e6108b9565b60405161031b9190613730565b60405180910390f35b61033e60048036038101906103399190612f7a565b6108dd565b005b6060600061034e84846108fb565b9050600080600080610361858989610a71565b935093509350935060006103783386868686610c39565b90508060405160200161038b919061376c565b604051602081830303815290604052965050505050505092915050565b606060006103f3600260008573ffffffffffffffffffffffffffffffffffffffff1673ffffffffffffffffffffffffffffffffffffffff168152602001908152602001600020610db7565b905080915050919050565b60006020528060005260406000206000915054906101000a900473ffffffffffffffffffffffffffffffffffffffff1681565b60008061044033886006610dcc565b80985081925050506104a2818888888080601f016020809104026020016040519081016040528093929190818152602001838380828437600081840152601f19601f820116905080830192505050505050508761049c906139bd565b87610c39565b91505095945050505050565b6040518060400160405280600181526020017f350000000000000000000000000000000000000000000000000000000000000081525081565b7f000000000000000000000000000000000000000000000000000000000000000081565b600460009054906101000a900473ffffffffffffffffffffffffffffffffffffffff1681565b60016020528060005260406000206000915054906101000a900473ffffffffffffffffffffffffffffffffffffffff1681565b61056c610f95565b73ffffffffffffffffffffffffffffffffffffffff163373ffffffffffffffffffffffffffffffffffffffff16146105d9576040517f08c379a00000000000000000000000000000000000000000000000000000000081526004016105d090613a1c565b60405180910390fd5b600084849050905060005b818110156106c3578383828181106105ff576105fe613a3c565b5b90506020020160208101906106149190612e37565b6006600088888581811061062b5761062a613a3c565b5b90506020020160208101906106409190613689565b600481111561065257610651613a6b565b5b600481111561066457610663613a6b565b5b815260200190815260200160002060006101000a81548173ffffffffffffffffffffffffffffffffffffffff021916908373ffffffffffffffffffffffffffffffffffffffff16021790555080806106bb90613ac9565b9150506105e4565b505050505050565b7f000000000000000000000000000000000000000000000000000000000000000073ffffffffffffffffffffffffffffffffffffffff163373ffffffffffffffffffffffffffffffffffffffff1614610759576040517f08c379a000000000000000000000000000000000000000000000000000000000815260040161075090613b5d565b60405180910390fd5b600061078689896107698a610fbe565b89610773906139bd565b8761077e5788610781565b60005b611137565b90506107e8818a8a8a8a806000019061079f9190613b8c565b80806020026020016040519081016040528093929190818152602001838360200280828437600081840152601f19601f820116905080830192505050505050508a8a8a8a6111f7565b505050505050505050565b600080600354600460009054906101000a900473ffffffffffffffffffffffffffffffffffffffff16915091509091565b60056020528060005260406000206000915090508060000160009054906101000a90046fffffffffffffffffffffffffffffffff16908060000160109054906101000a90046fffffffffffffffffffffffffffffffff16905082565b60066020528060005260406000206000915054906101000a900473ffffffffffffffffffffffffffffffffffffffff1681565b60035481565b7f000000000000000000000000000000000000000000000000000000000000000081565b60006108eb82336006611425565b90506108f781836115e2565b5050565b600060188383600381811061091357610912613a3c565b5b9050013560f81c60f81b7effffffffffffffffffffffffffffffffffffffffffffffffffffffffffffff19167bffffffffffffffffffffffffffffffffffffffffffffffffffffffff1916901c60108484600281811061097657610975613a3c565b5b9050013560f81c60f81b7effffffffffffffffffffffffffffffffffffffffffffffffffffffffffffff19167bffffffffffffffffffffffffffffffffffffffffffffffffffffffff1916901c6008858560018181106109d9576109d8613a3c565b5b9050013560f81c60f81b7effffffffffffffffffffffffffffffffffffffffffffffffffffffffffffff19167bffffffffffffffffffffffffffffffffffffffffffffffffffffffff1916901c85856000818110610a3a57610a39613a3c565b5b9050013560f81c60f81b7effffffffffffffffffffffffffffffffffffffffffffffffffffffffffffff1916171717905092915050565b60006060610a7d612dab565b6000638b92696a60e01b7bffffffffffffffffffffffffffffffffffffffffffffffffffffffff1916877bffffffffffffffffffffffffffffffffffffffffffffffffffffffff191603610afb57610ae686866004908092610ae193929190613bf9565b611701565b80945081955082965083975050505050610c30565b63b9f45adb60e01b7bffffffffffffffffffffffffffffffffffffffffffffffffffffffff1916877bffffffffffffffffffffffffffffffffffffffffffffffffffffffff191603610b7757610b6286866004908092610b5d93929190613bf9565b6118a8565b80945081955082965083975050505050610c2f565b63a873882560e01b7bffffffffffffffffffffffffffffffffffffffffffffffffffffffff1916877bffffffffffffffffffffffffffffffffffffffffffffffffffffffff191603610bf357610bde86866004908092610bd993929190613bf9565b611a4f565b80945081955082965083975050505050610c2e565b6040517f08c379a0000000000000000000000000000000000000000000000000000000008152600401610c2590613ca6565b60405180910390fd5b5b5b93509350935093565b6000610c508686610c4987610fbe565b8686611137565b9050610ca381600260008973ffffffffffffffffffffffffffffffffffffffff1673ffffffffffffffffffffffffffffffffffffffff168152602001908152602001600020611c1390919063ffffffff16565b15610ce3576040517f08c379a0000000000000000000000000000000000000000000000000000000008152600401610cda90613d12565b60405180910390fd5b610cf281878787876006611c2a565b610d4381600260008973ffffffffffffffffffffffffffffffffffffffff1673ffffffffffffffffffffffffffffffffffffffff168152602001908152602001600020611dfc90919063ffffffff16565b50808573ffffffffffffffffffffffffffffffffffffffff168773ffffffffffffffffffffffffffffffffffffffff167f73f079427211e7b93db86024054de0b3c4a076a36cf0f86d2c4bf0d112eb7f1d878787604051610da693929190613fce565b60405180910390a495945050505050565b6060610dc582600001611e13565b9050919050565b6000806000600480811115610de457610de3613a6b565b5b905060005b818111610f85576000816004811115610e0557610e04613a6b565b5b9050610e22816004811115610e1d57610e1c613a6b565b5b611e6f565b610e2c5750610f72565b6000866000836004811115610e4457610e43613a6b565b5b6004811115610e5657610e55613a6b565b5b815260200190815260200160002060009054906101000a900473ffffffffffffffffffffffffffffffffffffffff169050610e9081611eb0565b60006376474e6a60e01b8a8a604051602401610ead929190614013565b604051602081830303815290604052907bffffffffffffffffffffffffffffffffffffffffffffffffffffffff19166020820180517bffffffffffffffffffffffffffffffffffffffffffffffffffffffff838183161783525050505090506000610f4e83836040518060400160405280601381526020017f4f70732e7072654372656174655461736b3a2000000000000000000000000000815250611f22565b91505080806020019051810190610f659190614068565b809b50819c505050505050505b8080610f7d90613ac9565b915050610de9565b5085859250925050935093915050565b60007fb53127684a568b3173ae13b9f8a6016e243e63b6e8ee1178d6a717850b5d610354905090565b6000601882600381518110610fd657610fd5613a3c565b5b602001015160f81c60f81b7effffffffffffffffffffffffffffffffffffffffffffffffffffffffffffff19167bffffffffffffffffffffffffffffffffffffffffffffffffffffffff1916901c60108360028151811061103a57611039613a3c565b5b602001015160f81c60f81b7effffffffffffffffffffffffffffffffffffffffffffffffffffffffffffff19167bffffffffffffffffffffffffffffffffffffffffffffffffffffffff1916901c60088460018151811061109e5761109d613a3c565b5b602001015160f81c60f81b7effffffffffffffffffffffffffffffffffffffffffffffffffffffffffffff19167bffffffffffffffffffffffffffffffffffffffffffffffffffffffff1916901c84600081518110611100576110ff613a3c565b5b602001015160f81c60f81b7effffffffffffffffffffffffffffffffffffffffffffffffffffffffffffff19161717179050919050565b60006111468360000151611fac565b156111bc576000611175846020015160008151811061116857611167613a3c565b5b60200260200101516120bd565b90506111b4878787600073ffffffffffffffffffffffffffffffffffffffff168773ffffffffffffffffffffffffffffffffffffffff161487866120ce565b9150506111ee565b85858585856040516020016111d59594939291906140e3565b6040516020818303038152906040528051906020012090505b95945050505050565b61124889600260008b73ffffffffffffffffffffffffffffffffffffffff1673ffffffffffffffffffffffffffffffffffffffff168152602001908152602001600020611c1390919063ffffffff16565b611287576040517f08c379a000000000000000000000000000000000000000000000000000000000815260040161127e90614189565b60405180910390fd5b816112d5578360038190555082600460006101000a81548173ffffffffffffffffffffffffffffffffffffffff021916908373ffffffffffffffffffffffffffffffffffffffff1602179055505b60006112e78a8a8a8a8a87600661210d565b90508215611383577f000000000000000000000000000000000000000000000000000000000000000073ffffffffffffffffffffffffffffffffffffffff1663a3f1233e8a86886040518463ffffffff1660e01b815260040161134c939291906141a9565b600060405180830381600087803b15801561136657600080fd5b505af115801561137a573d6000803e3d6000fd5b505050506113af565b600360009055600460006101000a81549073ffffffffffffffffffffffffffffffffffffffff02191690555b8773ffffffffffffffffffffffffffffffffffffffff168473ffffffffffffffffffffffffffffffffffffffff16867fa458375b1282695a972870cbfbc4891a9d856b79d563d17667d171d87e0c527a8a8e86604051611411939291906141ef565b60405180910390a450505050505050505050565b60008060048081111561143b5761143a613a6b565b5b905060005b8181116115d657600081600481111561145c5761145b613a6b565b5b905061147981600481111561147457611473613a6b565b5b6121b5565b61148357506115c3565b600085600083600481111561149b5761149a613a6b565b5b60048111156114ad576114ac613a6b565b5b815260200190815260200160002060009054906101000a900473ffffffffffffffffffffffffffffffffffffffff1690506114e781611eb0565b60006314ae992660e01b898960405160240161150492919061422d565b604051602081830303815290604052907bffffffffffffffffffffffffffffffffffffffffffffffffffffffff19166020820180517bffffffffffffffffffffffffffffffffffffffffffffffffffffffff8381831617835250505050905060006115a583836040518060400160405280601381526020017f4f70732e70726543616e63656c5461736b3a2000000000000000000000000000815250611f22565b915050808060200190518101906115bc9190614256565b9850505050505b80806115ce90613ac9565b915050611440565b50839150509392505050565b61163381600260008573ffffffffffffffffffffffffffffffffffffffff1673ffffffffffffffffffffffffffffffffffffffff168152602001908152602001600020611c1390919063ffffffff16565b611672576040517f08c379a0000000000000000000000000000000000000000000000000000000008152600401611669906142cf565b60405180910390fd5b6116c381600260008573ffffffffffffffffffffffffffffffffffffffff1673ffffffffffffffffffffffffffffffffffffffff16815260200190815260200160002061222690919063ffffffff16565b507f44d83729a43f9c6046446df014d073dd242e0ad672071e9b292f31b669c25b0981836040516116f592919061422d565b60405180910390a15050565b6000606061170d612dab565b6000806000606088888101906117239190614330565b809450819550829650839a50505050506000600167ffffffffffffffff8111156117505761174f613351565b5b60405190808252806020026020018201604052801561177e5781602001602082028036833780820191505090505b50905060008160008151811061179757611796613a3c565b5b602002602001019060048111156117b1576117b0613a6b565b5b908160048111156117c5576117c4613a6b565b5b815250506000600167ffffffffffffffff8111156117e6576117e5613351565b5b60405190808252806020026020018201604052801561181957816020015b60608152602001906001900390816118045790505b509050838360405160200161182f9291906143b3565b6040516020818303038152906040528160008151811061185257611851613a3c565b5b60200260200101819052506040518060400160405280838152602001828152509650846040516020016118859190614404565b604051602081830303815290604052975060009550505050505092959194509250565b600060606118b4612dab565b6000806000606088888101906118ca919061441f565b809850819550829650839750849b5050505050506000600167ffffffffffffffff8111156118fb576118fa613351565b5b6040519080825280602002602001820160405280156119295781602001602082028036833780820191505090505b50905060008160008151811061194257611941613a3c565b5b6020026020010190600481111561195c5761195b613a6b565b5b908160048111156119705761196f613a6b565b5b815250506000600167ffffffffffffffff81111561199157611990613351565b5b6040519080825280602002602001820160405280156119c457816020015b60608152602001906001900390816119af5790505b50905083836040516020016119da9291906143b3565b604051602081830303815290604052816000815181106119fd576119fc613a3c565b5b6020026020010181905250604051806040016040528083815260200182815250965084604051602001611a309190614404565b6040516020818303038152906040529750505050505092959194509250565b60006060611a5b612dab565b6000606080611a6a888861223d565b809550819650829750839950849a5050505050506000600267ffffffffffffffff811115611a9b57611a9a613351565b5b604051908082528060200260200182016040528015611ac95781602001602082028036833780820191505090505b509050600081600081518110611ae257611ae1613a3c565b5b60200260200101906004811115611afc57611afb613a6b565b5b90816004811115611b1057611b0f613a6b565b5b81525050600181600181518110611b2a57611b29613a3c565b5b60200260200101906004811115611b4457611b43613a6b565b5b90816004811115611b5857611b57613a6b565b5b815250506000600267ffffffffffffffff811115611b7957611b78613351565b5b604051908082528060200260200182016040528015611bac57816020015b6060815260200190600190039081611b975790505b5090508381600081518110611bc457611bc3613a3c565b5b60200260200101819052508281600181518110611be457611be3613a3c565b5b602002602001018190525060405180604001604052808381526020018281525095505050505092959194509250565b6000611c228360000183612303565b905092915050565b60008260000151519050611c42818460000151612326565b60005b81811015611df257600084600001518281518110611c6657611c65613a3c565b5b60200260200101519050611c8b816004811115611c8657611c85613a6b565b5b6124df565b611c955750611ddf565b6000846000836004811115611cad57611cac613a6b565b5b6004811115611cbf57611cbe613a6b565b5b815260200190815260200160002060009054906101000a900473ffffffffffffffffffffffffffffffffffffffff169050611cf981611eb0565b600063b0ccbdf060e01b8b8b8b8b8b602001518981518110611d1e57611d1d613a3c565b5b6020026020010151604051602401611d3a9594939291906144b6565b604051602081830303815290604052907bffffffffffffffffffffffffffffffffffffffffffffffffffffffff19166020820180517bffffffffffffffffffffffffffffffffffffffffffffffffffffffff83818316178352505050509050611dd982826040518060400160405280601281526020017f4f70732e6f6e4372656174655461736b3a200000000000000000000000000000815250611f22565b50505050505b8080611dea90613ac9565b915050611c45565b5050505050505050565b6000611e0b836000018361257e565b905092915050565b606081600001805480602002602001604051908101604052809291908181526020018280548015611e6357602002820191906000526020600020905b815481526020019060010190808311611e4f575b50505050509050919050565b600060026004811115611e8557611e84613a6b565b5b826004811115611e9857611e97613a6b565b5b03611ea65760019050611eab565b600090505b919050565b600073ffffffffffffffffffffffffffffffffffffffff168173ffffffffffffffffffffffffffffffffffffffff1603611f1f576040517f08c379a0000000000000000000000000000000000000000000000000000000008152600401611f1690614563565b60405180910390fd5b50565b600060608473ffffffffffffffffffffffffffffffffffffffff1684604051611f4b91906145bf565b600060405180830381855af49150503d8060008114611f86576040519150601f19603f3d011682016040523d82523d6000602084013e611f8b565b606091505b50809250819350505081611fa457611fa381846125ee565b5b935093915050565b60008082519050600181148015612002575060006004811115611fd257611fd1613a6b565b5b83600081518110611fe657611fe5613a3c565b5b6020026020010151600481111561200057611fff613a6b565b5b145b806120a3575060028114801561205757506000600481111561202757612026613a6b565b5b8360008151811061203b5761203a613a3c565b5b6020026020010151600481111561205557612054613a6b565b5b145b80156120a257506001600481111561207257612071613a6b565b5b8360018151811061208657612085613a3c565b5b602002602001015160048111156120a05761209f613a6b565b5b145b5b156120b25760019150506120b8565b60009150505b919050565b600081805190602001209050919050565b60008686868686866040516020016120eb969594939291906145d6565b6040516020818303038152906040528051906020012090509695505050505050565b60008061211a8584612755565b905061212a898989898986612892565b809750819850505061219687878a60405160200161214992919061467f565b6040516020818303038152906040526000876040518060400160405280600a81526020017f4f70732e657865633a2000000000000000000000000000000000000000000000815250612a05565b50809250506121a9898989898986612a9f565b50979650505050505050565b6000600160048111156121cb576121ca613a6b565b5b8260048111156121de576121dd613a6b565b5b148061220e5750600260048111156121f9576121f8613a6b565b5b82600481111561220c5761220b613a6b565b5b145b1561221c5760019050612221565b600090505b919050565b60006122358360000183612be5565b905092915050565b6000606060006060806000806000806000806000808e8e81019061226191906146d3565b9750975097509750975097509750975085856040516020016122839190614404565b6040516020818303038152906040528261229d57836122a0565b60005b93508386866040516020016122b69291906143b3565b6040516020818303038152906040528b8b6040516020016122d892919061363b565b6040516020818303038152906040529c509c509c509c509c5050505050505050509295509295909350565b600080836001016000848152602001908152602001600020541415905092915050565b60018211156124db57600080600481111561234457612343613a6b565b5b8260008151811061235857612357613a3c565b5b6020026020010151600481111561237257612371613a6b565b5b14905060005b60018461238591906147a5565b8110156124d85782818151811061239f5761239e613a3c565b5b602002602001015160048111156123b9576123b8613a6b565b5b836001836123c791906147d9565b815181106123d8576123d7613a3c565b5b602002602001015160048111156123f2576123f1613a6b565b5b11612432576040517f08c379a00000000000000000000000000000000000000000000000000000000081526004016124299061487b565b60405180910390fd5b81156124c55760048081111561244b5761244a613a6b565b5b8360018361245991906147d9565b8151811061246a57612469613a3c565b5b6020026020010151600481111561248457612483613a6b565b5b036124c4576040517f08c379a00000000000000000000000000000000000000000000000000000000081526004016124bb9061490d565b60405180910390fd5b5b80806124d090613ac9565b915050612378565b50505b5050565b6000600160048111156124f5576124f4613a6b565b5b82600481111561250857612507613a6b565b5b148061253857506002600481111561252357612522613a6b565b5b82600481111561253657612535613a6b565b5b145b80612566575060048081111561255157612550613a6b565b5b82600481111561256457612563613a6b565b5b145b156125745760019050612579565b600090505b919050565b600061258a8383612303565b6125e35782600001829080600181540180825580915050600190039060005260206000200160009091909190915055826000018054905083600101600084815260200190815260200160002081905550600190506125e8565b600090505b92915050565b6004602083516125fe919061495c565b036126f9576000826020015190506308c379a060e01b817bffffffffffffffffffffffffffffffffffffffffffffffffffffffff19160361269d5760448301925081836040516020016126529291906149c9565b6040516020818303038152906040526040517f08c379a000000000000000000000000000000000000000000000000000000000815260040161269491906131c1565b60405180910390fd5b816040516020016126ae9190614a39565b6040516020818303038152906040526040517f08c379a00000000000000000000000000000000000000000000000000000000081526004016126f091906131c1565b60405180910390fd5b8060405160200161270a9190614aa7565b6040516020818303038152906040526040517f08c379a000000000000000000000000000000000000000000000000000000000815260040161274c91906131c1565b60405180910390fd5b606060008351905060008167ffffffffffffffff81111561277957612778613351565b5b6040519080825280602002602001820160405280156127a75781602001602082028036833780820191505090505b50905060005b82811015612886578460008783815181106127cb576127ca613a3c565b5b602002602001015160048111156127e5576127e4613a6b565b5b60048111156127f7576127f6613a6b565b5b815260200190815260200160002060009054906101000a900473ffffffffffffffffffffffffffffffffffffffff1682828151811061283957612838613a3c565b5b602002602001019073ffffffffffffffffffffffffffffffffffffffff16908173ffffffffffffffffffffffffffffffffffffffff1681525050808061287e90613ac9565b9150506127ad565b50809250505092915050565b6000606060008451905060005b818110156129f2576128dc8682815181106128bd576128bc613a3c565b5b602002602001015160048111156128d7576128d6613a6b565b5b612cf9565b156129df57600063c10304f760e01b8b8b8b8b6040516024016129029493929190614ac9565b604051602081830303815290604052907bffffffffffffffffffffffffffffffffffffffffffffffffffffffff19166020820180517bffffffffffffffffffffffffffffffffffffffffffffffffffffffff8381831617835250505050905060006129bd87848151811061297957612978613a3c565b5b6020026020010151836040518060400160405280601181526020017f4f70732e7072654578656343616c6c3a20000000000000000000000000000000815250611f22565b915050808060200190518101906129d49190614b85565b809a50819b50505050505b80806129ea90613ac9565b91505061289f565b5086869250925050965096945050505050565b600060608673ffffffffffffffffffffffffffffffffffffffff168587604051612a2f91906145bf565b60006040518083038185875af1925050503d8060008114612a6c576040519150601f19603f3d011682016040523d82523d6000602084013e612a71565b606091505b50809250819350505081158015612a855750835b15612a9557612a9481846125ee565b5b9550959350505050565b60008151905060005b81811015612bdb57612ae5848281518110612ac657612ac5613a3c565b5b60200260200101516004811115612ae057612adf613a6b565b5b612d6a565b15612bc857600063b2db0b4160e01b89898989604051602401612b0b9493929190614ac9565b604051602081830303815290604052907bffffffffffffffffffffffffffffffffffffffffffffffffffffffff19166020820180517bffffffffffffffffffffffffffffffffffffffffffffffffffffffff83818316178352505050509050612bc4848381518110612b8057612b7f613a3c565b5b6020026020010151826040518060400160405280601281526020017f4f70732e706f73744578656343616c6c3a200000000000000000000000000000815250611f22565b5050505b8080612bd390613ac9565b915050612aa8565b5050505050505050565b60008083600101600084815260200190815260200160002054905060008114612ced576000600182612c1791906147a5565b9050600060018660000180549050612c2f91906147a5565b9050818114612c9e576000866000018281548110612c5057612c4f613a3c565b5b9060005260206000200154905080876000018481548110612c7457612c73613a3c565b5b90600052602060002001819055508387600101600083815260200190815260200160002081905550505b85600001805480612cb257612cb1614be1565b5b600190038181906000526020600020016000905590558560010160008681526020019081526020016000206000905560019350505050612cf3565b60009150505b92915050565b600060016004811115612d0f57612d0e613a6b565b5b826004811115612d2257612d21613a6b565b5b1480612d52575060026004811115612d3d57612d3c613a6b565b5b826004811115612d5057612d4f613a6b565b5b145b15612d605760019050612d65565b600090505b919050565b600060036004811115612d8057612d7f613a6b565b5b826004811115612d9357612d92613a6b565b5b03612da15760019050612da6565b600090505b919050565b604051806040016040528060608152602001606081525090565b6000604051905090565b600080fd5b600080fd5b600073ffffffffffffffffffffffffffffffffffffffff82169050919050565b6000612e0482612dd9565b9050919050565b612e1481612df9565b8114612e1f57600080fd5b50565b600081359050612e3181612e0b565b92915050565b600060208284031215612e4d57612e4c612dcf565b5b6000612e5b84828501612e22565b91505092915050565b600081519050919050565b600082825260208201905092915050565b6000819050602082019050919050565b6000819050919050565b612ea381612e90565b82525050565b6000612eb58383612e9a565b60208301905092915050565b6000602082019050919050565b6000612ed982612e64565b612ee38185612e6f565b9350612eee83612e80565b8060005b83811015612f1f578151612f068882612ea9565b9750612f1183612ec1565b925050600181019050612ef2565b5085935050505092915050565b60006020820190508181036000830152612f468184612ece565b905092915050565b612f5781612e90565b8114612f6257600080fd5b50565b600081359050612f7481612f4e565b92915050565b600060208284031215612f9057612f8f612dcf565b5b6000612f9e84828501612f65565b91505092915050565b612fb081612df9565b82525050565b6000602082019050612fcb6000830184612fa7565b92915050565b600080fd5b600080fd5b600080fd5b60008083601f840112612ff657612ff5612fd1565b5b8235905067ffffffffffffffff81111561301357613012612fd6565b5b60208301915083600182028301111561302f5761302e612fdb565b5b9250929050565b600080fd5b60006040828403121561305157613050613036565b5b81905092915050565b60008060008060006080868803121561307657613075612dcf565b5b600061308488828901612e22565b955050602086013567ffffffffffffffff8111156130a5576130a4612dd4565b5b6130b188828901612fe0565b9450945050604086013567ffffffffffffffff8111156130d4576130d3612dd4565b5b6130e08882890161303b565b92505060606130f188828901612e22565b9150509295509295909350565b61310781612e90565b82525050565b600060208201905061312260008301846130fe565b92915050565b600081519050919050565b600082825260208201905092915050565b60005b83811015613162578082015181840152602081019050613147565b83811115613171576000848401525b50505050565b6000601f19601f8301169050919050565b600061319382613128565b61319d8185613133565b93506131ad818560208601613144565b6131b681613177565b840191505092915050565b600060208201905081810360008301526131db8184613188565b905092915050565b60006131ee82612dd9565b9050919050565b6131fe816131e3565b82525050565b600060208201905061321960008301846131f5565b92915050565b60008083601f84011261323557613234612fd1565b5b8235905067ffffffffffffffff81111561325257613251612fd6565b5b60208301915083602082028301111561326e5761326d612fdb565b5b9250929050565b60008083601f84011261328b5761328a612fd1565b5b8235905067ffffffffffffffff8111156132a8576132a7612fd6565b5b6020830191508360208202830111156132c4576132c3612fdb565b5b9250929050565b600080600080604085870312156132e5576132e4612dcf565b5b600085013567ffffffffffffffff81111561330357613302612dd4565b5b61330f8782880161321f565b9450945050602085013567ffffffffffffffff81111561333257613331612dd4565b5b61333e87828801613275565b925092505092959194509250565b600080fd5b7f4e487b7100000000000000000000000000000000000000000000000000000000600052604160045260246000fd5b61338982613177565b810181811067ffffffffffffffff821117156133a8576133a7613351565b5b80604052505050565b60006133bb612dc5565b90506133c78282613380565b919050565b600067ffffffffffffffff8211156133e7576133e6613351565b5b6133f082613177565b9050602081019050919050565b82818337600083830152505050565b600061341f61341a846133cc565b6133b1565b90508281526020810184848401111561343b5761343a61334c565b5b6134468482856133fd565b509392505050565b600082601f83011261346357613462612fd1565b5b813561347384826020860161340c565b91505092915050565b6000819050919050565b61348f8161347c565b811461349a57600080fd5b50565b6000813590506134ac81613486565b92915050565b60008115159050919050565b6134c7816134b2565b81146134d257600080fd5b50565b6000813590506134e4816134be565b92915050565b600080600080600080600080610100898b03121561350b5761350a612dcf565b5b60006135198b828c01612e22565b985050602061352a8b828c01612e22565b975050604089013567ffffffffffffffff81111561354b5761354a612dd4565b5b6135578b828c0161344e565b965050606089013567ffffffffffffffff81111561357857613577612dd4565b5b6135848b828c0161303b565b95505060806135958b828c0161349d565b94505060a06135a68b828c01612e22565b93505060c06135b78b828c016134d5565b92505060e06135c88b828c016134d5565b9150509295985092959890939650565b6135e18161347c565b82525050565b60006040820190506135fc60008301856135d8565b6136096020830184612fa7565b9392505050565b60006fffffffffffffffffffffffffffffffff82169050919050565b61363581613610565b82525050565b6000604082019050613650600083018561362c565b61365d602083018461362c565b9392505050565b6005811061367157600080fd5b50565b60008135905061368381613664565b92915050565b60006020828403121561369f5761369e612dcf565b5b60006136ad84828501613674565b91505092915050565b60006020820190506136cb60008301846135d8565b92915050565b6000819050919050565b60006136f66136f16136ec84612dd9565b6136d1565b612dd9565b9050919050565b6000613708826136db565b9050919050565b600061371a826136fd565b9050919050565b61372a8161370f565b82525050565b60006020820190506137456000830184613721565b92915050565b6000819050919050565b61376661376182612e90565b61374b565b82525050565b60006137788284613755565b60208201915081905092915050565b600080fd5b600080fd5b600067ffffffffffffffff8211156137ac576137ab613351565b5b602082029050602081019050919050565b60006137d06137cb84613791565b6133b1565b905080838252602082019050602084028301858111156137f3576137f2612fdb565b5b835b8181101561381c57806138088882613674565b8452602084019350506020810190506137f5565b5050509392505050565b600082601f83011261383b5761383a612fd1565b5b813561384b8482602086016137bd565b91505092915050565b600067ffffffffffffffff82111561386f5761386e613351565b5b602082029050602081019050919050565b600061389361388e84613854565b6133b1565b905080838252602082019050602084028301858111156138b6576138b5612fdb565b5b835b818110156138fd57803567ffffffffffffffff8111156138db576138da612fd1565b5b8086016138e8898261344e565b855260208501945050506020810190506138b8565b5050509392505050565b600082601f83011261391c5761391b612fd1565b5b813561392c848260208601613880565b91505092915050565b60006040828403121561394b5761394a613787565b5b61395560406133b1565b9050600082013567ffffffffffffffff8111156139755761397461378c565b5b61398184828501613826565b600083015250602082013567ffffffffffffffff8111156139a5576139a461378c565b5b6139b184828501613907565b60208301525092915050565b60006139c93683613935565b9050919050565b7f4e4f545f415554484f52495a4544000000000000000000000000000000000000600082015250565b6000613a06600e83613133565b9150613a11826139d0565b602082019050919050565b60006020820190508181036000830152613a35816139f9565b9050919050565b7f4e487b7100000000000000000000000000000000000000000000000000000000600052603260045260246000fd5b7f4e487b7100000000000000000000000000000000000000000000000000000000600052602160045260246000fd5b7f4e487b7100000000000000000000000000000000000000000000000000000000600052601160045260246000fd5b6000613ad48261347c565b91507fffffffffffffffffffffffffffffffffffffffffffffffffffffffffffffffff8203613b0657613b05613a9a565b5b600182019050919050565b7f47656c61746f666965643a204f6e6c792067656c61746f000000000000000000600082015250565b6000613b47601783613133565b9150613b5282613b11565b602082019050919050565b60006020820190508181036000830152613b7681613b3a565b9050919050565b600080fd5b600080fd5b600080fd5b60008083356001602003843603038112613ba957613ba8613b7d565b5b80840192508235915067ffffffffffffffff821115613bcb57613bca613b82565b5b602083019250602082023603831315613be757613be6613b87565b5b509250929050565b600080fd5b600080fd5b60008085851115613c0d57613c0c613bef565b5b83861115613c1e57613c1d613bf4565b5b6001850283019150848603905094509492505050565b7f4f70732e6372656174655461736b3a2046756e6374696f6e206e6f7420666f7560008201527f6e64000000000000000000000000000000000000000000000000000000000000602082015250565b6000613c90602283613133565b9150613c9b82613c34565b604082019050919050565b60006020820190508181036000830152613cbf81613c83565b9050919050565b7f4f70732e6372656174655461736b3a204475706c6963617465207461736b0000600082015250565b6000613cfc601e83613133565b9150613d0782613cc6565b602082019050919050565b60006020820190508181036000830152613d2b81613cef565b9050919050565b600081519050919050565b600082825260208201905092915050565b6000613d5982613d32565b613d638185613d3d565b9350613d73818560208601613144565b613d7c81613177565b840191505092915050565b600081519050919050565b600082825260208201905092915050565b6000819050602082019050919050565b60058110613dc457613dc3613a6b565b5b50565b6000819050613dd582613db3565b919050565b6000613de582613dc7565b9050919050565b613df581613dda565b82525050565b6000613e078383613dec565b60208301905092915050565b6000602082019050919050565b6000613e2b82613d87565b613e358185613d92565b9350613e4083613da3565b8060005b83811015613e71578151613e588882613dfb565b9750613e6383613e13565b925050600181019050613e44565b5085935050505092915050565b600081519050919050565b600082825260208201905092915050565b6000819050602082019050919050565b600082825260208201905092915050565b6000613ec682613d32565b613ed08185613eaa565b9350613ee0818560208601613144565b613ee981613177565b840191505092915050565b6000613f008383613ebb565b905092915050565b6000602082019050919050565b6000613f2082613e7e565b613f2a8185613e89565b935083602082028501613f3c85613e9a565b8060005b85811015613f785784840389528151613f598582613ef4565b9450613f6483613f08565b925060208a01995050600181019050613f40565b50829750879550505050505092915050565b60006040830160008301518482036000860152613fa78282613e20565b91505060208301518482036020860152613fc18282613f15565b9150508091505092915050565b60006060820190508181036000830152613fe88186613d4e565b90508181036020830152613ffc8185613f8a565b905061400b6040830184612fa7565b949350505050565b60006040820190506140286000830185612fa7565b6140356020830184612fa7565b9392505050565b614045816131e3565b811461405057600080fd5b50565b6000815190506140628161403c565b92915050565b6000806040838503121561407f5761407e612dcf565b5b600061408d85828601614053565b925050602061409e85828601614053565b9150509250929050565b60007fffffffff0000000000000000000000000000000000000000000000000000000082169050919050565b6140dd816140a8565b82525050565b600060a0820190506140f86000830188612fa7565b6141056020830187612fa7565b61411260408301866140d4565b81810360608301526141248185613f8a565b90506141336080830184612fa7565b9695505050505050565b7f4f70732e657865633a205461736b206e6f7420666f756e640000000000000000600082015250565b6000614173601883613133565b915061417e8261413d565b602082019050919050565b600060208201905081810360008301526141a281614166565b9050919050565b60006060820190506141be6000830186612fa7565b6141cb6020830185612fa7565b6141d860408301846135d8565b949350505050565b6141e9816134b2565b82525050565b600060608201905081810360008301526142098186613d4e565b905061421860208301856130fe565b61422560408301846141e0565b949350505050565b600060408201905061424260008301856130fe565b61424f6020830184612fa7565b9392505050565b60006020828403121561426c5761426b612dcf565b5b600061427a84828501614053565b91505092915050565b7f4f70732e63616e63656c5461736b3a205461736b206e6f7420666f756e640000600082015250565b60006142b9601e83613133565b91506142c482614283565b602082019050919050565b600060208201905081810360008301526142e8816142ac565b9050919050565b6000813590506142fe8161403c565b92915050565b61430d816140a8565b811461431857600080fd5b50565b60008135905061432a81614304565b92915050565b6000806000806080858703121561434a57614349612dcf565b5b6000614358878288016142ef565b94505060206143698782880161431b565b935050604061437a878288016142ef565b925050606085013567ffffffffffffffff81111561439b5761439a612dd4565b5b6143a78782880161344e565b91505092959194509250565b60006040820190506143c86000830185612fa7565b81810360208301526143da8184613d4e565b90509392505050565b6000819050919050565b6143fe6143f9826140a8565b6143e3565b82525050565b600061441082846143ed565b60048201915081905092915050565b600080600080600060a0868803121561443b5761443a612dcf565b5b6000614449888289016142ef565b955050602061445a8882890161431b565b945050604061446b888289016142ef565b935050606086013567ffffffffffffffff81111561448c5761448b612dd4565b5b6144988882890161344e565b92505060806144a9888289016142ef565b9150509295509295909350565b600060a0820190506144cb60008301886130fe565b6144d86020830187612fa7565b6144e56040830186612fa7565b81810360608301526144f78185613d4e565b9050818103608083015261450b8184613d4e565b90509695505050505050565b7f4f70732e5f6d6f64756c65496e697469616c697365643a204e6f7420696e6974600082015250565b600061454d602083613133565b915061455882614517565b602082019050919050565b6000602082019050818103600083015261457c81614540565b9050919050565b600081905092915050565b600061459982613d32565b6145a38185614583565b93506145b3818560208601613144565b80840191505092915050565b60006145cb828461458e565b915081905092915050565b600060c0820190506145eb6000830189612fa7565b6145f86020830188612fa7565b61460560408301876140d4565b61461260608301866141e0565b61461f6080830185612fa7565b61462c60a08301846130fe565b979650505050505050565b60008160601b9050919050565b600061464f82614637565b9050919050565b600061466182614644565b9050919050565b61467961467482612df9565b614656565b82525050565b600061468b828561458e565b91506146978284614668565b6014820191508190509392505050565b6146b081613610565b81146146bb57600080fd5b50565b6000813590506146cd816146a7565b92915050565b600080600080600080600080610100898b0312156146f4576146f3612dcf565b5b60006147028b828c016146be565b98505060206147138b828c016146be565b97505060406147248b828c016142ef565b96505060606147358b828c0161431b565b95505060806147468b828c016142ef565b94505060a089013567ffffffffffffffff81111561476757614766612dd4565b5b6147738b828c0161344e565b93505060c06147848b828c016142ef565b92505060e06147958b828c016134d5565b9150509295985092959890939650565b60006147b08261347c565b91506147bb8361347c565b9250828210156147ce576147cd613a9a565b5b828203905092915050565b60006147e48261347c565b91506147ef8361347c565b9250827fffffffffffffffffffffffffffffffffffffffffffffffffffffffffffffffff0382111561482457614823613a9a565b5b828201905092915050565b7f4f70732e5f76616c69644d6f64756c65733a20417363206f6e6c790000000000600082015250565b6000614865601b83613133565b91506148708261482f565b602082019050919050565b6000602082019050818103600083015261489481614858565b9050919050565b7f4f70732e5f76616c69644d6f64756c65733a204f6e6c79206f6e65207265736f60008201527f6c76657200000000000000000000000000000000000000000000000000000000602082015250565b60006148f7602483613133565b91506149028261489b565b604082019050919050565b60006020820190508181036000830152614926816148ea565b9050919050565b7f4e487b7100000000000000000000000000000000000000000000000000000000600052601260045260246000fd5b60006149678261347c565b91506149728361347c565b9250826149825761498161492d565b5b828206905092915050565b600081905092915050565b60006149a382613128565b6149ad818561498d565b93506149bd818560208601613144565b80840191505092915050565b60006149d58285614998565b91506149e18284614998565b91508190509392505050565b7f4e6f4572726f7253656c6563746f720000000000000000000000000000000000600082015250565b6000614a23600f8361498d565b9150614a2e826149ed565b600f82019050919050565b6000614a458284614998565b9150614a5082614a16565b915081905092915050565b7f556e657870656374656452657475726e64617461000000000000000000000000600082015250565b6000614a9160148361498d565b9150614a9c82614a5b565b601482019050919050565b6000614ab38284614998565b9150614abe82614a84565b915081905092915050565b6000608082019050614ade60008301876130fe565b614aeb6020830186612fa7565b614af86040830185612fa7565b8181036060830152614b0a8184613d4e565b905095945050505050565b6000614b28614b23846133cc565b6133b1565b905082815260208101848484011115614b4457614b4361334c565b5b614b4f848285613144565b509392505050565b600082601f830112614b6c57614b6b612fd1565b5b8151614b7c848260208601614b15565b91505092915050565b60008060408385031215614b9c57614b9b612dcf565b5b6000614baa85828601614053565b925050602083015167ffffffffffffffff811115614bcb57614bca612dd4565b5b614bd785828601614b57565b9150509250929050565b7f4e487b7100000000000000000000000000000000000000000000000000000000600052603160045260246000fdfea2646970667358221220d88ec05f2f64ab37f796d3ea233df06133ca349787688ef1259b574bcd54533964736f6c634300080e0033",
  "devdoc": {
    "kind": "dev",
    "methods": {
      "cancelTask(bytes32)": {
        "params": {
          "taskId": "Unique hash of the task that is being cancelled. {See LibTaskId-getTaskId}"
        }
      },
      "createTask(address,bytes,(uint8[],bytes[]),address)": {
        "params": {
          "execAddress": "Address of contract that should be called by Gelato.",
          "execData": "Execution data to be called with / function selector if execution data is yet to be determined.",
          "feeToken": "Address of token to be used as payment. Use address(0) if TaskTreasury is being used, 0xeeeeee... for ETH or native tokens.",
          "moduleData": "Conditional modules that will be used. {See LibDataTypes-ModuleData}"
        },
        "returns": {
          "taskId": "Unique hash of the task created."
        }
      },
      "exec(address,address,bytes,(uint8[],bytes[]),uint256,address,bool,bool)": {
        "params": {
          "execAddress": "Address of contract that should be called by Gelato.",
          "execData": "Execution data to be called with / function selector if execution data is yet to be determined.",
          "feeToken": "Token used to pay for the execution. ETH = 0xeeeeee...",
          "moduleData": "Conditional modules that will be used. {See LibDataTypes-ModuleData}",
          "revertOnFailure": "To revert or not if call to execAddress fails. (Used for off-chain simulations)",
          "taskCreator": "The address which created the task.",
          "txFee": "Fee paid to Gelato for execution, deducted on the TaskTreasury or transfered to Gelato.",
          "useTaskTreasuryFunds": "If taskCreator's balance on TaskTreasury should pay for the tx."
        }
      },
      "getFeeDetails()": {
        "returns": {
          "_0": "uint256 Fee amount to be paid.",
          "_1": "address Token to be paid. (Determined and passed by taskCreator during createTask)"
        }
      },
      "getTaskIdsByUser(address)": {
        "params": {
          "taskCreator": "Address of task creator to query."
        },
        "returns": {
          "_0": "bytes32[] List of taskIds created."
        }
      },
      "setModule(uint8[],address[])": {
        "params": {
          "moduleAddresses": "List of addresses for respective modules.",
          "modules": "List of modules to be set"
        }
      }
    },
    "stateVariables": {
      "taskTreasury": {
        "return": "ITaskTreasuryUpgradable TaskTreasury contract interface",
        "returns": {
          "_0": "ITaskTreasuryUpgradable TaskTreasury contract interface"
        }
      }
    },
    "version": 1
  },
  "userdoc": {
    "kind": "user",
    "methods": {
      "cancelTask(bytes32)": {
        "notice": "Terminates a task that was created and Gelato can no longer execute it."
      },
      "createTask(address,bytes,(uint8[],bytes[]),address)": {
        "notice": "Initiates a task with conditions which Gelato will monitor and execute when conditions are met."
      },
      "exec(address,address,bytes,(uint8[],bytes[]),uint256,address,bool,bool)": {
        "notice": "Execution API called by Gelato."
      },
      "getFeeDetails()": {
        "notice": "Helper function to query fee and feeToken to be used for payment. (For executions which pays itself)"
      },
      "getTaskIdsByUser(address)": {
        "notice": "Helper func to query all open tasks by a task creator."
      },
      "setModule(uint8[],address[])": {
        "notice": "Sets the address of task modules. Only callable by proxy admin."
      },
      "taskTreasury()": {
        "notice": "TaskTreasury contract where user deposit funds to be used for fee payments."
      }
    },
    "notice": "Ops enables everyone to have Gelato monitor and execute transactions.ExecAddress refers to the contract that has the function which Gelato will call.Modules allow users to customise conditions and specifications when creating a task.",
    "version": 1
  },
  "storageLayout": {
    "storage": [
      {
        "astId": 2351,
        "contract": "contracts/Ops.sol:Ops",
        "label": "taskCreator",
        "offset": 0,
        "slot": "0",
        "type": "t_mapping(t_bytes32,t_address)"
      },
      {
        "astId": 2356,
        "contract": "contracts/Ops.sol:Ops",
        "label": "execAddresses",
        "offset": 0,
        "slot": "1",
        "type": "t_mapping(t_bytes32,t_address)"
      },
      {
        "astId": 2362,
        "contract": "contracts/Ops.sol:Ops",
        "label": "_createdTasks",
        "offset": 0,
        "slot": "2",
        "type": "t_mapping(t_address,t_struct(Bytes32Set)1433_storage)"
      },
      {
        "astId": 2364,
        "contract": "contracts/Ops.sol:Ops",
        "label": "fee",
        "offset": 0,
        "slot": "3",
        "type": "t_uint256"
      },
      {
        "astId": 2366,
        "contract": "contracts/Ops.sol:Ops",
        "label": "feeToken",
        "offset": 0,
        "slot": "4",
        "type": "t_address"
      },
      {
        "astId": 2372,
        "contract": "contracts/Ops.sol:Ops",
        "label": "timedTask",
        "offset": 0,
        "slot": "5",
        "type": "t_mapping(t_bytes32,t_struct(Time)3570_storage)"
      },
      {
        "astId": 2377,
        "contract": "contracts/Ops.sol:Ops",
        "label": "taskModuleAddresses",
        "offset": 0,
        "slot": "6",
        "type": "t_mapping(t_enum(Module)3557,t_address)"
      }
    ],
    "types": {
      "t_address": {
        "encoding": "inplace",
        "label": "address",
        "numberOfBytes": "20"
      },
      "t_array(t_bytes32)dyn_storage": {
        "base": "t_bytes32",
        "encoding": "dynamic_array",
        "label": "bytes32[]",
        "numberOfBytes": "32"
      },
      "t_bytes32": {
        "encoding": "inplace",
        "label": "bytes32",
        "numberOfBytes": "32"
      },
      "t_enum(Module)3557": {
        "encoding": "inplace",
        "label": "enum LibDataTypes.Module",
        "numberOfBytes": "1"
      },
      "t_mapping(t_address,t_struct(Bytes32Set)1433_storage)": {
        "encoding": "mapping",
        "key": "t_address",
        "label": "mapping(address => struct EnumerableSet.Bytes32Set)",
        "numberOfBytes": "32",
        "value": "t_struct(Bytes32Set)1433_storage"
      },
      "t_mapping(t_bytes32,t_address)": {
        "encoding": "mapping",
        "key": "t_bytes32",
        "label": "mapping(bytes32 => address)",
        "numberOfBytes": "32",
        "value": "t_address"
      },
      "t_mapping(t_bytes32,t_struct(Time)3570_storage)": {
        "encoding": "mapping",
        "key": "t_bytes32",
        "label": "mapping(bytes32 => struct LibDataTypes.Time)",
        "numberOfBytes": "32",
        "value": "t_struct(Time)3570_storage"
      },
      "t_mapping(t_bytes32,t_uint256)": {
        "encoding": "mapping",
        "key": "t_bytes32",
        "label": "mapping(bytes32 => uint256)",
        "numberOfBytes": "32",
        "value": "t_uint256"
      },
      "t_mapping(t_enum(Module)3557,t_address)": {
        "encoding": "mapping",
        "key": "t_enum(Module)3557",
        "label": "mapping(enum LibDataTypes.Module => address)",
        "numberOfBytes": "32",
        "value": "t_address"
      },
      "t_struct(Bytes32Set)1433_storage": {
        "encoding": "inplace",
        "label": "struct EnumerableSet.Bytes32Set",
        "members": [
          {
            "astId": 1432,
            "contract": "contracts/Ops.sol:Ops",
            "label": "_inner",
            "offset": 0,
            "slot": "0",
            "type": "t_struct(Set)1239_storage"
          }
        ],
        "numberOfBytes": "64"
      },
      "t_struct(Set)1239_storage": {
        "encoding": "inplace",
        "label": "struct EnumerableSet.Set",
        "members": [
          {
            "astId": 1234,
            "contract": "contracts/Ops.sol:Ops",
            "label": "_values",
            "offset": 0,
            "slot": "0",
            "type": "t_array(t_bytes32)dyn_storage"
          },
          {
            "astId": 1238,
            "contract": "contracts/Ops.sol:Ops",
            "label": "_indexes",
            "offset": 0,
            "slot": "1",
            "type": "t_mapping(t_bytes32,t_uint256)"
          }
        ],
        "numberOfBytes": "64"
      },
      "t_struct(Time)3570_storage": {
        "encoding": "inplace",
        "label": "struct LibDataTypes.Time",
        "members": [
          {
            "astId": 3567,
            "contract": "contracts/Ops.sol:Ops",
            "label": "nextExec",
            "offset": 0,
            "slot": "0",
            "type": "t_uint128"
          },
          {
            "astId": 3569,
            "contract": "contracts/Ops.sol:Ops",
            "label": "interval",
            "offset": 16,
            "slot": "0",
            "type": "t_uint128"
          }
        ],
        "numberOfBytes": "32"
      },
      "t_uint128": {
        "encoding": "inplace",
        "label": "uint128",
        "numberOfBytes": "16"
      },
      "t_uint256": {
        "encoding": "inplace",
        "label": "uint256",
        "numberOfBytes": "32"
      }
    }
  }
}