{
  "address": "0x7A7680767a4e41Ace578470d8B0EB1Ff97b0c023",
  "abi": [
    {
      "inputs": [
        {
          "internalType": "address payable",
          "name": "_gelato",
          "type": "address"
        },
        {
          "internalType": "contract ITaskTreasuryUpgradable",
          "name": "_taskTreasury",
          "type": "address"
        }
      ],
      "stateMutability": "nonpayable",
      "type": "constructor"
    },
    {
      "anonymous": false,
      "inputs": [
        {
          "indexed": true,
          "internalType": "uint256",
          "name": "txFee",
          "type": "uint256"
        },
        {
          "indexed": true,
          "internalType": "address",
          "name": "feeToken",
          "type": "address"
        },
        {
          "indexed": true,
          "internalType": "address",
          "name": "execAddress",
          "type": "address"
        },
        {
          "indexed": false,
          "internalType": "bytes",
          "name": "execData",
          "type": "bytes"
        },
        {
          "indexed": false,
          "internalType": "bytes32",
          "name": "taskId",
          "type": "bytes32"
        },
        {
          "indexed": false,
          "internalType": "bool",
          "name": "callSuccess",
          "type": "bool"
        }
      ],
      "name": "ExecSuccess",
      "type": "event"
    },
    {
      "anonymous": false,
      "inputs": [
        {
          "indexed": false,
          "internalType": "bytes32",
          "name": "taskId",
          "type": "bytes32"
        },
        {
          "indexed": false,
          "internalType": "address",
          "name": "taskCreator",
          "type": "address"
        }
      ],
      "name": "TaskCancelled",
      "type": "event"
    },
    {
      "anonymous": false,
      "inputs": [
        {
          "indexed": false,
          "internalType": "address",
          "name": "taskCreator",
          "type": "address"
        },
        {
          "indexed": false,
          "internalType": "address",
          "name": "execAddress",
          "type": "address"
        },
        {
          "indexed": false,
          "internalType": "bytes4",
          "name": "selector",
          "type": "bytes4"
        },
        {
          "indexed": false,
          "internalType": "address",
          "name": "resolverAddress",
          "type": "address"
        },
        {
          "indexed": false,
          "internalType": "bytes32",
          "name": "taskId",
          "type": "bytes32"
        },
        {
          "indexed": false,
          "internalType": "bytes",
          "name": "resolverData",
          "type": "bytes"
        },
        {
          "indexed": false,
          "internalType": "bool",
          "name": "useTaskTreasuryFunds",
          "type": "bool"
        },
        {
          "indexed": false,
          "internalType": "address",
          "name": "feeToken",
          "type": "address"
        },
        {
          "indexed": false,
          "internalType": "bytes32",
          "name": "resolverHash",
          "type": "bytes32"
        }
      ],
      "name": "TaskCreated",
      "type": "event"
    },
    {
      "anonymous": false,
      "inputs": [
        {
          "indexed": true,
          "internalType": "bytes32",
          "name": "taskId",
          "type": "bytes32"
        },
        {
          "indexed": true,
          "internalType": "uint128",
          "name": "nextExec",
          "type": "uint128"
        },
        {
          "indexed": true,
          "internalType": "uint128",
          "name": "interval",
          "type": "uint128"
        }
      ],
      "name": "TimerSet",
      "type": "event"
    },
    {
      "inputs": [
        {
          "internalType": "bytes32",
          "name": "_taskId",
          "type": "bytes32"
        }
      ],
      "name": "cancelTask",
      "outputs": [],
      "stateMutability": "nonpayable",
      "type": "function"
    },
    {
      "inputs": [
        {
          "internalType": "address",
          "name": "_execAddress",
          "type": "address"
        },
        {
          "internalType": "bytes4",
          "name": "_execSelector",
          "type": "bytes4"
        },
        {
          "internalType": "address",
          "name": "_resolverAddress",
          "type": "address"
        },
        {
          "internalType": "bytes",
          "name": "_resolverData",
          "type": "bytes"
        }
      ],
      "name": "createTask",
      "outputs": [
        {
          "internalType": "bytes32",
          "name": "task",
          "type": "bytes32"
        }
      ],
      "stateMutability": "nonpayable",
      "type": "function"
    },
    {
      "inputs": [
        {
          "internalType": "address",
          "name": "_execAddress",
          "type": "address"
        },
        {
          "internalType": "bytes4",
          "name": "_execSelector",
          "type": "bytes4"
        },
        {
          "internalType": "address",
          "name": "_resolverAddress",
          "type": "address"
        },
        {
          "internalType": "bytes",
          "name": "_resolverData",
          "type": "bytes"
        },
        {
          "internalType": "address",
          "name": "_feeToken",
          "type": "address"
        }
      ],
      "name": "createTaskNoPrepayment",
      "outputs": [
        {
          "internalType": "bytes32",
          "name": "task",
          "type": "bytes32"
        }
      ],
      "stateMutability": "nonpayable",
      "type": "function"
    },
    {
      "inputs": [
        {
          "internalType": "uint128",
          "name": "_startTime",
          "type": "uint128"
        },
        {
          "internalType": "uint128",
          "name": "_interval",
          "type": "uint128"
        },
        {
          "internalType": "address",
          "name": "_execAddress",
          "type": "address"
        },
        {
          "internalType": "bytes4",
          "name": "_execSelector",
          "type": "bytes4"
        },
        {
          "internalType": "address",
          "name": "_resolverAddress",
          "type": "address"
        },
        {
          "internalType": "bytes",
          "name": "_resolverData",
          "type": "bytes"
        },
        {
          "internalType": "address",
          "name": "_feeToken",
          "type": "address"
        },
        {
          "internalType": "bool",
          "name": "_useTreasury",
          "type": "bool"
        }
      ],
      "name": "createTimedTask",
      "outputs": [
        {
          "internalType": "bytes32",
          "name": "task",
          "type": "bytes32"
        }
      ],
      "stateMutability": "nonpayable",
      "type": "function"
    },
    {
      "inputs": [
        {
          "internalType": "uint256",
          "name": "_txFee",
          "type": "uint256"
        },
        {
          "internalType": "address",
          "name": "_feeToken",
          "type": "address"
        },
        {
          "internalType": "address",
          "name": "_taskCreator",
          "type": "address"
        },
        {
          "internalType": "bool",
          "name": "_useTaskTreasuryFunds",
          "type": "bool"
        },
        {
          "internalType": "bool",
          "name": "_revertOnFailure",
          "type": "bool"
        },
        {
          "internalType": "bytes32",
          "name": "_resolverHash",
          "type": "bytes32"
        },
        {
          "internalType": "address",
          "name": "_execAddress",
          "type": "address"
        },
        {
          "internalType": "bytes",
          "name": "_execData",
          "type": "bytes"
        }
      ],
      "name": "exec",
      "outputs": [],
      "stateMutability": "nonpayable",
      "type": "function"
    },
    {
      "inputs": [
        {
          "internalType": "bytes32",
          "name": "",
          "type": "bytes32"
        }
      ],
      "name": "execAddresses",
      "outputs": [
        {
          "internalType": "address",
          "name": "",
          "type": "address"
        }
      ],
      "stateMutability": "view",
      "type": "function"
    },
    {
      "inputs": [],
      "name": "fee",
      "outputs": [
        {
          "internalType": "uint256",
          "name": "",
          "type": "uint256"
        }
      ],
      "stateMutability": "view",
      "type": "function"
    },
    {
      "inputs": [],
      "name": "feeToken",
      "outputs": [
        {
          "internalType": "address",
          "name": "",
          "type": "address"
        }
      ],
      "stateMutability": "view",
      "type": "function"
    },
    {
      "inputs": [],
      "name": "gelato",
      "outputs": [
        {
          "internalType": "address payable",
          "name": "",
          "type": "address"
        }
      ],
      "stateMutability": "view",
      "type": "function"
    },
    {
      "inputs": [],
      "name": "getFeeDetails",
      "outputs": [
        {
          "internalType": "uint256",
          "name": "",
          "type": "uint256"
        },
        {
          "internalType": "address",
          "name": "",
          "type": "address"
        }
      ],
      "stateMutability": "view",
      "type": "function"
    },
    {
      "inputs": [
        {
          "internalType": "address",
          "name": "_resolverAddress",
          "type": "address"
        },
        {
          "internalType": "bytes",
          "name": "_resolverData",
          "type": "bytes"
        }
      ],
      "name": "getResolverHash",
      "outputs": [
        {
          "internalType": "bytes32",
          "name": "",
          "type": "bytes32"
        }
      ],
      "stateMutability": "pure",
      "type": "function"
    },
    {
      "inputs": [
        {
          "internalType": "string",
          "name": "_func",
          "type": "string"
        }
      ],
      "name": "getSelector",
      "outputs": [
        {
          "internalType": "bytes4",
          "name": "",
          "type": "bytes4"
        }
      ],
      "stateMutability": "pure",
      "type": "function"
    },
    {
      "inputs": [
        {
          "internalType": "address",
          "name": "_taskCreator",
          "type": "address"
        },
        {
          "internalType": "address",
          "name": "_execAddress",
          "type": "address"
        },
        {
          "internalType": "bytes4",
          "name": "_selector",
          "type": "bytes4"
        },
        {
          "internalType": "bool",
          "name": "_useTaskTreasuryFunds",
          "type": "bool"
        },
        {
          "internalType": "address",
          "name": "_feeToken",
          "type": "address"
        },
        {
          "internalType": "bytes32",
          "name": "_resolverHash",
          "type": "bytes32"
        }
      ],
      "name": "getTaskId",
      "outputs": [
        {
          "internalType": "bytes32",
          "name": "",
          "type": "bytes32"
        }
      ],
      "stateMutability": "pure",
      "type": "function"
    },
    {
      "inputs": [
        {
          "internalType": "address",
          "name": "_taskCreator",
          "type": "address"
        }
      ],
      "name": "getTaskIdsByUser",
      "outputs": [
        {
          "internalType": "bytes32[]",
          "name": "",
          "type": "bytes32[]"
        }
      ],
      "stateMutability": "view",
      "type": "function"
    },
    {
      "inputs": [
        {
          "internalType": "bytes32",
          "name": "",
          "type": "bytes32"
        }
      ],
      "name": "taskCreator",
      "outputs": [
        {
          "internalType": "address",
          "name": "",
          "type": "address"
        }
      ],
      "stateMutability": "view",
      "type": "function"
    },
    {
      "inputs": [],
      "name": "taskTreasury",
      "outputs": [
        {
          "internalType": "contract ITaskTreasuryUpgradable",
          "name": "",
          "type": "address"
        }
      ],
      "stateMutability": "view",
      "type": "function"
    },
    {
      "inputs": [
        {
          "internalType": "bytes32",
          "name": "",
          "type": "bytes32"
        }
      ],
      "name": "timedTask",
      "outputs": [
        {
          "internalType": "uint128",
          "name": "nextExec",
          "type": "uint128"
        },
        {
          "internalType": "uint128",
          "name": "interval",
          "type": "uint128"
        }
      ],
      "stateMutability": "view",
      "type": "function"
    },
    {
      "inputs": [],
      "name": "version",
      "outputs": [
        {
          "internalType": "string",
          "name": "",
          "type": "string"
        }
      ],
      "stateMutability": "view",
      "type": "function"
    }
  ],
  "transactionHash": "0x6a595a3ba596532b763275da3b2d5027d20c6460ee5411eec4ed5c08715c2606",
  "args": [
    "0x25aD59adbe00C2d80c86d01e2E05e1294DA84823",
    "0xD167afcEE4E9A89e69646fd3C27e58b61d1b7f97"
  ],
  "numDeployments": 2,
  "solcInputHash": "012bc4531f5c67e4c12d3eb54471850b",
  "bytecode": "0x60c06040523480156200001157600080fd5b506040516200313d3803806200313d83398181016040528101906200003791906200016c565b818073ffffffffffffffffffffffffffffffffffffffff1660808173ffffffffffffffffffffffffffffffffffffffff1681525050508073ffffffffffffffffffffffffffffffffffffffff1660a08173ffffffffffffffffffffffffffffffffffffffff16815250505050620001b3565b600080fd5b600073ffffffffffffffffffffffffffffffffffffffff82169050919050565b6000620000db82620000ae565b9050919050565b620000ed81620000ce565b8114620000f957600080fd5b50565b6000815190506200010d81620000e2565b92915050565b60006200012082620000ae565b9050919050565b6000620001348262000113565b9050919050565b620001468162000127565b81146200015257600080fd5b50565b60008151905062000166816200013b565b92915050565b60008060408385031215620001865762000185620000a9565b5b60006200019685828601620000fc565b9250506020620001a98582860162000155565b9150509250929050565b60805160a051612f56620001e76000396000818161079b015261113801526000818161051e01526109410152612f566000f3fe608060405234801561001057600080fd5b50600436106101165760003560e01c80638b92696a116100a2578063b9f45adb11610071578063b9f45adb14610331578063cabcb34914610361578063ddca3f4314610391578063e60a3213146103af578063ee8ca3b5146103cd57610116565b80638b92696a14610281578063a8738825146102b1578063b810c636146102e1578063b81cd8661461030057610116565b8063573ea575116100e9578063573ea575146101b5578063647846a5146101d35780636d2dd29f146101f15780637b4e45e91461022157806380a003ff1461025157610116565b80630407145c1461011b5780630ea65a631461014b5780632e6e0bd01461016757806354fd4d5014610197575b600080fd5b61013560048036038101906101309190611bb2565b6103e9565b6040516101429190611ca7565b60405180910390f35b61016560048036038101906101609190611dc8565b61051c565b005b610181600480360381019061017c9190611e9e565b6108d3565b60405161018e9190611eda565b60405180910390f35b61019f610906565b6040516101ac9190611f8e565b60405180910390f35b6101bd61093f565b6040516101ca9190611fd1565b60405180910390f35b6101db610963565b6040516101e89190611eda565b60405180910390f35b61020b60048036038101906102069190611e9e565b610989565b6040516102189190611eda565b60405180910390f35b61023b60048036038101906102369190612044565b6109bc565b60405161024891906120e0565b60405180910390f35b61026b60048036038101906102669190612151565b6109fb565b60405161027891906121ad565b60405180910390f35b61029b600480360381019061029691906121c8565b610a1d565b6040516102a891906120e0565b60405180910390f35b6102cb60048036038101906102c69190612298565b610c5d565b6040516102d891906120e0565b60405180910390f35b6102e9610e31565b6040516102f792919061237d565b60405180910390f35b61031a60048036038101906103159190611e9e565b610e62565b6040516103289291906123b5565b60405180910390f35b61034b600480360381019061034691906123de565b610ebe565b60405161035891906120e0565b60405180910390f35b61037b600480360381019061037691906125a8565b6110fd565b60405161038891906120e0565b60405180910390f35b610399611130565b6040516103a69190612604565b60405180910390f35b6103b7611136565b6040516103c4919061267e565b60405180910390f35b6103e760048036038101906103e29190611e9e565b61115a565b005b60606000610434600260008573ffffffffffffffffffffffffffffffffffffffff1673ffffffffffffffffffffffffffffffffffffffff16815260200190815260200160002061142a565b905060008167ffffffffffffffff8111156104525761045161247d565b5b6040519080825280602002602001820160405280156104805781602001602082028036833780820191505090505b50905060005b82811015610511576104df81600260008873ffffffffffffffffffffffffffffffffffffffff1673ffffffffffffffffffffffffffffffffffffffff16815260200190815260200160002061143f90919063ffffffff16565b8282815181106104f2576104f1612699565b5b6020026020010181815250508080610509906126f7565b915050610486565b508092505050919050565b7f000000000000000000000000000000000000000000000000000000000000000073ffffffffffffffffffffffffffffffffffffffff163373ffffffffffffffffffffffffffffffffffffffff16146105aa576040517f08c379a00000000000000000000000000000000000000000000000000000000081526004016105a19061278c565b60405180910390fd5b60006105d088856105bb8686611456565b8a8b6105c7578d6105ca565b60005b8a6109bc565b90508773ffffffffffffffffffffffffffffffffffffffff1660008083815260200190815260200160002060009054906101000a900473ffffffffffffffffffffffffffffffffffffffff1673ffffffffffffffffffffffffffffffffffffffff1614610672576040517f08c379a0000000000000000000000000000000000000000000000000000000008152600401610669906127f8565b60405180910390fd5b866106c0578960038190555088600460006101000a81548173ffffffffffffffffffffffffffffffffffffffff021916908373ffffffffffffffffffffffffffffffffffffffff1602179055505b6106c9816115cc565b6000808573ffffffffffffffffffffffffffffffffffffffff1685856040516106f3929190612848565b6000604051808303816000865af19150503d8060008114610730576040519150601f19603f3d011682016040523d82523d6000602084013e610735565b606091505b5091509150811580156107455750875b15610793576107926040518060400160405280600981526020017f4f70732e657865633a0000000000000000000000000000000000000000000000815250826117af90919063ffffffff16565b5b881561082d577f000000000000000000000000000000000000000000000000000000000000000073ffffffffffffffffffffffffffffffffffffffff1663a3f1233e8b8d8f6040518463ffffffff1660e01b81526004016107f693929190612861565b600060405180830381600087803b15801561081057600080fd5b505af1158015610824573d6000803e3d6000fd5b50505050610859565b600360009055600460006101000a81549073ffffffffffffffffffffffffffffffffffffffff02191690555b8573ffffffffffffffffffffffffffffffffffffffff168b73ffffffffffffffffffffffffffffffffffffffff168d7fa458375b1282695a972870cbfbc4891a9d856b79d563d17667d171d87e0c527a888888886040516108bd94939291906128e5565b60405180910390a4505050505050505050505050565b60006020528060005260406000206000915054906101000a900473ffffffffffffffffffffffffffffffffffffffff1681565b6040518060400160405280600181526020017f340000000000000000000000000000000000000000000000000000000000000081525081565b7f000000000000000000000000000000000000000000000000000000000000000081565b600460009054906101000a900473ffffffffffffffffffffffffffffffffffffffff1681565b60016020528060005260406000206000915054906101000a900473ffffffffffffffffffffffffffffffffffffffff1681565b60008686868686866040516020016109d996959493929190612925565b6040516020818303038152906040528051906020012090509695505050505050565b60008282604051610a0d929190612848565b6040518091039020905092915050565b600080610a6e8585858080601f016020809104026020016040519081016040528093929190818152602001838380828437600081840152601f19601f820116905080830192505050505050506110fd565b9050610a8033888860016000866109bc565b9150610ad382600260003373ffffffffffffffffffffffffffffffffffffffff1673ffffffffffffffffffffffffffffffffffffffff16815260200190815260200160002061191890919063ffffffff16565b15610b13576040517f08c379a0000000000000000000000000000000000000000000000000000000008152600401610b0a906129f8565b60405180910390fd5b610b6482600260003373ffffffffffffffffffffffffffffffffffffffff1673ffffffffffffffffffffffffffffffffffffffff16815260200190815260200160002061192f90919063ffffffff16565b503360008084815260200190815260200160002060006101000a81548173ffffffffffffffffffffffffffffffffffffffff021916908373ffffffffffffffffffffffffffffffffffffffff160217905550866001600084815260200190815260200160002060006101000a81548173ffffffffffffffffffffffffffffffffffffffff021916908373ffffffffffffffffffffffffffffffffffffffff1602179055507fcfd64545826fbe236e660141349bd1ed0b30c9bec7e213894afd7745a1f76f3333888888868989600160008a604051610c4b9a99989796959493929190612a18565b60405180910390a15095945050505050565b600080896fffffffffffffffffffffffffffffffff1611610cb3576040517f08c379a0000000000000000000000000000000000000000000000000000000008152600401610caa90612b20565b60405180910390fd5b8115610ccd57610cc68888888888610a1d565b9050610cde565b610cdb888888888888610ebe565b90505b6000428b6fffffffffffffffffffffffffffffffff1611610cff5742610d01565b8a5b90506040518060400160405280826fffffffffffffffffffffffffffffffff1681526020018b6fffffffffffffffffffffffffffffffff168152506005600084815260200190815260200160002060008201518160000160006101000a8154816fffffffffffffffffffffffffffffffff02191690836fffffffffffffffffffffffffffffffff16021790555060208201518160000160106101000a8154816fffffffffffffffffffffffffffffffff02191690836fffffffffffffffffffffffffffffffff160217905550905050896fffffffffffffffffffffffffffffffff16816fffffffffffffffffffffffffffffffff16837f857791ec95701b6fff966bff1b5ce9a86107aeabaf6d2fdfd89993aa0f084e3760405160405180910390a4509998505050505050505050565b600080600354600460009054906101000a900473ffffffffffffffffffffffffffffffffffffffff16915091509091565b60056020528060005260406000206000915090508060000160009054906101000a90046fffffffffffffffffffffffffffffffff16908060000160109054906101000a90046fffffffffffffffffffffffffffffffff16905082565b600080610f0f8686868080601f016020809104026020016040519081016040528093929190818152602001838380828437600081840152601f19601f820116905080830192505050505050506110fd565b9050610f20338989600087866109bc565b9150610f7382600260003373ffffffffffffffffffffffffffffffffffffffff1673ffffffffffffffffffffffffffffffffffffffff16815260200190815260200160002061191890919063ffffffff16565b15610fb3576040517f08c379a0000000000000000000000000000000000000000000000000000000008152600401610faa906129f8565b60405180910390fd5b61100482600260003373ffffffffffffffffffffffffffffffffffffffff1673ffffffffffffffffffffffffffffffffffffffff16815260200190815260200160002061192f90919063ffffffff16565b503360008084815260200190815260200160002060006101000a81548173ffffffffffffffffffffffffffffffffffffffff021916908373ffffffffffffffffffffffffffffffffffffffff160217905550876001600084815260200190815260200160002060006101000a81548173ffffffffffffffffffffffffffffffffffffffff021916908373ffffffffffffffffffffffffffffffffffffffff1602179055507fcfd64545826fbe236e660141349bd1ed0b30c9bec7e213894afd7745a1f76f3333898989868a8a60008b8a6040516110ea9a99989796959493929190612a18565b60405180910390a1509695505050505050565b60008282604051602001611112929190612b84565b60405160208183030381529060405280519060200120905092915050565b60035481565b7f000000000000000000000000000000000000000000000000000000000000000081565b6111ab81600260003373ffffffffffffffffffffffffffffffffffffffff1673ffffffffffffffffffffffffffffffffffffffff16815260200190815260200160002061191890919063ffffffff16565b6111ea576040517f08c379a00000000000000000000000000000000000000000000000000000000081526004016111e190612c26565b60405180910390fd5b61123b81600260003373ffffffffffffffffffffffffffffffffffffffff1673ffffffffffffffffffffffffffffffffffffffff16815260200190815260200160002061194690919063ffffffff16565b5060008082815260200190815260200160002060006101000a81549073ffffffffffffffffffffffffffffffffffffffff02191690556001600082815260200190815260200160002060006101000a81549073ffffffffffffffffffffffffffffffffffffffff02191690556000600560008381526020019081526020016000206040518060400160405290816000820160009054906101000a90046fffffffffffffffffffffffffffffffff166fffffffffffffffffffffffffffffffff166fffffffffffffffffffffffffffffffff1681526020016000820160109054906101000a90046fffffffffffffffffffffffffffffffff166fffffffffffffffffffffffffffffffff166fffffffffffffffffffffffffffffffff1681525050905060008082600001516fffffffffffffffffffffffffffffffff161415611384576000611387565b60015b905080156113ec5760056000848152602001908152602001600020600080820160006101000a8154906fffffffffffffffffffffffffffffffff02191690556000820160106101000a8154906fffffffffffffffffffffffffffffffff021916905550505b7f44d83729a43f9c6046446df014d073dd242e0ad672071e9b292f31b669c25b09833360405161141d929190612c46565b60405180910390a1505050565b60006114388260000161195d565b9050919050565b600061144e836000018361196e565b905092915050565b600060188383600381811061146e5761146d612699565b5b9050013560f81c60f81b7effffffffffffffffffffffffffffffffffffffffffffffffffffffffffffff19167bffffffffffffffffffffffffffffffffffffffffffffffffffffffff1916901c6010848460028181106114d1576114d0612699565b5b9050013560f81c60f81b7effffffffffffffffffffffffffffffffffffffffffffffffffffffffffffff19167bffffffffffffffffffffffffffffffffffffffffffffffffffffffff1916901c60088585600181811061153457611533612699565b5b9050013560f81c60f81b7effffffffffffffffffffffffffffffffffffffffffffffffffffffffffffff19167bffffffffffffffffffffffffffffffffffffffffffffffffffffffff1916901c8585600081811061159557611594612699565b5b9050013560f81c60f81b7effffffffffffffffffffffffffffffffffffffffffffffffffffffffffffff1916171717905092915050565b60006005600083815260200190815260200160002090506000808260000160009054906101000a90046fffffffffffffffffffffffffffffffff166fffffffffffffffffffffffffffffffff161415611626576000611629565b60015b905080156117aa57426fffffffffffffffffffffffffffffffff168260000160009054906101000a90046fffffffffffffffffffffffffffffffff166fffffffffffffffffffffffffffffffff1611156116b8576040517f08c379a00000000000000000000000000000000000000000000000000000000081526004016116af90612cbb565b60405180910390fd5b60008260000160109054906101000a90046fffffffffffffffffffffffffffffffff168360000160009054906101000a90046fffffffffffffffffffffffffffffffff166117069190612cdb565b905060004290505b816fffffffffffffffffffffffffffffffff16816fffffffffffffffffffffffffffffffff161061176c578360000160109054906101000a90046fffffffffffffffffffffffffffffffff16826117659190612cdb565b915061170e565b818460000160006101000a8154816fffffffffffffffffffffffffffffffff02191690836fffffffffffffffffffffffffffffffff16021790555050505b505050565b6004602083516117bf9190612d50565b14156118bc576000826020015190506308c379a060e01b817bffffffffffffffffffffffffffffffffffffffffffffffffffffffff19161415611860576044830192508183604051602001611815929190612dbd565b6040516020818303038152906040526040517f08c379a00000000000000000000000000000000000000000000000000000000081526004016118579190611f8e565b60405180910390fd5b816040516020016118719190612e2d565b6040516020818303038152906040526040517f08c379a00000000000000000000000000000000000000000000000000000000081526004016118b39190611f8e565b60405180910390fd5b806040516020016118cd9190612e9b565b6040516020818303038152906040526040517f08c379a000000000000000000000000000000000000000000000000000000000815260040161190f9190611f8e565b60405180910390fd5b60006119278360000183611999565b905092915050565b600061193e83600001836119bc565b905092915050565b60006119558360000183611a2c565b905092915050565b600081600001805490509050919050565b600082600001828154811061198657611985612699565b5b9060005260206000200154905092915050565b600080836001016000848152602001908152602001600020541415905092915050565b60006119c88383611999565b611a21578260000182908060018154018082558091505060019003906000526020600020016000909190919091505582600001805490508360010160008481526020019081526020016000208190555060019050611a26565b600090505b92915050565b60008083600101600084815260200190815260200160002054905060008114611b34576000600182611a5e9190612ebd565b9050600060018660000180549050611a769190612ebd565b9050818114611ae5576000866000018281548110611a9757611a96612699565b5b9060005260206000200154905080876000018481548110611abb57611aba612699565b5b90600052602060002001819055508387600101600083815260200190815260200160002081905550505b85600001805480611af957611af8612ef1565b5b600190038181906000526020600020016000905590558560010160008681526020019081526020016000206000905560019350505050611b3a565b60009150505b92915050565b6000604051905090565b600080fd5b600080fd5b600073ffffffffffffffffffffffffffffffffffffffff82169050919050565b6000611b7f82611b54565b9050919050565b611b8f81611b74565b8114611b9a57600080fd5b50565b600081359050611bac81611b86565b92915050565b600060208284031215611bc857611bc7611b4a565b5b6000611bd684828501611b9d565b91505092915050565b600081519050919050565b600082825260208201905092915050565b6000819050602082019050919050565b6000819050919050565b611c1e81611c0b565b82525050565b6000611c308383611c15565b60208301905092915050565b6000602082019050919050565b6000611c5482611bdf565b611c5e8185611bea565b9350611c6983611bfb565b8060005b83811015611c9a578151611c818882611c24565b9750611c8c83611c3c565b925050600181019050611c6d565b5085935050505092915050565b60006020820190508181036000830152611cc18184611c49565b905092915050565b6000819050919050565b611cdc81611cc9565b8114611ce757600080fd5b50565b600081359050611cf981611cd3565b92915050565b60008115159050919050565b611d1481611cff565b8114611d1f57600080fd5b50565b600081359050611d3181611d0b565b92915050565b611d4081611c0b565b8114611d4b57600080fd5b50565b600081359050611d5d81611d37565b92915050565b600080fd5b600080fd5b600080fd5b60008083601f840112611d8857611d87611d63565b5b8235905067ffffffffffffffff811115611da557611da4611d68565b5b602083019150836001820283011115611dc157611dc0611d6d565b5b9250929050565b60008060008060008060008060006101008a8c031215611deb57611dea611b4a565b5b6000611df98c828d01611cea565b9950506020611e0a8c828d01611b9d565b9850506040611e1b8c828d01611b9d565b9750506060611e2c8c828d01611d22565b9650506080611e3d8c828d01611d22565b95505060a0611e4e8c828d01611d4e565b94505060c0611e5f8c828d01611b9d565b93505060e08a013567ffffffffffffffff811115611e8057611e7f611b4f565b5b611e8c8c828d01611d72565b92509250509295985092959850929598565b600060208284031215611eb457611eb3611b4a565b5b6000611ec284828501611d4e565b91505092915050565b611ed481611b74565b82525050565b6000602082019050611eef6000830184611ecb565b92915050565b600081519050919050565b600082825260208201905092915050565b60005b83811015611f2f578082015181840152602081019050611f14565b83811115611f3e576000848401525b50505050565b6000601f19601f8301169050919050565b6000611f6082611ef5565b611f6a8185611f00565b9350611f7a818560208601611f11565b611f8381611f44565b840191505092915050565b60006020820190508181036000830152611fa88184611f55565b905092915050565b6000611fbb82611b54565b9050919050565b611fcb81611fb0565b82525050565b6000602082019050611fe66000830184611fc2565b92915050565b60007fffffffff0000000000000000000000000000000000000000000000000000000082169050919050565b61202181611fec565b811461202c57600080fd5b50565b60008135905061203e81612018565b92915050565b60008060008060008060c0878903121561206157612060611b4a565b5b600061206f89828a01611b9d565b965050602061208089828a01611b9d565b955050604061209189828a0161202f565b94505060606120a289828a01611d22565b93505060806120b389828a01611b9d565b92505060a06120c489828a01611d4e565b9150509295509295509295565b6120da81611c0b565b82525050565b60006020820190506120f560008301846120d1565b92915050565b60008083601f84011261211157612110611d63565b5b8235905067ffffffffffffffff81111561212e5761212d611d68565b5b60208301915083600182028301111561214a57612149611d6d565b5b9250929050565b6000806020838503121561216857612167611b4a565b5b600083013567ffffffffffffffff81111561218657612185611b4f565b5b612192858286016120fb565b92509250509250929050565b6121a781611fec565b82525050565b60006020820190506121c2600083018461219e565b92915050565b6000806000806000608086880312156121e4576121e3611b4a565b5b60006121f288828901611b9d565b95505060206122038882890161202f565b945050604061221488828901611b9d565b935050606086013567ffffffffffffffff81111561223557612234611b4f565b5b61224188828901611d72565b92509250509295509295909350565b60006fffffffffffffffffffffffffffffffff82169050919050565b61227581612250565b811461228057600080fd5b50565b6000813590506122928161226c565b92915050565b60008060008060008060008060006101008a8c0312156122bb576122ba611b4a565b5b60006122c98c828d01612283565b99505060206122da8c828d01612283565b98505060406122eb8c828d01611b9d565b97505060606122fc8c828d0161202f565b965050608061230d8c828d01611b9d565b95505060a08a013567ffffffffffffffff81111561232e5761232d611b4f565b5b61233a8c828d01611d72565b945094505060c061234d8c828d01611b9d565b92505060e061235e8c828d01611d22565b9150509295985092959850929598565b61237781611cc9565b82525050565b6000604082019050612392600083018561236e565b61239f6020830184611ecb565b9392505050565b6123af81612250565b82525050565b60006040820190506123ca60008301856123a6565b6123d760208301846123a6565b9392505050565b60008060008060008060a087890312156123fb576123fa611b4a565b5b600061240989828a01611b9d565b965050602061241a89828a0161202f565b955050604061242b89828a01611b9d565b945050606087013567ffffffffffffffff81111561244c5761244b611b4f565b5b61245889828a01611d72565b9350935050608061246b89828a01611b9d565b9150509295509295509295565b600080fd5b7f4e487b7100000000000000000000000000000000000000000000000000000000600052604160045260246000fd5b6124b582611f44565b810181811067ffffffffffffffff821117156124d4576124d361247d565b5b80604052505050565b60006124e7611b40565b90506124f382826124ac565b919050565b600067ffffffffffffffff8211156125135761251261247d565b5b61251c82611f44565b9050602081019050919050565b82818337600083830152505050565b600061254b612546846124f8565b6124dd565b90508281526020810184848401111561256757612566612478565b5b612572848285612529565b509392505050565b600082601f83011261258f5761258e611d63565b5b813561259f848260208601612538565b91505092915050565b600080604083850312156125bf576125be611b4a565b5b60006125cd85828601611b9d565b925050602083013567ffffffffffffffff8111156125ee576125ed611b4f565b5b6125fa8582860161257a565b9150509250929050565b6000602082019050612619600083018461236e565b92915050565b6000819050919050565b600061264461263f61263a84611b54565b61261f565b611b54565b9050919050565b600061265682612629565b9050919050565b60006126688261264b565b9050919050565b6126788161265d565b82525050565b6000602082019050612693600083018461266f565b92915050565b7f4e487b7100000000000000000000000000000000000000000000000000000000600052603260045260246000fd5b7f4e487b7100000000000000000000000000000000000000000000000000000000600052601160045260246000fd5b600061270282611cc9565b91507fffffffffffffffffffffffffffffffffffffffffffffffffffffffffffffffff821415612735576127346126c8565b5b600182019050919050565b7f47656c61746f666965643a204f6e6c792067656c61746f000000000000000000600082015250565b6000612776601783611f00565b915061278182612740565b602082019050919050565b600060208201905081810360008301526127a581612769565b9050919050565b7f4f70733a20657865633a204e6f207461736b20666f756e640000000000000000600082015250565b60006127e2601883611f00565b91506127ed826127ac565b602082019050919050565b60006020820190508181036000830152612811816127d5565b9050919050565b600081905092915050565b600061282f8385612818565b935061283c838584612529565b82840190509392505050565b6000612855828486612823565b91508190509392505050565b60006060820190506128766000830186611ecb565b6128836020830185611ecb565b612890604083018461236e565b949350505050565b600082825260208201905092915050565b60006128b58385612898565b93506128c2838584612529565b6128cb83611f44565b840190509392505050565b6128df81611cff565b82525050565b600060608201905081810360008301526129008186886128a9565b905061290f60208301856120d1565b61291c60408301846128d6565b95945050505050565b600060c08201905061293a6000830189611ecb565b6129476020830188611ecb565b612954604083018761219e565b61296160608301866128d6565b61296e6080830185611ecb565b61297b60a08301846120d1565b979650505050505050565b7f4f70733a206372656174655461736b3a2053656e64657220616c72656164792060008201527f73746172746564207461736b0000000000000000000000000000000000000000602082015250565b60006129e2602c83611f00565b91506129ed82612986565b604082019050919050565b60006020820190508181036000830152612a11816129d5565b9050919050565b600061012082019050612a2e600083018d611ecb565b612a3b602083018c611ecb565b612a48604083018b61219e565b612a55606083018a611ecb565b612a6260808301896120d1565b81810360a0830152612a758187896128a9565b9050612a8460c08301866128d6565b612a9160e0830185611ecb565b612a9f6101008301846120d1565b9b9a5050505050505050505050565b7f4f70733a2063726561746554696d65645461736b3a20696e74657276616c206360008201527f616e6e6f74206265203000000000000000000000000000000000000000000000602082015250565b6000612b0a602a83611f00565b9150612b1582612aae565b604082019050919050565b60006020820190508181036000830152612b3981612afd565b9050919050565b600081519050919050565b6000612b5682612b40565b612b608185612898565b9350612b70818560208601611f11565b612b7981611f44565b840191505092915050565b6000604082019050612b996000830185611ecb565b8181036020830152612bab8184612b4b565b90509392505050565b7f4f70733a2063616e63656c5461736b3a2053656e64657220646964206e6f742060008201527f7374617274207461736b20796574000000000000000000000000000000000000602082015250565b6000612c10602e83611f00565b9150612c1b82612bb4565b604082019050919050565b60006020820190508181036000830152612c3f81612c03565b9050919050565b6000604082019050612c5b60008301856120d1565b612c686020830184611ecb565b9392505050565b7f4f70733a20657865633a20546f6f206561726c79000000000000000000000000600082015250565b6000612ca5601483611f00565b9150612cb082612c6f565b602082019050919050565b60006020820190508181036000830152612cd481612c98565b9050919050565b6000612ce682612250565b9150612cf183612250565b9250826fffffffffffffffffffffffffffffffff03821115612d1657612d156126c8565b5b828201905092915050565b7f4e487b7100000000000000000000000000000000000000000000000000000000600052601260045260246000fd5b6000612d5b82611cc9565b9150612d6683611cc9565b925082612d7657612d75612d21565b5b828206905092915050565b600081905092915050565b6000612d9782611ef5565b612da18185612d81565b9350612db1818560208601611f11565b80840191505092915050565b6000612dc98285612d8c565b9150612dd58284612d8c565b91508190509392505050565b7f4e6f4572726f7253656c6563746f720000000000000000000000000000000000600082015250565b6000612e17600f83612d81565b9150612e2282612de1565b600f82019050919050565b6000612e398284612d8c565b9150612e4482612e0a565b915081905092915050565b7f556e657870656374656452657475726e64617461000000000000000000000000600082015250565b6000612e85601483612d81565b9150612e9082612e4f565b601482019050919050565b6000612ea78284612d8c565b9150612eb282612e78565b915081905092915050565b6000612ec882611cc9565b9150612ed383611cc9565b925082821015612ee657612ee56126c8565b5b828203905092915050565b7f4e487b7100000000000000000000000000000000000000000000000000000000600052603160045260246000fdfea2646970667358221220dd4e266992648b044785f5fa7a56d833f5af0d0b1feaac9d00ecd210401bf09564736f6c634300080c0033",
  "devdoc": {
    "kind": "dev",
    "methods": {
      "cancelTask(bytes32)": {
        "params": {
          "_taskId": "The hash of the task, can be computed using getTaskId()"
        }
      },
      "createTask(address,bytes4,address,bytes)": {
        "details": "Requires funds to be added in Task Treasury, assumes treasury sends fee to Gelato via Ops",
        "params": {
          "_execAddress": "On which contract should Gelato execute the transactions",
          "_execSelector": "Which function Gelato should eecute on the _execAddress",
          "_resolverAddress": "On which contract should Gelato check when to execute the tx",
          "_resolverData": "Which data should be used to check on the Resolver when to execute the tx"
        }
      },
      "createTaskNoPrepayment(address,bytes4,address,bytes,address)": {
        "details": "Requires no funds to be added in Task Treasury, assumes tasks sends fee to Gelato directly",
        "params": {
          "_execAddress": "On which contract should Gelato execute the transactions",
          "_execSelector": "Which function Gelato should eecute on the _execAddress",
          "_feeToken": "Which token to use as fee payment",
          "_resolverAddress": "On which contract should Gelato check when to execute the tx",
          "_resolverData": "Which data should be used to check on the Resolver when to execute the tx"
        }
      },
      "createTimedTask(uint128,uint128,address,bytes4,address,bytes,address,bool)": {
        "params": {
          "_execAddress": "On which contract should Gelato execute the transactions",
          "_execSelector": "Which function Gelato should eecute on the _execAddress",
          "_feeToken": "Which token to use as fee payment",
          "_interval": "After how many seconds should each task be executed",
          "_resolverAddress": "On which contract should Gelato check when to execute the tx",
          "_resolverData": "Which data should be used to check on the Resolver when to execute the tx",
          "_startTime": "Timestamp when the first task should become executable. 0 for right now",
          "_useTreasury": "True if Gelato should charge fees from TaskTreasury, false if not"
        }
      },
      "exec(uint256,address,address,bool,bool,bytes32,address,bytes)": {
        "params": {
          "_execAddress": "On which contract should Gelato execute the tx",
          "_execData": "Data used to execute the tx, queried from the Resolver by Gelato",
          "_feeToken": "Token used to pay for the execution. ETH = 0xeeeeee...",
          "_revertOnFailure": "To revert or not if call to execAddress fails",
          "_taskCreator": "On which contract should Gelato check when to execute the tx",
          "_txFee": "Fee paid to Gelato for execution, deducted on the TaskTreasury",
          "_useTaskTreasuryFunds": "If msg.sender's balance on TaskTreasury should pay for the tx"
        }
      },
      "getResolverHash(address,bytes)": {
        "params": {
          "_resolverAddress": "Address of resolver",
          "_resolverData": "Data passed to resolver"
        }
      },
      "getSelector(string)": {
        "details": "Example: \"transferFrom(address,address,uint256)\" => 0x23b872dd",
        "params": {
          "_func": "String of the function you want the selector from"
        }
      },
      "getTaskId(address,address,bytes4,bool,address,bytes32)": {
        "params": {
          "_execAddress": "Address of the contract to be executed by Gelato",
          "_feeToken": "FeeToken to use, address 0 if task treasury is used",
          "_resolverHash": "hash of resolver address and data",
          "_selector": "Function on the _execAddress which should be executed",
          "_taskCreator": "Address of the task creator",
          "_useTaskTreasuryFunds": "If msg.sender's balance on TaskTreasury should pay for the tx"
        }
      },
      "getTaskIdsByUser(address)": {
        "params": {
          "_taskCreator": "Address who created the task"
        }
      }
    },
    "version": 1
  },
  "userdoc": {
    "kind": "user",
    "methods": {
      "cancelTask(bytes32)": {
        "notice": "Cancel a task so that Gelato can no longer execute it"
      },
      "createTask(address,bytes4,address,bytes)": {
        "notice": "Create a task that tells Gelato to monitor and execute transactions on specific contracts"
      },
      "createTaskNoPrepayment(address,bytes4,address,bytes,address)": {
        "notice": "Create a task that tells Gelato to monitor and execute transactions on specific contracts"
      },
      "createTimedTask(uint128,uint128,address,bytes4,address,bytes,address,bool)": {
        "notice": "Create a timed task that executes every so often based on the inputted interval"
      },
      "exec(uint256,address,address,bool,bool,bytes32,address,bytes)": {
        "notice": "Execution API called by Gelato"
      },
      "getFeeDetails()": {
        "notice": "Helper func to query fee and feeToken"
      },
      "getResolverHash(address,bytes)": {
        "notice": "Helper func to query the resolverHash"
      },
      "getSelector(string)": {
        "notice": "Helper func to query the _selector of a function you want to automate"
      },
      "getTaskId(address,address,bytes4,bool,address,bytes32)": {
        "notice": "Returns TaskId of a task Creator"
      },
      "getTaskIdsByUser(address)": {
        "notice": "Helper func to query all open tasks by a task creator"
      }
    },
    "notice": "Ops enables everyone to communicate to Gelato Bots to monitor and execute certain transactionsResolverAddresses determine when Gelato should execute and provides bots with the payload they should use to executeExecAddress determine the actual contracts to execute a function on",
    "version": 1
  },
  "storageLayout": {
    "storage": [
      {
        "astId": 1234,
        "contract": "contracts/Ops.sol:Ops",
        "label": "taskCreator",
        "offset": 0,
        "slot": "0",
        "type": "t_mapping(t_bytes32,t_address)"
      },
      {
        "astId": 1238,
        "contract": "contracts/Ops.sol:Ops",
        "label": "execAddresses",
        "offset": 0,
        "slot": "1",
        "type": "t_mapping(t_bytes32,t_address)"
      },
      {
        "astId": 1243,
        "contract": "contracts/Ops.sol:Ops",
        "label": "_createdTasks",
        "offset": 0,
        "slot": "2",
        "type": "t_mapping(t_address,t_struct(Bytes32Set)801_storage)"
      },
      {
        "astId": 1248,
        "contract": "contracts/Ops.sol:Ops",
        "label": "fee",
        "offset": 0,
        "slot": "3",
        "type": "t_uint256"
      },
      {
        "astId": 1250,
        "contract": "contracts/Ops.sol:Ops",
        "label": "feeToken",
        "offset": 0,
        "slot": "4",
        "type": "t_address"
      },
      {
        "astId": 1255,
        "contract": "contracts/Ops.sol:Ops",
        "label": "timedTask",
        "offset": 0,
        "slot": "5",
        "type": "t_mapping(t_bytes32,t_struct(Time)1227_storage)"
      }
    ],
    "types": {
      "t_address": {
        "encoding": "inplace",
        "label": "address",
        "numberOfBytes": "20"
      },
      "t_array(t_bytes32)dyn_storage": {
        "base": "t_bytes32",
        "encoding": "dynamic_array",
        "label": "bytes32[]",
        "numberOfBytes": "32"
      },
      "t_bytes32": {
        "encoding": "inplace",
        "label": "bytes32",
        "numberOfBytes": "32"
      },
      "t_mapping(t_address,t_struct(Bytes32Set)801_storage)": {
        "encoding": "mapping",
        "key": "t_address",
        "label": "mapping(address => struct EnumerableSet.Bytes32Set)",
        "numberOfBytes": "32",
        "value": "t_struct(Bytes32Set)801_storage"
      },
      "t_mapping(t_bytes32,t_address)": {
        "encoding": "mapping",
        "key": "t_bytes32",
        "label": "mapping(bytes32 => address)",
        "numberOfBytes": "32",
        "value": "t_address"
      },
      "t_mapping(t_bytes32,t_struct(Time)1227_storage)": {
        "encoding": "mapping",
        "key": "t_bytes32",
        "label": "mapping(bytes32 => struct Ops.Time)",
        "numberOfBytes": "32",
        "value": "t_struct(Time)1227_storage"
      },
      "t_mapping(t_bytes32,t_uint256)": {
        "encoding": "mapping",
        "key": "t_bytes32",
        "label": "mapping(bytes32 => uint256)",
        "numberOfBytes": "32",
        "value": "t_uint256"
      },
      "t_struct(Bytes32Set)801_storage": {
        "encoding": "inplace",
        "label": "struct EnumerableSet.Bytes32Set",
        "members": [
          {
            "astId": 800,
            "contract": "contracts/Ops.sol:Ops",
            "label": "_inner",
            "offset": 0,
            "slot": "0",
            "type": "t_struct(Set)607_storage"
          }
        ],
        "numberOfBytes": "64"
      },
      "t_struct(Set)607_storage": {
        "encoding": "inplace",
        "label": "struct EnumerableSet.Set",
        "members": [
          {
            "astId": 602,
            "contract": "contracts/Ops.sol:Ops",
            "label": "_values",
            "offset": 0,
            "slot": "0",
            "type": "t_array(t_bytes32)dyn_storage"
          },
          {
            "astId": 606,
            "contract": "contracts/Ops.sol:Ops",
            "label": "_indexes",
            "offset": 0,
            "slot": "1",
            "type": "t_mapping(t_bytes32,t_uint256)"
          }
        ],
        "numberOfBytes": "64"
      },
      "t_struct(Time)1227_storage": {
        "encoding": "inplace",
        "label": "struct Ops.Time",
        "members": [
          {
            "astId": 1224,
            "contract": "contracts/Ops.sol:Ops",
            "label": "nextExec",
            "offset": 0,
            "slot": "0",
            "type": "t_uint128"
          },
          {
            "astId": 1226,
            "contract": "contracts/Ops.sol:Ops",
            "label": "interval",
            "offset": 16,
            "slot": "0",
            "type": "t_uint128"
          }
        ],
        "numberOfBytes": "32"
      },
      "t_uint128": {
        "encoding": "inplace",
        "label": "uint128",
        "numberOfBytes": "16"
      },
      "t_uint256": {
        "encoding": "inplace",
        "label": "uint256",
        "numberOfBytes": "32"
      }
    }
  }
}