{
  "address": "0x1cC0fA340c61667a97862304F776c2F26b56200f",
  "abi": [
    {
      "inputs": [
        {
          "internalType": "address",
          "name": "_ops",
          "type": "address"
        }
      ],
      "stateMutability": "nonpayable",
      "type": "constructor"
    },
    {
      "anonymous": false,
      "inputs": [
        {
          "indexed": true,
          "internalType": "address",
          "name": "target",
          "type": "address"
        },
        {
          "indexed": false,
          "internalType": "bytes",
          "name": "data",
          "type": "bytes"
        },
        {
          "indexed": false,
          "internalType": "uint256",
          "name": "value",
          "type": "uint256"
        },
        {
          "indexed": false,
          "internalType": "bytes",
          "name": "returnData",
          "type": "bytes"
        }
      ],
      "name": "ExecuteCall",
      "type": "event"
    },
    {
      "inputs": [
        {
          "internalType": "address[]",
          "name": "_targets",
          "type": "address[]"
        },
        {
          "internalType": "bytes[]",
          "name": "_datas",
          "type": "bytes[]"
        },
        {
          "internalType": "uint256[]",
          "name": "_values",
          "type": "uint256[]"
        }
      ],
      "name": "batchExecuteCall",
      "outputs": [],
      "stateMutability": "payable",
      "type": "function"
    },
    {
      "inputs": [
        {
          "internalType": "address",
          "name": "_target",
          "type": "address"
        },
        {
          "internalType": "bytes",
          "name": "_data",
          "type": "bytes"
        },
        {
          "internalType": "uint256",
          "name": "_value",
          "type": "uint256"
        }
      ],
      "name": "executeCall",
      "outputs": [],
      "stateMutability": "payable",
      "type": "function"
    },
    {
      "inputs": [],
      "name": "ops",
      "outputs": [
        {
          "internalType": "address",
          "name": "",
          "type": "address"
        }
      ],
      "stateMutability": "view",
      "type": "function"
    },
    {
      "inputs": [],
      "name": "owner",
      "outputs": [
        {
          "internalType": "address",
          "name": "",
          "type": "address"
        }
      ],
      "stateMutability": "view",
      "type": "function"
    },
    {
      "inputs": [],
      "name": "version",
      "outputs": [
        {
          "internalType": "uint256",
          "name": "",
          "type": "uint256"
        }
      ],
      "stateMutability": "view",
      "type": "function"
    },
    {
      "stateMutability": "payable",
      "type": "receive"
    }
  ],
  "transactionHash": "0xee73ea50128a0897e5afd6bd2b060cc4822eeb9196146a0f5544ae4814386359",
  "args": [
    "0xA16a69BFbBf1600490E667865f91aAFA11d62371"
  ],
  "numDeployments": 2,
  "solcInputHash": "8e85eb588af66df445d71ad3c9cb58f8",
  "bytecode": "0x60a06040523480156200001157600080fd5b50604051620013df380380620013df8339818101604052810190620000379190620000dc565b8073ffffffffffffffffffffffffffffffffffffffff1660808173ffffffffffffffffffffffffffffffffffffffff1681525050506200010e565b600080fd5b600073ffffffffffffffffffffffffffffffffffffffff82169050919050565b6000620000a48262000077565b9050919050565b620000b68162000097565b8114620000c257600080fd5b50565b600081519050620000d681620000ab565b92915050565b600060208284031215620000f557620000f462000072565b5b60006200010584828501620000c5565b91505092915050565b6080516112996200014660003960008181610115015281816101e0015281816102dc015281816103a7015261056f01526112996000f3fe60806040526004361061004e5760003560e01c806354132d781461005a57806354fd4d50146100765780638da5cb5b146100a1578063c0e8c0c2146100cc578063e70abe92146100e857610055565b3661005557005b600080fd5b610074600480360381019061006f91906109b4565b610113565b005b34801561008257600080fd5b5061008b6102c6565b6040516100989190610a37565b60405180910390f35b3480156100ad57600080fd5b506100b66102cb565b6040516100c39190610a61565b60405180910390f35b6100e660048036038101906100e19190610b7e565b6102da565b005b3480156100f457600080fd5b506100fd61056d565b60405161010a9190610a61565b60405180910390f35b7f000000000000000000000000000000000000000000000000000000000000000073ffffffffffffffffffffffffffffffffffffffff163373ffffffffffffffffffffffffffffffffffffffff16148061019f57506101706102cb565b73ffffffffffffffffffffffffffffffffffffffff163373ffffffffffffffffffffffffffffffffffffffff16145b6101de576040517f08c379a00000000000000000000000000000000000000000000000000000000081526004016101d590610c8f565b60405180910390fd5b7f000000000000000000000000000000000000000000000000000000000000000073ffffffffffffffffffffffffffffffffffffffff163373ffffffffffffffffffffffffffffffffffffffff16036102b457600061023b610591565b90506102456102cb565b73ffffffffffffffffffffffffffffffffffffffff168173ffffffffffffffffffffffffffffffffffffffff16146102b2576040517f08c379a00000000000000000000000000000000000000000000000000000000081526004016102a990610d21565b60405180910390fd5b505b6102c0848484846105a0565b50505050565b600181565b60006102d5610687565b905090565b7f000000000000000000000000000000000000000000000000000000000000000073ffffffffffffffffffffffffffffffffffffffff163373ffffffffffffffffffffffffffffffffffffffff16148061036657506103376102cb565b73ffffffffffffffffffffffffffffffffffffffff163373ffffffffffffffffffffffffffffffffffffffff16145b6103a5576040517f08c379a000000000000000000000000000000000000000000000000000000000815260040161039c90610c8f565b60405180910390fd5b7f000000000000000000000000000000000000000000000000000000000000000073ffffffffffffffffffffffffffffffffffffffff163373ffffffffffffffffffffffffffffffffffffffff160361047b576000610402610591565b905061040c6102cb565b73ffffffffffffffffffffffffffffffffffffffff168173ffffffffffffffffffffffffffffffffffffffff1614610479576040517f08c379a000000000000000000000000000000000000000000000000000000000815260040161047090610d21565b60405180910390fd5b505b6000868690509050848490508114801561049757508282905081145b6104d6576040517f08c379a00000000000000000000000000000000000000000000000000000000081526004016104cd90610d8d565b60405180910390fd5b60005b81811015610563576105508888838181106104f7576104f6610dad565b5b905060200201602081019061050c9190610ddc565b87878481811061051f5761051e610dad565b5b90506020028101906105319190610e18565b87878681811061054457610543610dad565b5b905060200201356105a0565b808061055b90610eaa565b9150506104d9565b5050505050505050565b7f000000000000000000000000000000000000000000000000000000000000000081565b6000601436033560601c905090565b60006106298585858080601f016020809104026020016040519081016040528093929190818152602001838380828437600081840152601f19601f820116905080830192505050505050508460016040518060400160405280601681526020017f4f707350726f78792e6578656375746543616c6c3a20000000000000000000008152506106b0565b9150508473ffffffffffffffffffffffffffffffffffffffff167f8f8f4d49bbb03ffac818a5d588ec1786a4d2d17269871cbf5b1745f58b64c15d858585856040516106789493929190610fc7565b60405180910390a25050505050565b60007fb53127684a568b3173ae13b9f8a6016e243e63b6e8ee1178d6a717850b5d610354905090565b600060608673ffffffffffffffffffffffffffffffffffffffff1685876040516106da919061104a565b60006040518083038185875af1925050503d8060008114610717576040519150601f19603f3d011682016040523d82523d6000602084013e61071c565b606091505b508092508193505050811580156107305750835b156107405761073f818461074a565b5b9550959350505050565b60046020835161075a9190611090565b03610855576000826020015190506308c379a060e01b817bffffffffffffffffffffffffffffffffffffffffffffffffffffffff1916036107f95760448301925081836040516020016107ae929190611108565b6040516020818303038152906040526040517f08c379a00000000000000000000000000000000000000000000000000000000081526004016107f09190611165565b60405180910390fd5b8160405160200161080a91906111d3565b6040516020818303038152906040526040517f08c379a000000000000000000000000000000000000000000000000000000000815260040161084c9190611165565b60405180910390fd5b806040516020016108669190611241565b6040516020818303038152906040526040517f08c379a00000000000000000000000000000000000000000000000000000000081526004016108a89190611165565b60405180910390fd5b600080fd5b600080fd5b600073ffffffffffffffffffffffffffffffffffffffff82169050919050565b60006108e6826108bb565b9050919050565b6108f6816108db565b811461090157600080fd5b50565b600081359050610913816108ed565b92915050565b600080fd5b600080fd5b600080fd5b60008083601f84011261093e5761093d610919565b5b8235905067ffffffffffffffff81111561095b5761095a61091e565b5b60208301915083600182028301111561097757610976610923565b5b9250929050565b6000819050919050565b6109918161097e565b811461099c57600080fd5b50565b6000813590506109ae81610988565b92915050565b600080600080606085870312156109ce576109cd6108b1565b5b60006109dc87828801610904565b945050602085013567ffffffffffffffff8111156109fd576109fc6108b6565b5b610a0987828801610928565b93509350506040610a1c8782880161099f565b91505092959194509250565b610a318161097e565b82525050565b6000602082019050610a4c6000830184610a28565b92915050565b610a5b816108db565b82525050565b6000602082019050610a766000830184610a52565b92915050565b60008083601f840112610a9257610a91610919565b5b8235905067ffffffffffffffff811115610aaf57610aae61091e565b5b602083019150836020820283011115610acb57610aca610923565b5b9250929050565b60008083601f840112610ae857610ae7610919565b5b8235905067ffffffffffffffff811115610b0557610b0461091e565b5b602083019150836020820283011115610b2157610b20610923565b5b9250929050565b60008083601f840112610b3e57610b3d610919565b5b8235905067ffffffffffffffff811115610b5b57610b5a61091e565b5b602083019150836020820283011115610b7757610b76610923565b5b9250929050565b60008060008060008060608789031215610b9b57610b9a6108b1565b5b600087013567ffffffffffffffff811115610bb957610bb86108b6565b5b610bc589828a01610a7c565b9650965050602087013567ffffffffffffffff811115610be857610be76108b6565b5b610bf489828a01610ad2565b9450945050604087013567ffffffffffffffff811115610c1757610c166108b6565b5b610c2389828a01610b28565b92509250509295509295509295565b600082825260208201905092915050565b7f4f707350726f78793a204e6f7420617574686f72697365640000000000000000600082015250565b6000610c79601883610c32565b9150610c8482610c43565b602082019050919050565b60006020820190508181036000830152610ca881610c6c565b9050919050565b7f4f707350726f78793a204f6e6c79207461736b7320637265617465642062792060008201527f6f776e6572000000000000000000000000000000000000000000000000000000602082015250565b6000610d0b602583610c32565b9150610d1682610caf565b604082019050919050565b60006020820190508181036000830152610d3a81610cfe565b9050919050565b7f4f707350726f78793a204c656e677468206d69736d6174636800000000000000600082015250565b6000610d77601983610c32565b9150610d8282610d41565b602082019050919050565b60006020820190508181036000830152610da681610d6a565b9050919050565b7f4e487b7100000000000000000000000000000000000000000000000000000000600052603260045260246000fd5b600060208284031215610df257610df16108b1565b5b6000610e0084828501610904565b91505092915050565b600080fd5b600080fd5b600080fd5b60008083356001602003843603038112610e3557610e34610e09565b5b80840192508235915067ffffffffffffffff821115610e5757610e56610e0e565b5b602083019250600182023603831315610e7357610e72610e13565b5b509250929050565b7f4e487b7100000000000000000000000000000000000000000000000000000000600052601160045260246000fd5b6000610eb58261097e565b91507fffffffffffffffffffffffffffffffffffffffffffffffffffffffffffffffff8203610ee757610ee6610e7b565b5b600182019050919050565b600082825260208201905092915050565b82818337600083830152505050565b6000601f19601f8301169050919050565b6000610f2f8385610ef2565b9350610f3c838584610f03565b610f4583610f12565b840190509392505050565b600081519050919050565b60005b83811015610f79578082015181840152602081019050610f5e565b83811115610f88576000848401525b50505050565b6000610f9982610f50565b610fa38185610ef2565b9350610fb3818560208601610f5b565b610fbc81610f12565b840191505092915050565b60006060820190508181036000830152610fe2818688610f23565b9050610ff16020830185610a28565b81810360408301526110038184610f8e565b905095945050505050565b600081905092915050565b600061102482610f50565b61102e818561100e565b935061103e818560208601610f5b565b80840191505092915050565b60006110568284611019565b915081905092915050565b7f4e487b7100000000000000000000000000000000000000000000000000000000600052601260045260246000fd5b600061109b8261097e565b91506110a68361097e565b9250826110b6576110b5611061565b5b828206905092915050565b600081519050919050565b600081905092915050565b60006110e2826110c1565b6110ec81856110cc565b93506110fc818560208601610f5b565b80840191505092915050565b600061111482856110d7565b915061112082846110d7565b91508190509392505050565b6000611137826110c1565b6111418185610c32565b9350611151818560208601610f5b565b61115a81610f12565b840191505092915050565b6000602082019050818103600083015261117f818461112c565b905092915050565b7f4e6f4572726f7253656c6563746f720000000000000000000000000000000000600082015250565b60006111bd600f836110cc565b91506111c882611187565b600f82019050919050565b60006111df82846110d7565b91506111ea826111b0565b915081905092915050565b7f556e657870656374656452657475726e64617461000000000000000000000000600082015250565b600061122b6014836110cc565b9150611236826111f5565b601482019050919050565b600061124d82846110d7565b91506112588261121e565b91508190509291505056fea26469706673582212205e2dd9f8323a70db6cd45aff1c0605e65a04c1d5753ace3d5082292fad225de964736f6c634300080e0033",
  "devdoc": {
    "kind": "dev",
    "methods": {
      "batchExecuteCall(address[],bytes[],uint256[])": {
        "params": {
          "datas": "Datas for each contract call.",
          "targets": "Addresses of contracts to be called.",
          "values": "Native token value for each contract call."
        }
      },
      "executeCall(address,bytes,uint256)": {
        "params": {
          "data": "Data for contract call.",
          "target": "Address of contracts to be called.",
          "value": "Native token value for contract call."
        }
      },
      "owner()": {
        "returns": {
          "_0": "address Owner of the proxy"
        }
      }
    },
    "stateVariables": {
      "ops": {
        "return": "address Ops smart contract address",
        "returns": {
          "_0": "address Ops smart contract address"
        }
      },
      "version": {
        "return": "uint256 version of OpsProxy.",
        "returns": {
          "_0": "uint256 version of OpsProxy."
        }
      }
    },
    "version": 1
  },
  "userdoc": {
    "events": {
      "ExecuteCall(address,bytes,uint256,bytes)": {
        "notice": "Emitted when proxy calls a contract successfully in `executeCall`"
      }
    },
    "kind": "user",
    "methods": {
      "batchExecuteCall(address[],bytes[],uint256[])": {
        "notice": "Multicall to different contracts with different datas."
      },
      "executeCall(address,bytes,uint256)": {
        "notice": "Call to a single contract."
      }
    },
    "version": 1
  },
  "storageLayout": {
    "storage": [],
    "types": null
  }
}