{
  "address": "0xaeD5dB39c05f660D51A7f7D0201D3e3580AFa165",
  "abi": [
    {
      "inputs": [
        {
          "internalType": "address",
          "name": "_ops",
          "type": "address"
        }
      ],
      "stateMutability": "nonpayable",
      "type": "constructor"
    },
    {
      "anonymous": false,
      "inputs": [
        {
          "indexed": false,
          "internalType": "address",
          "name": "oldImplementation",
          "type": "address"
        },
        {
          "indexed": false,
          "internalType": "address",
          "name": "newImplementation",
          "type": "address"
        }
      ],
      "name": "BeaconUpdated",
      "type": "event"
    },
    {
      "anonymous": false,
      "inputs": [
        {
          "indexed": true,
          "internalType": "address",
          "name": "deployer",
          "type": "address"
        },
        {
          "indexed": true,
          "internalType": "address",
          "name": "owner",
          "type": "address"
        },
        {
          "indexed": false,
          "internalType": "bytes32",
          "name": "seed",
          "type": "bytes32"
        },
        {
          "indexed": false,
          "internalType": "bytes32",
          "name": "salt",
          "type": "bytes32"
        },
        {
          "indexed": false,
          "internalType": "address",
          "name": "proxy",
          "type": "address"
        }
      ],
      "name": "DeployProxy",
      "type": "event"
    },
    {
      "inputs": [],
      "name": "deploy",
      "outputs": [
        {
          "internalType": "address payable",
          "name": "proxy",
          "type": "address"
        }
      ],
      "stateMutability": "nonpayable",
      "type": "function"
    },
    {
      "inputs": [
        {
          "internalType": "address",
          "name": "owner",
          "type": "address"
        }
      ],
      "name": "deployFor",
      "outputs": [
        {
          "internalType": "address payable",
          "name": "proxy",
          "type": "address"
        }
      ],
      "stateMutability": "nonpayable",
      "type": "function"
    },
    {
      "inputs": [
        {
          "internalType": "address",
          "name": "_account",
          "type": "address"
        }
      ],
      "name": "determineProxyAddress",
      "outputs": [
        {
          "internalType": "address",
          "name": "",
          "type": "address"
        }
      ],
      "stateMutability": "view",
      "type": "function"
    },
    {
      "inputs": [
        {
          "internalType": "address",
          "name": "_account",
          "type": "address"
        }
      ],
      "name": "getNextSeed",
      "outputs": [
        {
          "internalType": "bytes32",
          "name": "",
          "type": "bytes32"
        }
      ],
      "stateMutability": "view",
      "type": "function"
    },
    {
      "inputs": [
        {
          "internalType": "address",
          "name": "_proxy",
          "type": "address"
        }
      ],
      "name": "getOwnerOf",
      "outputs": [
        {
          "internalType": "address",
          "name": "",
          "type": "address"
        }
      ],
      "stateMutability": "view",
      "type": "function"
    },
    {
      "inputs": [
        {
          "internalType": "address",
          "name": "_account",
          "type": "address"
        }
      ],
      "name": "getProxyOf",
      "outputs": [
        {
          "internalType": "address",
          "name": "",
          "type": "address"
        },
        {
          "internalType": "bool",
          "name": "",
          "type": "bool"
        }
      ],
      "stateMutability": "view",
      "type": "function"
    },
    {
      "inputs": [],
      "name": "implementation",
      "outputs": [
        {
          "internalType": "address",
          "name": "",
          "type": "address"
        }
      ],
      "stateMutability": "view",
      "type": "function"
    },
    {
      "inputs": [
        {
          "internalType": "address",
          "name": "_implementation",
          "type": "address"
        }
      ],
      "name": "initialize",
      "outputs": [],
      "stateMutability": "nonpayable",
      "type": "function"
    },
    {
      "inputs": [
        {
          "internalType": "address",
          "name": "proxy",
          "type": "address"
        }
      ],
      "name": "isProxy",
      "outputs": [
        {
          "internalType": "bool",
          "name": "",
          "type": "bool"
        }
      ],
      "stateMutability": "view",
      "type": "function"
    },
    {
      "inputs": [],
      "name": "ops",
      "outputs": [
        {
          "internalType": "address",
          "name": "",
          "type": "address"
        }
      ],
      "stateMutability": "view",
      "type": "function"
    },
    {
      "inputs": [
        {
          "internalType": "address",
          "name": "_implementation",
          "type": "address"
        }
      ],
      "name": "updateBeaconImplementation",
      "outputs": [],
      "stateMutability": "nonpayable",
      "type": "function"
    },
    {
      "inputs": [],
      "name": "version",
      "outputs": [
        {
          "internalType": "uint256",
          "name": "",
          "type": "uint256"
        }
      ],
      "stateMutability": "view",
      "type": "function"
    }
  ],
  "transactionHash": "0xce43be5f4529a6e2da5bc92c2183157963cfbc4223fd778fbcaeb20415f4b789",
  "args": [
    "0xA16a69BFbBf1600490E667865f91aAFA11d62371"
  ],
  "numDeployments": 1,
  "solcInputHash": "ec5e7c52a427c068bbd33ab52da213bf",
  "bytecode": "0x60a06040523480156200001157600080fd5b50604051620026f2380380620026f28339818101604052810190620000379190620000dc565b8073ffffffffffffffffffffffffffffffffffffffff1660808173ffffffffffffffffffffffffffffffffffffffff1681525050506200010e565b600080fd5b600073ffffffffffffffffffffffffffffffffffffffff82169050919050565b6000620000a48262000077565b9050919050565b620000b68162000097565b8114620000c257600080fd5b50565b600081519050620000d681620000ab565b92915050565b600060208284031215620000f557620000f462000072565b5b60006200010584828501620000c5565b91505092915050565b6080516125c86200012a6000396000610b8b01526125c86000f3fe60806040523480156200001157600080fd5b5060043610620000c45760003560e01c806374912cd2116200007b57806374912cd214620001cf578063775c300c1462000205578063bd4972c31462000227578063c4d66de8146200025d578063ded89a7c146200027d578063e70abe9214620002b457620000c4565b80632971038814620000c957806337a6be1614620000ff57806354fd4d5014620001355780635c60da1b1462000157578063606aa7151462000179578063735a032414620001af575b600080fd5b620000e76004803603810190620000e1919062000df6565b620002d6565b604051620000f6919062000e45565b60405180910390f35b6200011d600480360381019062000117919062000df6565b6200032c565b6040516200012c919062000e7d565b60405180910390f35b6200013f62000375565b6040516200014e919062000eb5565b60405180910390f35b620001616200037a565b60405162000170919062000ee3565b60405180910390f35b62000197600480360381019062000191919062000df6565b620003a0565b604051620001a6919062000ee3565b60405180910390f35b620001cd6004803603810190620001c7919062000df6565b620004b1565b005b620001ed6004803603810190620001e7919062000df6565b620005d1565b604051620001fc919062000f25565b60405180910390f35b6200020f620008bb565b6040516200021e919062000f25565b60405180910390f35b6200024560048036038101906200023f919062000df6565b620008cd565b60405162000254919062000ee3565b60405180910390f35b6200027b600480360381019062000275919062000df6565b62000995565b005b6200029b600480360381019062000295919062000df6565b62000ac4565b604051620002ab92919062000f42565b60405180910390f35b620002be62000b89565b604051620002cd919062000ee3565b60405180910390f35b6000600260008373ffffffffffffffffffffffffffffffffffffffff1673ffffffffffffffffffffffffffffffffffffffff16815260200190815260200160002060009054906101000a900460ff169050919050565b6000600160008373ffffffffffffffffffffffffffffffffffffffff1673ffffffffffffffffffffffffffffffffffffffff168152602001908152602001600020549050919050565b600181565b600060029054906101000a900473ffffffffffffffffffffffffffffffffffffffff1681565b600080600360008473ffffffffffffffffffffffffffffffffffffffff1673ffffffffffffffffffffffffffffffffffffffff16815260200190815260200160002060009054906101000a900473ffffffffffffffffffffffffffffffffffffffff169050600073ffffffffffffffffffffffffffffffffffffffff168173ffffffffffffffffffffffffffffffffffffffff1614620004445780915050620004ac565b6000620004518462000bad565b9150506000620004618562000c24565b9050600060ff60f81b3084848051906020012060405160200162000489949392919062001035565b6040516020818303038152906040528051906020012090508060001c9450505050505b919050565b620004bb62000d16565b73ffffffffffffffffffffffffffffffffffffffff163373ffffffffffffffffffffffffffffffffffffffff16146200052b576040517f08c379a00000000000000000000000000000000000000000000000000000000081526004016200052290620010ec565b60405180910390fd5b60008060029054906101000a900473ffffffffffffffffffffffffffffffffffffffff16905081600060026101000a81548173ffffffffffffffffffffffffffffffffffffffff021916908373ffffffffffffffffffffffffffffffffffffffff1602179055507f46a98d582ba4c3ce698945c0010d1e6e1ba1c4a413ee1dfb18c0b31076be79e98183604051620005c59291906200110e565b60405180910390a15050565b600081600073ffffffffffffffffffffffffffffffffffffffff16600360008373ffffffffffffffffffffffffffffffffffffffff1673ffffffffffffffffffffffffffffffffffffffff16815260200190815260200160002060009054906101000a900473ffffffffffffffffffffffffffffffffffffffff1673ffffffffffffffffffffffffffffffffffffffff1614620006a5576040517f08c379a00000000000000000000000000000000000000000000000000000000081526004016200069c906200118b565b60405180910390fd5b82620006b181620002d6565b15620006f4576040517f08c379a0000000000000000000000000000000000000000000000000000000008152600401620006eb90620011fd565b60405180910390fd5b600080620007028662000bad565b915091506000620007138762000c24565b905062000721828262000d3f565b95506001600260008873ffffffffffffffffffffffffffffffffffffffff1673ffffffffffffffffffffffffffffffffffffffff16815260200190815260200160002060006101000a81548160ff02191690831515021790555085600360008973ffffffffffffffffffffffffffffffffffffffff1673ffffffffffffffffffffffffffffffffffffffff16815260200190815260200160002060006101000a81548173ffffffffffffffffffffffffffffffffffffffff021916908373ffffffffffffffffffffffffffffffffffffffff16021790555060018360001c0160001b600160008973ffffffffffffffffffffffffffffffffffffffff1673ffffffffffffffffffffffffffffffffffffffff168152602001908152602001600020819055508673ffffffffffffffffffffffffffffffffffffffff163373ffffffffffffffffffffffffffffffffffffffff167f1bd7b67c90068c779f5700cbfefe89aea540a111a3eea6c228fd9d2b5d74a92a85858a604051620008a9939291906200121f565b60405180910390a35050505050919050565b6000620008c833620005d1565b905090565b6000620008da82620002d6565b6200091c576040517f08c379a00000000000000000000000000000000000000000000000000000000081526004016200091390620012ac565b60405180910390fd5b8173ffffffffffffffffffffffffffffffffffffffff16638da5cb5b6040518163ffffffff1660e01b8152600401602060405180830381865afa15801562000968573d6000803e3d6000fd5b505050506040513d601f19601f820116820180604052508101906200098e9190620012e5565b9050919050565b600060019054906101000a900460ff16620009bf5760008054906101000a900460ff1615620009ca565b620009c962000d58565b5b62000a0c576040517f08c379a000000000000000000000000000000000000000000000000000000000815260040162000a03906200138d565b60405180910390fd5b60008060019054906101000a900460ff16159050801562000a5d576001600060016101000a81548160ff02191690831515021790555060016000806101000a81548160ff0219169083151502179055505b81600060026101000a81548173ffffffffffffffffffffffffffffffffffffffff021916908373ffffffffffffffffffffffffffffffffffffffff160217905550801562000ac05760008060016101000a81548160ff0219169083151502179055505b5050565b6000806000600360008573ffffffffffffffffffffffffffffffffffffffff1673ffffffffffffffffffffffffffffffffffffffff16815260200190815260200160002060009054906101000a900473ffffffffffffffffffffffffffffffffffffffff169050600073ffffffffffffffffffffffffffffffffffffffff168173ffffffffffffffffffffffffffffffffffffffff161462000b6e57806001925092505062000b84565b62000b7984620003a0565b905080600092509250505b915091565b7f000000000000000000000000000000000000000000000000000000000000000081565b600080600160008473ffffffffffffffffffffffffffffffffffffffff1673ffffffffffffffffffffffffffffffffffffffff168152602001908152602001600020549150828260405160200162000c07929190620013af565b604051602081830303815290604052805190602001209050915091565b6060600063c4d66de860e01b8360405160240162000c43919062000ee3565b604051602081830303815290604052907bffffffffffffffffffffffffffffffffffffffffffffffffffffffff19166020820180517bffffffffffffffffffffffffffffffffffffffffffffffffffffffff838183161783525050505090506040518060200162000cb49062000d7e565b6020820181038252601f19601f82011660405250308260405160200162000cdd92919062001480565b60405160208183030381529060405260405160200162000cff929190620014f6565b604051602081830303815290604052915050919050565b60007fb53127684a568b3173ae13b9f8a6016e243e63b6e8ee1178d6a717850b5d610354905090565b60008060208301835185818385f5935050505092915050565b600062000d653062000d6b565b15905090565b600080823b905060008111915050919050565b611074806200151f83390190565b600080fd5b600073ffffffffffffffffffffffffffffffffffffffff82169050919050565b600062000dbe8262000d91565b9050919050565b62000dd08162000db1565b811462000ddc57600080fd5b50565b60008135905062000df08162000dc5565b92915050565b60006020828403121562000e0f5762000e0e62000d8c565b5b600062000e1f8482850162000ddf565b91505092915050565b60008115159050919050565b62000e3f8162000e28565b82525050565b600060208201905062000e5c600083018462000e34565b92915050565b6000819050919050565b62000e778162000e62565b82525050565b600060208201905062000e94600083018462000e6c565b92915050565b6000819050919050565b62000eaf8162000e9a565b82525050565b600060208201905062000ecc600083018462000ea4565b92915050565b62000edd8162000db1565b82525050565b600060208201905062000efa600083018462000ed2565b92915050565b600062000f0d8262000d91565b9050919050565b62000f1f8162000f00565b82525050565b600060208201905062000f3c600083018462000f14565b92915050565b600060408201905062000f59600083018562000ed2565b62000f68602083018462000e34565b9392505050565b60007fff0000000000000000000000000000000000000000000000000000000000000082169050919050565b6000819050919050565b62000fba62000fb48262000f6f565b62000f9b565b82525050565b60008160601b9050919050565b600062000fda8262000fc0565b9050919050565b600062000fee8262000fcd565b9050919050565b6200100a620010048262000db1565b62000fe1565b82525050565b6000819050919050565b6200102f620010298262000e62565b62001010565b82525050565b600062001043828762000fa5565b60018201915062001055828662000ff5565b6014820191506200106782856200101a565b6020820191506200107982846200101a565b60208201915081905095945050505050565b600082825260208201905092915050565b7f4e4f545f415554484f52495a4544000000000000000000000000000000000000600082015250565b6000620010d4600e836200108b565b9150620010e1826200109c565b602082019050919050565b600060208201905081810360008301526200110781620010c5565b9050919050565b600060408201905062001125600083018562000ed2565b62001134602083018462000ed2565b9392505050565b7f4f707350726f7879466163746f72793a204f6e652070726f7879000000000000600082015250565b600062001173601a836200108b565b915062001180826200113b565b602082019050919050565b60006020820190508181036000830152620011a68162001164565b9050919050565b7f4f707350726f7879466163746f72793a204e6f2070726f787900000000000000600082015250565b6000620011e56019836200108b565b9150620011f282620011ad565b602082019050919050565b600060208201905081810360008301526200121881620011d6565b9050919050565b600060608201905062001236600083018662000e6c565b62001245602083018562000e6c565b62001254604083018462000ed2565b949350505050565b7f4f707350726f7879466163746f72793a204e6f742070726f7879000000000000600082015250565b600062001294601a836200108b565b9150620012a1826200125c565b602082019050919050565b60006020820190508181036000830152620012c78162001285565b9050919050565b600081519050620012df8162000dc5565b92915050565b600060208284031215620012fe57620012fd62000d8c565b5b60006200130e84828501620012ce565b91505092915050565b7f496e697469616c697a61626c653a20636f6e747261637420697320616c72656160008201527f647920696e697469616c697a6564000000000000000000000000000000000000602082015250565b600062001375602e836200108b565b9150620013828262001317565b604082019050919050565b60006020820190508181036000830152620013a88162001366565b9050919050565b6000604082019050620013c6600083018562000ed2565b620013d5602083018462000e6c565b9392505050565b600081519050919050565b600082825260208201905092915050565b60005b8381101562001418578082015181840152602081019050620013fb565b8381111562001428576000848401525b50505050565b6000601f19601f8301169050919050565b60006200144c82620013dc565b620014588185620013e7565b93506200146a818560208601620013f8565b62001475816200142e565b840191505092915050565b600060408201905062001497600083018562000ed2565b8181036020830152620014ab81846200143f565b90509392505050565b600081905092915050565b6000620014cc82620013dc565b620014d88185620014b4565b9350620014ea818560208601620013f8565b80840191505092915050565b6000620015048285620014bf565b9150620015128284620014bf565b9150819050939250505056fe608060405260405162001074380380620010748339818101604052810190620000299190620006fa565b60017fa3f0ad74e5423aebfd80d3ef4346578335a9a72aeaee59ff6cb3582b35133d5160001c6200005b919062000799565b60001b7fa3f0ad74e5423aebfd80d3ef4346578335a9a72aeaee59ff6cb3582b35133d5060001b14620000935762000092620007d4565b5b620000a782826000620000af60201b60201c565b505062000ae4565b620000c083620001a660201b60201c565b8273ffffffffffffffffffffffffffffffffffffffff167f1cf3b03a6cf19fa2baba4df148e9dcabedea7f8a5c07840e207e5c089be95d3e60405160405180910390a2600082511180620001115750805b15620001a1576200019f8373ffffffffffffffffffffffffffffffffffffffff16635c60da1b6040518163ffffffff1660e01b8152600401602060405180830381865afa15801562000167573d6000803e3d6000fd5b505050506040513d601f19601f820116820180604052508101906200018d919062000803565b836200034560201b620000371760201c565b505b505050565b620001bc816200037b60201b620000641760201c565b620001fe576040517f08c379a0000000000000000000000000000000000000000000000000000000008152600401620001f590620008bc565b60405180910390fd5b620002858173ffffffffffffffffffffffffffffffffffffffff16635c60da1b6040518163ffffffff1660e01b8152600401602060405180830381865afa1580156200024e573d6000803e3d6000fd5b505050506040513d601f19601f8201168201806040525081019062000274919062000803565b6200037b60201b620000641760201c565b620002c7576040517f08c379a0000000000000000000000000000000000000000000000000000000008152600401620002be9062000954565b60405180910390fd5b80620003017fa3f0ad74e5423aebfd80d3ef4346578335a9a72aeaee59ff6cb3582b35133d5060001b6200039e60201b620000871760201c565b60000160006101000a81548173ffffffffffffffffffffffffffffffffffffffff021916908373ffffffffffffffffffffffffffffffffffffffff16021790555050565b60606200037383836040518060600160405280602781526020016200104d60279139620003a860201b60201c565b905092915050565b6000808273ffffffffffffffffffffffffffffffffffffffff163b119050919050565b6000819050919050565b6060620003bb846200037b60201b60201c565b620003fd576040517f08c379a0000000000000000000000000000000000000000000000000000000008152600401620003f490620009ec565b60405180910390fd5b6000808573ffffffffffffffffffffffffffffffffffffffff168560405162000427919062000a5b565b600060405180830381855af49150503d806000811462000464576040519150601f19603f3d011682016040523d82523d6000602084013e62000469565b606091505b5091509150620004818282866200048c60201b60201c565b925050509392505050565b606083156200049e57829050620004f1565b600083511115620004b25782518084602001fd5b816040517f08c379a0000000000000000000000000000000000000000000000000000000008152600401620004e8919062000ac0565b60405180910390fd5b9392505050565b6000604051905090565b600080fd5b600080fd5b600073ffffffffffffffffffffffffffffffffffffffff82169050919050565b600062000539826200050c565b9050919050565b6200054b816200052c565b81146200055757600080fd5b50565b6000815190506200056b8162000540565b92915050565b600080fd5b600080fd5b6000601f19601f8301169050919050565b7f4e487b7100000000000000000000000000000000000000000000000000000000600052604160045260246000fd5b620005c6826200057b565b810181811067ffffffffffffffff82111715620005e857620005e76200058c565b5b80604052505050565b6000620005fd620004f8565b90506200060b8282620005bb565b919050565b600067ffffffffffffffff8211156200062e576200062d6200058c565b5b62000639826200057b565b9050602081019050919050565b60005b838110156200066657808201518184015260208101905062000649565b8381111562000676576000848401525b50505050565b6000620006936200068d8462000610565b620005f1565b905082815260208101848484011115620006b257620006b162000576565b5b620006bf84828562000646565b509392505050565b600082601f830112620006df57620006de62000571565b5b8151620006f18482602086016200067c565b91505092915050565b6000806040838503121562000714576200071362000502565b5b600062000724858286016200055a565b925050602083015167ffffffffffffffff81111562000748576200074762000507565b5b6200075685828601620006c7565b9150509250929050565b6000819050919050565b7f4e487b7100000000000000000000000000000000000000000000000000000000600052601160045260246000fd5b6000620007a68262000760565b9150620007b38362000760565b925082821015620007c957620007c86200076a565b5b828203905092915050565b7f4e487b7100000000000000000000000000000000000000000000000000000000600052600160045260246000fd5b6000602082840312156200081c576200081b62000502565b5b60006200082c848285016200055a565b91505092915050565b600082825260208201905092915050565b7f455243313936373a206e657720626561636f6e206973206e6f74206120636f6e60008201527f7472616374000000000000000000000000000000000000000000000000000000602082015250565b6000620008a460258362000835565b9150620008b18262000846565b604082019050919050565b60006020820190508181036000830152620008d78162000895565b9050919050565b7f455243313936373a20626561636f6e20696d706c656d656e746174696f6e206960008201527f73206e6f74206120636f6e747261637400000000000000000000000000000000602082015250565b60006200093c60308362000835565b91506200094982620008de565b604082019050919050565b600060208201905081810360008301526200096f816200092d565b9050919050565b7f416464726573733a2064656c65676174652063616c6c20746f206e6f6e2d636f60008201527f6e74726163740000000000000000000000000000000000000000000000000000602082015250565b6000620009d460268362000835565b9150620009e18262000976565b604082019050919050565b6000602082019050818103600083015262000a0781620009c5565b9050919050565b600081519050919050565b600081905092915050565b600062000a318262000a0e565b62000a3d818562000a19565b935062000a4f81856020860162000646565b80840191505092915050565b600062000a69828462000a24565b915081905092915050565b600081519050919050565b600062000a8c8262000a74565b62000a98818562000835565b935062000aaa81856020860162000646565b62000ab5816200057b565b840191505092915050565b6000602082019050818103600083015262000adc818462000a7f565b905092915050565b6105598062000af46000396000f3fe6080604052366100135761001161001d565b005b61001b61001d565b005b610025610091565b610035610030610093565b610110565b565b606061005c83836040518060600160405280602781526020016104fd60279139610136565b905092915050565b6000808273ffffffffffffffffffffffffffffffffffffffff163b119050919050565b6000819050919050565b565b600061009d610203565b73ffffffffffffffffffffffffffffffffffffffff16635c60da1b6040518163ffffffff1660e01b8152600401602060405180830381865afa1580156100e7573d6000803e3d6000fd5b505050506040513d601f19601f8201168201806040525081019061010b9190610324565b905090565b3660008037600080366000845af43d6000803e8060008114610131573d6000f35b3d6000fd5b606061014184610064565b610180576040517f08c379a0000000000000000000000000000000000000000000000000000000008152600401610177906103d4565b60405180910390fd5b6000808573ffffffffffffffffffffffffffffffffffffffff16856040516101a8919061046e565b600060405180830381855af49150503d80600081146101e3576040519150601f19603f3d011682016040523d82523d6000602084013e6101e8565b606091505b50915091506101f882828661025a565b925050509392505050565b60006102317fa3f0ad74e5423aebfd80d3ef4346578335a9a72aeaee59ff6cb3582b35133d5060001b610087565b60000160009054906101000a900473ffffffffffffffffffffffffffffffffffffffff16905090565b6060831561026a578290506102ba565b60008351111561027d5782518084602001fd5b816040517f08c379a00000000000000000000000000000000000000000000000000000000081526004016102b191906104da565b60405180910390fd5b9392505050565b600080fd5b600073ffffffffffffffffffffffffffffffffffffffff82169050919050565b60006102f1826102c6565b9050919050565b610301816102e6565b811461030c57600080fd5b50565b60008151905061031e816102f8565b92915050565b60006020828403121561033a576103396102c1565b5b60006103488482850161030f565b91505092915050565b600082825260208201905092915050565b7f416464726573733a2064656c65676174652063616c6c20746f206e6f6e2d636f60008201527f6e74726163740000000000000000000000000000000000000000000000000000602082015250565b60006103be602683610351565b91506103c982610362565b604082019050919050565b600060208201905081810360008301526103ed816103b1565b9050919050565b600081519050919050565b600081905092915050565b60005b8381101561042857808201518184015260208101905061040d565b83811115610437576000848401525b50505050565b6000610448826103f4565b61045281856103ff565b935061046281856020860161040a565b80840191505092915050565b600061047a828461043d565b915081905092915050565b600081519050919050565b6000601f19601f8301169050919050565b60006104ac82610485565b6104b68185610351565b93506104c681856020860161040a565b6104cf81610490565b840191505092915050565b600060208201905081810360008301526104f481846104a1565b90509291505056fe416464726573733a206c6f772d6c6576656c2064656c65676174652063616c6c206661696c6564a2646970667358221220831eb3e6a79c53f76fa304e646cb09c2fb3fa11865f3b66537fd1c996000bdce64736f6c634300080e0033416464726573733a206c6f772d6c6576656c2064656c65676174652063616c6c206661696c6564a26469706673582212208d0e973d96997225a09da0248e06cebbdba569862e121ac152d6c63605fd40d664736f6c634300080e0033",
  "devdoc": {
    "kind": "dev",
    "methods": {
      "deploy()": {
        "returns": {
          "proxy": "Address of deployed proxy."
        }
      },
      "deployFor(address)": {
        "params": {
          "owner": "Address to deploy the proxy for."
        },
        "returns": {
          "proxy": "Address of deployed proxy."
        }
      },
      "determineProxyAddress(address)": {
        "params": {
          "account": "Address to determine the proxy address for."
        }
      },
      "getNextSeed(address)": {
        "returns": {
          "_0": "bytes32 Next seed which will be used for deployment for an address."
        }
      },
      "getOwnerOf(address)": {
        "returns": {
          "_0": "address Owner of deployed proxy."
        }
      },
      "getProxyOf(address)": {
        "returns": {
          "_0": "address Proxy address owned by account.",
          "_1": "bool Whether if proxy is deployed"
        }
      },
      "isProxy(address)": {
        "returns": {
          "_0": "bool Whether if a contract is an OpsProxy."
        }
      },
      "updateBeaconImplementation(address)": {
        "params": {
          "implementation": "New OpsProxy implementation to be updated to."
        }
      }
    },
    "stateVariables": {
      "_nextSeeds": {
        "details": "track the next seed to be used by an EOA."
      },
      "_proxies": {
        "details": "track deployed proxies"
      },
      "_proxyOf": {
        "details": "track proxy of user"
      },
      "implementation": {
        "details": "Must return an address that can be used as a delegate call target. {BeaconProxy} will check that this address is a contract."
      },
      "version": {
        "return": "uint256 version of OpsProxyFactory.",
        "returns": {
          "_0": "uint256 version of OpsProxyFactory."
        }
      }
    },
    "version": 1
  },
  "userdoc": {
    "events": {
      "BeaconUpdated(address,address)": {
        "notice": "Emitted when OpsProxy implementation is updated"
      },
      "DeployProxy(address,address,bytes32,bytes32,address)": {
        "notice": "Emitted when an OpsProxy is deployed."
      }
    },
    "kind": "user",
    "methods": {
      "deploy()": {
        "notice": "Deploys OpsProxy for the msg.sender."
      },
      "deployFor(address)": {
        "notice": "Deploys OpsProxy for another address."
      },
      "determineProxyAddress(address)": {
        "notice": "Determines the OpsProxy address when it is not deployed."
      },
      "updateBeaconImplementation(address)": {
        "notice": "Update OpsProxy implementation"
      }
    },
    "version": 1
  },
  "storageLayout": {
    "storage": [
      {
        "astId": 6,
        "contract": "contracts/opsProxy/OpsProxyFactory.sol:OpsProxyFactory",
        "label": "_initialized",
        "offset": 0,
        "slot": "0",
        "type": "t_bool"
      },
      {
        "astId": 9,
        "contract": "contracts/opsProxy/OpsProxyFactory.sol:OpsProxyFactory",
        "label": "_initializing",
        "offset": 1,
        "slot": "0",
        "type": "t_bool"
      },
      {
        "astId": 5781,
        "contract": "contracts/opsProxy/OpsProxyFactory.sol:OpsProxyFactory",
        "label": "implementation",
        "offset": 2,
        "slot": "0",
        "type": "t_address"
      },
      {
        "astId": 5786,
        "contract": "contracts/opsProxy/OpsProxyFactory.sol:OpsProxyFactory",
        "label": "_nextSeeds",
        "offset": 0,
        "slot": "1",
        "type": "t_mapping(t_address,t_bytes32)"
      },
      {
        "astId": 5791,
        "contract": "contracts/opsProxy/OpsProxyFactory.sol:OpsProxyFactory",
        "label": "_proxies",
        "offset": 0,
        "slot": "2",
        "type": "t_mapping(t_address,t_bool)"
      },
      {
        "astId": 5796,
        "contract": "contracts/opsProxy/OpsProxyFactory.sol:OpsProxyFactory",
        "label": "_proxyOf",
        "offset": 0,
        "slot": "3",
        "type": "t_mapping(t_address,t_address)"
      }
    ],
    "types": {
      "t_address": {
        "encoding": "inplace",
        "label": "address",
        "numberOfBytes": "20"
      },
      "t_bool": {
        "encoding": "inplace",
        "label": "bool",
        "numberOfBytes": "1"
      },
      "t_bytes32": {
        "encoding": "inplace",
        "label": "bytes32",
        "numberOfBytes": "32"
      },
      "t_mapping(t_address,t_address)": {
        "encoding": "mapping",
        "key": "t_address",
        "label": "mapping(address => address)",
        "numberOfBytes": "32",
        "value": "t_address"
      },
      "t_mapping(t_address,t_bool)": {
        "encoding": "mapping",
        "key": "t_address",
        "label": "mapping(address => bool)",
        "numberOfBytes": "32",
        "value": "t_bool"
      },
      "t_mapping(t_address,t_bytes32)": {
        "encoding": "mapping",
        "key": "t_address",
        "label": "mapping(address => bytes32)",
        "numberOfBytes": "32",
        "value": "t_bytes32"
      }
    }
  }
}