{
  "address": "0x63f33CB7eB6e6707b2D8DD913E897398905A34Fd",
  "abi": [
    {
      "inputs": [
        {
          "internalType": "address",
          "name": "_ops",
          "type": "address"
        }
      ],
      "stateMutability": "nonpayable",
      "type": "constructor"
    },
    {
      "inputs": [],
      "name": "ETH",
      "outputs": [
        {
          "internalType": "address",
          "name": "",
          "type": "address"
        }
      ],
      "stateMutability": "view",
      "type": "function"
    },
    {
      "inputs": [
        {
          "internalType": "uint256",
          "name": "_count",
          "type": "uint256"
        }
      ],
      "name": "checker",
      "outputs": [
        {
          "internalType": "bool",
          "name": "canExec",
          "type": "bool"
        },
        {
          "internalType": "bytes",
          "name": "payload",
          "type": "bytes"
        }
      ],
      "stateMutability": "pure",
      "type": "function"
    },
    {
      "inputs": [],
      "name": "count",
      "outputs": [
        {
          "internalType": "uint256",
          "name": "",
          "type": "uint256"
        }
      ],
      "stateMutability": "view",
      "type": "function"
    },
    {
      "inputs": [],
      "name": "gelato",
      "outputs": [
        {
          "internalType": "address payable",
          "name": "",
          "type": "address"
        }
      ],
      "stateMutability": "view",
      "type": "function"
    },
    {
      "inputs": [
        {
          "internalType": "uint256",
          "name": "_count",
          "type": "uint256"
        }
      ],
      "name": "increaseCount",
      "outputs": [],
      "stateMutability": "nonpayable",
      "type": "function"
    },
    {
      "inputs": [
        {
          "internalType": "uint256",
          "name": "_count",
          "type": "uint256"
        }
      ],
      "name": "increaseCountNoPrepayment",
      "outputs": [],
      "stateMutability": "nonpayable",
      "type": "function"
    },
    {
      "inputs": [],
      "name": "ops",
      "outputs": [
        {
          "internalType": "address",
          "name": "",
          "type": "address"
        }
      ],
      "stateMutability": "view",
      "type": "function"
    },
    {
      "stateMutability": "payable",
      "type": "receive"
    }
  ],
  "transactionHash": "0x953ef293b4251da6818e1ee0272e8460542ba8dc1c232297116bbecbba3f8d33",
  "args": [
    "0xA16a69BFbBf1600490E667865f91aAFA11d62371"
  ],
  "numDeployments": 1,
  "solcInputHash": "dfba687e827334a173c8cd84518784d9",
  "bytecode": "0x60c06040523480156200001157600080fd5b506040516200110338038062001103833981810160405281019062000037919062000183565b808073ffffffffffffffffffffffffffffffffffffffff1660808173ffffffffffffffffffffffffffffffffffffffff16815250508073ffffffffffffffffffffffffffffffffffffffff1663573ea5756040518163ffffffff1660e01b8152600401602060405180830381865afa158015620000b8573d6000803e3d6000fd5b505050506040513d601f19601f82011682018060405250810190620000de9190620001fa565b73ffffffffffffffffffffffffffffffffffffffff1660a08173ffffffffffffffffffffffffffffffffffffffff168152505050506200022c565b600080fd5b600073ffffffffffffffffffffffffffffffffffffffff82169050919050565b60006200014b826200011e565b9050919050565b6200015d816200013e565b81146200016957600080fd5b50565b6000815190506200017d8162000152565b92915050565b6000602082840312156200019c576200019b62000119565b5b6000620001ac848285016200016c565b91505092915050565b6000620001c2826200011e565b9050919050565b620001d481620001b5565b8114620001e057600080fd5b50565b600081519050620001f481620001c9565b92915050565b60006020828403121562000213576200021262000119565b5b60006200022384828501620001e3565b91505092915050565b60805160a051610e9c62000267600039600081816101df015281816103ce01526104a201526000818161021e01526103600152610e9c6000f3fe6080604052600436106100745760003560e01c80637507d4621161004e5780637507d462146100ff5780638322fff21461012857806394e05b2c14610153578063e70abe92146101915761007b565b806306661abd1461008057806346d4adf2146100ab578063573ea575146100d45761007b565b3661007b57005b600080fd5b34801561008c57600080fd5b506100956101bc565b6040516100a291906107e8565b60405180910390f35b3480156100b757600080fd5b506100d260048036038101906100cd9190610834565b6101c2565b005b3480156100e057600080fd5b506100e96101dd565b6040516100f691906108a2565b60405180910390f35b34801561010b57600080fd5b5061012660048036038101906101219190610834565b610201565b005b34801561013457600080fd5b5061013d6102c1565b60405161014a91906108de565b60405180910390f35b34801561015f57600080fd5b5061017a60048036038101906101759190610834565b6102d9565b6040516101889291906109ad565b60405180910390f35b34801561019d57600080fd5b506101a661035e565b6040516101b391906108de565b60405180910390f35b60005481565b806000808282546101d39190610a0c565b9250508190555050565b7f000000000000000000000000000000000000000000000000000000000000000081565b806000808282546102129190610a0c565b925050819055506000807f000000000000000000000000000000000000000000000000000000000000000073ffffffffffffffffffffffffffffffffffffffff1663b810c6366040518163ffffffff1660e01b81526004016040805180830381865afa158015610286573d6000803e3d6000fd5b505050506040513d601f19601f820116820180604052508101906102aa9190610aa3565b80925081935050506102bc8282610382565b505050565b73eeeeeeeeeeeeeeeeeeeeeeeeeeeeeeeeeeeeeeee81565b60006060600191506346d4adf260e01b836040516024016102fa91906107e8565b604051602081830303815290604052907bffffffffffffffffffffffffffffffffffffffffffffffffffffffff19166020820180517bffffffffffffffffffffffffffffffffffffffffffffffffffffffff83818316178352505050509050915091565b7f000000000000000000000000000000000000000000000000000000000000000081565b73eeeeeeeeeeeeeeeeeeeeeeeeeeeeeeeeeeeeeeee73ffffffffffffffffffffffffffffffffffffffff168173ffffffffffffffffffffffffffffffffffffffff16141561049c5760007f000000000000000000000000000000000000000000000000000000000000000073ffffffffffffffffffffffffffffffffffffffff168360405161041090610b14565b60006040518083038185875af1925050503d806000811461044d576040519150601f19603f3d011682016040523d82523d6000602084013e610452565b606091505b5050905080610496576040517f08c379a000000000000000000000000000000000000000000000000000000000815260040161048d90610b86565b60405180910390fd5b506104c8565b6104c7817f0000000000000000000000000000000000000000000000000000000000000000846104cc565b5b5050565b61054d8363a9059cbb60e01b84846040516024016104eb929190610ba6565b604051602081830303815290604052907bffffffffffffffffffffffffffffffffffffffffffffffffffffffff19166020820180517bffffffffffffffffffffffffffffffffffffffffffffffffffffffff8381831617835250505050610552565b505050565b60006105b4826040518060400160405280602081526020017f5361666545524332303a206c6f772d6c6576656c2063616c6c206661696c65648152508573ffffffffffffffffffffffffffffffffffffffff166106199092919063ffffffff16565b905060008151111561061457808060200190518101906105d49190610bfb565b610613576040517f08c379a000000000000000000000000000000000000000000000000000000000815260040161060a90610c9a565b60405180910390fd5b5b505050565b60606106288484600085610631565b90509392505050565b606082471015610676576040517f08c379a000000000000000000000000000000000000000000000000000000000815260040161066d90610d2c565b60405180910390fd5b61067f85610745565b6106be576040517f08c379a00000000000000000000000000000000000000000000000000000000081526004016106b590610d98565b60405180910390fd5b6000808673ffffffffffffffffffffffffffffffffffffffff1685876040516106e79190610de9565b60006040518083038185875af1925050503d8060008114610724576040519150601f19603f3d011682016040523d82523d6000602084013e610729565b606091505b5091509150610739828286610768565b92505050949350505050565b6000808273ffffffffffffffffffffffffffffffffffffffff163b119050919050565b60608315610778578290506107c8565b60008351111561078b5782518084602001fd5b816040517f08c379a00000000000000000000000000000000000000000000000000000000081526004016107bf9190610e44565b60405180910390fd5b9392505050565b6000819050919050565b6107e2816107cf565b82525050565b60006020820190506107fd60008301846107d9565b92915050565b600080fd5b610811816107cf565b811461081c57600080fd5b50565b60008135905061082e81610808565b92915050565b60006020828403121561084a57610849610803565b5b60006108588482850161081f565b91505092915050565b600073ffffffffffffffffffffffffffffffffffffffff82169050919050565b600061088c82610861565b9050919050565b61089c81610881565b82525050565b60006020820190506108b76000830184610893565b92915050565b60006108c882610861565b9050919050565b6108d8816108bd565b82525050565b60006020820190506108f360008301846108cf565b92915050565b60008115159050919050565b61090e816108f9565b82525050565b600081519050919050565b600082825260208201905092915050565b60005b8381101561094e578082015181840152602081019050610933565b8381111561095d576000848401525b50505050565b6000601f19601f8301169050919050565b600061097f82610914565b610989818561091f565b9350610999818560208601610930565b6109a281610963565b840191505092915050565b60006040820190506109c26000830185610905565b81810360208301526109d48184610974565b90509392505050565b7f4e487b7100000000000000000000000000000000000000000000000000000000600052601160045260246000fd5b6000610a17826107cf565b9150610a22836107cf565b9250827fffffffffffffffffffffffffffffffffffffffffffffffffffffffffffffffff03821115610a5757610a566109dd565b5b828201905092915050565b600081519050610a7181610808565b92915050565b610a80816108bd565b8114610a8b57600080fd5b50565b600081519050610a9d81610a77565b92915050565b60008060408385031215610aba57610ab9610803565b5b6000610ac885828601610a62565b9250506020610ad985828601610a8e565b9150509250929050565b600081905092915050565b50565b6000610afe600083610ae3565b9150610b0982610aee565b600082019050919050565b6000610b1f82610af1565b9150819050919050565b600082825260208201905092915050565b7f5f7472616e736665723a20455448207472616e73666572206661696c65640000600082015250565b6000610b70601e83610b29565b9150610b7b82610b3a565b602082019050919050565b60006020820190508181036000830152610b9f81610b63565b9050919050565b6000604082019050610bbb60008301856108cf565b610bc860208301846107d9565b9392505050565b610bd8816108f9565b8114610be357600080fd5b50565b600081519050610bf581610bcf565b92915050565b600060208284031215610c1157610c10610803565b5b6000610c1f84828501610be6565b91505092915050565b7f5361666545524332303a204552433230206f7065726174696f6e20646964206e60008201527f6f74207375636365656400000000000000000000000000000000000000000000602082015250565b6000610c84602a83610b29565b9150610c8f82610c28565b604082019050919050565b60006020820190508181036000830152610cb381610c77565b9050919050565b7f416464726573733a20696e73756666696369656e742062616c616e636520666f60008201527f722063616c6c0000000000000000000000000000000000000000000000000000602082015250565b6000610d16602683610b29565b9150610d2182610cba565b604082019050919050565b60006020820190508181036000830152610d4581610d09565b9050919050565b7f416464726573733a2063616c6c20746f206e6f6e2d636f6e7472616374000000600082015250565b6000610d82601d83610b29565b9150610d8d82610d4c565b602082019050919050565b60006020820190508181036000830152610db181610d75565b9050919050565b6000610dc382610914565b610dcd8185610ae3565b9350610ddd818560208601610930565b80840191505092915050565b6000610df58284610db8565b915081905092915050565b600081519050919050565b6000610e1682610e00565b610e208185610b29565b9350610e30818560208601610930565b610e3981610963565b840191505092915050565b60006020820190508181036000830152610e5e8184610e0b565b90509291505056fea2646970667358221220787cc7e90c13f799fcec34f2342807725f9d9dfa7a59d6b0f3c1e62548c0db1664736f6c634300080c0033",
  "devdoc": {
    "kind": "dev",
    "methods": {},
    "version": 1
  },
  "userdoc": {
    "kind": "user",
    "methods": {},
    "version": 1
  },
  "storageLayout": {
    "storage": [
      {
        "astId": 612,
        "contract": "contracts/test/OpsTest.sol:OpsTest",
        "label": "count",
        "offset": 0,
        "slot": "0",
        "type": "t_uint256"
      }
    ],
    "types": {
      "t_uint256": {
        "encoding": "inplace",
        "label": "uint256",
        "numberOfBytes": "32"
      }
    }
  }
}