{
  "address": "0xD4AE5E73095526a8C84fDb48cBe756B2DD820B61",
  "abi": [
    {
      "inputs": [
        {
          "internalType": "address",
          "name": "_ops",
          "type": "address"
        }
      ],
      "stateMutability": "nonpayable",
      "type": "constructor"
    },
    {
      "inputs": [],
      "name": "ETH",
      "outputs": [
        {
          "internalType": "address",
          "name": "",
          "type": "address"
        }
      ],
      "stateMutability": "view",
      "type": "function"
    },
    {
      "inputs": [
        {
          "internalType": "uint256",
          "name": "_count",
          "type": "uint256"
        }
      ],
      "name": "checker",
      "outputs": [
        {
          "internalType": "bool",
          "name": "canExec",
          "type": "bool"
        },
        {
          "internalType": "bytes",
          "name": "payload",
          "type": "bytes"
        }
      ],
      "stateMutability": "pure",
      "type": "function"
    },
    {
      "inputs": [
        {
          "internalType": "uint256",
          "name": "_count",
          "type": "uint256"
        }
      ],
      "name": "checkerNoPrepayment",
      "outputs": [
        {
          "internalType": "bool",
          "name": "canExec",
          "type": "bool"
        },
        {
          "internalType": "bytes",
          "name": "payload",
          "type": "bytes"
        }
      ],
      "stateMutability": "pure",
      "type": "function"
    },
    {
      "inputs": [],
      "name": "count",
      "outputs": [
        {
          "internalType": "uint256",
          "name": "",
          "type": "uint256"
        }
      ],
      "stateMutability": "view",
      "type": "function"
    },
    {
      "inputs": [],
      "name": "gelato",
      "outputs": [
        {
          "internalType": "address payable",
          "name": "",
          "type": "address"
        }
      ],
      "stateMutability": "view",
      "type": "function"
    },
    {
      "inputs": [
        {
          "internalType": "uint256",
          "name": "_count",
          "type": "uint256"
        }
      ],
      "name": "increaseCount",
      "outputs": [],
      "stateMutability": "nonpayable",
      "type": "function"
    },
    {
      "inputs": [
        {
          "internalType": "uint256",
          "name": "_count",
          "type": "uint256"
        }
      ],
      "name": "increaseCountNoPrepayment",
      "outputs": [],
      "stateMutability": "nonpayable",
      "type": "function"
    },
    {
      "inputs": [],
      "name": "ops",
      "outputs": [
        {
          "internalType": "address",
          "name": "",
          "type": "address"
        }
      ],
      "stateMutability": "view",
      "type": "function"
    },
    {
      "stateMutability": "payable",
      "type": "receive"
    }
  ],
  "transactionHash": "0xdad30d8e11703f6009244f8d12713330295d136fe19be64985cd6665c0dd6f8f",
  "args": [
    "0xA16a69BFbBf1600490E667865f91aAFA11d62371"
  ],
  "numDeployments": 2,
  "solcInputHash": "23054c9ab3050ed36b78e1cc5e977b31",
  "bytecode": "0x60c06040523480156200001157600080fd5b50604051620011d0380380620011d0833981810160405281019062000037919062000183565b808073ffffffffffffffffffffffffffffffffffffffff1660808173ffffffffffffffffffffffffffffffffffffffff16815250508073ffffffffffffffffffffffffffffffffffffffff1663573ea5756040518163ffffffff1660e01b8152600401602060405180830381865afa158015620000b8573d6000803e3d6000fd5b505050506040513d601f19601f82011682018060405250810190620000de9190620001fa565b73ffffffffffffffffffffffffffffffffffffffff1660a08173ffffffffffffffffffffffffffffffffffffffff168152505050506200022c565b600080fd5b600073ffffffffffffffffffffffffffffffffffffffff82169050919050565b60006200014b826200011e565b9050919050565b6200015d816200013e565b81146200016957600080fd5b50565b6000815190506200017d8162000152565b92915050565b6000602082840312156200019c576200019b62000119565b5b6000620001ac848285016200016c565b91505092915050565b6000620001c2826200011e565b9050919050565b620001d481620001b5565b8114620001e057600080fd5b50565b600081519050620001f481620001c9565b92915050565b60006020828403121562000213576200021262000119565b5b60006200022384828501620001e3565b91505092915050565b60805160a051610f6962000267600039600081816102ad0152818161049b015261056f0152600081816102ec015261042e0152610f696000f3fe60806040526004361061007f5760003560e01c80637507d4621161004e5780637507d462146101485780638322fff21461017157806394e05b2c1461019c578063e70abe92146101da57610086565b806306661abd1461008b57806327192ce7146100b657806346d4adf2146100f4578063573ea5751461011d57610086565b3661008657005b600080fd5b34801561009757600080fd5b506100a0610205565b6040516100ad91906108b5565b60405180910390f35b3480156100c257600080fd5b506100dd60048036038101906100d89190610901565b61020b565b6040516100eb9291906109e2565b60405180910390f35b34801561010057600080fd5b5061011b60048036038101906101169190610901565b610290565b005b34801561012957600080fd5b506101326102ab565b60405161013f9190610a53565b60405180910390f35b34801561015457600080fd5b5061016f600480360381019061016a9190610901565b6102cf565b005b34801561017d57600080fd5b5061018661038f565b6040516101939190610a8f565b60405180910390f35b3480156101a857600080fd5b506101c360048036038101906101be9190610901565b6103a7565b6040516101d19291906109e2565b60405180910390f35b3480156101e657600080fd5b506101ef61042c565b6040516101fc9190610a8f565b60405180910390f35b60005481565b6000606060019150637507d46260e01b8360405160240161022c91906108b5565b604051602081830303815290604052907bffffffffffffffffffffffffffffffffffffffffffffffffffffffff19166020820180517bffffffffffffffffffffffffffffffffffffffffffffffffffffffff83818316178352505050509050915091565b806000808282546102a19190610ad9565b9250508190555050565b7f000000000000000000000000000000000000000000000000000000000000000081565b806000808282546102e09190610ad9565b925050819055506000807f000000000000000000000000000000000000000000000000000000000000000073ffffffffffffffffffffffffffffffffffffffff1663b810c6366040518163ffffffff1660e01b81526004016040805180830381865afa158015610354573d6000803e3d6000fd5b505050506040513d601f19601f820116820180604052508101906103789190610b70565b809250819350505061038a8282610450565b505050565b73eeeeeeeeeeeeeeeeeeeeeeeeeeeeeeeeeeeeeeee81565b60006060600191506346d4adf260e01b836040516024016103c891906108b5565b604051602081830303815290604052907bffffffffffffffffffffffffffffffffffffffffffffffffffffffff19166020820180517bffffffffffffffffffffffffffffffffffffffffffffffffffffffff83818316178352505050509050915091565b7f000000000000000000000000000000000000000000000000000000000000000081565b73eeeeeeeeeeeeeeeeeeeeeeeeeeeeeeeeeeeeeeee73ffffffffffffffffffffffffffffffffffffffff168173ffffffffffffffffffffffffffffffffffffffff16036105695760007f000000000000000000000000000000000000000000000000000000000000000073ffffffffffffffffffffffffffffffffffffffff16836040516104dd90610be1565b60006040518083038185875af1925050503d806000811461051a576040519150601f19603f3d011682016040523d82523d6000602084013e61051f565b606091505b5050905080610563576040517f08c379a000000000000000000000000000000000000000000000000000000000815260040161055a90610c53565b60405180910390fd5b50610595565b610594817f000000000000000000000000000000000000000000000000000000000000000084610599565b5b5050565b61061a8363a9059cbb60e01b84846040516024016105b8929190610c73565b604051602081830303815290604052907bffffffffffffffffffffffffffffffffffffffffffffffffffffffff19166020820180517bffffffffffffffffffffffffffffffffffffffffffffffffffffffff838183161783525050505061061f565b505050565b6000610681826040518060400160405280602081526020017f5361666545524332303a206c6f772d6c6576656c2063616c6c206661696c65648152508573ffffffffffffffffffffffffffffffffffffffff166106e69092919063ffffffff16565b90506000815111156106e157808060200190518101906106a19190610cc8565b6106e0576040517f08c379a00000000000000000000000000000000000000000000000000000000081526004016106d790610d67565b60405180910390fd5b5b505050565b60606106f584846000856106fe565b90509392505050565b606082471015610743576040517f08c379a000000000000000000000000000000000000000000000000000000000815260040161073a90610df9565b60405180910390fd5b61074c85610812565b61078b576040517f08c379a000000000000000000000000000000000000000000000000000000000815260040161078290610e65565b60405180910390fd5b6000808673ffffffffffffffffffffffffffffffffffffffff1685876040516107b49190610eb6565b60006040518083038185875af1925050503d80600081146107f1576040519150601f19603f3d011682016040523d82523d6000602084013e6107f6565b606091505b5091509150610806828286610835565b92505050949350505050565b6000808273ffffffffffffffffffffffffffffffffffffffff163b119050919050565b6060831561084557829050610895565b6000835111156108585782518084602001fd5b816040517f08c379a000000000000000000000000000000000000000000000000000000000815260040161088c9190610f11565b60405180910390fd5b9392505050565b6000819050919050565b6108af8161089c565b82525050565b60006020820190506108ca60008301846108a6565b92915050565b600080fd5b6108de8161089c565b81146108e957600080fd5b50565b6000813590506108fb816108d5565b92915050565b600060208284031215610917576109166108d0565b5b6000610925848285016108ec565b91505092915050565b60008115159050919050565b6109438161092e565b82525050565b600081519050919050565b600082825260208201905092915050565b60005b83811015610983578082015181840152602081019050610968565b83811115610992576000848401525b50505050565b6000601f19601f8301169050919050565b60006109b482610949565b6109be8185610954565b93506109ce818560208601610965565b6109d781610998565b840191505092915050565b60006040820190506109f7600083018561093a565b8181036020830152610a0981846109a9565b90509392505050565b600073ffffffffffffffffffffffffffffffffffffffff82169050919050565b6000610a3d82610a12565b9050919050565b610a4d81610a32565b82525050565b6000602082019050610a686000830184610a44565b92915050565b6000610a7982610a12565b9050919050565b610a8981610a6e565b82525050565b6000602082019050610aa46000830184610a80565b92915050565b7f4e487b7100000000000000000000000000000000000000000000000000000000600052601160045260246000fd5b6000610ae48261089c565b9150610aef8361089c565b9250827fffffffffffffffffffffffffffffffffffffffffffffffffffffffffffffffff03821115610b2457610b23610aaa565b5b828201905092915050565b600081519050610b3e816108d5565b92915050565b610b4d81610a6e565b8114610b5857600080fd5b50565b600081519050610b6a81610b44565b92915050565b60008060408385031215610b8757610b866108d0565b5b6000610b9585828601610b2f565b9250506020610ba685828601610b5b565b9150509250929050565b600081905092915050565b50565b6000610bcb600083610bb0565b9150610bd682610bbb565b600082019050919050565b6000610bec82610bbe565b9150819050919050565b600082825260208201905092915050565b7f5f7472616e736665723a20455448207472616e73666572206661696c65640000600082015250565b6000610c3d601e83610bf6565b9150610c4882610c07565b602082019050919050565b60006020820190508181036000830152610c6c81610c30565b9050919050565b6000604082019050610c886000830185610a80565b610c9560208301846108a6565b9392505050565b610ca58161092e565b8114610cb057600080fd5b50565b600081519050610cc281610c9c565b92915050565b600060208284031215610cde57610cdd6108d0565b5b6000610cec84828501610cb3565b91505092915050565b7f5361666545524332303a204552433230206f7065726174696f6e20646964206e60008201527f6f74207375636365656400000000000000000000000000000000000000000000602082015250565b6000610d51602a83610bf6565b9150610d5c82610cf5565b604082019050919050565b60006020820190508181036000830152610d8081610d44565b9050919050565b7f416464726573733a20696e73756666696369656e742062616c616e636520666f60008201527f722063616c6c0000000000000000000000000000000000000000000000000000602082015250565b6000610de3602683610bf6565b9150610dee82610d87565b604082019050919050565b60006020820190508181036000830152610e1281610dd6565b9050919050565b7f416464726573733a2063616c6c20746f206e6f6e2d636f6e7472616374000000600082015250565b6000610e4f601d83610bf6565b9150610e5a82610e19565b602082019050919050565b60006020820190508181036000830152610e7e81610e42565b9050919050565b6000610e9082610949565b610e9a8185610bb0565b9350610eaa818560208601610965565b80840191505092915050565b6000610ec28284610e85565b915081905092915050565b600081519050919050565b6000610ee382610ecd565b610eed8185610bf6565b9350610efd818560208601610965565b610f0681610998565b840191505092915050565b60006020820190508181036000830152610f2b8184610ed8565b90509291505056fea2646970667358221220df517e2892b615caae5722537a04c8c690fe63c2563f38e2fbe1b9ee233f20f964736f6c634300080e0033",
  "devdoc": {
    "kind": "dev",
    "methods": {},
    "version": 1
  },
  "userdoc": {
    "kind": "user",
    "methods": {},
    "version": 1
  },
  "storageLayout": {
    "storage": [
      {
        "astId": 8474,
        "contract": "contracts/test/OpsTest.sol:OpsTest",
        "label": "count",
        "offset": 0,
        "slot": "0",
        "type": "t_uint256"
      }
    ],
    "types": {
      "t_uint256": {
        "encoding": "inplace",
        "label": "uint256",
        "numberOfBytes": "32"
      }
    }
  }
}