{
  "address": "0x63c387198f3d5f52668980863c1cf026D09aec61",
  "abi": [
    {
      "inputs": [
        {
          "internalType": "contract IOpsProxyFactory",
          "name": "_opsProxyFactory",
          "type": "address"
        }
      ],
      "stateMutability": "nonpayable",
      "type": "constructor"
    },
    {
      "inputs": [
        {
          "internalType": "bytes32",
          "name": "",
          "type": "bytes32"
        }
      ],
      "name": "execAddresses",
      "outputs": [
        {
          "internalType": "address",
          "name": "",
          "type": "address"
        }
      ],
      "stateMutability": "view",
      "type": "function"
    },
    {
      "inputs": [],
      "name": "fee",
      "outputs": [
        {
          "internalType": "uint256",
          "name": "",
          "type": "uint256"
        }
      ],
      "stateMutability": "view",
      "type": "function"
    },
    {
      "inputs": [],
      "name": "feeToken",
      "outputs": [
        {
          "internalType": "address",
          "name": "",
          "type": "address"
        }
      ],
      "stateMutability": "view",
      "type": "function"
    },
    {
      "inputs": [
        {
          "internalType": "bytes32",
          "name": "",
          "type": "bytes32"
        },
        {
          "internalType": "address",
          "name": "_taskCreator",
          "type": "address"
        },
        {
          "internalType": "address",
          "name": "",
          "type": "address"
        },
        {
          "internalType": "bytes",
          "name": "",
          "type": "bytes"
        },
        {
          "internalType": "bytes",
          "name": "",
          "type": "bytes"
        }
      ],
      "name": "onCreateTask",
      "outputs": [],
      "stateMutability": "nonpayable",
      "type": "function"
    },
    {
      "inputs": [],
      "name": "opsProxyFactory",
      "outputs": [
        {
          "internalType": "contract IOpsProxyFactory",
          "name": "",
          "type": "address"
        }
      ],
      "stateMutability": "view",
      "type": "function"
    },
    {
      "inputs": [
        {
          "internalType": "bytes32",
          "name": "taskId",
          "type": "bytes32"
        },
        {
          "internalType": "address",
          "name": "taskCreator",
          "type": "address"
        },
        {
          "internalType": "address",
          "name": "execAddress",
          "type": "address"
        },
        {
          "internalType": "bytes",
          "name": "execData",
          "type": "bytes"
        }
      ],
      "name": "postExecTask",
      "outputs": [],
      "stateMutability": "nonpayable",
      "type": "function"
    },
    {
      "inputs": [
        {
          "internalType": "bytes32",
          "name": "",
          "type": "bytes32"
        },
        {
          "internalType": "address",
          "name": "_taskCreator",
          "type": "address"
        },
        {
          "internalType": "address",
          "name": "_execAddress",
          "type": "address"
        },
        {
          "internalType": "bytes",
          "name": "_execData",
          "type": "bytes"
        }
      ],
      "name": "preExecTask",
      "outputs": [
        {
          "internalType": "address",
          "name": "",
          "type": "address"
        },
        {
          "internalType": "bytes",
          "name": "execData",
          "type": "bytes"
        }
      ],
      "stateMutability": "nonpayable",
      "type": "function"
    },
    {
      "inputs": [
        {
          "internalType": "bytes32",
          "name": "",
          "type": "bytes32"
        }
      ],
      "name": "taskCreator",
      "outputs": [
        {
          "internalType": "address",
          "name": "",
          "type": "address"
        }
      ],
      "stateMutability": "view",
      "type": "function"
    },
    {
      "inputs": [
        {
          "internalType": "enum LibDataTypes.Module",
          "name": "",
          "type": "uint8"
        }
      ],
      "name": "taskModuleAddresses",
      "outputs": [
        {
          "internalType": "address",
          "name": "",
          "type": "address"
        }
      ],
      "stateMutability": "view",
      "type": "function"
    },
    {
      "inputs": [
        {
          "internalType": "bytes32",
          "name": "",
          "type": "bytes32"
        }
      ],
      "name": "timedTask",
      "outputs": [
        {
          "internalType": "uint128",
          "name": "nextExec",
          "type": "uint128"
        },
        {
          "internalType": "uint128",
          "name": "interval",
          "type": "uint128"
        }
      ],
      "stateMutability": "view",
      "type": "function"
    }
  ],
  "transactionHash": "0xf24be97d198daf07866b300e9f8e36b3454fa062738a491f2daac0f84a46d5d9",
  "args": [
    "0x06D454259fAFec01fF0c5DDBfF9817304bE7aAeC"
  ],
  "numDeployments": 1,
  "solcInputHash": "ec5e7c52a427c068bbd33ab52da213bf",
  "bytecode": "0x60a060405234801561001057600080fd5b50604051610dec380380610dec833981810160405281019061003291906100e1565b8073ffffffffffffffffffffffffffffffffffffffff1660808173ffffffffffffffffffffffffffffffffffffffff16815250505061010e565b600080fd5b600073ffffffffffffffffffffffffffffffffffffffff82169050919050565b600061009c82610071565b9050919050565b60006100ae82610091565b9050919050565b6100be816100a3565b81146100c957600080fd5b50565b6000815190506100db816100b5565b92915050565b6000602082840312156100f7576100f661006c565b5b6000610105848285016100cc565b91505092915050565b608051610cb5610137600039600081816103d80152818161043801526104de0152610cb56000f3fe608060405234801561001057600080fd5b506004361061009e5760003560e01c8063b73944ed11610066578063b73944ed14610159578063b81cd8661461018a578063ba1d0ff4146101bb578063cd3d4fb9146101d9578063ddca3f43146102095761009e565b80632e6e0bd0146100a3578063370f5760146100d3578063647846a5146100ef5780636d2dd29f1461010d578063b0ccbdf01461013d575b600080fd5b6100bd60048036038101906100b89190610648565b610227565b6040516100ca91906106b6565b60405180910390f35b6100ed60048036038101906100e89190610762565b61025a565b005b6100f7610261565b60405161010491906106b6565b60405180910390f35b61012760048036038101906101229190610648565b610287565b60405161013491906106b6565b60405180910390f35b610157600480360381019061015291906107ea565b6102ba565b005b610173600480360381019061016e9190610762565b6102cd565b60405161018192919061093f565b60405180910390f35b6101a4600480360381019061019f9190610648565b61037a565b6040516101b292919061099a565b60405180910390f35b6101c36103d6565b6040516101d09190610a22565b60405180910390f35b6101f360048036038101906101ee9190610a62565b6103fa565b60405161020091906106b6565b60405180910390f35b61021161042d565b60405161021e9190610aa8565b60405180910390f35b60006020528060005260406000206000915054906101000a900473ffffffffffffffffffffffffffffffffffffffff1681565b5050505050565b600460009054906101000a900473ffffffffffffffffffffffffffffffffffffffff1681565b60016020528060005260406000206000915054906101000a900473ffffffffffffffffffffffffffffffffffffffff1681565b6102c386610433565b5050505050505050565b6000606060006102dc87610433565b90508073ffffffffffffffffffffffffffffffffffffffff168673ffffffffffffffffffffffffffffffffffffffff16146103215761031c868686610580565b610367565b84848080601f016020809104026020016040519081016040528093929190818152602001838380828437600081840152601f19601f820116905080830192505050505050505b9150809550859250509550959350505050565b60056020528060005260406000206000915090508060000160009054906101000a90046fffffffffffffffffffffffffffffffff16908060000160109054906101000a90046fffffffffffffffffffffffffffffffff16905082565b7f000000000000000000000000000000000000000000000000000000000000000081565b60066020528060005260406000206000915054906101000a900473ffffffffffffffffffffffffffffffffffffffff1681565b60035481565b6000807f000000000000000000000000000000000000000000000000000000000000000073ffffffffffffffffffffffffffffffffffffffff1663ded89a7c846040518263ffffffff1660e01b815260040161048f91906106b6565b6040805180830381865afa1580156104ab573d6000803e3d6000fd5b505050506040513d601f19601f820116820180604052508101906104cf9190610b10565b80925081935050508061057a577f000000000000000000000000000000000000000000000000000000000000000073ffffffffffffffffffffffffffffffffffffffff166374912cd2846040518263ffffffff1660e01b815260040161053591906106b6565b6020604051808303816000875af1158015610554573d6000803e3d6000fd5b505050506040513d601f19601f820116820180604052508101906105789190610b8e565b505b50919050565b60606354132d7860e01b84848460006040516024016105a29493929190610c3f565b604051602081830303815290604052907bffffffffffffffffffffffffffffffffffffffffffffffffffffffff19166020820180517bffffffffffffffffffffffffffffffffffffffffffffffffffffffff838183161783525050505090509392505050565b600080fd5b600080fd5b6000819050919050565b61062581610612565b811461063057600080fd5b50565b6000813590506106428161061c565b92915050565b60006020828403121561065e5761065d610608565b5b600061066c84828501610633565b91505092915050565b600073ffffffffffffffffffffffffffffffffffffffff82169050919050565b60006106a082610675565b9050919050565b6106b081610695565b82525050565b60006020820190506106cb60008301846106a7565b92915050565b6106da81610695565b81146106e557600080fd5b50565b6000813590506106f7816106d1565b92915050565b600080fd5b600080fd5b600080fd5b60008083601f840112610722576107216106fd565b5b8235905067ffffffffffffffff81111561073f5761073e610702565b5b60208301915083600182028301111561075b5761075a610707565b5b9250929050565b60008060008060006080868803121561077e5761077d610608565b5b600061078c88828901610633565b955050602061079d888289016106e8565b94505060406107ae888289016106e8565b935050606086013567ffffffffffffffff8111156107cf576107ce61060d565b5b6107db8882890161070c565b92509250509295509295909350565b600080600080600080600060a0888a03121561080957610808610608565b5b60006108178a828b01610633565b97505060206108288a828b016106e8565b96505060406108398a828b016106e8565b955050606088013567ffffffffffffffff81111561085a5761085961060d565b5b6108668a828b0161070c565b9450945050608088013567ffffffffffffffff8111156108895761088861060d565b5b6108958a828b0161070c565b925092505092959891949750929550565b600081519050919050565b600082825260208201905092915050565b60005b838110156108e05780820151818401526020810190506108c5565b838111156108ef576000848401525b50505050565b6000601f19601f8301169050919050565b6000610911826108a6565b61091b81856108b1565b935061092b8185602086016108c2565b610934816108f5565b840191505092915050565b600060408201905061095460008301856106a7565b81810360208301526109668184610906565b90509392505050565b60006fffffffffffffffffffffffffffffffff82169050919050565b6109948161096f565b82525050565b60006040820190506109af600083018561098b565b6109bc602083018461098b565b9392505050565b6000819050919050565b60006109e86109e36109de84610675565b6109c3565b610675565b9050919050565b60006109fa826109cd565b9050919050565b6000610a0c826109ef565b9050919050565b610a1c81610a01565b82525050565b6000602082019050610a376000830184610a13565b92915050565b60048110610a4a57600080fd5b50565b600081359050610a5c81610a3d565b92915050565b600060208284031215610a7857610a77610608565b5b6000610a8684828501610a4d565b91505092915050565b6000819050919050565b610aa281610a8f565b82525050565b6000602082019050610abd6000830184610a99565b92915050565b600081519050610ad2816106d1565b92915050565b60008115159050919050565b610aed81610ad8565b8114610af857600080fd5b50565b600081519050610b0a81610ae4565b92915050565b60008060408385031215610b2757610b26610608565b5b6000610b3585828601610ac3565b9250506020610b4685828601610afb565b9150509250929050565b6000610b5b82610675565b9050919050565b610b6b81610b50565b8114610b7657600080fd5b50565b600081519050610b8881610b62565b92915050565b600060208284031215610ba457610ba3610608565b5b6000610bb284828501610b79565b91505092915050565b82818337600083830152505050565b6000610bd683856108b1565b9350610be3838584610bbb565b610bec836108f5565b840190509392505050565b6000819050919050565b600060ff82169050919050565b6000610c29610c24610c1f84610bf7565b6109c3565b610c01565b9050919050565b610c3981610c0e565b82525050565b6000606082019050610c5460008301876106a7565b8181036020830152610c67818587610bca565b9050610c766040830184610c30565b9594505050505056fea2646970667358221220f03e34108176e61aa8af55a8a20197d09ced1ebfe70e49343fe064e2a954d58e64736f6c634300080e0033",
  "devdoc": {
    "kind": "dev",
    "methods": {
      "onCreateTask(bytes32,address,address,bytes,bytes)": {
        "details": "_taskCreator cannot create task to other user's proxy",
        "params": {
          "execAddress": "Address of contract that should be called.",
          "execData": "Execution data to be called with / function selector if execution data is yet to be determined.",
          "initModuleArg": "Encoded arguments for module if any.",
          "taskCreator": "The address which created the task.",
          "taskId": "Unique hash of the task created."
        }
      },
      "postExecTask(bytes32,address,address,bytes)": {
        "params": {
          "execAddress": "Address of contract that should be called.",
          "execData": "Execution data to be called with / function selector if execution data is yet to be determined.",
          "taskCreator": "The address which created the task.",
          "taskId": "Unique hash of the task created."
        }
      },
      "preExecTask(bytes32,address,address,bytes)": {
        "details": "_execData is encoded with proxy's `executeCall` function unless _execAddress is OpsProxy which assumes that _execData is encoded with `executeCall` or `batchExecuteCall`.",
        "params": {
          "execAddress": "Address of contract that should be called.",
          "execData": "Execution data to be called with / function selector if execution data is yet to be determined.",
          "taskCreator": "The address which created the task.",
          "taskId": "Unique hash of the task created."
        },
        "returns": {
          "_0": "address Overriden or original execution address",
          "execData": "bytes Overriden or original execution data"
        }
      }
    },
    "version": 1
  },
  "userdoc": {
    "kind": "user",
    "methods": {
      "onCreateTask(bytes32,address,address,bytes,bytes)": {
        "notice": "Initiates task module whenever `createTask` is being called."
      },
      "postExecTask(bytes32,address,address,bytes)": {
        "notice": "Called during `exec` and after execAddress is called."
      },
      "preExecTask(bytes32,address,address,bytes)": {
        "notice": "Called during `exec` and before execAddress is being called."
      }
    },
    "version": 1
  },
  "storageLayout": {
    "storage": [
      {
        "astId": 2939,
        "contract": "contracts/taskModules/ProxyModule.sol:ProxyModule",
        "label": "taskCreator",
        "offset": 0,
        "slot": "0",
        "type": "t_mapping(t_bytes32,t_address)"
      },
      {
        "astId": 2944,
        "contract": "contracts/taskModules/ProxyModule.sol:ProxyModule",
        "label": "execAddresses",
        "offset": 0,
        "slot": "1",
        "type": "t_mapping(t_bytes32,t_address)"
      },
      {
        "astId": 2950,
        "contract": "contracts/taskModules/ProxyModule.sol:ProxyModule",
        "label": "_createdTasks",
        "offset": 0,
        "slot": "2",
        "type": "t_mapping(t_address,t_struct(Bytes32Set)2039_storage)"
      },
      {
        "astId": 2952,
        "contract": "contracts/taskModules/ProxyModule.sol:ProxyModule",
        "label": "fee",
        "offset": 0,
        "slot": "3",
        "type": "t_uint256"
      },
      {
        "astId": 2954,
        "contract": "contracts/taskModules/ProxyModule.sol:ProxyModule",
        "label": "feeToken",
        "offset": 0,
        "slot": "4",
        "type": "t_address"
      },
      {
        "astId": 2960,
        "contract": "contracts/taskModules/ProxyModule.sol:ProxyModule",
        "label": "timedTask",
        "offset": 0,
        "slot": "5",
        "type": "t_mapping(t_bytes32,t_struct(Time)4138_storage)"
      },
      {
        "astId": 2965,
        "contract": "contracts/taskModules/ProxyModule.sol:ProxyModule",
        "label": "taskModuleAddresses",
        "offset": 0,
        "slot": "6",
        "type": "t_mapping(t_enum(Module)4125,t_address)"
      }
    ],
    "types": {
      "t_address": {
        "encoding": "inplace",
        "label": "address",
        "numberOfBytes": "20"
      },
      "t_array(t_bytes32)dyn_storage": {
        "base": "t_bytes32",
        "encoding": "dynamic_array",
        "label": "bytes32[]",
        "numberOfBytes": "32"
      },
      "t_bytes32": {
        "encoding": "inplace",
        "label": "bytes32",
        "numberOfBytes": "32"
      },
      "t_enum(Module)4125": {
        "encoding": "inplace",
        "label": "enum LibDataTypes.Module",
        "numberOfBytes": "1"
      },
      "t_mapping(t_address,t_struct(Bytes32Set)2039_storage)": {
        "encoding": "mapping",
        "key": "t_address",
        "label": "mapping(address => struct EnumerableSet.Bytes32Set)",
        "numberOfBytes": "32",
        "value": "t_struct(Bytes32Set)2039_storage"
      },
      "t_mapping(t_bytes32,t_address)": {
        "encoding": "mapping",
        "key": "t_bytes32",
        "label": "mapping(bytes32 => address)",
        "numberOfBytes": "32",
        "value": "t_address"
      },
      "t_mapping(t_bytes32,t_struct(Time)4138_storage)": {
        "encoding": "mapping",
        "key": "t_bytes32",
        "label": "mapping(bytes32 => struct LibDataTypes.Time)",
        "numberOfBytes": "32",
        "value": "t_struct(Time)4138_storage"
      },
      "t_mapping(t_bytes32,t_uint256)": {
        "encoding": "mapping",
        "key": "t_bytes32",
        "label": "mapping(bytes32 => uint256)",
        "numberOfBytes": "32",
        "value": "t_uint256"
      },
      "t_mapping(t_enum(Module)4125,t_address)": {
        "encoding": "mapping",
        "key": "t_enum(Module)4125",
        "label": "mapping(enum LibDataTypes.Module => address)",
        "numberOfBytes": "32",
        "value": "t_address"
      },
      "t_struct(Bytes32Set)2039_storage": {
        "encoding": "inplace",
        "label": "struct EnumerableSet.Bytes32Set",
        "members": [
          {
            "astId": 2038,
            "contract": "contracts/taskModules/ProxyModule.sol:ProxyModule",
            "label": "_inner",
            "offset": 0,
            "slot": "0",
            "type": "t_struct(Set)1845_storage"
          }
        ],
        "numberOfBytes": "64"
      },
      "t_struct(Set)1845_storage": {
        "encoding": "inplace",
        "label": "struct EnumerableSet.Set",
        "members": [
          {
            "astId": 1840,
            "contract": "contracts/taskModules/ProxyModule.sol:ProxyModule",
            "label": "_values",
            "offset": 0,
            "slot": "0",
            "type": "t_array(t_bytes32)dyn_storage"
          },
          {
            "astId": 1844,
            "contract": "contracts/taskModules/ProxyModule.sol:ProxyModule",
            "label": "_indexes",
            "offset": 0,
            "slot": "1",
            "type": "t_mapping(t_bytes32,t_uint256)"
          }
        ],
        "numberOfBytes": "64"
      },
      "t_struct(Time)4138_storage": {
        "encoding": "inplace",
        "label": "struct LibDataTypes.Time",
        "members": [
          {
            "astId": 4135,
            "contract": "contracts/taskModules/ProxyModule.sol:ProxyModule",
            "label": "nextExec",
            "offset": 0,
            "slot": "0",
            "type": "t_uint128"
          },
          {
            "astId": 4137,
            "contract": "contracts/taskModules/ProxyModule.sol:ProxyModule",
            "label": "interval",
            "offset": 16,
            "slot": "0",
            "type": "t_uint128"
          }
        ],
        "numberOfBytes": "32"
      },
      "t_uint128": {
        "encoding": "inplace",
        "label": "uint128",
        "numberOfBytes": "16"
      },
      "t_uint256": {
        "encoding": "inplace",
        "label": "uint256",
        "numberOfBytes": "32"
      }
    }
  }
}