{
  "address": "0x0422B6a9c81163FDa443FAb808E5B5BF27AB6720",
  "abi": [
    {
      "inputs": [
        {
          "internalType": "address",
          "name": "_resolverAddress",
          "type": "address"
        },
        {
          "internalType": "bytes",
          "name": "_resolverData",
          "type": "bytes"
        }
      ],
      "name": "encodeModuleArg",
      "outputs": [
        {
          "internalType": "bytes",
          "name": "",
          "type": "bytes"
        }
      ],
      "stateMutability": "pure",
      "type": "function"
    },
    {
      "inputs": [
        {
          "internalType": "bytes32",
          "name": "",
          "type": "bytes32"
        }
      ],
      "name": "execAddresses",
      "outputs": [
        {
          "internalType": "address",
          "name": "",
          "type": "address"
        }
      ],
      "stateMutability": "view",
      "type": "function"
    },
    {
      "inputs": [],
      "name": "fee",
      "outputs": [
        {
          "internalType": "uint256",
          "name": "",
          "type": "uint256"
        }
      ],
      "stateMutability": "view",
      "type": "function"
    },
    {
      "inputs": [],
      "name": "feeToken",
      "outputs": [
        {
          "internalType": "address",
          "name": "",
          "type": "address"
        }
      ],
      "stateMutability": "view",
      "type": "function"
    },
    {
      "inputs": [
        {
          "internalType": "bytes32",
          "name": "",
          "type": "bytes32"
        },
        {
          "internalType": "address",
          "name": "",
          "type": "address"
        },
        {
          "internalType": "address",
          "name": "",
          "type": "address"
        },
        {
          "internalType": "bytes",
          "name": "",
          "type": "bytes"
        },
        {
          "internalType": "bytes",
          "name": "",
          "type": "bytes"
        }
      ],
      "name": "onCreateTask",
      "outputs": [],
      "stateMutability": "nonpayable",
      "type": "function"
    },
    {
      "inputs": [
        {
          "internalType": "bytes32",
          "name": "taskId",
          "type": "bytes32"
        },
        {
          "internalType": "address",
          "name": "taskCreator",
          "type": "address"
        },
        {
          "internalType": "address",
          "name": "execAddress",
          "type": "address"
        },
        {
          "internalType": "bytes",
          "name": "execData",
          "type": "bytes"
        }
      ],
      "name": "postExecTask",
      "outputs": [],
      "stateMutability": "nonpayable",
      "type": "function"
    },
    {
      "inputs": [
        {
          "internalType": "bytes32",
          "name": "",
          "type": "bytes32"
        },
        {
          "internalType": "address",
          "name": "",
          "type": "address"
        },
        {
          "internalType": "address",
          "name": "_execAddress",
          "type": "address"
        },
        {
          "internalType": "bytes",
          "name": "_execData",
          "type": "bytes"
        }
      ],
      "name": "preExecTask",
      "outputs": [
        {
          "internalType": "address",
          "name": "",
          "type": "address"
        },
        {
          "internalType": "bytes",
          "name": "",
          "type": "bytes"
        }
      ],
      "stateMutability": "nonpayable",
      "type": "function"
    },
    {
      "inputs": [
        {
          "internalType": "bytes32",
          "name": "",
          "type": "bytes32"
        }
      ],
      "name": "taskCreator",
      "outputs": [
        {
          "internalType": "address",
          "name": "",
          "type": "address"
        }
      ],
      "stateMutability": "view",
      "type": "function"
    },
    {
      "inputs": [
        {
          "internalType": "enum LibDataTypes.Module",
          "name": "",
          "type": "uint8"
        }
      ],
      "name": "taskModuleAddresses",
      "outputs": [
        {
          "internalType": "address",
          "name": "",
          "type": "address"
        }
      ],
      "stateMutability": "view",
      "type": "function"
    },
    {
      "inputs": [
        {
          "internalType": "bytes32",
          "name": "",
          "type": "bytes32"
        }
      ],
      "name": "timedTask",
      "outputs": [
        {
          "internalType": "uint128",
          "name": "nextExec",
          "type": "uint128"
        },
        {
          "internalType": "uint128",
          "name": "interval",
          "type": "uint128"
        }
      ],
      "stateMutability": "view",
      "type": "function"
    }
  ],
  "transactionHash": "0x4fb804216a7320bd4cccf58af53396ec45b4fc4165b31c1d7f3403ae14f6f987",
  "args": [],
  "numDeployments": 1,
  "solcInputHash": "ec5e7c52a427c068bbd33ab52da213bf",
  "bytecode": "0x608060405234801561001057600080fd5b5061095e806100206000396000f3fe608060405234801561001057600080fd5b506004361061009e5760003560e01c8063b0ccbdf011610066578063b0ccbdf01461016d578063b73944ed14610189578063b81cd866146101ba578063cd3d4fb9146101eb578063ddca3f431461021b5761009e565b80632e6e0bd0146100a3578063370f5760146100d35780633c706c6f146100ef578063647846a51461011f5780636d2dd29f1461013d575b600080fd5b6100bd60048036038101906100b89190610437565b610239565b6040516100ca91906104a5565b60405180910390f35b6100ed60048036038101906100e89190610551565b61026c565b005b610109600480360381019061010491906105d9565b610273565b60405161011691906106d2565b60405180910390f35b6101276102a2565b60405161013491906104a5565b60405180910390f35b61015760048036038101906101529190610437565b6102c8565b60405161016491906104a5565b60405180910390f35b610187600480360381019061018291906106f4565b6102fb565b005b6101a3600480360381019061019e9190610551565b610304565b6040516101b19291906107b0565b60405180910390f35b6101d460048036038101906101cf9190610437565b610362565b6040516101e292919061080b565b60405180910390f35b61020560048036038101906102009190610859565b6103be565b60405161021291906104a5565b60405180910390f35b6102236103f1565b604051610230919061089f565b60405180910390f35b60006020528060005260406000206000915054906101000a900473ffffffffffffffffffffffffffffffffffffffff1681565b5050505050565b606083838360405160200161028a939291906108f6565b60405160208183030381529060405290509392505050565b600460009054906101000a900473ffffffffffffffffffffffffffffffffffffffff1681565b60016020528060005260406000206000915054906101000a900473ffffffffffffffffffffffffffffffffffffffff1681565b50505050505050565b6000606084848481818080601f016020809104026020016040519081016040528093929190818152602001838380828437600081840152601f19601f8201169050808301925050505050505090509050915091509550959350505050565b60056020528060005260406000206000915090508060000160009054906101000a90046fffffffffffffffffffffffffffffffff16908060000160109054906101000a90046fffffffffffffffffffffffffffffffff16905082565b60066020528060005260406000206000915054906101000a900473ffffffffffffffffffffffffffffffffffffffff1681565b60035481565b600080fd5b600080fd5b6000819050919050565b61041481610401565b811461041f57600080fd5b50565b6000813590506104318161040b565b92915050565b60006020828403121561044d5761044c6103f7565b5b600061045b84828501610422565b91505092915050565b600073ffffffffffffffffffffffffffffffffffffffff82169050919050565b600061048f82610464565b9050919050565b61049f81610484565b82525050565b60006020820190506104ba6000830184610496565b92915050565b6104c981610484565b81146104d457600080fd5b50565b6000813590506104e6816104c0565b92915050565b600080fd5b600080fd5b600080fd5b60008083601f840112610511576105106104ec565b5b8235905067ffffffffffffffff81111561052e5761052d6104f1565b5b60208301915083600182028301111561054a576105496104f6565b5b9250929050565b60008060008060006080868803121561056d5761056c6103f7565b5b600061057b88828901610422565b955050602061058c888289016104d7565b945050604061059d888289016104d7565b935050606086013567ffffffffffffffff8111156105be576105bd6103fc565b5b6105ca888289016104fb565b92509250509295509295909350565b6000806000604084860312156105f2576105f16103f7565b5b6000610600868287016104d7565b935050602084013567ffffffffffffffff811115610621576106206103fc565b5b61062d868287016104fb565b92509250509250925092565b600081519050919050565b600082825260208201905092915050565b60005b83811015610673578082015181840152602081019050610658565b83811115610682576000848401525b50505050565b6000601f19601f8301169050919050565b60006106a482610639565b6106ae8185610644565b93506106be818560208601610655565b6106c781610688565b840191505092915050565b600060208201905081810360008301526106ec8184610699565b905092915050565b600080600080600080600060a0888a031215610713576107126103f7565b5b60006107218a828b01610422565b97505060206107328a828b016104d7565b96505060406107438a828b016104d7565b955050606088013567ffffffffffffffff811115610764576107636103fc565b5b6107708a828b016104fb565b9450945050608088013567ffffffffffffffff811115610793576107926103fc565b5b61079f8a828b016104fb565b925092505092959891949750929550565b60006040820190506107c56000830185610496565b81810360208301526107d78184610699565b90509392505050565b60006fffffffffffffffffffffffffffffffff82169050919050565b610805816107e0565b82525050565b600060408201905061082060008301856107fc565b61082d60208301846107fc565b9392505050565b6004811061084157600080fd5b50565b60008135905061085381610834565b92915050565b60006020828403121561086f5761086e6103f7565b5b600061087d84828501610844565b91505092915050565b6000819050919050565b61089981610886565b82525050565b60006020820190506108b46000830184610890565b92915050565b82818337600083830152505050565b60006108d58385610644565b93506108e28385846108ba565b6108eb83610688565b840190509392505050565b600060408201905061090b6000830186610496565b818103602083015261091e8184866108c9565b905094935050505056fea2646970667358221220abe808334d2bde05e6af72ad900b6959fa76551a0d4919f68d6f0d868c4ea8b164736f6c634300080e0033",
  "devdoc": {
    "kind": "dev",
    "methods": {
      "encodeModuleArg(address,bytes)": {
        "params": {
          "_resolverAddress": "Address of resolver.",
          "_resolverData": "Data passed to resolver."
        }
      },
      "onCreateTask(bytes32,address,address,bytes,bytes)": {
        "params": {
          "execAddress": "Address of contract that should be called.",
          "execData": "Execution data to be called with / function selector if execution data is yet to be determined.",
          "initModuleArg": "Encoded arguments for module if any.",
          "taskCreator": "The address which created the task.",
          "taskId": "Unique hash of the task created."
        }
      },
      "postExecTask(bytes32,address,address,bytes)": {
        "params": {
          "execAddress": "Address of contract that should be called.",
          "execData": "Execution data to be called with / function selector if execution data is yet to be determined.",
          "taskCreator": "The address which created the task.",
          "taskId": "Unique hash of the task created."
        }
      },
      "preExecTask(bytes32,address,address,bytes)": {
        "params": {
          "execAddress": "Address of contract that should be called.",
          "execData": "Execution data to be called with / function selector if execution data is yet to be determined.",
          "taskCreator": "The address which created the task.",
          "taskId": "Unique hash of the task created."
        },
        "returns": {
          "_0": "address Overriden or original execution address",
          "_1": "bytes Overriden or original execution data"
        }
      }
    },
    "version": 1
  },
  "userdoc": {
    "kind": "user",
    "methods": {
      "encodeModuleArg(address,bytes)": {
        "notice": "Helper function to encode arguments for ResolverModule."
      },
      "onCreateTask(bytes32,address,address,bytes,bytes)": {
        "notice": "Initiates task module whenever `createTask` is being called."
      },
      "postExecTask(bytes32,address,address,bytes)": {
        "notice": "Called during `exec` and after execAddress is called."
      },
      "preExecTask(bytes32,address,address,bytes)": {
        "notice": "Called during `exec` and before execAddress is being called."
      }
    },
    "version": 1
  },
  "storageLayout": {
    "storage": [
      {
        "astId": 2939,
        "contract": "contracts/taskModules/ResolverModule.sol:ResolverModule",
        "label": "taskCreator",
        "offset": 0,
        "slot": "0",
        "type": "t_mapping(t_bytes32,t_address)"
      },
      {
        "astId": 2944,
        "contract": "contracts/taskModules/ResolverModule.sol:ResolverModule",
        "label": "execAddresses",
        "offset": 0,
        "slot": "1",
        "type": "t_mapping(t_bytes32,t_address)"
      },
      {
        "astId": 2950,
        "contract": "contracts/taskModules/ResolverModule.sol:ResolverModule",
        "label": "_createdTasks",
        "offset": 0,
        "slot": "2",
        "type": "t_mapping(t_address,t_struct(Bytes32Set)2039_storage)"
      },
      {
        "astId": 2952,
        "contract": "contracts/taskModules/ResolverModule.sol:ResolverModule",
        "label": "fee",
        "offset": 0,
        "slot": "3",
        "type": "t_uint256"
      },
      {
        "astId": 2954,
        "contract": "contracts/taskModules/ResolverModule.sol:ResolverModule",
        "label": "feeToken",
        "offset": 0,
        "slot": "4",
        "type": "t_address"
      },
      {
        "astId": 2960,
        "contract": "contracts/taskModules/ResolverModule.sol:ResolverModule",
        "label": "timedTask",
        "offset": 0,
        "slot": "5",
        "type": "t_mapping(t_bytes32,t_struct(Time)4138_storage)"
      },
      {
        "astId": 2965,
        "contract": "contracts/taskModules/ResolverModule.sol:ResolverModule",
        "label": "taskModuleAddresses",
        "offset": 0,
        "slot": "6",
        "type": "t_mapping(t_enum(Module)4125,t_address)"
      }
    ],
    "types": {
      "t_address": {
        "encoding": "inplace",
        "label": "address",
        "numberOfBytes": "20"
      },
      "t_array(t_bytes32)dyn_storage": {
        "base": "t_bytes32",
        "encoding": "dynamic_array",
        "label": "bytes32[]",
        "numberOfBytes": "32"
      },
      "t_bytes32": {
        "encoding": "inplace",
        "label": "bytes32",
        "numberOfBytes": "32"
      },
      "t_enum(Module)4125": {
        "encoding": "inplace",
        "label": "enum LibDataTypes.Module",
        "numberOfBytes": "1"
      },
      "t_mapping(t_address,t_struct(Bytes32Set)2039_storage)": {
        "encoding": "mapping",
        "key": "t_address",
        "label": "mapping(address => struct EnumerableSet.Bytes32Set)",
        "numberOfBytes": "32",
        "value": "t_struct(Bytes32Set)2039_storage"
      },
      "t_mapping(t_bytes32,t_address)": {
        "encoding": "mapping",
        "key": "t_bytes32",
        "label": "mapping(bytes32 => address)",
        "numberOfBytes": "32",
        "value": "t_address"
      },
      "t_mapping(t_bytes32,t_struct(Time)4138_storage)": {
        "encoding": "mapping",
        "key": "t_bytes32",
        "label": "mapping(bytes32 => struct LibDataTypes.Time)",
        "numberOfBytes": "32",
        "value": "t_struct(Time)4138_storage"
      },
      "t_mapping(t_bytes32,t_uint256)": {
        "encoding": "mapping",
        "key": "t_bytes32",
        "label": "mapping(bytes32 => uint256)",
        "numberOfBytes": "32",
        "value": "t_uint256"
      },
      "t_mapping(t_enum(Module)4125,t_address)": {
        "encoding": "mapping",
        "key": "t_enum(Module)4125",
        "label": "mapping(enum LibDataTypes.Module => address)",
        "numberOfBytes": "32",
        "value": "t_address"
      },
      "t_struct(Bytes32Set)2039_storage": {
        "encoding": "inplace",
        "label": "struct EnumerableSet.Bytes32Set",
        "members": [
          {
            "astId": 2038,
            "contract": "contracts/taskModules/ResolverModule.sol:ResolverModule",
            "label": "_inner",
            "offset": 0,
            "slot": "0",
            "type": "t_struct(Set)1845_storage"
          }
        ],
        "numberOfBytes": "64"
      },
      "t_struct(Set)1845_storage": {
        "encoding": "inplace",
        "label": "struct EnumerableSet.Set",
        "members": [
          {
            "astId": 1840,
            "contract": "contracts/taskModules/ResolverModule.sol:ResolverModule",
            "label": "_values",
            "offset": 0,
            "slot": "0",
            "type": "t_array(t_bytes32)dyn_storage"
          },
          {
            "astId": 1844,
            "contract": "contracts/taskModules/ResolverModule.sol:ResolverModule",
            "label": "_indexes",
            "offset": 0,
            "slot": "1",
            "type": "t_mapping(t_bytes32,t_uint256)"
          }
        ],
        "numberOfBytes": "64"
      },
      "t_struct(Time)4138_storage": {
        "encoding": "inplace",
        "label": "struct LibDataTypes.Time",
        "members": [
          {
            "astId": 4135,
            "contract": "contracts/taskModules/ResolverModule.sol:ResolverModule",
            "label": "nextExec",
            "offset": 0,
            "slot": "0",
            "type": "t_uint128"
          },
          {
            "astId": 4137,
            "contract": "contracts/taskModules/ResolverModule.sol:ResolverModule",
            "label": "interval",
            "offset": 16,
            "slot": "0",
            "type": "t_uint128"
          }
        ],
        "numberOfBytes": "32"
      },
      "t_uint128": {
        "encoding": "inplace",
        "label": "uint128",
        "numberOfBytes": "16"
      },
      "t_uint256": {
        "encoding": "inplace",
        "label": "uint256",
        "numberOfBytes": "32"
      }
    }
  }
}