{
  "address": "0x115682745f38A926e4A8155509546C6CD16BCE02",
  "abi": [
    {
      "inputs": [
        {
          "internalType": "bytes32",
          "name": "",
          "type": "bytes32"
        }
      ],
      "name": "execAddresses",
      "outputs": [
        {
          "internalType": "address",
          "name": "",
          "type": "address"
        }
      ],
      "stateMutability": "view",
      "type": "function"
    },
    {
      "inputs": [],
      "name": "fee",
      "outputs": [
        {
          "internalType": "uint256",
          "name": "",
          "type": "uint256"
        }
      ],
      "stateMutability": "view",
      "type": "function"
    },
    {
      "inputs": [],
      "name": "feeToken",
      "outputs": [
        {
          "internalType": "address",
          "name": "",
          "type": "address"
        }
      ],
      "stateMutability": "view",
      "type": "function"
    },
    {
      "inputs": [
        {
          "internalType": "bytes32",
          "name": "",
          "type": "bytes32"
        },
        {
          "internalType": "address",
          "name": "",
          "type": "address"
        },
        {
          "internalType": "address",
          "name": "",
          "type": "address"
        },
        {
          "internalType": "bytes",
          "name": "",
          "type": "bytes"
        },
        {
          "internalType": "bytes",
          "name": "",
          "type": "bytes"
        }
      ],
      "name": "onCreateTask",
      "outputs": [],
      "stateMutability": "nonpayable",
      "type": "function"
    },
    {
      "inputs": [
        {
          "internalType": "bytes32",
          "name": "_taskId",
          "type": "bytes32"
        },
        {
          "internalType": "address",
          "name": "_taskCreator",
          "type": "address"
        },
        {
          "internalType": "address",
          "name": "",
          "type": "address"
        },
        {
          "internalType": "bytes",
          "name": "",
          "type": "bytes"
        }
      ],
      "name": "postExecTask",
      "outputs": [],
      "stateMutability": "nonpayable",
      "type": "function"
    },
    {
      "inputs": [
        {
          "internalType": "bytes32",
          "name": "",
          "type": "bytes32"
        },
        {
          "internalType": "address",
          "name": "",
          "type": "address"
        },
        {
          "internalType": "address",
          "name": "_execAddress",
          "type": "address"
        },
        {
          "internalType": "bytes",
          "name": "_execData",
          "type": "bytes"
        }
      ],
      "name": "preExecTask",
      "outputs": [
        {
          "internalType": "address",
          "name": "",
          "type": "address"
        },
        {
          "internalType": "bytes",
          "name": "",
          "type": "bytes"
        }
      ],
      "stateMutability": "nonpayable",
      "type": "function"
    },
    {
      "inputs": [
        {
          "internalType": "bytes32",
          "name": "",
          "type": "bytes32"
        }
      ],
      "name": "taskCreator",
      "outputs": [
        {
          "internalType": "address",
          "name": "",
          "type": "address"
        }
      ],
      "stateMutability": "view",
      "type": "function"
    },
    {
      "inputs": [
        {
          "internalType": "enum LibDataTypes.Module",
          "name": "",
          "type": "uint8"
        }
      ],
      "name": "taskModuleAddresses",
      "outputs": [
        {
          "internalType": "address",
          "name": "",
          "type": "address"
        }
      ],
      "stateMutability": "view",
      "type": "function"
    },
    {
      "inputs": [
        {
          "internalType": "bytes32",
          "name": "",
          "type": "bytes32"
        }
      ],
      "name": "timedTask",
      "outputs": [
        {
          "internalType": "uint128",
          "name": "nextExec",
          "type": "uint128"
        },
        {
          "internalType": "uint128",
          "name": "interval",
          "type": "uint128"
        }
      ],
      "stateMutability": "view",
      "type": "function"
    }
  ],
  "transactionHash": "0x30fe915c9a364d562ddbc6fd08babcaeae7e5f1c05ccac2d83be2f63e9fd920f",
  "args": [],
  "numDeployments": 1,
  "solcInputHash": "ec5e7c52a427c068bbd33ab52da213bf",
  "bytecode": "0x608060405234801561001057600080fd5b50610b0f806100206000396000f3fe608060405234801561001057600080fd5b50600436106100935760003560e01c8063b0ccbdf011610066578063b0ccbdf014610132578063b73944ed1461014e578063b81cd8661461017f578063cd3d4fb9146101b0578063ddca3f43146101e057610093565b80632e6e0bd014610098578063370f5760146100c8578063647846a5146100e45780636d2dd29f14610102575b600080fd5b6100b260048036038101906100ad91906105df565b6101fe565b6040516100bf919061064d565b60405180910390f35b6100e260048036038101906100dd91906106f9565b610231565b005b6100ec61031f565b6040516100f9919061064d565b60405180910390f35b61011c600480360381019061011791906105df565b610345565b604051610129919061064d565b60405180910390f35b61014c60048036038101906101479190610781565b610378565b005b610168600480360381019061016391906106f9565b610381565b6040516101769291906108d6565b60405180910390f35b610199600480360381019061019491906105df565b6103df565b6040516101a7929190610931565b60405180910390f35b6101ca60048036038101906101c5919061097f565b61043b565b6040516101d7919061064d565b60405180910390f35b6101e861046e565b6040516101f591906109c5565b60405180910390f35b60006020528060005260406000206000915054906101000a900473ffffffffffffffffffffffffffffffffffffffff1681565b61028285600260008773ffffffffffffffffffffffffffffffffffffffff1673ffffffffffffffffffffffffffffffffffffffff16815260200190815260200160002061047490919063ffffffff16565b5060056000868152602001908152602001600020600080820160006101000a8154906fffffffffffffffffffffffffffffffff02191690556000820160106101000a8154906fffffffffffffffffffffffffffffffff021916905550507f44d83729a43f9c6046446df014d073dd242e0ad672071e9b292f31b669c25b0985856040516103109291906109ef565b60405180910390a15050505050565b600460009054906101000a900473ffffffffffffffffffffffffffffffffffffffff1681565b60016020528060005260406000206000915054906101000a900473ffffffffffffffffffffffffffffffffffffffff1681565b50505050505050565b6000606084848481818080601f016020809104026020016040519081016040528093929190818152602001838380828437600081840152601f19601f8201169050808301925050505050505090509050915091509550959350505050565b60056020528060005260406000206000915090508060000160009054906101000a90046fffffffffffffffffffffffffffffffff16908060000160109054906101000a90046fffffffffffffffffffffffffffffffff16905082565b60066020528060005260406000206000915054906101000a900473ffffffffffffffffffffffffffffffffffffffff1681565b60035481565b6000610483836000018361048b565b905092915050565b600080836001016000848152602001908152602001600020549050600081146105935760006001826104bd9190610a47565b90506000600186600001805490506104d59190610a47565b90508181146105445760008660000182815481106104f6576104f5610a7b565b5b906000526020600020015490508087600001848154811061051a57610519610a7b565b5b90600052602060002001819055508387600101600083815260200190815260200160002081905550505b8560000180548061055857610557610aaa565b5b600190038181906000526020600020016000905590558560010160008681526020019081526020016000206000905560019350505050610599565b60009150505b92915050565b600080fd5b600080fd5b6000819050919050565b6105bc816105a9565b81146105c757600080fd5b50565b6000813590506105d9816105b3565b92915050565b6000602082840312156105f5576105f461059f565b5b6000610603848285016105ca565b91505092915050565b600073ffffffffffffffffffffffffffffffffffffffff82169050919050565b60006106378261060c565b9050919050565b6106478161062c565b82525050565b6000602082019050610662600083018461063e565b92915050565b6106718161062c565b811461067c57600080fd5b50565b60008135905061068e81610668565b92915050565b600080fd5b600080fd5b600080fd5b60008083601f8401126106b9576106b8610694565b5b8235905067ffffffffffffffff8111156106d6576106d5610699565b5b6020830191508360018202830111156106f2576106f161069e565b5b9250929050565b6000806000806000608086880312156107155761071461059f565b5b6000610723888289016105ca565b95505060206107348882890161067f565b94505060406107458882890161067f565b935050606086013567ffffffffffffffff811115610766576107656105a4565b5b610772888289016106a3565b92509250509295509295909350565b600080600080600080600060a0888a0312156107a05761079f61059f565b5b60006107ae8a828b016105ca565b97505060206107bf8a828b0161067f565b96505060406107d08a828b0161067f565b955050606088013567ffffffffffffffff8111156107f1576107f06105a4565b5b6107fd8a828b016106a3565b9450945050608088013567ffffffffffffffff8111156108205761081f6105a4565b5b61082c8a828b016106a3565b925092505092959891949750929550565b600081519050919050565b600082825260208201905092915050565b60005b8381101561087757808201518184015260208101905061085c565b83811115610886576000848401525b50505050565b6000601f19601f8301169050919050565b60006108a88261083d565b6108b28185610848565b93506108c2818560208601610859565b6108cb8161088c565b840191505092915050565b60006040820190506108eb600083018561063e565b81810360208301526108fd818461089d565b90509392505050565b60006fffffffffffffffffffffffffffffffff82169050919050565b61092b81610906565b82525050565b60006040820190506109466000830185610922565b6109536020830184610922565b9392505050565b6004811061096757600080fd5b50565b6000813590506109798161095a565b92915050565b6000602082840312156109955761099461059f565b5b60006109a38482850161096a565b91505092915050565b6000819050919050565b6109bf816109ac565b82525050565b60006020820190506109da60008301846109b6565b92915050565b6109e9816105a9565b82525050565b6000604082019050610a0460008301856109e0565b610a11602083018461063e565b9392505050565b7f4e487b7100000000000000000000000000000000000000000000000000000000600052601160045260246000fd5b6000610a52826109ac565b9150610a5d836109ac565b925082821015610a7057610a6f610a18565b5b828203905092915050565b7f4e487b7100000000000000000000000000000000000000000000000000000000600052603260045260246000fd5b7f4e487b7100000000000000000000000000000000000000000000000000000000600052603160045260246000fdfea26469706673582212200f028f933613e2a58642c3e4d6342bce3de04155c68844055f8debdd078102a964736f6c634300080e0033",
  "devdoc": {
    "kind": "dev",
    "methods": {
      "onCreateTask(bytes32,address,address,bytes,bytes)": {
        "params": {
          "execAddress": "Address of contract that should be called.",
          "execData": "Execution data to be called with / function selector if execution data is yet to be determined.",
          "initModuleArg": "Encoded arguments for module if any.",
          "taskCreator": "The address which created the task.",
          "taskId": "Unique hash of the task created."
        }
      },
      "postExecTask(bytes32,address,address,bytes)": {
        "params": {
          "execAddress": "Address of contract that should be called.",
          "execData": "Execution data to be called with / function selector if execution data is yet to be determined.",
          "taskCreator": "The address which created the task.",
          "taskId": "Unique hash of the task created."
        }
      },
      "preExecTask(bytes32,address,address,bytes)": {
        "params": {
          "execAddress": "Address of contract that should be called.",
          "execData": "Execution data to be called with / function selector if execution data is yet to be determined.",
          "taskCreator": "The address which created the task.",
          "taskId": "Unique hash of the task created."
        },
        "returns": {
          "_0": "address Overriden or original execution address",
          "_1": "bytes Overriden or original execution data"
        }
      }
    },
    "version": 1
  },
  "userdoc": {
    "kind": "user",
    "methods": {
      "onCreateTask(bytes32,address,address,bytes,bytes)": {
        "notice": "Initiates task module whenever `createTask` is being called."
      },
      "postExecTask(bytes32,address,address,bytes)": {
        "notice": "Called during `exec` and after execAddress is called."
      },
      "preExecTask(bytes32,address,address,bytes)": {
        "notice": "Called during `exec` and before execAddress is being called."
      }
    },
    "version": 1
  },
  "storageLayout": {
    "storage": [
      {
        "astId": 2939,
        "contract": "contracts/taskModules/SingleExecModule.sol:SingleExecModule",
        "label": "taskCreator",
        "offset": 0,
        "slot": "0",
        "type": "t_mapping(t_bytes32,t_address)"
      },
      {
        "astId": 2944,
        "contract": "contracts/taskModules/SingleExecModule.sol:SingleExecModule",
        "label": "execAddresses",
        "offset": 0,
        "slot": "1",
        "type": "t_mapping(t_bytes32,t_address)"
      },
      {
        "astId": 2950,
        "contract": "contracts/taskModules/SingleExecModule.sol:SingleExecModule",
        "label": "_createdTasks",
        "offset": 0,
        "slot": "2",
        "type": "t_mapping(t_address,t_struct(Bytes32Set)2039_storage)"
      },
      {
        "astId": 2952,
        "contract": "contracts/taskModules/SingleExecModule.sol:SingleExecModule",
        "label": "fee",
        "offset": 0,
        "slot": "3",
        "type": "t_uint256"
      },
      {
        "astId": 2954,
        "contract": "contracts/taskModules/SingleExecModule.sol:SingleExecModule",
        "label": "feeToken",
        "offset": 0,
        "slot": "4",
        "type": "t_address"
      },
      {
        "astId": 2960,
        "contract": "contracts/taskModules/SingleExecModule.sol:SingleExecModule",
        "label": "timedTask",
        "offset": 0,
        "slot": "5",
        "type": "t_mapping(t_bytes32,t_struct(Time)4138_storage)"
      },
      {
        "astId": 2965,
        "contract": "contracts/taskModules/SingleExecModule.sol:SingleExecModule",
        "label": "taskModuleAddresses",
        "offset": 0,
        "slot": "6",
        "type": "t_mapping(t_enum(Module)4125,t_address)"
      }
    ],
    "types": {
      "t_address": {
        "encoding": "inplace",
        "label": "address",
        "numberOfBytes": "20"
      },
      "t_array(t_bytes32)dyn_storage": {
        "base": "t_bytes32",
        "encoding": "dynamic_array",
        "label": "bytes32[]",
        "numberOfBytes": "32"
      },
      "t_bytes32": {
        "encoding": "inplace",
        "label": "bytes32",
        "numberOfBytes": "32"
      },
      "t_enum(Module)4125": {
        "encoding": "inplace",
        "label": "enum LibDataTypes.Module",
        "numberOfBytes": "1"
      },
      "t_mapping(t_address,t_struct(Bytes32Set)2039_storage)": {
        "encoding": "mapping",
        "key": "t_address",
        "label": "mapping(address => struct EnumerableSet.Bytes32Set)",
        "numberOfBytes": "32",
        "value": "t_struct(Bytes32Set)2039_storage"
      },
      "t_mapping(t_bytes32,t_address)": {
        "encoding": "mapping",
        "key": "t_bytes32",
        "label": "mapping(bytes32 => address)",
        "numberOfBytes": "32",
        "value": "t_address"
      },
      "t_mapping(t_bytes32,t_struct(Time)4138_storage)": {
        "encoding": "mapping",
        "key": "t_bytes32",
        "label": "mapping(bytes32 => struct LibDataTypes.Time)",
        "numberOfBytes": "32",
        "value": "t_struct(Time)4138_storage"
      },
      "t_mapping(t_bytes32,t_uint256)": {
        "encoding": "mapping",
        "key": "t_bytes32",
        "label": "mapping(bytes32 => uint256)",
        "numberOfBytes": "32",
        "value": "t_uint256"
      },
      "t_mapping(t_enum(Module)4125,t_address)": {
        "encoding": "mapping",
        "key": "t_enum(Module)4125",
        "label": "mapping(enum LibDataTypes.Module => address)",
        "numberOfBytes": "32",
        "value": "t_address"
      },
      "t_struct(Bytes32Set)2039_storage": {
        "encoding": "inplace",
        "label": "struct EnumerableSet.Bytes32Set",
        "members": [
          {
            "astId": 2038,
            "contract": "contracts/taskModules/SingleExecModule.sol:SingleExecModule",
            "label": "_inner",
            "offset": 0,
            "slot": "0",
            "type": "t_struct(Set)1845_storage"
          }
        ],
        "numberOfBytes": "64"
      },
      "t_struct(Set)1845_storage": {
        "encoding": "inplace",
        "label": "struct EnumerableSet.Set",
        "members": [
          {
            "astId": 1840,
            "contract": "contracts/taskModules/SingleExecModule.sol:SingleExecModule",
            "label": "_values",
            "offset": 0,
            "slot": "0",
            "type": "t_array(t_bytes32)dyn_storage"
          },
          {
            "astId": 1844,
            "contract": "contracts/taskModules/SingleExecModule.sol:SingleExecModule",
            "label": "_indexes",
            "offset": 0,
            "slot": "1",
            "type": "t_mapping(t_bytes32,t_uint256)"
          }
        ],
        "numberOfBytes": "64"
      },
      "t_struct(Time)4138_storage": {
        "encoding": "inplace",
        "label": "struct LibDataTypes.Time",
        "members": [
          {
            "astId": 4135,
            "contract": "contracts/taskModules/SingleExecModule.sol:SingleExecModule",
            "label": "nextExec",
            "offset": 0,
            "slot": "0",
            "type": "t_uint128"
          },
          {
            "astId": 4137,
            "contract": "contracts/taskModules/SingleExecModule.sol:SingleExecModule",
            "label": "interval",
            "offset": 16,
            "slot": "0",
            "type": "t_uint128"
          }
        ],
        "numberOfBytes": "32"
      },
      "t_uint128": {
        "encoding": "inplace",
        "label": "uint128",
        "numberOfBytes": "16"
      },
      "t_uint256": {
        "encoding": "inplace",
        "label": "uint256",
        "numberOfBytes": "32"
      }
    }
  }
}