{
  "address": "0xEa154e9bd3bFa11bcBFE16F3161a87e562c5398b",
  "abi": [
    {
      "inputs": [
        {
          "internalType": "bytes32",
          "name": "",
          "type": "bytes32"
        }
      ],
      "name": "execAddresses",
      "outputs": [
        {
          "internalType": "address",
          "name": "",
          "type": "address"
        }
      ],
      "stateMutability": "view",
      "type": "function"
    },
    {
      "inputs": [],
      "name": "fee",
      "outputs": [
        {
          "internalType": "uint256",
          "name": "",
          "type": "uint256"
        }
      ],
      "stateMutability": "view",
      "type": "function"
    },
    {
      "inputs": [],
      "name": "feeToken",
      "outputs": [
        {
          "internalType": "address",
          "name": "",
          "type": "address"
        }
      ],
      "stateMutability": "view",
      "type": "function"
    },
    {
      "inputs": [
        {
          "internalType": "bytes32",
          "name": "",
          "type": "bytes32"
        },
        {
          "internalType": "address",
          "name": "",
          "type": "address"
        },
        {
          "internalType": "address",
          "name": "",
          "type": "address"
        },
        {
          "internalType": "bytes",
          "name": "",
          "type": "bytes"
        },
        {
          "internalType": "bytes",
          "name": "",
          "type": "bytes"
        }
      ],
      "name": "onCreateTask",
      "outputs": [],
      "stateMutability": "nonpayable",
      "type": "function"
    },
    {
      "inputs": [
        {
          "internalType": "bytes32",
          "name": "_taskId",
          "type": "bytes32"
        },
        {
          "internalType": "address",
          "name": "_taskCreator",
          "type": "address"
        },
        {
          "internalType": "address",
          "name": "",
          "type": "address"
        },
        {
          "internalType": "bytes",
          "name": "",
          "type": "bytes"
        }
      ],
      "name": "postExecCall",
      "outputs": [],
      "stateMutability": "nonpayable",
      "type": "function"
    },
    {
      "inputs": [
        {
          "internalType": "bytes32",
          "name": "",
          "type": "bytes32"
        },
        {
          "internalType": "address",
          "name": "",
          "type": "address"
        }
      ],
      "name": "preCancelTask",
      "outputs": [
        {
          "internalType": "address",
          "name": "",
          "type": "address"
        }
      ],
      "stateMutability": "nonpayable",
      "type": "function"
    },
    {
      "inputs": [
        {
          "internalType": "address",
          "name": "",
          "type": "address"
        },
        {
          "internalType": "address",
          "name": "",
          "type": "address"
        }
      ],
      "name": "preCreateTask",
      "outputs": [
        {
          "internalType": "address",
          "name": "",
          "type": "address"
        },
        {
          "internalType": "address",
          "name": "",
          "type": "address"
        }
      ],
      "stateMutability": "nonpayable",
      "type": "function"
    },
    {
      "inputs": [
        {
          "internalType": "bytes32",
          "name": "",
          "type": "bytes32"
        },
        {
          "internalType": "address",
          "name": "",
          "type": "address"
        },
        {
          "internalType": "address",
          "name": "_execAddress",
          "type": "address"
        },
        {
          "internalType": "bytes",
          "name": "_execData",
          "type": "bytes"
        }
      ],
      "name": "preExecCall",
      "outputs": [
        {
          "internalType": "address",
          "name": "",
          "type": "address"
        },
        {
          "internalType": "bytes",
          "name": "",
          "type": "bytes"
        }
      ],
      "stateMutability": "nonpayable",
      "type": "function"
    },
    {
      "inputs": [
        {
          "internalType": "bytes32",
          "name": "",
          "type": "bytes32"
        }
      ],
      "name": "taskCreator",
      "outputs": [
        {
          "internalType": "address",
          "name": "",
          "type": "address"
        }
      ],
      "stateMutability": "view",
      "type": "function"
    },
    {
      "inputs": [
        {
          "internalType": "enum LibDataTypes.Module",
          "name": "",
          "type": "uint8"
        }
      ],
      "name": "taskModuleAddresses",
      "outputs": [
        {
          "internalType": "address",
          "name": "",
          "type": "address"
        }
      ],
      "stateMutability": "view",
      "type": "function"
    },
    {
      "inputs": [
        {
          "internalType": "bytes32",
          "name": "",
          "type": "bytes32"
        }
      ],
      "name": "timedTask",
      "outputs": [
        {
          "internalType": "uint128",
          "name": "nextExec",
          "type": "uint128"
        },
        {
          "internalType": "uint128",
          "name": "interval",
          "type": "uint128"
        }
      ],
      "stateMutability": "view",
      "type": "function"
    }
  ],
  "transactionHash": "0xb1809bcf04d08ec57668a483ff77851494df9e5815c1efcafc977a8104ce1cd9",
  "args": [],
  "numDeployments": 2,
  "solcInputHash": "8e85eb588af66df445d71ad3c9cb58f8",
  "bytecode": "0x608060405234801561001057600080fd5b50610c41806100206000396000f3fe608060405234801561001057600080fd5b50600436106100a95760003560e01c8063b0ccbdf011610071578063b0ccbdf01461018d578063b2db0b41146101a9578063b81cd866146101c5578063c10304f7146101f6578063cd3d4fb914610227578063ddca3f4314610257576100a9565b806314ae9926146100ae5780632e6e0bd0146100de578063647846a51461010e5780636d2dd29f1461012c57806376474e6a1461015c575b600080fd5b6100c860048036038101906100c391906106c6565b610275565b6040516100d59190610715565b60405180910390f35b6100f860048036038101906100f39190610730565b61027d565b6040516101059190610715565b60405180910390f35b6101166102b0565b6040516101239190610715565b60405180910390f35b61014660048036038101906101419190610730565b6102d6565b6040516101539190610715565b60405180910390f35b6101766004803603810190610171919061075d565b610309565b60405161018492919061079d565b60405180910390f35b6101a760048036038101906101a2919061082b565b610313565b005b6101c360048036038101906101be91906108e7565b61031c565b005b6101df60048036038101906101da9190610730565b61040a565b6040516101ed92919061099a565b60405180910390f35b610210600480360381019061020b91906108e7565b610466565b60405161021e929190610a5c565b60405180910390f35b610241600480360381019061023c9190610ab1565b6104c4565b60405161024e9190610715565b60405180910390f35b61025f6104f7565b60405161026c9190610af7565b60405180910390f35b600092915050565b60006020528060005260406000206000915054906101000a900473ffffffffffffffffffffffffffffffffffffffff1681565b600460009054906101000a900473ffffffffffffffffffffffffffffffffffffffff1681565b60016020528060005260406000206000915054906101000a900473ffffffffffffffffffffffffffffffffffffffff1681565b6000809250929050565b50505050505050565b61036d85600260008773ffffffffffffffffffffffffffffffffffffffff1673ffffffffffffffffffffffffffffffffffffffff1681526020019081526020016000206104fd90919063ffffffff16565b5060056000868152602001908152602001600020600080820160006101000a8154906fffffffffffffffffffffffffffffffff02191690556000820160106101000a8154906fffffffffffffffffffffffffffffffff021916905550507f44d83729a43f9c6046446df014d073dd242e0ad672071e9b292f31b669c25b0985856040516103fb929190610b21565b60405180910390a15050505050565b60056020528060005260406000206000915090508060000160009054906101000a90046fffffffffffffffffffffffffffffffff16908060000160109054906101000a90046fffffffffffffffffffffffffffffffff16905082565b6000606084848481818080601f016020809104026020016040519081016040528093929190818152602001838380828437600081840152601f19601f8201169050808301925050505050505090509050915091509550959350505050565b60066020528060005260406000206000915054906101000a900473ffffffffffffffffffffffffffffffffffffffff1681565b60035481565b600061050c8360000183610514565b905092915050565b6000808360010160008481526020019081526020016000205490506000811461061c5760006001826105469190610b79565b905060006001866000018054905061055e9190610b79565b90508181146105cd57600086600001828154811061057f5761057e610bad565b5b90600052602060002001549050808760000184815481106105a3576105a2610bad565b5b90600052602060002001819055508387600101600083815260200190815260200160002081905550505b856000018054806105e1576105e0610bdc565b5b600190038181906000526020600020016000905590558560010160008681526020019081526020016000206000905560019350505050610622565b60009150505b92915050565b600080fd5b600080fd5b6000819050919050565b61064581610632565b811461065057600080fd5b50565b6000813590506106628161063c565b92915050565b600073ffffffffffffffffffffffffffffffffffffffff82169050919050565b600061069382610668565b9050919050565b6106a381610688565b81146106ae57600080fd5b50565b6000813590506106c08161069a565b92915050565b600080604083850312156106dd576106dc610628565b5b60006106eb85828601610653565b92505060206106fc858286016106b1565b9150509250929050565b61070f81610688565b82525050565b600060208201905061072a6000830184610706565b92915050565b60006020828403121561074657610745610628565b5b600061075484828501610653565b91505092915050565b6000806040838503121561077457610773610628565b5b6000610782858286016106b1565b9250506020610793858286016106b1565b9150509250929050565b60006040820190506107b26000830185610706565b6107bf6020830184610706565b9392505050565b600080fd5b600080fd5b600080fd5b60008083601f8401126107eb576107ea6107c6565b5b8235905067ffffffffffffffff811115610808576108076107cb565b5b602083019150836001820283011115610824576108236107d0565b5b9250929050565b600080600080600080600060a0888a03121561084a57610849610628565b5b60006108588a828b01610653565b97505060206108698a828b016106b1565b965050604061087a8a828b016106b1565b955050606088013567ffffffffffffffff81111561089b5761089a61062d565b5b6108a78a828b016107d5565b9450945050608088013567ffffffffffffffff8111156108ca576108c961062d565b5b6108d68a828b016107d5565b925092505092959891949750929550565b60008060008060006080868803121561090357610902610628565b5b600061091188828901610653565b9550506020610922888289016106b1565b9450506040610933888289016106b1565b935050606086013567ffffffffffffffff8111156109545761095361062d565b5b610960888289016107d5565b92509250509295509295909350565b60006fffffffffffffffffffffffffffffffff82169050919050565b6109948161096f565b82525050565b60006040820190506109af600083018561098b565b6109bc602083018461098b565b9392505050565b600081519050919050565b600082825260208201905092915050565b60005b838110156109fd5780820151818401526020810190506109e2565b83811115610a0c576000848401525b50505050565b6000601f19601f8301169050919050565b6000610a2e826109c3565b610a3881856109ce565b9350610a488185602086016109df565b610a5181610a12565b840191505092915050565b6000604082019050610a716000830185610706565b8181036020830152610a838184610a23565b90509392505050565b60048110610a9957600080fd5b50565b600081359050610aab81610a8c565b92915050565b600060208284031215610ac757610ac6610628565b5b6000610ad584828501610a9c565b91505092915050565b6000819050919050565b610af181610ade565b82525050565b6000602082019050610b0c6000830184610ae8565b92915050565b610b1b81610632565b82525050565b6000604082019050610b366000830185610b12565b610b436020830184610706565b9392505050565b7f4e487b7100000000000000000000000000000000000000000000000000000000600052601160045260246000fd5b6000610b8482610ade565b9150610b8f83610ade565b925082821015610ba257610ba1610b4a565b5b828203905092915050565b7f4e487b7100000000000000000000000000000000000000000000000000000000600052603260045260246000fd5b7f4e487b7100000000000000000000000000000000000000000000000000000000600052603160045260246000fdfea26469706673582212201e16b27daee552eb0f4b5e8d4e262cf9ba42e1f846471a84a986327122d14fab64736f6c634300080e0033",
  "devdoc": {
    "kind": "dev",
    "methods": {
      "onCreateTask(bytes32,address,address,bytes,bytes)": {
        "params": {
          "execAddress": "Address of contract that should be called.",
          "execData": "Execution data to be called with / function selector if execution data is yet to be determined.",
          "initModuleArg": "Encoded arguments for module if any.",
          "taskCreator": "The address which created the task.",
          "taskId": "Unique hash of the task created."
        }
      },
      "postExecCall(bytes32,address,address,bytes)": {
        "params": {
          "execAddress": "Address of contract that should be called.",
          "execData": "Execution data to be called with / function selector if execution data is yet to be determined.",
          "taskCreator": "The address which created the task.",
          "taskId": "Unique hash of the task created."
        }
      },
      "preCancelTask(bytes32,address)": {
        "details": "Modules can override taskCreator.",
        "params": {
          "taskCreator": "The address which created the task.",
          "taskId": "Unique hash of the task created."
        },
        "returns": {
          "_0": "address Overriden or original taskCreator."
        }
      },
      "preCreateTask(address,address)": {
        "details": "Modules can override execAddress or taskCreator. {See ProxyModule-preCreateTask}",
        "params": {
          "execAddress": "Address of contract that should be called.",
          "taskCreator": "The address which created the task."
        },
        "returns": {
          "_0": "address Overriden or original taskCreator.",
          "_1": "address Overriden or original execAddress."
        }
      },
      "preExecCall(bytes32,address,address,bytes)": {
        "params": {
          "execAddress": "Address of contract that should be called.",
          "execData": "Execution data to be called with / function selector if execution data is yet to be determined.",
          "taskCreator": "The address which created the task.",
          "taskId": "Unique hash of the task created."
        },
        "returns": {
          "_0": "address Overriden or original execution address.",
          "_1": "bytes Overriden or original execution data."
        }
      }
    },
    "version": 1
  },
  "userdoc": {
    "kind": "user",
    "methods": {
      "onCreateTask(bytes32,address,address,bytes,bytes)": {
        "notice": "Initiates task module whenever `createTask` is being called."
      },
      "postExecCall(bytes32,address,address,bytes)": {
        "notice": "Called during `exec` and after execAddress is called."
      },
      "preCancelTask(bytes32,address)": {
        "notice": "Called before taskId is removed from _createdTasks[]."
      },
      "preCreateTask(address,address)": {
        "notice": "Called before generating taskId."
      },
      "preExecCall(bytes32,address,address,bytes)": {
        "notice": "Called during `exec` and before execAddress is called."
      }
    },
    "version": 1
  },
  "storageLayout": {
    "storage": [
      {
        "astId": 1719,
        "contract": "contracts/taskModules/SingleExecModule.sol:SingleExecModule",
        "label": "taskCreator",
        "offset": 0,
        "slot": "0",
        "type": "t_mapping(t_bytes32,t_address)"
      },
      {
        "astId": 1724,
        "contract": "contracts/taskModules/SingleExecModule.sol:SingleExecModule",
        "label": "execAddresses",
        "offset": 0,
        "slot": "1",
        "type": "t_mapping(t_bytes32,t_address)"
      },
      {
        "astId": 1730,
        "contract": "contracts/taskModules/SingleExecModule.sol:SingleExecModule",
        "label": "_createdTasks",
        "offset": 0,
        "slot": "2",
        "type": "t_mapping(t_address,t_struct(Bytes32Set)801_storage)"
      },
      {
        "astId": 1732,
        "contract": "contracts/taskModules/SingleExecModule.sol:SingleExecModule",
        "label": "fee",
        "offset": 0,
        "slot": "3",
        "type": "t_uint256"
      },
      {
        "astId": 1734,
        "contract": "contracts/taskModules/SingleExecModule.sol:SingleExecModule",
        "label": "feeToken",
        "offset": 0,
        "slot": "4",
        "type": "t_address"
      },
      {
        "astId": 1740,
        "contract": "contracts/taskModules/SingleExecModule.sol:SingleExecModule",
        "label": "timedTask",
        "offset": 0,
        "slot": "5",
        "type": "t_mapping(t_bytes32,t_struct(Time)2401_storage)"
      },
      {
        "astId": 1745,
        "contract": "contracts/taskModules/SingleExecModule.sol:SingleExecModule",
        "label": "taskModuleAddresses",
        "offset": 0,
        "slot": "6",
        "type": "t_mapping(t_enum(Module)2388,t_address)"
      }
    ],
    "types": {
      "t_address": {
        "encoding": "inplace",
        "label": "address",
        "numberOfBytes": "20"
      },
      "t_array(t_bytes32)dyn_storage": {
        "base": "t_bytes32",
        "encoding": "dynamic_array",
        "label": "bytes32[]",
        "numberOfBytes": "32"
      },
      "t_bytes32": {
        "encoding": "inplace",
        "label": "bytes32",
        "numberOfBytes": "32"
      },
      "t_enum(Module)2388": {
        "encoding": "inplace",
        "label": "enum LibDataTypes.Module",
        "numberOfBytes": "1"
      },
      "t_mapping(t_address,t_struct(Bytes32Set)801_storage)": {
        "encoding": "mapping",
        "key": "t_address",
        "label": "mapping(address => struct EnumerableSet.Bytes32Set)",
        "numberOfBytes": "32",
        "value": "t_struct(Bytes32Set)801_storage"
      },
      "t_mapping(t_bytes32,t_address)": {
        "encoding": "mapping",
        "key": "t_bytes32",
        "label": "mapping(bytes32 => address)",
        "numberOfBytes": "32",
        "value": "t_address"
      },
      "t_mapping(t_bytes32,t_struct(Time)2401_storage)": {
        "encoding": "mapping",
        "key": "t_bytes32",
        "label": "mapping(bytes32 => struct LibDataTypes.Time)",
        "numberOfBytes": "32",
        "value": "t_struct(Time)2401_storage"
      },
      "t_mapping(t_bytes32,t_uint256)": {
        "encoding": "mapping",
        "key": "t_bytes32",
        "label": "mapping(bytes32 => uint256)",
        "numberOfBytes": "32",
        "value": "t_uint256"
      },
      "t_mapping(t_enum(Module)2388,t_address)": {
        "encoding": "mapping",
        "key": "t_enum(Module)2388",
        "label": "mapping(enum LibDataTypes.Module => address)",
        "numberOfBytes": "32",
        "value": "t_address"
      },
      "t_struct(Bytes32Set)801_storage": {
        "encoding": "inplace",
        "label": "struct EnumerableSet.Bytes32Set",
        "members": [
          {
            "astId": 800,
            "contract": "contracts/taskModules/SingleExecModule.sol:SingleExecModule",
            "label": "_inner",
            "offset": 0,
            "slot": "0",
            "type": "t_struct(Set)607_storage"
          }
        ],
        "numberOfBytes": "64"
      },
      "t_struct(Set)607_storage": {
        "encoding": "inplace",
        "label": "struct EnumerableSet.Set",
        "members": [
          {
            "astId": 602,
            "contract": "contracts/taskModules/SingleExecModule.sol:SingleExecModule",
            "label": "_values",
            "offset": 0,
            "slot": "0",
            "type": "t_array(t_bytes32)dyn_storage"
          },
          {
            "astId": 606,
            "contract": "contracts/taskModules/SingleExecModule.sol:SingleExecModule",
            "label": "_indexes",
            "offset": 0,
            "slot": "1",
            "type": "t_mapping(t_bytes32,t_uint256)"
          }
        ],
        "numberOfBytes": "64"
      },
      "t_struct(Time)2401_storage": {
        "encoding": "inplace",
        "label": "struct LibDataTypes.Time",
        "members": [
          {
            "astId": 2398,
            "contract": "contracts/taskModules/SingleExecModule.sol:SingleExecModule",
            "label": "nextExec",
            "offset": 0,
            "slot": "0",
            "type": "t_uint128"
          },
          {
            "astId": 2400,
            "contract": "contracts/taskModules/SingleExecModule.sol:SingleExecModule",
            "label": "interval",
            "offset": 16,
            "slot": "0",
            "type": "t_uint128"
          }
        ],
        "numberOfBytes": "32"
      },
      "t_uint128": {
        "encoding": "inplace",
        "label": "uint128",
        "numberOfBytes": "16"
      },
      "t_uint256": {
        "encoding": "inplace",
        "label": "uint256",
        "numberOfBytes": "32"
      }
    }
  }
}