{
  "address": "0x28DEF88a5225fD50cdD081306bE18FA7368e59f9",
  "abi": [
    {
      "inputs": [
        {
          "internalType": "address",
          "name": "_startTime",
          "type": "address"
        },
        {
          "internalType": "bytes",
          "name": "_interval",
          "type": "bytes"
        }
      ],
      "name": "encodeModuleArg",
      "outputs": [
        {
          "internalType": "bytes",
          "name": "",
          "type": "bytes"
        }
      ],
      "stateMutability": "pure",
      "type": "function"
    },
    {
      "inputs": [
        {
          "internalType": "bytes32",
          "name": "",
          "type": "bytes32"
        }
      ],
      "name": "execAddresses",
      "outputs": [
        {
          "internalType": "address",
          "name": "",
          "type": "address"
        }
      ],
      "stateMutability": "view",
      "type": "function"
    },
    {
      "inputs": [],
      "name": "fee",
      "outputs": [
        {
          "internalType": "uint256",
          "name": "",
          "type": "uint256"
        }
      ],
      "stateMutability": "view",
      "type": "function"
    },
    {
      "inputs": [],
      "name": "feeToken",
      "outputs": [
        {
          "internalType": "address",
          "name": "",
          "type": "address"
        }
      ],
      "stateMutability": "view",
      "type": "function"
    },
    {
      "inputs": [
        {
          "internalType": "bytes32",
          "name": "_taskId",
          "type": "bytes32"
        },
        {
          "internalType": "address",
          "name": "",
          "type": "address"
        },
        {
          "internalType": "address",
          "name": "",
          "type": "address"
        },
        {
          "internalType": "bytes",
          "name": "",
          "type": "bytes"
        },
        {
          "internalType": "bytes",
          "name": "_arg",
          "type": "bytes"
        }
      ],
      "name": "onCreateTask",
      "outputs": [],
      "stateMutability": "nonpayable",
      "type": "function"
    },
    {
      "inputs": [
        {
          "internalType": "bytes32",
          "name": "taskId",
          "type": "bytes32"
        },
        {
          "internalType": "address",
          "name": "taskCreator",
          "type": "address"
        },
        {
          "internalType": "address",
          "name": "execAddress",
          "type": "address"
        },
        {
          "internalType": "bytes",
          "name": "execData",
          "type": "bytes"
        }
      ],
      "name": "postExecTask",
      "outputs": [],
      "stateMutability": "nonpayable",
      "type": "function"
    },
    {
      "inputs": [
        {
          "internalType": "bytes32",
          "name": "_taskId",
          "type": "bytes32"
        },
        {
          "internalType": "address",
          "name": "",
          "type": "address"
        },
        {
          "internalType": "address",
          "name": "_execAddress",
          "type": "address"
        },
        {
          "internalType": "bytes",
          "name": "_execData",
          "type": "bytes"
        }
      ],
      "name": "preExecTask",
      "outputs": [
        {
          "internalType": "address",
          "name": "",
          "type": "address"
        },
        {
          "internalType": "bytes",
          "name": "",
          "type": "bytes"
        }
      ],
      "stateMutability": "nonpayable",
      "type": "function"
    },
    {
      "inputs": [
        {
          "internalType": "bytes32",
          "name": "",
          "type": "bytes32"
        }
      ],
      "name": "taskCreator",
      "outputs": [
        {
          "internalType": "address",
          "name": "",
          "type": "address"
        }
      ],
      "stateMutability": "view",
      "type": "function"
    },
    {
      "inputs": [
        {
          "internalType": "enum LibDataTypes.Module",
          "name": "",
          "type": "uint8"
        }
      ],
      "name": "taskModuleAddresses",
      "outputs": [
        {
          "internalType": "address",
          "name": "",
          "type": "address"
        }
      ],
      "stateMutability": "view",
      "type": "function"
    },
    {
      "inputs": [
        {
          "internalType": "bytes32",
          "name": "",
          "type": "bytes32"
        }
      ],
      "name": "timedTask",
      "outputs": [
        {
          "internalType": "uint128",
          "name": "nextExec",
          "type": "uint128"
        },
        {
          "internalType": "uint128",
          "name": "interval",
          "type": "uint128"
        }
      ],
      "stateMutability": "view",
      "type": "function"
    }
  ],
  "transactionHash": "0xf2b092e9c63f774803d437df09d8c5c284ddf1a438a963c5fe5ac8fd1593d8c3",
  "args": [],
  "numDeployments": 1,
  "solcInputHash": "ec5e7c52a427c068bbd33ab52da213bf",
  "bytecode": "0x608060405234801561001057600080fd5b50610efd806100206000396000f3fe608060405234801561001057600080fd5b506004361061009e5760003560e01c8063b0ccbdf011610066578063b0ccbdf01461016d578063b73944ed14610189578063b81cd866146101ba578063cd3d4fb9146101eb578063ddca3f431461021b5761009e565b80632e6e0bd0146100a3578063370f5760146100d35780633c706c6f146100ef578063647846a51461011f5780636d2dd29f1461013d575b600080fd5b6100bd60048036038101906100b8919061079a565b610239565b6040516100ca9190610808565b60405180910390f35b6100ed60048036038101906100e891906108b4565b61026c565b005b6101096004803603810190610104919061093c565b610273565b6040516101169190610a35565b60405180910390f35b6101276102a2565b6040516101349190610808565b60405180910390f35b6101576004803603810190610152919061079a565b6102c8565b6040516101649190610808565b60405180910390f35b61018760048036038101906101829190610a57565b6102fb565b005b6101a3600480360381019061019e91906108b4565b61045d565b6040516101b1929190610b13565b60405180910390f35b6101d460048036038101906101cf919061079a565b6106a4565b6040516101e2929190610b6e565b60405180910390f35b61020560048036038101906102009190610bbc565b610700565b6040516102129190610808565b60405180910390f35b610223610733565b6040516102309190610c02565b60405180910390f35b60006020528060005260406000206000915054906101000a900473ffffffffffffffffffffffffffffffffffffffff1681565b5050505050565b606083838360405160200161028a93929190610c59565b60405160208183030381529060405290509392505050565b600460009054906101000a900473ffffffffffffffffffffffffffffffffffffffff1681565b60016020528060005260406000206000915054906101000a900473ffffffffffffffffffffffffffffffffffffffff1681565b6000806103088484610739565b91509150600042836fffffffffffffffffffffffffffffffff161161032d574261032f565b825b90506040518060400160405280826fffffffffffffffffffffffffffffffff168152602001836fffffffffffffffffffffffffffffffff16815250600560008c815260200190815260200160002060008201518160000160006101000a8154816fffffffffffffffffffffffffffffffff02191690836fffffffffffffffffffffffffffffffff16021790555060208201518160000160106101000a8154816fffffffffffffffffffffffffffffffff02191690836fffffffffffffffffffffffffffffffff160217905550905050816fffffffffffffffffffffffffffffffff16816fffffffffffffffffffffffffffffffff168b7f857791ec95701b6fff966bff1b5ce9a86107aeabaf6d2fdfd89993aa0f084e3760405160405180910390a450505050505050505050565b600060606000600560008981526020019081526020016000206040518060400160405290816000820160009054906101000a90046fffffffffffffffffffffffffffffffff166fffffffffffffffffffffffffffffffff166fffffffffffffffffffffffffffffffff1681526020016000820160109054906101000a90046fffffffffffffffffffffffffffffffff166fffffffffffffffffffffffffffffffff166fffffffffffffffffffffffffffffffff1681525050905060008082600001516fffffffffffffffffffffffffffffffff1614159050801561064857426fffffffffffffffffffffffffffffffff1682600001516fffffffffffffffffffffffffffffffff1611156105a6576040517f08c379a000000000000000000000000000000000000000000000000000000000815260040161059d90610ce8565b60405180910390fd5b60008260000151426105b89190610d37565b9050600060018460200151836105ce9190610d9a565b6105d89190610dcb565b90508360200151816105ea9190610e11565b84600001516105f99190610dcb565b600560008d815260200190815260200160002060000160006101000a8154816fffffffffffffffffffffffffffffffff02191690836fffffffffffffffffffffffffffffffff16021790555050505b86868681818080601f016020809104026020016040519081016040528093929190818152602001838380828437600081840152601f19601f82011690508083019250505050505050905090509350935050509550959350505050565b60056020528060005260406000206000915090508060000160009054906101000a90046fffffffffffffffffffffffffffffffff16908060000160109054906101000a90046fffffffffffffffffffffffffffffffff16905082565b60066020528060005260406000206000915054906101000a900473ffffffffffffffffffffffffffffffffffffffff1681565b60035481565b600080838381019061074b9190610e87565b80925081935050509250929050565b600080fd5b600080fd5b6000819050919050565b61077781610764565b811461078257600080fd5b50565b6000813590506107948161076e565b92915050565b6000602082840312156107b0576107af61075a565b5b60006107be84828501610785565b91505092915050565b600073ffffffffffffffffffffffffffffffffffffffff82169050919050565b60006107f2826107c7565b9050919050565b610802816107e7565b82525050565b600060208201905061081d60008301846107f9565b92915050565b61082c816107e7565b811461083757600080fd5b50565b60008135905061084981610823565b92915050565b600080fd5b600080fd5b600080fd5b60008083601f8401126108745761087361084f565b5b8235905067ffffffffffffffff81111561089157610890610854565b5b6020830191508360018202830111156108ad576108ac610859565b5b9250929050565b6000806000806000608086880312156108d0576108cf61075a565b5b60006108de88828901610785565b95505060206108ef8882890161083a565b94505060406109008882890161083a565b935050606086013567ffffffffffffffff8111156109215761092061075f565b5b61092d8882890161085e565b92509250509295509295909350565b6000806000604084860312156109555761095461075a565b5b60006109638682870161083a565b935050602084013567ffffffffffffffff8111156109845761098361075f565b5b6109908682870161085e565b92509250509250925092565b600081519050919050565b600082825260208201905092915050565b60005b838110156109d65780820151818401526020810190506109bb565b838111156109e5576000848401525b50505050565b6000601f19601f8301169050919050565b6000610a078261099c565b610a1181856109a7565b9350610a218185602086016109b8565b610a2a816109eb565b840191505092915050565b60006020820190508181036000830152610a4f81846109fc565b905092915050565b600080600080600080600060a0888a031215610a7657610a7561075a565b5b6000610a848a828b01610785565b9750506020610a958a828b0161083a565b9650506040610aa68a828b0161083a565b955050606088013567ffffffffffffffff811115610ac757610ac661075f565b5b610ad38a828b0161085e565b9450945050608088013567ffffffffffffffff811115610af657610af561075f565b5b610b028a828b0161085e565b925092505092959891949750929550565b6000604082019050610b2860008301856107f9565b8181036020830152610b3a81846109fc565b90509392505050565b60006fffffffffffffffffffffffffffffffff82169050919050565b610b6881610b43565b82525050565b6000604082019050610b836000830185610b5f565b610b906020830184610b5f565b9392505050565b60048110610ba457600080fd5b50565b600081359050610bb681610b97565b92915050565b600060208284031215610bd257610bd161075a565b5b6000610be084828501610ba7565b91505092915050565b6000819050919050565b610bfc81610be9565b82525050565b6000602082019050610c176000830184610bf3565b92915050565b82818337600083830152505050565b6000610c3883856109a7565b9350610c45838584610c1d565b610c4e836109eb565b840190509392505050565b6000604082019050610c6e60008301866107f9565b8181036020830152610c81818486610c2c565b9050949350505050565b600082825260208201905092915050565b7f54696d654d6f64756c653a20546f6f206561726c790000000000000000000000600082015250565b6000610cd2601583610c8b565b9150610cdd82610c9c565b602082019050919050565b60006020820190508181036000830152610d0181610cc5565b9050919050565b7f4e487b7100000000000000000000000000000000000000000000000000000000600052601160045260246000fd5b6000610d4282610b43565b9150610d4d83610b43565b925082821015610d6057610d5f610d08565b5b828203905092915050565b7f4e487b7100000000000000000000000000000000000000000000000000000000600052601260045260246000fd5b6000610da582610b43565b9150610db083610b43565b925082610dc057610dbf610d6b565b5b828204905092915050565b6000610dd682610b43565b9150610de183610b43565b9250826fffffffffffffffffffffffffffffffff03821115610e0657610e05610d08565b5b828201905092915050565b6000610e1c82610b43565b9150610e2783610b43565b9250816fffffffffffffffffffffffffffffffff0483118215151615610e5057610e4f610d08565b5b828202905092915050565b610e6481610b43565b8114610e6f57600080fd5b50565b600081359050610e8181610e5b565b92915050565b60008060408385031215610e9e57610e9d61075a565b5b6000610eac85828601610e72565b9250506020610ebd85828601610e72565b915050925092905056fea26469706673582212201f7b4f87b1a8e11b9d7aa69ad7a20ed624dfe2acd535dbcb8e76f823b0c5c70e64736f6c634300080e0033",
  "devdoc": {
    "kind": "dev",
    "methods": {
      "encodeModuleArg(address,bytes)": {
        "params": {
          "_interval": "Time interval between each execution.",
          "_startTime": "Time when the first execution should occur."
        }
      },
      "onCreateTask(bytes32,address,address,bytes,bytes)": {
        "params": {
          "execAddress": "Address of contract that should be called.",
          "execData": "Execution data to be called with / function selector if execution data is yet to be determined.",
          "initModuleArg": "Encoded arguments for module if any.",
          "taskCreator": "The address which created the task.",
          "taskId": "Unique hash of the task created."
        }
      },
      "postExecTask(bytes32,address,address,bytes)": {
        "params": {
          "execAddress": "Address of contract that should be called.",
          "execData": "Execution data to be called with / function selector if execution data is yet to be determined.",
          "taskCreator": "The address which created the task.",
          "taskId": "Unique hash of the task created."
        }
      },
      "preExecTask(bytes32,address,address,bytes)": {
        "details": "Time is updated at preExec because if SingleExec is used concurrently, it will delete timedTask.",
        "params": {
          "execAddress": "Address of contract that should be called.",
          "execData": "Execution data to be called with / function selector if execution data is yet to be determined.",
          "taskCreator": "The address which created the task.",
          "taskId": "Unique hash of the task created."
        },
        "returns": {
          "_0": "address Overriden or original execution address",
          "_1": "bytes Overriden or original execution data"
        }
      }
    },
    "version": 1
  },
  "userdoc": {
    "kind": "user",
    "methods": {
      "encodeModuleArg(address,bytes)": {
        "notice": "Helper function to encode arguments for TimeModule."
      },
      "onCreateTask(bytes32,address,address,bytes,bytes)": {
        "notice": "Initiates task module whenever `createTask` is being called."
      },
      "postExecTask(bytes32,address,address,bytes)": {
        "notice": "Called during `exec` and after execAddress is called."
      },
      "preExecTask(bytes32,address,address,bytes)": {
        "notice": "Called during `exec` and before execAddress is being called."
      }
    },
    "version": 1
  },
  "storageLayout": {
    "storage": [
      {
        "astId": 2939,
        "contract": "contracts/taskModules/TimeModule.sol:TimeModule",
        "label": "taskCreator",
        "offset": 0,
        "slot": "0",
        "type": "t_mapping(t_bytes32,t_address)"
      },
      {
        "astId": 2944,
        "contract": "contracts/taskModules/TimeModule.sol:TimeModule",
        "label": "execAddresses",
        "offset": 0,
        "slot": "1",
        "type": "t_mapping(t_bytes32,t_address)"
      },
      {
        "astId": 2950,
        "contract": "contracts/taskModules/TimeModule.sol:TimeModule",
        "label": "_createdTasks",
        "offset": 0,
        "slot": "2",
        "type": "t_mapping(t_address,t_struct(Bytes32Set)2039_storage)"
      },
      {
        "astId": 2952,
        "contract": "contracts/taskModules/TimeModule.sol:TimeModule",
        "label": "fee",
        "offset": 0,
        "slot": "3",
        "type": "t_uint256"
      },
      {
        "astId": 2954,
        "contract": "contracts/taskModules/TimeModule.sol:TimeModule",
        "label": "feeToken",
        "offset": 0,
        "slot": "4",
        "type": "t_address"
      },
      {
        "astId": 2960,
        "contract": "contracts/taskModules/TimeModule.sol:TimeModule",
        "label": "timedTask",
        "offset": 0,
        "slot": "5",
        "type": "t_mapping(t_bytes32,t_struct(Time)4138_storage)"
      },
      {
        "astId": 2965,
        "contract": "contracts/taskModules/TimeModule.sol:TimeModule",
        "label": "taskModuleAddresses",
        "offset": 0,
        "slot": "6",
        "type": "t_mapping(t_enum(Module)4125,t_address)"
      }
    ],
    "types": {
      "t_address": {
        "encoding": "inplace",
        "label": "address",
        "numberOfBytes": "20"
      },
      "t_array(t_bytes32)dyn_storage": {
        "base": "t_bytes32",
        "encoding": "dynamic_array",
        "label": "bytes32[]",
        "numberOfBytes": "32"
      },
      "t_bytes32": {
        "encoding": "inplace",
        "label": "bytes32",
        "numberOfBytes": "32"
      },
      "t_enum(Module)4125": {
        "encoding": "inplace",
        "label": "enum LibDataTypes.Module",
        "numberOfBytes": "1"
      },
      "t_mapping(t_address,t_struct(Bytes32Set)2039_storage)": {
        "encoding": "mapping",
        "key": "t_address",
        "label": "mapping(address => struct EnumerableSet.Bytes32Set)",
        "numberOfBytes": "32",
        "value": "t_struct(Bytes32Set)2039_storage"
      },
      "t_mapping(t_bytes32,t_address)": {
        "encoding": "mapping",
        "key": "t_bytes32",
        "label": "mapping(bytes32 => address)",
        "numberOfBytes": "32",
        "value": "t_address"
      },
      "t_mapping(t_bytes32,t_struct(Time)4138_storage)": {
        "encoding": "mapping",
        "key": "t_bytes32",
        "label": "mapping(bytes32 => struct LibDataTypes.Time)",
        "numberOfBytes": "32",
        "value": "t_struct(Time)4138_storage"
      },
      "t_mapping(t_bytes32,t_uint256)": {
        "encoding": "mapping",
        "key": "t_bytes32",
        "label": "mapping(bytes32 => uint256)",
        "numberOfBytes": "32",
        "value": "t_uint256"
      },
      "t_mapping(t_enum(Module)4125,t_address)": {
        "encoding": "mapping",
        "key": "t_enum(Module)4125",
        "label": "mapping(enum LibDataTypes.Module => address)",
        "numberOfBytes": "32",
        "value": "t_address"
      },
      "t_struct(Bytes32Set)2039_storage": {
        "encoding": "inplace",
        "label": "struct EnumerableSet.Bytes32Set",
        "members": [
          {
            "astId": 2038,
            "contract": "contracts/taskModules/TimeModule.sol:TimeModule",
            "label": "_inner",
            "offset": 0,
            "slot": "0",
            "type": "t_struct(Set)1845_storage"
          }
        ],
        "numberOfBytes": "64"
      },
      "t_struct(Set)1845_storage": {
        "encoding": "inplace",
        "label": "struct EnumerableSet.Set",
        "members": [
          {
            "astId": 1840,
            "contract": "contracts/taskModules/TimeModule.sol:TimeModule",
            "label": "_values",
            "offset": 0,
            "slot": "0",
            "type": "t_array(t_bytes32)dyn_storage"
          },
          {
            "astId": 1844,
            "contract": "contracts/taskModules/TimeModule.sol:TimeModule",
            "label": "_indexes",
            "offset": 0,
            "slot": "1",
            "type": "t_mapping(t_bytes32,t_uint256)"
          }
        ],
        "numberOfBytes": "64"
      },
      "t_struct(Time)4138_storage": {
        "encoding": "inplace",
        "label": "struct LibDataTypes.Time",
        "members": [
          {
            "astId": 4135,
            "contract": "contracts/taskModules/TimeModule.sol:TimeModule",
            "label": "nextExec",
            "offset": 0,
            "slot": "0",
            "type": "t_uint128"
          },
          {
            "astId": 4137,
            "contract": "contracts/taskModules/TimeModule.sol:TimeModule",
            "label": "interval",
            "offset": 16,
            "slot": "0",
            "type": "t_uint128"
          }
        ],
        "numberOfBytes": "32"
      },
      "t_uint128": {
        "encoding": "inplace",
        "label": "uint128",
        "numberOfBytes": "16"
      },
      "t_uint256": {
        "encoding": "inplace",
        "label": "uint256",
        "numberOfBytes": "32"
      }
    }
  }
}