{
  "address": "0x54592840Db7D820D829E1C48b70C74E3A2912210",
  "abi": [
    {
      "anonymous": false,
      "inputs": [
        {
          "indexed": true,
          "internalType": "address",
          "name": "previousOwner",
          "type": "address"
        },
        {
          "indexed": true,
          "internalType": "address",
          "name": "newOwner",
          "type": "address"
        }
      ],
      "name": "OwnershipTransferred",
      "type": "event"
    },
    {
      "inputs": [
        {
          "internalType": "string",
          "name": "_web3FunctionHash",
          "type": "string"
        },
        {
          "internalType": "bytes",
          "name": "_web3FunctionArgsHex",
          "type": "bytes"
        }
      ],
      "name": "encodeModuleArg",
      "outputs": [
        {
          "internalType": "bytes",
          "name": "",
          "type": "bytes"
        }
      ],
      "stateMutability": "pure",
      "type": "function"
    },
    {
      "inputs": [
        {
          "internalType": "bytes32",
          "name": "",
          "type": "bytes32"
        }
      ],
      "name": "execAddresses",
      "outputs": [
        {
          "internalType": "address",
          "name": "",
          "type": "address"
        }
      ],
      "stateMutability": "view",
      "type": "function"
    },
    {
      "inputs": [],
      "name": "fee",
      "outputs": [
        {
          "internalType": "uint256",
          "name": "",
          "type": "uint256"
        }
      ],
      "stateMutability": "view",
      "type": "function"
    },
    {
      "inputs": [],
      "name": "feeToken",
      "outputs": [
        {
          "internalType": "address",
          "name": "",
          "type": "address"
        }
      ],
      "stateMutability": "view",
      "type": "function"
    },
    {
      "inputs": [
        {
          "internalType": "bytes32",
          "name": "",
          "type": "bytes32"
        }
      ],
      "name": "nonce1Balance",
      "outputs": [
        {
          "internalType": "uint256",
          "name": "",
          "type": "uint256"
        }
      ],
      "stateMutability": "view",
      "type": "function"
    },
    {
      "inputs": [
        {
          "internalType": "bytes32",
          "name": "",
          "type": "bytes32"
        },
        {
          "internalType": "address",
          "name": "",
          "type": "address"
        },
        {
          "internalType": "address",
          "name": "",
          "type": "address"
        },
        {
          "internalType": "bytes",
          "name": "",
          "type": "bytes"
        },
        {
          "internalType": "bytes",
          "name": "",
          "type": "bytes"
        }
      ],
      "name": "onCreateTask",
      "outputs": [],
      "stateMutability": "nonpayable",
      "type": "function"
    },
    {
      "inputs": [],
      "name": "owner",
      "outputs": [
        {
          "internalType": "address",
          "name": "",
          "type": "address"
        }
      ],
      "stateMutability": "view",
      "type": "function"
    },
    {
      "inputs": [
        {
          "internalType": "bytes32",
          "name": "taskId",
          "type": "bytes32"
        },
        {
          "internalType": "address",
          "name": "taskCreator",
          "type": "address"
        },
        {
          "internalType": "address",
          "name": "execAddress",
          "type": "address"
        },
        {
          "internalType": "bytes",
          "name": "execData",
          "type": "bytes"
        }
      ],
      "name": "postExecCall",
      "outputs": [],
      "stateMutability": "nonpayable",
      "type": "function"
    },
    {
      "inputs": [
        {
          "internalType": "bytes32",
          "name": "",
          "type": "bytes32"
        },
        {
          "internalType": "address",
          "name": "_taskCreator",
          "type": "address"
        }
      ],
      "name": "preCancelTask",
      "outputs": [
        {
          "internalType": "address",
          "name": "",
          "type": "address"
        }
      ],
      "stateMutability": "nonpayable",
      "type": "function"
    },
    {
      "inputs": [
        {
          "internalType": "address",
          "name": "_taskCreator",
          "type": "address"
        },
        {
          "internalType": "address",
          "name": "_execAddress",
          "type": "address"
        }
      ],
      "name": "preCreateTask",
      "outputs": [
        {
          "internalType": "address",
          "name": "",
          "type": "address"
        },
        {
          "internalType": "address",
          "name": "",
          "type": "address"
        }
      ],
      "stateMutability": "nonpayable",
      "type": "function"
    },
    {
      "inputs": [
        {
          "internalType": "bytes32",
          "name": "",
          "type": "bytes32"
        },
        {
          "internalType": "address",
          "name": "",
          "type": "address"
        },
        {
          "internalType": "address",
          "name": "_execAddress",
          "type": "address"
        },
        {
          "internalType": "bytes",
          "name": "_execData",
          "type": "bytes"
        }
      ],
      "name": "preExecCall",
      "outputs": [
        {
          "internalType": "address",
          "name": "",
          "type": "address"
        },
        {
          "internalType": "bytes",
          "name": "",
          "type": "bytes"
        }
      ],
      "stateMutability": "nonpayable",
      "type": "function"
    },
    {
      "inputs": [],
      "name": "renounceOwnership",
      "outputs": [],
      "stateMutability": "nonpayable",
      "type": "function"
    },
    {
      "inputs": [
        {
          "internalType": "bytes32",
          "name": "",
          "type": "bytes32"
        }
      ],
      "name": "taskCreator",
      "outputs": [
        {
          "internalType": "address",
          "name": "",
          "type": "address"
        }
      ],
      "stateMutability": "view",
      "type": "function"
    },
    {
      "inputs": [
        {
          "internalType": "enum LibDataTypes.Module",
          "name": "",
          "type": "uint8"
        }
      ],
      "name": "taskModuleAddresses",
      "outputs": [
        {
          "internalType": "address",
          "name": "",
          "type": "address"
        }
      ],
      "stateMutability": "view",
      "type": "function"
    },
    {
      "inputs": [
        {
          "internalType": "bytes32",
          "name": "",
          "type": "bytes32"
        }
      ],
      "name": "timedTask",
      "outputs": [
        {
          "internalType": "uint128",
          "name": "nextExec",
          "type": "uint128"
        },
        {
          "internalType": "uint128",
          "name": "interval",
          "type": "uint128"
        }
      ],
      "stateMutability": "view",
      "type": "function"
    },
    {
      "inputs": [
        {
          "internalType": "address",
          "name": "newOwner",
          "type": "address"
        }
      ],
      "name": "transferOwnership",
      "outputs": [],
      "stateMutability": "nonpayable",
      "type": "function"
    }
  ],
  "transactionHash": "0xe8571392fba91a14ae2b0cd12ce0a1fc3086b8ec1723006dff17e225fe783ea8",
  "args": [],
  "numDeployments": 1,
  "solcInputHash": "aa6ec78e5220a24dbe20d8c2effe5015",
  "bytecode": "0x608060405234801561001057600080fd5b5061002d61002261003260201b60201c565b61003a60201b60201c565b610100565b600033905090565b6000600860009054906101000a900473ffffffffffffffffffffffffffffffffffffffff16905081600860006101000a81548173ffffffffffffffffffffffffffffffffffffffff021916908373ffffffffffffffffffffffffffffffffffffffff1602179055508173ffffffffffffffffffffffffffffffffffffffff168173ffffffffffffffffffffffffffffffffffffffff167f8be0079c531659141344cd1fd0a4f28419497f9722a3daafe3b4186f6b6457e060405160405180910390a35050565b6110b68061010f6000396000f3fe608060405234801561001057600080fd5b50600436106101005760003560e01c8063ac21631a11610097578063c10304f711610066578063c10304f7146102d5578063cd3d4fb914610306578063ddca3f4314610336578063f2fde38b1461035457610100565b8063ac21631a1461023c578063b0ccbdf01461026c578063b2db0b4114610288578063b81cd866146102a457610100565b80636d2dd29f116100d35780636d2dd29f146101b3578063715018a6146101e357806376474e6a146101ed5780638da5cb5b1461021e57610100565b806314ae9926146101055780632e6e0bd014610135578063647846a5146101655780636a796a8a14610183575b600080fd5b61011f600480360381019061011a9190610880565b610370565b60405161012c91906108cf565b60405180910390f35b61014f600480360381019061014a91906108ea565b61037b565b60405161015c91906108cf565b60405180910390f35b61016d6103ae565b60405161017a91906108cf565b60405180910390f35b61019d60048036038101906101989190610abd565b6103d4565b6040516101aa9190610bc1565b60405180910390f35b6101cd60048036038101906101c891906108ea565b610403565b6040516101da91906108cf565b60405180910390f35b6101eb610436565b005b61020760048036038101906102029190610be3565b6104be565b604051610215929190610c23565b60405180910390f35b6102266104ce565b60405161023391906108cf565b60405180910390f35b610256600480360381019061025191906108ea565b6104f8565b6040516102639190610c65565b60405180910390f35b61028660048036038101906102819190610c80565b610510565b005b6102a2600480360381019061029d9190610d3c565b610519565b005b6102be60048036038101906102b991906108ea565b610520565b6040516102cc929190610def565b60405180910390f35b6102ef60048036038101906102ea9190610d3c565b61057c565b6040516102fd929190610e18565b60405180910390f35b610320600480360381019061031b9190610e6d565b6105da565b60405161032d91906108cf565b60405180910390f35b61033e61060d565b60405161034b9190610c65565b60405180910390f35b61036e60048036038101906103699190610e9a565b610613565b005b600081905092915050565b60006020528060005260406000206000915054906101000a900473ffffffffffffffffffffffffffffffffffffffff1681565b600460009054906101000a900473ffffffffffffffffffffffffffffffffffffffff1681565b60608383836040516020016103eb93929190610f49565b60405160208183030381529060405290509392505050565b60016020528060005260406000206000915054906101000a900473ffffffffffffffffffffffffffffffffffffffff1681565b61043e61070a565b73ffffffffffffffffffffffffffffffffffffffff1661045c6104ce565b73ffffffffffffffffffffffffffffffffffffffff16146104b2576040517f08c379a00000000000000000000000000000000000000000000000000000000081526004016104a990610fce565b60405180910390fd5b6104bc6000610712565b565b6000808383915091509250929050565b6000600860009054906101000a900473ffffffffffffffffffffffffffffffffffffffff16905090565b60076020528060005260406000206000915090505481565b50505050505050565b5050505050565b60056020528060005260406000206000915090508060000160009054906101000a90046fffffffffffffffffffffffffffffffff16908060000160109054906101000a90046fffffffffffffffffffffffffffffffff16905082565b6000606084848481818080601f016020809104026020016040519081016040528093929190818152602001838380828437600081840152601f19601f8201169050808301925050505050505090509050915091509550959350505050565b60066020528060005260406000206000915054906101000a900473ffffffffffffffffffffffffffffffffffffffff1681565b60035481565b61061b61070a565b73ffffffffffffffffffffffffffffffffffffffff166106396104ce565b73ffffffffffffffffffffffffffffffffffffffff161461068f576040517f08c379a000000000000000000000000000000000000000000000000000000000815260040161068690610fce565b60405180910390fd5b600073ffffffffffffffffffffffffffffffffffffffff168173ffffffffffffffffffffffffffffffffffffffff16036106fe576040517f08c379a00000000000000000000000000000000000000000000000000000000081526004016106f590611060565b60405180910390fd5b61070781610712565b50565b600033905090565b6000600860009054906101000a900473ffffffffffffffffffffffffffffffffffffffff16905081600860006101000a81548173ffffffffffffffffffffffffffffffffffffffff021916908373ffffffffffffffffffffffffffffffffffffffff1602179055508173ffffffffffffffffffffffffffffffffffffffff168173ffffffffffffffffffffffffffffffffffffffff167f8be0079c531659141344cd1fd0a4f28419497f9722a3daafe3b4186f6b6457e060405160405180910390a35050565b6000604051905090565b600080fd5b600080fd5b6000819050919050565b6107ff816107ec565b811461080a57600080fd5b50565b60008135905061081c816107f6565b92915050565b600073ffffffffffffffffffffffffffffffffffffffff82169050919050565b600061084d82610822565b9050919050565b61085d81610842565b811461086857600080fd5b50565b60008135905061087a81610854565b92915050565b60008060408385031215610897576108966107e2565b5b60006108a58582860161080d565b92505060206108b68582860161086b565b9150509250929050565b6108c981610842565b82525050565b60006020820190506108e460008301846108c0565b92915050565b600060208284031215610900576108ff6107e2565b5b600061090e8482850161080d565b91505092915050565b600080fd5b600080fd5b6000601f19601f8301169050919050565b7f4e487b7100000000000000000000000000000000000000000000000000000000600052604160045260246000fd5b61096a82610921565b810181811067ffffffffffffffff8211171561098957610988610932565b5b80604052505050565b600061099c6107d8565b90506109a88282610961565b919050565b600067ffffffffffffffff8211156109c8576109c7610932565b5b6109d182610921565b9050602081019050919050565b82818337600083830152505050565b6000610a006109fb846109ad565b610992565b905082815260208101848484011115610a1c57610a1b61091c565b5b610a278482856109de565b509392505050565b600082601f830112610a4457610a43610917565b5b8135610a548482602086016109ed565b91505092915050565b600080fd5b600080fd5b60008083601f840112610a7d57610a7c610917565b5b8235905067ffffffffffffffff811115610a9a57610a99610a5d565b5b602083019150836001820283011115610ab657610ab5610a62565b5b9250929050565b600080600060408486031215610ad657610ad56107e2565b5b600084013567ffffffffffffffff811115610af457610af36107e7565b5b610b0086828701610a2f565b935050602084013567ffffffffffffffff811115610b2157610b206107e7565b5b610b2d86828701610a67565b92509250509250925092565b600081519050919050565b600082825260208201905092915050565b60005b83811015610b73578082015181840152602081019050610b58565b83811115610b82576000848401525b50505050565b6000610b9382610b39565b610b9d8185610b44565b9350610bad818560208601610b55565b610bb681610921565b840191505092915050565b60006020820190508181036000830152610bdb8184610b88565b905092915050565b60008060408385031215610bfa57610bf96107e2565b5b6000610c088582860161086b565b9250506020610c198582860161086b565b9150509250929050565b6000604082019050610c3860008301856108c0565b610c4560208301846108c0565b9392505050565b6000819050919050565b610c5f81610c4c565b82525050565b6000602082019050610c7a6000830184610c56565b92915050565b600080600080600080600060a0888a031215610c9f57610c9e6107e2565b5b6000610cad8a828b0161080d565b9750506020610cbe8a828b0161086b565b9650506040610ccf8a828b0161086b565b955050606088013567ffffffffffffffff811115610cf057610cef6107e7565b5b610cfc8a828b01610a67565b9450945050608088013567ffffffffffffffff811115610d1f57610d1e6107e7565b5b610d2b8a828b01610a67565b925092505092959891949750929550565b600080600080600060808688031215610d5857610d576107e2565b5b6000610d668882890161080d565b9550506020610d778882890161086b565b9450506040610d888882890161086b565b935050606086013567ffffffffffffffff811115610da957610da86107e7565b5b610db588828901610a67565b92509250509295509295909350565b60006fffffffffffffffffffffffffffffffff82169050919050565b610de981610dc4565b82525050565b6000604082019050610e046000830185610de0565b610e116020830184610de0565b9392505050565b6000604082019050610e2d60008301856108c0565b8181036020830152610e3f8184610b88565b90509392505050565b60068110610e5557600080fd5b50565b600081359050610e6781610e48565b92915050565b600060208284031215610e8357610e826107e2565b5b6000610e9184828501610e58565b91505092915050565b600060208284031215610eb057610eaf6107e2565b5b6000610ebe8482850161086b565b91505092915050565b600081519050919050565b600082825260208201905092915050565b6000610eee82610ec7565b610ef88185610ed2565b9350610f08818560208601610b55565b610f1181610921565b840191505092915050565b6000610f288385610b44565b9350610f358385846109de565b610f3e83610921565b840190509392505050565b60006040820190508181036000830152610f638186610ee3565b90508181036020830152610f78818486610f1c565b9050949350505050565b7f4f776e61626c653a2063616c6c6572206973206e6f7420746865206f776e6572600082015250565b6000610fb8602083610ed2565b9150610fc382610f82565b602082019050919050565b60006020820190508181036000830152610fe781610fab565b9050919050565b7f4f776e61626c653a206e6577206f776e657220697320746865207a65726f206160008201527f6464726573730000000000000000000000000000000000000000000000000000602082015250565b600061104a602683610ed2565b915061105582610fee565b604082019050919050565b600060208201905081810360008301526110798161103d565b905091905056fea2646970667358221220f97dc33a8d1f1a97a114ae2eb9f0dfe640a92d0ad85f5d123ff4cdc2c359d88264736f6c634300080e0033",
  "devdoc": {
    "kind": "dev",
    "methods": {
      "encodeModuleArg(string,bytes)": {
        "params": {
          "_web3FunctionArgsHex": "Arguments to be passed into web3 function in hex.",
          "_web3FunctionHash": "IPFS hash of web3 function."
        }
      },
      "onCreateTask(bytes32,address,address,bytes,bytes)": {
        "params": {
          "execAddress": "Address of contract that should be called.",
          "execData": "Execution data to be called with / function selector if execution data is yet to be determined.",
          "initModuleArg": "Encoded arguments for module if any.",
          "taskCreator": "The address which created the task.",
          "taskId": "Unique hash of the task created."
        }
      },
      "owner()": {
        "details": "Returns the address of the current owner."
      },
      "postExecCall(bytes32,address,address,bytes)": {
        "params": {
          "execAddress": "Address of contract that should be called.",
          "execData": "Execution data to be called with / function selector if execution data is yet to be determined.",
          "taskCreator": "The address which created the task.",
          "taskId": "Unique hash of the task created."
        }
      },
      "preCancelTask(bytes32,address)": {
        "details": "Modules can override taskCreator.",
        "params": {
          "taskCreator": "The address which created the task.",
          "taskId": "Unique hash of the task created."
        },
        "returns": {
          "_0": "address Overriden or original taskCreator."
        }
      },
      "preCreateTask(address,address)": {
        "details": "Modules can override execAddress or taskCreator. {See ProxyModule-preCreateTask}",
        "params": {
          "execAddress": "Address of contract that should be called.",
          "taskCreator": "The address which created the task."
        },
        "returns": {
          "_0": "address Overriden or original taskCreator.",
          "_1": "address Overriden or original execAddress."
        }
      },
      "preExecCall(bytes32,address,address,bytes)": {
        "params": {
          "execAddress": "Address of contract that should be called.",
          "execData": "Execution data to be called with / function selector if execution data is yet to be determined.",
          "taskCreator": "The address which created the task.",
          "taskId": "Unique hash of the task created."
        },
        "returns": {
          "_0": "address Overriden or original execution address.",
          "_1": "bytes Overriden or original execution data."
        }
      },
      "renounceOwnership()": {
        "details": "Leaves the contract without owner. It will not be possible to call `onlyOwner` functions anymore. Can only be called by the current owner. NOTE: Renouncing ownership will leave the contract without an owner, thereby removing any functionality that is only available to the owner."
      },
      "transferOwnership(address)": {
        "details": "Transfers ownership of the contract to a new account (`newOwner`). Can only be called by the current owner."
      }
    },
    "version": 1
  },
  "userdoc": {
    "kind": "user",
    "methods": {
      "encodeModuleArg(string,bytes)": {
        "notice": "Helper function to encode arguments for Web3FunctionModule."
      },
      "onCreateTask(bytes32,address,address,bytes,bytes)": {
        "notice": "Initiates task module whenever `createTask` is being called."
      },
      "postExecCall(bytes32,address,address,bytes)": {
        "notice": "Called during `exec` and after execAddress is called."
      },
      "preCancelTask(bytes32,address)": {
        "notice": "Called before taskId is removed from _createdTasks[]."
      },
      "preCreateTask(address,address)": {
        "notice": "Called before generating taskId."
      },
      "preExecCall(bytes32,address,address,bytes)": {
        "notice": "Called during `exec` and before execAddress is called."
      }
    },
    "version": 1
  },
  "storageLayout": {
    "storage": [
      {
        "astId": 2412,
        "contract": "contracts/taskModules/Web3FunctionModule.sol:Web3FunctionModule",
        "label": "taskCreator",
        "offset": 0,
        "slot": "0",
        "type": "t_mapping(t_bytes32,t_address)"
      },
      {
        "astId": 2417,
        "contract": "contracts/taskModules/Web3FunctionModule.sol:Web3FunctionModule",
        "label": "execAddresses",
        "offset": 0,
        "slot": "1",
        "type": "t_mapping(t_bytes32,t_address)"
      },
      {
        "astId": 2423,
        "contract": "contracts/taskModules/Web3FunctionModule.sol:Web3FunctionModule",
        "label": "_createdTasks",
        "offset": 0,
        "slot": "2",
        "type": "t_mapping(t_address,t_struct(Bytes32Set)1433_storage)"
      },
      {
        "astId": 2425,
        "contract": "contracts/taskModules/Web3FunctionModule.sol:Web3FunctionModule",
        "label": "fee",
        "offset": 0,
        "slot": "3",
        "type": "t_uint256"
      },
      {
        "astId": 2427,
        "contract": "contracts/taskModules/Web3FunctionModule.sol:Web3FunctionModule",
        "label": "feeToken",
        "offset": 0,
        "slot": "4",
        "type": "t_address"
      },
      {
        "astId": 2433,
        "contract": "contracts/taskModules/Web3FunctionModule.sol:Web3FunctionModule",
        "label": "timedTask",
        "offset": 0,
        "slot": "5",
        "type": "t_mapping(t_bytes32,t_struct(Time)3690_storage)"
      },
      {
        "astId": 2438,
        "contract": "contracts/taskModules/Web3FunctionModule.sol:Web3FunctionModule",
        "label": "taskModuleAddresses",
        "offset": 0,
        "slot": "6",
        "type": "t_mapping(t_enum(Module)3677,t_address)"
      },
      {
        "astId": 2442,
        "contract": "contracts/taskModules/Web3FunctionModule.sol:Web3FunctionModule",
        "label": "nonce1Balance",
        "offset": 0,
        "slot": "7",
        "type": "t_mapping(t_bytes32,t_uint256)"
      },
      {
        "astId": 384,
        "contract": "contracts/taskModules/Web3FunctionModule.sol:Web3FunctionModule",
        "label": "_owner",
        "offset": 0,
        "slot": "8",
        "type": "t_address"
      }
    ],
    "types": {
      "t_address": {
        "encoding": "inplace",
        "label": "address",
        "numberOfBytes": "20"
      },
      "t_array(t_bytes32)dyn_storage": {
        "base": "t_bytes32",
        "encoding": "dynamic_array",
        "label": "bytes32[]",
        "numberOfBytes": "32"
      },
      "t_bytes32": {
        "encoding": "inplace",
        "label": "bytes32",
        "numberOfBytes": "32"
      },
      "t_enum(Module)3677": {
        "encoding": "inplace",
        "label": "enum LibDataTypes.Module",
        "numberOfBytes": "1"
      },
      "t_mapping(t_address,t_struct(Bytes32Set)1433_storage)": {
        "encoding": "mapping",
        "key": "t_address",
        "label": "mapping(address => struct EnumerableSet.Bytes32Set)",
        "numberOfBytes": "32",
        "value": "t_struct(Bytes32Set)1433_storage"
      },
      "t_mapping(t_bytes32,t_address)": {
        "encoding": "mapping",
        "key": "t_bytes32",
        "label": "mapping(bytes32 => address)",
        "numberOfBytes": "32",
        "value": "t_address"
      },
      "t_mapping(t_bytes32,t_struct(Time)3690_storage)": {
        "encoding": "mapping",
        "key": "t_bytes32",
        "label": "mapping(bytes32 => struct LibDataTypes.Time)",
        "numberOfBytes": "32",
        "value": "t_struct(Time)3690_storage"
      },
      "t_mapping(t_bytes32,t_uint256)": {
        "encoding": "mapping",
        "key": "t_bytes32",
        "label": "mapping(bytes32 => uint256)",
        "numberOfBytes": "32",
        "value": "t_uint256"
      },
      "t_mapping(t_enum(Module)3677,t_address)": {
        "encoding": "mapping",
        "key": "t_enum(Module)3677",
        "label": "mapping(enum LibDataTypes.Module => address)",
        "numberOfBytes": "32",
        "value": "t_address"
      },
      "t_struct(Bytes32Set)1433_storage": {
        "encoding": "inplace",
        "label": "struct EnumerableSet.Bytes32Set",
        "members": [
          {
            "astId": 1432,
            "contract": "contracts/taskModules/Web3FunctionModule.sol:Web3FunctionModule",
            "label": "_inner",
            "offset": 0,
            "slot": "0",
            "type": "t_struct(Set)1239_storage"
          }
        ],
        "numberOfBytes": "64"
      },
      "t_struct(Set)1239_storage": {
        "encoding": "inplace",
        "label": "struct EnumerableSet.Set",
        "members": [
          {
            "astId": 1234,
            "contract": "contracts/taskModules/Web3FunctionModule.sol:Web3FunctionModule",
            "label": "_values",
            "offset": 0,
            "slot": "0",
            "type": "t_array(t_bytes32)dyn_storage"
          },
          {
            "astId": 1238,
            "contract": "contracts/taskModules/Web3FunctionModule.sol:Web3FunctionModule",
            "label": "_indexes",
            "offset": 0,
            "slot": "1",
            "type": "t_mapping(t_bytes32,t_uint256)"
          }
        ],
        "numberOfBytes": "64"
      },
      "t_struct(Time)3690_storage": {
        "encoding": "inplace",
        "label": "struct LibDataTypes.Time",
        "members": [
          {
            "astId": 3687,
            "contract": "contracts/taskModules/Web3FunctionModule.sol:Web3FunctionModule",
            "label": "nextExec",
            "offset": 0,
            "slot": "0",
            "type": "t_uint128"
          },
          {
            "astId": 3689,
            "contract": "contracts/taskModules/Web3FunctionModule.sol:Web3FunctionModule",
            "label": "interval",
            "offset": 16,
            "slot": "0",
            "type": "t_uint128"
          }
        ],
        "numberOfBytes": "32"
      },
      "t_uint128": {
        "encoding": "inplace",
        "label": "uint128",
        "numberOfBytes": "16"
      },
      "t_uint256": {
        "encoding": "inplace",
        "label": "uint256",
        "numberOfBytes": "32"
      }
    }
  }
}