{
  "address": "0xa7E4FD7f0a3d0127b5294Cb8D47257C8EC65A476",
  "abi": [
    {
      "inputs": [
        {
          "internalType": "address payable",
          "name": "_gelato",
          "type": "address"
        },
        {
          "internalType": "contract ITaskTreasuryUpgradable",
          "name": "_taskTreasury",
          "type": "address"
        }
      ],
      "stateMutability": "nonpayable",
      "type": "constructor"
    },
    {
      "anonymous": false,
      "inputs": [
        {
          "indexed": true,
          "internalType": "address",
          "name": "sponsor",
          "type": "address"
        },
        {
          "indexed": true,
          "internalType": "address",
          "name": "target",
          "type": "address"
        },
        {
          "indexed": true,
          "internalType": "address",
          "name": "feeToken",
          "type": "address"
        },
        {
          "indexed": false,
          "internalType": "uint256",
          "name": "oneBalanceChainId",
          "type": "uint256"
        },
        {
          "indexed": false,
          "internalType": "uint256",
          "name": "nativeToFeeTokenXRateNumerator",
          "type": "uint256"
        },
        {
          "indexed": false,
          "internalType": "uint256",
          "name": "nativeToFeeTokenXRateDenominator",
          "type": "uint256"
        },
        {
          "indexed": false,
          "internalType": "bytes32",
          "name": "correlationId",
          "type": "bytes32"
        }
      ],
      "name": "LogUseGelato1Balance",
      "type": "event"
    },
    {
      "stateMutability": "nonpayable",
      "type": "fallback"
    },
    {
      "inputs": [
        {
          "internalType": "bytes32",
          "name": "_taskId",
          "type": "bytes32"
        }
      ],
      "name": "cancelTask",
      "outputs": [],
      "stateMutability": "nonpayable",
      "type": "function"
    },
    {
      "inputs": [
        {
          "internalType": "address",
          "name": "_execAddress",
          "type": "address"
        },
        {
          "internalType": "bytes",
          "name": "_execDataOrSelector",
          "type": "bytes"
        },
        {
          "components": [
            {
              "internalType": "enum LibDataTypes.Module[]",
              "name": "modules",
              "type": "uint8[]"
            },
            {
              "internalType": "bytes[]",
              "name": "args",
              "type": "bytes[]"
            }
          ],
          "internalType": "struct LibDataTypes.ModuleData",
          "name": "_moduleData",
          "type": "tuple"
        },
        {
          "internalType": "address",
          "name": "_feeToken",
          "type": "address"
        }
      ],
      "name": "createTask",
      "outputs": [
        {
          "internalType": "bytes32",
          "name": "taskId",
          "type": "bytes32"
        }
      ],
      "stateMutability": "nonpayable",
      "type": "function"
    },
    {
      "inputs": [
        {
          "internalType": "address",
          "name": "_taskCreator",
          "type": "address"
        },
        {
          "internalType": "address",
          "name": "_execAddress",
          "type": "address"
        },
        {
          "internalType": "bytes",
          "name": "_execData",
          "type": "bytes"
        },
        {
          "components": [
            {
              "internalType": "enum LibDataTypes.Module[]",
              "name": "modules",
              "type": "uint8[]"
            },
            {
              "internalType": "bytes[]",
              "name": "args",
              "type": "bytes[]"
            }
          ],
          "internalType": "struct LibDataTypes.ModuleData",
          "name": "_moduleData",
          "type": "tuple"
        },
        {
          "internalType": "uint256",
          "name": "_txFee",
          "type": "uint256"
        },
        {
          "internalType": "address",
          "name": "_feeToken",
          "type": "address"
        },
        {
          "internalType": "bool",
          "name": "_useTaskTreasuryFunds",
          "type": "bool"
        },
        {
          "internalType": "bool",
          "name": "_revertOnFailure",
          "type": "bool"
        }
      ],
      "name": "exec",
      "outputs": [],
      "stateMutability": "nonpayable",
      "type": "function"
    },
    {
      "inputs": [
        {
          "internalType": "address",
          "name": "_taskCreator",
          "type": "address"
        },
        {
          "internalType": "address",
          "name": "_execAddress",
          "type": "address"
        },
        {
          "internalType": "bytes",
          "name": "_execData",
          "type": "bytes"
        },
        {
          "components": [
            {
              "internalType": "enum LibDataTypes.Module[]",
              "name": "modules",
              "type": "uint8[]"
            },
            {
              "internalType": "bytes[]",
              "name": "args",
              "type": "bytes[]"
            }
          ],
          "internalType": "struct LibDataTypes.ModuleData",
          "name": "_moduleData",
          "type": "tuple"
        },
        {
          "components": [
            {
              "internalType": "address",
              "name": "sponsor",
              "type": "address"
            },
            {
              "internalType": "address",
              "name": "feeToken",
              "type": "address"
            },
            {
              "internalType": "uint256",
              "name": "oneBalanceChainId",
              "type": "uint256"
            },
            {
              "internalType": "uint256",
              "name": "nativeToFeeTokenXRateNumerator",
              "type": "uint256"
            },
            {
              "internalType": "uint256",
              "name": "nativeToFeeTokenXRateDenominator",
              "type": "uint256"
            },
            {
              "internalType": "bytes32",
              "name": "correlationId",
              "type": "bytes32"
            }
          ],
          "internalType": "struct IGelato1Balance.Gelato1BalanceParam",
          "name": "_oneBalanceParam",
          "type": "tuple"
        },
        {
          "internalType": "bool",
          "name": "_revertOnFailure",
          "type": "bool"
        }
      ],
      "name": "exec1Balance",
      "outputs": [],
      "stateMutability": "nonpayable",
      "type": "function"
    },
    {
      "inputs": [
        {
          "internalType": "bytes32",
          "name": "",
          "type": "bytes32"
        }
      ],
      "name": "execAddresses",
      "outputs": [
        {
          "internalType": "address",
          "name": "",
          "type": "address"
        }
      ],
      "stateMutability": "view",
      "type": "function"
    },
    {
      "inputs": [],
      "name": "fee",
      "outputs": [
        {
          "internalType": "uint256",
          "name": "",
          "type": "uint256"
        }
      ],
      "stateMutability": "view",
      "type": "function"
    },
    {
      "inputs": [],
      "name": "feeToken",
      "outputs": [
        {
          "internalType": "address",
          "name": "",
          "type": "address"
        }
      ],
      "stateMutability": "view",
      "type": "function"
    },
    {
      "inputs": [],
      "name": "gelato",
      "outputs": [
        {
          "internalType": "address payable",
          "name": "",
          "type": "address"
        }
      ],
      "stateMutability": "view",
      "type": "function"
    },
    {
      "inputs": [],
      "name": "getFeeDetails",
      "outputs": [
        {
          "internalType": "uint256",
          "name": "",
          "type": "uint256"
        },
        {
          "internalType": "address",
          "name": "",
          "type": "address"
        }
      ],
      "stateMutability": "view",
      "type": "function"
    },
    {
      "inputs": [
        {
          "internalType": "address",
          "name": "taskCreator",
          "type": "address"
        },
        {
          "internalType": "address",
          "name": "execAddress",
          "type": "address"
        },
        {
          "internalType": "bytes4",
          "name": "execSelector",
          "type": "bytes4"
        },
        {
          "components": [
            {
              "internalType": "enum LibDataTypes.Module[]",
              "name": "modules",
              "type": "uint8[]"
            },
            {
              "internalType": "bytes[]",
              "name": "args",
              "type": "bytes[]"
            }
          ],
          "internalType": "struct LibDataTypes.ModuleData",
          "name": "moduleData",
          "type": "tuple"
        },
        {
          "internalType": "address",
          "name": "feeToken",
          "type": "address"
        }
      ],
      "name": "getTaskId",
      "outputs": [
        {
          "internalType": "bytes32",
          "name": "taskId",
          "type": "bytes32"
        }
      ],
      "stateMutability": "pure",
      "type": "function"
    },
    {
      "inputs": [
        {
          "internalType": "address",
          "name": "taskCreator",
          "type": "address"
        },
        {
          "internalType": "address",
          "name": "execAddress",
          "type": "address"
        },
        {
          "internalType": "bytes4",
          "name": "execSelector",
          "type": "bytes4"
        },
        {
          "internalType": "bool",
          "name": "useTaskTreasuryFunds",
          "type": "bool"
        },
        {
          "internalType": "address",
          "name": "feeToken",
          "type": "address"
        },
        {
          "internalType": "bytes32",
          "name": "resolverHash",
          "type": "bytes32"
        }
      ],
      "name": "getTaskId",
      "outputs": [
        {
          "internalType": "bytes32",
          "name": "taskId",
          "type": "bytes32"
        }
      ],
      "stateMutability": "pure",
      "type": "function"
    },
    {
      "inputs": [
        {
          "internalType": "address",
          "name": "_taskCreator",
          "type": "address"
        }
      ],
      "name": "getTaskIdsByUser",
      "outputs": [
        {
          "internalType": "bytes32[]",
          "name": "",
          "type": "bytes32[]"
        }
      ],
      "stateMutability": "view",
      "type": "function"
    },
    {
      "inputs": [
        {
          "internalType": "bytes32",
          "name": "",
          "type": "bytes32"
        }
      ],
      "name": "nonce1Balance",
      "outputs": [
        {
          "internalType": "uint256",
          "name": "",
          "type": "uint256"
        }
      ],
      "stateMutability": "view",
      "type": "function"
    },
    {
      "inputs": [
        {
          "internalType": "enum LibDataTypes.Module[]",
          "name": "_modules",
          "type": "uint8[]"
        },
        {
          "internalType": "address[]",
          "name": "_moduleAddresses",
          "type": "address[]"
        }
      ],
      "name": "setModule",
      "outputs": [],
      "stateMutability": "nonpayable",
      "type": "function"
    },
    {
      "inputs": [
        {
          "internalType": "bytes32",
          "name": "",
          "type": "bytes32"
        }
      ],
      "name": "taskCreator",
      "outputs": [
        {
          "internalType": "address",
          "name": "",
          "type": "address"
        }
      ],
      "stateMutability": "view",
      "type": "function"
    },
    {
      "inputs": [
        {
          "internalType": "enum LibDataTypes.Module",
          "name": "",
          "type": "uint8"
        }
      ],
      "name": "taskModuleAddresses",
      "outputs": [
        {
          "internalType": "address",
          "name": "",
          "type": "address"
        }
      ],
      "stateMutability": "view",
      "type": "function"
    },
    {
      "inputs": [],
      "name": "taskTreasury",
      "outputs": [
        {
          "internalType": "contract ITaskTreasuryUpgradable",
          "name": "",
          "type": "address"
        }
      ],
      "stateMutability": "view",
      "type": "function"
    },
    {
      "inputs": [
        {
          "internalType": "bytes32",
          "name": "",
          "type": "bytes32"
        }
      ],
      "name": "timedTask",
      "outputs": [
        {
          "internalType": "uint128",
          "name": "nextExec",
          "type": "uint128"
        },
        {
          "internalType": "uint128",
          "name": "interval",
          "type": "uint128"
        }
      ],
      "stateMutability": "view",
      "type": "function"
    },
    {
      "inputs": [],
      "name": "version",
      "outputs": [
        {
          "internalType": "string",
          "name": "",
          "type": "string"
        }
      ],
      "stateMutability": "view",
      "type": "function"
    }
  ],
  "transactionHash": "0x5d2691fc2807e845d25849ecb8452fb9b24deffe8be257de18063c37cc080cd6",
  "args": [
    "0x25aD59adbe00C2d80c86d01e2E05e1294DA84823",
    "0x0FE92C3DE65C3BA8De7de38c63f09A8E48B4d0cB"
  ],
  "numDeployments": 3,
  "solcInputHash": "4c3997c751624844d586fc396a4e130d",
  "bytecode": "0x60c06040523480156200001157600080fd5b506040516200561d3803806200561d83398181016040528101906200003791906200016c565b818073ffffffffffffffffffffffffffffffffffffffff1660808173ffffffffffffffffffffffffffffffffffffffff1681525050508073ffffffffffffffffffffffffffffffffffffffff1660a08173ffffffffffffffffffffffffffffffffffffffff16815250505050620001b3565b600080fd5b600073ffffffffffffffffffffffffffffffffffffffff82169050919050565b6000620000db82620000ae565b9050919050565b620000ed81620000ce565b8114620000f957600080fd5b50565b6000815190506200010d81620000e2565b92915050565b60006200012082620000ae565b9050919050565b6000620001348262000113565b9050919050565b620001468162000127565b81146200015257600080fd5b50565b60008151905062000166816200013b565b92915050565b60008060408385031215620001865762000185620000a9565b5b60006200019685828601620000fc565b9250506020620001a98582860162000155565b9150509250929050565b60805160a051615421620001fc6000396000818161092101528181610caf01528181610d340152610f300152600081816105db015281816107db0152610b0f01526154216000f3fe608060405234801561001057600080fd5b50600436106101255760003560e01c8063813785e6116100ad578063b81cd86611610071578063b81cd8661461035f578063cd3d4fb914610390578063ddca3f43146103c0578063e60a3213146103de578063ee8ca3b5146103fc57610126565b8063813785e6146102bc578063abf26d55146102d8578063ac21631a146102f4578063ad558ab914610324578063b810c6361461034057610126565b806354fd4d50116100f457806354fd4d5014610202578063573ea57514610220578063647846a51461023e5780636d2dd29f1461025c5780637b4e45e91461028c57610126565b80630407145c146101425780632e6e0bd0146101725780633140576e146101a25780633323b467146101d257610126565b5b60003660606101358383610418565b9050915050805190602001f35b61015c600480360381019061015791906132bf565b610480565b60405161016991906133b4565b60405180910390f35b61018c60048036038101906101879190613402565b6104d6565b604051610199919061343e565b60405180910390f35b6101bc60048036038101906101b79190613857565b610509565b6040516101c991906138fd565b60405180910390f35b6101ec60048036038101906101e79190613997565b610523565b6040516101f991906138fd565b60405180910390f35b61020a6105a0565b6040516102179190613ac3565b60405180910390f35b6102286105d9565b6040516102359190613b06565b60405180910390f35b6102466105fd565b604051610253919061343e565b60405180910390f35b61027660048036038101906102719190613402565b610623565b604051610283919061343e565b60405180910390f35b6102a660048036038101906102a19190613b59565b610656565b6040516102b391906138fd565b60405180910390f35b6102d660048036038101906102d19190613c92565b610672565b005b6102f260048036038101906102ed9190613d32565b6107d9565b005b61030e60048036038101906103099190613402565b610af5565b60405161031b9190613e12565b60405180910390f35b61033e60048036038101906103399190613e59565b610b0d565b005b610348610e68565b604051610356929190613f47565b60405180910390f35b61037960048036038101906103749190613402565b610e99565b604051610387929190613f9b565b60405180910390f35b6103aa60048036038101906103a59190613fc4565b610ef5565b6040516103b7919061343e565b60405180910390f35b6103c8610f28565b6040516103d59190613e12565b60405180910390f35b6103e6610f2e565b6040516103f39190614050565b60405180910390f35b61041660048036038101906104119190613402565b610f52565b005b606060006104268484610f70565b90506000806000806104398589896110e6565b9350935093509350600061045033868686866112ae565b905080604051602001610463919061408c565b604051602081830303815290604052965050505050505092915050565b606060006104cb600260008573ffffffffffffffffffffffffffffffffffffffff1673ffffffffffffffffffffffffffffffffffffffff16815260200190815260200160002061142c565b905080915050919050565b60006020528060005260406000206000915054906101000a900473ffffffffffffffffffffffffffffffffffffffff1681565b60006105188686868686611441565b905095945050505050565b60008061053233886006611501565b8098508192505050610594818888888080601f016020809104026020016040519081016040528093929190818152602001838380828437600081840152601f19601f820116905080830192505050505050508761058e906140a7565b876112ae565b91505095945050505050565b6040518060400160405280600181526020017f360000000000000000000000000000000000000000000000000000000000000081525081565b7f000000000000000000000000000000000000000000000000000000000000000081565b600460009054906101000a900473ffffffffffffffffffffffffffffffffffffffff1681565b60016020528060005260406000206000915054906101000a900473ffffffffffffffffffffffffffffffffffffffff1681565b60006106668787878787876116ca565b90509695505050505050565b61067a611709565b73ffffffffffffffffffffffffffffffffffffffff163373ffffffffffffffffffffffffffffffffffffffff16146106e7576040517f08c379a00000000000000000000000000000000000000000000000000000000081526004016106de90614106565b60405180910390fd5b600084849050905060005b818110156107d15783838281811061070d5761070c614126565b5b905060200201602081019061072291906132bf565b6006600088888581811061073957610738614126565b5b905060200201602081019061074e9190613fc4565b60048111156107605761075f614155565b5b600481111561077257610771614155565b5b815260200190815260200160002060006101000a81548173ffffffffffffffffffffffffffffffffffffffff021916908373ffffffffffffffffffffffffffffffffffffffff16021790555080806107c9906141b3565b9150506106f2565b505050505050565b7f000000000000000000000000000000000000000000000000000000000000000073ffffffffffffffffffffffffffffffffffffffff163373ffffffffffffffffffffffffffffffffffffffff1614610867576040517f08c379a000000000000000000000000000000000000000000000000000000000815260040161085e90614247565b60405180910390fd5b6000610888878761087788611732565b87610881906140a7565b6000611441565b90506108db81600260008a73ffffffffffffffffffffffffffffffffffffffff1673ffffffffffffffffffffffffffffffffffffffff1681526020019081526020016000206118ab90919063ffffffff16565b61091a576040517f08c379a0000000000000000000000000000000000000000000000000000000008152600401610911906142b3565b60405180910390fd5b600061099c7f0000000000000000000000000000000000000000000000000000000000000000838a8a8a8a806000019061095491906142e2565b80806020026020016040519081016040528093929190818152602001838360200280828437600081840152601f19601f820116905080830192505050505050508960066118c2565b905060016007600084815260200190815260200160002060008282546109c29190614345565b925050819055508673ffffffffffffffffffffffffffffffffffffffff16600073ffffffffffffffffffffffffffffffffffffffff1660007fa458375b1282695a972870cbfbc4891a9d856b79d563d17667d171d87e0c527a898686604051610a2d939291906143ff565b60405180910390a4836020016020810190610a4891906132bf565b73ffffffffffffffffffffffffffffffffffffffff168773ffffffffffffffffffffffffffffffffffffffff16856000016020810190610a8891906132bf565b73ffffffffffffffffffffffffffffffffffffffff167f116bfd46451bbd23e7a5f5b7420b28e3d98d4c477f173da513aaaeac3c4baada8760400135886060013589608001358a60a00135604051610ae3949392919061443d565b60405180910390a45050505050505050565b60076020528060005260406000206000915090505481565b7f000000000000000000000000000000000000000000000000000000000000000073ffffffffffffffffffffffffffffffffffffffff163373ffffffffffffffffffffffffffffffffffffffff1614610b9b576040517f08c379a0000000000000000000000000000000000000000000000000000000008152600401610b9290614247565b60405180910390fd5b6000610bc88989610bab8a611732565b89610bb5906140a7565b87610bc05788610bc3565b60005b611441565b9050610c1b81600260008c73ffffffffffffffffffffffffffffffffffffffff1673ffffffffffffffffffffffffffffffffffffffff1681526020019081526020016000206118ab90919063ffffffff16565b610c5a576040517f08c379a0000000000000000000000000000000000000000000000000000000008152600401610c51906142b3565b60405180910390fd5b82610ca8578460038190555083600460006101000a81548173ffffffffffffffffffffffffffffffffffffffff021916908373ffffffffffffffffffffffffffffffffffffffff1602179055505b6000610d2a7f0000000000000000000000000000000000000000000000000000000000000000838c8c8c8c8060000190610ce291906142e2565b80806020026020016040519081016040528093929190818152602001838360200280828437600081840152601f19601f820116905080830192505050505050508960066118c2565b90508315610dc6577f000000000000000000000000000000000000000000000000000000000000000073ffffffffffffffffffffffffffffffffffffffff1663a3f1233e8b87896040518463ffffffff1660e01b8152600401610d8f93929190614482565b600060405180830381600087803b158015610da957600080fd5b505af1158015610dbd573d6000803e3d6000fd5b50505050610df2565b600360009055600460006101000a81549073ffffffffffffffffffffffffffffffffffffffff02191690555b8873ffffffffffffffffffffffffffffffffffffffff168573ffffffffffffffffffffffffffffffffffffffff16877fa458375b1282695a972870cbfbc4891a9d856b79d563d17667d171d87e0c527a8b8686604051610e54939291906143ff565b60405180910390a450505050505050505050565b600080600354600460009054906101000a900473ffffffffffffffffffffffffffffffffffffffff16915091509091565b60056020528060005260406000206000915090508060000160009054906101000a90046fffffffffffffffffffffffffffffffff16908060000160109054906101000a90046fffffffffffffffffffffffffffffffff16905082565b60066020528060005260406000206000915054906101000a900473ffffffffffffffffffffffffffffffffffffffff1681565b60035481565b7f000000000000000000000000000000000000000000000000000000000000000081565b6000610f60823360066119d9565b9050610f6c8183611b96565b5050565b6000601883836003818110610f8857610f87614126565b5b9050013560f81c60f81b7effffffffffffffffffffffffffffffffffffffffffffffffffffffffffffff19167bffffffffffffffffffffffffffffffffffffffffffffffffffffffff1916901c601084846002818110610feb57610fea614126565b5b9050013560f81c60f81b7effffffffffffffffffffffffffffffffffffffffffffffffffffffffffffff19167bffffffffffffffffffffffffffffffffffffffffffffffffffffffff1916901c60088585600181811061104e5761104d614126565b5b9050013560f81c60f81b7effffffffffffffffffffffffffffffffffffffffffffffffffffffffffffff19167bffffffffffffffffffffffffffffffffffffffffffffffffffffffff1916901c858560008181106110af576110ae614126565b5b9050013560f81c60f81b7effffffffffffffffffffffffffffffffffffffffffffffffffffffffffffff1916171717905092915050565b600060606110f2613233565b6000638b92696a60e01b7bffffffffffffffffffffffffffffffffffffffffffffffffffffffff1916877bffffffffffffffffffffffffffffffffffffffffffffffffffffffff1916036111705761115b86866004908092611156939291906144c3565b611cb5565b809450819550829650839750505050506112a5565b63b9f45adb60e01b7bffffffffffffffffffffffffffffffffffffffffffffffffffffffff1916877bffffffffffffffffffffffffffffffffffffffffffffffffffffffff1916036111ec576111d7868660049080926111d2939291906144c3565b611e5c565b809450819550829650839750505050506112a4565b63a873882560e01b7bffffffffffffffffffffffffffffffffffffffffffffffffffffffff1916877bffffffffffffffffffffffffffffffffffffffffffffffffffffffff191603611268576112538686600490809261124e939291906144c3565b612003565b809450819550829650839750505050506112a3565b6040517f08c379a000000000000000000000000000000000000000000000000000000000815260040161129a90614570565b60405180910390fd5b5b5b93509350935093565b60006112c586866112be87611732565b8686611441565b905061131881600260008973ffffffffffffffffffffffffffffffffffffffff1673ffffffffffffffffffffffffffffffffffffffff1681526020019081526020016000206118ab90919063ffffffff16565b15611358576040517f08c379a000000000000000000000000000000000000000000000000000000000815260040161134f90614602565b60405180910390fd5b611367818787878760066121c7565b6113b881600260008973ffffffffffffffffffffffffffffffffffffffff1673ffffffffffffffffffffffffffffffffffffffff16815260200190815260200160002061239990919063ffffffff16565b50808573ffffffffffffffffffffffffffffffffffffffff168773ffffffffffffffffffffffffffffffffffffffff167f73f079427211e7b93db86024054de0b3c4a076a36cf0f86d2c4bf0d112eb7f1d87878760405161141b93929190614869565b60405180910390a495945050505050565b606061143a826000016123b0565b9050919050565b6000611450836000015161240c565b156114c657600061147f846020015160008151811061147257611471614126565b5b602002602001015161251d565b90506114be878787600073ffffffffffffffffffffffffffffffffffffffff168773ffffffffffffffffffffffffffffffffffffffff161487866116ca565b9150506114f8565b85858585856040516020016114df9594939291906148bd565b6040516020818303038152906040528051906020012090505b95945050505050565b600080600060048081111561151957611518614155565b5b905060005b8181116116ba57600081600481111561153a57611539614155565b5b905061155781600481111561155257611551614155565b5b61252e565b61156157506116a7565b600086600083600481111561157957611578614155565b5b600481111561158b5761158a614155565b5b815260200190815260200160002060009054906101000a900473ffffffffffffffffffffffffffffffffffffffff1690506115c58161256f565b60006376474e6a60e01b8a8a6040516024016115e2929190614917565b604051602081830303815290604052907bffffffffffffffffffffffffffffffffffffffffffffffffffffffff19166020820180517bffffffffffffffffffffffffffffffffffffffffffffffffffffffff83818316178352505050509050600061168383836040518060400160405280601881526020017f4175746f6d6174652e7072654372656174655461736b3a2000000000000000008152506125e1565b9150508080602001905181019061169a919061496c565b809b50819c505050505050505b80806116b2906141b3565b91505061151e565b5085859250925050935093915050565b60008686868686866040516020016116e7969594939291906149ac565b6040516020818303038152906040528051906020012090509695505050505050565b60007fb53127684a568b3173ae13b9f8a6016e243e63b6e8ee1178d6a717850b5d610354905090565b600060188260038151811061174a57611749614126565b5b602001015160f81c60f81b7effffffffffffffffffffffffffffffffffffffffffffffffffffffffffffff19167bffffffffffffffffffffffffffffffffffffffffffffffffffffffff1916901c6010836002815181106117ae576117ad614126565b5b602001015160f81c60f81b7effffffffffffffffffffffffffffffffffffffffffffffffffffffffffffff19167bffffffffffffffffffffffffffffffffffffffffffffffffffffffff1916901c60088460018151811061181257611811614126565b5b602001015160f81c60f81b7effffffffffffffffffffffffffffffffffffffffffffffffffffffffffffff19167bffffffffffffffffffffffffffffffffffffffffffffffffffffffff1916901c8460008151811061187457611873614126565b5b602001015160f81c60f81b7effffffffffffffffffffffffffffffffffffffffffffffffffffffffffffff19161717179050919050565b60006118ba836000018361266b565b905092915050565b6000806118cf858461268e565b90506118df8989898989866127cb565b80975081985050508973ffffffffffffffffffffffffffffffffffffffff168773ffffffffffffffffffffffffffffffffffffffff1603611955576040517f08c379a000000000000000000000000000000000000000000000000000000000815260040161194c90614a7f565b60405180910390fd5b6119b987878a60405160200161196c929190614b23565b6040516020818303038152906040526000876040518060400160405280600f81526020017f4175746f6d6174652e657865633a20000000000000000000000000000000000081525061293e565b50809250506119cc8989898989866129d8565b5098975050505050505050565b6000806004808111156119ef576119ee614155565b5b905060005b818111611b8a576000816004811115611a1057611a0f614155565b5b9050611a2d816004811115611a2857611a27614155565b5b612b1e565b611a375750611b77565b6000856000836004811115611a4f57611a4e614155565b5b6004811115611a6157611a60614155565b5b815260200190815260200160002060009054906101000a900473ffffffffffffffffffffffffffffffffffffffff169050611a9b8161256f565b60006314ae992660e01b8989604051602401611ab8929190614b4b565b604051602081830303815290604052907bffffffffffffffffffffffffffffffffffffffffffffffffffffffff19166020820180517bffffffffffffffffffffffffffffffffffffffffffffffffffffffff838183161783525050505090506000611b5983836040518060400160405280601881526020017f4175746f6d6174652e70726543616e63656c5461736b3a2000000000000000008152506125e1565b91505080806020019051810190611b709190614b74565b9850505050505b8080611b82906141b3565b9150506119f4565b50839150509392505050565b611be781600260008573ffffffffffffffffffffffffffffffffffffffff1673ffffffffffffffffffffffffffffffffffffffff1681526020019081526020016000206118ab90919063ffffffff16565b611c26576040517f08c379a0000000000000000000000000000000000000000000000000000000008152600401611c1d90614c13565b60405180910390fd5b611c7781600260008573ffffffffffffffffffffffffffffffffffffffff1673ffffffffffffffffffffffffffffffffffffffff168152602001908152602001600020612b8f90919063ffffffff16565b507f44d83729a43f9c6046446df014d073dd242e0ad672071e9b292f31b669c25b098183604051611ca9929190614b4b565b60405180910390a15050565b60006060611cc1613233565b600080600060608888810190611cd79190614c48565b809450819550829650839a50505050506000600167ffffffffffffffff811115611d0457611d036134c7565b5b604051908082528060200260200182016040528015611d325781602001602082028036833780820191505090505b509050600081600081518110611d4b57611d4a614126565b5b60200260200101906004811115611d6557611d64614155565b5b90816004811115611d7957611d78614155565b5b815250506000600167ffffffffffffffff811115611d9a57611d996134c7565b5b604051908082528060200260200182016040528015611dcd57816020015b6060815260200190600190039081611db85790505b5090508383604051602001611de3929190614ccb565b60405160208183030381529060405281600081518110611e0657611e05614126565b5b6020026020010181905250604051806040016040528083815260200182815250965084604051602001611e399190614d1c565b604051602081830303815290604052975060009550505050505092959194509250565b60006060611e68613233565b600080600060608888810190611e7e9190614d37565b809850819550829650839750849b5050505050506000600167ffffffffffffffff811115611eaf57611eae6134c7565b5b604051908082528060200260200182016040528015611edd5781602001602082028036833780820191505090505b509050600081600081518110611ef657611ef5614126565b5b60200260200101906004811115611f1057611f0f614155565b5b90816004811115611f2457611f23614155565b5b815250506000600167ffffffffffffffff811115611f4557611f446134c7565b5b604051908082528060200260200182016040528015611f7857816020015b6060815260200190600190039081611f635790505b5090508383604051602001611f8e929190614ccb565b60405160208183030381529060405281600081518110611fb157611fb0614126565b5b6020026020010181905250604051806040016040528083815260200182815250965084604051602001611fe49190614d1c565b6040516020818303038152906040529750505050505092959194509250565b6000606061200f613233565b600060608061201e8888612ba6565b809550819650829750839950849a5050505050506000600267ffffffffffffffff81111561204f5761204e6134c7565b5b60405190808252806020026020018201604052801561207d5781602001602082028036833780820191505090505b50905060008160008151811061209657612095614126565b5b602002602001019060048111156120b0576120af614155565b5b908160048111156120c4576120c3614155565b5b815250506001816001815181106120de576120dd614126565b5b602002602001019060048111156120f8576120f7614155565b5b9081600481111561210c5761210b614155565b5b815250506000600267ffffffffffffffff81111561212d5761212c6134c7565b5b60405190808252806020026020018201604052801561216057816020015b606081526020019060019003908161214b5790505b509050838160008151811061217857612177614126565b5b6020026020010181905250828160018151811061219857612197614126565b5b602002602001018190525060405180604001604052808381526020018281525095505050505092959194509250565b600082600001515190506121df818460000151612c6c565b60005b8181101561238f5760008460000151828151811061220357612202614126565b5b6020026020010151905061222881600481111561222357612222614155565b5b612e25565b612232575061237c565b600084600083600481111561224a57612249614155565b5b600481111561225c5761225b614155565b5b815260200190815260200160002060009054906101000a900473ffffffffffffffffffffffffffffffffffffffff1690506122968161256f565b600063b0ccbdf060e01b8b8b8b8b8b6020015189815181106122bb576122ba614126565b5b60200260200101516040516024016122d7959493929190614dce565b604051602081830303815290604052907bffffffffffffffffffffffffffffffffffffffffffffffffffffffff19166020820180517bffffffffffffffffffffffffffffffffffffffffffffffffffffffff8381831617835250505050905061237682826040518060400160405280601781526020017f4175746f6d6174652e6f6e4372656174655461736b3a200000000000000000008152506125e1565b50505050505b8080612387906141b3565b9150506121e2565b5050505050505050565b60006123a88360000183612e96565b905092915050565b60608160000180548060200260200160405190810160405280929190818152602001828054801561240057602002820191906000526020600020905b8154815260200190600101908083116123ec575b50505050509050919050565b6000808251905060018114801561246257506000600481111561243257612431614155565b5b8360008151811061244657612445614126565b5b602002602001015160048111156124605761245f614155565b5b145b8061250357506002811480156124b757506000600481111561248757612486614155565b5b8360008151811061249b5761249a614126565b5b602002602001015160048111156124b5576124b4614155565b5b145b80156125025750600160048111156124d2576124d1614155565b5b836001815181106124e6576124e5614126565b5b60200260200101516004811115612500576124ff614155565b5b145b5b15612512576001915050612518565b60009150505b919050565b600081805190602001209050919050565b60006002600481111561254457612543614155565b5b82600481111561255757612556614155565b5b03612565576001905061256a565b600090505b919050565b600073ffffffffffffffffffffffffffffffffffffffff168173ffffffffffffffffffffffffffffffffffffffff16036125de576040517f08c379a00000000000000000000000000000000000000000000000000000000081526004016125d590614ea1565b60405180910390fd5b50565b600060608473ffffffffffffffffffffffffffffffffffffffff168460405161260a9190614ec1565b600060405180830381855af49150503d8060008114612645576040519150601f19603f3d011682016040523d82523d6000602084013e61264a565b606091505b50809250819350505081612663576126628184612f06565b5b935093915050565b600080836001016000848152602001908152602001600020541415905092915050565b606060008351905060008167ffffffffffffffff8111156126b2576126b16134c7565b5b6040519080825280602002602001820160405280156126e05781602001602082028036833780820191505090505b50905060005b828110156127bf5784600087838151811061270457612703614126565b5b6020026020010151600481111561271e5761271d614155565b5b60048111156127305761272f614155565b5b815260200190815260200160002060009054906101000a900473ffffffffffffffffffffffffffffffffffffffff1682828151811061277257612771614126565b5b602002602001019073ffffffffffffffffffffffffffffffffffffffff16908173ffffffffffffffffffffffffffffffffffffffff168152505080806127b7906141b3565b9150506126e6565b50809250505092915050565b6000606060008451905060005b8181101561292b576128158682815181106127f6576127f5614126565b5b602002602001015160048111156128105761280f614155565b5b61306d565b1561291857600063c10304f760e01b8b8b8b8b60405160240161283b9493929190614ed8565b604051602081830303815290604052907bffffffffffffffffffffffffffffffffffffffffffffffffffffffff19166020820180517bffffffffffffffffffffffffffffffffffffffffffffffffffffffff8381831617835250505050905060006128f68784815181106128b2576128b1614126565b5b6020026020010151836040518060400160405280601681526020017f4175746f6d6174652e7072654578656343616c6c3a20000000000000000000008152506125e1565b9150508080602001905181019061290d9190614f94565b809a50819b50505050505b8080612923906141b3565b9150506127d8565b5086869250925050965096945050505050565b600060608673ffffffffffffffffffffffffffffffffffffffff1685876040516129689190614ec1565b60006040518083038185875af1925050503d80600081146129a5576040519150601f19603f3d011682016040523d82523d6000602084013e6129aa565b606091505b508092508193505050811580156129be5750835b156129ce576129cd8184612f06565b5b9550959350505050565b60008151905060005b81811015612b1457612a1e8482815181106129ff576129fe614126565b5b60200260200101516004811115612a1957612a18614155565b5b6130de565b15612b0157600063b2db0b4160e01b89898989604051602401612a449493929190614ed8565b604051602081830303815290604052907bffffffffffffffffffffffffffffffffffffffffffffffffffffffff19166020820180517bffffffffffffffffffffffffffffffffffffffffffffffffffffffff83818316178352505050509050612afd848381518110612ab957612ab8614126565b5b6020026020010151826040518060400160405280601781526020017f4175746f6d6174652e706f73744578656343616c6c3a200000000000000000008152506125e1565b5050505b8080612b0c906141b3565b9150506129e1565b5050505050505050565b600060016004811115612b3457612b33614155565b5b826004811115612b4757612b46614155565b5b1480612b77575060026004811115612b6257612b61614155565b5b826004811115612b7557612b74614155565b5b145b15612b855760019050612b8a565b600090505b919050565b6000612b9e836000018361311f565b905092915050565b6000606060006060806000806000806000806000808e8e810190612bca919061501c565b975097509750975097509750975097508585604051602001612bec9190614d1c565b60405160208183030381529060405282612c065783612c09565b60005b9350838686604051602001612c1f929190614ccb565b6040516020818303038152906040528b8b604051602001612c41929190613f9b565b6040516020818303038152906040529c509c509c509c509c5050505050505050509295509295909350565b6001821115612e21576000806004811115612c8a57612c89614155565b5b82600081518110612c9e57612c9d614126565b5b60200260200101516004811115612cb857612cb7614155565b5b14905060005b600184612ccb91906150ee565b811015612e1e57828181518110612ce557612ce4614126565b5b60200260200101516004811115612cff57612cfe614155565b5b83600183612d0d9190614345565b81518110612d1e57612d1d614126565b5b60200260200101516004811115612d3857612d37614155565b5b11612d78576040517f08c379a0000000000000000000000000000000000000000000000000000000008152600401612d6f9061516e565b60405180910390fd5b8115612e0b57600480811115612d9157612d90614155565b5b83600183612d9f9190614345565b81518110612db057612daf614126565b5b60200260200101516004811115612dca57612dc9614155565b5b03612e0a576040517f08c379a0000000000000000000000000000000000000000000000000000000008152600401612e0190615200565b60405180910390fd5b5b8080612e16906141b3565b915050612cbe565b50505b5050565b600060016004811115612e3b57612e3a614155565b5b826004811115612e4e57612e4d614155565b5b1480612e7e575060026004811115612e6957612e68614155565b5b826004811115612e7c57612e7b614155565b5b145b15612e8c5760019050612e91565b600090505b919050565b6000612ea2838361266b565b612efb578260000182908060018154018082558091505060019003906000526020600020016000909190919091505582600001805490508360010160008481526020019081526020016000208190555060019050612f00565b600090505b92915050565b600460208351612f16919061524f565b03613011576000826020015190506308c379a060e01b817bffffffffffffffffffffffffffffffffffffffffffffffffffffffff191603612fb5576044830192508183604051602001612f6a9291906152bc565b6040516020818303038152906040526040517f08c379a0000000000000000000000000000000000000000000000000000000008152600401612fac9190613ac3565b60405180910390fd5b81604051602001612fc6919061532c565b6040516020818303038152906040526040517f08c379a00000000000000000000000000000000000000000000000000000000081526004016130089190613ac3565b60405180910390fd5b80604051602001613022919061539a565b6040516020818303038152906040526040517f08c379a00000000000000000000000000000000000000000000000000000000081526004016130649190613ac3565b60405180910390fd5b60006001600481111561308357613082614155565b5b82600481111561309657613095614155565b5b14806130c65750600260048111156130b1576130b0614155565b5b8260048111156130c4576130c3614155565b5b145b156130d457600190506130d9565b600090505b919050565b6000600360048111156130f4576130f3614155565b5b82600481111561310757613106614155565b5b03613115576001905061311a565b600090505b919050565b6000808360010160008481526020019081526020016000205490506000811461322757600060018261315191906150ee565b905060006001866000018054905061316991906150ee565b90508181146131d857600086600001828154811061318a57613189614126565b5b90600052602060002001549050808760000184815481106131ae576131ad614126565b5b90600052602060002001819055508387600101600083815260200190815260200160002081905550505b856000018054806131ec576131eb6153bc565b5b60019003818190600052602060002001600090559055856001016000868152602001908152602001600020600090556001935050505061322d565b60009150505b92915050565b604051806040016040528060608152602001606081525090565b6000604051905090565b600080fd5b600080fd5b600073ffffffffffffffffffffffffffffffffffffffff82169050919050565b600061328c82613261565b9050919050565b61329c81613281565b81146132a757600080fd5b50565b6000813590506132b981613293565b92915050565b6000602082840312156132d5576132d4613257565b5b60006132e3848285016132aa565b91505092915050565b600081519050919050565b600082825260208201905092915050565b6000819050602082019050919050565b6000819050919050565b61332b81613318565b82525050565b600061333d8383613322565b60208301905092915050565b6000602082019050919050565b6000613361826132ec565b61336b81856132f7565b935061337683613308565b8060005b838110156133a757815161338e8882613331565b975061339983613349565b92505060018101905061337a565b5085935050505092915050565b600060208201905081810360008301526133ce8184613356565b905092915050565b6133df81613318565b81146133ea57600080fd5b50565b6000813590506133fc816133d6565b92915050565b60006020828403121561341857613417613257565b5b6000613426848285016133ed565b91505092915050565b61343881613281565b82525050565b6000602082019050613453600083018461342f565b92915050565b60007fffffffff0000000000000000000000000000000000000000000000000000000082169050919050565b61348e81613459565b811461349957600080fd5b50565b6000813590506134ab81613485565b92915050565b600080fd5b6000601f19601f8301169050919050565b7f4e487b7100000000000000000000000000000000000000000000000000000000600052604160045260246000fd5b6134ff826134b6565b810181811067ffffffffffffffff8211171561351e5761351d6134c7565b5b80604052505050565b600061353161324d565b905061353d82826134f6565b919050565b600080fd5b600080fd5b600067ffffffffffffffff821115613567576135666134c7565b5b602082029050602081019050919050565b600080fd5b6005811061358a57600080fd5b50565b60008135905061359c8161357d565b92915050565b60006135b56135b08461354c565b613527565b905080838252602082019050602084028301858111156135d8576135d7613578565b5b835b8181101561360157806135ed888261358d565b8452602084019350506020810190506135da565b5050509392505050565b600082601f8301126136205761361f613547565b5b81356136308482602086016135a2565b91505092915050565b600067ffffffffffffffff821115613654576136536134c7565b5b602082029050602081019050919050565b600080fd5b600067ffffffffffffffff821115613685576136846134c7565b5b61368e826134b6565b9050602081019050919050565b82818337600083830152505050565b60006136bd6136b88461366a565b613527565b9050828152602081018484840111156136d9576136d8613665565b5b6136e484828561369b565b509392505050565b600082601f83011261370157613700613547565b5b81356137118482602086016136aa565b91505092915050565b600061372d61372884613639565b613527565b905080838252602082019050602084028301858111156137505761374f613578565b5b835b8181101561379757803567ffffffffffffffff81111561377557613774613547565b5b80860161378289826136ec565b85526020850194505050602081019050613752565b5050509392505050565b600082601f8301126137b6576137b5613547565b5b81356137c684826020860161371a565b91505092915050565b6000604082840312156137e5576137e46134b1565b5b6137ef6040613527565b9050600082013567ffffffffffffffff81111561380f5761380e613542565b5b61381b8482850161360b565b600083015250602082013567ffffffffffffffff81111561383f5761383e613542565b5b61384b848285016137a1565b60208301525092915050565b600080600080600060a0868803121561387357613872613257565b5b6000613881888289016132aa565b9550506020613892888289016132aa565b94505060406138a38882890161349c565b935050606086013567ffffffffffffffff8111156138c4576138c361325c565b5b6138d0888289016137cf565b92505060806138e1888289016132aa565b9150509295509295909350565b6138f781613318565b82525050565b600060208201905061391260008301846138ee565b92915050565b600080fd5b60008083601f84011261393357613932613547565b5b8235905067ffffffffffffffff8111156139505761394f613918565b5b60208301915083600182028301111561396c5761396b613578565b5b9250929050565b600080fd5b60006040828403121561398e5761398d613973565b5b81905092915050565b6000806000806000608086880312156139b3576139b2613257565b5b60006139c1888289016132aa565b955050602086013567ffffffffffffffff8111156139e2576139e161325c565b5b6139ee8882890161391d565b9450945050604086013567ffffffffffffffff811115613a1157613a1061325c565b5b613a1d88828901613978565b9250506060613a2e888289016132aa565b9150509295509295909350565b600081519050919050565b600082825260208201905092915050565b60005b83811015613a75578082015181840152602081019050613a5a565b83811115613a84576000848401525b50505050565b6000613a9582613a3b565b613a9f8185613a46565b9350613aaf818560208601613a57565b613ab8816134b6565b840191505092915050565b60006020820190508181036000830152613add8184613a8a565b905092915050565b6000613af082613261565b9050919050565b613b0081613ae5565b82525050565b6000602082019050613b1b6000830184613af7565b92915050565b60008115159050919050565b613b3681613b21565b8114613b4157600080fd5b50565b600081359050613b5381613b2d565b92915050565b60008060008060008060c08789031215613b7657613b75613257565b5b6000613b8489828a016132aa565b9650506020613b9589828a016132aa565b9550506040613ba689828a0161349c565b9450506060613bb789828a01613b44565b9350506080613bc889828a016132aa565b92505060a0613bd989828a016133ed565b9150509295509295509295565b60008083601f840112613bfc57613bfb613547565b5b8235905067ffffffffffffffff811115613c1957613c18613918565b5b602083019150836020820283011115613c3557613c34613578565b5b9250929050565b60008083601f840112613c5257613c51613547565b5b8235905067ffffffffffffffff811115613c6f57613c6e613918565b5b602083019150836020820283011115613c8b57613c8a613578565b5b9250929050565b60008060008060408587031215613cac57613cab613257565b5b600085013567ffffffffffffffff811115613cca57613cc961325c565b5b613cd687828801613be6565b9450945050602085013567ffffffffffffffff811115613cf957613cf861325c565b5b613d0587828801613c3c565b925092505092959194509250565b600060c08284031215613d2957613d28613973565b5b81905092915050565b6000806000806000806101608789031215613d5057613d4f613257565b5b6000613d5e89828a016132aa565b9650506020613d6f89828a016132aa565b955050604087013567ffffffffffffffff811115613d9057613d8f61325c565b5b613d9c89828a016136ec565b945050606087013567ffffffffffffffff811115613dbd57613dbc61325c565b5b613dc989828a01613978565b9350506080613dda89828a01613d13565b925050610140613dec89828a01613b44565b9150509295509295509295565b6000819050919050565b613e0c81613df9565b82525050565b6000602082019050613e276000830184613e03565b92915050565b613e3681613df9565b8114613e4157600080fd5b50565b600081359050613e5381613e2d565b92915050565b600080600080600080600080610100898b031215613e7a57613e79613257565b5b6000613e888b828c016132aa565b9850506020613e998b828c016132aa565b975050604089013567ffffffffffffffff811115613eba57613eb961325c565b5b613ec68b828c016136ec565b965050606089013567ffffffffffffffff811115613ee757613ee661325c565b5b613ef38b828c01613978565b9550506080613f048b828c01613e44565b94505060a0613f158b828c016132aa565b93505060c0613f268b828c01613b44565b92505060e0613f378b828c01613b44565b9150509295985092959890939650565b6000604082019050613f5c6000830185613e03565b613f69602083018461342f565b9392505050565b60006fffffffffffffffffffffffffffffffff82169050919050565b613f9581613f70565b82525050565b6000604082019050613fb06000830185613f8c565b613fbd6020830184613f8c565b9392505050565b600060208284031215613fda57613fd9613257565b5b6000613fe88482850161358d565b91505092915050565b6000819050919050565b600061401661401161400c84613261565b613ff1565b613261565b9050919050565b600061402882613ffb565b9050919050565b600061403a8261401d565b9050919050565b61404a8161402f565b82525050565b60006020820190506140656000830184614041565b92915050565b6000819050919050565b61408661408182613318565b61406b565b82525050565b60006140988284614075565b60208201915081905092915050565b60006140b336836137cf565b9050919050565b7f4e4f545f415554484f52495a4544000000000000000000000000000000000000600082015250565b60006140f0600e83613a46565b91506140fb826140ba565b602082019050919050565b6000602082019050818103600083015261411f816140e3565b9050919050565b7f4e487b7100000000000000000000000000000000000000000000000000000000600052603260045260246000fd5b7f4e487b7100000000000000000000000000000000000000000000000000000000600052602160045260246000fd5b7f4e487b7100000000000000000000000000000000000000000000000000000000600052601160045260246000fd5b60006141be82613df9565b91507fffffffffffffffffffffffffffffffffffffffffffffffffffffffffffffffff82036141f0576141ef614184565b5b600182019050919050565b7f47656c61746f666965643a204f6e6c792067656c61746f000000000000000000600082015250565b6000614231601783613a46565b915061423c826141fb565b602082019050919050565b6000602082019050818103600083015261426081614224565b9050919050565b7f4175746f6d6174652e657865633a205461736b206e6f7420666f756e64000000600082015250565b600061429d601d83613a46565b91506142a882614267565b602082019050919050565b600060208201905081810360008301526142cc81614290565b9050919050565b600080fd5b600080fd5b600080fd5b600080833560016020038436030381126142ff576142fe6142d3565b5b80840192508235915067ffffffffffffffff821115614321576143206142d8565b5b60208301925060208202360383131561433d5761433c6142dd565b5b509250929050565b600061435082613df9565b915061435b83613df9565b9250827fffffffffffffffffffffffffffffffffffffffffffffffffffffffffffffffff038211156143905761438f614184565b5b828201905092915050565b600081519050919050565b600082825260208201905092915050565b60006143c28261439b565b6143cc81856143a6565b93506143dc818560208601613a57565b6143e5816134b6565b840191505092915050565b6143f981613b21565b82525050565b6000606082019050818103600083015261441981866143b7565b905061442860208301856138ee565b61443560408301846143f0565b949350505050565b60006080820190506144526000830187613e03565b61445f6020830186613e03565b61446c6040830185613e03565b61447960608301846138ee565b95945050505050565b6000606082019050614497600083018661342f565b6144a4602083018561342f565b6144b16040830184613e03565b949350505050565b600080fd5b600080fd5b600080858511156144d7576144d66144b9565b5b838611156144e8576144e76144be565b5b6001850283019150848603905094509492505050565b7f4175746f6d6174652e66616c6c6261636b3a2046756e6374696f6e206e6f742060008201527f666f756e64000000000000000000000000000000000000000000000000000000602082015250565b600061455a602583613a46565b9150614565826144fe565b604082019050919050565b600060208201905081810360008301526145898161454d565b9050919050565b7f4175746f6d6174652e6372656174655461736b3a204475706c6963617465207460008201527f61736b0000000000000000000000000000000000000000000000000000000000602082015250565b60006145ec602383613a46565b91506145f782614590565b604082019050919050565b6000602082019050818103600083015261461b816145df565b9050919050565b600081519050919050565b600082825260208201905092915050565b6000819050602082019050919050565b6005811061465f5761465e614155565b5b50565b60008190506146708261464e565b919050565b600061468082614662565b9050919050565b61469081614675565b82525050565b60006146a28383614687565b60208301905092915050565b6000602082019050919050565b60006146c682614622565b6146d0818561462d565b93506146db8361463e565b8060005b8381101561470c5781516146f38882614696565b97506146fe836146ae565b9250506001810190506146df565b5085935050505092915050565b600081519050919050565b600082825260208201905092915050565b6000819050602082019050919050565b600082825260208201905092915050565b60006147618261439b565b61476b8185614745565b935061477b818560208601613a57565b614784816134b6565b840191505092915050565b600061479b8383614756565b905092915050565b6000602082019050919050565b60006147bb82614719565b6147c58185614724565b9350836020820285016147d785614735565b8060005b8581101561481357848403895281516147f4858261478f565b94506147ff836147a3565b925060208a019950506001810190506147db565b50829750879550505050505092915050565b6000604083016000830151848203600086015261484282826146bb565b9150506020830151848203602086015261485c82826147b0565b9150508091505092915050565b6000606082019050818103600083015261488381866143b7565b905081810360208301526148978185614825565b90506148a6604083018461342f565b949350505050565b6148b781613459565b82525050565b600060a0820190506148d2600083018861342f565b6148df602083018761342f565b6148ec60408301866148ae565b81810360608301526148fe8185614825565b905061490d608083018461342f565b9695505050505050565b600060408201905061492c600083018561342f565b614939602083018461342f565b9392505050565b61494981613ae5565b811461495457600080fd5b50565b60008151905061496681614940565b92915050565b6000806040838503121561498357614982613257565b5b600061499185828601614957565b92505060206149a285828601614957565b9150509250929050565b600060c0820190506149c1600083018961342f565b6149ce602083018861342f565b6149db60408301876148ae565b6149e860608301866143f0565b6149f5608083018561342f565b614a0260a08301846138ee565b979650505050505050565b7f4175746f6d6174652e6f6e457865635461736b3a20657865634164647265737360008201527f2063616e6e6f74206265207461736b5472656173757279000000000000000000602082015250565b6000614a69603783613a46565b9150614a7482614a0d565b604082019050919050565b60006020820190508181036000830152614a9881614a5c565b9050919050565b600081905092915050565b6000614ab58261439b565b614abf8185614a9f565b9350614acf818560208601613a57565b80840191505092915050565b60008160601b9050919050565b6000614af382614adb565b9050919050565b6000614b0582614ae8565b9050919050565b614b1d614b1882613281565b614afa565b82525050565b6000614b2f8285614aaa565b9150614b3b8284614b0c565b6014820191508190509392505050565b6000604082019050614b6060008301856138ee565b614b6d602083018461342f565b9392505050565b600060208284031215614b8a57614b89613257565b5b6000614b9884828501614957565b91505092915050565b7f4175746f6d6174652e63616e63656c5461736b3a205461736b206e6f7420666f60008201527f756e640000000000000000000000000000000000000000000000000000000000602082015250565b6000614bfd602383613a46565b9150614c0882614ba1565b604082019050919050565b60006020820190508181036000830152614c2c81614bf0565b9050919050565b600081359050614c4281614940565b92915050565b60008060008060808587031215614c6257614c61613257565b5b6000614c7087828801614c33565b9450506020614c818782880161349c565b9350506040614c9287828801614c33565b925050606085013567ffffffffffffffff811115614cb357614cb261325c565b5b614cbf878288016136ec565b91505092959194509250565b6000604082019050614ce0600083018561342f565b8181036020830152614cf281846143b7565b90509392505050565b6000819050919050565b614d16614d1182613459565b614cfb565b82525050565b6000614d288284614d05565b60048201915081905092915050565b600080600080600060a08688031215614d5357614d52613257565b5b6000614d6188828901614c33565b9550506020614d728882890161349c565b9450506040614d8388828901614c33565b935050606086013567ffffffffffffffff811115614da457614da361325c565b5b614db0888289016136ec565b9250506080614dc188828901614c33565b9150509295509295909350565b600060a082019050614de360008301886138ee565b614df0602083018761342f565b614dfd604083018661342f565b8181036060830152614e0f81856143b7565b90508181036080830152614e2381846143b7565b90509695505050505050565b7f4175746f6d6174652e5f6d6f64756c65496e697469616c697365643a204e6f7460008201527f20696e6974000000000000000000000000000000000000000000000000000000602082015250565b6000614e8b602583613a46565b9150614e9682614e2f565b604082019050919050565b60006020820190508181036000830152614eba81614e7e565b9050919050565b6000614ecd8284614aaa565b915081905092915050565b6000608082019050614eed60008301876138ee565b614efa602083018661342f565b614f07604083018561342f565b8181036060830152614f1981846143b7565b905095945050505050565b6000614f37614f328461366a565b613527565b905082815260208101848484011115614f5357614f52613665565b5b614f5e848285613a57565b509392505050565b600082601f830112614f7b57614f7a613547565b5b8151614f8b848260208601614f24565b91505092915050565b60008060408385031215614fab57614faa613257565b5b6000614fb985828601614957565b925050602083015167ffffffffffffffff811115614fda57614fd961325c565b5b614fe685828601614f66565b9150509250929050565b614ff981613f70565b811461500457600080fd5b50565b60008135905061501681614ff0565b92915050565b600080600080600080600080610100898b03121561503d5761503c613257565b5b600061504b8b828c01615007565b985050602061505c8b828c01615007565b975050604061506d8b828c01614c33565b965050606061507e8b828c0161349c565b955050608061508f8b828c01614c33565b94505060a089013567ffffffffffffffff8111156150b0576150af61325c565b5b6150bc8b828c016136ec565b93505060c06150cd8b828c01614c33565b92505060e06150de8b828c01613b44565b9150509295985092959890939650565b60006150f982613df9565b915061510483613df9565b92508282101561511757615116614184565b5b828203905092915050565b7f4175746f6d6174652e5f76616c69644d6f64756c65733a20417363206f6e6c79600082015250565b6000615158602083613a46565b915061516382615122565b602082019050919050565b600060208201905081810360008301526151878161514b565b9050919050565b7f4175746f6d6174652e5f76616c69644d6f64756c65733a204f6e6c79206f6e6560008201527f207265736f6c7665720000000000000000000000000000000000000000000000602082015250565b60006151ea602983613a46565b91506151f58261518e565b604082019050919050565b60006020820190508181036000830152615219816151dd565b9050919050565b7f4e487b7100000000000000000000000000000000000000000000000000000000600052601260045260246000fd5b600061525a82613df9565b915061526583613df9565b92508261527557615274615220565b5b828206905092915050565b600081905092915050565b600061529682613a3b565b6152a08185615280565b93506152b0818560208601613a57565b80840191505092915050565b60006152c8828561528b565b91506152d4828461528b565b91508190509392505050565b7f4e6f4572726f7253656c6563746f720000000000000000000000000000000000600082015250565b6000615316600f83615280565b9150615321826152e0565b600f82019050919050565b6000615338828461528b565b915061534382615309565b915081905092915050565b7f556e657870656374656452657475726e64617461000000000000000000000000600082015250565b6000615384601483615280565b915061538f8261534e565b601482019050919050565b60006153a6828461528b565b91506153b182615377565b915081905092915050565b7f4e487b7100000000000000000000000000000000000000000000000000000000600052603160045260246000fdfea26469706673582212204215667f315f5ed1848519128d1288e62b8956fcfd9de8f3623c43fb7ef4de9764736f6c634300080e0033",
  "devdoc": {
    "kind": "dev",
    "methods": {
      "cancelTask(bytes32)": {
        "params": {
          "taskId": "Unique hash of the task that is being cancelled. {See LibTaskId-getTaskId}"
        }
      },
      "createTask(address,bytes,(uint8[],bytes[]),address)": {
        "params": {
          "execAddress": "Address of contract that should be called by Gelato.",
          "execData": "Execution data to be called with / function selector if execution data is yet to be determined.",
          "feeToken": "Address of token to be used as payment. Use address(0) if TaskTreasury is being used, 0xeeeeee... for ETH or native tokens.",
          "moduleData": "Conditional modules that will be used. {See LibDataTypes-ModuleData}"
        },
        "returns": {
          "taskId": "Unique hash of the task created."
        }
      },
      "exec(address,address,bytes,(uint8[],bytes[]),uint256,address,bool,bool)": {
        "params": {
          "execAddress": "Address of contract that should be called by Gelato.",
          "execData": "Execution data to be called with / function selector if execution data is yet to be determined.",
          "feeToken": "Token used to pay for the execution. ETH = 0xeeeeee...",
          "moduleData": "Conditional modules that will be used. {See LibDataTypes-ModuleData}",
          "revertOnFailure": "To revert or not if call to execAddress fails. (Used for off-chain simulations)",
          "taskCreator": "The address which created the task.",
          "txFee": "Fee paid to Gelato for execution, deducted on the TaskTreasury or transfered to Gelato.",
          "useTaskTreasuryFunds": "If taskCreator's balance on TaskTreasury should pay for the tx."
        }
      },
      "exec1Balance(address,address,bytes,(uint8[],bytes[]),(address,address,uint256,uint256,uint256,bytes32),bool)": {
        "params": {
          "execAddress": "Address of contract that should be called by Gelato.",
          "execData": "Execution data to be called with / function selector if execution data is yet to be determined.",
          "moduleData": "Conditional modules that will be used. {See LibDataTypes-ModuleData}",
          "oneBalanceParam": "Parameters required for fee payment with Gelato 1Balance.",
          "revertOnFailure": "To revert or not if call to execAddress fails. (Used for off-chain simulations)",
          "taskCreator": "The address which created the task."
        }
      },
      "getFeeDetails()": {
        "returns": {
          "_0": "uint256 Fee amount to be paid.",
          "_1": "address Token to be paid. (Determined and passed by taskCreator during createTask)"
        }
      },
      "getTaskId(address,address,bytes4,(uint8[],bytes[]),address)": {
        "params": {
          "execAddress": "Address of contract that will be called by Gelato.",
          "execSelector": "Signature of the function which will be called by Gelato.",
          "feeToken": "Address of token to be used as payment. Use address(0) if TaskTreasury is being used, 0xeeeeee... for ETH or native tokens.",
          "moduleData": "Conditional modules that will be used. {See LibDataTypes-ModuleData}",
          "taskCreator": "The address which created the task."
        }
      },
      "getTaskId(address,address,bytes4,bool,address,bytes32)": {
        "params": {
          "execAddress": "Address of contract that will be called by Gelato.",
          "execSelector": "Signature of the function which will be called by Gelato.",
          "feeToken": "Address of token to be used as payment. Use address(0) if TaskTreasury is being used, 0xeeeeee... for ETH or native tokens.",
          "resolverHash": "Hash of resolverAddress and resolverData {See getResolverHash}",
          "taskCreator": "The address which created the task.",
          "useTaskTreasuryFunds": "Wether fee should be deducted from TaskTreasury."
        }
      },
      "getTaskIdsByUser(address)": {
        "params": {
          "taskCreator": "Address of task creator to query."
        },
        "returns": {
          "_0": "bytes32[] List of taskIds created."
        }
      },
      "setModule(uint8[],address[])": {
        "params": {
          "moduleAddresses": "List of addresses for respective modules.",
          "modules": "List of modules to be set"
        }
      }
    },
    "stateVariables": {
      "taskTreasury": {
        "return": "ITaskTreasuryUpgradable TaskTreasury contract interface",
        "returns": {
          "_0": "ITaskTreasuryUpgradable TaskTreasury contract interface"
        }
      }
    },
    "version": 1
  },
  "userdoc": {
    "kind": "user",
    "methods": {
      "cancelTask(bytes32)": {
        "notice": "Terminates a task that was created and Gelato can no longer execute it."
      },
      "createTask(address,bytes,(uint8[],bytes[]),address)": {
        "notice": "Initiates a task with conditions which Gelato will monitor and execute when conditions are met."
      },
      "exec(address,address,bytes,(uint8[],bytes[]),uint256,address,bool,bool)": {
        "notice": "Execution API called by Gelato."
      },
      "exec1Balance(address,address,bytes,(uint8[],bytes[]),(address,address,uint256,uint256,uint256,bytes32),bool)": {
        "notice": "Execution API called by Gelato, using Gelato 1Balance as fee payment method."
      },
      "getFeeDetails()": {
        "notice": "Helper function to query fee and feeToken to be used for payment. (For executions which pays itself)"
      },
      "getTaskId(address,address,bytes4,(uint8[],bytes[]),address)": {
        "notice": "Helper function to compute task id with module arguments"
      },
      "getTaskId(address,address,bytes4,bool,address,bytes32)": {
        "notice": "(Legacy) Helper function to compute task id."
      },
      "getTaskIdsByUser(address)": {
        "notice": "Helper func to query all open tasks by a task creator."
      },
      "setModule(uint8[],address[])": {
        "notice": "Sets the address of task modules. Only callable by proxy admin."
      },
      "taskTreasury()": {
        "notice": "TaskTreasury contract where user deposit funds to be used for fee payments."
      }
    },
    "notice": "Automate enables everyone to have Gelato monitor and execute transactions.ExecAddress refers to the contract that has the function which Gelato will call.Modules allow users to customise conditions and specifications when creating a task.",
    "version": 1
  },
  "storageLayout": {
    "storage": [
      {
        "astId": 1848,
        "contract": "contracts/Automate.sol:Automate",
        "label": "taskCreator",
        "offset": 0,
        "slot": "0",
        "type": "t_mapping(t_bytes32,t_address)"
      },
      {
        "astId": 1853,
        "contract": "contracts/Automate.sol:Automate",
        "label": "execAddresses",
        "offset": 0,
        "slot": "1",
        "type": "t_mapping(t_bytes32,t_address)"
      },
      {
        "astId": 1859,
        "contract": "contracts/Automate.sol:Automate",
        "label": "_createdTasks",
        "offset": 0,
        "slot": "2",
        "type": "t_mapping(t_address,t_struct(Bytes32Set)801_storage)"
      },
      {
        "astId": 1861,
        "contract": "contracts/Automate.sol:Automate",
        "label": "fee",
        "offset": 0,
        "slot": "3",
        "type": "t_uint256"
      },
      {
        "astId": 1863,
        "contract": "contracts/Automate.sol:Automate",
        "label": "feeToken",
        "offset": 0,
        "slot": "4",
        "type": "t_address"
      },
      {
        "astId": 1869,
        "contract": "contracts/Automate.sol:Automate",
        "label": "timedTask",
        "offset": 0,
        "slot": "5",
        "type": "t_mapping(t_bytes32,t_struct(Time)2491_storage)"
      },
      {
        "astId": 1874,
        "contract": "contracts/Automate.sol:Automate",
        "label": "taskModuleAddresses",
        "offset": 0,
        "slot": "6",
        "type": "t_mapping(t_enum(Module)2478,t_address)"
      },
      {
        "astId": 1878,
        "contract": "contracts/Automate.sol:Automate",
        "label": "nonce1Balance",
        "offset": 0,
        "slot": "7",
        "type": "t_mapping(t_bytes32,t_uint256)"
      }
    ],
    "types": {
      "t_address": {
        "encoding": "inplace",
        "label": "address",
        "numberOfBytes": "20"
      },
      "t_array(t_bytes32)dyn_storage": {
        "base": "t_bytes32",
        "encoding": "dynamic_array",
        "label": "bytes32[]",
        "numberOfBytes": "32"
      },
      "t_bytes32": {
        "encoding": "inplace",
        "label": "bytes32",
        "numberOfBytes": "32"
      },
      "t_enum(Module)2478": {
        "encoding": "inplace",
        "label": "enum LibDataTypes.Module",
        "numberOfBytes": "1"
      },
      "t_mapping(t_address,t_struct(Bytes32Set)801_storage)": {
        "encoding": "mapping",
        "key": "t_address",
        "label": "mapping(address => struct EnumerableSet.Bytes32Set)",
        "numberOfBytes": "32",
        "value": "t_struct(Bytes32Set)801_storage"
      },
      "t_mapping(t_bytes32,t_address)": {
        "encoding": "mapping",
        "key": "t_bytes32",
        "label": "mapping(bytes32 => address)",
        "numberOfBytes": "32",
        "value": "t_address"
      },
      "t_mapping(t_bytes32,t_struct(Time)2491_storage)": {
        "encoding": "mapping",
        "key": "t_bytes32",
        "label": "mapping(bytes32 => struct LibDataTypes.Time)",
        "numberOfBytes": "32",
        "value": "t_struct(Time)2491_storage"
      },
      "t_mapping(t_bytes32,t_uint256)": {
        "encoding": "mapping",
        "key": "t_bytes32",
        "label": "mapping(bytes32 => uint256)",
        "numberOfBytes": "32",
        "value": "t_uint256"
      },
      "t_mapping(t_enum(Module)2478,t_address)": {
        "encoding": "mapping",
        "key": "t_enum(Module)2478",
        "label": "mapping(enum LibDataTypes.Module => address)",
        "numberOfBytes": "32",
        "value": "t_address"
      },
      "t_struct(Bytes32Set)801_storage": {
        "encoding": "inplace",
        "label": "struct EnumerableSet.Bytes32Set",
        "members": [
          {
            "astId": 800,
            "contract": "contracts/Automate.sol:Automate",
            "label": "_inner",
            "offset": 0,
            "slot": "0",
            "type": "t_struct(Set)607_storage"
          }
        ],
        "numberOfBytes": "64"
      },
      "t_struct(Set)607_storage": {
        "encoding": "inplace",
        "label": "struct EnumerableSet.Set",
        "members": [
          {
            "astId": 602,
            "contract": "contracts/Automate.sol:Automate",
            "label": "_values",
            "offset": 0,
            "slot": "0",
            "type": "t_array(t_bytes32)dyn_storage"
          },
          {
            "astId": 606,
            "contract": "contracts/Automate.sol:Automate",
            "label": "_indexes",
            "offset": 0,
            "slot": "1",
            "type": "t_mapping(t_bytes32,t_uint256)"
          }
        ],
        "numberOfBytes": "64"
      },
      "t_struct(Time)2491_storage": {
        "encoding": "inplace",
        "label": "struct LibDataTypes.Time",
        "members": [
          {
            "astId": 2488,
            "contract": "contracts/Automate.sol:Automate",
            "label": "nextExec",
            "offset": 0,
            "slot": "0",
            "type": "t_uint128"
          },
          {
            "astId": 2490,
            "contract": "contracts/Automate.sol:Automate",
            "label": "interval",
            "offset": 16,
            "slot": "0",
            "type": "t_uint128"
          }
        ],
        "numberOfBytes": "32"
      },
      "t_uint128": {
        "encoding": "inplace",
        "label": "uint128",
        "numberOfBytes": "16"
      },
      "t_uint256": {
        "encoding": "inplace",
        "label": "uint256",
        "numberOfBytes": "32"
      }
    }
  }
}