{
  "address": "0x5066d4761CB7EB04A842545DBDB8755A961FF57c",
  "abi": [
    {
      "inputs": [
        {
          "internalType": "address payable",
          "name": "_ops",
          "type": "address"
        }
      ],
      "stateMutability": "nonpayable",
      "type": "constructor"
    },
    {
      "inputs": [],
      "name": "checker",
      "outputs": [
        {
          "internalType": "bool",
          "name": "canExec",
          "type": "bool"
        },
        {
          "internalType": "bytes",
          "name": "execPayload",
          "type": "bytes"
        }
      ],
      "stateMutability": "view",
      "type": "function"
    },
    {
      "inputs": [],
      "name": "count",
      "outputs": [
        {
          "internalType": "uint256",
          "name": "",
          "type": "uint256"
        }
      ],
      "stateMutability": "view",
      "type": "function"
    },
    {
      "inputs": [
        {
          "internalType": "uint256",
          "name": "amount",
          "type": "uint256"
        }
      ],
      "name": "increaseCount",
      "outputs": [],
      "stateMutability": "nonpayable",
      "type": "function"
    },
    {
      "inputs": [],
      "name": "lastExecuted",
      "outputs": [
        {
          "internalType": "uint256",
          "name": "",
          "type": "uint256"
        }
      ],
      "stateMutability": "view",
      "type": "function"
    },
    {
      "inputs": [],
      "name": "ops",
      "outputs": [
        {
          "internalType": "address",
          "name": "",
          "type": "address"
        }
      ],
      "stateMutability": "view",
      "type": "function"
    }
  ],
  "transactionHash": "0x14645e54778f052d7102fbc73e716cd9f2ff6c970ff78b2498b34673e6e9df79",
  "args": [
    "0xB3f5503f93d5Ef84b06993a1975B9D21B962892F"
  ],
  "numDeployments": 1,
  "solcInputHash": "0fcf7604ca384e64088cfb6326cdd37d",
  "bytecode": "0x608060405234801561001057600080fd5b506040516106fc3803806106fc833981810160405281019061003291906100db565b806000806101000a81548173ffffffffffffffffffffffffffffffffffffffff021916908373ffffffffffffffffffffffffffffffffffffffff16021790555050610108565b600080fd5b600073ffffffffffffffffffffffffffffffffffffffff82169050919050565b60006100a88261007d565b9050919050565b6100b88161009d565b81146100c357600080fd5b50565b6000815190506100d5816100af565b92915050565b6000602082840312156100f1576100f0610078565b5b60006100ff848285016100c6565b91505092915050565b6105e5806101176000396000f3fe608060405234801561001057600080fd5b50600436106100575760003560e01c806306661abd1461005c5780631c15ff771461007a57806346d4adf214610098578063cf5303cf146100b4578063e70abe92146100d3575b600080fd5b6100646100f1565b604051610071919061023a565b60405180910390f35b6100826100f7565b60405161008f919061023a565b60405180910390f35b6100b260048036038101906100ad9190610286565b6100fd565b005b6100bc610170565b6040516100ca929190610367565b60405180910390f35b6100db6101fd565b6040516100e891906103d8565b60405180910390f35b60015481565b60025481565b60b46002544261010d9190610422565b1161014d576040517f08c379a0000000000000000000000000000000000000000000000000000000008152600401610144906104d9565b60405180910390fd5b806001600082825461015f91906104f9565b925050819055504260028190555050565b6000606060b4600254426101849190610422565b1191503073ffffffffffffffffffffffffffffffffffffffff166346d4adf260016040516024016101b59190610594565b604051602081830303815290604052915060e01b6020820180517bffffffffffffffffffffffffffffffffffffffffffffffffffffffff838183161783525050505090509091565b60008054906101000a900473ffffffffffffffffffffffffffffffffffffffff1681565b6000819050919050565b61023481610221565b82525050565b600060208201905061024f600083018461022b565b92915050565b600080fd5b61026381610221565b811461026e57600080fd5b50565b6000813590506102808161025a565b92915050565b60006020828403121561029c5761029b610255565b5b60006102aa84828501610271565b91505092915050565b60008115159050919050565b6102c8816102b3565b82525050565b600081519050919050565b600082825260208201905092915050565b60005b838110156103085780820151818401526020810190506102ed565b83811115610317576000848401525b50505050565b6000601f19601f8301169050919050565b6000610339826102ce565b61034381856102d9565b93506103538185602086016102ea565b61035c8161031d565b840191505092915050565b600060408201905061037c60008301856102bf565b818103602083015261038e818461032e565b90509392505050565b600073ffffffffffffffffffffffffffffffffffffffff82169050919050565b60006103c282610397565b9050919050565b6103d2816103b7565b82525050565b60006020820190506103ed60008301846103c9565b92915050565b7f4e487b7100000000000000000000000000000000000000000000000000000000600052601160045260246000fd5b600061042d82610221565b915061043883610221565b92508282101561044b5761044a6103f3565b5b828203905092915050565b600082825260208201905092915050565b7f436f756e7465723a20696e637265617365436f756e743a2054696d65206e6f7460008201527f20656c6170736564000000000000000000000000000000000000000000000000602082015250565b60006104c3602883610456565b91506104ce82610467565b604082019050919050565b600060208201905081810360008301526104f2816104b6565b9050919050565b600061050482610221565b915061050f83610221565b9250827fffffffffffffffffffffffffffffffffffffffffffffffffffffffffffffffff03821115610544576105436103f3565b5b828201905092915050565b6000819050919050565b6000819050919050565b600061057e6105796105748461054f565b610559565b610221565b9050919050565b61058e81610563565b82525050565b60006020820190506105a96000830184610585565b9291505056fea2646970667358221220a2d78064d74de96ddb24faaeaf1bec8c8f57407ae6103765056793df5336e73164736f6c634300080e0033",
  "devdoc": {
    "kind": "dev",
    "methods": {},
    "version": 1
  },
  "userdoc": {
    "kind": "user",
    "methods": {},
    "version": 1
  },
  "storageLayout": {
    "storage": [
      {
        "astId": 9687,
        "contract": "contracts/tests/CounterTest.sol:CounterTest",
        "label": "ops",
        "offset": 0,
        "slot": "0",
        "type": "t_address"
      },
      {
        "astId": 9689,
        "contract": "contracts/tests/CounterTest.sol:CounterTest",
        "label": "count",
        "offset": 0,
        "slot": "1",
        "type": "t_uint256"
      },
      {
        "astId": 9691,
        "contract": "contracts/tests/CounterTest.sol:CounterTest",
        "label": "lastExecuted",
        "offset": 0,
        "slot": "2",
        "type": "t_uint256"
      }
    ],
    "types": {
      "t_address": {
        "encoding": "inplace",
        "label": "address",
        "numberOfBytes": "20"
      },
      "t_uint256": {
        "encoding": "inplace",
        "label": "uint256",
        "numberOfBytes": "32"
      }
    }
  }
}