{
  "address": "0xaF60B6b627423945D691439EAa3872c2d0Ef1cBA",
  "abi": [
    {
      "inputs": [
        {
          "internalType": "address",
          "name": "_ops",
          "type": "address"
        },
        {
          "internalType": "address",
          "name": "_taskCreator",
          "type": "address"
        }
      ],
      "stateMutability": "nonpayable",
      "type": "constructor"
    },
    {
      "inputs": [],
      "name": "checker",
      "outputs": [
        {
          "internalType": "bool",
          "name": "canExec",
          "type": "bool"
        },
        {
          "internalType": "bytes",
          "name": "execPayload",
          "type": "bytes"
        }
      ],
      "stateMutability": "view",
      "type": "function"
    },
    {
      "inputs": [],
      "name": "count",
      "outputs": [
        {
          "internalType": "uint256",
          "name": "",
          "type": "uint256"
        }
      ],
      "stateMutability": "view",
      "type": "function"
    },
    {
      "inputs": [],
      "name": "dedicatedMsgSender",
      "outputs": [
        {
          "internalType": "address",
          "name": "",
          "type": "address"
        }
      ],
      "stateMutability": "view",
      "type": "function"
    },
    {
      "inputs": [
        {
          "internalType": "uint256",
          "name": "amount",
          "type": "uint256"
        }
      ],
      "name": "increaseCount",
      "outputs": [],
      "stateMutability": "nonpayable",
      "type": "function"
    },
    {
      "inputs": [],
      "name": "lastExecuted",
      "outputs": [
        {
          "internalType": "uint256",
          "name": "",
          "type": "uint256"
        }
      ],
      "stateMutability": "view",
      "type": "function"
    },
    {
      "inputs": [],
      "name": "ops",
      "outputs": [
        {
          "internalType": "contract IOps",
          "name": "",
          "type": "address"
        }
      ],
      "stateMutability": "view",
      "type": "function"
    },
    {
      "stateMutability": "payable",
      "type": "receive"
    }
  ],
  "transactionHash": "0xb7449d3509052efbc744f6b98feeef17cc4eecf2b28d4c60c6b3e88f862926ad",
  "args": [
    "0xB3f5503f93d5Ef84b06993a1975B9D21B962892F",
    "0xCDf41a135C65d0013393B3793F92b4FAF31032d0"
  ],
  "numDeployments": 1,
  "solcInputHash": "0fcf7604ca384e64088cfb6326cdd37d",
  "bytecode": "0x60e06040523480156200001157600080fd5b50604051620013df380380620013df83398181016040528101906200003791906200024d565b81818173ffffffffffffffffffffffffffffffffffffffff1660808173ffffffffffffffffffffffffffffffffffffffff16815250508173ffffffffffffffffffffffffffffffffffffffff1663573ea5756040518163ffffffff1660e01b8152600401602060405180830381865afa158015620000b9573d6000803e3d6000fd5b505050506040513d601f19601f82011682018060405250810190620000df9190620002d9565b73ffffffffffffffffffffffffffffffffffffffff1660c08173ffffffffffffffffffffffffffffffffffffffff168152505073c815db16d4be6ddf2685c201937905abf338f5d773ffffffffffffffffffffffffffffffffffffffff1663ded89a7c826040518263ffffffff1660e01b81526004016200016191906200031c565b6040805180830381865afa1580156200017e573d6000803e3d6000fd5b505050506040513d601f19601f82011682018060405250810190620001a4919062000376565b508073ffffffffffffffffffffffffffffffffffffffff1660a09073ffffffffffffffffffffffffffffffffffffffff168152505050505050620003bd565b600080fd5b600073ffffffffffffffffffffffffffffffffffffffff82169050919050565b60006200021582620001e8565b9050919050565b620002278162000208565b81146200023357600080fd5b50565b60008151905062000247816200021c565b92915050565b60008060408385031215620002675762000266620001e3565b5b6000620002778582860162000236565b92505060206200028a8582860162000236565b9150509250929050565b6000620002a182620001e8565b9050919050565b620002b38162000294565b8114620002bf57600080fd5b50565b600081519050620002d381620002a8565b92915050565b600060208284031215620002f257620002f1620001e3565b5b60006200030284828501620002c2565b91505092915050565b620003168162000208565b82525050565b60006020820190506200033360008301846200030b565b92915050565b60008115159050919050565b620003508162000339565b81146200035c57600080fd5b50565b600081519050620003708162000345565b92915050565b6000806040838503121562000390576200038f620001e3565b5b6000620003a08582860162000236565b9250506020620003b3858286016200035f565b9150509250929050565b60805160a05160c051610fe4620003fb600039600081816103bc0152610490015260006101740152600081816102b201526102d90152610fe46000f3fe6080604052600436106100595760003560e01c806306661abd146100655780631c15ff771461009057806328f150eb146100bb57806346d4adf2146100e6578063cf5303cf1461010f578063e70abe921461013b57610060565b3661006057005b600080fd5b34801561007157600080fd5b5061007a610166565b60405161008791906107d6565b60405180910390f35b34801561009c57600080fd5b506100a561016c565b6040516100b291906107d6565b60405180910390f35b3480156100c757600080fd5b506100d0610172565b6040516100dd9190610832565b60405180910390f35b3480156100f257600080fd5b5061010d6004803603810190610108919061087e565b610196565b005b34801561011b57600080fd5b50610124610223565b60405161013292919061095f565b60405180910390f35b34801561014757600080fd5b506101506102b0565b60405161015d91906109ee565b60405180910390f35b60005481565b60015481565b7f000000000000000000000000000000000000000000000000000000000000000081565b60b4600154426101a69190610a38565b116101e6576040517f08c379a00000000000000000000000000000000000000000000000000000000081526004016101dd90610aef565b60405180910390fd5b806000808282546101f79190610b0f565b92505081905550426001819055506000806102106102d4565b9150915061021e8282610371565b505050565b6000606060b4600154426102379190610a38565b1191503073ffffffffffffffffffffffffffffffffffffffff166346d4adf260016040516024016102689190610ba0565b604051602081830303815290604052915060e01b6020820180517bffffffffffffffffffffffffffffffffffffffffffffffffffffffff838183161783525050505090509091565b7f000000000000000000000000000000000000000000000000000000000000000081565b6000807f000000000000000000000000000000000000000000000000000000000000000073ffffffffffffffffffffffffffffffffffffffff1663b810c6366040518163ffffffff1660e01b81526004016040805180830381865afa158015610341573d6000803e3d6000fd5b505050506040513d601f19601f820116820180604052508101906103659190610bfc565b80925081935050509091565b73eeeeeeeeeeeeeeeeeeeeeeeeeeeeeeeeeeeeeeee73ffffffffffffffffffffffffffffffffffffffff168173ffffffffffffffffffffffffffffffffffffffff160361048a5760007f000000000000000000000000000000000000000000000000000000000000000073ffffffffffffffffffffffffffffffffffffffff16836040516103fe90610c6d565b60006040518083038185875af1925050503d806000811461043b576040519150601f19603f3d011682016040523d82523d6000602084013e610440565b606091505b5050905080610484576040517f08c379a000000000000000000000000000000000000000000000000000000000815260040161047b90610cce565b60405180910390fd5b506104b6565b6104b5817f0000000000000000000000000000000000000000000000000000000000000000846104ba565b5b5050565b61053b8363a9059cbb60e01b84846040516024016104d9929190610cee565b604051602081830303815290604052907bffffffffffffffffffffffffffffffffffffffffffffffffffffffff19166020820180517bffffffffffffffffffffffffffffffffffffffffffffffffffffffff8381831617835250505050610540565b505050565b60006105a2826040518060400160405280602081526020017f5361666545524332303a206c6f772d6c6576656c2063616c6c206661696c65648152508573ffffffffffffffffffffffffffffffffffffffff166106079092919063ffffffff16565b905060008151111561060257808060200190518101906105c29190610d43565b610601576040517f08c379a00000000000000000000000000000000000000000000000000000000081526004016105f890610de2565b60405180910390fd5b5b505050565b6060610616848460008561061f565b90509392505050565b606082471015610664576040517f08c379a000000000000000000000000000000000000000000000000000000000815260040161065b90610e74565b60405180910390fd5b61066d85610733565b6106ac576040517f08c379a00000000000000000000000000000000000000000000000000000000081526004016106a390610ee0565b60405180910390fd5b6000808673ffffffffffffffffffffffffffffffffffffffff1685876040516106d59190610f31565b60006040518083038185875af1925050503d8060008114610712576040519150601f19603f3d011682016040523d82523d6000602084013e610717565b606091505b5091509150610727828286610756565b92505050949350505050565b6000808273ffffffffffffffffffffffffffffffffffffffff163b119050919050565b60608315610766578290506107b6565b6000835111156107795782518084602001fd5b816040517f08c379a00000000000000000000000000000000000000000000000000000000081526004016107ad9190610f8c565b60405180910390fd5b9392505050565b6000819050919050565b6107d0816107bd565b82525050565b60006020820190506107eb60008301846107c7565b92915050565b600073ffffffffffffffffffffffffffffffffffffffff82169050919050565b600061081c826107f1565b9050919050565b61082c81610811565b82525050565b60006020820190506108476000830184610823565b92915050565b600080fd5b61085b816107bd565b811461086657600080fd5b50565b60008135905061087881610852565b92915050565b6000602082840312156108945761089361084d565b5b60006108a284828501610869565b91505092915050565b60008115159050919050565b6108c0816108ab565b82525050565b600081519050919050565b600082825260208201905092915050565b60005b838110156109005780820151818401526020810190506108e5565b8381111561090f576000848401525b50505050565b6000601f19601f8301169050919050565b6000610931826108c6565b61093b81856108d1565b935061094b8185602086016108e2565b61095481610915565b840191505092915050565b600060408201905061097460008301856108b7565b81810360208301526109868184610926565b90509392505050565b6000819050919050565b60006109b46109af6109aa846107f1565b61098f565b6107f1565b9050919050565b60006109c682610999565b9050919050565b60006109d8826109bb565b9050919050565b6109e8816109cd565b82525050565b6000602082019050610a0360008301846109df565b92915050565b7f4e487b7100000000000000000000000000000000000000000000000000000000600052601160045260246000fd5b6000610a43826107bd565b9150610a4e836107bd565b925082821015610a6157610a60610a09565b5b828203905092915050565b600082825260208201905092915050565b7f436f756e7465723a20696e637265617365436f756e743a2054696d65206e6f7460008201527f20656c6170736564000000000000000000000000000000000000000000000000602082015250565b6000610ad9602883610a6c565b9150610ae482610a7d565b604082019050919050565b60006020820190508181036000830152610b0881610acc565b9050919050565b6000610b1a826107bd565b9150610b25836107bd565b9250827fffffffffffffffffffffffffffffffffffffffffffffffffffffffffffffffff03821115610b5a57610b59610a09565b5b828201905092915050565b6000819050919050565b6000610b8a610b85610b8084610b65565b61098f565b6107bd565b9050919050565b610b9a81610b6f565b82525050565b6000602082019050610bb56000830184610b91565b92915050565b600081519050610bca81610852565b92915050565b610bd981610811565b8114610be457600080fd5b50565b600081519050610bf681610bd0565b92915050565b60008060408385031215610c1357610c1261084d565b5b6000610c2185828601610bbb565b9250506020610c3285828601610be7565b9150509250929050565b600081905092915050565b50565b6000610c57600083610c3c565b9150610c6282610c47565b600082019050919050565b6000610c7882610c4a565b9150819050919050565b7f5f7472616e736665723a20455448207472616e73666572206661696c65640000600082015250565b6000610cb8601e83610a6c565b9150610cc382610c82565b602082019050919050565b60006020820190508181036000830152610ce781610cab565b9050919050565b6000604082019050610d036000830185610823565b610d1060208301846107c7565b9392505050565b610d20816108ab565b8114610d2b57600080fd5b50565b600081519050610d3d81610d17565b92915050565b600060208284031215610d5957610d5861084d565b5b6000610d6784828501610d2e565b91505092915050565b7f5361666545524332303a204552433230206f7065726174696f6e20646964206e60008201527f6f74207375636365656400000000000000000000000000000000000000000000602082015250565b6000610dcc602a83610a6c565b9150610dd782610d70565b604082019050919050565b60006020820190508181036000830152610dfb81610dbf565b9050919050565b7f416464726573733a20696e73756666696369656e742062616c616e636520666f60008201527f722063616c6c0000000000000000000000000000000000000000000000000000602082015250565b6000610e5e602683610a6c565b9150610e6982610e02565b604082019050919050565b60006020820190508181036000830152610e8d81610e51565b9050919050565b7f416464726573733a2063616c6c20746f206e6f6e2d636f6e7472616374000000600082015250565b6000610eca601d83610a6c565b9150610ed582610e94565b602082019050919050565b60006020820190508181036000830152610ef981610ebd565b9050919050565b6000610f0b826108c6565b610f158185610c3c565b9350610f258185602086016108e2565b80840191505092915050565b6000610f3d8284610f00565b915081905092915050565b600081519050919050565b6000610f5e82610f48565b610f688185610a6c565b9350610f788185602086016108e2565b610f8181610915565b840191505092915050565b60006020820190508181036000830152610fa68184610f53565b90509291505056fea2646970667358221220c2888ba4b44ea29ab656d959cd3c072556e0331dbfd85afe09facf1788c56e3164736f6c634300080e0033",
  "devdoc": {
    "kind": "dev",
    "methods": {},
    "version": 1
  },
  "userdoc": {
    "kind": "user",
    "methods": {},
    "version": 1
  },
  "storageLayout": {
    "storage": [
      {
        "astId": 9764,
        "contract": "contracts/tests/CounterTestWT.sol:CounterTestWT",
        "label": "count",
        "offset": 0,
        "slot": "0",
        "type": "t_uint256"
      },
      {
        "astId": 9766,
        "contract": "contracts/tests/CounterTestWT.sol:CounterTestWT",
        "label": "lastExecuted",
        "offset": 0,
        "slot": "1",
        "type": "t_uint256"
      }
    ],
    "types": {
      "t_uint256": {
        "encoding": "inplace",
        "label": "uint256",
        "numberOfBytes": "32"
      }
    }
  }
}