{
  "address": "0x8556DD3e56516e2061CaDE4D6714F0875862F3B0",
  "abi": [
    {
      "inputs": [
        {
          "internalType": "string",
          "name": "_expression",
          "type": "string"
        }
      ],
      "name": "encodeCronTriggerModuleArg",
      "outputs": [
        {
          "internalType": "bytes",
          "name": "",
          "type": "bytes"
        }
      ],
      "stateMutability": "pure",
      "type": "function"
    },
    {
      "inputs": [
        {
          "internalType": "uint128",
          "name": "_start",
          "type": "uint128"
        },
        {
          "internalType": "uint128",
          "name": "_interval",
          "type": "uint128"
        }
      ],
      "name": "encodeTimeTriggerModuleArg",
      "outputs": [
        {
          "internalType": "bytes",
          "name": "",
          "type": "bytes"
        }
      ],
      "stateMutability": "pure",
      "type": "function"
    },
    {
      "inputs": [
        {
          "internalType": "bytes32",
          "name": "",
          "type": "bytes32"
        }
      ],
      "name": "execAddresses",
      "outputs": [
        {
          "internalType": "address",
          "name": "",
          "type": "address"
        }
      ],
      "stateMutability": "view",
      "type": "function"
    },
    {
      "inputs": [],
      "name": "fee",
      "outputs": [
        {
          "internalType": "uint256",
          "name": "",
          "type": "uint256"
        }
      ],
      "stateMutability": "view",
      "type": "function"
    },
    {
      "inputs": [],
      "name": "feeToken",
      "outputs": [
        {
          "internalType": "address",
          "name": "",
          "type": "address"
        }
      ],
      "stateMutability": "view",
      "type": "function"
    },
    {
      "inputs": [
        {
          "internalType": "bytes32",
          "name": "",
          "type": "bytes32"
        }
      ],
      "name": "nonce1Balance",
      "outputs": [
        {
          "internalType": "uint256",
          "name": "",
          "type": "uint256"
        }
      ],
      "stateMutability": "view",
      "type": "function"
    },
    {
      "inputs": [
        {
          "internalType": "bytes32",
          "name": "",
          "type": "bytes32"
        },
        {
          "internalType": "address",
          "name": "",
          "type": "address"
        },
        {
          "internalType": "address",
          "name": "",
          "type": "address"
        },
        {
          "internalType": "bytes",
          "name": "",
          "type": "bytes"
        },
        {
          "internalType": "bytes",
          "name": "",
          "type": "bytes"
        }
      ],
      "name": "onCreateTask",
      "outputs": [],
      "stateMutability": "nonpayable",
      "type": "function"
    },
    {
      "inputs": [
        {
          "internalType": "bytes32",
          "name": "taskId",
          "type": "bytes32"
        },
        {
          "internalType": "address",
          "name": "taskCreator",
          "type": "address"
        },
        {
          "internalType": "address",
          "name": "execAddress",
          "type": "address"
        },
        {
          "internalType": "bytes",
          "name": "execData",
          "type": "bytes"
        }
      ],
      "name": "postExecCall",
      "outputs": [],
      "stateMutability": "nonpayable",
      "type": "function"
    },
    {
      "inputs": [
        {
          "internalType": "bytes32",
          "name": "",
          "type": "bytes32"
        },
        {
          "internalType": "address",
          "name": "_taskCreator",
          "type": "address"
        }
      ],
      "name": "preCancelTask",
      "outputs": [
        {
          "internalType": "address",
          "name": "",
          "type": "address"
        }
      ],
      "stateMutability": "nonpayable",
      "type": "function"
    },
    {
      "inputs": [
        {
          "internalType": "address",
          "name": "_taskCreator",
          "type": "address"
        },
        {
          "internalType": "address",
          "name": "_execAddress",
          "type": "address"
        }
      ],
      "name": "preCreateTask",
      "outputs": [
        {
          "internalType": "address",
          "name": "",
          "type": "address"
        },
        {
          "internalType": "address",
          "name": "",
          "type": "address"
        }
      ],
      "stateMutability": "nonpayable",
      "type": "function"
    },
    {
      "inputs": [
        {
          "internalType": "bytes32",
          "name": "",
          "type": "bytes32"
        },
        {
          "internalType": "address",
          "name": "",
          "type": "address"
        },
        {
          "internalType": "address",
          "name": "_execAddress",
          "type": "address"
        },
        {
          "internalType": "bytes",
          "name": "_execData",
          "type": "bytes"
        }
      ],
      "name": "preExecCall",
      "outputs": [
        {
          "internalType": "address",
          "name": "",
          "type": "address"
        },
        {
          "internalType": "bytes",
          "name": "",
          "type": "bytes"
        }
      ],
      "stateMutability": "nonpayable",
      "type": "function"
    },
    {
      "inputs": [
        {
          "internalType": "bytes32",
          "name": "",
          "type": "bytes32"
        }
      ],
      "name": "taskCreator",
      "outputs": [
        {
          "internalType": "address",
          "name": "",
          "type": "address"
        }
      ],
      "stateMutability": "view",
      "type": "function"
    },
    {
      "inputs": [
        {
          "internalType": "enum LibDataTypes.Module",
          "name": "",
          "type": "uint8"
        }
      ],
      "name": "taskModuleAddresses",
      "outputs": [
        {
          "internalType": "address",
          "name": "",
          "type": "address"
        }
      ],
      "stateMutability": "view",
      "type": "function"
    },
    {
      "inputs": [
        {
          "internalType": "bytes32",
          "name": "",
          "type": "bytes32"
        }
      ],
      "name": "timedTask",
      "outputs": [
        {
          "internalType": "uint128",
          "name": "nextExec",
          "type": "uint128"
        },
        {
          "internalType": "uint128",
          "name": "interval",
          "type": "uint128"
        }
      ],
      "stateMutability": "view",
      "type": "function"
    }
  ],
  "transactionHash": "0x651fe833d11c7e9511243b43fc06cf316206e6a83e3205d7c06731788e0e2aaf",
  "args": [],
  "numDeployments": 1,
  "solcInputHash": "777eca0a3d318c9063ea80e69f3e08ab",
  "bytecode": "0x608060405234801561001057600080fd5b50610d19806100206000396000f3fe608060405234801561001057600080fd5b50600436106100ea5760003560e01c8063ac21631a1161008c578063b81cd86611610066578063b81cd86614610296578063c10304f7146102c7578063cd3d4fb9146102f8578063ddca3f4314610328576100ea565b8063ac21631a1461022e578063b0ccbdf01461025e578063b2db0b411461027a576100ea565b8063647846a5116100c8578063647846a51461017f5780636d2dd29f1461019d578063714d732f146101cd57806376474e6a146101fd576100ea565b806314ae9926146100ef5780631fc2d3d01461011f5780632e6e0bd01461014f575b600080fd5b6101096004803603810190610104919061064e565b610346565b604051610116919061069d565b60405180910390f35b61013960048036038101906101349190610700565b610351565b60405161014691906107d9565b60405180910390f35b610169600480360381019061016491906107fb565b6103a5565b604051610176919061069d565b60405180910390f35b6101876103d8565b604051610194919061069d565b60405180910390f35b6101b760048036038101906101b291906107fb565b6103fe565b6040516101c4919061069d565b60405180910390f35b6101e760048036038101906101e2919061088d565b610431565b6040516101f491906107d9565b60405180910390f35b610217600480360381019061021291906108da565b610485565b60405161022592919061091a565b60405180910390f35b610248600480360381019061024391906107fb565b610495565b604051610255919061095c565b60405180910390f35b610278600480360381019061027391906109cd565b6104ad565b005b610294600480360381019061028f9190610a89565b6104b6565b005b6102b060048036038101906102ab91906107fb565b6104bd565b6040516102be929190610b20565b60405180910390f35b6102e160048036038101906102dc9190610a89565b610519565b6040516102ef929190610b49565b60405180910390f35b610312600480360381019061030d9190610b9e565b610577565b60405161031f919061069d565b60405180910390f35b6103306105aa565b60405161033d919061095c565b60405180910390f35b600081905092915050565b606060008383604051602001610368929190610b20565b604051602081830303815290604052905060008160405160200161038d929190610c42565b60405160208183030381529060405291505092915050565b60006020528060005260406000206000915054906101000a900473ffffffffffffffffffffffffffffffffffffffff1681565b600460009054906101000a900473ffffffffffffffffffffffffffffffffffffffff1681565b60016020528060005260406000206000915054906101000a900473ffffffffffffffffffffffffffffffffffffffff1681565b606060008383604051602001610448929190610cbf565b604051602081830303815290604052905060018160405160200161046d929190610c42565b60405160208183030381529060405291505092915050565b6000808383915091509250929050565b60076020528060005260406000206000915090505481565b50505050505050565b5050505050565b60056020528060005260406000206000915090508060000160009054906101000a90046fffffffffffffffffffffffffffffffff16908060000160109054906101000a90046fffffffffffffffffffffffffffffffff16905082565b6000606084848481818080601f016020809104026020016040519081016040528093929190818152602001838380828437600081840152601f19601f8201169050808301925050505050505090509050915091509550959350505050565b60066020528060005260406000206000915054906101000a900473ffffffffffffffffffffffffffffffffffffffff1681565b60035481565b600080fd5b600080fd5b6000819050919050565b6105cd816105ba565b81146105d857600080fd5b50565b6000813590506105ea816105c4565b92915050565b600073ffffffffffffffffffffffffffffffffffffffff82169050919050565b600061061b826105f0565b9050919050565b61062b81610610565b811461063657600080fd5b50565b60008135905061064881610622565b92915050565b60008060408385031215610665576106646105b0565b5b6000610673858286016105db565b925050602061068485828601610639565b9150509250929050565b61069781610610565b82525050565b60006020820190506106b2600083018461068e565b92915050565b60006fffffffffffffffffffffffffffffffff82169050919050565b6106dd816106b8565b81146106e857600080fd5b50565b6000813590506106fa816106d4565b92915050565b60008060408385031215610717576107166105b0565b5b6000610725858286016106eb565b9250506020610736858286016106eb565b9150509250929050565b600081519050919050565b600082825260208201905092915050565b60005b8381101561077a57808201518184015260208101905061075f565b83811115610789576000848401525b50505050565b6000601f19601f8301169050919050565b60006107ab82610740565b6107b5818561074b565b93506107c581856020860161075c565b6107ce8161078f565b840191505092915050565b600060208201905081810360008301526107f381846107a0565b905092915050565b600060208284031215610811576108106105b0565b5b600061081f848285016105db565b91505092915050565b600080fd5b600080fd5b600080fd5b60008083601f84011261084d5761084c610828565b5b8235905067ffffffffffffffff81111561086a5761086961082d565b5b60208301915083600182028301111561088657610885610832565b5b9250929050565b600080602083850312156108a4576108a36105b0565b5b600083013567ffffffffffffffff8111156108c2576108c16105b5565b5b6108ce85828601610837565b92509250509250929050565b600080604083850312156108f1576108f06105b0565b5b60006108ff85828601610639565b925050602061091085828601610639565b9150509250929050565b600060408201905061092f600083018561068e565b61093c602083018461068e565b9392505050565b6000819050919050565b61095681610943565b82525050565b6000602082019050610971600083018461094d565b92915050565b60008083601f84011261098d5761098c610828565b5b8235905067ffffffffffffffff8111156109aa576109a961082d565b5b6020830191508360018202830111156109c6576109c5610832565b5b9250929050565b600080600080600080600060a0888a0312156109ec576109eb6105b0565b5b60006109fa8a828b016105db565b9750506020610a0b8a828b01610639565b9650506040610a1c8a828b01610639565b955050606088013567ffffffffffffffff811115610a3d57610a3c6105b5565b5b610a498a828b01610977565b9450945050608088013567ffffffffffffffff811115610a6c57610a6b6105b5565b5b610a788a828b01610977565b925092505092959891949750929550565b600080600080600060808688031215610aa557610aa46105b0565b5b6000610ab3888289016105db565b9550506020610ac488828901610639565b9450506040610ad588828901610639565b935050606086013567ffffffffffffffff811115610af657610af56105b5565b5b610b0288828901610977565b92509250509295509295909350565b610b1a816106b8565b82525050565b6000604082019050610b356000830185610b11565b610b426020830184610b11565b9392505050565b6000604082019050610b5e600083018561068e565b8181036020830152610b7081846107a0565b90509392505050565b60068110610b8657600080fd5b50565b600081359050610b9881610b79565b92915050565b600060208284031215610bb457610bb36105b0565b5b6000610bc284828501610b89565b91505092915050565b7f4e487b7100000000000000000000000000000000000000000000000000000000600052602160045260246000fd5b60028110610c0b57610c0a610bcb565b5b50565b6000819050610c1c82610bfa565b919050565b6000610c2c82610c0e565b9050919050565b610c3c81610c21565b82525050565b6000604082019050610c576000830185610c33565b8181036020830152610c6981846107a0565b90509392505050565b600082825260208201905092915050565b82818337600083830152505050565b6000610c9e8385610c72565b9350610cab838584610c83565b610cb48361078f565b840190509392505050565b60006020820190508181036000830152610cda818486610c92565b9050939250505056fea26469706673582212205979c89e36383aaa25e905df0a75a3c087cb2fec34f4406004f33c43903d071664736f6c634300080e0033",
  "devdoc": {
    "kind": "dev",
    "methods": {
      "encodeCronTriggerModuleArg(string)": {
        "params": {
          "_expression": "Cron expression"
        }
      },
      "encodeTimeTriggerModuleArg(uint128,uint128)": {
        "params": {
          "_interval": "Time interval between each execution.",
          "_start": "Time when the first execution should occur."
        }
      },
      "onCreateTask(bytes32,address,address,bytes,bytes)": {
        "params": {
          "execAddress": "Address of contract that should be called.",
          "execData": "Execution data to be called with / function selector if execution data is yet to be determined.",
          "initModuleArg": "Encoded arguments for module if any.",
          "taskCreator": "The address which created the task.",
          "taskId": "Unique hash of the task created."
        }
      },
      "postExecCall(bytes32,address,address,bytes)": {
        "params": {
          "execAddress": "Address of contract that should be called.",
          "execData": "Execution data to be called with / function selector if execution data is yet to be determined.",
          "taskCreator": "The address which created the task.",
          "taskId": "Unique hash of the task created."
        }
      },
      "preCancelTask(bytes32,address)": {
        "details": "Modules can override taskCreator.",
        "params": {
          "taskCreator": "The address which created the task.",
          "taskId": "Unique hash of the task created."
        },
        "returns": {
          "_0": "address Overriden or original taskCreator."
        }
      },
      "preCreateTask(address,address)": {
        "details": "Modules can override execAddress or taskCreator. {See ProxyModule-preCreateTask}",
        "params": {
          "execAddress": "Address of contract that should be called.",
          "taskCreator": "The address which created the task."
        },
        "returns": {
          "_0": "address Overriden or original taskCreator.",
          "_1": "address Overriden or original execAddress."
        }
      },
      "preExecCall(bytes32,address,address,bytes)": {
        "params": {
          "execAddress": "Address of contract that should be called.",
          "execData": "Execution data to be called with / function selector if execution data is yet to be determined.",
          "taskCreator": "The address which created the task.",
          "taskId": "Unique hash of the task created."
        },
        "returns": {
          "_0": "address Overriden or original execution address.",
          "_1": "bytes Overriden or original execution data."
        }
      }
    },
    "version": 1
  },
  "userdoc": {
    "kind": "user",
    "methods": {
      "encodeCronTriggerModuleArg(string)": {
        "notice": "Helper function to encode arguments for TriggerModule for Cron."
      },
      "encodeTimeTriggerModuleArg(uint128,uint128)": {
        "notice": "Helper function to encode arguments for TriggerModule for Timer."
      },
      "onCreateTask(bytes32,address,address,bytes,bytes)": {
        "notice": "Initiates task module whenever `createTask` is being called."
      },
      "postExecCall(bytes32,address,address,bytes)": {
        "notice": "Called during `exec` and after execAddress is called."
      },
      "preCancelTask(bytes32,address)": {
        "notice": "Called before taskId is removed from _createdTasks[]."
      },
      "preCreateTask(address,address)": {
        "notice": "Called before generating taskId."
      },
      "preExecCall(bytes32,address,address,bytes)": {
        "notice": "Called during `exec` and before execAddress is called."
      }
    },
    "version": 1
  },
  "storageLayout": {
    "storage": [
      {
        "astId": 2480,
        "contract": "contracts/taskModules/TriggerModule.sol:TriggerModule",
        "label": "taskCreator",
        "offset": 0,
        "slot": "0",
        "type": "t_mapping(t_bytes32,t_address)"
      },
      {
        "astId": 2485,
        "contract": "contracts/taskModules/TriggerModule.sol:TriggerModule",
        "label": "execAddresses",
        "offset": 0,
        "slot": "1",
        "type": "t_mapping(t_bytes32,t_address)"
      },
      {
        "astId": 2491,
        "contract": "contracts/taskModules/TriggerModule.sol:TriggerModule",
        "label": "_createdTasks",
        "offset": 0,
        "slot": "2",
        "type": "t_mapping(t_address,t_struct(Bytes32Set)1433_storage)"
      },
      {
        "astId": 2493,
        "contract": "contracts/taskModules/TriggerModule.sol:TriggerModule",
        "label": "fee",
        "offset": 0,
        "slot": "3",
        "type": "t_uint256"
      },
      {
        "astId": 2495,
        "contract": "contracts/taskModules/TriggerModule.sol:TriggerModule",
        "label": "feeToken",
        "offset": 0,
        "slot": "4",
        "type": "t_address"
      },
      {
        "astId": 2501,
        "contract": "contracts/taskModules/TriggerModule.sol:TriggerModule",
        "label": "timedTask",
        "offset": 0,
        "slot": "5",
        "type": "t_mapping(t_bytes32,t_struct(Time)5428_storage)"
      },
      {
        "astId": 2506,
        "contract": "contracts/taskModules/TriggerModule.sol:TriggerModule",
        "label": "taskModuleAddresses",
        "offset": 0,
        "slot": "6",
        "type": "t_mapping(t_enum(Module)5415,t_address)"
      },
      {
        "astId": 2510,
        "contract": "contracts/taskModules/TriggerModule.sol:TriggerModule",
        "label": "nonce1Balance",
        "offset": 0,
        "slot": "7",
        "type": "t_mapping(t_bytes32,t_uint256)"
      }
    ],
    "types": {
      "t_address": {
        "encoding": "inplace",
        "label": "address",
        "numberOfBytes": "20"
      },
      "t_array(t_bytes32)dyn_storage": {
        "base": "t_bytes32",
        "encoding": "dynamic_array",
        "label": "bytes32[]",
        "numberOfBytes": "32"
      },
      "t_bytes32": {
        "encoding": "inplace",
        "label": "bytes32",
        "numberOfBytes": "32"
      },
      "t_enum(Module)5415": {
        "encoding": "inplace",
        "label": "enum LibDataTypes.Module",
        "numberOfBytes": "1"
      },
      "t_mapping(t_address,t_struct(Bytes32Set)1433_storage)": {
        "encoding": "mapping",
        "key": "t_address",
        "label": "mapping(address => struct EnumerableSet.Bytes32Set)",
        "numberOfBytes": "32",
        "value": "t_struct(Bytes32Set)1433_storage"
      },
      "t_mapping(t_bytes32,t_address)": {
        "encoding": "mapping",
        "key": "t_bytes32",
        "label": "mapping(bytes32 => address)",
        "numberOfBytes": "32",
        "value": "t_address"
      },
      "t_mapping(t_bytes32,t_struct(Time)5428_storage)": {
        "encoding": "mapping",
        "key": "t_bytes32",
        "label": "mapping(bytes32 => struct LibDataTypes.Time)",
        "numberOfBytes": "32",
        "value": "t_struct(Time)5428_storage"
      },
      "t_mapping(t_bytes32,t_uint256)": {
        "encoding": "mapping",
        "key": "t_bytes32",
        "label": "mapping(bytes32 => uint256)",
        "numberOfBytes": "32",
        "value": "t_uint256"
      },
      "t_mapping(t_enum(Module)5415,t_address)": {
        "encoding": "mapping",
        "key": "t_enum(Module)5415",
        "label": "mapping(enum LibDataTypes.Module => address)",
        "numberOfBytes": "32",
        "value": "t_address"
      },
      "t_struct(Bytes32Set)1433_storage": {
        "encoding": "inplace",
        "label": "struct EnumerableSet.Bytes32Set",
        "members": [
          {
            "astId": 1432,
            "contract": "contracts/taskModules/TriggerModule.sol:TriggerModule",
            "label": "_inner",
            "offset": 0,
            "slot": "0",
            "type": "t_struct(Set)1239_storage"
          }
        ],
        "numberOfBytes": "64"
      },
      "t_struct(Set)1239_storage": {
        "encoding": "inplace",
        "label": "struct EnumerableSet.Set",
        "members": [
          {
            "astId": 1234,
            "contract": "contracts/taskModules/TriggerModule.sol:TriggerModule",
            "label": "_values",
            "offset": 0,
            "slot": "0",
            "type": "t_array(t_bytes32)dyn_storage"
          },
          {
            "astId": 1238,
            "contract": "contracts/taskModules/TriggerModule.sol:TriggerModule",
            "label": "_indexes",
            "offset": 0,
            "slot": "1",
            "type": "t_mapping(t_bytes32,t_uint256)"
          }
        ],
        "numberOfBytes": "64"
      },
      "t_struct(Time)5428_storage": {
        "encoding": "inplace",
        "label": "struct LibDataTypes.Time",
        "members": [
          {
            "astId": 5425,
            "contract": "contracts/taskModules/TriggerModule.sol:TriggerModule",
            "label": "nextExec",
            "offset": 0,
            "slot": "0",
            "type": "t_uint128"
          },
          {
            "astId": 5427,
            "contract": "contracts/taskModules/TriggerModule.sol:TriggerModule",
            "label": "interval",
            "offset": 16,
            "slot": "0",
            "type": "t_uint128"
          }
        ],
        "numberOfBytes": "32"
      },
      "t_uint128": {
        "encoding": "inplace",
        "label": "uint128",
        "numberOfBytes": "16"
      },
      "t_uint256": {
        "encoding": "inplace",
        "label": "uint256",
        "numberOfBytes": "32"
      }
    }
  }
}