{
  "address": "0xDe13771af71eFB856bc070319E3c14E827b56584",
  "abi": [
    {
      "inputs": [
        {
          "internalType": "address",
          "name": "_resolverAddress",
          "type": "address"
        },
        {
          "internalType": "bytes",
          "name": "_resolverData",
          "type": "bytes"
        }
      ],
      "name": "encodeModuleArg",
      "outputs": [
        {
          "internalType": "bytes",
          "name": "",
          "type": "bytes"
        }
      ],
      "stateMutability": "pure",
      "type": "function"
    },
    {
      "inputs": [
        {
          "internalType": "bytes32",
          "name": "",
          "type": "bytes32"
        }
      ],
      "name": "execAddresses",
      "outputs": [
        {
          "internalType": "address",
          "name": "",
          "type": "address"
        }
      ],
      "stateMutability": "view",
      "type": "function"
    },
    {
      "inputs": [],
      "name": "fee",
      "outputs": [
        {
          "internalType": "uint256",
          "name": "",
          "type": "uint256"
        }
      ],
      "stateMutability": "view",
      "type": "function"
    },
    {
      "inputs": [],
      "name": "feeToken",
      "outputs": [
        {
          "internalType": "address",
          "name": "",
          "type": "address"
        }
      ],
      "stateMutability": "view",
      "type": "function"
    },
    {
      "inputs": [
        {
          "internalType": "bytes32",
          "name": "",
          "type": "bytes32"
        },
        {
          "internalType": "address",
          "name": "",
          "type": "address"
        },
        {
          "internalType": "address",
          "name": "",
          "type": "address"
        },
        {
          "internalType": "bytes",
          "name": "",
          "type": "bytes"
        },
        {
          "internalType": "bytes",
          "name": "",
          "type": "bytes"
        }
      ],
      "name": "onCreateTask",
      "outputs": [],
      "stateMutability": "nonpayable",
      "type": "function"
    },
    {
      "inputs": [
        {
          "internalType": "bytes32",
          "name": "taskId",
          "type": "bytes32"
        },
        {
          "internalType": "address",
          "name": "taskCreator",
          "type": "address"
        },
        {
          "internalType": "address",
          "name": "execAddress",
          "type": "address"
        },
        {
          "internalType": "bytes",
          "name": "execData",
          "type": "bytes"
        }
      ],
      "name": "postExecCall",
      "outputs": [],
      "stateMutability": "nonpayable",
      "type": "function"
    },
    {
      "inputs": [
        {
          "internalType": "bytes32",
          "name": "",
          "type": "bytes32"
        },
        {
          "internalType": "address",
          "name": "_taskCreator",
          "type": "address"
        }
      ],
      "name": "preCancelTask",
      "outputs": [
        {
          "internalType": "address",
          "name": "",
          "type": "address"
        }
      ],
      "stateMutability": "nonpayable",
      "type": "function"
    },
    {
      "inputs": [
        {
          "internalType": "address",
          "name": "_taskCreator",
          "type": "address"
        },
        {
          "internalType": "address",
          "name": "_execAddress",
          "type": "address"
        }
      ],
      "name": "preCreateTask",
      "outputs": [
        {
          "internalType": "address",
          "name": "",
          "type": "address"
        },
        {
          "internalType": "address",
          "name": "",
          "type": "address"
        }
      ],
      "stateMutability": "nonpayable",
      "type": "function"
    },
    {
      "inputs": [
        {
          "internalType": "bytes32",
          "name": "",
          "type": "bytes32"
        },
        {
          "internalType": "address",
          "name": "",
          "type": "address"
        },
        {
          "internalType": "address",
          "name": "_execAddress",
          "type": "address"
        },
        {
          "internalType": "bytes",
          "name": "_execData",
          "type": "bytes"
        }
      ],
      "name": "preExecCall",
      "outputs": [
        {
          "internalType": "address",
          "name": "",
          "type": "address"
        },
        {
          "internalType": "bytes",
          "name": "",
          "type": "bytes"
        }
      ],
      "stateMutability": "nonpayable",
      "type": "function"
    },
    {
      "inputs": [
        {
          "internalType": "bytes32",
          "name": "",
          "type": "bytes32"
        }
      ],
      "name": "taskCreator",
      "outputs": [
        {
          "internalType": "address",
          "name": "",
          "type": "address"
        }
      ],
      "stateMutability": "view",
      "type": "function"
    },
    {
      "inputs": [
        {
          "internalType": "enum LibDataTypes.Module",
          "name": "",
          "type": "uint8"
        }
      ],
      "name": "taskModuleAddresses",
      "outputs": [
        {
          "internalType": "address",
          "name": "",
          "type": "address"
        }
      ],
      "stateMutability": "view",
      "type": "function"
    },
    {
      "inputs": [
        {
          "internalType": "bytes32",
          "name": "",
          "type": "bytes32"
        }
      ],
      "name": "timedTask",
      "outputs": [
        {
          "internalType": "uint128",
          "name": "nextExec",
          "type": "uint128"
        },
        {
          "internalType": "uint128",
          "name": "interval",
          "type": "uint128"
        }
      ],
      "stateMutability": "view",
      "type": "function"
    }
  ],
  "transactionHash": "0xeb470c07680fb68979b0b41a063c1a9ea11efb074de9377035f7ae02bad3cadb",
  "args": [],
  "numDeployments": 1,
  "solcInputHash": "46e05d039a6f051c260568df03bedd4f",
  "bytecode": "0x608060405234801561001057600080fd5b50610a99806100206000396000f3fe608060405234801561001057600080fd5b50600436106100b45760003560e01c8063b0ccbdf011610071578063b0ccbdf0146101c8578063b2db0b41146101e4578063b81cd86614610200578063c10304f714610231578063cd3d4fb914610262578063ddca3f4314610292576100b4565b806314ae9926146100b95780632e6e0bd0146100e95780633c706c6f14610119578063647846a5146101495780636d2dd29f1461016757806376474e6a14610197575b600080fd5b6100d360048036038101906100ce9190610527565b6102b0565b6040516100e09190610576565b60405180910390f35b61010360048036038101906100fe9190610591565b6102bb565b6040516101109190610576565b60405180910390f35b610133600480360381019061012e9190610623565b6102ee565b604051610140919061071c565b60405180910390f35b61015161031d565b60405161015e9190610576565b60405180910390f35b610181600480360381019061017c9190610591565b610343565b60405161018e9190610576565b60405180910390f35b6101b160048036038101906101ac919061073e565b610376565b6040516101bf92919061077e565b60405180910390f35b6101e260048036038101906101dd91906107a7565b610386565b005b6101fe60048036038101906101f99190610863565b61038f565b005b61021a60048036038101906102159190610591565b610396565b604051610228929190610916565b60405180910390f35b61024b60048036038101906102469190610863565b6103f2565b60405161025992919061093f565b60405180910390f35b61027c60048036038101906102779190610994565b610450565b6040516102899190610576565b60405180910390f35b61029a610483565b6040516102a791906109da565b60405180910390f35b600081905092915050565b60006020528060005260406000206000915054906101000a900473ffffffffffffffffffffffffffffffffffffffff1681565b606083838360405160200161030593929190610a31565b60405160208183030381529060405290509392505050565b600460009054906101000a900473ffffffffffffffffffffffffffffffffffffffff1681565b60016020528060005260406000206000915054906101000a900473ffffffffffffffffffffffffffffffffffffffff1681565b6000808383915091509250929050565b50505050505050565b5050505050565b60056020528060005260406000206000915090508060000160009054906101000a90046fffffffffffffffffffffffffffffffff16908060000160109054906101000a90046fffffffffffffffffffffffffffffffff16905082565b6000606084848481818080601f016020809104026020016040519081016040528093929190818152602001838380828437600081840152601f19601f8201169050808301925050505050505090509050915091509550959350505050565b60066020528060005260406000206000915054906101000a900473ffffffffffffffffffffffffffffffffffffffff1681565b60035481565b600080fd5b600080fd5b6000819050919050565b6104a681610493565b81146104b157600080fd5b50565b6000813590506104c38161049d565b92915050565b600073ffffffffffffffffffffffffffffffffffffffff82169050919050565b60006104f4826104c9565b9050919050565b610504816104e9565b811461050f57600080fd5b50565b600081359050610521816104fb565b92915050565b6000806040838503121561053e5761053d610489565b5b600061054c858286016104b4565b925050602061055d85828601610512565b9150509250929050565b610570816104e9565b82525050565b600060208201905061058b6000830184610567565b92915050565b6000602082840312156105a7576105a6610489565b5b60006105b5848285016104b4565b91505092915050565b600080fd5b600080fd5b600080fd5b60008083601f8401126105e3576105e26105be565b5b8235905067ffffffffffffffff811115610600576105ff6105c3565b5b60208301915083600182028301111561061c5761061b6105c8565b5b9250929050565b60008060006040848603121561063c5761063b610489565b5b600061064a86828701610512565b935050602084013567ffffffffffffffff81111561066b5761066a61048e565b5b610677868287016105cd565b92509250509250925092565b600081519050919050565b600082825260208201905092915050565b60005b838110156106bd5780820151818401526020810190506106a2565b838111156106cc576000848401525b50505050565b6000601f19601f8301169050919050565b60006106ee82610683565b6106f8818561068e565b935061070881856020860161069f565b610711816106d2565b840191505092915050565b6000602082019050818103600083015261073681846106e3565b905092915050565b6000806040838503121561075557610754610489565b5b600061076385828601610512565b925050602061077485828601610512565b9150509250929050565b60006040820190506107936000830185610567565b6107a06020830184610567565b9392505050565b600080600080600080600060a0888a0312156107c6576107c5610489565b5b60006107d48a828b016104b4565b97505060206107e58a828b01610512565b96505060406107f68a828b01610512565b955050606088013567ffffffffffffffff8111156108175761081661048e565b5b6108238a828b016105cd565b9450945050608088013567ffffffffffffffff8111156108465761084561048e565b5b6108528a828b016105cd565b925092505092959891949750929550565b60008060008060006080868803121561087f5761087e610489565b5b600061088d888289016104b4565b955050602061089e88828901610512565b94505060406108af88828901610512565b935050606086013567ffffffffffffffff8111156108d0576108cf61048e565b5b6108dc888289016105cd565b92509250509295509295909350565b60006fffffffffffffffffffffffffffffffff82169050919050565b610910816108eb565b82525050565b600060408201905061092b6000830185610907565b6109386020830184610907565b9392505050565b60006040820190506109546000830185610567565b818103602083015261096681846106e3565b90509392505050565b6004811061097c57600080fd5b50565b60008135905061098e8161096f565b92915050565b6000602082840312156109aa576109a9610489565b5b60006109b88482850161097f565b91505092915050565b6000819050919050565b6109d4816109c1565b82525050565b60006020820190506109ef60008301846109cb565b92915050565b82818337600083830152505050565b6000610a10838561068e565b9350610a1d8385846109f5565b610a26836106d2565b840190509392505050565b6000604082019050610a466000830186610567565b8181036020830152610a59818486610a04565b905094935050505056fea26469706673582212201f5a09021ff85e281fe8b529a53d93ea3a5f8260a2aaeb757c878ad14587e13a64736f6c634300080e0033",
  "devdoc": {
    "kind": "dev",
    "methods": {
      "encodeModuleArg(address,bytes)": {
        "params": {
          "_resolverAddress": "Address of resolver.",
          "_resolverData": "Data passed to resolver."
        }
      },
      "onCreateTask(bytes32,address,address,bytes,bytes)": {
        "params": {
          "execAddress": "Address of contract that should be called.",
          "execData": "Execution data to be called with / function selector if execution data is yet to be determined.",
          "initModuleArg": "Encoded arguments for module if any.",
          "taskCreator": "The address which created the task.",
          "taskId": "Unique hash of the task created."
        }
      },
      "postExecCall(bytes32,address,address,bytes)": {
        "params": {
          "execAddress": "Address of contract that should be called.",
          "execData": "Execution data to be called with / function selector if execution data is yet to be determined.",
          "taskCreator": "The address which created the task.",
          "taskId": "Unique hash of the task created."
        }
      },
      "preCancelTask(bytes32,address)": {
        "details": "Modules can override taskCreator.",
        "params": {
          "taskCreator": "The address which created the task.",
          "taskId": "Unique hash of the task created."
        },
        "returns": {
          "_0": "address Overriden or original taskCreator."
        }
      },
      "preCreateTask(address,address)": {
        "details": "Modules can override execAddress or taskCreator. {See ProxyModule-preCreateTask}",
        "params": {
          "execAddress": "Address of contract that should be called.",
          "taskCreator": "The address which created the task."
        },
        "returns": {
          "_0": "address Overriden or original taskCreator.",
          "_1": "address Overriden or original execAddress."
        }
      },
      "preExecCall(bytes32,address,address,bytes)": {
        "params": {
          "execAddress": "Address of contract that should be called.",
          "execData": "Execution data to be called with / function selector if execution data is yet to be determined.",
          "taskCreator": "The address which created the task.",
          "taskId": "Unique hash of the task created."
        },
        "returns": {
          "_0": "address Overriden or original execution address.",
          "_1": "bytes Overriden or original execution data."
        }
      }
    },
    "version": 1
  },
  "userdoc": {
    "kind": "user",
    "methods": {
      "encodeModuleArg(address,bytes)": {
        "notice": "Helper function to encode arguments for ResolverModule."
      },
      "onCreateTask(bytes32,address,address,bytes,bytes)": {
        "notice": "Initiates task module whenever `createTask` is being called."
      },
      "postExecCall(bytes32,address,address,bytes)": {
        "notice": "Called during `exec` and after execAddress is called."
      },
      "preCancelTask(bytes32,address)": {
        "notice": "Called before taskId is removed from _createdTasks[]."
      },
      "preCreateTask(address,address)": {
        "notice": "Called before generating taskId."
      },
      "preExecCall(bytes32,address,address,bytes)": {
        "notice": "Called during `exec` and before execAddress is called."
      }
    },
    "version": 1
  },
  "storageLayout": {
    "storage": [
      {
        "astId": 2351,
        "contract": "contracts/taskModules/ResolverModule.sol:ResolverModule",
        "label": "taskCreator",
        "offset": 0,
        "slot": "0",
        "type": "t_mapping(t_bytes32,t_address)"
      },
      {
        "astId": 2356,
        "contract": "contracts/taskModules/ResolverModule.sol:ResolverModule",
        "label": "execAddresses",
        "offset": 0,
        "slot": "1",
        "type": "t_mapping(t_bytes32,t_address)"
      },
      {
        "astId": 2362,
        "contract": "contracts/taskModules/ResolverModule.sol:ResolverModule",
        "label": "_createdTasks",
        "offset": 0,
        "slot": "2",
        "type": "t_mapping(t_address,t_struct(Bytes32Set)1433_storage)"
      },
      {
        "astId": 2364,
        "contract": "contracts/taskModules/ResolverModule.sol:ResolverModule",
        "label": "fee",
        "offset": 0,
        "slot": "3",
        "type": "t_uint256"
      },
      {
        "astId": 2366,
        "contract": "contracts/taskModules/ResolverModule.sol:ResolverModule",
        "label": "feeToken",
        "offset": 0,
        "slot": "4",
        "type": "t_address"
      },
      {
        "astId": 2372,
        "contract": "contracts/taskModules/ResolverModule.sol:ResolverModule",
        "label": "timedTask",
        "offset": 0,
        "slot": "5",
        "type": "t_mapping(t_bytes32,t_struct(Time)3569_storage)"
      },
      {
        "astId": 2377,
        "contract": "contracts/taskModules/ResolverModule.sol:ResolverModule",
        "label": "taskModuleAddresses",
        "offset": 0,
        "slot": "6",
        "type": "t_mapping(t_enum(Module)3556,t_address)"
      }
    ],
    "types": {
      "t_address": {
        "encoding": "inplace",
        "label": "address",
        "numberOfBytes": "20"
      },
      "t_array(t_bytes32)dyn_storage": {
        "base": "t_bytes32",
        "encoding": "dynamic_array",
        "label": "bytes32[]",
        "numberOfBytes": "32"
      },
      "t_bytes32": {
        "encoding": "inplace",
        "label": "bytes32",
        "numberOfBytes": "32"
      },
      "t_enum(Module)3556": {
        "encoding": "inplace",
        "label": "enum LibDataTypes.Module",
        "numberOfBytes": "1"
      },
      "t_mapping(t_address,t_struct(Bytes32Set)1433_storage)": {
        "encoding": "mapping",
        "key": "t_address",
        "label": "mapping(address => struct EnumerableSet.Bytes32Set)",
        "numberOfBytes": "32",
        "value": "t_struct(Bytes32Set)1433_storage"
      },
      "t_mapping(t_bytes32,t_address)": {
        "encoding": "mapping",
        "key": "t_bytes32",
        "label": "mapping(bytes32 => address)",
        "numberOfBytes": "32",
        "value": "t_address"
      },
      "t_mapping(t_bytes32,t_struct(Time)3569_storage)": {
        "encoding": "mapping",
        "key": "t_bytes32",
        "label": "mapping(bytes32 => struct LibDataTypes.Time)",
        "numberOfBytes": "32",
        "value": "t_struct(Time)3569_storage"
      },
      "t_mapping(t_bytes32,t_uint256)": {
        "encoding": "mapping",
        "key": "t_bytes32",
        "label": "mapping(bytes32 => uint256)",
        "numberOfBytes": "32",
        "value": "t_uint256"
      },
      "t_mapping(t_enum(Module)3556,t_address)": {
        "encoding": "mapping",
        "key": "t_enum(Module)3556",
        "label": "mapping(enum LibDataTypes.Module => address)",
        "numberOfBytes": "32",
        "value": "t_address"
      },
      "t_struct(Bytes32Set)1433_storage": {
        "encoding": "inplace",
        "label": "struct EnumerableSet.Bytes32Set",
        "members": [
          {
            "astId": 1432,
            "contract": "contracts/taskModules/ResolverModule.sol:ResolverModule",
            "label": "_inner",
            "offset": 0,
            "slot": "0",
            "type": "t_struct(Set)1239_storage"
          }
        ],
        "numberOfBytes": "64"
      },
      "t_struct(Set)1239_storage": {
        "encoding": "inplace",
        "label": "struct EnumerableSet.Set",
        "members": [
          {
            "astId": 1234,
            "contract": "contracts/taskModules/ResolverModule.sol:ResolverModule",
            "label": "_values",
            "offset": 0,
            "slot": "0",
            "type": "t_array(t_bytes32)dyn_storage"
          },
          {
            "astId": 1238,
            "contract": "contracts/taskModules/ResolverModule.sol:ResolverModule",
            "label": "_indexes",
            "offset": 0,
            "slot": "1",
            "type": "t_mapping(t_bytes32,t_uint256)"
          }
        ],
        "numberOfBytes": "64"
      },
      "t_struct(Time)3569_storage": {
        "encoding": "inplace",
        "label": "struct LibDataTypes.Time",
        "members": [
          {
            "astId": 3566,
            "contract": "contracts/taskModules/ResolverModule.sol:ResolverModule",
            "label": "nextExec",
            "offset": 0,
            "slot": "0",
            "type": "t_uint128"
          },
          {
            "astId": 3568,
            "contract": "contracts/taskModules/ResolverModule.sol:ResolverModule",
            "label": "interval",
            "offset": 16,
            "slot": "0",
            "type": "t_uint128"
          }
        ],
        "numberOfBytes": "32"
      },
      "t_uint128": {
        "encoding": "inplace",
        "label": "uint128",
        "numberOfBytes": "16"
      },
      "t_uint256": {
        "encoding": "inplace",
        "label": "uint256",
        "numberOfBytes": "32"
      }
    }
  }
}