{
  "address": "0xa2Cb32faA843BdEebc89C26868ee45085C854fA1",
  "abi": [
    {
      "inputs": [
        {
          "internalType": "address",
          "name": "_startTime",
          "type": "address"
        },
        {
          "internalType": "bytes",
          "name": "_interval",
          "type": "bytes"
        }
      ],
      "name": "encodeModuleArg",
      "outputs": [
        {
          "internalType": "bytes",
          "name": "",
          "type": "bytes"
        }
      ],
      "stateMutability": "pure",
      "type": "function"
    },
    {
      "inputs": [
        {
          "internalType": "bytes32",
          "name": "",
          "type": "bytes32"
        }
      ],
      "name": "execAddresses",
      "outputs": [
        {
          "internalType": "address",
          "name": "",
          "type": "address"
        }
      ],
      "stateMutability": "view",
      "type": "function"
    },
    {
      "inputs": [],
      "name": "fee",
      "outputs": [
        {
          "internalType": "uint256",
          "name": "",
          "type": "uint256"
        }
      ],
      "stateMutability": "view",
      "type": "function"
    },
    {
      "inputs": [],
      "name": "feeToken",
      "outputs": [
        {
          "internalType": "address",
          "name": "",
          "type": "address"
        }
      ],
      "stateMutability": "view",
      "type": "function"
    },
    {
      "inputs": [
        {
          "internalType": "bytes32",
          "name": "_taskId",
          "type": "bytes32"
        },
        {
          "internalType": "address",
          "name": "",
          "type": "address"
        },
        {
          "internalType": "address",
          "name": "",
          "type": "address"
        },
        {
          "internalType": "bytes",
          "name": "",
          "type": "bytes"
        },
        {
          "internalType": "bytes",
          "name": "_arg",
          "type": "bytes"
        }
      ],
      "name": "onCreateTask",
      "outputs": [],
      "stateMutability": "nonpayable",
      "type": "function"
    },
    {
      "inputs": [
        {
          "internalType": "bytes32",
          "name": "taskId",
          "type": "bytes32"
        },
        {
          "internalType": "address",
          "name": "taskCreator",
          "type": "address"
        },
        {
          "internalType": "address",
          "name": "execAddress",
          "type": "address"
        },
        {
          "internalType": "bytes",
          "name": "execData",
          "type": "bytes"
        }
      ],
      "name": "postExecCall",
      "outputs": [],
      "stateMutability": "nonpayable",
      "type": "function"
    },
    {
      "inputs": [
        {
          "internalType": "bytes32",
          "name": "_taskId",
          "type": "bytes32"
        },
        {
          "internalType": "address",
          "name": "_taskCreator",
          "type": "address"
        }
      ],
      "name": "preCancelTask",
      "outputs": [
        {
          "internalType": "address",
          "name": "",
          "type": "address"
        }
      ],
      "stateMutability": "nonpayable",
      "type": "function"
    },
    {
      "inputs": [
        {
          "internalType": "address",
          "name": "_taskCreator",
          "type": "address"
        },
        {
          "internalType": "address",
          "name": "_execAddress",
          "type": "address"
        }
      ],
      "name": "preCreateTask",
      "outputs": [
        {
          "internalType": "address",
          "name": "",
          "type": "address"
        },
        {
          "internalType": "address",
          "name": "",
          "type": "address"
        }
      ],
      "stateMutability": "nonpayable",
      "type": "function"
    },
    {
      "inputs": [
        {
          "internalType": "bytes32",
          "name": "_taskId",
          "type": "bytes32"
        },
        {
          "internalType": "address",
          "name": "",
          "type": "address"
        },
        {
          "internalType": "address",
          "name": "_execAddress",
          "type": "address"
        },
        {
          "internalType": "bytes",
          "name": "_execData",
          "type": "bytes"
        }
      ],
      "name": "preExecCall",
      "outputs": [
        {
          "internalType": "address",
          "name": "",
          "type": "address"
        },
        {
          "internalType": "bytes",
          "name": "",
          "type": "bytes"
        }
      ],
      "stateMutability": "nonpayable",
      "type": "function"
    },
    {
      "inputs": [
        {
          "internalType": "bytes32",
          "name": "",
          "type": "bytes32"
        }
      ],
      "name": "taskCreator",
      "outputs": [
        {
          "internalType": "address",
          "name": "",
          "type": "address"
        }
      ],
      "stateMutability": "view",
      "type": "function"
    },
    {
      "inputs": [
        {
          "internalType": "enum LibDataTypes.Module",
          "name": "",
          "type": "uint8"
        }
      ],
      "name": "taskModuleAddresses",
      "outputs": [
        {
          "internalType": "address",
          "name": "",
          "type": "address"
        }
      ],
      "stateMutability": "view",
      "type": "function"
    },
    {
      "inputs": [
        {
          "internalType": "bytes32",
          "name": "",
          "type": "bytes32"
        }
      ],
      "name": "timedTask",
      "outputs": [
        {
          "internalType": "uint128",
          "name": "nextExec",
          "type": "uint128"
        },
        {
          "internalType": "uint128",
          "name": "interval",
          "type": "uint128"
        }
      ],
      "stateMutability": "view",
      "type": "function"
    }
  ],
  "transactionHash": "0x7421908b7adcb3129e536fc2f75d9e83822d653b16387f46ca3481d2945cf153",
  "args": [],
  "numDeployments": 1,
  "solcInputHash": "46e05d039a6f051c260568df03bedd4f",
  "bytecode": "0x608060405234801561001057600080fd5b50611094806100206000396000f3fe608060405234801561001057600080fd5b50600436106100b45760003560e01c8063b0ccbdf011610071578063b0ccbdf0146101c8578063b2db0b41146101e4578063b81cd86614610200578063c10304f714610231578063cd3d4fb914610262578063ddca3f4314610292576100b4565b806314ae9926146100b95780632e6e0bd0146100e95780633c706c6f14610119578063647846a5146101495780636d2dd29f1461016757806376474e6a14610197575b600080fd5b6100d360048036038101906100ce91906108e6565b6102b0565b6040516100e09190610935565b60405180910390f35b61010360048036038101906100fe9190610950565b610317565b6040516101109190610935565b60405180910390f35b610133600480360381019061012e91906109e2565b61034a565b6040516101409190610adb565b60405180910390f35b610151610379565b60405161015e9190610935565b60405180910390f35b610181600480360381019061017c9190610950565b61039f565b60405161018e9190610935565b60405180910390f35b6101b160048036038101906101ac9190610afd565b6103d2565b6040516101bf929190610b3d565b60405180910390f35b6101e260048036038101906101dd9190610b66565b6103e2565b005b6101fe60048036038101906101f99190610c22565b610544565b005b61021a60048036038101906102159190610950565b61054b565b604051610228929190610cd5565b60405180910390f35b61024b60048036038101906102469190610c22565b6105a7565b604051610259929190610cfe565b60405180910390f35b61027c60048036038101906102779190610d53565b6107ee565b6040516102899190610935565b60405180910390f35b61029a610821565b6040516102a79190610d99565b60405180910390f35b600060056000848152602001908152602001600020600080820160006101000a8154906fffffffffffffffffffffffffffffffff02191690556000820160106101000a8154906fffffffffffffffffffffffffffffffff0219169055505081905092915050565b60006020528060005260406000206000915054906101000a900473ffffffffffffffffffffffffffffffffffffffff1681565b606083838360405160200161036193929190610df0565b60405160208183030381529060405290509392505050565b600460009054906101000a900473ffffffffffffffffffffffffffffffffffffffff1681565b60016020528060005260406000206000915054906101000a900473ffffffffffffffffffffffffffffffffffffffff1681565b6000808383915091509250929050565b6000806103ef8484610827565b91509150600042836fffffffffffffffffffffffffffffffff16116104145742610416565b825b90506040518060400160405280826fffffffffffffffffffffffffffffffff168152602001836fffffffffffffffffffffffffffffffff16815250600560008c815260200190815260200160002060008201518160000160006101000a8154816fffffffffffffffffffffffffffffffff02191690836fffffffffffffffffffffffffffffffff16021790555060208201518160000160106101000a8154816fffffffffffffffffffffffffffffffff02191690836fffffffffffffffffffffffffffffffff160217905550905050816fffffffffffffffffffffffffffffffff16816fffffffffffffffffffffffffffffffff168b7f857791ec95701b6fff966bff1b5ce9a86107aeabaf6d2fdfd89993aa0f084e3760405160405180910390a450505050505050505050565b5050505050565b60056020528060005260406000206000915090508060000160009054906101000a90046fffffffffffffffffffffffffffffffff16908060000160109054906101000a90046fffffffffffffffffffffffffffffffff16905082565b600060606000600560008981526020019081526020016000206040518060400160405290816000820160009054906101000a90046fffffffffffffffffffffffffffffffff166fffffffffffffffffffffffffffffffff166fffffffffffffffffffffffffffffffff1681526020016000820160109054906101000a90046fffffffffffffffffffffffffffffffff166fffffffffffffffffffffffffffffffff166fffffffffffffffffffffffffffffffff1681525050905060008082600001516fffffffffffffffffffffffffffffffff1614159050801561079257426fffffffffffffffffffffffffffffffff1682600001516fffffffffffffffffffffffffffffffff1611156106f0576040517f08c379a00000000000000000000000000000000000000000000000000000000081526004016106e790610e7f565b60405180910390fd5b60008260000151426107029190610ece565b9050600060018460200151836107189190610f31565b6107229190610f62565b90508360200151816107349190610fa8565b84600001516107439190610f62565b600560008d815260200190815260200160002060000160006101000a8154816fffffffffffffffffffffffffffffffff02191690836fffffffffffffffffffffffffffffffff16021790555050505b86868681818080601f016020809104026020016040519081016040528093929190818152602001838380828437600081840152601f19601f82011690508083019250505050505050905090509350935050509550959350505050565b60066020528060005260406000206000915054906101000a900473ffffffffffffffffffffffffffffffffffffffff1681565b60035481565b6000808383810190610839919061101e565b80925081935050509250929050565b600080fd5b600080fd5b6000819050919050565b61086581610852565b811461087057600080fd5b50565b6000813590506108828161085c565b92915050565b600073ffffffffffffffffffffffffffffffffffffffff82169050919050565b60006108b382610888565b9050919050565b6108c3816108a8565b81146108ce57600080fd5b50565b6000813590506108e0816108ba565b92915050565b600080604083850312156108fd576108fc610848565b5b600061090b85828601610873565b925050602061091c858286016108d1565b9150509250929050565b61092f816108a8565b82525050565b600060208201905061094a6000830184610926565b92915050565b60006020828403121561096657610965610848565b5b600061097484828501610873565b91505092915050565b600080fd5b600080fd5b600080fd5b60008083601f8401126109a2576109a161097d565b5b8235905067ffffffffffffffff8111156109bf576109be610982565b5b6020830191508360018202830111156109db576109da610987565b5b9250929050565b6000806000604084860312156109fb576109fa610848565b5b6000610a09868287016108d1565b935050602084013567ffffffffffffffff811115610a2a57610a2961084d565b5b610a368682870161098c565b92509250509250925092565b600081519050919050565b600082825260208201905092915050565b60005b83811015610a7c578082015181840152602081019050610a61565b83811115610a8b576000848401525b50505050565b6000601f19601f8301169050919050565b6000610aad82610a42565b610ab78185610a4d565b9350610ac7818560208601610a5e565b610ad081610a91565b840191505092915050565b60006020820190508181036000830152610af58184610aa2565b905092915050565b60008060408385031215610b1457610b13610848565b5b6000610b22858286016108d1565b9250506020610b33858286016108d1565b9150509250929050565b6000604082019050610b526000830185610926565b610b5f6020830184610926565b9392505050565b600080600080600080600060a0888a031215610b8557610b84610848565b5b6000610b938a828b01610873565b9750506020610ba48a828b016108d1565b9650506040610bb58a828b016108d1565b955050606088013567ffffffffffffffff811115610bd657610bd561084d565b5b610be28a828b0161098c565b9450945050608088013567ffffffffffffffff811115610c0557610c0461084d565b5b610c118a828b0161098c565b925092505092959891949750929550565b600080600080600060808688031215610c3e57610c3d610848565b5b6000610c4c88828901610873565b9550506020610c5d888289016108d1565b9450506040610c6e888289016108d1565b935050606086013567ffffffffffffffff811115610c8f57610c8e61084d565b5b610c9b8882890161098c565b92509250509295509295909350565b60006fffffffffffffffffffffffffffffffff82169050919050565b610ccf81610caa565b82525050565b6000604082019050610cea6000830185610cc6565b610cf76020830184610cc6565b9392505050565b6000604082019050610d136000830185610926565b8181036020830152610d258184610aa2565b90509392505050565b60048110610d3b57600080fd5b50565b600081359050610d4d81610d2e565b92915050565b600060208284031215610d6957610d68610848565b5b6000610d7784828501610d3e565b91505092915050565b6000819050919050565b610d9381610d80565b82525050565b6000602082019050610dae6000830184610d8a565b92915050565b82818337600083830152505050565b6000610dcf8385610a4d565b9350610ddc838584610db4565b610de583610a91565b840190509392505050565b6000604082019050610e056000830186610926565b8181036020830152610e18818486610dc3565b9050949350505050565b600082825260208201905092915050565b7f54696d654d6f64756c653a20546f6f206561726c790000000000000000000000600082015250565b6000610e69601583610e22565b9150610e7482610e33565b602082019050919050565b60006020820190508181036000830152610e9881610e5c565b9050919050565b7f4e487b7100000000000000000000000000000000000000000000000000000000600052601160045260246000fd5b6000610ed982610caa565b9150610ee483610caa565b925082821015610ef757610ef6610e9f565b5b828203905092915050565b7f4e487b7100000000000000000000000000000000000000000000000000000000600052601260045260246000fd5b6000610f3c82610caa565b9150610f4783610caa565b925082610f5757610f56610f02565b5b828204905092915050565b6000610f6d82610caa565b9150610f7883610caa565b9250826fffffffffffffffffffffffffffffffff03821115610f9d57610f9c610e9f565b5b828201905092915050565b6000610fb382610caa565b9150610fbe83610caa565b9250816fffffffffffffffffffffffffffffffff0483118215151615610fe757610fe6610e9f565b5b828202905092915050565b610ffb81610caa565b811461100657600080fd5b50565b60008135905061101881610ff2565b92915050565b6000806040838503121561103557611034610848565b5b600061104385828601611009565b925050602061105485828601611009565b915050925092905056fea264697066735822122001beeb4690d5307ac6e521d1448bf806a103fe90de97fd676dd48fcaa75b77e964736f6c634300080e0033",
  "devdoc": {
    "kind": "dev",
    "methods": {
      "encodeModuleArg(address,bytes)": {
        "params": {
          "_interval": "Time interval between each execution.",
          "_startTime": "Time when the first execution should occur."
        }
      },
      "onCreateTask(bytes32,address,address,bytes,bytes)": {
        "params": {
          "execAddress": "Address of contract that should be called.",
          "execData": "Execution data to be called with / function selector if execution data is yet to be determined.",
          "initModuleArg": "Encoded arguments for module if any.",
          "taskCreator": "The address which created the task.",
          "taskId": "Unique hash of the task created."
        }
      },
      "postExecCall(bytes32,address,address,bytes)": {
        "params": {
          "execAddress": "Address of contract that should be called.",
          "execData": "Execution data to be called with / function selector if execution data is yet to be determined.",
          "taskCreator": "The address which created the task.",
          "taskId": "Unique hash of the task created."
        }
      },
      "preCreateTask(address,address)": {
        "details": "Modules can override execAddress or taskCreator. {See ProxyModule-preCreateTask}",
        "params": {
          "execAddress": "Address of contract that should be called.",
          "taskCreator": "The address which created the task."
        },
        "returns": {
          "_0": "address Overriden or original taskCreator.",
          "_1": "address Overriden or original execAddress."
        }
      },
      "preExecCall(bytes32,address,address,bytes)": {
        "details": "Time is updated at preExec because if SingleExec is used concurrently, it will delete timedTask.",
        "params": {
          "execAddress": "Address of contract that should be called.",
          "execData": "Execution data to be called with / function selector if execution data is yet to be determined.",
          "taskCreator": "The address which created the task.",
          "taskId": "Unique hash of the task created."
        },
        "returns": {
          "_0": "address Overriden or original execution address.",
          "_1": "bytes Overriden or original execution data."
        }
      }
    },
    "version": 1
  },
  "userdoc": {
    "kind": "user",
    "methods": {
      "encodeModuleArg(address,bytes)": {
        "notice": "Helper function to encode arguments for TimeModule."
      },
      "onCreateTask(bytes32,address,address,bytes,bytes)": {
        "notice": "Initiates task module whenever `createTask` is being called."
      },
      "postExecCall(bytes32,address,address,bytes)": {
        "notice": "Called during `exec` and after execAddress is called."
      },
      "preCreateTask(address,address)": {
        "notice": "Called before generating taskId."
      },
      "preExecCall(bytes32,address,address,bytes)": {
        "notice": "Called during `exec` and before execAddress is called."
      }
    },
    "version": 1
  },
  "storageLayout": {
    "storage": [
      {
        "astId": 2351,
        "contract": "contracts/taskModules/TimeModule.sol:TimeModule",
        "label": "taskCreator",
        "offset": 0,
        "slot": "0",
        "type": "t_mapping(t_bytes32,t_address)"
      },
      {
        "astId": 2356,
        "contract": "contracts/taskModules/TimeModule.sol:TimeModule",
        "label": "execAddresses",
        "offset": 0,
        "slot": "1",
        "type": "t_mapping(t_bytes32,t_address)"
      },
      {
        "astId": 2362,
        "contract": "contracts/taskModules/TimeModule.sol:TimeModule",
        "label": "_createdTasks",
        "offset": 0,
        "slot": "2",
        "type": "t_mapping(t_address,t_struct(Bytes32Set)1433_storage)"
      },
      {
        "astId": 2364,
        "contract": "contracts/taskModules/TimeModule.sol:TimeModule",
        "label": "fee",
        "offset": 0,
        "slot": "3",
        "type": "t_uint256"
      },
      {
        "astId": 2366,
        "contract": "contracts/taskModules/TimeModule.sol:TimeModule",
        "label": "feeToken",
        "offset": 0,
        "slot": "4",
        "type": "t_address"
      },
      {
        "astId": 2372,
        "contract": "contracts/taskModules/TimeModule.sol:TimeModule",
        "label": "timedTask",
        "offset": 0,
        "slot": "5",
        "type": "t_mapping(t_bytes32,t_struct(Time)3569_storage)"
      },
      {
        "astId": 2377,
        "contract": "contracts/taskModules/TimeModule.sol:TimeModule",
        "label": "taskModuleAddresses",
        "offset": 0,
        "slot": "6",
        "type": "t_mapping(t_enum(Module)3556,t_address)"
      }
    ],
    "types": {
      "t_address": {
        "encoding": "inplace",
        "label": "address",
        "numberOfBytes": "20"
      },
      "t_array(t_bytes32)dyn_storage": {
        "base": "t_bytes32",
        "encoding": "dynamic_array",
        "label": "bytes32[]",
        "numberOfBytes": "32"
      },
      "t_bytes32": {
        "encoding": "inplace",
        "label": "bytes32",
        "numberOfBytes": "32"
      },
      "t_enum(Module)3556": {
        "encoding": "inplace",
        "label": "enum LibDataTypes.Module",
        "numberOfBytes": "1"
      },
      "t_mapping(t_address,t_struct(Bytes32Set)1433_storage)": {
        "encoding": "mapping",
        "key": "t_address",
        "label": "mapping(address => struct EnumerableSet.Bytes32Set)",
        "numberOfBytes": "32",
        "value": "t_struct(Bytes32Set)1433_storage"
      },
      "t_mapping(t_bytes32,t_address)": {
        "encoding": "mapping",
        "key": "t_bytes32",
        "label": "mapping(bytes32 => address)",
        "numberOfBytes": "32",
        "value": "t_address"
      },
      "t_mapping(t_bytes32,t_struct(Time)3569_storage)": {
        "encoding": "mapping",
        "key": "t_bytes32",
        "label": "mapping(bytes32 => struct LibDataTypes.Time)",
        "numberOfBytes": "32",
        "value": "t_struct(Time)3569_storage"
      },
      "t_mapping(t_bytes32,t_uint256)": {
        "encoding": "mapping",
        "key": "t_bytes32",
        "label": "mapping(bytes32 => uint256)",
        "numberOfBytes": "32",
        "value": "t_uint256"
      },
      "t_mapping(t_enum(Module)3556,t_address)": {
        "encoding": "mapping",
        "key": "t_enum(Module)3556",
        "label": "mapping(enum LibDataTypes.Module => address)",
        "numberOfBytes": "32",
        "value": "t_address"
      },
      "t_struct(Bytes32Set)1433_storage": {
        "encoding": "inplace",
        "label": "struct EnumerableSet.Bytes32Set",
        "members": [
          {
            "astId": 1432,
            "contract": "contracts/taskModules/TimeModule.sol:TimeModule",
            "label": "_inner",
            "offset": 0,
            "slot": "0",
            "type": "t_struct(Set)1239_storage"
          }
        ],
        "numberOfBytes": "64"
      },
      "t_struct(Set)1239_storage": {
        "encoding": "inplace",
        "label": "struct EnumerableSet.Set",
        "members": [
          {
            "astId": 1234,
            "contract": "contracts/taskModules/TimeModule.sol:TimeModule",
            "label": "_values",
            "offset": 0,
            "slot": "0",
            "type": "t_array(t_bytes32)dyn_storage"
          },
          {
            "astId": 1238,
            "contract": "contracts/taskModules/TimeModule.sol:TimeModule",
            "label": "_indexes",
            "offset": 0,
            "slot": "1",
            "type": "t_mapping(t_bytes32,t_uint256)"
          }
        ],
        "numberOfBytes": "64"
      },
      "t_struct(Time)3569_storage": {
        "encoding": "inplace",
        "label": "struct LibDataTypes.Time",
        "members": [
          {
            "astId": 3566,
            "contract": "contracts/taskModules/TimeModule.sol:TimeModule",
            "label": "nextExec",
            "offset": 0,
            "slot": "0",
            "type": "t_uint128"
          },
          {
            "astId": 3568,
            "contract": "contracts/taskModules/TimeModule.sol:TimeModule",
            "label": "interval",
            "offset": 16,
            "slot": "0",
            "type": "t_uint128"
          }
        ],
        "numberOfBytes": "32"
      },
      "t_uint128": {
        "encoding": "inplace",
        "label": "uint128",
        "numberOfBytes": "16"
      },
      "t_uint256": {
        "encoding": "inplace",
        "label": "uint256",
        "numberOfBytes": "32"
      }
    }
  }
}