{
  "address": "0xb63ce59bcF3CbF5f25CfC753D39C46EB6e37be75",
  "abi": [
    {
      "inputs": [
        {
          "internalType": "address payable",
          "name": "_gelato",
          "type": "address"
        }
      ],
      "stateMutability": "nonpayable",
      "type": "constructor"
    },
    {
      "anonymous": false,
      "inputs": [
        {
          "indexed": true,
          "internalType": "address",
          "name": "sponsor",
          "type": "address"
        },
        {
          "indexed": true,
          "internalType": "address",
          "name": "target",
          "type": "address"
        },
        {
          "indexed": true,
          "internalType": "address",
          "name": "feeToken",
          "type": "address"
        },
        {
          "indexed": false,
          "internalType": "uint256",
          "name": "oneBalanceChainId",
          "type": "uint256"
        },
        {
          "indexed": false,
          "internalType": "uint256",
          "name": "nativeToFeeTokenXRateNumerator",
          "type": "uint256"
        },
        {
          "indexed": false,
          "internalType": "uint256",
          "name": "nativeToFeeTokenXRateDenominator",
          "type": "uint256"
        },
        {
          "indexed": false,
          "internalType": "bytes32",
          "name": "correlationId",
          "type": "bytes32"
        }
      ],
      "name": "LogUseGelato1Balance",
      "type": "event"
    },
    {
      "inputs": [
        {
          "internalType": "bytes32",
          "name": "_taskId",
          "type": "bytes32"
        }
      ],
      "name": "cancelTask",
      "outputs": [],
      "stateMutability": "nonpayable",
      "type": "function"
    },
    {
      "inputs": [
        {
          "internalType": "address",
          "name": "_execAddress",
          "type": "address"
        },
        {
          "internalType": "bytes",
          "name": "_execDataOrSelector",
          "type": "bytes"
        },
        {
          "components": [
            {
              "internalType": "enum LibDataTypes.Module[]",
              "name": "modules",
              "type": "uint8[]"
            },
            {
              "internalType": "bytes[]",
              "name": "args",
              "type": "bytes[]"
            }
          ],
          "internalType": "struct LibDataTypes.ModuleData",
          "name": "_moduleData",
          "type": "tuple"
        },
        {
          "internalType": "address",
          "name": "_feeToken",
          "type": "address"
        }
      ],
      "name": "createTask",
      "outputs": [
        {
          "internalType": "bytes32",
          "name": "taskId",
          "type": "bytes32"
        }
      ],
      "stateMutability": "nonpayable",
      "type": "function"
    },
    {
      "inputs": [
        {
          "internalType": "address",
          "name": "_taskCreator",
          "type": "address"
        },
        {
          "internalType": "address",
          "name": "_execAddress",
          "type": "address"
        },
        {
          "internalType": "bytes",
          "name": "_execData",
          "type": "bytes"
        },
        {
          "components": [
            {
              "internalType": "enum LibDataTypes.Module[]",
              "name": "modules",
              "type": "uint8[]"
            },
            {
              "internalType": "bytes[]",
              "name": "args",
              "type": "bytes[]"
            }
          ],
          "internalType": "struct LibDataTypes.ModuleData",
          "name": "_moduleData",
          "type": "tuple"
        },
        {
          "internalType": "uint256",
          "name": "_txFee",
          "type": "uint256"
        },
        {
          "internalType": "address",
          "name": "_feeToken",
          "type": "address"
        },
        {
          "internalType": "bool",
          "name": "_revertOnFailure",
          "type": "bool"
        }
      ],
      "name": "exec",
      "outputs": [],
      "stateMutability": "nonpayable",
      "type": "function"
    },
    {
      "inputs": [
        {
          "internalType": "address",
          "name": "_taskCreator",
          "type": "address"
        },
        {
          "internalType": "address",
          "name": "_execAddress",
          "type": "address"
        },
        {
          "internalType": "bytes",
          "name": "_execData",
          "type": "bytes"
        },
        {
          "components": [
            {
              "internalType": "enum LibDataTypes.Module[]",
              "name": "modules",
              "type": "uint8[]"
            },
            {
              "internalType": "bytes[]",
              "name": "args",
              "type": "bytes[]"
            }
          ],
          "internalType": "struct LibDataTypes.ModuleData",
          "name": "_moduleData",
          "type": "tuple"
        },
        {
          "components": [
            {
              "internalType": "address",
              "name": "sponsor",
              "type": "address"
            },
            {
              "internalType": "address",
              "name": "feeToken",
              "type": "address"
            },
            {
              "internalType": "uint256",
              "name": "oneBalanceChainId",
              "type": "uint256"
            },
            {
              "internalType": "uint256",
              "name": "nativeToFeeTokenXRateNumerator",
              "type": "uint256"
            },
            {
              "internalType": "uint256",
              "name": "nativeToFeeTokenXRateDenominator",
              "type": "uint256"
            },
            {
              "internalType": "bytes32",
              "name": "correlationId",
              "type": "bytes32"
            }
          ],
          "internalType": "struct IGelato1Balance.Gelato1BalanceParam",
          "name": "_oneBalanceParam",
          "type": "tuple"
        },
        {
          "internalType": "bool",
          "name": "_revertOnFailure",
          "type": "bool"
        }
      ],
      "name": "exec1Balance",
      "outputs": [],
      "stateMutability": "nonpayable",
      "type": "function"
    },
    {
      "inputs": [
        {
          "internalType": "bytes32",
          "name": "",
          "type": "bytes32"
        }
      ],
      "name": "execAddresses",
      "outputs": [
        {
          "internalType": "address",
          "name": "",
          "type": "address"
        }
      ],
      "stateMutability": "view",
      "type": "function"
    },
    {
      "inputs": [],
      "name": "fee",
      "outputs": [
        {
          "internalType": "uint256",
          "name": "",
          "type": "uint256"
        }
      ],
      "stateMutability": "view",
      "type": "function"
    },
    {
      "inputs": [],
      "name": "feeToken",
      "outputs": [
        {
          "internalType": "address",
          "name": "",
          "type": "address"
        }
      ],
      "stateMutability": "view",
      "type": "function"
    },
    {
      "inputs": [],
      "name": "gelato",
      "outputs": [
        {
          "internalType": "address payable",
          "name": "",
          "type": "address"
        }
      ],
      "stateMutability": "view",
      "type": "function"
    },
    {
      "inputs": [],
      "name": "getFeeDetails",
      "outputs": [
        {
          "internalType": "uint256",
          "name": "",
          "type": "uint256"
        },
        {
          "internalType": "address",
          "name": "",
          "type": "address"
        }
      ],
      "stateMutability": "view",
      "type": "function"
    },
    {
      "inputs": [
        {
          "internalType": "address",
          "name": "taskCreator",
          "type": "address"
        },
        {
          "internalType": "address",
          "name": "execAddress",
          "type": "address"
        },
        {
          "internalType": "bytes4",
          "name": "execSelector",
          "type": "bytes4"
        },
        {
          "components": [
            {
              "internalType": "enum LibDataTypes.Module[]",
              "name": "modules",
              "type": "uint8[]"
            },
            {
              "internalType": "bytes[]",
              "name": "args",
              "type": "bytes[]"
            }
          ],
          "internalType": "struct LibDataTypes.ModuleData",
          "name": "moduleData",
          "type": "tuple"
        },
        {
          "internalType": "address",
          "name": "feeToken",
          "type": "address"
        }
      ],
      "name": "getTaskId",
      "outputs": [
        {
          "internalType": "bytes32",
          "name": "taskId",
          "type": "bytes32"
        }
      ],
      "stateMutability": "pure",
      "type": "function"
    },
    {
      "inputs": [
        {
          "internalType": "address",
          "name": "_taskCreator",
          "type": "address"
        }
      ],
      "name": "getTaskIdsByUser",
      "outputs": [
        {
          "internalType": "bytes32[]",
          "name": "",
          "type": "bytes32[]"
        }
      ],
      "stateMutability": "view",
      "type": "function"
    },
    {
      "inputs": [
        {
          "internalType": "bytes32",
          "name": "",
          "type": "bytes32"
        }
      ],
      "name": "nonce1Balance",
      "outputs": [
        {
          "internalType": "uint256",
          "name": "",
          "type": "uint256"
        }
      ],
      "stateMutability": "view",
      "type": "function"
    },
    {
      "inputs": [
        {
          "internalType": "enum LibDataTypes.Module[]",
          "name": "_modules",
          "type": "uint8[]"
        },
        {
          "internalType": "address[]",
          "name": "_moduleAddresses",
          "type": "address[]"
        }
      ],
      "name": "setModule",
      "outputs": [],
      "stateMutability": "nonpayable",
      "type": "function"
    },
    {
      "inputs": [
        {
          "internalType": "bytes32",
          "name": "",
          "type": "bytes32"
        }
      ],
      "name": "taskCreator",
      "outputs": [
        {
          "internalType": "address",
          "name": "",
          "type": "address"
        }
      ],
      "stateMutability": "view",
      "type": "function"
    },
    {
      "inputs": [
        {
          "internalType": "enum LibDataTypes.Module",
          "name": "",
          "type": "uint8"
        }
      ],
      "name": "taskModuleAddresses",
      "outputs": [
        {
          "internalType": "address",
          "name": "",
          "type": "address"
        }
      ],
      "stateMutability": "view",
      "type": "function"
    },
    {
      "inputs": [
        {
          "internalType": "bytes32",
          "name": "",
          "type": "bytes32"
        }
      ],
      "name": "timedTask",
      "outputs": [
        {
          "internalType": "uint128",
          "name": "nextExec",
          "type": "uint128"
        },
        {
          "internalType": "uint128",
          "name": "interval",
          "type": "uint128"
        }
      ],
      "stateMutability": "view",
      "type": "function"
    },
    {
      "inputs": [],
      "name": "version",
      "outputs": [
        {
          "internalType": "string",
          "name": "",
          "type": "string"
        }
      ],
      "stateMutability": "view",
      "type": "function"
    }
  ],
  "transactionHash": "0x28c9fd9c0fbcf60cc5ecf082cf7d1ca26bda455068c7ab956daa93bd4e257685",
  "args": [
    "0x266E4AB6baD069aFc28d3C2CC129f6F8455b1dc2"
  ],
  "numDeployments": 5,
  "solcInputHash": "c0ad8ac892af039154187898a9ce3bb5",
  "bytecode": "0x60a06040523480156200001157600080fd5b50604051620043a6380380620043a68339818101604052810190620000379190620000de565b808073ffffffffffffffffffffffffffffffffffffffff1660808173ffffffffffffffffffffffffffffffffffffffff1681525050505062000110565b600080fd5b600073ffffffffffffffffffffffffffffffffffffffff82169050919050565b6000620000a68262000079565b9050919050565b620000b88162000099565b8114620000c457600080fd5b50565b600081519050620000d881620000ad565b92915050565b600060208284031215620000f757620000f662000074565b5b60006200010784828501620000c7565b91505092915050565b60805161426c6200013a600039600081816104f3015281816106d70152610a85015261426c6000f3fe608060405234801561001057600080fd5b506004361061010b5760003560e01c8063813785e6116100a2578063b81cd86611610071578063b81cd866146102e1578063cd3d4fb914610312578063ddca3f4314610342578063e1d173a914610360578063ee8ca3b51461037c5761010b565b8063813785e61461025a578063abf26d5514610276578063ac21631a14610292578063b810c636146102c25761010b565b806354fd4d50116100de57806354fd4d50146101d0578063573ea575146101ee578063647846a51461020c5780636d2dd29f1461022a5761010b565b80630407145c146101105780632e6e0bd0146101405780633140576e146101705780633323b467146101a0575b600080fd5b61012a600480360381019061012591906125d7565b610398565b60405161013791906126cc565b60405180910390f35b61015a6004803603810190610155919061271a565b6103ee565b6040516101679190612756565b60405180910390f35b61018a60048036038101906101859190612b6f565b610421565b6040516101979190612c15565b60405180910390f35b6101ba60048036038101906101b59190612caf565b61043b565b6040516101c79190612c15565b60405180910390f35b6101d86104b8565b6040516101e59190612ddb565b60405180910390f35b6101f66104f1565b6040516102039190612e1e565b60405180910390f35b610214610515565b6040516102219190612756565b60405180910390f35b610244600480360381019061023f919061271a565b61053b565b6040516102519190612756565b60405180910390f35b610274600480360381019061026f9190612ee5565b61056e565b005b610290600480360381019061028b9190612fbd565b6106d5565b005b6102ac60048036038101906102a7919061271a565b6109a5565b6040516102b9919061309d565b60405180910390f35b6102ca6109bd565b6040516102d89291906130b8565b60405180910390f35b6102fb60048036038101906102f6919061271a565b6109ee565b60405161030992919061310c565b60405180910390f35b61032c60048036038101906103279190613135565b610a4a565b6040516103399190612756565b60405180910390f35b61034a610a7d565b604051610357919061309d565b60405180910390f35b61037a6004803603810190610375919061318e565b610a83565b005b6103966004803603810190610391919061271a565b610d0e565b005b606060006103e3600260008573ffffffffffffffffffffffffffffffffffffffff1673ffffffffffffffffffffffffffffffffffffffff168152602001908152602001600020610d2c565b905080915050919050565b60006020528060005260406000206000915054906101000a900473ffffffffffffffffffffffffffffffffffffffff1681565b60006104308686868686610d41565b905095945050505050565b60008061044a33886006610d7d565b80985081925050506104ac818888888080601f016020809104026020016040519081016040528093929190818152602001838380828437600081840152601f19601f82011690508083019250505050505050876104a690613268565b87610f53565b91505095945050505050565b6040518060400160405280600181526020017f360000000000000000000000000000000000000000000000000000000000000081525081565b7f000000000000000000000000000000000000000000000000000000000000000081565b600460009054906101000a900473ffffffffffffffffffffffffffffffffffffffff1681565b60016020528060005260406000206000915054906101000a900473ffffffffffffffffffffffffffffffffffffffff1681565b6105766110d1565b73ffffffffffffffffffffffffffffffffffffffff163373ffffffffffffffffffffffffffffffffffffffff16146105e3576040517f08c379a00000000000000000000000000000000000000000000000000000000081526004016105da906132c7565b60405180910390fd5b600084849050905060005b818110156106cd57838382818110610609576106086132e7565b5b905060200201602081019061061e91906125d7565b60066000888885818110610635576106346132e7565b5b905060200201602081019061064a9190613135565b600581111561065c5761065b613316565b5b600581111561066e5761066d613316565b5b815260200190815260200160002060006101000a81548173ffffffffffffffffffffffffffffffffffffffff021916908373ffffffffffffffffffffffffffffffffffffffff16021790555080806106c590613374565b9150506105ee565b505050505050565b7f000000000000000000000000000000000000000000000000000000000000000073ffffffffffffffffffffffffffffffffffffffff163373ffffffffffffffffffffffffffffffffffffffff1614610763576040517f08c379a000000000000000000000000000000000000000000000000000000000815260040161075a90613408565b60405180910390fd5b60006107848787610773886110fa565b8761077d90613268565b6000610d41565b90506107d781600260008a73ffffffffffffffffffffffffffffffffffffffff1673ffffffffffffffffffffffffffffffffffffffff16815260200190815260200160002061127390919063ffffffff16565b610816576040517f08c379a000000000000000000000000000000000000000000000000000000000815260040161080d90613474565b60405180910390fd5b60006108778289898989806000019061082f91906134a3565b80806020026020016040519081016040528093929190818152602001838360200280828437600081840152601f19601f8201169050808301925050505050505088600661128a565b90508673ffffffffffffffffffffffffffffffffffffffff16600073ffffffffffffffffffffffffffffffffffffffff1660007fa458375b1282695a972870cbfbc4891a9d856b79d563d17667d171d87e0c527a8986866040516108dd9392919061356a565b60405180910390a48360200160208101906108f891906125d7565b73ffffffffffffffffffffffffffffffffffffffff168773ffffffffffffffffffffffffffffffffffffffff1685600001602081019061093891906125d7565b73ffffffffffffffffffffffffffffffffffffffff167f116bfd46451bbd23e7a5f5b7420b28e3d98d4c477f173da513aaaeac3c4baada8760400135886060013589608001358a60a0013560405161099394939291906135a8565b60405180910390a45050505050505050565b60076020528060005260406000206000915090505481565b600080600354600460009054906101000a900473ffffffffffffffffffffffffffffffffffffffff16915091509091565b60056020528060005260406000206000915090508060000160009054906101000a90046fffffffffffffffffffffffffffffffff16908060000160109054906101000a90046fffffffffffffffffffffffffffffffff16905082565b60066020528060005260406000206000915054906101000a900473ffffffffffffffffffffffffffffffffffffffff1681565b60035481565b7f000000000000000000000000000000000000000000000000000000000000000073ffffffffffffffffffffffffffffffffffffffff163373ffffffffffffffffffffffffffffffffffffffff1614610b11576040517f08c379a0000000000000000000000000000000000000000000000000000000008152600401610b0890613408565b60405180910390fd5b6000610b318888610b21896110fa565b88610b2b90613268565b87610d41565b9050610b8481600260008b73ffffffffffffffffffffffffffffffffffffffff1673ffffffffffffffffffffffffffffffffffffffff16815260200190815260200160002061127390919063ffffffff16565b610bc3576040517f08c379a0000000000000000000000000000000000000000000000000000000008152600401610bba90613474565b60405180910390fd5b8360038190555082600460006101000a81548173ffffffffffffffffffffffffffffffffffffffff021916908373ffffffffffffffffffffffffffffffffffffffff1602179055506000610c6c828a8a8a8a8060000190610c2491906134a3565b80806020026020016040519081016040528093929190818152602001838360200280828437600081840152601f19601f8201169050808301925050505050505088600661128a565b9050600360009055600460006101000a81549073ffffffffffffffffffffffffffffffffffffffff02191690558773ffffffffffffffffffffffffffffffffffffffff168473ffffffffffffffffffffffffffffffffffffffff16867fa458375b1282695a972870cbfbc4891a9d856b79d563d17667d171d87e0c527a8a8686604051610cfb9392919061356a565b60405180910390a4505050505050505050565b6000610d1c82336006611332565b9050610d2881836114ef565b5050565b6060610d3a8260000161160e565b9050919050565b60008585858585604051602001610d5c959493929190613843565b60405160208183030381529060405280519060200120905095945050505050565b60008060006001600580811115610d9757610d96613316565b5b610da1919061389d565b905060005b81811015610f43576000816005811115610dc357610dc2613316565b5b9050610de0816005811115610ddb57610dda613316565b5b61166a565b610dea5750610f30565b6000866000836005811115610e0257610e01613316565b5b6005811115610e1457610e13613316565b5b815260200190815260200160002060009054906101000a900473ffffffffffffffffffffffffffffffffffffffff169050610e4e816116ab565b60006376474e6a60e01b8a8a604051602401610e6b9291906138f3565b604051602081830303815290604052907bffffffffffffffffffffffffffffffffffffffffffffffffffffffff19166020820180517bffffffffffffffffffffffffffffffffffffffffffffffffffffffff838183161783525050505090506000610f0c83836040518060400160405280601881526020017f4175746f6d6174652e7072654372656174655461736b3a20000000000000000081525061171d565b91505080806020019051810190610f239190613948565b809b50819c505050505050505b8080610f3b90613374565b915050610da6565b5085859250925050935093915050565b6000610f6a8686610f63876110fa565b8686610d41565b9050610fbd81600260008973ffffffffffffffffffffffffffffffffffffffff1673ffffffffffffffffffffffffffffffffffffffff16815260200190815260200160002061127390919063ffffffff16565b15610ffd576040517f08c379a0000000000000000000000000000000000000000000000000000000008152600401610ff4906139fa565b60405180910390fd5b61100c818787878760066117a7565b61105d81600260008973ffffffffffffffffffffffffffffffffffffffff1673ffffffffffffffffffffffffffffffffffffffff16815260200190815260200160002061197890919063ffffffff16565b50808573ffffffffffffffffffffffffffffffffffffffff168773ffffffffffffffffffffffffffffffffffffffff167f73f079427211e7b93db86024054de0b3c4a076a36cf0f86d2c4bf0d112eb7f1d8787876040516110c093929190613a1a565b60405180910390a495945050505050565b60007fb53127684a568b3173ae13b9f8a6016e243e63b6e8ee1178d6a717850b5d610354905090565b6000601882600381518110611112576111116132e7565b5b602001015160f81c60f81b7effffffffffffffffffffffffffffffffffffffffffffffffffffffffffffff19167bffffffffffffffffffffffffffffffffffffffffffffffffffffffff1916901c601083600281518110611176576111756132e7565b5b602001015160f81c60f81b7effffffffffffffffffffffffffffffffffffffffffffffffffffffffffffff19167bffffffffffffffffffffffffffffffffffffffffffffffffffffffff1916901c6008846001815181106111da576111d96132e7565b5b602001015160f81c60f81b7effffffffffffffffffffffffffffffffffffffffffffffffffffffffffffff19167bffffffffffffffffffffffffffffffffffffffffffffffffffffffff1916901c8460008151811061123c5761123b6132e7565b5b602001015160f81c60f81b7effffffffffffffffffffffffffffffffffffffffffffffffffffffffffffff19161717179050919050565b6000611282836000018361198f565b905092915050565b60008061129785846119b2565b90506112a7898989898986611aef565b809750819850505061131387878a6040516020016112c6929190613ae3565b6040516020818303038152906040526000876040518060400160405280600f81526020017f4175746f6d6174652e657865633a200000000000000000000000000000000000815250611c62565b5080925050611326898989898986611cfc565b50979650505050505050565b60008060058081111561134857611347613316565b5b905060005b8181116114e357600081600581111561136957611368613316565b5b905061138681600581111561138157611380613316565b5b611e42565b61139057506114d0565b60008560008360058111156113a8576113a7613316565b5b60058111156113ba576113b9613316565b5b815260200190815260200160002060009054906101000a900473ffffffffffffffffffffffffffffffffffffffff1690506113f4816116ab565b60006314ae992660e01b8989604051602401611411929190613b0b565b604051602081830303815290604052907bffffffffffffffffffffffffffffffffffffffffffffffffffffffff19166020820180517bffffffffffffffffffffffffffffffffffffffffffffffffffffffff8381831617835250505050905060006114b283836040518060400160405280601881526020017f4175746f6d6174652e70726543616e63656c5461736b3a20000000000000000081525061171d565b915050808060200190518101906114c99190613b34565b9850505050505b80806114db90613374565b91505061134d565b50839150509392505050565b61154081600260008573ffffffffffffffffffffffffffffffffffffffff1673ffffffffffffffffffffffffffffffffffffffff16815260200190815260200160002061127390919063ffffffff16565b61157f576040517f08c379a000000000000000000000000000000000000000000000000000000000815260040161157690613bd3565b60405180910390fd5b6115d081600260008573ffffffffffffffffffffffffffffffffffffffff1673ffffffffffffffffffffffffffffffffffffffff168152602001908152602001600020611e8390919063ffffffff16565b507f44d83729a43f9c6046446df014d073dd242e0ad672071e9b292f31b669c25b098183604051611602929190613b0b565b60405180910390a15050565b60608160000180548060200260200160405190810160405280929190818152602001828054801561165e57602002820191906000526020600020905b81548152602001906001019080831161164a575b50505050509050919050565b6000600260058111156116805761167f613316565b5b82600581111561169357611692613316565b5b036116a157600190506116a6565b600090505b919050565b600073ffffffffffffffffffffffffffffffffffffffff168173ffffffffffffffffffffffffffffffffffffffff160361171a576040517f08c379a000000000000000000000000000000000000000000000000000000000815260040161171190613c65565b60405180910390fd5b50565b600060608473ffffffffffffffffffffffffffffffffffffffff16846040516117469190613c85565b600060405180830381855af49150503d8060008114611781576040519150601f19603f3d011682016040523d82523d6000602084013e611786565b606091505b5080925081935050508161179f5761179e8184611e9a565b5b935093915050565b600082600001515190506117be8360000151612001565b60005b8181101561196e576000846000015182815181106117e2576117e16132e7565b5b6020026020010151905061180781600581111561180257611801613316565b5b61231e565b611811575061195b565b600084600083600581111561182957611828613316565b5b600581111561183b5761183a613316565b5b815260200190815260200160002060009054906101000a900473ffffffffffffffffffffffffffffffffffffffff169050611875816116ab565b600063b0ccbdf060e01b8b8b8b8b8b60200151898151811061189a576118996132e7565b5b60200260200101516040516024016118b6959493929190613c9c565b604051602081830303815290604052907bffffffffffffffffffffffffffffffffffffffffffffffffffffffff19166020820180517bffffffffffffffffffffffffffffffffffffffffffffffffffffffff8381831617835250505050905061195582826040518060400160405280601781526020017f4175746f6d6174652e6f6e4372656174655461736b3a2000000000000000000081525061171d565b50505050505b808061196690613374565b9150506117c1565b5050505050505050565b6000611987836000018361235f565b905092915050565b600080836001016000848152602001908152602001600020541415905092915050565b606060008351905060008167ffffffffffffffff8111156119d6576119d56127df565b5b604051908082528060200260200182016040528015611a045781602001602082028036833780820191505090505b50905060005b82811015611ae357846000878381518110611a2857611a276132e7565b5b60200260200101516005811115611a4257611a41613316565b5b6005811115611a5457611a53613316565b5b815260200190815260200160002060009054906101000a900473ffffffffffffffffffffffffffffffffffffffff16828281518110611a9657611a956132e7565b5b602002602001019073ffffffffffffffffffffffffffffffffffffffff16908173ffffffffffffffffffffffffffffffffffffffff16815250508080611adb90613374565b915050611a0a565b50809250505092915050565b6000606060008451905060005b81811015611c4f57611b39868281518110611b1a57611b196132e7565b5b60200260200101516005811115611b3457611b33613316565b5b6123cf565b15611c3c57600063c10304f760e01b8b8b8b8b604051602401611b5f9493929190613cfd565b604051602081830303815290604052907bffffffffffffffffffffffffffffffffffffffffffffffffffffffff19166020820180517bffffffffffffffffffffffffffffffffffffffffffffffffffffffff838183161783525050505090506000611c1a878481518110611bd657611bd56132e7565b5b6020026020010151836040518060400160405280601681526020017f4175746f6d6174652e7072654578656343616c6c3a200000000000000000000081525061171d565b91505080806020019051810190611c319190613db9565b809a50819b50505050505b8080611c4790613374565b915050611afc565b5086869250925050965096945050505050565b600060608673ffffffffffffffffffffffffffffffffffffffff168587604051611c8c9190613c85565b60006040518083038185875af1925050503d8060008114611cc9576040519150601f19603f3d011682016040523d82523d6000602084013e611cce565b606091505b50809250819350505081158015611ce25750835b15611cf257611cf18184611e9a565b5b9550959350505050565b60008151905060005b81811015611e3857611d42848281518110611d2357611d226132e7565b5b60200260200101516005811115611d3d57611d3c613316565b5b612410565b15611e2557600063b2db0b4160e01b89898989604051602401611d689493929190613cfd565b604051602081830303815290604052907bffffffffffffffffffffffffffffffffffffffffffffffffffffffff19166020820180517bffffffffffffffffffffffffffffffffffffffffffffffffffffffff83818316178352505050509050611e21848381518110611ddd57611ddc6132e7565b5b6020026020010151826040518060400160405280601781526020017f4175746f6d6174652e706f73744578656343616c6c3a2000000000000000000081525061171d565b5050505b8080611e3090613374565b915050611d05565b5050505050505050565b600060026005811115611e5857611e57613316565b5b826005811115611e6b57611e6a613316565b5b03611e795760019050611e7e565b600090505b919050565b6000611e928360000183612451565b905092915050565b600460208351611eaa9190613e44565b03611fa5576000826020015190506308c379a060e01b817bffffffffffffffffffffffffffffffffffffffffffffffffffffffff191603611f49576044830192508183604051602001611efe929190613eb1565b6040516020818303038152906040526040517f08c379a0000000000000000000000000000000000000000000000000000000008152600401611f409190612ddb565b60405180910390fd5b81604051602001611f5a9190613f21565b6040516020818303038152906040526040517f08c379a0000000000000000000000000000000000000000000000000000000008152600401611f9c9190612ddb565b60405180910390fd5b80604051602001611fb69190613f8f565b6040516020818303038152906040526040517f08c379a0000000000000000000000000000000000000000000000000000000008152600401611ff89190612ddb565b60405180910390fd5b6000815190506000600160058081111561201e5761201d613316565b5b612028919061389d565b905060008167ffffffffffffffff811115612046576120456127df565b5b6040519080825280602002602001820160405280156120745781602001602082028036833780820191505090505b50905060005b8381101561219857600081111561213257846001826120999190613fb1565b815181106120aa576120a96132e7565b5b602002602001015160058111156120c4576120c3613316565b5b8582815181106120d7576120d66132e7565b5b602002602001015160058111156120f1576120f0613316565b5b11612131576040517f08c379a000000000000000000000000000000000000000000000000000000000815260040161212890614031565b60405180910390fd5b5b600182868381518110612148576121476132e7565b5b6020026020010151600581111561216257612161613316565b5b81518110612173576121726132e7565b5b602002602001019015159081151581525050808061219090613374565b91505061207a565b5080600160058111156121ae576121ad613316565b5b815181106121bf576121be6132e7565b5b602002602001015115612207576040517f08c379a00000000000000000000000000000000000000000000000000000000081526004016121fe906140c3565b60405180910390fd5b806000600581111561221c5761221b613316565b5b8151811061222d5761222c6132e7565b5b6020026020010151801561226b5750806004600581111561225157612250613316565b5b81518110612262576122616132e7565b5b60200260200101515b156122ab576040517f08c379a00000000000000000000000000000000000000000000000000000000081526004016122a290614155565b60405180910390fd5b80600260058111156122c0576122bf613316565b5b815181106122d1576122d06132e7565b5b6020026020010151612318576040517f08c379a000000000000000000000000000000000000000000000000000000000815260040161230f906141e7565b60405180910390fd5b50505050565b60006002600581111561233457612333613316565b5b82600581111561234757612346613316565b5b03612355576001905061235a565b600090505b919050565b600061236b838361198f565b6123c45782600001829080600181540180825580915050600190039060005260206000200160009091909190915055826000018054905083600101600084815260200190815260200160002081905550600190506123c9565b600090505b92915050565b6000600260058111156123e5576123e4613316565b5b8260058111156123f8576123f7613316565b5b03612406576001905061240b565b600090505b919050565b60006003600581111561242657612425613316565b5b82600581111561243957612438613316565b5b03612447576001905061244c565b600090505b919050565b600080836001016000848152602001908152602001600020549050600081146125595760006001826124839190613fb1565b905060006001866000018054905061249b9190613fb1565b905081811461250a5760008660000182815481106124bc576124bb6132e7565b5b90600052602060002001549050808760000184815481106124e0576124df6132e7565b5b90600052602060002001819055508387600101600083815260200190815260200160002081905550505b8560000180548061251e5761251d614207565b5b60019003818190600052602060002001600090559055856001016000868152602001908152602001600020600090556001935050505061255f565b60009150505b92915050565b6000604051905090565b600080fd5b600080fd5b600073ffffffffffffffffffffffffffffffffffffffff82169050919050565b60006125a482612579565b9050919050565b6125b481612599565b81146125bf57600080fd5b50565b6000813590506125d1816125ab565b92915050565b6000602082840312156125ed576125ec61256f565b5b60006125fb848285016125c2565b91505092915050565b600081519050919050565b600082825260208201905092915050565b6000819050602082019050919050565b6000819050919050565b61264381612630565b82525050565b6000612655838361263a565b60208301905092915050565b6000602082019050919050565b600061267982612604565b612683818561260f565b935061268e83612620565b8060005b838110156126bf5781516126a68882612649565b97506126b183612661565b925050600181019050612692565b5085935050505092915050565b600060208201905081810360008301526126e6818461266e565b905092915050565b6126f781612630565b811461270257600080fd5b50565b600081359050612714816126ee565b92915050565b6000602082840312156127305761272f61256f565b5b600061273e84828501612705565b91505092915050565b61275081612599565b82525050565b600060208201905061276b6000830184612747565b92915050565b60007fffffffff0000000000000000000000000000000000000000000000000000000082169050919050565b6127a681612771565b81146127b157600080fd5b50565b6000813590506127c38161279d565b92915050565b600080fd5b6000601f19601f8301169050919050565b7f4e487b7100000000000000000000000000000000000000000000000000000000600052604160045260246000fd5b612817826127ce565b810181811067ffffffffffffffff82111715612836576128356127df565b5b80604052505050565b6000612849612565565b9050612855828261280e565b919050565b600080fd5b600080fd5b600067ffffffffffffffff82111561287f5761287e6127df565b5b602082029050602081019050919050565b600080fd5b600681106128a257600080fd5b50565b6000813590506128b481612895565b92915050565b60006128cd6128c884612864565b61283f565b905080838252602082019050602084028301858111156128f0576128ef612890565b5b835b81811015612919578061290588826128a5565b8452602084019350506020810190506128f2565b5050509392505050565b600082601f8301126129385761293761285f565b5b81356129488482602086016128ba565b91505092915050565b600067ffffffffffffffff82111561296c5761296b6127df565b5b602082029050602081019050919050565b600080fd5b600067ffffffffffffffff82111561299d5761299c6127df565b5b6129a6826127ce565b9050602081019050919050565b82818337600083830152505050565b60006129d56129d084612982565b61283f565b9050828152602081018484840111156129f1576129f061297d565b5b6129fc8482856129b3565b509392505050565b600082601f830112612a1957612a1861285f565b5b8135612a298482602086016129c2565b91505092915050565b6000612a45612a4084612951565b61283f565b90508083825260208201905060208402830185811115612a6857612a67612890565b5b835b81811015612aaf57803567ffffffffffffffff811115612a8d57612a8c61285f565b5b808601612a9a8982612a04565b85526020850194505050602081019050612a6a565b5050509392505050565b600082601f830112612ace57612acd61285f565b5b8135612ade848260208601612a32565b91505092915050565b600060408284031215612afd57612afc6127c9565b5b612b07604061283f565b9050600082013567ffffffffffffffff811115612b2757612b2661285a565b5b612b3384828501612923565b600083015250602082013567ffffffffffffffff811115612b5757612b5661285a565b5b612b6384828501612ab9565b60208301525092915050565b600080600080600060a08688031215612b8b57612b8a61256f565b5b6000612b99888289016125c2565b9550506020612baa888289016125c2565b9450506040612bbb888289016127b4565b935050606086013567ffffffffffffffff811115612bdc57612bdb612574565b5b612be888828901612ae7565b9250506080612bf9888289016125c2565b9150509295509295909350565b612c0f81612630565b82525050565b6000602082019050612c2a6000830184612c06565b92915050565b600080fd5b60008083601f840112612c4b57612c4a61285f565b5b8235905067ffffffffffffffff811115612c6857612c67612c30565b5b602083019150836001820283011115612c8457612c83612890565b5b9250929050565b600080fd5b600060408284031215612ca657612ca5612c8b565b5b81905092915050565b600080600080600060808688031215612ccb57612cca61256f565b5b6000612cd9888289016125c2565b955050602086013567ffffffffffffffff811115612cfa57612cf9612574565b5b612d0688828901612c35565b9450945050604086013567ffffffffffffffff811115612d2957612d28612574565b5b612d3588828901612c90565b9250506060612d46888289016125c2565b9150509295509295909350565b600081519050919050565b600082825260208201905092915050565b60005b83811015612d8d578082015181840152602081019050612d72565b83811115612d9c576000848401525b50505050565b6000612dad82612d53565b612db78185612d5e565b9350612dc7818560208601612d6f565b612dd0816127ce565b840191505092915050565b60006020820190508181036000830152612df58184612da2565b905092915050565b6000612e0882612579565b9050919050565b612e1881612dfd565b82525050565b6000602082019050612e336000830184612e0f565b92915050565b60008083601f840112612e4f57612e4e61285f565b5b8235905067ffffffffffffffff811115612e6c57612e6b612c30565b5b602083019150836020820283011115612e8857612e87612890565b5b9250929050565b60008083601f840112612ea557612ea461285f565b5b8235905067ffffffffffffffff811115612ec257612ec1612c30565b5b602083019150836020820283011115612ede57612edd612890565b5b9250929050565b60008060008060408587031215612eff57612efe61256f565b5b600085013567ffffffffffffffff811115612f1d57612f1c612574565b5b612f2987828801612e39565b9450945050602085013567ffffffffffffffff811115612f4c57612f4b612574565b5b612f5887828801612e8f565b925092505092959194509250565b600060c08284031215612f7c57612f7b612c8b565b5b81905092915050565b60008115159050919050565b612f9a81612f85565b8114612fa557600080fd5b50565b600081359050612fb781612f91565b92915050565b6000806000806000806101608789031215612fdb57612fda61256f565b5b6000612fe989828a016125c2565b9650506020612ffa89828a016125c2565b955050604087013567ffffffffffffffff81111561301b5761301a612574565b5b61302789828a01612a04565b945050606087013567ffffffffffffffff81111561304857613047612574565b5b61305489828a01612c90565b935050608061306589828a01612f66565b92505061014061307789828a01612fa8565b9150509295509295509295565b6000819050919050565b61309781613084565b82525050565b60006020820190506130b2600083018461308e565b92915050565b60006040820190506130cd600083018561308e565b6130da6020830184612747565b9392505050565b60006fffffffffffffffffffffffffffffffff82169050919050565b613106816130e1565b82525050565b600060408201905061312160008301856130fd565b61312e60208301846130fd565b9392505050565b60006020828403121561314b5761314a61256f565b5b6000613159848285016128a5565b91505092915050565b61316b81613084565b811461317657600080fd5b50565b60008135905061318881613162565b92915050565b600080600080600080600060e0888a0312156131ad576131ac61256f565b5b60006131bb8a828b016125c2565b97505060206131cc8a828b016125c2565b965050604088013567ffffffffffffffff8111156131ed576131ec612574565b5b6131f98a828b01612a04565b955050606088013567ffffffffffffffff81111561321a57613219612574565b5b6132268a828b01612c90565b94505060806132378a828b01613179565b93505060a06132488a828b016125c2565b92505060c06132598a828b01612fa8565b91505092959891949750929550565b60006132743683612ae7565b9050919050565b7f4e4f545f415554484f52495a4544000000000000000000000000000000000000600082015250565b60006132b1600e83612d5e565b91506132bc8261327b565b602082019050919050565b600060208201905081810360008301526132e0816132a4565b9050919050565b7f4e487b7100000000000000000000000000000000000000000000000000000000600052603260045260246000fd5b7f4e487b7100000000000000000000000000000000000000000000000000000000600052602160045260246000fd5b7f4e487b7100000000000000000000000000000000000000000000000000000000600052601160045260246000fd5b600061337f82613084565b91507fffffffffffffffffffffffffffffffffffffffffffffffffffffffffffffffff82036133b1576133b0613345565b5b600182019050919050565b7f47656c61746f666965643a204f6e6c792067656c61746f000000000000000000600082015250565b60006133f2601783612d5e565b91506133fd826133bc565b602082019050919050565b60006020820190508181036000830152613421816133e5565b9050919050565b7f4175746f6d6174652e657865633a205461736b206e6f7420666f756e64000000600082015250565b600061345e601d83612d5e565b915061346982613428565b602082019050919050565b6000602082019050818103600083015261348d81613451565b9050919050565b600080fd5b600080fd5b600080fd5b600080833560016020038436030381126134c0576134bf613494565b5b80840192508235915067ffffffffffffffff8211156134e2576134e1613499565b5b6020830192506020820236038313156134fe576134fd61349e565b5b509250929050565b600081519050919050565b600082825260208201905092915050565b600061352d82613506565b6135378185613511565b9350613547818560208601612d6f565b613550816127ce565b840191505092915050565b61356481612f85565b82525050565b600060608201905081810360008301526135848186613522565b90506135936020830185612c06565b6135a0604083018461355b565b949350505050565b60006080820190506135bd600083018761308e565b6135ca602083018661308e565b6135d7604083018561308e565b6135e46060830184612c06565b95945050505050565b6135f681612771565b82525050565b600081519050919050565b600082825260208201905092915050565b6000819050602082019050919050565b6006811061363957613638613316565b5b50565b600081905061364a82613628565b919050565b600061365a8261363c565b9050919050565b61366a8161364f565b82525050565b600061367c8383613661565b60208301905092915050565b6000602082019050919050565b60006136a0826135fc565b6136aa8185613607565b93506136b583613618565b8060005b838110156136e65781516136cd8882613670565b97506136d883613688565b9250506001810190506136b9565b5085935050505092915050565b600081519050919050565b600082825260208201905092915050565b6000819050602082019050919050565b600082825260208201905092915050565b600061373b82613506565b613745818561371f565b9350613755818560208601612d6f565b61375e816127ce565b840191505092915050565b60006137758383613730565b905092915050565b6000602082019050919050565b6000613795826136f3565b61379f81856136fe565b9350836020820285016137b18561370f565b8060005b858110156137ed57848403895281516137ce8582613769565b94506137d98361377d565b925060208a019950506001810190506137b5565b50829750879550505050505092915050565b6000604083016000830151848203600086015261381c8282613695565b91505060208301518482036020860152613836828261378a565b9150508091505092915050565b600060a0820190506138586000830188612747565b6138656020830187612747565b61387260408301866135ed565b818103606083015261388481856137ff565b90506138936080830184612747565b9695505050505050565b60006138a882613084565b91506138b383613084565b9250827fffffffffffffffffffffffffffffffffffffffffffffffffffffffffffffffff038211156138e8576138e7613345565b5b828201905092915050565b60006040820190506139086000830185612747565b6139156020830184612747565b9392505050565b61392581612dfd565b811461393057600080fd5b50565b6000815190506139428161391c565b92915050565b6000806040838503121561395f5761395e61256f565b5b600061396d85828601613933565b925050602061397e85828601613933565b9150509250929050565b7f4175746f6d6174652e6372656174655461736b3a204475706c6963617465207460008201527f61736b0000000000000000000000000000000000000000000000000000000000602082015250565b60006139e4602383612d5e565b91506139ef82613988565b604082019050919050565b60006020820190508181036000830152613a13816139d7565b9050919050565b60006060820190508181036000830152613a348186613522565b90508181036020830152613a4881856137ff565b9050613a576040830184612747565b949350505050565b600081905092915050565b6000613a7582613506565b613a7f8185613a5f565b9350613a8f818560208601612d6f565b80840191505092915050565b60008160601b9050919050565b6000613ab382613a9b565b9050919050565b6000613ac582613aa8565b9050919050565b613add613ad882612599565b613aba565b82525050565b6000613aef8285613a6a565b9150613afb8284613acc565b6014820191508190509392505050565b6000604082019050613b206000830185612c06565b613b2d6020830184612747565b9392505050565b600060208284031215613b4a57613b4961256f565b5b6000613b5884828501613933565b91505092915050565b7f4175746f6d6174652e63616e63656c5461736b3a205461736b206e6f7420666f60008201527f756e640000000000000000000000000000000000000000000000000000000000602082015250565b6000613bbd602383612d5e565b9150613bc882613b61565b604082019050919050565b60006020820190508181036000830152613bec81613bb0565b9050919050565b7f4175746f6d6174652e5f6d6f64756c65496e697469616c697365643a204e6f7460008201527f20696e6974000000000000000000000000000000000000000000000000000000602082015250565b6000613c4f602583612d5e565b9150613c5a82613bf3565b604082019050919050565b60006020820190508181036000830152613c7e81613c42565b9050919050565b6000613c918284613a6a565b915081905092915050565b600060a082019050613cb16000830188612c06565b613cbe6020830187612747565b613ccb6040830186612747565b8181036060830152613cdd8185613522565b90508181036080830152613cf18184613522565b90509695505050505050565b6000608082019050613d126000830187612c06565b613d1f6020830186612747565b613d2c6040830185612747565b8181036060830152613d3e8184613522565b905095945050505050565b6000613d5c613d5784612982565b61283f565b905082815260208101848484011115613d7857613d7761297d565b5b613d83848285612d6f565b509392505050565b600082601f830112613da057613d9f61285f565b5b8151613db0848260208601613d49565b91505092915050565b60008060408385031215613dd057613dcf61256f565b5b6000613dde85828601613933565b925050602083015167ffffffffffffffff811115613dff57613dfe612574565b5b613e0b85828601613d8b565b9150509250929050565b7f4e487b7100000000000000000000000000000000000000000000000000000000600052601260045260246000fd5b6000613e4f82613084565b9150613e5a83613084565b925082613e6a57613e69613e15565b5b828206905092915050565b600081905092915050565b6000613e8b82612d53565b613e958185613e75565b9350613ea5818560208601612d6f565b80840191505092915050565b6000613ebd8285613e80565b9150613ec98284613e80565b91508190509392505050565b7f4e6f4572726f7253656c6563746f720000000000000000000000000000000000600082015250565b6000613f0b600f83613e75565b9150613f1682613ed5565b600f82019050919050565b6000613f2d8284613e80565b9150613f3882613efe565b915081905092915050565b7f556e657870656374656452657475726e64617461000000000000000000000000600082015250565b6000613f79601483613e75565b9150613f8482613f43565b601482019050919050565b6000613f9b8284613e80565b9150613fa682613f6c565b915081905092915050565b6000613fbc82613084565b9150613fc783613084565b925082821015613fda57613fd9613345565b5b828203905092915050565b7f4175746f6d6174652e5f76616c69644d6f64756c65733a20417363206f6e6c79600082015250565b600061401b602083612d5e565b915061402682613fe5565b602082019050919050565b6000602082019050818103600083015261404a8161400e565b9050919050565b7f4175746f6d6174652e5f76616c69644d6f64756c65733a2054494d452069732060008201527f6465707265636174656400000000000000000000000000000000000000000000602082015250565b60006140ad602a83612d5e565b91506140b882614051565b604082019050919050565b600060208201905081810360008301526140dc816140a0565b9050919050565b7f4175746f6d6174652e5f76616c69644d6f64756c65733a204f6e6c792052455360008201527f4f4c564552206f7220574542335f46554e4354494f4e00000000000000000000602082015250565b600061413f603683612d5e565b915061414a826140e3565b604082019050919050565b6000602082019050818103600083015261416e81614132565b9050919050565b7f4175746f6d6174652e5f76616c69644d6f64756c65733a2050524f585920697360008201527f2072657175697265640000000000000000000000000000000000000000000000602082015250565b60006141d1602983612d5e565b91506141dc82614175565b604082019050919050565b60006020820190508181036000830152614200816141c4565b9050919050565b7f4e487b7100000000000000000000000000000000000000000000000000000000600052603160045260246000fdfea2646970667358221220c23db2e4cc1ee4cb5e0da287794a32dce160e8a966c65b11eee4d4ab782d591c64736f6c634300080e0033",
  "devdoc": {
    "kind": "dev",
    "methods": {
      "cancelTask(bytes32)": {
        "params": {
          "taskId": "Unique hash of the task that is being cancelled. {See LibTaskId-getTaskId}"
        }
      },
      "createTask(address,bytes,(uint8[],bytes[]),address)": {
        "params": {
          "execAddress": "Address of contract that should be called by Gelato.",
          "execData": "Execution data to be called with / function selector if execution data is yet to be determined.",
          "feeToken": "Address of token to be used as payment. Use address(0) if Gelato 1Balance is being used, 0xeeeeee... for ETH or native tokens.",
          "moduleData": "Conditional modules that will be used. {See LibDataTypes-ModuleData}"
        },
        "returns": {
          "taskId": "Unique hash of the task created."
        }
      },
      "exec(address,address,bytes,(uint8[],bytes[]),uint256,address,bool)": {
        "params": {
          "execAddress": "Address of contract that should be called by Gelato.",
          "execData": "Execution data to be called with / function selector if execution data is yet to be determined.",
          "feeToken": "Token used to pay for the execution. ETH = 0xeeeeee...",
          "moduleData": "Conditional modules that will be used. {See LibDataTypes-ModuleData}",
          "revertOnFailure": "To revert or not if call to execAddress fails. (Used for off-chain simulations)",
          "taskCreator": "The address which created the task.",
          "txFee": "Fee paid to Gelato for execution, transfered to Gelato.feeCollector()."
        }
      },
      "exec1Balance(address,address,bytes,(uint8[],bytes[]),(address,address,uint256,uint256,uint256,bytes32),bool)": {
        "params": {
          "execAddress": "Address of contract that should be called by Gelato.",
          "execData": "Execution data to be called with / function selector if execution data is yet to be determined.",
          "moduleData": "Conditional modules that will be used. {See LibDataTypes-ModuleData}",
          "oneBalanceParam": "Parameters required for fee payment with Gelato 1Balance.",
          "revertOnFailure": "To revert or not if call to execAddress fails. (Used for off-chain simulations)",
          "taskCreator": "The address which created the task."
        }
      },
      "getFeeDetails()": {
        "returns": {
          "_0": "uint256 Fee amount to be paid.",
          "_1": "address Token to be paid. (Determined and passed by taskCreator during createTask)"
        }
      },
      "getTaskId(address,address,bytes4,(uint8[],bytes[]),address)": {
        "params": {
          "execAddress": "Address of contract that will be called by Gelato.",
          "execSelector": "Signature of the function which will be called by Gelato.",
          "feeToken": "Address of token to be used as payment. Use address(0) if Gelato 1Balance is being used, 0xeeeeee... for ETH or native tokens.",
          "moduleData": "Conditional modules that will be used. {See LibDataTypes-ModuleData}",
          "taskCreator": "The address which created the task."
        }
      },
      "getTaskIdsByUser(address)": {
        "params": {
          "taskCreator": "Address of task creator to query."
        },
        "returns": {
          "_0": "bytes32[] List of taskIds created."
        }
      },
      "setModule(uint8[],address[])": {
        "params": {
          "moduleAddresses": "List of addresses for respective modules.",
          "modules": "List of modules to be set"
        }
      }
    },
    "version": 1
  },
  "userdoc": {
    "kind": "user",
    "methods": {
      "cancelTask(bytes32)": {
        "notice": "Terminates a task that was created and Gelato can no longer execute it."
      },
      "createTask(address,bytes,(uint8[],bytes[]),address)": {
        "notice": "Initiates a task with conditions which Gelato will monitor and execute when conditions are met."
      },
      "exec(address,address,bytes,(uint8[],bytes[]),uint256,address,bool)": {
        "notice": "Execution API called by Gelato, using Sync Fee as fee payment method"
      },
      "exec1Balance(address,address,bytes,(uint8[],bytes[]),(address,address,uint256,uint256,uint256,bytes32),bool)": {
        "notice": "Execution API called by Gelato, using Gelato 1Balance as fee payment method."
      },
      "getFeeDetails()": {
        "notice": "Helper function to query fee and feeToken to be used for payment. (For executions which pays itself)"
      },
      "getTaskId(address,address,bytes4,(uint8[],bytes[]),address)": {
        "notice": "Helper function to compute task id with module arguments"
      },
      "getTaskIdsByUser(address)": {
        "notice": "Helper func to query all open tasks by a task creator."
      },
      "setModule(uint8[],address[])": {
        "notice": "Sets the address of task modules. Only callable by proxy admin."
      }
    },
    "notice": "Automate enables everyone to have Gelato monitor and execute transactions.ExecAddress refers to the contract that has the function which Gelato will call.Modules allow users to customise conditions and specifications when creating a task.",
    "version": 1
  },
  "storageLayout": {
    "storage": [
      {
        "astId": 2149,
        "contract": "contracts/Automate.sol:Automate",
        "label": "taskCreator",
        "offset": 0,
        "slot": "0",
        "type": "t_mapping(t_bytes32,t_address)"
      },
      {
        "astId": 2154,
        "contract": "contracts/Automate.sol:Automate",
        "label": "execAddresses",
        "offset": 0,
        "slot": "1",
        "type": "t_mapping(t_bytes32,t_address)"
      },
      {
        "astId": 2160,
        "contract": "contracts/Automate.sol:Automate",
        "label": "_createdTasks",
        "offset": 0,
        "slot": "2",
        "type": "t_mapping(t_address,t_struct(Bytes32Set)1247_storage)"
      },
      {
        "astId": 2162,
        "contract": "contracts/Automate.sol:Automate",
        "label": "fee",
        "offset": 0,
        "slot": "3",
        "type": "t_uint256"
      },
      {
        "astId": 2164,
        "contract": "contracts/Automate.sol:Automate",
        "label": "feeToken",
        "offset": 0,
        "slot": "4",
        "type": "t_address"
      },
      {
        "astId": 2170,
        "contract": "contracts/Automate.sol:Automate",
        "label": "timedTask",
        "offset": 0,
        "slot": "5",
        "type": "t_mapping(t_bytes32,t_struct(Time)5227_storage)"
      },
      {
        "astId": 2176,
        "contract": "contracts/Automate.sol:Automate",
        "label": "taskModuleAddresses",
        "offset": 0,
        "slot": "6",
        "type": "t_mapping(t_enum(Module)5214,t_address)"
      },
      {
        "astId": 2180,
        "contract": "contracts/Automate.sol:Automate",
        "label": "nonce1Balance",
        "offset": 0,
        "slot": "7",
        "type": "t_mapping(t_bytes32,t_uint256)"
      }
    ],
    "types": {
      "t_address": {
        "encoding": "inplace",
        "label": "address",
        "numberOfBytes": "20"
      },
      "t_array(t_bytes32)dyn_storage": {
        "base": "t_bytes32",
        "encoding": "dynamic_array",
        "label": "bytes32[]",
        "numberOfBytes": "32"
      },
      "t_bytes32": {
        "encoding": "inplace",
        "label": "bytes32",
        "numberOfBytes": "32"
      },
      "t_enum(Module)5214": {
        "encoding": "inplace",
        "label": "enum LibDataTypes.Module",
        "numberOfBytes": "1"
      },
      "t_mapping(t_address,t_struct(Bytes32Set)1247_storage)": {
        "encoding": "mapping",
        "key": "t_address",
        "label": "mapping(address => struct EnumerableSet.Bytes32Set)",
        "numberOfBytes": "32",
        "value": "t_struct(Bytes32Set)1247_storage"
      },
      "t_mapping(t_bytes32,t_address)": {
        "encoding": "mapping",
        "key": "t_bytes32",
        "label": "mapping(bytes32 => address)",
        "numberOfBytes": "32",
        "value": "t_address"
      },
      "t_mapping(t_bytes32,t_struct(Time)5227_storage)": {
        "encoding": "mapping",
        "key": "t_bytes32",
        "label": "mapping(bytes32 => struct LibDataTypes.Time)",
        "numberOfBytes": "32",
        "value": "t_struct(Time)5227_storage"
      },
      "t_mapping(t_bytes32,t_uint256)": {
        "encoding": "mapping",
        "key": "t_bytes32",
        "label": "mapping(bytes32 => uint256)",
        "numberOfBytes": "32",
        "value": "t_uint256"
      },
      "t_mapping(t_enum(Module)5214,t_address)": {
        "encoding": "mapping",
        "key": "t_enum(Module)5214",
        "label": "mapping(enum LibDataTypes.Module => address)",
        "numberOfBytes": "32",
        "value": "t_address"
      },
      "t_struct(Bytes32Set)1247_storage": {
        "encoding": "inplace",
        "label": "struct EnumerableSet.Bytes32Set",
        "members": [
          {
            "astId": 1246,
            "contract": "contracts/Automate.sol:Automate",
            "label": "_inner",
            "offset": 0,
            "slot": "0",
            "type": "t_struct(Set)1053_storage"
          }
        ],
        "numberOfBytes": "64"
      },
      "t_struct(Set)1053_storage": {
        "encoding": "inplace",
        "label": "struct EnumerableSet.Set",
        "members": [
          {
            "astId": 1048,
            "contract": "contracts/Automate.sol:Automate",
            "label": "_values",
            "offset": 0,
            "slot": "0",
            "type": "t_array(t_bytes32)dyn_storage"
          },
          {
            "astId": 1052,
            "contract": "contracts/Automate.sol:Automate",
            "label": "_indexes",
            "offset": 0,
            "slot": "1",
            "type": "t_mapping(t_bytes32,t_uint256)"
          }
        ],
        "numberOfBytes": "64"
      },
      "t_struct(Time)5227_storage": {
        "encoding": "inplace",
        "label": "struct LibDataTypes.Time",
        "members": [
          {
            "astId": 5224,
            "contract": "contracts/Automate.sol:Automate",
            "label": "nextExec",
            "offset": 0,
            "slot": "0",
            "type": "t_uint128"
          },
          {
            "astId": 5226,
            "contract": "contracts/Automate.sol:Automate",
            "label": "interval",
            "offset": 16,
            "slot": "0",
            "type": "t_uint128"
          }
        ],
        "numberOfBytes": "32"
      },
      "t_uint128": {
        "encoding": "inplace",
        "label": "uint128",
        "numberOfBytes": "16"
      },
      "t_uint256": {
        "encoding": "inplace",
        "label": "uint256",
        "numberOfBytes": "32"
      }
    }
  }
}