{
  "address": "0x88682F3D90ae60F65763F4f3A46044F620f948AB",
  "abi": [
    {
      "inputs": [
        {
          "internalType": "address payable",
          "name": "_gelato",
          "type": "address"
        },
        {
          "internalType": "contract ITaskTreasuryUpgradable",
          "name": "_taskTreasury",
          "type": "address"
        }
      ],
      "stateMutability": "nonpayable",
      "type": "constructor"
    },
    {
      "stateMutability": "nonpayable",
      "type": "fallback"
    },
    {
      "inputs": [
        {
          "internalType": "bytes32",
          "name": "_taskId",
          "type": "bytes32"
        }
      ],
      "name": "cancelTask",
      "outputs": [],
      "stateMutability": "nonpayable",
      "type": "function"
    },
    {
      "inputs": [
        {
          "internalType": "address",
          "name": "_execAddress",
          "type": "address"
        },
        {
          "internalType": "bytes",
          "name": "_execDataOrSelector",
          "type": "bytes"
        },
        {
          "components": [
            {
              "internalType": "enum LibDataTypes.Module[]",
              "name": "modules",
              "type": "uint8[]"
            },
            {
              "internalType": "bytes[]",
              "name": "args",
              "type": "bytes[]"
            }
          ],
          "internalType": "struct LibDataTypes.ModuleData",
          "name": "_moduleData",
          "type": "tuple"
        },
        {
          "internalType": "address",
          "name": "_feeToken",
          "type": "address"
        }
      ],
      "name": "createTask",
      "outputs": [
        {
          "internalType": "bytes32",
          "name": "taskId",
          "type": "bytes32"
        }
      ],
      "stateMutability": "nonpayable",
      "type": "function"
    },
    {
      "inputs": [
        {
          "internalType": "address",
          "name": "_taskCreator",
          "type": "address"
        },
        {
          "internalType": "address",
          "name": "_execAddress",
          "type": "address"
        },
        {
          "internalType": "bytes",
          "name": "_execData",
          "type": "bytes"
        },
        {
          "components": [
            {
              "internalType": "enum LibDataTypes.Module[]",
              "name": "modules",
              "type": "uint8[]"
            },
            {
              "internalType": "bytes[]",
              "name": "args",
              "type": "bytes[]"
            }
          ],
          "internalType": "struct LibDataTypes.ModuleData",
          "name": "_moduleData",
          "type": "tuple"
        },
        {
          "internalType": "uint256",
          "name": "_txFee",
          "type": "uint256"
        },
        {
          "internalType": "address",
          "name": "_feeToken",
          "type": "address"
        },
        {
          "internalType": "bool",
          "name": "_useTaskTreasuryFunds",
          "type": "bool"
        },
        {
          "internalType": "bool",
          "name": "_revertOnFailure",
          "type": "bool"
        }
      ],
      "name": "exec",
      "outputs": [],
      "stateMutability": "nonpayable",
      "type": "function"
    },
    {
      "inputs": [
        {
          "internalType": "bytes32",
          "name": "",
          "type": "bytes32"
        }
      ],
      "name": "execAddresses",
      "outputs": [
        {
          "internalType": "address",
          "name": "",
          "type": "address"
        }
      ],
      "stateMutability": "view",
      "type": "function"
    },
    {
      "inputs": [],
      "name": "fee",
      "outputs": [
        {
          "internalType": "uint256",
          "name": "",
          "type": "uint256"
        }
      ],
      "stateMutability": "view",
      "type": "function"
    },
    {
      "inputs": [],
      "name": "feeToken",
      "outputs": [
        {
          "internalType": "address",
          "name": "",
          "type": "address"
        }
      ],
      "stateMutability": "view",
      "type": "function"
    },
    {
      "inputs": [],
      "name": "gelato",
      "outputs": [
        {
          "internalType": "address payable",
          "name": "",
          "type": "address"
        }
      ],
      "stateMutability": "view",
      "type": "function"
    },
    {
      "inputs": [],
      "name": "getFeeDetails",
      "outputs": [
        {
          "internalType": "uint256",
          "name": "",
          "type": "uint256"
        },
        {
          "internalType": "address",
          "name": "",
          "type": "address"
        }
      ],
      "stateMutability": "view",
      "type": "function"
    },
    {
      "inputs": [
        {
          "internalType": "address",
          "name": "_taskCreator",
          "type": "address"
        }
      ],
      "name": "getTaskIdsByUser",
      "outputs": [
        {
          "internalType": "bytes32[]",
          "name": "",
          "type": "bytes32[]"
        }
      ],
      "stateMutability": "view",
      "type": "function"
    },
    {
      "inputs": [
        {
          "internalType": "enum LibDataTypes.Module[]",
          "name": "_modules",
          "type": "uint8[]"
        },
        {
          "internalType": "address[]",
          "name": "_moduleAddresses",
          "type": "address[]"
        }
      ],
      "name": "setModule",
      "outputs": [],
      "stateMutability": "nonpayable",
      "type": "function"
    },
    {
      "inputs": [
        {
          "internalType": "bytes32",
          "name": "",
          "type": "bytes32"
        }
      ],
      "name": "taskCreator",
      "outputs": [
        {
          "internalType": "address",
          "name": "",
          "type": "address"
        }
      ],
      "stateMutability": "view",
      "type": "function"
    },
    {
      "inputs": [
        {
          "internalType": "enum LibDataTypes.Module",
          "name": "",
          "type": "uint8"
        }
      ],
      "name": "taskModuleAddresses",
      "outputs": [
        {
          "internalType": "address",
          "name": "",
          "type": "address"
        }
      ],
      "stateMutability": "view",
      "type": "function"
    },
    {
      "inputs": [],
      "name": "taskTreasury",
      "outputs": [
        {
          "internalType": "contract ITaskTreasuryUpgradable",
          "name": "",
          "type": "address"
        }
      ],
      "stateMutability": "view",
      "type": "function"
    },
    {
      "inputs": [
        {
          "internalType": "bytes32",
          "name": "",
          "type": "bytes32"
        }
      ],
      "name": "timedTask",
      "outputs": [
        {
          "internalType": "uint128",
          "name": "nextExec",
          "type": "uint128"
        },
        {
          "internalType": "uint128",
          "name": "interval",
          "type": "uint128"
        }
      ],
      "stateMutability": "view",
      "type": "function"
    },
    {
      "inputs": [],
      "name": "version",
      "outputs": [
        {
          "internalType": "string",
          "name": "",
          "type": "string"
        }
      ],
      "stateMutability": "view",
      "type": "function"
    }
  ],
  "transactionHash": "0xfd81988cea7623f417bf12b8abf5dd8eaa966dfc93df9c531fef1d5671af5202",
  "args": [
    "0x0630d1b8C2df3F0a68Df578D02075027a6397173",
    "0x77F19aF4614572732767B569979Bc3B407d63a68"
  ],
  "numDeployments": 3,
  "solcInputHash": "46e05d039a6f051c260568df03bedd4f",
  "bytecode": "0x60c06040523480156200001157600080fd5b5060405162004c9238038062004c9283398181016040528101906200003791906200016c565b818073ffffffffffffffffffffffffffffffffffffffff1660808173ffffffffffffffffffffffffffffffffffffffff1681525050508073ffffffffffffffffffffffffffffffffffffffff1660a08173ffffffffffffffffffffffffffffffffffffffff16815250505050620001b3565b600080fd5b600073ffffffffffffffffffffffffffffffffffffffff82169050919050565b6000620000db82620000ae565b9050919050565b620000ed81620000ce565b8114620000f957600080fd5b50565b6000815190506200010d81620000e2565b92915050565b60006200012082620000ae565b9050919050565b6000620001348262000113565b9050919050565b620001468162000127565b81146200015257600080fd5b50565b60008151905062000166816200013b565b92915050565b60008060408385031215620001865762000185620000a9565b5b60006200019685828601620000fc565b9250506020620001a98582860162000155565b9150509250929050565b60805160a051614aab620001e7600039600081816108bb01526112f10152600081816104e901526106cd0152614aab6000f3fe608060405234801561001057600080fd5b50600436106100f95760003560e01c8063813785e611610097578063cd3d4fb911610066578063cd3d4fb9146102b8578063ddca3f43146102e8578063e60a321314610306578063ee8ca3b514610324576100fa565b8063813785e614610230578063ad558ab91461024c578063b810c63614610268578063b81cd86614610287576100fa565b806354fd4d50116100d357806354fd4d50146101a6578063573ea575146101c4578063647846a5146101e25780636d2dd29f14610200576100fa565b80630407145c146101165780632e6e0bd0146101465780633323b46714610176576100fa565b5b60003660606101098383610340565b9050915050805190602001f35b610130600480360381019061012b9190612d2e565b6103a8565b60405161013d9190612e23565b60405180910390f35b610160600480360381019061015b9190612e71565b6103fe565b60405161016d9190612ead565b60405180910390f35b610190600480360381019061018b9190612f51565b610431565b60405161019d9190613004565b60405180910390f35b6101ae6104ae565b6040516101bb91906130b8565b60405180910390f35b6101cc6104e7565b6040516101d991906130fb565b60405180910390f35b6101ea61050b565b6040516101f79190612ead565b60405180910390f35b61021a60048036038101906102159190612e71565b610531565b6040516102279190612ead565b60405180910390f35b61024a600480360381019061024591906131c2565b610564565b005b610266600480360381019061026191906133e1565b6106cb565b005b6102706107f3565b60405161027e9291906134de565b60405180910390f35b6102a1600480360381019061029c9190612e71565b610824565b6040516102af929190613532565b60405180910390f35b6102d260048036038101906102cd9190613580565b610880565b6040516102df9190612ead565b60405180910390f35b6102f06108b3565b6040516102fd91906135ad565b60405180910390f35b61030e6108b9565b60405161031b9190613627565b60405180910390f35b61033e60048036038101906103399190612e71565b6108dd565b005b6060600061034e84846108fb565b9050600080600080610361858989610a71565b935093509350935060006103783386868686610c39565b90508060405160200161038b9190613663565b604051602081830303815290604052965050505050505092915050565b606060006103f3600260008573ffffffffffffffffffffffffffffffffffffffff1673ffffffffffffffffffffffffffffffffffffffff168152602001908152602001600020610db7565b905080915050919050565b60006020528060005260406000206000915054906101000a900473ffffffffffffffffffffffffffffffffffffffff1681565b60008061044033886006610dcc565b80985081925050506104a2818888888080601f016020809104026020016040519081016040528093929190818152602001838380828437600081840152601f19601f820116905080830192505050505050508761049c906138b4565b87610c39565b91505095945050505050565b6040518060400160405280600181526020017f350000000000000000000000000000000000000000000000000000000000000081525081565b7f000000000000000000000000000000000000000000000000000000000000000081565b600460009054906101000a900473ffffffffffffffffffffffffffffffffffffffff1681565b60016020528060005260406000206000915054906101000a900473ffffffffffffffffffffffffffffffffffffffff1681565b61056c610f95565b73ffffffffffffffffffffffffffffffffffffffff163373ffffffffffffffffffffffffffffffffffffffff16146105d9576040517f08c379a00000000000000000000000000000000000000000000000000000000081526004016105d090613913565b60405180910390fd5b600084849050905060005b818110156106c3578383828181106105ff576105fe613933565b5b90506020020160208101906106149190612d2e565b6006600088888581811061062b5761062a613933565b5b90506020020160208101906106409190613580565b600381111561065257610651613962565b5b600381111561066457610663613962565b5b815260200190815260200160002060006101000a81548173ffffffffffffffffffffffffffffffffffffffff021916908373ffffffffffffffffffffffffffffffffffffffff16021790555080806106bb906139c0565b9150506105e4565b505050505050565b7f000000000000000000000000000000000000000000000000000000000000000073ffffffffffffffffffffffffffffffffffffffff163373ffffffffffffffffffffffffffffffffffffffff1614610759576040517f08c379a000000000000000000000000000000000000000000000000000000000815260040161075090613a54565b60405180910390fd5b600061078689896107698a610fbe565b89610773906138b4565b8761077e5788610781565b60005b611137565b90506107e8818a8a8a8a806000019061079f9190613a83565b80806020026020016040519081016040528093929190818152602001838360200280828437600081840152601f19601f820116905080830192505050505050508a8a8a8a6111f7565b505050505050505050565b600080600354600460009054906101000a900473ffffffffffffffffffffffffffffffffffffffff16915091509091565b60056020528060005260406000206000915090508060000160009054906101000a90046fffffffffffffffffffffffffffffffff16908060000160109054906101000a90046fffffffffffffffffffffffffffffffff16905082565b60066020528060005260406000206000915054906101000a900473ffffffffffffffffffffffffffffffffffffffff1681565b60035481565b7f000000000000000000000000000000000000000000000000000000000000000081565b60006108eb82336006611425565b90506108f781836115e2565b5050565b600060188383600381811061091357610912613933565b5b9050013560f81c60f81b7effffffffffffffffffffffffffffffffffffffffffffffffffffffffffffff19167bffffffffffffffffffffffffffffffffffffffffffffffffffffffff1916901c60108484600281811061097657610975613933565b5b9050013560f81c60f81b7effffffffffffffffffffffffffffffffffffffffffffffffffffffffffffff19167bffffffffffffffffffffffffffffffffffffffffffffffffffffffff1916901c6008858560018181106109d9576109d8613933565b5b9050013560f81c60f81b7effffffffffffffffffffffffffffffffffffffffffffffffffffffffffffff19167bffffffffffffffffffffffffffffffffffffffffffffffffffffffff1916901c85856000818110610a3a57610a39613933565b5b9050013560f81c60f81b7effffffffffffffffffffffffffffffffffffffffffffffffffffffffffffff1916171717905092915050565b60006060610a7d612ca2565b6000638b92696a60e01b7bffffffffffffffffffffffffffffffffffffffffffffffffffffffff1916877bffffffffffffffffffffffffffffffffffffffffffffffffffffffff191603610afb57610ae686866004908092610ae193929190613af0565b611701565b80945081955082965083975050505050610c30565b63b9f45adb60e01b7bffffffffffffffffffffffffffffffffffffffffffffffffffffffff1916877bffffffffffffffffffffffffffffffffffffffffffffffffffffffff191603610b7757610b6286866004908092610b5d93929190613af0565b6118a8565b80945081955082965083975050505050610c2f565b63a873882560e01b7bffffffffffffffffffffffffffffffffffffffffffffffffffffffff1916877bffffffffffffffffffffffffffffffffffffffffffffffffffffffff191603610bf357610bde86866004908092610bd993929190613af0565b611a4f565b80945081955082965083975050505050610c2e565b6040517f08c379a0000000000000000000000000000000000000000000000000000000008152600401610c2590613b9d565b60405180910390fd5b5b5b93509350935093565b6000610c508686610c4987610fbe565b8686611137565b9050610ca381600260008973ffffffffffffffffffffffffffffffffffffffff1673ffffffffffffffffffffffffffffffffffffffff168152602001908152602001600020611c1390919063ffffffff16565b15610ce3576040517f08c379a0000000000000000000000000000000000000000000000000000000008152600401610cda90613c09565b60405180910390fd5b610cf281878787876006611c2a565b610d4381600260008973ffffffffffffffffffffffffffffffffffffffff1673ffffffffffffffffffffffffffffffffffffffff168152602001908152602001600020611dfc90919063ffffffff16565b50808573ffffffffffffffffffffffffffffffffffffffff168773ffffffffffffffffffffffffffffffffffffffff167f73f079427211e7b93db86024054de0b3c4a076a36cf0f86d2c4bf0d112eb7f1d878787604051610da693929190613ec5565b60405180910390a495945050505050565b6060610dc582600001611e13565b9050919050565b6000806000600380811115610de457610de3613962565b5b905060005b818111610f85576000816003811115610e0557610e04613962565b5b9050610e22816003811115610e1d57610e1c613962565b5b611e6f565b610e2c5750610f72565b6000866000836003811115610e4457610e43613962565b5b6003811115610e5657610e55613962565b5b815260200190815260200160002060009054906101000a900473ffffffffffffffffffffffffffffffffffffffff169050610e9081611eb0565b60006376474e6a60e01b8a8a604051602401610ead929190613f0a565b604051602081830303815290604052907bffffffffffffffffffffffffffffffffffffffffffffffffffffffff19166020820180517bffffffffffffffffffffffffffffffffffffffffffffffffffffffff838183161783525050505090506000610f4e83836040518060400160405280601381526020017f4f70732e7072654372656174655461736b3a2000000000000000000000000000815250611f22565b91505080806020019051810190610f659190613f5f565b809b50819c505050505050505b8080610f7d906139c0565b915050610de9565b5085859250925050935093915050565b60007fb53127684a568b3173ae13b9f8a6016e243e63b6e8ee1178d6a717850b5d610354905090565b6000601882600381518110610fd657610fd5613933565b5b602001015160f81c60f81b7effffffffffffffffffffffffffffffffffffffffffffffffffffffffffffff19167bffffffffffffffffffffffffffffffffffffffffffffffffffffffff1916901c60108360028151811061103a57611039613933565b5b602001015160f81c60f81b7effffffffffffffffffffffffffffffffffffffffffffffffffffffffffffff19167bffffffffffffffffffffffffffffffffffffffffffffffffffffffff1916901c60088460018151811061109e5761109d613933565b5b602001015160f81c60f81b7effffffffffffffffffffffffffffffffffffffffffffffffffffffffffffff19167bffffffffffffffffffffffffffffffffffffffffffffffffffffffff1916901c84600081518110611100576110ff613933565b5b602001015160f81c60f81b7effffffffffffffffffffffffffffffffffffffffffffffffffffffffffffff19161717179050919050565b60006111468360000151611fac565b156111bc576000611175846020015160008151811061116857611167613933565b5b60200260200101516120bd565b90506111b4878787600073ffffffffffffffffffffffffffffffffffffffff168773ffffffffffffffffffffffffffffffffffffffff161487866120ce565b9150506111ee565b85858585856040516020016111d5959493929190613fda565b6040516020818303038152906040528051906020012090505b95945050505050565b61124889600260008b73ffffffffffffffffffffffffffffffffffffffff1673ffffffffffffffffffffffffffffffffffffffff168152602001908152602001600020611c1390919063ffffffff16565b611287576040517f08c379a000000000000000000000000000000000000000000000000000000000815260040161127e90614080565b60405180910390fd5b816112d5578360038190555082600460006101000a81548173ffffffffffffffffffffffffffffffffffffffff021916908373ffffffffffffffffffffffffffffffffffffffff1602179055505b60006112e78a8a8a8a8a87600661210d565b90508215611383577f000000000000000000000000000000000000000000000000000000000000000073ffffffffffffffffffffffffffffffffffffffff1663a3f1233e8a86886040518463ffffffff1660e01b815260040161134c939291906140a0565b600060405180830381600087803b15801561136657600080fd5b505af115801561137a573d6000803e3d6000fd5b505050506113af565b600360009055600460006101000a81549073ffffffffffffffffffffffffffffffffffffffff02191690555b8773ffffffffffffffffffffffffffffffffffffffff168473ffffffffffffffffffffffffffffffffffffffff16867fa458375b1282695a972870cbfbc4891a9d856b79d563d17667d171d87e0c527a8a8e86604051611411939291906140e6565b60405180910390a450505050505050505050565b60008060038081111561143b5761143a613962565b5b905060005b8181116115d657600081600381111561145c5761145b613962565b5b905061147981600381111561147457611473613962565b5b6121b5565b61148357506115c3565b600085600083600381111561149b5761149a613962565b5b60038111156114ad576114ac613962565b5b815260200190815260200160002060009054906101000a900473ffffffffffffffffffffffffffffffffffffffff1690506114e781611eb0565b60006314ae992660e01b8989604051602401611504929190614124565b604051602081830303815290604052907bffffffffffffffffffffffffffffffffffffffffffffffffffffffff19166020820180517bffffffffffffffffffffffffffffffffffffffffffffffffffffffff8381831617835250505050905060006115a583836040518060400160405280601381526020017f4f70732e70726543616e63656c5461736b3a2000000000000000000000000000815250611f22565b915050808060200190518101906115bc919061414d565b9850505050505b80806115ce906139c0565b915050611440565b50839150509392505050565b61163381600260008573ffffffffffffffffffffffffffffffffffffffff1673ffffffffffffffffffffffffffffffffffffffff168152602001908152602001600020611c1390919063ffffffff16565b611672576040517f08c379a0000000000000000000000000000000000000000000000000000000008152600401611669906141c6565b60405180910390fd5b6116c381600260008573ffffffffffffffffffffffffffffffffffffffff1673ffffffffffffffffffffffffffffffffffffffff16815260200190815260200160002061222690919063ffffffff16565b507f44d83729a43f9c6046446df014d073dd242e0ad672071e9b292f31b669c25b0981836040516116f5929190614124565b60405180910390a15050565b6000606061170d612ca2565b6000806000606088888101906117239190614227565b809450819550829650839a50505050506000600167ffffffffffffffff8111156117505761174f613248565b5b60405190808252806020026020018201604052801561177e5781602001602082028036833780820191505090505b50905060008160008151811061179757611796613933565b5b602002602001019060038111156117b1576117b0613962565b5b908160038111156117c5576117c4613962565b5b815250506000600167ffffffffffffffff8111156117e6576117e5613248565b5b60405190808252806020026020018201604052801561181957816020015b60608152602001906001900390816118045790505b509050838360405160200161182f9291906142aa565b6040516020818303038152906040528160008151811061185257611851613933565b5b602002602001018190525060405180604001604052808381526020018281525096508460405160200161188591906142fb565b604051602081830303815290604052975060009550505050505092959194509250565b600060606118b4612ca2565b6000806000606088888101906118ca9190614316565b809850819550829650839750849b5050505050506000600167ffffffffffffffff8111156118fb576118fa613248565b5b6040519080825280602002602001820160405280156119295781602001602082028036833780820191505090505b50905060008160008151811061194257611941613933565b5b6020026020010190600381111561195c5761195b613962565b5b908160038111156119705761196f613962565b5b815250506000600167ffffffffffffffff81111561199157611990613248565b5b6040519080825280602002602001820160405280156119c457816020015b60608152602001906001900390816119af5790505b50905083836040516020016119da9291906142aa565b604051602081830303815290604052816000815181106119fd576119fc613933565b5b6020026020010181905250604051806040016040528083815260200182815250965084604051602001611a3091906142fb565b6040516020818303038152906040529750505050505092959194509250565b60006060611a5b612ca2565b6000606080611a6a888861223d565b809550819650829750839950849a5050505050506000600267ffffffffffffffff811115611a9b57611a9a613248565b5b604051908082528060200260200182016040528015611ac95781602001602082028036833780820191505090505b509050600081600081518110611ae257611ae1613933565b5b60200260200101906003811115611afc57611afb613962565b5b90816003811115611b1057611b0f613962565b5b81525050600181600181518110611b2a57611b29613933565b5b60200260200101906003811115611b4457611b43613962565b5b90816003811115611b5857611b57613962565b5b815250506000600267ffffffffffffffff811115611b7957611b78613248565b5b604051908082528060200260200182016040528015611bac57816020015b6060815260200190600190039081611b975790505b5090508381600081518110611bc457611bc3613933565b5b60200260200101819052508281600181518110611be457611be3613933565b5b602002602001018190525060405180604001604052808381526020018281525095505050505092959194509250565b6000611c228360000183612303565b905092915050565b60008260000151519050611c42818460000151612326565b60005b81811015611df257600084600001518281518110611c6657611c65613933565b5b60200260200101519050611c8b816003811115611c8657611c85613962565b5b612405565b611c955750611ddf565b6000846000836003811115611cad57611cac613962565b5b6003811115611cbf57611cbe613962565b5b815260200190815260200160002060009054906101000a900473ffffffffffffffffffffffffffffffffffffffff169050611cf981611eb0565b600063b0ccbdf060e01b8b8b8b8b8b602001518981518110611d1e57611d1d613933565b5b6020026020010151604051602401611d3a9594939291906143ad565b604051602081830303815290604052907bffffffffffffffffffffffffffffffffffffffffffffffffffffffff19166020820180517bffffffffffffffffffffffffffffffffffffffffffffffffffffffff83818316178352505050509050611dd982826040518060400160405280601281526020017f4f70732e6f6e4372656174655461736b3a200000000000000000000000000000815250611f22565b50505050505b8080611dea906139c0565b915050611c45565b5050505050505050565b6000611e0b8360000183612476565b905092915050565b606081600001805480602002602001604051908101604052809291908181526020018280548015611e6357602002820191906000526020600020905b815481526020019060010190808311611e4f575b50505050509050919050565b600060026003811115611e8557611e84613962565b5b826003811115611e9857611e97613962565b5b03611ea65760019050611eab565b600090505b919050565b600073ffffffffffffffffffffffffffffffffffffffff168173ffffffffffffffffffffffffffffffffffffffff1603611f1f576040517f08c379a0000000000000000000000000000000000000000000000000000000008152600401611f169061445a565b60405180910390fd5b50565b600060608473ffffffffffffffffffffffffffffffffffffffff1684604051611f4b91906144b6565b600060405180830381855af49150503d8060008114611f86576040519150601f19603f3d011682016040523d82523d6000602084013e611f8b565b606091505b50809250819350505081611fa457611fa381846124e6565b5b935093915050565b60008082519050600181148015612002575060006003811115611fd257611fd1613962565b5b83600081518110611fe657611fe5613933565b5b6020026020010151600381111561200057611fff613962565b5b145b806120a3575060028114801561205757506000600381111561202757612026613962565b5b8360008151811061203b5761203a613933565b5b6020026020010151600381111561205557612054613962565b5b145b80156120a257506001600381111561207257612071613962565b5b8360018151811061208657612085613933565b5b602002602001015160038111156120a05761209f613962565b5b145b5b156120b25760019150506120b8565b60009150505b919050565b600081805190602001209050919050565b60008686868686866040516020016120eb969594939291906144cd565b6040516020818303038152906040528051906020012090509695505050505050565b60008061211a858461264d565b905061212a89898989898661278a565b809750819850505061219687878a604051602001612149929190614576565b6040516020818303038152906040526000876040518060400160405280600a81526020017f4f70732e657865633a20000000000000000000000000000000000000000000008152506128fd565b50809250506121a9898989898986612997565b50979650505050505050565b6000600160038111156121cb576121ca613962565b5b8260038111156121de576121dd613962565b5b148061220e5750600260038111156121f9576121f8613962565b5b82600381111561220c5761220b613962565b5b145b1561221c5760019050612221565b600090505b919050565b60006122358360000183612add565b905092915050565b6000606060006060806000806000806000806000808e8e81019061226191906145ca565b97509750975097509750975097509750858560405160200161228391906142fb565b6040516020818303038152906040528261229d57836122a0565b60005b93508386866040516020016122b69291906142aa565b6040516020818303038152906040528b8b6040516020016122d8929190613532565b6040516020818303038152906040529c509c509c509c509c5050505050505050509295509295909350565b600080836001016000848152602001908152602001600020541415905092915050565b60018211156124015760005b60018361233f919061469c565b8110156123ff5781818151811061235957612358613933565b5b6020026020010151600381111561237357612372613962565b5b8260018361238191906146d0565b8151811061239257612391613933565b5b602002602001015160038111156123ac576123ab613962565b5b116123ec576040517f08c379a00000000000000000000000000000000000000000000000000000000081526004016123e390614772565b60405180910390fd5b80806123f7906139c0565b915050612332565b505b5050565b60006001600381111561241b5761241a613962565b5b82600381111561242e5761242d613962565b5b148061245e57506002600381111561244957612448613962565b5b82600381111561245c5761245b613962565b5b145b1561246c5760019050612471565b600090505b919050565b60006124828383612303565b6124db5782600001829080600181540180825580915050600190039060005260206000200160009091909190915055826000018054905083600101600084815260200190815260200160002081905550600190506124e0565b600090505b92915050565b6004602083516124f691906147c1565b036125f1576000826020015190506308c379a060e01b817bffffffffffffffffffffffffffffffffffffffffffffffffffffffff19160361259557604483019250818360405160200161254a92919061482e565b6040516020818303038152906040526040517f08c379a000000000000000000000000000000000000000000000000000000000815260040161258c91906130b8565b60405180910390fd5b816040516020016125a6919061489e565b6040516020818303038152906040526040517f08c379a00000000000000000000000000000000000000000000000000000000081526004016125e891906130b8565b60405180910390fd5b80604051602001612602919061490c565b6040516020818303038152906040526040517f08c379a000000000000000000000000000000000000000000000000000000000815260040161264491906130b8565b60405180910390fd5b606060008351905060008167ffffffffffffffff81111561267157612670613248565b5b60405190808252806020026020018201604052801561269f5781602001602082028036833780820191505090505b50905060005b8281101561277e578460008783815181106126c3576126c2613933565b5b602002602001015160038111156126dd576126dc613962565b5b60038111156126ef576126ee613962565b5b815260200190815260200160002060009054906101000a900473ffffffffffffffffffffffffffffffffffffffff1682828151811061273157612730613933565b5b602002602001019073ffffffffffffffffffffffffffffffffffffffff16908173ffffffffffffffffffffffffffffffffffffffff16815250508080612776906139c0565b9150506126a5565b50809250505092915050565b6000606060008451905060005b818110156128ea576127d48682815181106127b5576127b4613933565b5b602002602001015160038111156127cf576127ce613962565b5b612bf1565b156128d757600063c10304f760e01b8b8b8b8b6040516024016127fa949392919061492e565b604051602081830303815290604052907bffffffffffffffffffffffffffffffffffffffffffffffffffffffff19166020820180517bffffffffffffffffffffffffffffffffffffffffffffffffffffffff8381831617835250505050905060006128b587848151811061287157612870613933565b5b6020026020010151836040518060400160405280601181526020017f4f70732e7072654578656343616c6c3a20000000000000000000000000000000815250611f22565b915050808060200190518101906128cc91906149ea565b809a50819b50505050505b80806128e2906139c0565b915050612797565b5086869250925050965096945050505050565b600060608673ffffffffffffffffffffffffffffffffffffffff16858760405161292791906144b6565b60006040518083038185875af1925050503d8060008114612964576040519150601f19603f3d011682016040523d82523d6000602084013e612969565b606091505b5080925081935050508115801561297d5750835b1561298d5761298c81846124e6565b5b9550959350505050565b60008151905060005b81811015612ad3576129dd8482815181106129be576129bd613933565b5b602002602001015160038111156129d8576129d7613962565b5b612c62565b15612ac057600063b2db0b4160e01b89898989604051602401612a03949392919061492e565b604051602081830303815290604052907bffffffffffffffffffffffffffffffffffffffffffffffffffffffff19166020820180517bffffffffffffffffffffffffffffffffffffffffffffffffffffffff83818316178352505050509050612abc848381518110612a7857612a77613933565b5b6020026020010151826040518060400160405280601281526020017f4f70732e706f73744578656343616c6c3a200000000000000000000000000000815250611f22565b5050505b8080612acb906139c0565b9150506129a0565b5050505050505050565b60008083600101600084815260200190815260200160002054905060008114612be5576000600182612b0f919061469c565b9050600060018660000180549050612b27919061469c565b9050818114612b96576000866000018281548110612b4857612b47613933565b5b9060005260206000200154905080876000018481548110612b6c57612b6b613933565b5b90600052602060002001819055508387600101600083815260200190815260200160002081905550505b85600001805480612baa57612ba9614a46565b5b600190038181906000526020600020016000905590558560010160008681526020019081526020016000206000905560019350505050612beb565b60009150505b92915050565b600060016003811115612c0757612c06613962565b5b826003811115612c1a57612c19613962565b5b1480612c4a575060026003811115612c3557612c34613962565b5b826003811115612c4857612c47613962565b5b145b15612c585760019050612c5d565b600090505b919050565b6000600380811115612c7757612c76613962565b5b826003811115612c8a57612c89613962565b5b03612c985760019050612c9d565b600090505b919050565b604051806040016040528060608152602001606081525090565b6000604051905090565b600080fd5b600080fd5b600073ffffffffffffffffffffffffffffffffffffffff82169050919050565b6000612cfb82612cd0565b9050919050565b612d0b81612cf0565b8114612d1657600080fd5b50565b600081359050612d2881612d02565b92915050565b600060208284031215612d4457612d43612cc6565b5b6000612d5284828501612d19565b91505092915050565b600081519050919050565b600082825260208201905092915050565b6000819050602082019050919050565b6000819050919050565b612d9a81612d87565b82525050565b6000612dac8383612d91565b60208301905092915050565b6000602082019050919050565b6000612dd082612d5b565b612dda8185612d66565b9350612de583612d77565b8060005b83811015612e16578151612dfd8882612da0565b9750612e0883612db8565b925050600181019050612de9565b5085935050505092915050565b60006020820190508181036000830152612e3d8184612dc5565b905092915050565b612e4e81612d87565b8114612e5957600080fd5b50565b600081359050612e6b81612e45565b92915050565b600060208284031215612e8757612e86612cc6565b5b6000612e9584828501612e5c565b91505092915050565b612ea781612cf0565b82525050565b6000602082019050612ec26000830184612e9e565b92915050565b600080fd5b600080fd5b600080fd5b60008083601f840112612eed57612eec612ec8565b5b8235905067ffffffffffffffff811115612f0a57612f09612ecd565b5b602083019150836001820283011115612f2657612f25612ed2565b5b9250929050565b600080fd5b600060408284031215612f4857612f47612f2d565b5b81905092915050565b600080600080600060808688031215612f6d57612f6c612cc6565b5b6000612f7b88828901612d19565b955050602086013567ffffffffffffffff811115612f9c57612f9b612ccb565b5b612fa888828901612ed7565b9450945050604086013567ffffffffffffffff811115612fcb57612fca612ccb565b5b612fd788828901612f32565b9250506060612fe888828901612d19565b9150509295509295909350565b612ffe81612d87565b82525050565b60006020820190506130196000830184612ff5565b92915050565b600081519050919050565b600082825260208201905092915050565b60005b8381101561305957808201518184015260208101905061303e565b83811115613068576000848401525b50505050565b6000601f19601f8301169050919050565b600061308a8261301f565b613094818561302a565b93506130a481856020860161303b565b6130ad8161306e565b840191505092915050565b600060208201905081810360008301526130d2818461307f565b905092915050565b60006130e582612cd0565b9050919050565b6130f5816130da565b82525050565b600060208201905061311060008301846130ec565b92915050565b60008083601f84011261312c5761312b612ec8565b5b8235905067ffffffffffffffff81111561314957613148612ecd565b5b60208301915083602082028301111561316557613164612ed2565b5b9250929050565b60008083601f84011261318257613181612ec8565b5b8235905067ffffffffffffffff81111561319f5761319e612ecd565b5b6020830191508360208202830111156131bb576131ba612ed2565b5b9250929050565b600080600080604085870312156131dc576131db612cc6565b5b600085013567ffffffffffffffff8111156131fa576131f9612ccb565b5b61320687828801613116565b9450945050602085013567ffffffffffffffff81111561322957613228612ccb565b5b6132358782880161316c565b925092505092959194509250565b600080fd5b7f4e487b7100000000000000000000000000000000000000000000000000000000600052604160045260246000fd5b6132808261306e565b810181811067ffffffffffffffff8211171561329f5761329e613248565b5b80604052505050565b60006132b2612cbc565b90506132be8282613277565b919050565b600067ffffffffffffffff8211156132de576132dd613248565b5b6132e78261306e565b9050602081019050919050565b82818337600083830152505050565b6000613316613311846132c3565b6132a8565b90508281526020810184848401111561333257613331613243565b5b61333d8482856132f4565b509392505050565b600082601f83011261335a57613359612ec8565b5b813561336a848260208601613303565b91505092915050565b6000819050919050565b61338681613373565b811461339157600080fd5b50565b6000813590506133a38161337d565b92915050565b60008115159050919050565b6133be816133a9565b81146133c957600080fd5b50565b6000813590506133db816133b5565b92915050565b600080600080600080600080610100898b03121561340257613401612cc6565b5b60006134108b828c01612d19565b98505060206134218b828c01612d19565b975050604089013567ffffffffffffffff81111561344257613441612ccb565b5b61344e8b828c01613345565b965050606089013567ffffffffffffffff81111561346f5761346e612ccb565b5b61347b8b828c01612f32565b955050608061348c8b828c01613394565b94505060a061349d8b828c01612d19565b93505060c06134ae8b828c016133cc565b92505060e06134bf8b828c016133cc565b9150509295985092959890939650565b6134d881613373565b82525050565b60006040820190506134f360008301856134cf565b6135006020830184612e9e565b9392505050565b60006fffffffffffffffffffffffffffffffff82169050919050565b61352c81613507565b82525050565b60006040820190506135476000830185613523565b6135546020830184613523565b9392505050565b6004811061356857600080fd5b50565b60008135905061357a8161355b565b92915050565b60006020828403121561359657613595612cc6565b5b60006135a48482850161356b565b91505092915050565b60006020820190506135c260008301846134cf565b92915050565b6000819050919050565b60006135ed6135e86135e384612cd0565b6135c8565b612cd0565b9050919050565b60006135ff826135d2565b9050919050565b6000613611826135f4565b9050919050565b61362181613606565b82525050565b600060208201905061363c6000830184613618565b92915050565b6000819050919050565b61365d61365882612d87565b613642565b82525050565b600061366f828461364c565b60208201915081905092915050565b600080fd5b600080fd5b600067ffffffffffffffff8211156136a3576136a2613248565b5b602082029050602081019050919050565b60006136c76136c284613688565b6132a8565b905080838252602082019050602084028301858111156136ea576136e9612ed2565b5b835b8181101561371357806136ff888261356b565b8452602084019350506020810190506136ec565b5050509392505050565b600082601f83011261373257613731612ec8565b5b81356137428482602086016136b4565b91505092915050565b600067ffffffffffffffff82111561376657613765613248565b5b602082029050602081019050919050565b600061378a6137858461374b565b6132a8565b905080838252602082019050602084028301858111156137ad576137ac612ed2565b5b835b818110156137f457803567ffffffffffffffff8111156137d2576137d1612ec8565b5b8086016137df8982613345565b855260208501945050506020810190506137af565b5050509392505050565b600082601f83011261381357613812612ec8565b5b8135613823848260208601613777565b91505092915050565b6000604082840312156138425761384161367e565b5b61384c60406132a8565b9050600082013567ffffffffffffffff81111561386c5761386b613683565b5b6138788482850161371d565b600083015250602082013567ffffffffffffffff81111561389c5761389b613683565b5b6138a8848285016137fe565b60208301525092915050565b60006138c0368361382c565b9050919050565b7f4e4f545f415554484f52495a4544000000000000000000000000000000000000600082015250565b60006138fd600e8361302a565b9150613908826138c7565b602082019050919050565b6000602082019050818103600083015261392c816138f0565b9050919050565b7f4e487b7100000000000000000000000000000000000000000000000000000000600052603260045260246000fd5b7f4e487b7100000000000000000000000000000000000000000000000000000000600052602160045260246000fd5b7f4e487b7100000000000000000000000000000000000000000000000000000000600052601160045260246000fd5b60006139cb82613373565b91507fffffffffffffffffffffffffffffffffffffffffffffffffffffffffffffffff82036139fd576139fc613991565b5b600182019050919050565b7f47656c61746f666965643a204f6e6c792067656c61746f000000000000000000600082015250565b6000613a3e60178361302a565b9150613a4982613a08565b602082019050919050565b60006020820190508181036000830152613a6d81613a31565b9050919050565b600080fd5b600080fd5b600080fd5b60008083356001602003843603038112613aa057613a9f613a74565b5b80840192508235915067ffffffffffffffff821115613ac257613ac1613a79565b5b602083019250602082023603831315613ade57613add613a7e565b5b509250929050565b600080fd5b600080fd5b60008085851115613b0457613b03613ae6565b5b83861115613b1557613b14613aeb565b5b6001850283019150848603905094509492505050565b7f4f70732e6372656174655461736b3a2046756e6374696f6e206e6f7420666f7560008201527f6e64000000000000000000000000000000000000000000000000000000000000602082015250565b6000613b8760228361302a565b9150613b9282613b2b565b604082019050919050565b60006020820190508181036000830152613bb681613b7a565b9050919050565b7f4f70732e6372656174655461736b3a204475706c6963617465207461736b0000600082015250565b6000613bf3601e8361302a565b9150613bfe82613bbd565b602082019050919050565b60006020820190508181036000830152613c2281613be6565b9050919050565b600081519050919050565b600082825260208201905092915050565b6000613c5082613c29565b613c5a8185613c34565b9350613c6a81856020860161303b565b613c738161306e565b840191505092915050565b600081519050919050565b600082825260208201905092915050565b6000819050602082019050919050565b60048110613cbb57613cba613962565b5b50565b6000819050613ccc82613caa565b919050565b6000613cdc82613cbe565b9050919050565b613cec81613cd1565b82525050565b6000613cfe8383613ce3565b60208301905092915050565b6000602082019050919050565b6000613d2282613c7e565b613d2c8185613c89565b9350613d3783613c9a565b8060005b83811015613d68578151613d4f8882613cf2565b9750613d5a83613d0a565b925050600181019050613d3b565b5085935050505092915050565b600081519050919050565b600082825260208201905092915050565b6000819050602082019050919050565b600082825260208201905092915050565b6000613dbd82613c29565b613dc78185613da1565b9350613dd781856020860161303b565b613de08161306e565b840191505092915050565b6000613df78383613db2565b905092915050565b6000602082019050919050565b6000613e1782613d75565b613e218185613d80565b935083602082028501613e3385613d91565b8060005b85811015613e6f5784840389528151613e508582613deb565b9450613e5b83613dff565b925060208a01995050600181019050613e37565b50829750879550505050505092915050565b60006040830160008301518482036000860152613e9e8282613d17565b91505060208301518482036020860152613eb88282613e0c565b9150508091505092915050565b60006060820190508181036000830152613edf8186613c45565b90508181036020830152613ef38185613e81565b9050613f026040830184612e9e565b949350505050565b6000604082019050613f1f6000830185612e9e565b613f2c6020830184612e9e565b9392505050565b613f3c816130da565b8114613f4757600080fd5b50565b600081519050613f5981613f33565b92915050565b60008060408385031215613f7657613f75612cc6565b5b6000613f8485828601613f4a565b9250506020613f9585828601613f4a565b9150509250929050565b60007fffffffff0000000000000000000000000000000000000000000000000000000082169050919050565b613fd481613f9f565b82525050565b600060a082019050613fef6000830188612e9e565b613ffc6020830187612e9e565b6140096040830186613fcb565b818103606083015261401b8185613e81565b905061402a6080830184612e9e565b9695505050505050565b7f4f70732e657865633a205461736b206e6f7420666f756e640000000000000000600082015250565b600061406a60188361302a565b915061407582614034565b602082019050919050565b600060208201905081810360008301526140998161405d565b9050919050565b60006060820190506140b56000830186612e9e565b6140c26020830185612e9e565b6140cf60408301846134cf565b949350505050565b6140e0816133a9565b82525050565b600060608201905081810360008301526141008186613c45565b905061410f6020830185612ff5565b61411c60408301846140d7565b949350505050565b60006040820190506141396000830185612ff5565b6141466020830184612e9e565b9392505050565b60006020828403121561416357614162612cc6565b5b600061417184828501613f4a565b91505092915050565b7f4f70732e63616e63656c5461736b3a205461736b206e6f7420666f756e640000600082015250565b60006141b0601e8361302a565b91506141bb8261417a565b602082019050919050565b600060208201905081810360008301526141df816141a3565b9050919050565b6000813590506141f581613f33565b92915050565b61420481613f9f565b811461420f57600080fd5b50565b600081359050614221816141fb565b92915050565b6000806000806080858703121561424157614240612cc6565b5b600061424f878288016141e6565b945050602061426087828801614212565b9350506040614271878288016141e6565b925050606085013567ffffffffffffffff81111561429257614291612ccb565b5b61429e87828801613345565b91505092959194509250565b60006040820190506142bf6000830185612e9e565b81810360208301526142d18184613c45565b90509392505050565b6000819050919050565b6142f56142f082613f9f565b6142da565b82525050565b600061430782846142e4565b60048201915081905092915050565b600080600080600060a0868803121561433257614331612cc6565b5b6000614340888289016141e6565b955050602061435188828901614212565b9450506040614362888289016141e6565b935050606086013567ffffffffffffffff81111561438357614382612ccb565b5b61438f88828901613345565b92505060806143a0888289016141e6565b9150509295509295909350565b600060a0820190506143c26000830188612ff5565b6143cf6020830187612e9e565b6143dc6040830186612e9e565b81810360608301526143ee8185613c45565b905081810360808301526144028184613c45565b90509695505050505050565b7f4f70732e5f6d6f64756c65496e697469616c697365643a204e6f7420696e6974600082015250565b600061444460208361302a565b915061444f8261440e565b602082019050919050565b6000602082019050818103600083015261447381614437565b9050919050565b600081905092915050565b600061449082613c29565b61449a818561447a565b93506144aa81856020860161303b565b80840191505092915050565b60006144c28284614485565b915081905092915050565b600060c0820190506144e26000830189612e9e565b6144ef6020830188612e9e565b6144fc6040830187613fcb565b61450960608301866140d7565b6145166080830185612e9e565b61452360a0830184612ff5565b979650505050505050565b60008160601b9050919050565b60006145468261452e565b9050919050565b60006145588261453b565b9050919050565b61457061456b82612cf0565b61454d565b82525050565b60006145828285614485565b915061458e828461455f565b6014820191508190509392505050565b6145a781613507565b81146145b257600080fd5b50565b6000813590506145c48161459e565b92915050565b600080600080600080600080610100898b0312156145eb576145ea612cc6565b5b60006145f98b828c016145b5565b985050602061460a8b828c016145b5565b975050604061461b8b828c016141e6565b965050606061462c8b828c01614212565b955050608061463d8b828c016141e6565b94505060a089013567ffffffffffffffff81111561465e5761465d612ccb565b5b61466a8b828c01613345565b93505060c061467b8b828c016141e6565b92505060e061468c8b828c016133cc565b9150509295985092959890939650565b60006146a782613373565b91506146b283613373565b9250828210156146c5576146c4613991565b5b828203905092915050565b60006146db82613373565b91506146e683613373565b9250827fffffffffffffffffffffffffffffffffffffffffffffffffffffffffffffffff0382111561471b5761471a613991565b5b828201905092915050565b7f4f70732e5f76616c69644d6f64756c65733a20417363206f6e6c790000000000600082015250565b600061475c601b8361302a565b915061476782614726565b602082019050919050565b6000602082019050818103600083015261478b8161474f565b9050919050565b7f4e487b7100000000000000000000000000000000000000000000000000000000600052601260045260246000fd5b60006147cc82613373565b91506147d783613373565b9250826147e7576147e6614792565b5b828206905092915050565b600081905092915050565b60006148088261301f565b61481281856147f2565b935061482281856020860161303b565b80840191505092915050565b600061483a82856147fd565b915061484682846147fd565b91508190509392505050565b7f4e6f4572726f7253656c6563746f720000000000000000000000000000000000600082015250565b6000614888600f836147f2565b915061489382614852565b600f82019050919050565b60006148aa82846147fd565b91506148b58261487b565b915081905092915050565b7f556e657870656374656452657475726e64617461000000000000000000000000600082015250565b60006148f66014836147f2565b9150614901826148c0565b601482019050919050565b600061491882846147fd565b9150614923826148e9565b915081905092915050565b60006080820190506149436000830187612ff5565b6149506020830186612e9e565b61495d6040830185612e9e565b818103606083015261496f8184613c45565b905095945050505050565b600061498d614988846132c3565b6132a8565b9050828152602081018484840111156149a9576149a8613243565b5b6149b484828561303b565b509392505050565b600082601f8301126149d1576149d0612ec8565b5b81516149e184826020860161497a565b91505092915050565b60008060408385031215614a0157614a00612cc6565b5b6000614a0f85828601613f4a565b925050602083015167ffffffffffffffff811115614a3057614a2f612ccb565b5b614a3c858286016149bc565b9150509250929050565b7f4e487b7100000000000000000000000000000000000000000000000000000000600052603160045260246000fdfea26469706673582212208a7c5895a684964e9fd2ad64662b6459b834eb67af0b300ecf93d82ea4f1f7f864736f6c634300080e0033",
  "devdoc": {
    "kind": "dev",
    "methods": {
      "cancelTask(bytes32)": {
        "params": {
          "taskId": "Unique hash of the task that is being cancelled. {See LibTaskId-getTaskId}"
        }
      },
      "createTask(address,bytes,(uint8[],bytes[]),address)": {
        "params": {
          "execAddress": "Address of contract that should be called by Gelato.",
          "execData": "Execution data to be called with / function selector if execution data is yet to be determined.",
          "feeToken": "Address of token to be used as payment. Use address(0) if TaskTreasury is being used, 0xeeeeee... for ETH or native tokens.",
          "moduleData": "Conditional modules that will be used. {See LibDataTypes-ModuleData}"
        },
        "returns": {
          "taskId": "Unique hash of the task created."
        }
      },
      "exec(address,address,bytes,(uint8[],bytes[]),uint256,address,bool,bool)": {
        "params": {
          "execAddress": "Address of contract that should be called by Gelato.",
          "execData": "Execution data to be called with / function selector if execution data is yet to be determined.",
          "feeToken": "Token used to pay for the execution. ETH = 0xeeeeee...",
          "moduleData": "Conditional modules that will be used. {See LibDataTypes-ModuleData}",
          "revertOnFailure": "To revert or not if call to execAddress fails. (Used for off-chain simulations)",
          "taskCreator": "The address which created the task.",
          "txFee": "Fee paid to Gelato for execution, deducted on the TaskTreasury or transfered to Gelato.",
          "useTaskTreasuryFunds": "If taskCreator's balance on TaskTreasury should pay for the tx."
        }
      },
      "getFeeDetails()": {
        "returns": {
          "_0": "uint256 Fee amount to be paid.",
          "_1": "address Token to be paid. (Determined and passed by taskCreator during createTask)"
        }
      },
      "getTaskIdsByUser(address)": {
        "params": {
          "taskCreator": "Address of task creator to query."
        },
        "returns": {
          "_0": "bytes32[] List of taskIds created."
        }
      },
      "setModule(uint8[],address[])": {
        "params": {
          "moduleAddresses": "List of addresses for respective modules.",
          "modules": "List of modules to be set"
        }
      }
    },
    "stateVariables": {
      "taskTreasury": {
        "return": "ITaskTreasuryUpgradable TaskTreasury contract interface",
        "returns": {
          "_0": "ITaskTreasuryUpgradable TaskTreasury contract interface"
        }
      }
    },
    "version": 1
  },
  "userdoc": {
    "kind": "user",
    "methods": {
      "cancelTask(bytes32)": {
        "notice": "Terminates a task that was created and Gelato can no longer execute it."
      },
      "createTask(address,bytes,(uint8[],bytes[]),address)": {
        "notice": "Initiates a task with conditions which Gelato will monitor and execute when conditions are met."
      },
      "exec(address,address,bytes,(uint8[],bytes[]),uint256,address,bool,bool)": {
        "notice": "Execution API called by Gelato."
      },
      "getFeeDetails()": {
        "notice": "Helper function to query fee and feeToken to be used for payment. (For executions which pays itself)"
      },
      "getTaskIdsByUser(address)": {
        "notice": "Helper func to query all open tasks by a task creator."
      },
      "setModule(uint8[],address[])": {
        "notice": "Sets the address of task modules. Only callable by proxy admin."
      },
      "taskTreasury()": {
        "notice": "TaskTreasury contract where user deposit funds to be used for fee payments."
      }
    },
    "notice": "Ops enables everyone to have Gelato monitor and execute transactions.ExecAddress refers to the contract that has the function which Gelato will call.Modules allow users to customise conditions and specifications when creating a task.",
    "version": 1
  },
  "storageLayout": {
    "storage": [
      {
        "astId": 2351,
        "contract": "contracts/Ops.sol:Ops",
        "label": "taskCreator",
        "offset": 0,
        "slot": "0",
        "type": "t_mapping(t_bytes32,t_address)"
      },
      {
        "astId": 2356,
        "contract": "contracts/Ops.sol:Ops",
        "label": "execAddresses",
        "offset": 0,
        "slot": "1",
        "type": "t_mapping(t_bytes32,t_address)"
      },
      {
        "astId": 2362,
        "contract": "contracts/Ops.sol:Ops",
        "label": "_createdTasks",
        "offset": 0,
        "slot": "2",
        "type": "t_mapping(t_address,t_struct(Bytes32Set)1433_storage)"
      },
      {
        "astId": 2364,
        "contract": "contracts/Ops.sol:Ops",
        "label": "fee",
        "offset": 0,
        "slot": "3",
        "type": "t_uint256"
      },
      {
        "astId": 2366,
        "contract": "contracts/Ops.sol:Ops",
        "label": "feeToken",
        "offset": 0,
        "slot": "4",
        "type": "t_address"
      },
      {
        "astId": 2372,
        "contract": "contracts/Ops.sol:Ops",
        "label": "timedTask",
        "offset": 0,
        "slot": "5",
        "type": "t_mapping(t_bytes32,t_struct(Time)3569_storage)"
      },
      {
        "astId": 2377,
        "contract": "contracts/Ops.sol:Ops",
        "label": "taskModuleAddresses",
        "offset": 0,
        "slot": "6",
        "type": "t_mapping(t_enum(Module)3556,t_address)"
      }
    ],
    "types": {
      "t_address": {
        "encoding": "inplace",
        "label": "address",
        "numberOfBytes": "20"
      },
      "t_array(t_bytes32)dyn_storage": {
        "base": "t_bytes32",
        "encoding": "dynamic_array",
        "label": "bytes32[]",
        "numberOfBytes": "32"
      },
      "t_bytes32": {
        "encoding": "inplace",
        "label": "bytes32",
        "numberOfBytes": "32"
      },
      "t_enum(Module)3556": {
        "encoding": "inplace",
        "label": "enum LibDataTypes.Module",
        "numberOfBytes": "1"
      },
      "t_mapping(t_address,t_struct(Bytes32Set)1433_storage)": {
        "encoding": "mapping",
        "key": "t_address",
        "label": "mapping(address => struct EnumerableSet.Bytes32Set)",
        "numberOfBytes": "32",
        "value": "t_struct(Bytes32Set)1433_storage"
      },
      "t_mapping(t_bytes32,t_address)": {
        "encoding": "mapping",
        "key": "t_bytes32",
        "label": "mapping(bytes32 => address)",
        "numberOfBytes": "32",
        "value": "t_address"
      },
      "t_mapping(t_bytes32,t_struct(Time)3569_storage)": {
        "encoding": "mapping",
        "key": "t_bytes32",
        "label": "mapping(bytes32 => struct LibDataTypes.Time)",
        "numberOfBytes": "32",
        "value": "t_struct(Time)3569_storage"
      },
      "t_mapping(t_bytes32,t_uint256)": {
        "encoding": "mapping",
        "key": "t_bytes32",
        "label": "mapping(bytes32 => uint256)",
        "numberOfBytes": "32",
        "value": "t_uint256"
      },
      "t_mapping(t_enum(Module)3556,t_address)": {
        "encoding": "mapping",
        "key": "t_enum(Module)3556",
        "label": "mapping(enum LibDataTypes.Module => address)",
        "numberOfBytes": "32",
        "value": "t_address"
      },
      "t_struct(Bytes32Set)1433_storage": {
        "encoding": "inplace",
        "label": "struct EnumerableSet.Bytes32Set",
        "members": [
          {
            "astId": 1432,
            "contract": "contracts/Ops.sol:Ops",
            "label": "_inner",
            "offset": 0,
            "slot": "0",
            "type": "t_struct(Set)1239_storage"
          }
        ],
        "numberOfBytes": "64"
      },
      "t_struct(Set)1239_storage": {
        "encoding": "inplace",
        "label": "struct EnumerableSet.Set",
        "members": [
          {
            "astId": 1234,
            "contract": "contracts/Ops.sol:Ops",
            "label": "_values",
            "offset": 0,
            "slot": "0",
            "type": "t_array(t_bytes32)dyn_storage"
          },
          {
            "astId": 1238,
            "contract": "contracts/Ops.sol:Ops",
            "label": "_indexes",
            "offset": 0,
            "slot": "1",
            "type": "t_mapping(t_bytes32,t_uint256)"
          }
        ],
        "numberOfBytes": "64"
      },
      "t_struct(Time)3569_storage": {
        "encoding": "inplace",
        "label": "struct LibDataTypes.Time",
        "members": [
          {
            "astId": 3566,
            "contract": "contracts/Ops.sol:Ops",
            "label": "nextExec",
            "offset": 0,
            "slot": "0",
            "type": "t_uint128"
          },
          {
            "astId": 3568,
            "contract": "contracts/Ops.sol:Ops",
            "label": "interval",
            "offset": 16,
            "slot": "0",
            "type": "t_uint128"
          }
        ],
        "numberOfBytes": "32"
      },
      "t_uint128": {
        "encoding": "inplace",
        "label": "uint128",
        "numberOfBytes": "16"
      },
      "t_uint256": {
        "encoding": "inplace",
        "label": "uint256",
        "numberOfBytes": "32"
      }
    }
  }
}