{
  "address": "0xCbB3C889F43Ca162d329899820b5Dc414F20c165",
  "abi": [
    {
      "inputs": [
        {
          "internalType": "address payable",
          "name": "_gelato",
          "type": "address"
        },
        {
          "internalType": "address",
          "name": "_taskTreasury",
          "type": "address"
        }
      ],
      "stateMutability": "nonpayable",
      "type": "constructor"
    },
    {
      "anonymous": false,
      "inputs": [
        {
          "indexed": true,
          "internalType": "uint256",
          "name": "txFee",
          "type": "uint256"
        },
        {
          "indexed": true,
          "internalType": "address",
          "name": "feeToken",
          "type": "address"
        },
        {
          "indexed": true,
          "internalType": "address",
          "name": "execAddress",
          "type": "address"
        },
        {
          "indexed": false,
          "internalType": "bytes",
          "name": "execData",
          "type": "bytes"
        },
        {
          "indexed": false,
          "internalType": "bytes32",
          "name": "taskId",
          "type": "bytes32"
        }
      ],
      "name": "ExecSuccess",
      "type": "event"
    },
    {
      "anonymous": false,
      "inputs": [
        {
          "indexed": false,
          "internalType": "bytes32",
          "name": "taskId",
          "type": "bytes32"
        },
        {
          "indexed": false,
          "internalType": "address",
          "name": "taskCreator",
          "type": "address"
        }
      ],
      "name": "TaskCancelled",
      "type": "event"
    },
    {
      "anonymous": false,
      "inputs": [
        {
          "indexed": false,
          "internalType": "address",
          "name": "taskCreator",
          "type": "address"
        },
        {
          "indexed": false,
          "internalType": "address",
          "name": "execAddress",
          "type": "address"
        },
        {
          "indexed": false,
          "internalType": "bytes4",
          "name": "selector",
          "type": "bytes4"
        },
        {
          "indexed": false,
          "internalType": "address",
          "name": "resolverAddress",
          "type": "address"
        },
        {
          "indexed": false,
          "internalType": "bytes32",
          "name": "taskId",
          "type": "bytes32"
        },
        {
          "indexed": false,
          "internalType": "bytes",
          "name": "resolverData",
          "type": "bytes"
        },
        {
          "indexed": false,
          "internalType": "bool",
          "name": "useTaskTreasuryFunds",
          "type": "bool"
        },
        {
          "indexed": false,
          "internalType": "address",
          "name": "feeToken",
          "type": "address"
        },
        {
          "indexed": false,
          "internalType": "bytes32",
          "name": "resolverHash",
          "type": "bytes32"
        }
      ],
      "name": "TaskCreated",
      "type": "event"
    },
    {
      "anonymous": false,
      "inputs": [
        {
          "indexed": true,
          "internalType": "bytes32",
          "name": "taskId",
          "type": "bytes32"
        },
        {
          "indexed": true,
          "internalType": "uint128",
          "name": "nextExec",
          "type": "uint128"
        },
        {
          "indexed": true,
          "internalType": "uint128",
          "name": "interval",
          "type": "uint128"
        }
      ],
      "name": "TimerSet",
      "type": "event"
    },
    {
      "inputs": [
        {
          "internalType": "bytes32",
          "name": "_taskId",
          "type": "bytes32"
        }
      ],
      "name": "cancelTask",
      "outputs": [],
      "stateMutability": "nonpayable",
      "type": "function"
    },
    {
      "inputs": [
        {
          "internalType": "address",
          "name": "_execAddress",
          "type": "address"
        },
        {
          "internalType": "bytes4",
          "name": "_execSelector",
          "type": "bytes4"
        },
        {
          "internalType": "address",
          "name": "_resolverAddress",
          "type": "address"
        },
        {
          "internalType": "bytes",
          "name": "_resolverData",
          "type": "bytes"
        }
      ],
      "name": "createTask",
      "outputs": [
        {
          "internalType": "bytes32",
          "name": "task",
          "type": "bytes32"
        }
      ],
      "stateMutability": "nonpayable",
      "type": "function"
    },
    {
      "inputs": [
        {
          "internalType": "address",
          "name": "_execAddress",
          "type": "address"
        },
        {
          "internalType": "bytes4",
          "name": "_execSelector",
          "type": "bytes4"
        },
        {
          "internalType": "address",
          "name": "_resolverAddress",
          "type": "address"
        },
        {
          "internalType": "bytes",
          "name": "_resolverData",
          "type": "bytes"
        },
        {
          "internalType": "address",
          "name": "_feeToken",
          "type": "address"
        }
      ],
      "name": "createTaskNoPrepayment",
      "outputs": [
        {
          "internalType": "bytes32",
          "name": "task",
          "type": "bytes32"
        }
      ],
      "stateMutability": "nonpayable",
      "type": "function"
    },
    {
      "inputs": [
        {
          "internalType": "uint128",
          "name": "_startTime",
          "type": "uint128"
        },
        {
          "internalType": "uint128",
          "name": "_interval",
          "type": "uint128"
        },
        {
          "internalType": "address",
          "name": "_execAddress",
          "type": "address"
        },
        {
          "internalType": "bytes4",
          "name": "_execSelector",
          "type": "bytes4"
        },
        {
          "internalType": "address",
          "name": "_resolverAddress",
          "type": "address"
        },
        {
          "internalType": "bytes",
          "name": "_resolverData",
          "type": "bytes"
        },
        {
          "internalType": "address",
          "name": "_feeToken",
          "type": "address"
        },
        {
          "internalType": "bool",
          "name": "_useTreasury",
          "type": "bool"
        }
      ],
      "name": "createTimedTask",
      "outputs": [
        {
          "internalType": "bytes32",
          "name": "task",
          "type": "bytes32"
        }
      ],
      "stateMutability": "nonpayable",
      "type": "function"
    },
    {
      "inputs": [
        {
          "internalType": "uint256",
          "name": "_txFee",
          "type": "uint256"
        },
        {
          "internalType": "address",
          "name": "_feeToken",
          "type": "address"
        },
        {
          "internalType": "address",
          "name": "_taskCreator",
          "type": "address"
        },
        {
          "internalType": "bool",
          "name": "_useTaskTreasuryFunds",
          "type": "bool"
        },
        {
          "internalType": "bytes32",
          "name": "_resolverHash",
          "type": "bytes32"
        },
        {
          "internalType": "address",
          "name": "_execAddress",
          "type": "address"
        },
        {
          "internalType": "bytes",
          "name": "_execData",
          "type": "bytes"
        }
      ],
      "name": "exec",
      "outputs": [],
      "stateMutability": "nonpayable",
      "type": "function"
    },
    {
      "inputs": [
        {
          "internalType": "bytes32",
          "name": "",
          "type": "bytes32"
        }
      ],
      "name": "execAddresses",
      "outputs": [
        {
          "internalType": "address",
          "name": "",
          "type": "address"
        }
      ],
      "stateMutability": "view",
      "type": "function"
    },
    {
      "inputs": [],
      "name": "fee",
      "outputs": [
        {
          "internalType": "uint256",
          "name": "",
          "type": "uint256"
        }
      ],
      "stateMutability": "view",
      "type": "function"
    },
    {
      "inputs": [],
      "name": "feeToken",
      "outputs": [
        {
          "internalType": "address",
          "name": "",
          "type": "address"
        }
      ],
      "stateMutability": "view",
      "type": "function"
    },
    {
      "inputs": [],
      "name": "gelato",
      "outputs": [
        {
          "internalType": "address payable",
          "name": "",
          "type": "address"
        }
      ],
      "stateMutability": "view",
      "type": "function"
    },
    {
      "inputs": [],
      "name": "getFeeDetails",
      "outputs": [
        {
          "internalType": "uint256",
          "name": "",
          "type": "uint256"
        },
        {
          "internalType": "address",
          "name": "",
          "type": "address"
        }
      ],
      "stateMutability": "view",
      "type": "function"
    },
    {
      "inputs": [
        {
          "internalType": "address",
          "name": "_resolverAddress",
          "type": "address"
        },
        {
          "internalType": "bytes",
          "name": "_resolverData",
          "type": "bytes"
        }
      ],
      "name": "getResolverHash",
      "outputs": [
        {
          "internalType": "bytes32",
          "name": "",
          "type": "bytes32"
        }
      ],
      "stateMutability": "pure",
      "type": "function"
    },
    {
      "inputs": [
        {
          "internalType": "string",
          "name": "_func",
          "type": "string"
        }
      ],
      "name": "getSelector",
      "outputs": [
        {
          "internalType": "bytes4",
          "name": "",
          "type": "bytes4"
        }
      ],
      "stateMutability": "pure",
      "type": "function"
    },
    {
      "inputs": [
        {
          "internalType": "address",
          "name": "_taskCreator",
          "type": "address"
        },
        {
          "internalType": "address",
          "name": "_execAddress",
          "type": "address"
        },
        {
          "internalType": "bytes4",
          "name": "_selector",
          "type": "bytes4"
        },
        {
          "internalType": "bool",
          "name": "_useTaskTreasuryFunds",
          "type": "bool"
        },
        {
          "internalType": "address",
          "name": "_feeToken",
          "type": "address"
        },
        {
          "internalType": "bytes32",
          "name": "_resolverHash",
          "type": "bytes32"
        }
      ],
      "name": "getTaskId",
      "outputs": [
        {
          "internalType": "bytes32",
          "name": "",
          "type": "bytes32"
        }
      ],
      "stateMutability": "pure",
      "type": "function"
    },
    {
      "inputs": [
        {
          "internalType": "address",
          "name": "_taskCreator",
          "type": "address"
        }
      ],
      "name": "getTaskIdsByUser",
      "outputs": [
        {
          "internalType": "bytes32[]",
          "name": "",
          "type": "bytes32[]"
        }
      ],
      "stateMutability": "view",
      "type": "function"
    },
    {
      "inputs": [
        {
          "internalType": "bytes32",
          "name": "",
          "type": "bytes32"
        }
      ],
      "name": "taskCreator",
      "outputs": [
        {
          "internalType": "address",
          "name": "",
          "type": "address"
        }
      ],
      "stateMutability": "view",
      "type": "function"
    },
    {
      "inputs": [],
      "name": "taskTreasury",
      "outputs": [
        {
          "internalType": "address",
          "name": "",
          "type": "address"
        }
      ],
      "stateMutability": "view",
      "type": "function"
    },
    {
      "inputs": [
        {
          "internalType": "bytes32",
          "name": "",
          "type": "bytes32"
        }
      ],
      "name": "timedTask",
      "outputs": [
        {
          "internalType": "uint128",
          "name": "nextExec",
          "type": "uint128"
        },
        {
          "internalType": "uint128",
          "name": "interval",
          "type": "uint128"
        }
      ],
      "stateMutability": "view",
      "type": "function"
    },
    {
      "inputs": [],
      "name": "version",
      "outputs": [
        {
          "internalType": "string",
          "name": "",
          "type": "string"
        }
      ],
      "stateMutability": "view",
      "type": "function"
    }
  ],
  "transactionHash": "0x9dd052117106c14fdae1563b31e86a9c26a4b329161e6f207d0b1664352fa70a",
  "args": [
    "0x0630d1b8C2df3F0a68Df578D02075027a6397173",
    "0x90F609c73F7498dD031e0dAfF3B40e93c04a6C60"
  ],
  "solcInputHash": "9c6adb607230a2d9f4e0eca21a73ce6c",
  "bytecode": "0x60c06040523480156200001157600080fd5b50604051620030b7380380620030b78339818101604052810190620000379190620000dd565b818073ffffffffffffffffffffffffffffffffffffffff1660808173ffffffffffffffffffffffffffffffffffffffff1660601b81525050508073ffffffffffffffffffffffffffffffffffffffff1660a08173ffffffffffffffffffffffffffffffffffffffff1660601b8152505050506200019a565b600081519050620000c08162000166565b92915050565b600081519050620000d78162000180565b92915050565b60008060408385031215620000f157600080fd5b60006200010185828601620000c6565b92505060206200011485828601620000af565b9150509250929050565b60006200012b8262000146565b9050919050565b60006200013f8262000146565b9050919050565b600073ffffffffffffffffffffffffffffffffffffffff82169050919050565b62000171816200011e565b81146200017d57600080fd5b50565b6200018b8162000132565b81146200019757600080fd5b50565b60805160601c60a05160601c612ee3620001d460003960008181610d5701526113790152600081816105d601526109040152612ee36000f3fe608060405234801561001057600080fd5b50600436106101165760003560e01c80638e8b5279116100a2578063b9f45adb11610071578063b9f45adb14610331578063cabcb34914610361578063ddca3f4314610391578063e60a3213146103af578063ee8ca3b5146103cd57610116565b80638e8b527914610295578063a8738825146102b1578063b810c636146102e1578063b81cd8661461030057610116565b8063647846a5116100e9578063647846a5146101b75780636d2dd29f146101d55780637b4e45e91461020557806380a003ff146102355780638b92696a1461026557610116565b80630407145c1461011b5780632e6e0bd01461014b57806354fd4d501461017b578063573ea57514610199575b600080fd5b61013560048036038101906101309190611e41565b6103e9565b60405161014291906128b9565b60405180910390f35b61016560048036038101906101609190612059565b610568565b6040516101729190612725565b60405180910390f35b61018361059b565b604051610190919061296c565b60405180910390f35b6101a16105d4565b6040516101ae9190612740565b60405180910390f35b6101bf6105f8565b6040516101cc9190612725565b60405180910390f35b6101ef60048036038101906101ea9190612059565b61061e565b6040516101fc9190612725565b60405180910390f35b61021f600480360381019061021a9190611e6a565b610651565b60405161022c91906128db565b60405180910390f35b61024f600480360381019061024a9190612082565b610690565b60405161025c919061291f565b60405180910390f35b61027f600480360381019061027a9190611ef3565b6106b2565b60405161028c91906128db565b60405180910390f35b6102af60048036038101906102aa9190612195565b610902565b005b6102cb60048036038101906102c691906120c7565b610e8e565b6040516102d891906128db565b60405180910390f35b6102e9611062565b6040516102f7929190612a92565b60405180910390f35b61031a60048036038101906103159190612059565b611093565b604051610328929190612a4e565b60405180910390f35b61034b60048036038101906103469190611f73565b6110ef565b60405161035891906128db565b60405180910390f35b61037b60048036038101906103769190612005565b61133e565b60405161038891906128db565b60405180910390f35b610399611371565b6040516103a69190612a77565b60405180910390f35b6103b7611377565b6040516103c49190612725565b60405180910390f35b6103e760048036038101906103e29190612059565b61139b565b005b60606000610434600260008573ffffffffffffffffffffffffffffffffffffffff1673ffffffffffffffffffffffffffffffffffffffff16815260200190815260200160002061167b565b905060008167ffffffffffffffff811115610478577f4e487b7100000000000000000000000000000000000000000000000000000000600052604160045260246000fd5b6040519080825280602002602001820160405280156104a65781602001602082028036833780820191505090505b50905060005b8281101561055d5761050581600260008873ffffffffffffffffffffffffffffffffffffffff1673ffffffffffffffffffffffffffffffffffffffff16815260200190815260200160002061169090919063ffffffff16565b82828151811061053e577f4e487b7100000000000000000000000000000000000000000000000000000000600052603260045260246000fd5b602002602001018181525050808061055590612d0b565b9150506104ac565b508092505050919050565b60006020528060005260406000206000915054906101000a900473ffffffffffffffffffffffffffffffffffffffff1681565b6040518060400160405280600181526020017f330000000000000000000000000000000000000000000000000000000000000081525081565b7f000000000000000000000000000000000000000000000000000000000000000081565b600460009054906101000a900473ffffffffffffffffffffffffffffffffffffffff1681565b60016020528060005260406000206000915054906101000a900473ffffffffffffffffffffffffffffffffffffffff1681565b600086868686868660405160200161066e969594939291906127f1565b6040516020818303038152906040528051906020012090509695505050505050565b600082826040516106a29291906126a4565b6040518091039020905092915050565b6000806107038585858080601f016020809104026020016040519081016040528093929190818152602001838380828437600081840152601f19601f8201169050808301925050505050505061133e565b90506107153388886001600086610651565b9150600073ffffffffffffffffffffffffffffffffffffffff1660008084815260200190815260200160002060009054906101000a900473ffffffffffffffffffffffffffffffffffffffff1673ffffffffffffffffffffffffffffffffffffffff16146107b8576040517f08c379a00000000000000000000000000000000000000000000000000000000081526004016107af90612a0e565b60405180910390fd5b61080982600260003373ffffffffffffffffffffffffffffffffffffffff1673ffffffffffffffffffffffffffffffffffffffff1681526020019081526020016000206116a790919063ffffffff16565b503360008084815260200190815260200160002060006101000a81548173ffffffffffffffffffffffffffffffffffffffff021916908373ffffffffffffffffffffffffffffffffffffffff160217905550866001600084815260200190815260200160002060006101000a81548173ffffffffffffffffffffffffffffffffffffffff021916908373ffffffffffffffffffffffffffffffffffffffff1602179055507fcfd64545826fbe236e660141349bd1ed0b30c9bec7e213894afd7745a1f76f3333888888868989600160008a6040516108f09a9998979695949392919061275b565b60405180910390a15095945050505050565b7f000000000000000000000000000000000000000000000000000000000000000073ffffffffffffffffffffffffffffffffffffffff163373ffffffffffffffffffffffffffffffffffffffff1614610990576040517f08c379a00000000000000000000000000000000000000000000000000000000081526004016109879061298e565b60405180910390fd5b846109de578760038190555086600460006101000a81548173ffffffffffffffffffffffffffffffffffffffff021916908373ffffffffffffffffffffffffffffffffffffffff1602179055505b6000610a0487856109ef86866116be565b898a6109fb578c6109fe565b60005b8a610651565b90508673ffffffffffffffffffffffffffffffffffffffff1660008083815260200190815260200160002060009054906101000a900473ffffffffffffffffffffffffffffffffffffffff1673ffffffffffffffffffffffffffffffffffffffff1614610aa6576040517f08c379a0000000000000000000000000000000000000000000000000000000008152600401610a9d906129ae565b60405180910390fd5b60006005600083815260200190815260200160002090506000808260000160009054906101000a90046fffffffffffffffffffffffffffffffff166fffffffffffffffffffffffffffffffff161415610b00576000610b03565b60015b90508015610c8457426fffffffffffffffffffffffffffffffff168260000160009054906101000a90046fffffffffffffffffffffffffffffffff166fffffffffffffffffffffffffffffffff161115610b92576040517f08c379a0000000000000000000000000000000000000000000000000000000008152600401610b89906129ee565b60405180910390fd5b60008260000160109054906101000a90046fffffffffffffffffffffffffffffffff168360000160009054906101000a90046fffffffffffffffffffffffffffffffff16610be09190612ba3565b905060004290505b816fffffffffffffffffffffffffffffffff16816fffffffffffffffffffffffffffffffff1610610c46578360000160109054906101000a90046fffffffffffffffffffffffffffffffff1682610c3f9190612ba3565b9150610be8565b818460000160006101000a8154816fffffffffffffffffffffffffffffffff02191690836fffffffffffffffffffffffffffffffff16021790555050505b6000808773ffffffffffffffffffffffffffffffffffffffff168787604051610cae9291906126a4565b6000604051808303816000865af19150503d8060008114610ceb576040519150601f19603f3d011682016040523d82523d6000602084013e610cf0565b606091505b509150915081158015610d01575082155b15610d4f57610d4e6040518060400160405280600c81526020017f506f6b654d652e657865633a0000000000000000000000000000000000000000815250826118cc90919063ffffffff16565b5b8915610de9577f000000000000000000000000000000000000000000000000000000000000000073ffffffffffffffffffffffffffffffffffffffff16636f192acc8d8f8e6040518463ffffffff1660e01b8152600401610db293929190612882565b600060405180830381600087803b158015610dcc57600080fd5b505af1158015610de0573d6000803e3d6000fd5b50505050610e15565b600360009055600460006101000a81549073ffffffffffffffffffffffffffffffffffffffff02191690555b8773ffffffffffffffffffffffffffffffffffffffff168c73ffffffffffffffffffffffffffffffffffffffff168e7ff5785831cc21ed1a6e74f60bd9268a70a7a3f3fc03c815dba22ceda33aea26ce8a8a8a604051610e779392919061293a565b60405180910390a450505050505050505050505050565b600080896fffffffffffffffffffffffffffffffff1611610ee4576040517f08c379a0000000000000000000000000000000000000000000000000000000008152600401610edb90612a2e565b60405180910390fd5b8115610efe57610ef788888888886106b2565b9050610f0f565b610f0c8888888888886110ef565b90505b6000428b6fffffffffffffffffffffffffffffffff1611610f305742610f32565b8a5b90506040518060400160405280826fffffffffffffffffffffffffffffffff1681526020018b6fffffffffffffffffffffffffffffffff168152506005600084815260200190815260200160002060008201518160000160006101000a8154816fffffffffffffffffffffffffffffffff02191690836fffffffffffffffffffffffffffffffff16021790555060208201518160000160106101000a8154816fffffffffffffffffffffffffffffffff02191690836fffffffffffffffffffffffffffffffff160217905550905050896fffffffffffffffffffffffffffffffff16816fffffffffffffffffffffffffffffffff16837f857791ec95701b6fff966bff1b5ce9a86107aeabaf6d2fdfd89993aa0f084e3760405160405180910390a4509998505050505050505050565b600080600354600460009054906101000a900473ffffffffffffffffffffffffffffffffffffffff16915091509091565b60056020528060005260406000206000915090508060000160009054906101000a90046fffffffffffffffffffffffffffffffff16908060000160109054906101000a90046fffffffffffffffffffffffffffffffff16905082565b6000806111408686868080601f016020809104026020016040519081016040528093929190818152602001838380828437600081840152601f19601f8201169050808301925050505050505061133e565b905061115133898960008786610651565b9150600073ffffffffffffffffffffffffffffffffffffffff1660008084815260200190815260200160002060009054906101000a900473ffffffffffffffffffffffffffffffffffffffff1673ffffffffffffffffffffffffffffffffffffffff16146111f4576040517f08c379a00000000000000000000000000000000000000000000000000000000081526004016111eb90612a0e565b60405180910390fd5b61124582600260003373ffffffffffffffffffffffffffffffffffffffff1673ffffffffffffffffffffffffffffffffffffffff1681526020019081526020016000206116a790919063ffffffff16565b503360008084815260200190815260200160002060006101000a81548173ffffffffffffffffffffffffffffffffffffffff021916908373ffffffffffffffffffffffffffffffffffffffff160217905550876001600084815260200190815260200160002060006101000a81548173ffffffffffffffffffffffffffffffffffffffff021916908373ffffffffffffffffffffffffffffffffffffffff1602179055507fcfd64545826fbe236e660141349bd1ed0b30c9bec7e213894afd7745a1f76f3333898989868a8a60008b8a60405161132b9a9998979695949392919061275b565b60405180910390a1509695505050505050565b60008282604051602001611353929190612852565b60405160208183030381529060405280519060200120905092915050565b60035481565b7f000000000000000000000000000000000000000000000000000000000000000081565b3373ffffffffffffffffffffffffffffffffffffffff1660008083815260200190815260200160002060009054906101000a900473ffffffffffffffffffffffffffffffffffffffff1673ffffffffffffffffffffffffffffffffffffffff161461143b576040517f08c379a0000000000000000000000000000000000000000000000000000000008152600401611432906129ce565b60405180910390fd5b61148c81600260003373ffffffffffffffffffffffffffffffffffffffff1673ffffffffffffffffffffffffffffffffffffffff168152602001908152602001600020611a3590919063ffffffff16565b5060008082815260200190815260200160002060006101000a81549073ffffffffffffffffffffffffffffffffffffffff02191690556001600082815260200190815260200160002060006101000a81549073ffffffffffffffffffffffffffffffffffffffff02191690556000600560008381526020019081526020016000206040518060400160405290816000820160009054906101000a90046fffffffffffffffffffffffffffffffff166fffffffffffffffffffffffffffffffff166fffffffffffffffffffffffffffffffff1681526020016000820160109054906101000a90046fffffffffffffffffffffffffffffffff166fffffffffffffffffffffffffffffffff166fffffffffffffffffffffffffffffffff1681525050905060008082600001516fffffffffffffffffffffffffffffffff1614156115d55760006115d8565b60015b9050801561163d5760056000848152602001908152602001600020600080820160006101000a8154906fffffffffffffffffffffffffffffffff02191690556000820160106101000a8154906fffffffffffffffffffffffffffffffff021916905550505b7f44d83729a43f9c6046446df014d073dd242e0ad672071e9b292f31b669c25b09833360405161166e9291906128f6565b60405180910390a1505050565b600061168982600001611a4c565b9050919050565b600061169f8360000183611a5d565b905092915050565b60006116b68360000183611aae565b905092915050565b60006018838360038181106116fc577f4e487b7100000000000000000000000000000000000000000000000000000000600052603260045260246000fd5b9050013560f81c60f81b7effffffffffffffffffffffffffffffffffffffffffffffffffffffffffffff19167bffffffffffffffffffffffffffffffffffffffffffffffffffffffff1916901c601084846002818110611785577f4e487b7100000000000000000000000000000000000000000000000000000000600052603260045260246000fd5b9050013560f81c60f81b7effffffffffffffffffffffffffffffffffffffffffffffffffffffffffffff19167bffffffffffffffffffffffffffffffffffffffffffffffffffffffff1916901c60088585600181811061180e577f4e487b7100000000000000000000000000000000000000000000000000000000600052603260045260246000fd5b9050013560f81c60f81b7effffffffffffffffffffffffffffffffffffffffffffffffffffffffffffff19167bffffffffffffffffffffffffffffffffffffffffffffffffffffffff1916901c85856000818110611895577f4e487b7100000000000000000000000000000000000000000000000000000000600052603260045260246000fd5b9050013560f81c60f81b7effffffffffffffffffffffffffffffffffffffffffffffffffffffffffffff1916171717905092915050565b6004602083516118dc9190612d54565b14156119d9576000826020015190506308c379a060e01b817bffffffffffffffffffffffffffffffffffffffffffffffffffffffff1916141561197d5760448301925081836040516020016119329291906126bd565b6040516020818303038152906040526040517f08c379a0000000000000000000000000000000000000000000000000000000008152600401611974919061296c565b60405180910390fd5b8160405160200161198e91906126e1565b6040516020818303038152906040526040517f08c379a00000000000000000000000000000000000000000000000000000000081526004016119d0919061296c565b60405180910390fd5b806040516020016119ea9190612703565b6040516020818303038152906040526040517f08c379a0000000000000000000000000000000000000000000000000000000008152600401611a2c919061296c565b60405180910390fd5b6000611a448360000183611b1e565b905092915050565b600081600001805490509050919050565b6000826000018281548110611a9b577f4e487b7100000000000000000000000000000000000000000000000000000000600052603260045260246000fd5b9060005260206000200154905092915050565b6000611aba8383611ca4565b611b13578260000182908060018154018082558091505060019003906000526020600020016000909190919091505582600001805490508360010160008481526020019081526020016000208190555060019050611b18565b600090505b92915050565b60008083600101600084815260200190815260200160002054905060008114611c98576000600182611b509190612be9565b9050600060018660000180549050611b689190612be9565b9050818114611c23576000866000018281548110611baf577f4e487b7100000000000000000000000000000000000000000000000000000000600052603260045260246000fd5b9060005260206000200154905080876000018481548110611bf9577f4e487b7100000000000000000000000000000000000000000000000000000000600052603260045260246000fd5b90600052602060002001819055508387600101600083815260200190815260200160002081905550505b85600001805480611c5d577f4e487b7100000000000000000000000000000000000000000000000000000000600052603160045260246000fd5b600190038181906000526020600020016000905590558560010160008681526020019081526020016000206000905560019350505050611c9e565b60009150505b92915050565b600080836001016000848152602001908152602001600020541415905092915050565b6000611cda611cd584612aec565b612abb565b905082815260208101848484011115611cf257600080fd5b611cfd848285612cc9565b509392505050565b600081359050611d1481612e23565b92915050565b600081359050611d2981612e3a565b92915050565b600081359050611d3e81612e51565b92915050565b600081359050611d5381612e68565b92915050565b60008083601f840112611d6b57600080fd5b8235905067ffffffffffffffff811115611d8457600080fd5b602083019150836001820283011115611d9c57600080fd5b9250929050565b600082601f830112611db457600080fd5b8135611dc4848260208601611cc7565b91505092915050565b60008083601f840112611ddf57600080fd5b8235905067ffffffffffffffff811115611df857600080fd5b602083019150836001820283011115611e1057600080fd5b9250929050565b600081359050611e2681612e7f565b92915050565b600081359050611e3b81612e96565b92915050565b600060208284031215611e5357600080fd5b6000611e6184828501611d05565b91505092915050565b60008060008060008060c08789031215611e8357600080fd5b6000611e9189828a01611d05565b9650506020611ea289828a01611d05565b9550506040611eb389828a01611d44565b9450506060611ec489828a01611d1a565b9350506080611ed589828a01611d05565b92505060a0611ee689828a01611d2f565b9150509295509295509295565b600080600080600060808688031215611f0b57600080fd5b6000611f1988828901611d05565b9550506020611f2a88828901611d44565b9450506040611f3b88828901611d05565b935050606086013567ffffffffffffffff811115611f5857600080fd5b611f6488828901611d59565b92509250509295509295909350565b60008060008060008060a08789031215611f8c57600080fd5b6000611f9a89828a01611d05565b9650506020611fab89828a01611d44565b9550506040611fbc89828a01611d05565b945050606087013567ffffffffffffffff811115611fd957600080fd5b611fe589828a01611d59565b93509350506080611ff889828a01611d05565b9150509295509295509295565b6000806040838503121561201857600080fd5b600061202685828601611d05565b925050602083013567ffffffffffffffff81111561204357600080fd5b61204f85828601611da3565b9150509250929050565b60006020828403121561206b57600080fd5b600061207984828501611d2f565b91505092915050565b6000806020838503121561209557600080fd5b600083013567ffffffffffffffff8111156120af57600080fd5b6120bb85828601611dcd565b92509250509250929050565b60008060008060008060008060006101008a8c0312156120e657600080fd5b60006120f48c828d01611e17565b99505060206121058c828d01611e17565b98505060406121168c828d01611d05565b97505060606121278c828d01611d44565b96505060806121388c828d01611d05565b95505060a08a013567ffffffffffffffff81111561215557600080fd5b6121618c828d01611d59565b945094505060c06121748c828d01611d05565b92505060e06121858c828d01611d1a565b9150509295985092959850929598565b60008060008060008060008060e0898b0312156121b157600080fd5b60006121bf8b828c01611e2c565b98505060206121d08b828c01611d05565b97505060406121e18b828c01611d05565b96505060606121f28b828c01611d1a565b95505060806122038b828c01611d2f565b94505060a06122148b828c01611d05565b93505060c089013567ffffffffffffffff81111561223157600080fd5b61223d8b828c01611d59565b92509250509295985092959890939650565b600061225b83836122f2565b60208301905092915050565b61227081612c2f565b82525050565b61227f81612c1d565b82525050565b600061229082612b2c565b61229a8185612b5a565b93506122a583612b1c565b8060005b838110156122d65781516122bd888261224f565b97506122c883612b4d565b9250506001810190506122a9565b5085935050505092915050565b6122ec81612c41565b82525050565b6122fb81612c4d565b82525050565b61230a81612c4d565b82525050565b61231981612c57565b82525050565b600061232b8385612b6b565b9350612338838584612cc9565b61234183612e12565b840190509392505050565b60006123588385612b7c565b9350612365838584612cc9565b82840190509392505050565b600061237c82612b37565b6123868185612b6b565b9350612396818560208601612cd8565b61239f81612e12565b840191505092915050565b60006123b582612b42565b6123bf8185612b87565b93506123cf818560208601612cd8565b6123d881612e12565b840191505092915050565b60006123ee82612b42565b6123f88185612b98565b9350612408818560208601612cd8565b80840191505092915050565b6000612421601783612b87565b91507f47656c61746f666965643a204f6e6c792067656c61746f0000000000000000006000830152602082019050919050565b6000612461601b83612b87565b91507f506f6b654d653a20657865633a204e6f207461736b20666f756e6400000000006000830152602082019050919050565b60006124a1600f83612b98565b91507f4e6f4572726f7253656c6563746f7200000000000000000000000000000000006000830152600f82019050919050565b60006124e1603183612b87565b91507f506f6b654d653a2063616e63656c5461736b3a2053656e64657220646964206e60008301527f6f74207374617274207461736b207965740000000000000000000000000000006020830152604082019050919050565b6000612547601783612b87565b91507f506f6b654d653a20657865633a20546f6f206561726c790000000000000000006000830152602082019050919050565b6000612587602f83612b87565b91507f506f6b654d653a206372656174655461736b3a2053656e64657220616c72656160008301527f64792073746172746564207461736b00000000000000000000000000000000006020830152604082019050919050565b60006125ed602d83612b87565b91507f506f6b654d653a2063726561746554696d65645461736b3a20696e746572766160008301527f6c2063616e6e6f742062652030000000000000000000000000000000000000006020830152604082019050919050565b6000612653601483612b98565b91507f556e657870656374656452657475726e646174610000000000000000000000006000830152601482019050919050565b61268f81612c83565b82525050565b61269e81612cbf565b82525050565b60006126b182848661234c565b91508190509392505050565b60006126c982856123e3565b91506126d582846123e3565b91508190509392505050565b60006126ed82846123e3565b91506126f882612494565b915081905092915050565b600061270f82846123e3565b915061271a82612646565b915081905092915050565b600060208201905061273a6000830184612276565b92915050565b60006020820190506127556000830184612267565b92915050565b600061012082019050612771600083018d612276565b61277e602083018c612276565b61278b604083018b612310565b612798606083018a612276565b6127a56080830189612301565b81810360a08301526127b881878961231f565b90506127c760c08301866122e3565b6127d460e0830185612276565b6127e2610100830184612301565b9b9a5050505050505050505050565b600060c0820190506128066000830189612276565b6128136020830188612276565b6128206040830187612310565b61282d60608301866122e3565b61283a6080830185612276565b61284760a0830184612301565b979650505050505050565b60006040820190506128676000830185612276565b81810360208301526128798184612371565b90509392505050565b60006060820190506128976000830186612276565b6128a46020830185612695565b6128b16040830184612276565b949350505050565b600060208201905081810360008301526128d38184612285565b905092915050565b60006020820190506128f06000830184612301565b92915050565b600060408201905061290b6000830185612301565b6129186020830184612276565b9392505050565b60006020820190506129346000830184612310565b92915050565b6000604082019050818103600083015261295581858761231f565b90506129646020830184612301565b949350505050565b6000602082019050818103600083015261298681846123aa565b905092915050565b600060208201905081810360008301526129a781612414565b9050919050565b600060208201905081810360008301526129c781612454565b9050919050565b600060208201905081810360008301526129e7816124d4565b9050919050565b60006020820190508181036000830152612a078161253a565b9050919050565b60006020820190508181036000830152612a278161257a565b9050919050565b60006020820190508181036000830152612a47816125e0565b9050919050565b6000604082019050612a636000830185612686565b612a706020830184612686565b9392505050565b6000602082019050612a8c6000830184612695565b92915050565b6000604082019050612aa76000830185612695565b612ab46020830184612276565b9392505050565b6000604051905081810181811067ffffffffffffffff82111715612ae257612ae1612de3565b5b8060405250919050565b600067ffffffffffffffff821115612b0757612b06612de3565b5b601f19601f8301169050602081019050919050565b6000819050602082019050919050565b600081519050919050565b600081519050919050565b600081519050919050565b6000602082019050919050565b600082825260208201905092915050565b600082825260208201905092915050565b600081905092915050565b600082825260208201905092915050565b600081905092915050565b6000612bae82612c83565b9150612bb983612c83565b9250826fffffffffffffffffffffffffffffffff03821115612bde57612bdd612d85565b5b828201905092915050565b6000612bf482612cbf565b9150612bff83612cbf565b925082821015612c1257612c11612d85565b5b828203905092915050565b6000612c2882612c9f565b9050919050565b6000612c3a82612c9f565b9050919050565b60008115159050919050565b6000819050919050565b60007fffffffff0000000000000000000000000000000000000000000000000000000082169050919050565b60006fffffffffffffffffffffffffffffffff82169050919050565b600073ffffffffffffffffffffffffffffffffffffffff82169050919050565b6000819050919050565b82818337600083830152505050565b60005b83811015612cf6578082015181840152602081019050612cdb565b83811115612d05576000848401525b50505050565b6000612d1682612cbf565b91507fffffffffffffffffffffffffffffffffffffffffffffffffffffffffffffffff821415612d4957612d48612d85565b5b600182019050919050565b6000612d5f82612cbf565b9150612d6a83612cbf565b925082612d7a57612d79612db4565b5b828206905092915050565b7f4e487b7100000000000000000000000000000000000000000000000000000000600052601160045260246000fd5b7f4e487b7100000000000000000000000000000000000000000000000000000000600052601260045260246000fd5b7f4e487b7100000000000000000000000000000000000000000000000000000000600052604160045260246000fd5b6000601f19601f8301169050919050565b612e2c81612c1d565b8114612e3757600080fd5b50565b612e4381612c41565b8114612e4e57600080fd5b50565b612e5a81612c4d565b8114612e6557600080fd5b50565b612e7181612c57565b8114612e7c57600080fd5b50565b612e8881612c83565b8114612e9357600080fd5b50565b612e9f81612cbf565b8114612eaa57600080fd5b5056fea2646970667358221220eab72c3f967534716767eff989fb48fa7223e3cdb90f12ff011ed2732306f64f64736f6c63430008000033",
  "devdoc": {
    "kind": "dev",
    "methods": {
      "cancelTask(bytes32)": {
        "params": {
          "_taskId": "The hash of the task, can be computed using getTaskId()"
        }
      },
      "createTask(address,bytes4,address,bytes)": {
        "details": "Requires funds to be added in Task Treasury, assumes treasury sends fee to Gelato via PokeMe",
        "params": {
          "_execAddress": "On which contract should Gelato execute the transactions",
          "_execSelector": "Which function Gelato should eecute on the _execAddress",
          "_resolverAddress": "On which contract should Gelato check when to execute the tx",
          "_resolverData": "Which data should be used to check on the Resolver when to execute the tx"
        }
      },
      "createTaskNoPrepayment(address,bytes4,address,bytes,address)": {
        "details": "Requires no funds to be added in Task Treasury, assumes tasks sends fee to Gelato directly",
        "params": {
          "_execAddress": "On which contract should Gelato execute the transactions",
          "_execSelector": "Which function Gelato should eecute on the _execAddress",
          "_feeToken": "Which token to use as fee payment",
          "_resolverAddress": "On which contract should Gelato check when to execute the tx",
          "_resolverData": "Which data should be used to check on the Resolver when to execute the tx"
        }
      },
      "createTimedTask(uint128,uint128,address,bytes4,address,bytes,address,bool)": {
        "params": {
          "_execAddress": "On which contract should Gelato execute the transactions",
          "_execSelector": "Which function Gelato should eecute on the _execAddress",
          "_feeToken": "Which token to use as fee payment",
          "_interval": "After how many seconds should each task be executed",
          "_resolverAddress": "On which contract should Gelato check when to execute the tx",
          "_resolverData": "Which data should be used to check on the Resolver when to execute the tx",
          "_startTime": "Timestamp when the first task should become executable. 0 for right now",
          "_useTreasury": "True if Gelato should charge fees from TaskTreasury, false if not"
        }
      },
      "exec(uint256,address,address,bool,bytes32,address,bytes)": {
        "params": {
          "_execAddress": "On which contract should Gelato execute the tx",
          "_execData": "Data used to execute the tx, queried from the Resolver by Gelato",
          "_feeToken": "Token used to pay for the execution. ETH = 0xeeeeee...",
          "_taskCreator": "On which contract should Gelato check when to execute the tx",
          "_txFee": "Fee paid to Gelato for execution, deducted on the TaskTreasury",
          "_useTaskTreasuryFunds": "If msg.sender's balance on TaskTreasury should pay for the tx"
        }
      },
      "getResolverHash(address,bytes)": {
        "params": {
          "_resolverAddress": "Address of resolver",
          "_resolverData": "Data passed to resolver"
        }
      },
      "getSelector(string)": {
        "details": "Example: \"transferFrom(address,address,uint256)\" => 0x23b872dd",
        "params": {
          "_func": "String of the function you want the selector from"
        }
      },
      "getTaskId(address,address,bytes4,bool,address,bytes32)": {
        "params": {
          "_execAddress": "Address of the contract to be executed by Gelato",
          "_feeToken": "FeeToken to use, address 0 if task treasury is used",
          "_resolverHash": "hash of resolver address and data",
          "_selector": "Function on the _execAddress which should be executed",
          "_taskCreator": "Address of the task creator",
          "_useTaskTreasuryFunds": "If msg.sender's balance on TaskTreasury should pay for the tx"
        }
      },
      "getTaskIdsByUser(address)": {
        "params": {
          "_taskCreator": "Address who created the task"
        }
      }
    },
    "version": 1
  },
  "userdoc": {
    "kind": "user",
    "methods": {
      "cancelTask(bytes32)": {
        "notice": "Cancel a task so that Gelato can no longer execute it"
      },
      "createTask(address,bytes4,address,bytes)": {
        "notice": "Create a task that tells Gelato to monitor and execute transactions on specific contracts"
      },
      "createTaskNoPrepayment(address,bytes4,address,bytes,address)": {
        "notice": "Create a task that tells Gelato to monitor and execute transactions on specific contracts"
      },
      "createTimedTask(uint128,uint128,address,bytes4,address,bytes,address,bool)": {
        "notice": "Create a timed task that executes every so often based on the inputted interval"
      },
      "exec(uint256,address,address,bool,bytes32,address,bytes)": {
        "notice": "Execution API called by Gelato"
      },
      "getFeeDetails()": {
        "notice": "Helper func to query fee and feeToken"
      },
      "getResolverHash(address,bytes)": {
        "notice": "Helper func to query the resolverHash"
      },
      "getSelector(string)": {
        "notice": "Helper func to query the _selector of a function you want to automate"
      },
      "getTaskId(address,address,bytes4,bool,address,bytes32)": {
        "notice": "Returns TaskId of a task Creator"
      },
      "getTaskIdsByUser(address)": {
        "notice": "Helper func to query all open tasks by a task creator"
      }
    },
    "notice": "PokeMe enables everyone to communicate to Gelato Bots to monitor and execute certain transactionsResolverAddresses determine when Gelato should execute and provides bots with the payload they should use to executeExecAddress determine the actual contracts to execute a function on",
    "version": 1
  },
  "storageLayout": {
    "storage": [
      {
        "astId": 2177,
        "contract": "contracts/PokeMe.sol:PokeMe",
        "label": "taskCreator",
        "offset": 0,
        "slot": "0",
        "type": "t_mapping(t_bytes32,t_address)"
      },
      {
        "astId": 2181,
        "contract": "contracts/PokeMe.sol:PokeMe",
        "label": "execAddresses",
        "offset": 0,
        "slot": "1",
        "type": "t_mapping(t_bytes32,t_address)"
      },
      {
        "astId": 2186,
        "contract": "contracts/PokeMe.sol:PokeMe",
        "label": "_createdTasks",
        "offset": 0,
        "slot": "2",
        "type": "t_mapping(t_address,t_struct(Bytes32Set)1053_storage)"
      },
      {
        "astId": 2190,
        "contract": "contracts/PokeMe.sol:PokeMe",
        "label": "fee",
        "offset": 0,
        "slot": "3",
        "type": "t_uint256"
      },
      {
        "astId": 2192,
        "contract": "contracts/PokeMe.sol:PokeMe",
        "label": "feeToken",
        "offset": 0,
        "slot": "4",
        "type": "t_address"
      },
      {
        "astId": 2197,
        "contract": "contracts/PokeMe.sol:PokeMe",
        "label": "timedTask",
        "offset": 0,
        "slot": "5",
        "type": "t_mapping(t_bytes32,t_struct(Time)2170_storage)"
      }
    ],
    "types": {
      "t_address": {
        "encoding": "inplace",
        "label": "address",
        "numberOfBytes": "20"
      },
      "t_array(t_bytes32)dyn_storage": {
        "base": "t_bytes32",
        "encoding": "dynamic_array",
        "label": "bytes32[]",
        "numberOfBytes": "32"
      },
      "t_bytes32": {
        "encoding": "inplace",
        "label": "bytes32",
        "numberOfBytes": "32"
      },
      "t_mapping(t_address,t_struct(Bytes32Set)1053_storage)": {
        "encoding": "mapping",
        "key": "t_address",
        "label": "mapping(address => struct EnumerableSet.Bytes32Set)",
        "numberOfBytes": "32",
        "value": "t_struct(Bytes32Set)1053_storage"
      },
      "t_mapping(t_bytes32,t_address)": {
        "encoding": "mapping",
        "key": "t_bytes32",
        "label": "mapping(bytes32 => address)",
        "numberOfBytes": "32",
        "value": "t_address"
      },
      "t_mapping(t_bytes32,t_struct(Time)2170_storage)": {
        "encoding": "mapping",
        "key": "t_bytes32",
        "label": "mapping(bytes32 => struct PokeMe.Time)",
        "numberOfBytes": "32",
        "value": "t_struct(Time)2170_storage"
      },
      "t_mapping(t_bytes32,t_uint256)": {
        "encoding": "mapping",
        "key": "t_bytes32",
        "label": "mapping(bytes32 => uint256)",
        "numberOfBytes": "32",
        "value": "t_uint256"
      },
      "t_struct(Bytes32Set)1053_storage": {
        "encoding": "inplace",
        "label": "struct EnumerableSet.Bytes32Set",
        "members": [
          {
            "astId": 1052,
            "contract": "contracts/PokeMe.sol:PokeMe",
            "label": "_inner",
            "offset": 0,
            "slot": "0",
            "type": "t_struct(Set)873_storage"
          }
        ],
        "numberOfBytes": "64"
      },
      "t_struct(Set)873_storage": {
        "encoding": "inplace",
        "label": "struct EnumerableSet.Set",
        "members": [
          {
            "astId": 868,
            "contract": "contracts/PokeMe.sol:PokeMe",
            "label": "_values",
            "offset": 0,
            "slot": "0",
            "type": "t_array(t_bytes32)dyn_storage"
          },
          {
            "astId": 872,
            "contract": "contracts/PokeMe.sol:PokeMe",
            "label": "_indexes",
            "offset": 0,
            "slot": "1",
            "type": "t_mapping(t_bytes32,t_uint256)"
          }
        ],
        "numberOfBytes": "64"
      },
      "t_struct(Time)2170_storage": {
        "encoding": "inplace",
        "label": "struct PokeMe.Time",
        "members": [
          {
            "astId": 2167,
            "contract": "contracts/PokeMe.sol:PokeMe",
            "label": "nextExec",
            "offset": 0,
            "slot": "0",
            "type": "t_uint128"
          },
          {
            "astId": 2169,
            "contract": "contracts/PokeMe.sol:PokeMe",
            "label": "interval",
            "offset": 16,
            "slot": "0",
            "type": "t_uint128"
          }
        ],
        "numberOfBytes": "32"
      },
      "t_uint128": {
        "encoding": "inplace",
        "label": "uint128",
        "numberOfBytes": "16"
      },
      "t_uint256": {
        "encoding": "inplace",
        "label": "uint256",
        "numberOfBytes": "32"
      }
    }
  }
}