{
  "address": "0x340759c8346A1E6Ed92035FB8B6ec57cE1D82c2c",
  "abi": [
    {
      "inputs": [
        {
          "internalType": "bytes",
          "name": "execData",
          "type": "bytes"
        }
      ],
      "name": "checker",
      "outputs": [
        {
          "internalType": "bool",
          "name": "",
          "type": "bool"
        },
        {
          "internalType": "bytes",
          "name": "",
          "type": "bytes"
        }
      ],
      "stateMutability": "pure",
      "type": "function"
    }
  ],
  "transactionHash": "0x8b90694748e5dcce72133a5b57c0d675cecce0b3067469d978a4fd4cf3e461d6",
  "args": [],
  "numDeployments": 1,
  "solcInputHash": "07324167f4bf468b271334a7271a4559",
  "bytecode": "0x608060405234801561001057600080fd5b5061031d806100206000396000f3fe608060405234801561001057600080fd5b506004361061002b5760003560e01c8063e931fd5b14610030575b600080fd5b61004a600480360381019061004591906101cb565b610061565b6040516100589291906102b7565b60405180910390f35b6000606060018391509150915091565b6000604051905090565b600080fd5b600080fd5b600080fd5b600080fd5b6000601f19601f8301169050919050565b7f4e487b7100000000000000000000000000000000000000000000000000000000600052604160045260246000fd5b6100d88261008f565b810181811067ffffffffffffffff821117156100f7576100f66100a0565b5b80604052505050565b600061010a610071565b905061011682826100cf565b919050565b600067ffffffffffffffff821115610136576101356100a0565b5b61013f8261008f565b9050602081019050919050565b82818337600083830152505050565b600061016e6101698461011b565b610100565b90508281526020810184848401111561018a5761018961008a565b5b61019584828561014c565b509392505050565b600082601f8301126101b2576101b1610085565b5b81356101c284826020860161015b565b91505092915050565b6000602082840312156101e1576101e061007b565b5b600082013567ffffffffffffffff8111156101ff576101fe610080565b5b61020b8482850161019d565b91505092915050565b60008115159050919050565b61022981610214565b82525050565b600081519050919050565b600082825260208201905092915050565b60005b8381101561026957808201518184015260208101905061024e565b83811115610278576000848401525b50505050565b60006102898261022f565b610293818561023a565b93506102a381856020860161024b565b6102ac8161008f565b840191505092915050565b60006040820190506102cc6000830185610220565b81810360208301526102de818461027e565b9050939250505056fea2646970667358221220807813d29c8f4132c1b1137f4dd5f96daeeaeb5392a0c0988d69a0dc77e0c8f464736f6c634300080c0033",
  "devdoc": {
    "kind": "dev",
    "methods": {},
    "version": 1
  },
  "userdoc": {
    "kind": "user",
    "methods": {},
    "version": 1
  },
  "storageLayout": {
    "storage": [],
    "types": null
  }
}