{
  "address": "0x6C42e4c6eA536095344967Dd7e87597Bb2eb7146",
  "abi": [
    {
      "inputs": [
        {
          "internalType": "address payable",
          "name": "_gelato",
          "type": "address"
        },
        {
          "internalType": "contract ITaskTreasuryUpgradable",
          "name": "_taskTreasury",
          "type": "address"
        }
      ],
      "stateMutability": "nonpayable",
      "type": "constructor"
    },
    {
      "anonymous": false,
      "inputs": [
        {
          "indexed": true,
          "internalType": "address",
          "name": "sponsor",
          "type": "address"
        },
        {
          "indexed": true,
          "internalType": "address",
          "name": "target",
          "type": "address"
        },
        {
          "indexed": true,
          "internalType": "address",
          "name": "feeToken",
          "type": "address"
        },
        {
          "indexed": false,
          "internalType": "uint256",
          "name": "oneBalanceChainId",
          "type": "uint256"
        },
        {
          "indexed": false,
          "internalType": "uint256",
          "name": "nativeToFeeTokenXRateNumerator",
          "type": "uint256"
        },
        {
          "indexed": false,
          "internalType": "uint256",
          "name": "nativeToFeeTokenXRateDenominator",
          "type": "uint256"
        },
        {
          "indexed": false,
          "internalType": "bytes32",
          "name": "correlationId",
          "type": "bytes32"
        }
      ],
      "name": "LogUseGelato1Balance",
      "type": "event"
    },
    {
      "stateMutability": "nonpayable",
      "type": "fallback"
    },
    {
      "inputs": [
        {
          "internalType": "bytes32",
          "name": "_taskId",
          "type": "bytes32"
        }
      ],
      "name": "cancelTask",
      "outputs": [],
      "stateMutability": "nonpayable",
      "type": "function"
    },
    {
      "inputs": [
        {
          "internalType": "address",
          "name": "_execAddress",
          "type": "address"
        },
        {
          "internalType": "bytes",
          "name": "_execDataOrSelector",
          "type": "bytes"
        },
        {
          "components": [
            {
              "internalType": "enum LibDataTypes.Module[]",
              "name": "modules",
              "type": "uint8[]"
            },
            {
              "internalType": "bytes[]",
              "name": "args",
              "type": "bytes[]"
            }
          ],
          "internalType": "struct LibDataTypes.ModuleData",
          "name": "_moduleData",
          "type": "tuple"
        },
        {
          "internalType": "address",
          "name": "_feeToken",
          "type": "address"
        }
      ],
      "name": "createTask",
      "outputs": [
        {
          "internalType": "bytes32",
          "name": "taskId",
          "type": "bytes32"
        }
      ],
      "stateMutability": "nonpayable",
      "type": "function"
    },
    {
      "inputs": [
        {
          "internalType": "address",
          "name": "_taskCreator",
          "type": "address"
        },
        {
          "internalType": "address",
          "name": "_execAddress",
          "type": "address"
        },
        {
          "internalType": "bytes",
          "name": "_execData",
          "type": "bytes"
        },
        {
          "components": [
            {
              "internalType": "enum LibDataTypes.Module[]",
              "name": "modules",
              "type": "uint8[]"
            },
            {
              "internalType": "bytes[]",
              "name": "args",
              "type": "bytes[]"
            }
          ],
          "internalType": "struct LibDataTypes.ModuleData",
          "name": "_moduleData",
          "type": "tuple"
        },
        {
          "internalType": "uint256",
          "name": "_txFee",
          "type": "uint256"
        },
        {
          "internalType": "address",
          "name": "_feeToken",
          "type": "address"
        },
        {
          "internalType": "bool",
          "name": "_useTaskTreasuryFunds",
          "type": "bool"
        },
        {
          "internalType": "bool",
          "name": "_revertOnFailure",
          "type": "bool"
        }
      ],
      "name": "exec",
      "outputs": [],
      "stateMutability": "nonpayable",
      "type": "function"
    },
    {
      "inputs": [
        {
          "internalType": "address",
          "name": "_taskCreator",
          "type": "address"
        },
        {
          "internalType": "address",
          "name": "_execAddress",
          "type": "address"
        },
        {
          "internalType": "bytes",
          "name": "_execData",
          "type": "bytes"
        },
        {
          "components": [
            {
              "internalType": "enum LibDataTypes.Module[]",
              "name": "modules",
              "type": "uint8[]"
            },
            {
              "internalType": "bytes[]",
              "name": "args",
              "type": "bytes[]"
            }
          ],
          "internalType": "struct LibDataTypes.ModuleData",
          "name": "_moduleData",
          "type": "tuple"
        },
        {
          "components": [
            {
              "internalType": "address",
              "name": "sponsor",
              "type": "address"
            },
            {
              "internalType": "address",
              "name": "feeToken",
              "type": "address"
            },
            {
              "internalType": "uint256",
              "name": "oneBalanceChainId",
              "type": "uint256"
            },
            {
              "internalType": "uint256",
              "name": "nativeToFeeTokenXRateNumerator",
              "type": "uint256"
            },
            {
              "internalType": "uint256",
              "name": "nativeToFeeTokenXRateDenominator",
              "type": "uint256"
            },
            {
              "internalType": "bytes32",
              "name": "correlationId",
              "type": "bytes32"
            }
          ],
          "internalType": "struct IGelato1Balance.Gelato1BalanceParam",
          "name": "_oneBalanceParam",
          "type": "tuple"
        },
        {
          "internalType": "bool",
          "name": "_revertOnFailure",
          "type": "bool"
        }
      ],
      "name": "exec1Balance",
      "outputs": [],
      "stateMutability": "nonpayable",
      "type": "function"
    },
    {
      "inputs": [
        {
          "internalType": "bytes32",
          "name": "",
          "type": "bytes32"
        }
      ],
      "name": "execAddresses",
      "outputs": [
        {
          "internalType": "address",
          "name": "",
          "type": "address"
        }
      ],
      "stateMutability": "view",
      "type": "function"
    },
    {
      "inputs": [],
      "name": "fee",
      "outputs": [
        {
          "internalType": "uint256",
          "name": "",
          "type": "uint256"
        }
      ],
      "stateMutability": "view",
      "type": "function"
    },
    {
      "inputs": [],
      "name": "feeToken",
      "outputs": [
        {
          "internalType": "address",
          "name": "",
          "type": "address"
        }
      ],
      "stateMutability": "view",
      "type": "function"
    },
    {
      "inputs": [],
      "name": "gelato",
      "outputs": [
        {
          "internalType": "address payable",
          "name": "",
          "type": "address"
        }
      ],
      "stateMutability": "view",
      "type": "function"
    },
    {
      "inputs": [],
      "name": "getFeeDetails",
      "outputs": [
        {
          "internalType": "uint256",
          "name": "",
          "type": "uint256"
        },
        {
          "internalType": "address",
          "name": "",
          "type": "address"
        }
      ],
      "stateMutability": "view",
      "type": "function"
    },
    {
      "inputs": [
        {
          "internalType": "address",
          "name": "taskCreator",
          "type": "address"
        },
        {
          "internalType": "address",
          "name": "execAddress",
          "type": "address"
        },
        {
          "internalType": "bytes4",
          "name": "execSelector",
          "type": "bytes4"
        },
        {
          "components": [
            {
              "internalType": "enum LibDataTypes.Module[]",
              "name": "modules",
              "type": "uint8[]"
            },
            {
              "internalType": "bytes[]",
              "name": "args",
              "type": "bytes[]"
            }
          ],
          "internalType": "struct LibDataTypes.ModuleData",
          "name": "moduleData",
          "type": "tuple"
        },
        {
          "internalType": "address",
          "name": "feeToken",
          "type": "address"
        }
      ],
      "name": "getTaskId",
      "outputs": [
        {
          "internalType": "bytes32",
          "name": "taskId",
          "type": "bytes32"
        }
      ],
      "stateMutability": "pure",
      "type": "function"
    },
    {
      "inputs": [
        {
          "internalType": "address",
          "name": "taskCreator",
          "type": "address"
        },
        {
          "internalType": "address",
          "name": "execAddress",
          "type": "address"
        },
        {
          "internalType": "bytes4",
          "name": "execSelector",
          "type": "bytes4"
        },
        {
          "internalType": "bool",
          "name": "useTaskTreasuryFunds",
          "type": "bool"
        },
        {
          "internalType": "address",
          "name": "feeToken",
          "type": "address"
        },
        {
          "internalType": "bytes32",
          "name": "resolverHash",
          "type": "bytes32"
        }
      ],
      "name": "getTaskId",
      "outputs": [
        {
          "internalType": "bytes32",
          "name": "taskId",
          "type": "bytes32"
        }
      ],
      "stateMutability": "pure",
      "type": "function"
    },
    {
      "inputs": [
        {
          "internalType": "address",
          "name": "_taskCreator",
          "type": "address"
        }
      ],
      "name": "getTaskIdsByUser",
      "outputs": [
        {
          "internalType": "bytes32[]",
          "name": "",
          "type": "bytes32[]"
        }
      ],
      "stateMutability": "view",
      "type": "function"
    },
    {
      "inputs": [
        {
          "internalType": "bytes32",
          "name": "",
          "type": "bytes32"
        }
      ],
      "name": "nonce1Balance",
      "outputs": [
        {
          "internalType": "uint256",
          "name": "",
          "type": "uint256"
        }
      ],
      "stateMutability": "view",
      "type": "function"
    },
    {
      "inputs": [
        {
          "internalType": "enum LibDataTypes.Module[]",
          "name": "_modules",
          "type": "uint8[]"
        },
        {
          "internalType": "address[]",
          "name": "_moduleAddresses",
          "type": "address[]"
        }
      ],
      "name": "setModule",
      "outputs": [],
      "stateMutability": "nonpayable",
      "type": "function"
    },
    {
      "inputs": [
        {
          "internalType": "bytes32",
          "name": "",
          "type": "bytes32"
        }
      ],
      "name": "taskCreator",
      "outputs": [
        {
          "internalType": "address",
          "name": "",
          "type": "address"
        }
      ],
      "stateMutability": "view",
      "type": "function"
    },
    {
      "inputs": [
        {
          "internalType": "enum LibDataTypes.Module",
          "name": "",
          "type": "uint8"
        }
      ],
      "name": "taskModuleAddresses",
      "outputs": [
        {
          "internalType": "address",
          "name": "",
          "type": "address"
        }
      ],
      "stateMutability": "view",
      "type": "function"
    },
    {
      "inputs": [],
      "name": "taskTreasury",
      "outputs": [
        {
          "internalType": "contract ITaskTreasuryUpgradable",
          "name": "",
          "type": "address"
        }
      ],
      "stateMutability": "view",
      "type": "function"
    },
    {
      "inputs": [
        {
          "internalType": "bytes32",
          "name": "",
          "type": "bytes32"
        }
      ],
      "name": "timedTask",
      "outputs": [
        {
          "internalType": "uint128",
          "name": "nextExec",
          "type": "uint128"
        },
        {
          "internalType": "uint128",
          "name": "interval",
          "type": "uint128"
        }
      ],
      "stateMutability": "view",
      "type": "function"
    },
    {
      "inputs": [],
      "name": "version",
      "outputs": [
        {
          "internalType": "string",
          "name": "",
          "type": "string"
        }
      ],
      "stateMutability": "view",
      "type": "function"
    }
  ],
  "transactionHash": "0xbf556be50548426d0fbda02efb2a1990540eaa356da42f76b659364ce81f91e0",
  "args": [
    "0x4775aF8FEf4809fE10bf05867d2b038a4b5B2146",
    "0x0FE92C3DE65C3BA8De7de38c63f09A8E48B4d0cB"
  ],
  "numDeployments": 2,
  "solcInputHash": "345f2b6f2ea28a56ce5ea8e59baf45ba",
  "bytecode": "0x60c06040523480156200001157600080fd5b506040516200545a3803806200545a83398181016040528101906200003791906200016c565b818073ffffffffffffffffffffffffffffffffffffffff1660808173ffffffffffffffffffffffffffffffffffffffff1681525050508073ffffffffffffffffffffffffffffffffffffffff1660a08173ffffffffffffffffffffffffffffffffffffffff16815250505050620001b3565b600080fd5b600073ffffffffffffffffffffffffffffffffffffffff82169050919050565b6000620000db82620000ae565b9050919050565b620000ed81620000ce565b8114620000f957600080fd5b50565b6000815190506200010d81620000e2565b92915050565b60006200012082620000ae565b9050919050565b6000620001348262000113565b9050919050565b620001468162000127565b81146200015257600080fd5b50565b60008151905062000166816200013b565b92915050565b60008060408385031215620001865762000185620000a9565b5b60006200019685828601620000fc565b9250506020620001a98582860162000155565b9150509250929050565b60805160a05161526c620001ee60003960008181610cf20152610eee0152600081816105db015281816107db0152610aee015261526c6000f3fe608060405234801561001057600080fd5b50600436106101255760003560e01c8063813785e6116100ad578063b81cd86611610071578063b81cd8661461035f578063cd3d4fb914610390578063ddca3f43146103c0578063e60a3213146103de578063ee8ca3b5146103fc57610126565b8063813785e6146102bc578063abf26d55146102d8578063ac21631a146102f4578063ad558ab914610324578063b810c6361461034057610126565b806354fd4d50116100f457806354fd4d5014610202578063573ea57514610220578063647846a51461023e5780636d2dd29f1461025c5780637b4e45e91461028c57610126565b80630407145c146101425780632e6e0bd0146101725780633140576e146101a25780633323b467146101d257610126565b5b60003660606101358383610418565b9050915050805190602001f35b61015c6004803603810190610157919061320e565b610480565b6040516101699190613303565b60405180910390f35b61018c60048036038101906101879190613351565b6104d6565b604051610199919061338d565b60405180910390f35b6101bc60048036038101906101b791906137a6565b610509565b6040516101c9919061384c565b60405180910390f35b6101ec60048036038101906101e791906138e6565b610523565b6040516101f9919061384c565b60405180910390f35b61020a6105a0565b6040516102179190613a12565b60405180910390f35b6102286105d9565b6040516102359190613a55565b60405180910390f35b6102466105fd565b604051610253919061338d565b60405180910390f35b61027660048036038101906102719190613351565b610623565b604051610283919061338d565b60405180910390f35b6102a660048036038101906102a19190613aa8565b610656565b6040516102b3919061384c565b60405180910390f35b6102d660048036038101906102d19190613be1565b610672565b005b6102f260048036038101906102ed9190613c81565b6107d9565b005b61030e60048036038101906103099190613351565b610ad4565b60405161031b9190613d61565b60405180910390f35b61033e60048036038101906103399190613da8565b610aec565b005b610348610e26565b604051610356929190613e96565b60405180910390f35b61037960048036038101906103749190613351565b610e57565b604051610387929190613eea565b60405180910390f35b6103aa60048036038101906103a59190613f13565b610eb3565b6040516103b7919061338d565b60405180910390f35b6103c8610ee6565b6040516103d59190613d61565b60405180910390f35b6103e6610eec565b6040516103f39190613f9f565b60405180910390f35b61041660048036038101906104119190613351565b610f10565b005b606060006104268484610f2e565b90506000806000806104398589896110a4565b93509350935093506000610450338686868661126c565b9050806040516020016104639190613fdb565b604051602081830303815290604052965050505050505092915050565b606060006104cb600260008573ffffffffffffffffffffffffffffffffffffffff1673ffffffffffffffffffffffffffffffffffffffff1681526020019081526020016000206113ea565b905080915050919050565b60006020528060005260406000206000915054906101000a900473ffffffffffffffffffffffffffffffffffffffff1681565b600061051886868686866113ff565b905095945050505050565b600080610532338860066114bf565b8098508192505050610594818888888080601f016020809104026020016040519081016040528093929190818152602001838380828437600081840152601f19601f820116905080830192505050505050508761058e90613ff6565b8761126c565b91505095945050505050565b6040518060400160405280600181526020017f360000000000000000000000000000000000000000000000000000000000000081525081565b7f000000000000000000000000000000000000000000000000000000000000000081565b600460009054906101000a900473ffffffffffffffffffffffffffffffffffffffff1681565b60016020528060005260406000206000915054906101000a900473ffffffffffffffffffffffffffffffffffffffff1681565b6000610666878787878787611688565b90509695505050505050565b61067a6116c7565b73ffffffffffffffffffffffffffffffffffffffff163373ffffffffffffffffffffffffffffffffffffffff16146106e7576040517f08c379a00000000000000000000000000000000000000000000000000000000081526004016106de90614055565b60405180910390fd5b600084849050905060005b818110156107d15783838281811061070d5761070c614075565b5b9050602002016020810190610722919061320e565b6006600088888581811061073957610738614075565b5b905060200201602081019061074e9190613f13565b60048111156107605761075f6140a4565b5b6004811115610772576107716140a4565b5b815260200190815260200160002060006101000a81548173ffffffffffffffffffffffffffffffffffffffff021916908373ffffffffffffffffffffffffffffffffffffffff16021790555080806107c990614102565b9150506106f2565b505050505050565b7f000000000000000000000000000000000000000000000000000000000000000073ffffffffffffffffffffffffffffffffffffffff163373ffffffffffffffffffffffffffffffffffffffff1614610867576040517f08c379a000000000000000000000000000000000000000000000000000000000815260040161085e90614196565b60405180910390fd5b60006108888787610877886116f0565b8761088190613ff6565b60006113ff565b90506108db81600260008a73ffffffffffffffffffffffffffffffffffffffff1673ffffffffffffffffffffffffffffffffffffffff16815260200190815260200160002061186990919063ffffffff16565b61091a576040517f08c379a000000000000000000000000000000000000000000000000000000000815260040161091190614202565b60405180910390fd5b600061097b828989898980600001906109339190614231565b80806020026020016040519081016040528093929190818152602001838360200280828437600081840152601f19601f82011690508083019250505050505050886006611880565b905060016007600084815260200190815260200160002060008282546109a19190614294565b925050819055508673ffffffffffffffffffffffffffffffffffffffff16600073ffffffffffffffffffffffffffffffffffffffff1660007fa458375b1282695a972870cbfbc4891a9d856b79d563d17667d171d87e0c527a898686604051610a0c9392919061434e565b60405180910390a4836020016020810190610a27919061320e565b73ffffffffffffffffffffffffffffffffffffffff168773ffffffffffffffffffffffffffffffffffffffff16856000016020810190610a67919061320e565b73ffffffffffffffffffffffffffffffffffffffff167f116bfd46451bbd23e7a5f5b7420b28e3d98d4c477f173da513aaaeac3c4baada8760400135886060013589608001358a60a00135604051610ac2949392919061438c565b60405180910390a45050505050505050565b60076020528060005260406000206000915090505481565b7f000000000000000000000000000000000000000000000000000000000000000073ffffffffffffffffffffffffffffffffffffffff163373ffffffffffffffffffffffffffffffffffffffff1614610b7a576040517f08c379a0000000000000000000000000000000000000000000000000000000008152600401610b7190614196565b60405180910390fd5b6000610ba78989610b8a8a6116f0565b89610b9490613ff6565b87610b9f5788610ba2565b60005b6113ff565b9050610bfa81600260008c73ffffffffffffffffffffffffffffffffffffffff1673ffffffffffffffffffffffffffffffffffffffff16815260200190815260200160002061186990919063ffffffff16565b610c39576040517f08c379a0000000000000000000000000000000000000000000000000000000008152600401610c3090614202565b60405180910390fd5b82610c87578460038190555083600460006101000a81548173ffffffffffffffffffffffffffffffffffffffff021916908373ffffffffffffffffffffffffffffffffffffffff1602179055505b6000610ce8828b8b8b8b8060000190610ca09190614231565b80806020026020016040519081016040528093929190818152602001838360200280828437600081840152601f19601f82011690508083019250505050505050886006611880565b90508315610d84577f000000000000000000000000000000000000000000000000000000000000000073ffffffffffffffffffffffffffffffffffffffff1663a3f1233e8b87896040518463ffffffff1660e01b8152600401610d4d939291906143d1565b600060405180830381600087803b158015610d6757600080fd5b505af1158015610d7b573d6000803e3d6000fd5b50505050610db0565b600360009055600460006101000a81549073ffffffffffffffffffffffffffffffffffffffff02191690555b8873ffffffffffffffffffffffffffffffffffffffff168573ffffffffffffffffffffffffffffffffffffffff16877fa458375b1282695a972870cbfbc4891a9d856b79d563d17667d171d87e0c527a8b8686604051610e129392919061434e565b60405180910390a450505050505050505050565b600080600354600460009054906101000a900473ffffffffffffffffffffffffffffffffffffffff16915091509091565b60056020528060005260406000206000915090508060000160009054906101000a90046fffffffffffffffffffffffffffffffff16908060000160109054906101000a90046fffffffffffffffffffffffffffffffff16905082565b60066020528060005260406000206000915054906101000a900473ffffffffffffffffffffffffffffffffffffffff1681565b60035481565b7f000000000000000000000000000000000000000000000000000000000000000081565b6000610f1e82336006611928565b9050610f2a8183611ae5565b5050565b6000601883836003818110610f4657610f45614075565b5b9050013560f81c60f81b7effffffffffffffffffffffffffffffffffffffffffffffffffffffffffffff19167bffffffffffffffffffffffffffffffffffffffffffffffffffffffff1916901c601084846002818110610fa957610fa8614075565b5b9050013560f81c60f81b7effffffffffffffffffffffffffffffffffffffffffffffffffffffffffffff19167bffffffffffffffffffffffffffffffffffffffffffffffffffffffff1916901c60088585600181811061100c5761100b614075565b5b9050013560f81c60f81b7effffffffffffffffffffffffffffffffffffffffffffffffffffffffffffff19167bffffffffffffffffffffffffffffffffffffffffffffffffffffffff1916901c8585600081811061106d5761106c614075565b5b9050013560f81c60f81b7effffffffffffffffffffffffffffffffffffffffffffffffffffffffffffff1916171717905092915050565b600060606110b0613182565b6000638b92696a60e01b7bffffffffffffffffffffffffffffffffffffffffffffffffffffffff1916877bffffffffffffffffffffffffffffffffffffffffffffffffffffffff19160361112e576111198686600490809261111493929190614412565b611c04565b80945081955082965083975050505050611263565b63b9f45adb60e01b7bffffffffffffffffffffffffffffffffffffffffffffffffffffffff1916877bffffffffffffffffffffffffffffffffffffffffffffffffffffffff1916036111aa576111958686600490809261119093929190614412565b611dab565b80945081955082965083975050505050611262565b63a873882560e01b7bffffffffffffffffffffffffffffffffffffffffffffffffffffffff1916877bffffffffffffffffffffffffffffffffffffffffffffffffffffffff191603611226576112118686600490809261120c93929190614412565b611f52565b80945081955082965083975050505050611261565b6040517f08c379a0000000000000000000000000000000000000000000000000000000008152600401611258906144bf565b60405180910390fd5b5b5b93509350935093565b6000611283868661127c876116f0565b86866113ff565b90506112d681600260008973ffffffffffffffffffffffffffffffffffffffff1673ffffffffffffffffffffffffffffffffffffffff16815260200190815260200160002061186990919063ffffffff16565b15611316576040517f08c379a000000000000000000000000000000000000000000000000000000000815260040161130d9061452b565b60405180910390fd5b61132581878787876006612116565b61137681600260008973ffffffffffffffffffffffffffffffffffffffff1673ffffffffffffffffffffffffffffffffffffffff1681526020019081526020016000206122e890919063ffffffff16565b50808573ffffffffffffffffffffffffffffffffffffffff168773ffffffffffffffffffffffffffffffffffffffff167f73f079427211e7b93db86024054de0b3c4a076a36cf0f86d2c4bf0d112eb7f1d8787876040516113d993929190614792565b60405180910390a495945050505050565b60606113f8826000016122ff565b9050919050565b600061140e836000015161235b565b1561148457600061143d84602001516000815181106114305761142f614075565b5b602002602001015161246c565b905061147c878787600073ffffffffffffffffffffffffffffffffffffffff168773ffffffffffffffffffffffffffffffffffffffff16148786611688565b9150506114b6565b858585858560405160200161149d9594939291906147e6565b6040516020818303038152906040528051906020012090505b95945050505050565b60008060006004808111156114d7576114d66140a4565b5b905060005b8181116116785760008160048111156114f8576114f76140a4565b5b90506115158160048111156115105761150f6140a4565b5b61247d565b61151f5750611665565b6000866000836004811115611537576115366140a4565b5b6004811115611549576115486140a4565b5b815260200190815260200160002060009054906101000a900473ffffffffffffffffffffffffffffffffffffffff169050611583816124be565b60006376474e6a60e01b8a8a6040516024016115a0929190614840565b604051602081830303815290604052907bffffffffffffffffffffffffffffffffffffffffffffffffffffffff19166020820180517bffffffffffffffffffffffffffffffffffffffffffffffffffffffff83818316178352505050509050600061164183836040518060400160405280601381526020017f4f70732e7072654372656174655461736b3a2000000000000000000000000000815250612530565b915050808060200190518101906116589190614895565b809b50819c505050505050505b808061167090614102565b9150506114dc565b5085859250925050935093915050565b60008686868686866040516020016116a5969594939291906148d5565b6040516020818303038152906040528051906020012090509695505050505050565b60007fb53127684a568b3173ae13b9f8a6016e243e63b6e8ee1178d6a717850b5d610354905090565b600060188260038151811061170857611707614075565b5b602001015160f81c60f81b7effffffffffffffffffffffffffffffffffffffffffffffffffffffffffffff19167bffffffffffffffffffffffffffffffffffffffffffffffffffffffff1916901c60108360028151811061176c5761176b614075565b5b602001015160f81c60f81b7effffffffffffffffffffffffffffffffffffffffffffffffffffffffffffff19167bffffffffffffffffffffffffffffffffffffffffffffffffffffffff1916901c6008846001815181106117d0576117cf614075565b5b602001015160f81c60f81b7effffffffffffffffffffffffffffffffffffffffffffffffffffffffffffff19167bffffffffffffffffffffffffffffffffffffffffffffffffffffffff1916901c8460008151811061183257611831614075565b5b602001015160f81c60f81b7effffffffffffffffffffffffffffffffffffffffffffffffffffffffffffff19161717179050919050565b600061187883600001836125ba565b905092915050565b60008061188d85846125dd565b905061189d89898989898661271a565b809750819850505061190987878a6040516020016118bc9291906149ba565b6040516020818303038152906040526000876040518060400160405280600a81526020017f4f70732e657865633a200000000000000000000000000000000000000000000081525061288d565b508092505061191c898989898986612927565b50979650505050505050565b60008060048081111561193e5761193d6140a4565b5b905060005b818111611ad957600081600481111561195f5761195e6140a4565b5b905061197c816004811115611977576119766140a4565b5b612a6d565b6119865750611ac6565b600085600083600481111561199e5761199d6140a4565b5b60048111156119b0576119af6140a4565b5b815260200190815260200160002060009054906101000a900473ffffffffffffffffffffffffffffffffffffffff1690506119ea816124be565b60006314ae992660e01b8989604051602401611a079291906149e2565b604051602081830303815290604052907bffffffffffffffffffffffffffffffffffffffffffffffffffffffff19166020820180517bffffffffffffffffffffffffffffffffffffffffffffffffffffffff838183161783525050505090506000611aa883836040518060400160405280601381526020017f4f70732e70726543616e63656c5461736b3a2000000000000000000000000000815250612530565b91505080806020019051810190611abf9190614a0b565b9850505050505b8080611ad190614102565b915050611943565b50839150509392505050565b611b3681600260008573ffffffffffffffffffffffffffffffffffffffff1673ffffffffffffffffffffffffffffffffffffffff16815260200190815260200160002061186990919063ffffffff16565b611b75576040517f08c379a0000000000000000000000000000000000000000000000000000000008152600401611b6c90614a84565b60405180910390fd5b611bc681600260008573ffffffffffffffffffffffffffffffffffffffff1673ffffffffffffffffffffffffffffffffffffffff168152602001908152602001600020612ade90919063ffffffff16565b507f44d83729a43f9c6046446df014d073dd242e0ad672071e9b292f31b669c25b098183604051611bf89291906149e2565b60405180910390a15050565b60006060611c10613182565b600080600060608888810190611c269190614ab9565b809450819550829650839a50505050506000600167ffffffffffffffff811115611c5357611c52613416565b5b604051908082528060200260200182016040528015611c815781602001602082028036833780820191505090505b509050600081600081518110611c9a57611c99614075565b5b60200260200101906004811115611cb457611cb36140a4565b5b90816004811115611cc857611cc76140a4565b5b815250506000600167ffffffffffffffff811115611ce957611ce8613416565b5b604051908082528060200260200182016040528015611d1c57816020015b6060815260200190600190039081611d075790505b5090508383604051602001611d32929190614b3c565b60405160208183030381529060405281600081518110611d5557611d54614075565b5b6020026020010181905250604051806040016040528083815260200182815250965084604051602001611d889190614b8d565b604051602081830303815290604052975060009550505050505092959194509250565b60006060611db7613182565b600080600060608888810190611dcd9190614ba8565b809850819550829650839750849b5050505050506000600167ffffffffffffffff811115611dfe57611dfd613416565b5b604051908082528060200260200182016040528015611e2c5781602001602082028036833780820191505090505b509050600081600081518110611e4557611e44614075565b5b60200260200101906004811115611e5f57611e5e6140a4565b5b90816004811115611e7357611e726140a4565b5b815250506000600167ffffffffffffffff811115611e9457611e93613416565b5b604051908082528060200260200182016040528015611ec757816020015b6060815260200190600190039081611eb25790505b5090508383604051602001611edd929190614b3c565b60405160208183030381529060405281600081518110611f0057611eff614075565b5b6020026020010181905250604051806040016040528083815260200182815250965084604051602001611f339190614b8d565b6040516020818303038152906040529750505050505092959194509250565b60006060611f5e613182565b6000606080611f6d8888612af5565b809550819650829750839950849a5050505050506000600267ffffffffffffffff811115611f9e57611f9d613416565b5b604051908082528060200260200182016040528015611fcc5781602001602082028036833780820191505090505b509050600081600081518110611fe557611fe4614075565b5b60200260200101906004811115611fff57611ffe6140a4565b5b90816004811115612013576120126140a4565b5b8152505060018160018151811061202d5761202c614075565b5b60200260200101906004811115612047576120466140a4565b5b9081600481111561205b5761205a6140a4565b5b815250506000600267ffffffffffffffff81111561207c5761207b613416565b5b6040519080825280602002602001820160405280156120af57816020015b606081526020019060019003908161209a5790505b50905083816000815181106120c7576120c6614075565b5b602002602001018190525082816001815181106120e7576120e6614075565b5b602002602001018190525060405180604001604052808381526020018281525095505050505092959194509250565b6000826000015151905061212e818460000151612bbb565b60005b818110156122de5760008460000151828151811061215257612151614075565b5b60200260200101519050612177816004811115612172576121716140a4565b5b612d74565b61218157506122cb565b6000846000836004811115612199576121986140a4565b5b60048111156121ab576121aa6140a4565b5b815260200190815260200160002060009054906101000a900473ffffffffffffffffffffffffffffffffffffffff1690506121e5816124be565b600063b0ccbdf060e01b8b8b8b8b8b60200151898151811061220a57612209614075565b5b6020026020010151604051602401612226959493929190614c3f565b604051602081830303815290604052907bffffffffffffffffffffffffffffffffffffffffffffffffffffffff19166020820180517bffffffffffffffffffffffffffffffffffffffffffffffffffffffff838183161783525050505090506122c582826040518060400160405280601281526020017f4f70732e6f6e4372656174655461736b3a200000000000000000000000000000815250612530565b50505050505b80806122d690614102565b915050612131565b5050505050505050565b60006122f78360000183612de5565b905092915050565b60608160000180548060200260200160405190810160405280929190818152602001828054801561234f57602002820191906000526020600020905b81548152602001906001019080831161233b575b50505050509050919050565b600080825190506001811480156123b1575060006004811115612381576123806140a4565b5b8360008151811061239557612394614075565b5b602002602001015160048111156123af576123ae6140a4565b5b145b8061245257506002811480156124065750600060048111156123d6576123d56140a4565b5b836000815181106123ea576123e9614075565b5b60200260200101516004811115612404576124036140a4565b5b145b8015612451575060016004811115612421576124206140a4565b5b8360018151811061243557612434614075565b5b6020026020010151600481111561244f5761244e6140a4565b5b145b5b15612461576001915050612467565b60009150505b919050565b600081805190602001209050919050565b600060026004811115612493576124926140a4565b5b8260048111156124a6576124a56140a4565b5b036124b457600190506124b9565b600090505b919050565b600073ffffffffffffffffffffffffffffffffffffffff168173ffffffffffffffffffffffffffffffffffffffff160361252d576040517f08c379a000000000000000000000000000000000000000000000000000000000815260040161252490614cec565b60405180910390fd5b50565b600060608473ffffffffffffffffffffffffffffffffffffffff16846040516125599190614d0c565b600060405180830381855af49150503d8060008114612594576040519150601f19603f3d011682016040523d82523d6000602084013e612599565b606091505b508092508193505050816125b2576125b18184612e55565b5b935093915050565b600080836001016000848152602001908152602001600020541415905092915050565b606060008351905060008167ffffffffffffffff81111561260157612600613416565b5b60405190808252806020026020018201604052801561262f5781602001602082028036833780820191505090505b50905060005b8281101561270e5784600087838151811061265357612652614075565b5b6020026020010151600481111561266d5761266c6140a4565b5b600481111561267f5761267e6140a4565b5b815260200190815260200160002060009054906101000a900473ffffffffffffffffffffffffffffffffffffffff168282815181106126c1576126c0614075565b5b602002602001019073ffffffffffffffffffffffffffffffffffffffff16908173ffffffffffffffffffffffffffffffffffffffff1681525050808061270690614102565b915050612635565b50809250505092915050565b6000606060008451905060005b8181101561287a5761276486828151811061274557612744614075565b5b6020026020010151600481111561275f5761275e6140a4565b5b612fbc565b1561286757600063c10304f760e01b8b8b8b8b60405160240161278a9493929190614d23565b604051602081830303815290604052907bffffffffffffffffffffffffffffffffffffffffffffffffffffffff19166020820180517bffffffffffffffffffffffffffffffffffffffffffffffffffffffff83818316178352505050509050600061284587848151811061280157612800614075565b5b6020026020010151836040518060400160405280601181526020017f4f70732e7072654578656343616c6c3a20000000000000000000000000000000815250612530565b9150508080602001905181019061285c9190614ddf565b809a50819b50505050505b808061287290614102565b915050612727565b5086869250925050965096945050505050565b600060608673ffffffffffffffffffffffffffffffffffffffff1685876040516128b79190614d0c565b60006040518083038185875af1925050503d80600081146128f4576040519150601f19603f3d011682016040523d82523d6000602084013e6128f9565b606091505b5080925081935050508115801561290d5750835b1561291d5761291c8184612e55565b5b9550959350505050565b60008151905060005b81811015612a635761296d84828151811061294e5761294d614075565b5b60200260200101516004811115612968576129676140a4565b5b61302d565b15612a5057600063b2db0b4160e01b898989896040516024016129939493929190614d23565b604051602081830303815290604052907bffffffffffffffffffffffffffffffffffffffffffffffffffffffff19166020820180517bffffffffffffffffffffffffffffffffffffffffffffffffffffffff83818316178352505050509050612a4c848381518110612a0857612a07614075565b5b6020026020010151826040518060400160405280601281526020017f4f70732e706f73744578656343616c6c3a200000000000000000000000000000815250612530565b5050505b8080612a5b90614102565b915050612930565b5050505050505050565b600060016004811115612a8357612a826140a4565b5b826004811115612a9657612a956140a4565b5b1480612ac6575060026004811115612ab157612ab06140a4565b5b826004811115612ac457612ac36140a4565b5b145b15612ad45760019050612ad9565b600090505b919050565b6000612aed836000018361306e565b905092915050565b6000606060006060806000806000806000806000808e8e810190612b199190614e67565b975097509750975097509750975097508585604051602001612b3b9190614b8d565b60405160208183030381529060405282612b555783612b58565b60005b9350838686604051602001612b6e929190614b3c565b6040516020818303038152906040528b8b604051602001612b90929190613eea565b6040516020818303038152906040529c509c509c509c509c5050505050505050509295509295909350565b6001821115612d70576000806004811115612bd957612bd86140a4565b5b82600081518110612bed57612bec614075565b5b60200260200101516004811115612c0757612c066140a4565b5b14905060005b600184612c1a9190614f39565b811015612d6d57828181518110612c3457612c33614075565b5b60200260200101516004811115612c4e57612c4d6140a4565b5b83600183612c5c9190614294565b81518110612c6d57612c6c614075565b5b60200260200101516004811115612c8757612c866140a4565b5b11612cc7576040517f08c379a0000000000000000000000000000000000000000000000000000000008152600401612cbe90614fb9565b60405180910390fd5b8115612d5a57600480811115612ce057612cdf6140a4565b5b83600183612cee9190614294565b81518110612cff57612cfe614075565b5b60200260200101516004811115612d1957612d186140a4565b5b03612d59576040517f08c379a0000000000000000000000000000000000000000000000000000000008152600401612d509061504b565b60405180910390fd5b5b8080612d6590614102565b915050612c0d565b50505b5050565b600060016004811115612d8a57612d896140a4565b5b826004811115612d9d57612d9c6140a4565b5b1480612dcd575060026004811115612db857612db76140a4565b5b826004811115612dcb57612dca6140a4565b5b145b15612ddb5760019050612de0565b600090505b919050565b6000612df183836125ba565b612e4a578260000182908060018154018082558091505060019003906000526020600020016000909190919091505582600001805490508360010160008481526020019081526020016000208190555060019050612e4f565b600090505b92915050565b600460208351612e65919061509a565b03612f60576000826020015190506308c379a060e01b817bffffffffffffffffffffffffffffffffffffffffffffffffffffffff191603612f04576044830192508183604051602001612eb9929190615107565b6040516020818303038152906040526040517f08c379a0000000000000000000000000000000000000000000000000000000008152600401612efb9190613a12565b60405180910390fd5b81604051602001612f159190615177565b6040516020818303038152906040526040517f08c379a0000000000000000000000000000000000000000000000000000000008152600401612f579190613a12565b60405180910390fd5b80604051602001612f7191906151e5565b6040516020818303038152906040526040517f08c379a0000000000000000000000000000000000000000000000000000000008152600401612fb39190613a12565b60405180910390fd5b600060016004811115612fd257612fd16140a4565b5b826004811115612fe557612fe46140a4565b5b148061301557506002600481111561300057612fff6140a4565b5b826004811115613013576130126140a4565b5b145b156130235760019050613028565b600090505b919050565b600060036004811115613043576130426140a4565b5b826004811115613056576130556140a4565b5b036130645760019050613069565b600090505b919050565b600080836001016000848152602001908152602001600020549050600081146131765760006001826130a09190614f39565b90506000600186600001805490506130b89190614f39565b90508181146131275760008660000182815481106130d9576130d8614075565b5b90600052602060002001549050808760000184815481106130fd576130fc614075565b5b90600052602060002001819055508387600101600083815260200190815260200160002081905550505b8560000180548061313b5761313a615207565b5b60019003818190600052602060002001600090559055856001016000868152602001908152602001600020600090556001935050505061317c565b60009150505b92915050565b604051806040016040528060608152602001606081525090565b6000604051905090565b600080fd5b600080fd5b600073ffffffffffffffffffffffffffffffffffffffff82169050919050565b60006131db826131b0565b9050919050565b6131eb816131d0565b81146131f657600080fd5b50565b600081359050613208816131e2565b92915050565b600060208284031215613224576132236131a6565b5b6000613232848285016131f9565b91505092915050565b600081519050919050565b600082825260208201905092915050565b6000819050602082019050919050565b6000819050919050565b61327a81613267565b82525050565b600061328c8383613271565b60208301905092915050565b6000602082019050919050565b60006132b08261323b565b6132ba8185613246565b93506132c583613257565b8060005b838110156132f65781516132dd8882613280565b97506132e883613298565b9250506001810190506132c9565b5085935050505092915050565b6000602082019050818103600083015261331d81846132a5565b905092915050565b61332e81613267565b811461333957600080fd5b50565b60008135905061334b81613325565b92915050565b600060208284031215613367576133666131a6565b5b60006133758482850161333c565b91505092915050565b613387816131d0565b82525050565b60006020820190506133a2600083018461337e565b92915050565b60007fffffffff0000000000000000000000000000000000000000000000000000000082169050919050565b6133dd816133a8565b81146133e857600080fd5b50565b6000813590506133fa816133d4565b92915050565b600080fd5b6000601f19601f8301169050919050565b7f4e487b7100000000000000000000000000000000000000000000000000000000600052604160045260246000fd5b61344e82613405565b810181811067ffffffffffffffff8211171561346d5761346c613416565b5b80604052505050565b600061348061319c565b905061348c8282613445565b919050565b600080fd5b600080fd5b600067ffffffffffffffff8211156134b6576134b5613416565b5b602082029050602081019050919050565b600080fd5b600581106134d957600080fd5b50565b6000813590506134eb816134cc565b92915050565b60006135046134ff8461349b565b613476565b90508083825260208201905060208402830185811115613527576135266134c7565b5b835b81811015613550578061353c88826134dc565b845260208401935050602081019050613529565b5050509392505050565b600082601f83011261356f5761356e613496565b5b813561357f8482602086016134f1565b91505092915050565b600067ffffffffffffffff8211156135a3576135a2613416565b5b602082029050602081019050919050565b600080fd5b600067ffffffffffffffff8211156135d4576135d3613416565b5b6135dd82613405565b9050602081019050919050565b82818337600083830152505050565b600061360c613607846135b9565b613476565b905082815260208101848484011115613628576136276135b4565b5b6136338482856135ea565b509392505050565b600082601f8301126136505761364f613496565b5b81356136608482602086016135f9565b91505092915050565b600061367c61367784613588565b613476565b9050808382526020820190506020840283018581111561369f5761369e6134c7565b5b835b818110156136e657803567ffffffffffffffff8111156136c4576136c3613496565b5b8086016136d1898261363b565b855260208501945050506020810190506136a1565b5050509392505050565b600082601f83011261370557613704613496565b5b8135613715848260208601613669565b91505092915050565b60006040828403121561373457613733613400565b5b61373e6040613476565b9050600082013567ffffffffffffffff81111561375e5761375d613491565b5b61376a8482850161355a565b600083015250602082013567ffffffffffffffff81111561378e5761378d613491565b5b61379a848285016136f0565b60208301525092915050565b600080600080600060a086880312156137c2576137c16131a6565b5b60006137d0888289016131f9565b95505060206137e1888289016131f9565b94505060406137f2888289016133eb565b935050606086013567ffffffffffffffff811115613813576138126131ab565b5b61381f8882890161371e565b9250506080613830888289016131f9565b9150509295509295909350565b61384681613267565b82525050565b6000602082019050613861600083018461383d565b92915050565b600080fd5b60008083601f84011261388257613881613496565b5b8235905067ffffffffffffffff81111561389f5761389e613867565b5b6020830191508360018202830111156138bb576138ba6134c7565b5b9250929050565b600080fd5b6000604082840312156138dd576138dc6138c2565b5b81905092915050565b600080600080600060808688031215613902576139016131a6565b5b6000613910888289016131f9565b955050602086013567ffffffffffffffff811115613931576139306131ab565b5b61393d8882890161386c565b9450945050604086013567ffffffffffffffff8111156139605761395f6131ab565b5b61396c888289016138c7565b925050606061397d888289016131f9565b9150509295509295909350565b600081519050919050565b600082825260208201905092915050565b60005b838110156139c45780820151818401526020810190506139a9565b838111156139d3576000848401525b50505050565b60006139e48261398a565b6139ee8185613995565b93506139fe8185602086016139a6565b613a0781613405565b840191505092915050565b60006020820190508181036000830152613a2c81846139d9565b905092915050565b6000613a3f826131b0565b9050919050565b613a4f81613a34565b82525050565b6000602082019050613a6a6000830184613a46565b92915050565b60008115159050919050565b613a8581613a70565b8114613a9057600080fd5b50565b600081359050613aa281613a7c565b92915050565b60008060008060008060c08789031215613ac557613ac46131a6565b5b6000613ad389828a016131f9565b9650506020613ae489828a016131f9565b9550506040613af589828a016133eb565b9450506060613b0689828a01613a93565b9350506080613b1789828a016131f9565b92505060a0613b2889828a0161333c565b9150509295509295509295565b60008083601f840112613b4b57613b4a613496565b5b8235905067ffffffffffffffff811115613b6857613b67613867565b5b602083019150836020820283011115613b8457613b836134c7565b5b9250929050565b60008083601f840112613ba157613ba0613496565b5b8235905067ffffffffffffffff811115613bbe57613bbd613867565b5b602083019150836020820283011115613bda57613bd96134c7565b5b9250929050565b60008060008060408587031215613bfb57613bfa6131a6565b5b600085013567ffffffffffffffff811115613c1957613c186131ab565b5b613c2587828801613b35565b9450945050602085013567ffffffffffffffff811115613c4857613c476131ab565b5b613c5487828801613b8b565b925092505092959194509250565b600060c08284031215613c7857613c776138c2565b5b81905092915050565b6000806000806000806101608789031215613c9f57613c9e6131a6565b5b6000613cad89828a016131f9565b9650506020613cbe89828a016131f9565b955050604087013567ffffffffffffffff811115613cdf57613cde6131ab565b5b613ceb89828a0161363b565b945050606087013567ffffffffffffffff811115613d0c57613d0b6131ab565b5b613d1889828a016138c7565b9350506080613d2989828a01613c62565b925050610140613d3b89828a01613a93565b9150509295509295509295565b6000819050919050565b613d5b81613d48565b82525050565b6000602082019050613d766000830184613d52565b92915050565b613d8581613d48565b8114613d9057600080fd5b50565b600081359050613da281613d7c565b92915050565b600080600080600080600080610100898b031215613dc957613dc86131a6565b5b6000613dd78b828c016131f9565b9850506020613de88b828c016131f9565b975050604089013567ffffffffffffffff811115613e0957613e086131ab565b5b613e158b828c0161363b565b965050606089013567ffffffffffffffff811115613e3657613e356131ab565b5b613e428b828c016138c7565b9550506080613e538b828c01613d93565b94505060a0613e648b828c016131f9565b93505060c0613e758b828c01613a93565b92505060e0613e868b828c01613a93565b9150509295985092959890939650565b6000604082019050613eab6000830185613d52565b613eb8602083018461337e565b9392505050565b60006fffffffffffffffffffffffffffffffff82169050919050565b613ee481613ebf565b82525050565b6000604082019050613eff6000830185613edb565b613f0c6020830184613edb565b9392505050565b600060208284031215613f2957613f286131a6565b5b6000613f37848285016134dc565b91505092915050565b6000819050919050565b6000613f65613f60613f5b846131b0565b613f40565b6131b0565b9050919050565b6000613f7782613f4a565b9050919050565b6000613f8982613f6c565b9050919050565b613f9981613f7e565b82525050565b6000602082019050613fb46000830184613f90565b92915050565b6000819050919050565b613fd5613fd082613267565b613fba565b82525050565b6000613fe78284613fc4565b60208201915081905092915050565b6000614002368361371e565b9050919050565b7f4e4f545f415554484f52495a4544000000000000000000000000000000000000600082015250565b600061403f600e83613995565b915061404a82614009565b602082019050919050565b6000602082019050818103600083015261406e81614032565b9050919050565b7f4e487b7100000000000000000000000000000000000000000000000000000000600052603260045260246000fd5b7f4e487b7100000000000000000000000000000000000000000000000000000000600052602160045260246000fd5b7f4e487b7100000000000000000000000000000000000000000000000000000000600052601160045260246000fd5b600061410d82613d48565b91507fffffffffffffffffffffffffffffffffffffffffffffffffffffffffffffffff820361413f5761413e6140d3565b5b600182019050919050565b7f47656c61746f666965643a204f6e6c792067656c61746f000000000000000000600082015250565b6000614180601783613995565b915061418b8261414a565b602082019050919050565b600060208201905081810360008301526141af81614173565b9050919050565b7f4f70732e657865633a205461736b206e6f7420666f756e640000000000000000600082015250565b60006141ec601883613995565b91506141f7826141b6565b602082019050919050565b6000602082019050818103600083015261421b816141df565b9050919050565b600080fd5b600080fd5b600080fd5b6000808335600160200384360303811261424e5761424d614222565b5b80840192508235915067ffffffffffffffff8211156142705761426f614227565b5b60208301925060208202360383131561428c5761428b61422c565b5b509250929050565b600061429f82613d48565b91506142aa83613d48565b9250827fffffffffffffffffffffffffffffffffffffffffffffffffffffffffffffffff038211156142df576142de6140d3565b5b828201905092915050565b600081519050919050565b600082825260208201905092915050565b6000614311826142ea565b61431b81856142f5565b935061432b8185602086016139a6565b61433481613405565b840191505092915050565b61434881613a70565b82525050565b600060608201905081810360008301526143688186614306565b9050614377602083018561383d565b614384604083018461433f565b949350505050565b60006080820190506143a16000830187613d52565b6143ae6020830186613d52565b6143bb6040830185613d52565b6143c8606083018461383d565b95945050505050565b60006060820190506143e6600083018661337e565b6143f3602083018561337e565b6144006040830184613d52565b949350505050565b600080fd5b600080fd5b6000808585111561442657614425614408565b5b838611156144375761443661440d565b5b6001850283019150848603905094509492505050565b7f4f70732e6372656174655461736b3a2046756e6374696f6e206e6f7420666f7560008201527f6e64000000000000000000000000000000000000000000000000000000000000602082015250565b60006144a9602283613995565b91506144b48261444d565b604082019050919050565b600060208201905081810360008301526144d88161449c565b9050919050565b7f4f70732e6372656174655461736b3a204475706c6963617465207461736b0000600082015250565b6000614515601e83613995565b9150614520826144df565b602082019050919050565b6000602082019050818103600083015261454481614508565b9050919050565b600081519050919050565b600082825260208201905092915050565b6000819050602082019050919050565b60058110614588576145876140a4565b5b50565b600081905061459982614577565b919050565b60006145a98261458b565b9050919050565b6145b98161459e565b82525050565b60006145cb83836145b0565b60208301905092915050565b6000602082019050919050565b60006145ef8261454b565b6145f98185614556565b935061460483614567565b8060005b8381101561463557815161461c88826145bf565b9750614627836145d7565b925050600181019050614608565b5085935050505092915050565b600081519050919050565b600082825260208201905092915050565b6000819050602082019050919050565b600082825260208201905092915050565b600061468a826142ea565b614694818561466e565b93506146a48185602086016139a6565b6146ad81613405565b840191505092915050565b60006146c4838361467f565b905092915050565b6000602082019050919050565b60006146e482614642565b6146ee818561464d565b9350836020820285016147008561465e565b8060005b8581101561473c578484038952815161471d85826146b8565b9450614728836146cc565b925060208a01995050600181019050614704565b50829750879550505050505092915050565b6000604083016000830151848203600086015261476b82826145e4565b9150506020830151848203602086015261478582826146d9565b9150508091505092915050565b600060608201905081810360008301526147ac8186614306565b905081810360208301526147c0818561474e565b90506147cf604083018461337e565b949350505050565b6147e0816133a8565b82525050565b600060a0820190506147fb600083018861337e565b614808602083018761337e565b61481560408301866147d7565b8181036060830152614827818561474e565b9050614836608083018461337e565b9695505050505050565b6000604082019050614855600083018561337e565b614862602083018461337e565b9392505050565b61487281613a34565b811461487d57600080fd5b50565b60008151905061488f81614869565b92915050565b600080604083850312156148ac576148ab6131a6565b5b60006148ba85828601614880565b92505060206148cb85828601614880565b9150509250929050565b600060c0820190506148ea600083018961337e565b6148f7602083018861337e565b61490460408301876147d7565b614911606083018661433f565b61491e608083018561337e565b61492b60a083018461383d565b979650505050505050565b600081905092915050565b600061494c826142ea565b6149568185614936565b93506149668185602086016139a6565b80840191505092915050565b60008160601b9050919050565b600061498a82614972565b9050919050565b600061499c8261497f565b9050919050565b6149b46149af826131d0565b614991565b82525050565b60006149c68285614941565b91506149d282846149a3565b6014820191508190509392505050565b60006040820190506149f7600083018561383d565b614a04602083018461337e565b9392505050565b600060208284031215614a2157614a206131a6565b5b6000614a2f84828501614880565b91505092915050565b7f4f70732e63616e63656c5461736b3a205461736b206e6f7420666f756e640000600082015250565b6000614a6e601e83613995565b9150614a7982614a38565b602082019050919050565b60006020820190508181036000830152614a9d81614a61565b9050919050565b600081359050614ab381614869565b92915050565b60008060008060808587031215614ad357614ad26131a6565b5b6000614ae187828801614aa4565b9450506020614af2878288016133eb565b9350506040614b0387828801614aa4565b925050606085013567ffffffffffffffff811115614b2457614b236131ab565b5b614b308782880161363b565b91505092959194509250565b6000604082019050614b51600083018561337e565b8181036020830152614b638184614306565b90509392505050565b6000819050919050565b614b87614b82826133a8565b614b6c565b82525050565b6000614b998284614b76565b60048201915081905092915050565b600080600080600060a08688031215614bc457614bc36131a6565b5b6000614bd288828901614aa4565b9550506020614be3888289016133eb565b9450506040614bf488828901614aa4565b935050606086013567ffffffffffffffff811115614c1557614c146131ab565b5b614c218882890161363b565b9250506080614c3288828901614aa4565b9150509295509295909350565b600060a082019050614c54600083018861383d565b614c61602083018761337e565b614c6e604083018661337e565b8181036060830152614c808185614306565b90508181036080830152614c948184614306565b90509695505050505050565b7f4f70732e5f6d6f64756c65496e697469616c697365643a204e6f7420696e6974600082015250565b6000614cd6602083613995565b9150614ce182614ca0565b602082019050919050565b60006020820190508181036000830152614d0581614cc9565b9050919050565b6000614d188284614941565b915081905092915050565b6000608082019050614d38600083018761383d565b614d45602083018661337e565b614d52604083018561337e565b8181036060830152614d648184614306565b905095945050505050565b6000614d82614d7d846135b9565b613476565b905082815260208101848484011115614d9e57614d9d6135b4565b5b614da98482856139a6565b509392505050565b600082601f830112614dc657614dc5613496565b5b8151614dd6848260208601614d6f565b91505092915050565b60008060408385031215614df657614df56131a6565b5b6000614e0485828601614880565b925050602083015167ffffffffffffffff811115614e2557614e246131ab565b5b614e3185828601614db1565b9150509250929050565b614e4481613ebf565b8114614e4f57600080fd5b50565b600081359050614e6181614e3b565b92915050565b600080600080600080600080610100898b031215614e8857614e876131a6565b5b6000614e968b828c01614e52565b9850506020614ea78b828c01614e52565b9750506040614eb88b828c01614aa4565b9650506060614ec98b828c016133eb565b9550506080614eda8b828c01614aa4565b94505060a089013567ffffffffffffffff811115614efb57614efa6131ab565b5b614f078b828c0161363b565b93505060c0614f188b828c01614aa4565b92505060e0614f298b828c01613a93565b9150509295985092959890939650565b6000614f4482613d48565b9150614f4f83613d48565b925082821015614f6257614f616140d3565b5b828203905092915050565b7f4f70732e5f76616c69644d6f64756c65733a20417363206f6e6c790000000000600082015250565b6000614fa3601b83613995565b9150614fae82614f6d565b602082019050919050565b60006020820190508181036000830152614fd281614f96565b9050919050565b7f4f70732e5f76616c69644d6f64756c65733a204f6e6c79206f6e65207265736f60008201527f6c76657200000000000000000000000000000000000000000000000000000000602082015250565b6000615035602483613995565b915061504082614fd9565b604082019050919050565b6000602082019050818103600083015261506481615028565b9050919050565b7f4e487b7100000000000000000000000000000000000000000000000000000000600052601260045260246000fd5b60006150a582613d48565b91506150b083613d48565b9250826150c0576150bf61506b565b5b828206905092915050565b600081905092915050565b60006150e18261398a565b6150eb81856150cb565b93506150fb8185602086016139a6565b80840191505092915050565b600061511382856150d6565b915061511f82846150d6565b91508190509392505050565b7f4e6f4572726f7253656c6563746f720000000000000000000000000000000000600082015250565b6000615161600f836150cb565b915061516c8261512b565b600f82019050919050565b600061518382846150d6565b915061518e82615154565b915081905092915050565b7f556e657870656374656452657475726e64617461000000000000000000000000600082015250565b60006151cf6014836150cb565b91506151da82615199565b601482019050919050565b60006151f182846150d6565b91506151fc826151c2565b915081905092915050565b7f4e487b7100000000000000000000000000000000000000000000000000000000600052603160045260246000fdfea26469706673582212207bbda34129b4271bd2cf1484b6770f79664c0779b416fc46eeaf64647ccc246764736f6c634300080e0033",
  "devdoc": {
    "kind": "dev",
    "methods": {
      "cancelTask(bytes32)": {
        "params": {
          "taskId": "Unique hash of the task that is being cancelled. {See LibTaskId-getTaskId}"
        }
      },
      "createTask(address,bytes,(uint8[],bytes[]),address)": {
        "params": {
          "execAddress": "Address of contract that should be called by Gelato.",
          "execData": "Execution data to be called with / function selector if execution data is yet to be determined.",
          "feeToken": "Address of token to be used as payment. Use address(0) if TaskTreasury is being used, 0xeeeeee... for ETH or native tokens.",
          "moduleData": "Conditional modules that will be used. {See LibDataTypes-ModuleData}"
        },
        "returns": {
          "taskId": "Unique hash of the task created."
        }
      },
      "exec(address,address,bytes,(uint8[],bytes[]),uint256,address,bool,bool)": {
        "params": {
          "execAddress": "Address of contract that should be called by Gelato.",
          "execData": "Execution data to be called with / function selector if execution data is yet to be determined.",
          "feeToken": "Token used to pay for the execution. ETH = 0xeeeeee...",
          "moduleData": "Conditional modules that will be used. {See LibDataTypes-ModuleData}",
          "revertOnFailure": "To revert or not if call to execAddress fails. (Used for off-chain simulations)",
          "taskCreator": "The address which created the task.",
          "txFee": "Fee paid to Gelato for execution, deducted on the TaskTreasury or transfered to Gelato.",
          "useTaskTreasuryFunds": "If taskCreator's balance on TaskTreasury should pay for the tx."
        }
      },
      "exec1Balance(address,address,bytes,(uint8[],bytes[]),(address,address,uint256,uint256,uint256,bytes32),bool)": {
        "params": {
          "execAddress": "Address of contract that should be called by Gelato.",
          "execData": "Execution data to be called with / function selector if execution data is yet to be determined.",
          "moduleData": "Conditional modules that will be used. {See LibDataTypes-ModuleData}",
          "oneBalanceParam": "Parameters required for fee payment with Gelato 1Balance.",
          "revertOnFailure": "To revert or not if call to execAddress fails. (Used for off-chain simulations)",
          "taskCreator": "The address which created the task."
        }
      },
      "getFeeDetails()": {
        "returns": {
          "_0": "uint256 Fee amount to be paid.",
          "_1": "address Token to be paid. (Determined and passed by taskCreator during createTask)"
        }
      },
      "getTaskId(address,address,bytes4,(uint8[],bytes[]),address)": {
        "params": {
          "execAddress": "Address of contract that will be called by Gelato.",
          "execSelector": "Signature of the function which will be called by Gelato.",
          "feeToken": "Address of token to be used as payment. Use address(0) if TaskTreasury is being used, 0xeeeeee... for ETH or native tokens.",
          "moduleData": "Conditional modules that will be used. {See LibDataTypes-ModuleData}",
          "taskCreator": "The address which created the task."
        }
      },
      "getTaskId(address,address,bytes4,bool,address,bytes32)": {
        "params": {
          "execAddress": "Address of contract that will be called by Gelato.",
          "execSelector": "Signature of the function which will be called by Gelato.",
          "feeToken": "Address of token to be used as payment. Use address(0) if TaskTreasury is being used, 0xeeeeee... for ETH or native tokens.",
          "resolverHash": "Hash of resolverAddress and resolverData {See getResolverHash}",
          "taskCreator": "The address which created the task.",
          "useTaskTreasuryFunds": "Wether fee should be deducted from TaskTreasury."
        }
      },
      "getTaskIdsByUser(address)": {
        "params": {
          "taskCreator": "Address of task creator to query."
        },
        "returns": {
          "_0": "bytes32[] List of taskIds created."
        }
      },
      "setModule(uint8[],address[])": {
        "params": {
          "moduleAddresses": "List of addresses for respective modules.",
          "modules": "List of modules to be set"
        }
      }
    },
    "stateVariables": {
      "taskTreasury": {
        "return": "ITaskTreasuryUpgradable TaskTreasury contract interface",
        "returns": {
          "_0": "ITaskTreasuryUpgradable TaskTreasury contract interface"
        }
      }
    },
    "version": 1
  },
  "userdoc": {
    "kind": "user",
    "methods": {
      "cancelTask(bytes32)": {
        "notice": "Terminates a task that was created and Gelato can no longer execute it."
      },
      "createTask(address,bytes,(uint8[],bytes[]),address)": {
        "notice": "Initiates a task with conditions which Gelato will monitor and execute when conditions are met."
      },
      "exec(address,address,bytes,(uint8[],bytes[]),uint256,address,bool,bool)": {
        "notice": "Execution API called by Gelato."
      },
      "exec1Balance(address,address,bytes,(uint8[],bytes[]),(address,address,uint256,uint256,uint256,bytes32),bool)": {
        "notice": "Execution API called by Gelato, using Gelato 1Balance as fee payment method."
      },
      "getFeeDetails()": {
        "notice": "Helper function to query fee and feeToken to be used for payment. (For executions which pays itself)"
      },
      "getTaskId(address,address,bytes4,(uint8[],bytes[]),address)": {
        "notice": "Helper function to compute task id with module arguments"
      },
      "getTaskId(address,address,bytes4,bool,address,bytes32)": {
        "notice": "(Legacy) Helper function to compute task id."
      },
      "getTaskIdsByUser(address)": {
        "notice": "Helper func to query all open tasks by a task creator."
      },
      "setModule(uint8[],address[])": {
        "notice": "Sets the address of task modules. Only callable by proxy admin."
      },
      "taskTreasury()": {
        "notice": "TaskTreasury contract where user deposit funds to be used for fee payments."
      }
    },
    "notice": "Ops enables everyone to have Gelato monitor and execute transactions.ExecAddress refers to the contract that has the function which Gelato will call.Modules allow users to customise conditions and specifications when creating a task.",
    "version": 1
  },
  "storageLayout": {
    "storage": [
      {
        "astId": 1840,
        "contract": "contracts/Ops.sol:Ops",
        "label": "taskCreator",
        "offset": 0,
        "slot": "0",
        "type": "t_mapping(t_bytes32,t_address)"
      },
      {
        "astId": 1845,
        "contract": "contracts/Ops.sol:Ops",
        "label": "execAddresses",
        "offset": 0,
        "slot": "1",
        "type": "t_mapping(t_bytes32,t_address)"
      },
      {
        "astId": 1851,
        "contract": "contracts/Ops.sol:Ops",
        "label": "_createdTasks",
        "offset": 0,
        "slot": "2",
        "type": "t_mapping(t_address,t_struct(Bytes32Set)801_storage)"
      },
      {
        "astId": 1853,
        "contract": "contracts/Ops.sol:Ops",
        "label": "fee",
        "offset": 0,
        "slot": "3",
        "type": "t_uint256"
      },
      {
        "astId": 1855,
        "contract": "contracts/Ops.sol:Ops",
        "label": "feeToken",
        "offset": 0,
        "slot": "4",
        "type": "t_address"
      },
      {
        "astId": 1861,
        "contract": "contracts/Ops.sol:Ops",
        "label": "timedTask",
        "offset": 0,
        "slot": "5",
        "type": "t_mapping(t_bytes32,t_struct(Time)2483_storage)"
      },
      {
        "astId": 1866,
        "contract": "contracts/Ops.sol:Ops",
        "label": "taskModuleAddresses",
        "offset": 0,
        "slot": "6",
        "type": "t_mapping(t_enum(Module)2470,t_address)"
      },
      {
        "astId": 1870,
        "contract": "contracts/Ops.sol:Ops",
        "label": "nonce1Balance",
        "offset": 0,
        "slot": "7",
        "type": "t_mapping(t_bytes32,t_uint256)"
      }
    ],
    "types": {
      "t_address": {
        "encoding": "inplace",
        "label": "address",
        "numberOfBytes": "20"
      },
      "t_array(t_bytes32)dyn_storage": {
        "base": "t_bytes32",
        "encoding": "dynamic_array",
        "label": "bytes32[]",
        "numberOfBytes": "32"
      },
      "t_bytes32": {
        "encoding": "inplace",
        "label": "bytes32",
        "numberOfBytes": "32"
      },
      "t_enum(Module)2470": {
        "encoding": "inplace",
        "label": "enum LibDataTypes.Module",
        "numberOfBytes": "1"
      },
      "t_mapping(t_address,t_struct(Bytes32Set)801_storage)": {
        "encoding": "mapping",
        "key": "t_address",
        "label": "mapping(address => struct EnumerableSet.Bytes32Set)",
        "numberOfBytes": "32",
        "value": "t_struct(Bytes32Set)801_storage"
      },
      "t_mapping(t_bytes32,t_address)": {
        "encoding": "mapping",
        "key": "t_bytes32",
        "label": "mapping(bytes32 => address)",
        "numberOfBytes": "32",
        "value": "t_address"
      },
      "t_mapping(t_bytes32,t_struct(Time)2483_storage)": {
        "encoding": "mapping",
        "key": "t_bytes32",
        "label": "mapping(bytes32 => struct LibDataTypes.Time)",
        "numberOfBytes": "32",
        "value": "t_struct(Time)2483_storage"
      },
      "t_mapping(t_bytes32,t_uint256)": {
        "encoding": "mapping",
        "key": "t_bytes32",
        "label": "mapping(bytes32 => uint256)",
        "numberOfBytes": "32",
        "value": "t_uint256"
      },
      "t_mapping(t_enum(Module)2470,t_address)": {
        "encoding": "mapping",
        "key": "t_enum(Module)2470",
        "label": "mapping(enum LibDataTypes.Module => address)",
        "numberOfBytes": "32",
        "value": "t_address"
      },
      "t_struct(Bytes32Set)801_storage": {
        "encoding": "inplace",
        "label": "struct EnumerableSet.Bytes32Set",
        "members": [
          {
            "astId": 800,
            "contract": "contracts/Ops.sol:Ops",
            "label": "_inner",
            "offset": 0,
            "slot": "0",
            "type": "t_struct(Set)607_storage"
          }
        ],
        "numberOfBytes": "64"
      },
      "t_struct(Set)607_storage": {
        "encoding": "inplace",
        "label": "struct EnumerableSet.Set",
        "members": [
          {
            "astId": 602,
            "contract": "contracts/Ops.sol:Ops",
            "label": "_values",
            "offset": 0,
            "slot": "0",
            "type": "t_array(t_bytes32)dyn_storage"
          },
          {
            "astId": 606,
            "contract": "contracts/Ops.sol:Ops",
            "label": "_indexes",
            "offset": 0,
            "slot": "1",
            "type": "t_mapping(t_bytes32,t_uint256)"
          }
        ],
        "numberOfBytes": "64"
      },
      "t_struct(Time)2483_storage": {
        "encoding": "inplace",
        "label": "struct LibDataTypes.Time",
        "members": [
          {
            "astId": 2480,
            "contract": "contracts/Ops.sol:Ops",
            "label": "nextExec",
            "offset": 0,
            "slot": "0",
            "type": "t_uint128"
          },
          {
            "astId": 2482,
            "contract": "contracts/Ops.sol:Ops",
            "label": "interval",
            "offset": 16,
            "slot": "0",
            "type": "t_uint128"
          }
        ],
        "numberOfBytes": "32"
      },
      "t_uint128": {
        "encoding": "inplace",
        "label": "uint128",
        "numberOfBytes": "16"
      },
      "t_uint256": {
        "encoding": "inplace",
        "label": "uint256",
        "numberOfBytes": "32"
      }
    }
  }
}