{
  "address": "0xA0Cc0CC82d945D96D4F481A62C968AfCCea1C54F",
  "abi": [
    {
      "inputs": [
        {
          "internalType": "address payable",
          "name": "_gelato",
          "type": "address"
        }
      ],
      "stateMutability": "nonpayable",
      "type": "constructor"
    },
    {
      "anonymous": false,
      "inputs": [
        {
          "indexed": true,
          "internalType": "address",
          "name": "sender",
          "type": "address"
        },
        {
          "indexed": true,
          "internalType": "address",
          "name": "token",
          "type": "address"
        },
        {
          "indexed": true,
          "internalType": "uint256",
          "name": "amount",
          "type": "uint256"
        }
      ],
      "name": "FundsDeposited",
      "type": "event"
    },
    {
      "anonymous": false,
      "inputs": [
        {
          "indexed": true,
          "internalType": "address",
          "name": "receiver",
          "type": "address"
        },
        {
          "indexed": true,
          "internalType": "address",
          "name": "initiator",
          "type": "address"
        },
        {
          "indexed": true,
          "internalType": "address",
          "name": "token",
          "type": "address"
        },
        {
          "indexed": false,
          "internalType": "uint256",
          "name": "amount",
          "type": "uint256"
        }
      ],
      "name": "FundsWithdrawn",
      "type": "event"
    },
    {
      "anonymous": false,
      "inputs": [
        {
          "indexed": true,
          "internalType": "address",
          "name": "previousOwner",
          "type": "address"
        },
        {
          "indexed": true,
          "internalType": "address",
          "name": "newOwner",
          "type": "address"
        }
      ],
      "name": "OwnershipTransferred",
      "type": "event"
    },
    {
      "inputs": [
        {
          "internalType": "address",
          "name": "_service",
          "type": "address"
        }
      ],
      "name": "addWhitelistedService",
      "outputs": [],
      "stateMutability": "nonpayable",
      "type": "function"
    },
    {
      "inputs": [
        {
          "internalType": "address",
          "name": "_receiver",
          "type": "address"
        },
        {
          "internalType": "address",
          "name": "_token",
          "type": "address"
        },
        {
          "internalType": "uint256",
          "name": "_amount",
          "type": "uint256"
        }
      ],
      "name": "depositFunds",
      "outputs": [],
      "stateMutability": "payable",
      "type": "function"
    },
    {
      "inputs": [],
      "name": "gelato",
      "outputs": [
        {
          "internalType": "address payable",
          "name": "",
          "type": "address"
        }
      ],
      "stateMutability": "view",
      "type": "function"
    },
    {
      "inputs": [
        {
          "internalType": "address",
          "name": "_user",
          "type": "address"
        }
      ],
      "name": "getCreditTokensByUser",
      "outputs": [
        {
          "internalType": "address[]",
          "name": "",
          "type": "address[]"
        }
      ],
      "stateMutability": "view",
      "type": "function"
    },
    {
      "inputs": [],
      "name": "getWhitelistedServices",
      "outputs": [
        {
          "internalType": "address[]",
          "name": "",
          "type": "address[]"
        }
      ],
      "stateMutability": "view",
      "type": "function"
    },
    {
      "inputs": [],
      "name": "owner",
      "outputs": [
        {
          "internalType": "address",
          "name": "",
          "type": "address"
        }
      ],
      "stateMutability": "view",
      "type": "function"
    },
    {
      "inputs": [
        {
          "internalType": "address",
          "name": "_service",
          "type": "address"
        }
      ],
      "name": "removeWhitelistedService",
      "outputs": [],
      "stateMutability": "nonpayable",
      "type": "function"
    },
    {
      "inputs": [],
      "name": "renounceOwnership",
      "outputs": [],
      "stateMutability": "nonpayable",
      "type": "function"
    },
    {
      "inputs": [
        {
          "internalType": "address",
          "name": "newOwner",
          "type": "address"
        }
      ],
      "name": "transferOwnership",
      "outputs": [],
      "stateMutability": "nonpayable",
      "type": "function"
    },
    {
      "inputs": [
        {
          "internalType": "address",
          "name": "_token",
          "type": "address"
        },
        {
          "internalType": "uint256",
          "name": "_amount",
          "type": "uint256"
        },
        {
          "internalType": "address",
          "name": "_user",
          "type": "address"
        }
      ],
      "name": "useFunds",
      "outputs": [],
      "stateMutability": "nonpayable",
      "type": "function"
    },
    {
      "inputs": [
        {
          "internalType": "address",
          "name": "",
          "type": "address"
        },
        {
          "internalType": "address",
          "name": "",
          "type": "address"
        }
      ],
      "name": "userTokenBalance",
      "outputs": [
        {
          "internalType": "uint256",
          "name": "",
          "type": "uint256"
        }
      ],
      "stateMutability": "view",
      "type": "function"
    },
    {
      "inputs": [
        {
          "internalType": "address payable",
          "name": "_receiver",
          "type": "address"
        },
        {
          "internalType": "address",
          "name": "_token",
          "type": "address"
        },
        {
          "internalType": "uint256",
          "name": "_amount",
          "type": "uint256"
        }
      ],
      "name": "withdrawFunds",
      "outputs": [],
      "stateMutability": "nonpayable",
      "type": "function"
    }
  ],
  "transactionHash": "0x574c637dcf8c7b3382678129d20dab7cc23547a1bada9b90e57a75d486a9669d",
  "args": [
    "0x683913B3A32ada4F8100458A3E1675425BdAa7DF"
  ],
  "solcInputHash": "cc8f577406bc83ade29d7d1ff7ca1fb5",
  "bytecode": "0x60a06040523480156200001157600080fd5b506040516200282d3803806200282d83398181016040528101906200003791906200017f565b620000576200004b6200009c60201b60201c565b620000a460201b60201c565b600180819055508073ffffffffffffffffffffffffffffffffffffffff1660808173ffffffffffffffffffffffffffffffffffffffff1660601b8152505050620001f9565b600033905090565b60008060009054906101000a900473ffffffffffffffffffffffffffffffffffffffff169050816000806101000a81548173ffffffffffffffffffffffffffffffffffffffff021916908373ffffffffffffffffffffffffffffffffffffffff1602179055508173ffffffffffffffffffffffffffffffffffffffff168173ffffffffffffffffffffffffffffffffffffffff167f8be0079c531659141344cd1fd0a4f28419497f9722a3daafe3b4186f6b6457e060405160405180910390a35050565b6000815190506200017981620001df565b92915050565b6000602082840312156200019257600080fd5b6000620001a28482850162000168565b91505092915050565b6000620001b882620001bf565b9050919050565b600073ffffffffffffffffffffffffffffffffffffffff82169050919050565b620001ea81620001ab565b8114620001f657600080fd5b50565b60805160601c61260e6200021f600039600081816106af0152610a3a015261260e6000f3fe6080604052600436106100a75760003560e01c8063848f5f3d11610064578063848f5f3d146101a85780638da5cb5b146101d1578063b47064c8146101fc578063c1461d5714610239578063c63aa02914610255578063f2fde38b1461027e576100a7565b80631c20fadd146100ac5780632bf30a0e146100d5578063573ea575146101125780635dfad06a1461013d5780636f192acc14610168578063715018a614610191575b600080fd5b3480156100b857600080fd5b506100d360048036038101906100ce9190611afb565b6102a7565b005b3480156100e157600080fd5b506100fc60048036038101906100f79190611ad2565b610500565b60405161010991906121d2565b60405180910390f35b34801561011e57600080fd5b506101276106ad565b6040516101349190612157565b60405180910390f35b34801561014957600080fd5b506101526106d1565b60405161015f91906121d2565b60405180910390f35b34801561017457600080fd5b5061018f600480360381019061018a9190611bd5565b610802565b005b34801561019d57600080fd5b506101a6610a65565b005b3480156101b457600080fd5b506101cf60048036038101906101ca9190611ad2565b610aed565b005b3480156101dd57600080fd5b506101e6610bd4565b6040516101f3919061213c565b60405180910390f35b34801561020857600080fd5b50610223600480360381019061021e9190611b4a565b610bfd565b6040516102309190612356565b60405180910390f35b610253600480360381019061024e9190611b86565b610c22565b005b34801561026157600080fd5b5061027c60048036038101906102779190611ad2565b610fe3565b005b34801561028a57600080fd5b506102a560048036038101906102a09190611ad2565b6110cb565b005b600260015414156102ed576040517f08c379a00000000000000000000000000000000000000000000000000000000081526004016102e490612336565b60405180910390fd5b60026001819055506000600260003373ffffffffffffffffffffffffffffffffffffffff1673ffffffffffffffffffffffffffffffffffffffff16815260200190815260200160002060008473ffffffffffffffffffffffffffffffffffffffff1673ffffffffffffffffffffffffffffffffffffffff168152602001908152602001600020549050600061038282846111c3565b905080826103909190612432565b600260003373ffffffffffffffffffffffffffffffffffffffff1673ffffffffffffffffffffffffffffffffffffffff16815260200190815260200160002060008673ffffffffffffffffffffffffffffffffffffffff1673ffffffffffffffffffffffffffffffffffffffff1681526020019081526020016000208190555061041b8585836111dc565b818114156104765761047484600360003373ffffffffffffffffffffffffffffffffffffffff1673ffffffffffffffffffffffffffffffffffffffff1681526020019081526020016000206112e790919063ffffffff16565b505b8373ffffffffffffffffffffffffffffffffffffffff163373ffffffffffffffffffffffffffffffffffffffff168673ffffffffffffffffffffffffffffffffffffffff167fc322efa58c9cb2c39cfffdac61d35c8643f5cbf13c6a7d0034de2cf18923aff3846040516104ea9190612356565b60405180910390a4505060018081905550505050565b6060600061054b600360008573ffffffffffffffffffffffffffffffffffffffff1673ffffffffffffffffffffffffffffffffffffffff168152602001908152602001600020611317565b905060008167ffffffffffffffff81111561058f577f4e487b7100000000000000000000000000000000000000000000000000000000600052604160045260246000fd5b6040519080825280602002602001820160405280156105bd5781602001602082028036833780820191505090505b50905060005b828110156106a25761061c81600360008873ffffffffffffffffffffffffffffffffffffffff1673ffffffffffffffffffffffffffffffffffffffff16815260200190815260200160002061132c90919063ffffffff16565b828281518110610655577f4e487b7100000000000000000000000000000000000000000000000000000000600052603260045260246000fd5b602002602001019073ffffffffffffffffffffffffffffffffffffffff16908173ffffffffffffffffffffffffffffffffffffffff1681525050808061069a906124f3565b9150506105c3565b508092505050919050565b7f000000000000000000000000000000000000000000000000000000000000000081565b606060006106df6004611317565b905060008167ffffffffffffffff811115610723577f4e487b7100000000000000000000000000000000000000000000000000000000600052604160045260246000fd5b6040519080825280602002602001820160405280156107515781602001602082028036833780820191505090505b50905060005b828110156107f95761077381600461132c90919063ffffffff16565b8282815181106107ac577f4e487b7100000000000000000000000000000000000000000000000000000000600052603260045260246000fd5b602002602001019073ffffffffffffffffffffffffffffffffffffffff16908173ffffffffffffffffffffffffffffffffffffffff168152505080806107f1906124f3565b915050610757565b50809250505090565b61081633600461134690919063ffffffff16565b610855576040517f08c379a000000000000000000000000000000000000000000000000000000000815260040161084c906122f6565b60405180910390fd5b81600260008373ffffffffffffffffffffffffffffffffffffffff1673ffffffffffffffffffffffffffffffffffffffff16815260200190815260200160002060008573ffffffffffffffffffffffffffffffffffffffff1673ffffffffffffffffffffffffffffffffffffffff168152602001908152602001600020546108dd9190612432565b600260008373ffffffffffffffffffffffffffffffffffffffff1673ffffffffffffffffffffffffffffffffffffffff16815260200190815260200160002060008573ffffffffffffffffffffffffffffffffffffffff1673ffffffffffffffffffffffffffffffffffffffff168152602001908152602001600020819055506000600260008373ffffffffffffffffffffffffffffffffffffffff1673ffffffffffffffffffffffffffffffffffffffff16815260200190815260200160002060008573ffffffffffffffffffffffffffffffffffffffff1673ffffffffffffffffffffffffffffffffffffffff168152602001908152602001600020541415610a3557610a3383600360008473ffffffffffffffffffffffffffffffffffffffff1673ffffffffffffffffffffffffffffffffffffffff1681526020019081526020016000206112e790919063ffffffff16565b505b610a607f000000000000000000000000000000000000000000000000000000000000000084846111dc565b505050565b610a6d611376565b73ffffffffffffffffffffffffffffffffffffffff16610a8b610bd4565b73ffffffffffffffffffffffffffffffffffffffff1614610ae1576040517f08c379a0000000000000000000000000000000000000000000000000000000008152600401610ad890612296565b60405180910390fd5b610aeb600061137e565b565b610af5611376565b73ffffffffffffffffffffffffffffffffffffffff16610b13610bd4565b73ffffffffffffffffffffffffffffffffffffffff1614610b69576040517f08c379a0000000000000000000000000000000000000000000000000000000008152600401610b6090612296565b60405180910390fd5b610b7d81600461134690919063ffffffff16565b610bbc576040517f08c379a0000000000000000000000000000000000000000000000000000000008152600401610bb390612236565b60405180910390fd5b610bd08160046112e790919063ffffffff16565b5050565b60008060009054906101000a900473ffffffffffffffffffffffffffffffffffffffff16905090565b6002602052816000526040600020602052806000526040600020600091509150505481565b600073eeeeeeeeeeeeeeeeeeeeeeeeeeeeeeeeeeeeeeee73ffffffffffffffffffffffffffffffffffffffff168373ffffffffffffffffffffffffffffffffffffffff161415610c7457349050610dd2565b600083905060008173ffffffffffffffffffffffffffffffffffffffff166370a08231306040518263ffffffff1660e01b8152600401610cb4919061213c565b60206040518083038186803b158015610ccc57600080fd5b505afa158015610ce0573d6000803e3d6000fd5b505050506040513d601f19601f82011682018060405250810190610d049190611c4d565b9050610d333330868573ffffffffffffffffffffffffffffffffffffffff16611442909392919063ffffffff16565b60008273ffffffffffffffffffffffffffffffffffffffff166370a08231306040518263ffffffff1660e01b8152600401610d6e919061213c565b60206040518083038186803b158015610d8657600080fd5b505afa158015610d9a573d6000803e3d6000fd5b505050506040513d601f19601f82011682018060405250810190610dbe9190611c4d565b90508181610dcc9190612432565b93505050505b80600260008673ffffffffffffffffffffffffffffffffffffffff1673ffffffffffffffffffffffffffffffffffffffff16815260200190815260200160002060008573ffffffffffffffffffffffffffffffffffffffff1673ffffffffffffffffffffffffffffffffffffffff16815260200190815260200160002054610e5a91906123dc565b600260008673ffffffffffffffffffffffffffffffffffffffff1673ffffffffffffffffffffffffffffffffffffffff16815260200190815260200160002060008573ffffffffffffffffffffffffffffffffffffffff1673ffffffffffffffffffffffffffffffffffffffff16815260200190815260200160002081905550610f2b83600360008773ffffffffffffffffffffffffffffffffffffffff1673ffffffffffffffffffffffffffffffffffffffff16815260200190815260200160002061134690919063ffffffff16565b610f8257610f8083600360008773ffffffffffffffffffffffffffffffffffffffff1673ffffffffffffffffffffffffffffffffffffffff1681526020019081526020016000206114cb90919063ffffffff16565b505b808373ffffffffffffffffffffffffffffffffffffffff168573ffffffffffffffffffffffffffffffffffffffff167ff0d0e99cae184d0187b093b48894117462462379674a6e11d89c3fbb618e96b060405160405180910390a450505050565b610feb611376565b73ffffffffffffffffffffffffffffffffffffffff16611009610bd4565b73ffffffffffffffffffffffffffffffffffffffff161461105f576040517f08c379a000000000000000000000000000000000000000000000000000000000815260040161105690612296565b60405180910390fd5b61107381600461134690919063ffffffff16565b156110b3576040517f08c379a00000000000000000000000000000000000000000000000000000000081526004016110aa906122b6565b60405180910390fd5b6110c78160046114cb90919063ffffffff16565b5050565b6110d3611376565b73ffffffffffffffffffffffffffffffffffffffff166110f1610bd4565b73ffffffffffffffffffffffffffffffffffffffff1614611147576040517f08c379a000000000000000000000000000000000000000000000000000000000815260040161113e90612296565b60405180910390fd5b600073ffffffffffffffffffffffffffffffffffffffff168173ffffffffffffffffffffffffffffffffffffffff1614156111b7576040517f08c379a00000000000000000000000000000000000000000000000000000000081526004016111ae90612216565b60405180910390fd5b6111c08161137e565b50565b60008183106111d257816111d4565b825b905092915050565b73eeeeeeeeeeeeeeeeeeeeeeeeeeeeeeeeeeeeeeee73ffffffffffffffffffffffffffffffffffffffff168273ffffffffffffffffffffffffffffffffffffffff1614156112d65760008373ffffffffffffffffffffffffffffffffffffffff168260405161124a90612127565b60006040518083038185875af1925050503d8060008114611287576040519150601f19603f3d011682016040523d82523d6000602084013e61128c565b606091505b50509050806112d0576040517f08c379a00000000000000000000000000000000000000000000000000000000081526004016112c790612276565b60405180910390fd5b506112e2565b6112e18284836114fb565b5b505050565b600061130f836000018373ffffffffffffffffffffffffffffffffffffffff1660001b611581565b905092915050565b600061132582600001611707565b9050919050565b600061133b8360000183611718565b60001c905092915050565b600061136e836000018373ffffffffffffffffffffffffffffffffffffffff1660001b611769565b905092915050565b600033905090565b60008060009054906101000a900473ffffffffffffffffffffffffffffffffffffffff169050816000806101000a81548173ffffffffffffffffffffffffffffffffffffffff021916908373ffffffffffffffffffffffffffffffffffffffff1602179055508173ffffffffffffffffffffffffffffffffffffffff168173ffffffffffffffffffffffffffffffffffffffff167f8be0079c531659141344cd1fd0a4f28419497f9722a3daafe3b4186f6b6457e060405160405180910390a35050565b6114c5846323b872dd60e01b85858560405160240161146393929190612172565b604051602081830303815290604052907bffffffffffffffffffffffffffffffffffffffffffffffffffffffff19166020820180517bffffffffffffffffffffffffffffffffffffffffffffffffffffffff838183161783525050505061178c565b50505050565b60006114f3836000018373ffffffffffffffffffffffffffffffffffffffff1660001b611853565b905092915050565b61157c8363a9059cbb60e01b848460405160240161151a9291906121a9565b604051602081830303815290604052907bffffffffffffffffffffffffffffffffffffffffffffffffffffffff19166020820180517bffffffffffffffffffffffffffffffffffffffffffffffffffffffff838183161783525050505061178c565b505050565b600080836001016000848152602001908152602001600020549050600081146116fb5760006001826115b39190612432565b90506000600186600001805490506115cb9190612432565b9050818114611686576000866000018281548110611612577f4e487b7100000000000000000000000000000000000000000000000000000000600052603260045260246000fd5b906000526020600020015490508087600001848154811061165c577f4e487b7100000000000000000000000000000000000000000000000000000000600052603260045260246000fd5b90600052602060002001819055508387600101600083815260200190815260200160002081905550505b856000018054806116c0577f4e487b7100000000000000000000000000000000000000000000000000000000600052603160045260246000fd5b600190038181906000526020600020016000905590558560010160008681526020019081526020016000206000905560019350505050611701565b60009150505b92915050565b600081600001805490509050919050565b6000826000018281548110611756577f4e487b7100000000000000000000000000000000000000000000000000000000600052603260045260246000fd5b9060005260206000200154905092915050565b600080836001016000848152602001908152602001600020541415905092915050565b60006117ee826040518060400160405280602081526020017f5361666545524332303a206c6f772d6c6576656c2063616c6c206661696c65648152508573ffffffffffffffffffffffffffffffffffffffff166118c39092919063ffffffff16565b905060008151111561184e578080602001905181019061180e9190611c24565b61184d576040517f08c379a000000000000000000000000000000000000000000000000000000000815260040161184490612316565b60405180910390fd5b5b505050565b600061185f8383611769565b6118b85782600001829080600181540180825580915050600190039060005260206000200160009091909190915055826000018054905083600101600084815260200190815260200160002081905550600190506118bd565b600090505b92915050565b60606118d284846000856118db565b90509392505050565b606082471015611920576040517f08c379a000000000000000000000000000000000000000000000000000000000815260040161191790612256565b60405180910390fd5b611929856119ef565b611968576040517f08c379a000000000000000000000000000000000000000000000000000000000815260040161195f906122d6565b60405180910390fd5b6000808673ffffffffffffffffffffffffffffffffffffffff1685876040516119919190612110565b60006040518083038185875af1925050503d80600081146119ce576040519150601f19603f3d011682016040523d82523d6000602084013e6119d3565b606091505b50915091506119e3828286611a02565b92505050949350505050565b600080823b905060008111915050919050565b60608315611a1257829050611a62565b600083511115611a255782518084602001fd5b816040517f08c379a0000000000000000000000000000000000000000000000000000000008152600401611a5991906121f4565b60405180910390fd5b9392505050565b600081359050611a788161257c565b92915050565b600081359050611a8d81612593565b92915050565b600081519050611aa2816125aa565b92915050565b600081359050611ab7816125c1565b92915050565b600081519050611acc816125c1565b92915050565b600060208284031215611ae457600080fd5b6000611af284828501611a69565b91505092915050565b600080600060608486031215611b1057600080fd5b6000611b1e86828701611a7e565b9350506020611b2f86828701611a69565b9250506040611b4086828701611aa8565b9150509250925092565b60008060408385031215611b5d57600080fd5b6000611b6b85828601611a69565b9250506020611b7c85828601611a69565b9150509250929050565b600080600060608486031215611b9b57600080fd5b6000611ba986828701611a69565b9350506020611bba86828701611a69565b9250506040611bcb86828701611aa8565b9150509250925092565b600080600060608486031215611bea57600080fd5b6000611bf886828701611a69565b9350506020611c0986828701611aa8565b9250506040611c1a86828701611a69565b9150509250925092565b600060208284031215611c3657600080fd5b6000611c4484828501611a93565b91505092915050565b600060208284031215611c5f57600080fd5b6000611c6d84828501611abd565b91505092915050565b6000611c828383611c9d565b60208301905092915050565b611c9781612478565b82525050565b611ca681612466565b82525050565b611cb581612466565b82525050565b6000611cc682612381565b611cd081856123af565b9350611cdb83612371565b8060005b83811015611d0c578151611cf38882611c76565b9750611cfe836123a2565b925050600181019050611cdf565b5085935050505092915050565b6000611d248261238c565b611d2e81856123c0565b9350611d3e8185602086016124c0565b80840191505092915050565b6000611d5582612397565b611d5f81856123cb565b9350611d6f8185602086016124c0565b611d788161256b565b840191505092915050565b6000611d906026836123cb565b91507f4f776e61626c653a206e6577206f776e657220697320746865207a65726f206160008301527f64647265737300000000000000000000000000000000000000000000000000006020830152604082019050919050565b6000611df66031836123cb565b91507f5461736b54726561737572793a2061646457686974656c69737465645365727660008301527f6963653a202177686974656c69737465640000000000000000000000000000006020830152604082019050919050565b6000611e5c6026836123cb565b91507f416464726573733a20696e73756666696369656e742062616c616e636520666f60008301527f722063616c6c00000000000000000000000000000000000000000000000000006020830152604082019050919050565b6000611ec2601e836123cb565b91507f5f7472616e736665723a20455448207472616e73666572206661696c656400006000830152602082019050919050565b6000611f026020836123cb565b91507f4f776e61626c653a2063616c6c6572206973206e6f7420746865206f776e65726000830152602082019050919050565b6000611f426030836123cb565b91507f5461736b54726561737572793a2061646457686974656c69737465645365727660008301527f6963653a2077686974656c6973746564000000000000000000000000000000006020830152604082019050919050565b6000611fa86000836123c0565b9150600082019050919050565b6000611fc2601d836123cb565b91507f416464726573733a2063616c6c20746f206e6f6e2d636f6e74726163740000006000830152602082019050919050565b60006120026025836123cb565b91507f5461736b54726561737572793a206f6e6c7957686974656c697374656453657260008301527f76696365730000000000000000000000000000000000000000000000000000006020830152604082019050919050565b6000612068602a836123cb565b91507f5361666545524332303a204552433230206f7065726174696f6e20646964206e60008301527f6f742073756363656564000000000000000000000000000000000000000000006020830152604082019050919050565b60006120ce601f836123cb565b91507f5265656e7472616e637947756172643a207265656e7472616e742063616c6c006000830152602082019050919050565b61210a816124b6565b82525050565b600061211c8284611d19565b915081905092915050565b600061213282611f9b565b9150819050919050565b60006020820190506121516000830184611cac565b92915050565b600060208201905061216c6000830184611c8e565b92915050565b60006060820190506121876000830186611cac565b6121946020830185611cac565b6121a16040830184612101565b949350505050565b60006040820190506121be6000830185611cac565b6121cb6020830184612101565b9392505050565b600060208201905081810360008301526121ec8184611cbb565b905092915050565b6000602082019050818103600083015261220e8184611d4a565b905092915050565b6000602082019050818103600083015261222f81611d83565b9050919050565b6000602082019050818103600083015261224f81611de9565b9050919050565b6000602082019050818103600083015261226f81611e4f565b9050919050565b6000602082019050818103600083015261228f81611eb5565b9050919050565b600060208201905081810360008301526122af81611ef5565b9050919050565b600060208201905081810360008301526122cf81611f35565b9050919050565b600060208201905081810360008301526122ef81611fb5565b9050919050565b6000602082019050818103600083015261230f81611ff5565b9050919050565b6000602082019050818103600083015261232f8161205b565b9050919050565b6000602082019050818103600083015261234f816120c1565b9050919050565b600060208201905061236b6000830184612101565b92915050565b6000819050602082019050919050565b600081519050919050565b600081519050919050565b600081519050919050565b6000602082019050919050565b600082825260208201905092915050565b600081905092915050565b600082825260208201905092915050565b60006123e7826124b6565b91506123f2836124b6565b9250827fffffffffffffffffffffffffffffffffffffffffffffffffffffffffffffffff038211156124275761242661253c565b5b828201905092915050565b600061243d826124b6565b9150612448836124b6565b92508282101561245b5761245a61253c565b5b828203905092915050565b600061247182612496565b9050919050565b600061248382612496565b9050919050565b60008115159050919050565b600073ffffffffffffffffffffffffffffffffffffffff82169050919050565b6000819050919050565b60005b838110156124de5780820151818401526020810190506124c3565b838111156124ed576000848401525b50505050565b60006124fe826124b6565b91507fffffffffffffffffffffffffffffffffffffffffffffffffffffffffffffffff8214156125315761253061253c565b5b600182019050919050565b7f4e487b7100000000000000000000000000000000000000000000000000000000600052601160045260246000fd5b6000601f19601f8301169050919050565b61258581612466565b811461259057600080fd5b50565b61259c81612478565b81146125a757600080fd5b50565b6125b38161248a565b81146125be57600080fd5b50565b6125ca816124b6565b81146125d557600080fd5b5056fea26469706673582212207947d4e78c5eebde77a3e2b51c3adb9ae81ad7765ec097c606f01d7ad22d156864736f6c63430008000033",
  "devdoc": {
    "kind": "dev",
    "methods": {
      "addWhitelistedService(address)": {
        "params": {
          "_service": "New service to add"
        }
      },
      "depositFunds(address,address,uint256)": {
        "params": {
          "_amount": "Amount to be credited",
          "_receiver": "Address receiving the credits",
          "_token": "Token to be credited, use \"0xeeee....\" for ETH"
        }
      },
      "getCreditTokensByUser(address)": {
        "params": {
          "_user": "User to get the balances from"
        }
      },
      "owner()": {
        "details": "Returns the address of the current owner."
      },
      "removeWhitelistedService(address)": {
        "params": {
          "_service": "Old service to remove"
        }
      },
      "renounceOwnership()": {
        "details": "Leaves the contract without owner. It will not be possible to call `onlyOwner` functions anymore. Can only be called by the current owner. NOTE: Renouncing ownership will leave the contract without an owner, thereby removing any functionality that is only available to the owner."
      },
      "transferOwnership(address)": {
        "details": "Transfers ownership of the contract to a new account (`newOwner`). Can only be called by the current owner."
      },
      "useFunds(address,uint256,address)": {
        "params": {
          "_amount": "Amount to be deducted",
          "_token": "Token to be used for payment by users",
          "_user": "Address of user whose balance will be deducted"
        }
      },
      "withdrawFunds(address,address,uint256)": {
        "params": {
          "_amount": "Amount to be credited",
          "_receiver": "Address receiving the credits",
          "_token": "Token to be credited, use \"0xeeee....\" for ETH"
        }
      }
    },
    "version": 1
  },
  "userdoc": {
    "kind": "user",
    "methods": {
      "addWhitelistedService(address)": {
        "notice": "Add new service that can call useFunds. Gelato Governance"
      },
      "depositFunds(address,address,uint256)": {
        "notice": "Function to deposit Funds which will be used to execute transactions on various services"
      },
      "getCreditTokensByUser(address)": {
        "notice": "Helper func to get all deposited tokens by a user"
      },
      "removeWhitelistedService(address)": {
        "notice": "Remove old service that can call useFunds. Gelato Governance"
      },
      "useFunds(address,uint256,address)": {
        "notice": "Function called by whitelisted services to handle payments, e.g. Ops\""
      },
      "withdrawFunds(address,address,uint256)": {
        "notice": "Function to withdraw Funds back to the _receiver"
      }
    },
    "version": 1
  },
  "storageLayout": {
    "storage": [
      {
        "astId": 7,
        "contract": "contracts/TaskTreasury/TaskTreasury.sol:TaskTreasury",
        "label": "_owner",
        "offset": 0,
        "slot": "0",
        "type": "t_address"
      },
      {
        "astId": 114,
        "contract": "contracts/TaskTreasury/TaskTreasury.sol:TaskTreasury",
        "label": "_status",
        "offset": 0,
        "slot": "1",
        "type": "t_uint256"
      },
      {
        "astId": 2914,
        "contract": "contracts/TaskTreasury/TaskTreasury.sol:TaskTreasury",
        "label": "userTokenBalance",
        "offset": 0,
        "slot": "2",
        "type": "t_mapping(t_address,t_mapping(t_address,t_uint256))"
      },
      {
        "astId": 2919,
        "contract": "contracts/TaskTreasury/TaskTreasury.sol:TaskTreasury",
        "label": "_tokenCredits",
        "offset": 0,
        "slot": "3",
        "type": "t_mapping(t_address,t_struct(AddressSet)1144_storage)"
      },
      {
        "astId": 2922,
        "contract": "contracts/TaskTreasury/TaskTreasury.sol:TaskTreasury",
        "label": "_whitelistedServices",
        "offset": 0,
        "slot": "4",
        "type": "t_struct(AddressSet)1144_storage"
      }
    ],
    "types": {
      "t_address": {
        "encoding": "inplace",
        "label": "address",
        "numberOfBytes": "20"
      },
      "t_array(t_bytes32)dyn_storage": {
        "base": "t_bytes32",
        "encoding": "dynamic_array",
        "label": "bytes32[]",
        "numberOfBytes": "32"
      },
      "t_bytes32": {
        "encoding": "inplace",
        "label": "bytes32",
        "numberOfBytes": "32"
      },
      "t_mapping(t_address,t_mapping(t_address,t_uint256))": {
        "encoding": "mapping",
        "key": "t_address",
        "label": "mapping(address => mapping(address => uint256))",
        "numberOfBytes": "32",
        "value": "t_mapping(t_address,t_uint256)"
      },
      "t_mapping(t_address,t_struct(AddressSet)1144_storage)": {
        "encoding": "mapping",
        "key": "t_address",
        "label": "mapping(address => struct EnumerableSet.AddressSet)",
        "numberOfBytes": "32",
        "value": "t_struct(AddressSet)1144_storage"
      },
      "t_mapping(t_address,t_uint256)": {
        "encoding": "mapping",
        "key": "t_address",
        "label": "mapping(address => uint256)",
        "numberOfBytes": "32",
        "value": "t_uint256"
      },
      "t_mapping(t_bytes32,t_uint256)": {
        "encoding": "mapping",
        "key": "t_bytes32",
        "label": "mapping(bytes32 => uint256)",
        "numberOfBytes": "32",
        "value": "t_uint256"
      },
      "t_struct(AddressSet)1144_storage": {
        "encoding": "inplace",
        "label": "struct EnumerableSet.AddressSet",
        "members": [
          {
            "astId": 1143,
            "contract": "contracts/TaskTreasury/TaskTreasury.sol:TaskTreasury",
            "label": "_inner",
            "offset": 0,
            "slot": "0",
            "type": "t_struct(Set)873_storage"
          }
        ],
        "numberOfBytes": "64"
      },
      "t_struct(Set)873_storage": {
        "encoding": "inplace",
        "label": "struct EnumerableSet.Set",
        "members": [
          {
            "astId": 868,
            "contract": "contracts/TaskTreasury/TaskTreasury.sol:TaskTreasury",
            "label": "_values",
            "offset": 0,
            "slot": "0",
            "type": "t_array(t_bytes32)dyn_storage"
          },
          {
            "astId": 872,
            "contract": "contracts/TaskTreasury/TaskTreasury.sol:TaskTreasury",
            "label": "_indexes",
            "offset": 0,
            "slot": "1",
            "type": "t_mapping(t_bytes32,t_uint256)"
          }
        ],
        "numberOfBytes": "64"
      },
      "t_uint256": {
        "encoding": "inplace",
        "label": "uint256",
        "numberOfBytes": "32"
      }
    }
  }
}