{
  "address": "0xab2c44495F5F954149b94C750ca20B64ea60B51c",
  "abi": [
    {
      "inputs": [
        {
          "internalType": "address payable",
          "name": "_gelato",
          "type": "address"
        }
      ],
      "stateMutability": "nonpayable",
      "type": "constructor"
    },
    {
      "anonymous": false,
      "inputs": [
        {
          "indexed": true,
          "internalType": "address",
          "name": "sponsor",
          "type": "address"
        },
        {
          "indexed": true,
          "internalType": "address",
          "name": "target",
          "type": "address"
        },
        {
          "indexed": true,
          "internalType": "address",
          "name": "feeToken",
          "type": "address"
        },
        {
          "indexed": false,
          "internalType": "uint256",
          "name": "oneBalanceChainId",
          "type": "uint256"
        },
        {
          "indexed": false,
          "internalType": "uint256",
          "name": "nativeToFeeTokenXRateNumerator",
          "type": "uint256"
        },
        {
          "indexed": false,
          "internalType": "uint256",
          "name": "nativeToFeeTokenXRateDenominator",
          "type": "uint256"
        },
        {
          "indexed": false,
          "internalType": "bytes32",
          "name": "correlationId",
          "type": "bytes32"
        }
      ],
      "name": "LogUseGelato1Balance",
      "type": "event"
    },
    {
      "inputs": [
        {
          "internalType": "bytes32",
          "name": "_taskId",
          "type": "bytes32"
        }
      ],
      "name": "cancelTask",
      "outputs": [],
      "stateMutability": "nonpayable",
      "type": "function"
    },
    {
      "inputs": [
        {
          "internalType": "address",
          "name": "_execAddress",
          "type": "address"
        },
        {
          "internalType": "bytes",
          "name": "_execDataOrSelector",
          "type": "bytes"
        },
        {
          "components": [
            {
              "internalType": "enum LibDataTypes.Module[]",
              "name": "modules",
              "type": "uint8[]"
            },
            {
              "internalType": "bytes[]",
              "name": "args",
              "type": "bytes[]"
            }
          ],
          "internalType": "struct LibDataTypes.ModuleData",
          "name": "_moduleData",
          "type": "tuple"
        },
        {
          "internalType": "address",
          "name": "_feeToken",
          "type": "address"
        }
      ],
      "name": "createTask",
      "outputs": [
        {
          "internalType": "bytes32",
          "name": "taskId",
          "type": "bytes32"
        }
      ],
      "stateMutability": "nonpayable",
      "type": "function"
    },
    {
      "inputs": [
        {
          "internalType": "address",
          "name": "_taskCreator",
          "type": "address"
        },
        {
          "internalType": "address",
          "name": "_execAddress",
          "type": "address"
        },
        {
          "internalType": "bytes",
          "name": "_execData",
          "type": "bytes"
        },
        {
          "components": [
            {
              "internalType": "enum LibDataTypes.Module[]",
              "name": "modules",
              "type": "uint8[]"
            },
            {
              "internalType": "bytes[]",
              "name": "args",
              "type": "bytes[]"
            }
          ],
          "internalType": "struct LibDataTypes.ModuleData",
          "name": "_moduleData",
          "type": "tuple"
        },
        {
          "internalType": "uint256",
          "name": "_txFee",
          "type": "uint256"
        },
        {
          "internalType": "address",
          "name": "_feeToken",
          "type": "address"
        },
        {
          "internalType": "bool",
          "name": "_revertOnFailure",
          "type": "bool"
        }
      ],
      "name": "exec",
      "outputs": [],
      "stateMutability": "nonpayable",
      "type": "function"
    },
    {
      "inputs": [
        {
          "internalType": "address",
          "name": "_taskCreator",
          "type": "address"
        },
        {
          "internalType": "address",
          "name": "_execAddress",
          "type": "address"
        },
        {
          "internalType": "bytes",
          "name": "_execData",
          "type": "bytes"
        },
        {
          "components": [
            {
              "internalType": "enum LibDataTypes.Module[]",
              "name": "modules",
              "type": "uint8[]"
            },
            {
              "internalType": "bytes[]",
              "name": "args",
              "type": "bytes[]"
            }
          ],
          "internalType": "struct LibDataTypes.ModuleData",
          "name": "_moduleData",
          "type": "tuple"
        },
        {
          "components": [
            {
              "internalType": "address",
              "name": "sponsor",
              "type": "address"
            },
            {
              "internalType": "address",
              "name": "feeToken",
              "type": "address"
            },
            {
              "internalType": "uint256",
              "name": "oneBalanceChainId",
              "type": "uint256"
            },
            {
              "internalType": "uint256",
              "name": "nativeToFeeTokenXRateNumerator",
              "type": "uint256"
            },
            {
              "internalType": "uint256",
              "name": "nativeToFeeTokenXRateDenominator",
              "type": "uint256"
            },
            {
              "internalType": "bytes32",
              "name": "correlationId",
              "type": "bytes32"
            }
          ],
          "internalType": "struct IGelato1Balance.Gelato1BalanceParam",
          "name": "_oneBalanceParam",
          "type": "tuple"
        },
        {
          "internalType": "bool",
          "name": "_revertOnFailure",
          "type": "bool"
        }
      ],
      "name": "exec1Balance",
      "outputs": [],
      "stateMutability": "nonpayable",
      "type": "function"
    },
    {
      "inputs": [
        {
          "internalType": "bytes32",
          "name": "",
          "type": "bytes32"
        }
      ],
      "name": "execAddresses",
      "outputs": [
        {
          "internalType": "address",
          "name": "",
          "type": "address"
        }
      ],
      "stateMutability": "view",
      "type": "function"
    },
    {
      "inputs": [
        {
          "internalType": "address",
          "name": "_taskCreator",
          "type": "address"
        },
        {
          "internalType": "address",
          "name": "_execAddress",
          "type": "address"
        },
        {
          "internalType": "bytes32",
          "name": "_taskId",
          "type": "bytes32"
        },
        {
          "internalType": "bytes32",
          "name": "_correlationId",
          "type": "bytes32"
        },
        {
          "internalType": "bytes",
          "name": "_execData",
          "type": "bytes"
        },
        {
          "internalType": "bool",
          "name": "_revertOnFailure",
          "type": "bool"
        },
        {
          "internalType": "bool",
          "name": "_singleExec",
          "type": "bool"
        }
      ],
      "name": "execBypassModule",
      "outputs": [],
      "stateMutability": "nonpayable",
      "type": "function"
    },
    {
      "inputs": [
        {
          "internalType": "address",
          "name": "_taskCreator",
          "type": "address"
        },
        {
          "internalType": "address",
          "name": "_execAddress",
          "type": "address"
        },
        {
          "internalType": "bytes32",
          "name": "_taskId",
          "type": "bytes32"
        },
        {
          "internalType": "uint256",
          "name": "_txFee",
          "type": "uint256"
        },
        {
          "internalType": "address",
          "name": "_feeToken",
          "type": "address"
        },
        {
          "internalType": "bytes",
          "name": "_execData",
          "type": "bytes"
        },
        {
          "internalType": "bool",
          "name": "_revertOnFailure",
          "type": "bool"
        },
        {
          "internalType": "bool",
          "name": "_singleExec",
          "type": "bool"
        }
      ],
      "name": "execBypassModuleSyncFee",
      "outputs": [],
      "stateMutability": "nonpayable",
      "type": "function"
    },
    {
      "inputs": [],
      "name": "fee",
      "outputs": [
        {
          "internalType": "uint256",
          "name": "",
          "type": "uint256"
        }
      ],
      "stateMutability": "view",
      "type": "function"
    },
    {
      "inputs": [],
      "name": "feeToken",
      "outputs": [
        {
          "internalType": "address",
          "name": "",
          "type": "address"
        }
      ],
      "stateMutability": "view",
      "type": "function"
    },
    {
      "inputs": [],
      "name": "gelato",
      "outputs": [
        {
          "internalType": "address payable",
          "name": "",
          "type": "address"
        }
      ],
      "stateMutability": "view",
      "type": "function"
    },
    {
      "inputs": [],
      "name": "getFeeDetails",
      "outputs": [
        {
          "internalType": "uint256",
          "name": "",
          "type": "uint256"
        },
        {
          "internalType": "address",
          "name": "",
          "type": "address"
        }
      ],
      "stateMutability": "view",
      "type": "function"
    },
    {
      "inputs": [
        {
          "internalType": "address",
          "name": "taskCreator",
          "type": "address"
        },
        {
          "internalType": "address",
          "name": "execAddress",
          "type": "address"
        },
        {
          "internalType": "bytes4",
          "name": "execSelector",
          "type": "bytes4"
        },
        {
          "components": [
            {
              "internalType": "enum LibDataTypes.Module[]",
              "name": "modules",
              "type": "uint8[]"
            },
            {
              "internalType": "bytes[]",
              "name": "args",
              "type": "bytes[]"
            }
          ],
          "internalType": "struct LibDataTypes.ModuleData",
          "name": "moduleData",
          "type": "tuple"
        },
        {
          "internalType": "address",
          "name": "feeToken",
          "type": "address"
        }
      ],
      "name": "getTaskId",
      "outputs": [
        {
          "internalType": "bytes32",
          "name": "taskId",
          "type": "bytes32"
        }
      ],
      "stateMutability": "pure",
      "type": "function"
    },
    {
      "inputs": [
        {
          "internalType": "address",
          "name": "_taskCreator",
          "type": "address"
        }
      ],
      "name": "getTaskIdsByUser",
      "outputs": [
        {
          "internalType": "bytes32[]",
          "name": "",
          "type": "bytes32[]"
        }
      ],
      "stateMutability": "view",
      "type": "function"
    },
    {
      "inputs": [
        {
          "internalType": "bytes32",
          "name": "",
          "type": "bytes32"
        }
      ],
      "name": "nonce1Balance",
      "outputs": [
        {
          "internalType": "uint256",
          "name": "",
          "type": "uint256"
        }
      ],
      "stateMutability": "view",
      "type": "function"
    },
    {
      "inputs": [
        {
          "internalType": "enum LibDataTypes.Module[]",
          "name": "_modules",
          "type": "uint8[]"
        },
        {
          "internalType": "address[]",
          "name": "_moduleAddresses",
          "type": "address[]"
        }
      ],
      "name": "setModule",
      "outputs": [],
      "stateMutability": "nonpayable",
      "type": "function"
    },
    {
      "inputs": [
        {
          "internalType": "bytes32",
          "name": "",
          "type": "bytes32"
        }
      ],
      "name": "taskCreator",
      "outputs": [
        {
          "internalType": "address",
          "name": "",
          "type": "address"
        }
      ],
      "stateMutability": "view",
      "type": "function"
    },
    {
      "inputs": [
        {
          "internalType": "enum LibDataTypes.Module",
          "name": "",
          "type": "uint8"
        }
      ],
      "name": "taskModuleAddresses",
      "outputs": [
        {
          "internalType": "address",
          "name": "",
          "type": "address"
        }
      ],
      "stateMutability": "view",
      "type": "function"
    },
    {
      "inputs": [
        {
          "internalType": "bytes32",
          "name": "",
          "type": "bytes32"
        }
      ],
      "name": "timedTask",
      "outputs": [
        {
          "internalType": "uint128",
          "name": "nextExec",
          "type": "uint128"
        },
        {
          "internalType": "uint128",
          "name": "interval",
          "type": "uint128"
        }
      ],
      "stateMutability": "view",
      "type": "function"
    },
    {
      "inputs": [],
      "name": "version",
      "outputs": [
        {
          "internalType": "string",
          "name": "",
          "type": "string"
        }
      ],
      "stateMutability": "view",
      "type": "function"
    }
  ],
  "transactionHash": "0xf98ced2f4ba69139bc7441bc9cda040583533d12bc85d93f06461748d9552d9f",
  "args": [
    "0xd56096b5A70bA6755834f320200811Ec304f3101"
  ],
  "numDeployments": 1,
  "solcInputHash": "5ec0b75b82308a43c369e536d3b31fb6",
  "bytecode": "0x60a06040523480156200001157600080fd5b5060405162004a8538038062004a858339818101604052810190620000379190620000de565b808073ffffffffffffffffffffffffffffffffffffffff1660808173ffffffffffffffffffffffffffffffffffffffff1681525050505062000110565b600080fd5b600073ffffffffffffffffffffffffffffffffffffffff82169050919050565b6000620000a68262000079565b9050919050565b620000b88162000099565b8114620000c457600080fd5b50565b600081519050620000d881620000ad565b92915050565b600060208284031215620000f757620000f662000074565b5b60006200010784828501620000c7565b91505092915050565b60805161493d62000148600039600081816104710152818161072e015281816107ab01528181610a890152610e37015261493d6000f3fe608060405234801561001057600080fd5b50600436106101215760003560e01c806380381407116100ad578063b81cd86611610071578063b81cd8661461032f578063cd3d4fb914610360578063ddca3f4314610390578063e1d173a9146103ae578063ee8ca3b5146103ca57610121565b8063803814071461028c578063813785e6146102a8578063abf26d55146102c4578063ac21631a146102e0578063b810c6361461031057610121565b80633323b467116100f45780633323b467146101d257806354fd4d5014610202578063573ea57514610220578063647846a51461023e5780636d2dd29f1461025c57610121565b80630407145c146101265780632e6e0bd01461015657806330a9fe6a146101865780633140576e146101a2575b600080fd5b610140600480360381019061013b9190612a9c565b6103e6565b60405161014d9190612b91565b60405180910390f35b610170600480360381019061016b9190612bdf565b61043c565b60405161017d9190612c1b565b60405180910390f35b6101a0600480360381019061019b9190612dea565b61046f565b005b6101bc60048036038101906101b79190613174565b61065c565b6040516101c9919061321a565b60405180910390f35b6101ec60048036038101906101e791906132b4565b610676565b6040516101f9919061321a565b60405180910390f35b61020a6106f3565b60405161021791906133e0565b60405180910390f35b61022861072c565b6040516102359190613423565b60405180910390f35b610246610750565b6040516102539190612c1b565b60405180910390f35b61027660048036038101906102719190612bdf565b610776565b6040516102839190612c1b565b60405180910390f35b6102a660048036038101906102a1919061343e565b6107a9565b005b6102c260048036038101906102bd91906135a8565b610920565b005b6102de60048036038101906102d99190613648565b610a87565b005b6102fa60048036038101906102f59190612bdf565b610d57565b604051610307919061371e565b60405180910390f35b610318610d6f565b604051610326929190613739565b60405180910390f35b61034960048036038101906103449190612bdf565b610da0565b60405161035792919061378d565b60405180910390f35b61037a600480360381019061037591906137b6565b610dfc565b6040516103879190612c1b565b60405180910390f35b610398610e2f565b6040516103a5919061371e565b60405180910390f35b6103c860048036038101906103c391906137e3565b610e35565b005b6103e460048036038101906103df9190612bdf565b6110c0565b005b60606000610431600260008573ffffffffffffffffffffffffffffffffffffffff1673ffffffffffffffffffffffffffffffffffffffff1681526020019081526020016000206110de565b905080915050919050565b60006020528060005260406000206000915054906101000a900473ffffffffffffffffffffffffffffffffffffffff1681565b7f000000000000000000000000000000000000000000000000000000000000000073ffffffffffffffffffffffffffffffffffffffff163373ffffffffffffffffffffffffffffffffffffffff16146104fd576040517f08c379a00000000000000000000000000000000000000000000000000000000081526004016104f490613909565b60405180910390fd5b61054e86600260008b73ffffffffffffffffffffffffffffffffffffffff1673ffffffffffffffffffffffffffffffffffffffff1681526020019081526020016000206110ff90919063ffffffff16565b61058d576040517f08c379a000000000000000000000000000000000000000000000000000000000815260040161058490613975565b60405180910390fd5b8460038190555083600460006101000a81548173ffffffffffffffffffffffffffffffffffffffff021916908373ffffffffffffffffffffffffffffffffffffffff16021790555060006105e7878a8a8787876002611116565b9050600360009055600460006101000a81549073ffffffffffffffffffffffffffffffffffffffff02191690557f668a2c70c9e33b13c143eac02a389bb5ff706c9939aab9ef9edbbc11216b7b4d8787878460405161064994939291906139a4565b60405180910390a1505050505050505050565b600061066b868686868661121d565b905095945050505050565b60008061068533886006611259565b80985081925050506106e7818888888080601f016020809104026020016040519081016040528093929190818152602001838380828437600081840152601f19601f82011690508083019250505050505050876106e1906139e9565b8761142f565b91505095945050505050565b6040518060400160405280600181526020017f370000000000000000000000000000000000000000000000000000000000000081525081565b7f000000000000000000000000000000000000000000000000000000000000000081565b600460009054906101000a900473ffffffffffffffffffffffffffffffffffffffff1681565b60016020528060005260406000206000915054906101000a900473ffffffffffffffffffffffffffffffffffffffff1681565b7f000000000000000000000000000000000000000000000000000000000000000073ffffffffffffffffffffffffffffffffffffffff163373ffffffffffffffffffffffffffffffffffffffff1614610837576040517f08c379a000000000000000000000000000000000000000000000000000000000815260040161082e90613909565b60405180910390fd5b61088885600260008a73ffffffffffffffffffffffffffffffffffffffff1673ffffffffffffffffffffffffffffffffffffffff1681526020019081526020016000206110ff90919063ffffffff16565b6108c7576040517f08c379a00000000000000000000000000000000000000000000000000000000081526004016108be90613975565b60405180910390fd5b60006108d98689898787876002611116565b90507f6bc93adab97dd835bee818087939b726558bc8d9177650a0018dd05eb00e56c886868360405161090e939291906139fc565b60405180910390a15050505050505050565b6109286115ad565b73ffffffffffffffffffffffffffffffffffffffff163373ffffffffffffffffffffffffffffffffffffffff1614610995576040517f08c379a000000000000000000000000000000000000000000000000000000000815260040161098c90613a7f565b60405180910390fd5b600084849050905060005b81811015610a7f578383828181106109bb576109ba613a9f565b5b90506020020160208101906109d09190612a9c565b600660008888858181106109e7576109e6613a9f565b5b90506020020160208101906109fc91906137b6565b6005811115610a0e57610a0d613ace565b5b6005811115610a2057610a1f613ace565b5b815260200190815260200160002060006101000a81548173ffffffffffffffffffffffffffffffffffffffff021916908373ffffffffffffffffffffffffffffffffffffffff1602179055508080610a7790613b2c565b9150506109a0565b505050505050565b7f000000000000000000000000000000000000000000000000000000000000000073ffffffffffffffffffffffffffffffffffffffff163373ffffffffffffffffffffffffffffffffffffffff1614610b15576040517f08c379a0000000000000000000000000000000000000000000000000000000008152600401610b0c90613909565b60405180910390fd5b6000610b368787610b25886115d6565b87610b2f906139e9565b600061121d565b9050610b8981600260008a73ffffffffffffffffffffffffffffffffffffffff1673ffffffffffffffffffffffffffffffffffffffff1681526020019081526020016000206110ff90919063ffffffff16565b610bc8576040517f08c379a0000000000000000000000000000000000000000000000000000000008152600401610bbf90613975565b60405180910390fd5b6000610c2982898989898060000190610be19190613b83565b80806020026020016040519081016040528093929190818152602001838360200280828437600081840152601f19601f8201169050808301925050505050505088600661174f565b90508673ffffffffffffffffffffffffffffffffffffffff16600073ffffffffffffffffffffffffffffffffffffffff1660007fa458375b1282695a972870cbfbc4891a9d856b79d563d17667d171d87e0c527a898686604051610c8f93929190613c3b565b60405180910390a4836020016020810190610caa9190612a9c565b73ffffffffffffffffffffffffffffffffffffffff168773ffffffffffffffffffffffffffffffffffffffff16856000016020810190610cea9190612a9c565b73ffffffffffffffffffffffffffffffffffffffff167f116bfd46451bbd23e7a5f5b7420b28e3d98d4c477f173da513aaaeac3c4baada8760400135886060013589608001358a60a00135604051610d459493929190613c79565b60405180910390a45050505050505050565b60076020528060005260406000206000915090505481565b600080600354600460009054906101000a900473ffffffffffffffffffffffffffffffffffffffff16915091509091565b60056020528060005260406000206000915090508060000160009054906101000a90046fffffffffffffffffffffffffffffffff16908060000160109054906101000a90046fffffffffffffffffffffffffffffffff16905082565b60066020528060005260406000206000915054906101000a900473ffffffffffffffffffffffffffffffffffffffff1681565b60035481565b7f000000000000000000000000000000000000000000000000000000000000000073ffffffffffffffffffffffffffffffffffffffff163373ffffffffffffffffffffffffffffffffffffffff1614610ec3576040517f08c379a0000000000000000000000000000000000000000000000000000000008152600401610eba90613909565b60405180910390fd5b6000610ee38888610ed3896115d6565b88610edd906139e9565b8761121d565b9050610f3681600260008b73ffffffffffffffffffffffffffffffffffffffff1673ffffffffffffffffffffffffffffffffffffffff1681526020019081526020016000206110ff90919063ffffffff16565b610f75576040517f08c379a0000000000000000000000000000000000000000000000000000000008152600401610f6c90613975565b60405180910390fd5b8360038190555082600460006101000a81548173ffffffffffffffffffffffffffffffffffffffff021916908373ffffffffffffffffffffffffffffffffffffffff160217905550600061101e828a8a8a8a8060000190610fd69190613b83565b80806020026020016040519081016040528093929190818152602001838360200280828437600081840152601f19601f8201169050808301925050505050505088600661174f565b9050600360009055600460006101000a81549073ffffffffffffffffffffffffffffffffffffffff02191690558773ffffffffffffffffffffffffffffffffffffffff168473ffffffffffffffffffffffffffffffffffffffff16867fa458375b1282695a972870cbfbc4891a9d856b79d563d17667d171d87e0c527a8a86866040516110ad93929190613c3b565b60405180910390a4505050505050505050565b60006110ce823360066117f7565b90506110da81836119b4565b5050565b606060006110ee83600001611ad3565b905060608190508092505050919050565b600061110e8360000183611b2f565b905092915050565b600061117c86868960405160200161112f929190613d42565b6040516020818303038152906040526000876040518060400160405280600f81526020017f4175746f6d6174652e657865633a200000000000000000000000000000000000815250611b52565b50809150508215611212576111d7888360008a73ffffffffffffffffffffffffffffffffffffffff1673ffffffffffffffffffffffffffffffffffffffff168152602001908152602001600020611bec90919063ffffffff16565b507f44d83729a43f9c6046446df014d073dd242e0ad672071e9b292f31b669c25b098888604051611209929190613d6a565b60405180910390a15b979650505050505050565b60008585858585604051602001611238959493929190613fe9565b60405160208183030381529060405280519060200120905095945050505050565b6000806000600160058081111561127357611272613ace565b5b61127d9190614043565b905060005b8181101561141f57600081600581111561129f5761129e613ace565b5b90506112bc8160058111156112b7576112b6613ace565b5b611c03565b6112c6575061140c565b60008660008360058111156112de576112dd613ace565b5b60058111156112f0576112ef613ace565b5b815260200190815260200160002060009054906101000a900473ffffffffffffffffffffffffffffffffffffffff16905061132a81611c44565b60006376474e6a60e01b8a8a604051602401611347929190614099565b604051602081830303815290604052907bffffffffffffffffffffffffffffffffffffffffffffffffffffffff19166020820180517bffffffffffffffffffffffffffffffffffffffffffffffffffffffff8381831617835250505050905060006113e883836040518060400160405280601881526020017f4175746f6d6174652e7072654372656174655461736b3a200000000000000000815250611cb6565b915050808060200190518101906113ff91906140ee565b809b50819c505050505050505b808061141790613b2c565b915050611282565b5085859250925050935093915050565b6000611446868661143f876115d6565b868661121d565b905061149981600260008973ffffffffffffffffffffffffffffffffffffffff1673ffffffffffffffffffffffffffffffffffffffff1681526020019081526020016000206110ff90919063ffffffff16565b156114d9576040517f08c379a00000000000000000000000000000000000000000000000000000000081526004016114d0906141a0565b60405180910390fd5b6114e881878787876006611d40565b61153981600260008973ffffffffffffffffffffffffffffffffffffffff1673ffffffffffffffffffffffffffffffffffffffff168152602001908152602001600020611f1190919063ffffffff16565b50808573ffffffffffffffffffffffffffffffffffffffff168773ffffffffffffffffffffffffffffffffffffffff167f73f079427211e7b93db86024054de0b3c4a076a36cf0f86d2c4bf0d112eb7f1d87878760405161159c939291906141c0565b60405180910390a495945050505050565b60007fb53127684a568b3173ae13b9f8a6016e243e63b6e8ee1178d6a717850b5d610354905090565b60006018826003815181106115ee576115ed613a9f565b5b602001015160f81c60f81b7effffffffffffffffffffffffffffffffffffffffffffffffffffffffffffff19167bffffffffffffffffffffffffffffffffffffffffffffffffffffffff1916901c60108360028151811061165257611651613a9f565b5b602001015160f81c60f81b7effffffffffffffffffffffffffffffffffffffffffffffffffffffffffffff19167bffffffffffffffffffffffffffffffffffffffffffffffffffffffff1916901c6008846001815181106116b6576116b5613a9f565b5b602001015160f81c60f81b7effffffffffffffffffffffffffffffffffffffffffffffffffffffffffffff19167bffffffffffffffffffffffffffffffffffffffffffffffffffffffff1916901c8460008151811061171857611717613a9f565b5b602001015160f81c60f81b7effffffffffffffffffffffffffffffffffffffffffffffffffffffffffffff19161717179050919050565b60008061175c8584611f28565b905061176c898989898986612065565b80975081985050506117d887878a60405160200161178b929190613d42565b6040516020818303038152906040526000876040518060400160405280600f81526020017f4175746f6d6174652e657865633a200000000000000000000000000000000000815250611b52565b50809250506117eb8989898989866121d8565b50979650505050505050565b60008060058081111561180d5761180c613ace565b5b905060005b8181116119a857600081600581111561182e5761182d613ace565b5b905061184b81600581111561184657611845613ace565b5b61231e565b6118555750611995565b600085600083600581111561186d5761186c613ace565b5b600581111561187f5761187e613ace565b5b815260200190815260200160002060009054906101000a900473ffffffffffffffffffffffffffffffffffffffff1690506118b981611c44565b60006314ae992660e01b89896040516024016118d6929190613d6a565b604051602081830303815290604052907bffffffffffffffffffffffffffffffffffffffffffffffffffffffff19166020820180517bffffffffffffffffffffffffffffffffffffffffffffffffffffffff83818316178352505050509050600061197783836040518060400160405280601881526020017f4175746f6d6174652e70726543616e63656c5461736b3a200000000000000000815250611cb6565b9150508080602001905181019061198e9190614205565b9850505050505b80806119a090613b2c565b915050611812565b50839150509392505050565b611a0581600260008573ffffffffffffffffffffffffffffffffffffffff1673ffffffffffffffffffffffffffffffffffffffff1681526020019081526020016000206110ff90919063ffffffff16565b611a44576040517f08c379a0000000000000000000000000000000000000000000000000000000008152600401611a3b906142a4565b60405180910390fd5b611a9581600260008573ffffffffffffffffffffffffffffffffffffffff1673ffffffffffffffffffffffffffffffffffffffff168152602001908152602001600020611bec90919063ffffffff16565b507f44d83729a43f9c6046446df014d073dd242e0ad672071e9b292f31b669c25b098183604051611ac7929190613d6a565b60405180910390a15050565b606081600001805480602002602001604051908101604052809291908181526020018280548015611b2357602002820191906000526020600020905b815481526020019060010190808311611b0f575b50505050509050919050565b600080836001016000848152602001908152602001600020541415905092915050565b600060608673ffffffffffffffffffffffffffffffffffffffff168587604051611b7c91906142c4565b60006040518083038185875af1925050503d8060008114611bb9576040519150601f19603f3d011682016040523d82523d6000602084013e611bbe565b606091505b50809250819350505081158015611bd25750835b15611be257611be1818461235f565b5b9550959350505050565b6000611bfb83600001836124c6565b905092915050565b600060026005811115611c1957611c18613ace565b5b826005811115611c2c57611c2b613ace565b5b03611c3a5760019050611c3f565b600090505b919050565b600073ffffffffffffffffffffffffffffffffffffffff168173ffffffffffffffffffffffffffffffffffffffff1603611cb3576040517f08c379a0000000000000000000000000000000000000000000000000000000008152600401611caa9061434d565b60405180910390fd5b50565b600060608473ffffffffffffffffffffffffffffffffffffffff1684604051611cdf91906142c4565b600060405180830381855af49150503d8060008114611d1a576040519150601f19603f3d011682016040523d82523d6000602084013e611d1f565b606091505b50809250819350505081611d3857611d37818461235f565b5b935093915050565b60008260000151519050611d5783600001516125da565b60005b81811015611f0757600084600001518281518110611d7b57611d7a613a9f565b5b60200260200101519050611da0816005811115611d9b57611d9a613ace565b5b6128f7565b611daa5750611ef4565b6000846000836005811115611dc257611dc1613ace565b5b6005811115611dd457611dd3613ace565b5b815260200190815260200160002060009054906101000a900473ffffffffffffffffffffffffffffffffffffffff169050611e0e81611c44565b600063b0ccbdf060e01b8b8b8b8b8b602001518981518110611e3357611e32613a9f565b5b6020026020010151604051602401611e4f95949392919061436d565b604051602081830303815290604052907bffffffffffffffffffffffffffffffffffffffffffffffffffffffff19166020820180517bffffffffffffffffffffffffffffffffffffffffffffffffffffffff83818316178352505050509050611eee82826040518060400160405280601781526020017f4175746f6d6174652e6f6e4372656174655461736b3a20000000000000000000815250611cb6565b50505050505b8080611eff90613b2c565b915050611d5a565b5050505050505050565b6000611f208360000183612938565b905092915050565b606060008351905060008167ffffffffffffffff811115611f4c57611f4b612c87565b5b604051908082528060200260200182016040528015611f7a5781602001602082028036833780820191505090505b50905060005b8281101561205957846000878381518110611f9e57611f9d613a9f565b5b60200260200101516005811115611fb857611fb7613ace565b5b6005811115611fca57611fc9613ace565b5b815260200190815260200160002060009054906101000a900473ffffffffffffffffffffffffffffffffffffffff1682828151811061200c5761200b613a9f565b5b602002602001019073ffffffffffffffffffffffffffffffffffffffff16908173ffffffffffffffffffffffffffffffffffffffff1681525050808061205190613b2c565b915050611f80565b50809250505092915050565b6000606060008451905060005b818110156121c5576120af8682815181106120905761208f613a9f565b5b602002602001015160058111156120aa576120a9613ace565b5b6129a8565b156121b257600063c10304f760e01b8b8b8b8b6040516024016120d594939291906143ce565b604051602081830303815290604052907bffffffffffffffffffffffffffffffffffffffffffffffffffffffff19166020820180517bffffffffffffffffffffffffffffffffffffffffffffffffffffffff83818316178352505050509050600061219087848151811061214c5761214b613a9f565b5b6020026020010151836040518060400160405280601681526020017f4175746f6d6174652e7072654578656343616c6c3a2000000000000000000000815250611cb6565b915050808060200190518101906121a7919061448a565b809a50819b50505050505b80806121bd90613b2c565b915050612072565b5086869250925050965096945050505050565b60008151905060005b818110156123145761221e8482815181106121ff576121fe613a9f565b5b6020026020010151600581111561221957612218613ace565b5b6129e9565b1561230157600063b2db0b4160e01b8989898960405160240161224494939291906143ce565b604051602081830303815290604052907bffffffffffffffffffffffffffffffffffffffffffffffffffffffff19166020820180517bffffffffffffffffffffffffffffffffffffffffffffffffffffffff838183161783525050505090506122fd8483815181106122b9576122b8613a9f565b5b6020026020010151826040518060400160405280601781526020017f4175746f6d6174652e706f73744578656343616c6c3a20000000000000000000815250611cb6565b5050505b808061230c90613b2c565b9150506121e1565b5050505050505050565b60006002600581111561233457612333613ace565b5b82600581111561234757612346613ace565b5b03612355576001905061235a565b600090505b919050565b60046020835161236f9190614515565b0361246a576000826020015190506308c379a060e01b817bffffffffffffffffffffffffffffffffffffffffffffffffffffffff19160361240e5760448301925081836040516020016123c3929190614582565b6040516020818303038152906040526040517f08c379a000000000000000000000000000000000000000000000000000000000815260040161240591906133e0565b60405180910390fd5b8160405160200161241f91906145f2565b6040516020818303038152906040526040517f08c379a000000000000000000000000000000000000000000000000000000000815260040161246191906133e0565b60405180910390fd5b8060405160200161247b9190614660565b6040516020818303038152906040526040517f08c379a00000000000000000000000000000000000000000000000000000000081526004016124bd91906133e0565b60405180910390fd5b600080836001016000848152602001908152602001600020549050600081146125ce5760006001826124f89190614682565b90506000600186600001805490506125109190614682565b905081811461257f57600086600001828154811061253157612530613a9f565b5b906000526020600020015490508087600001848154811061255557612554613a9f565b5b90600052602060002001819055508387600101600083815260200190815260200160002081905550505b85600001805480612593576125926146b6565b5b6001900381819060005260206000200160009055905585600101600086815260200190815260200160002060009055600193505050506125d4565b60009150505b92915050565b600081519050600060016005808111156125f7576125f6613ace565b5b6126019190614043565b905060008167ffffffffffffffff81111561261f5761261e612c87565b5b60405190808252806020026020018201604052801561264d5781602001602082028036833780820191505090505b50905060005b8381101561277157600081111561270b57846001826126729190614682565b8151811061268357612682613a9f565b5b6020026020010151600581111561269d5761269c613ace565b5b8582815181106126b0576126af613a9f565b5b602002602001015160058111156126ca576126c9613ace565b5b1161270a576040517f08c379a000000000000000000000000000000000000000000000000000000000815260040161270190614731565b60405180910390fd5b5b60018286838151811061272157612720613a9f565b5b6020026020010151600581111561273b5761273a613ace565b5b8151811061274c5761274b613a9f565b5b602002602001019015159081151581525050808061276990613b2c565b915050612653565b50806001600581111561278757612786613ace565b5b8151811061279857612797613a9f565b5b6020026020010151156127e0576040517f08c379a00000000000000000000000000000000000000000000000000000000081526004016127d7906147c3565b60405180910390fd5b80600060058111156127f5576127f4613ace565b5b8151811061280657612805613a9f565b5b602002602001015180156128445750806004600581111561282a57612829613ace565b5b8151811061283b5761283a613a9f565b5b60200260200101515b15612884576040517f08c379a000000000000000000000000000000000000000000000000000000000815260040161287b90614855565b60405180910390fd5b806002600581111561289957612898613ace565b5b815181106128aa576128a9613a9f565b5b60200260200101516128f1576040517f08c379a00000000000000000000000000000000000000000000000000000000081526004016128e8906148e7565b60405180910390fd5b50505050565b60006002600581111561290d5761290c613ace565b5b8260058111156129205761291f613ace565b5b0361292e5760019050612933565b600090505b919050565b60006129448383611b2f565b61299d5782600001829080600181540180825580915050600190039060005260206000200160009091909190915055826000018054905083600101600084815260200190815260200160002081905550600190506129a2565b600090505b92915050565b6000600260058111156129be576129bd613ace565b5b8260058111156129d1576129d0613ace565b5b036129df57600190506129e4565b600090505b919050565b6000600360058111156129ff576129fe613ace565b5b826005811115612a1257612a11613ace565b5b03612a205760019050612a25565b600090505b919050565b6000604051905090565b600080fd5b600080fd5b600073ffffffffffffffffffffffffffffffffffffffff82169050919050565b6000612a6982612a3e565b9050919050565b612a7981612a5e565b8114612a8457600080fd5b50565b600081359050612a9681612a70565b92915050565b600060208284031215612ab257612ab1612a34565b5b6000612ac084828501612a87565b91505092915050565b600081519050919050565b600082825260208201905092915050565b6000819050602082019050919050565b6000819050919050565b612b0881612af5565b82525050565b6000612b1a8383612aff565b60208301905092915050565b6000602082019050919050565b6000612b3e82612ac9565b612b488185612ad4565b9350612b5383612ae5565b8060005b83811015612b84578151612b6b8882612b0e565b9750612b7683612b26565b925050600181019050612b57565b5085935050505092915050565b60006020820190508181036000830152612bab8184612b33565b905092915050565b612bbc81612af5565b8114612bc757600080fd5b50565b600081359050612bd981612bb3565b92915050565b600060208284031215612bf557612bf4612a34565b5b6000612c0384828501612bca565b91505092915050565b612c1581612a5e565b82525050565b6000602082019050612c306000830184612c0c565b92915050565b6000819050919050565b612c4981612c36565b8114612c5457600080fd5b50565b600081359050612c6681612c40565b92915050565b600080fd5b600080fd5b6000601f19601f8301169050919050565b7f4e487b7100000000000000000000000000000000000000000000000000000000600052604160045260246000fd5b612cbf82612c76565b810181811067ffffffffffffffff82111715612cde57612cdd612c87565b5b80604052505050565b6000612cf1612a2a565b9050612cfd8282612cb6565b919050565b600067ffffffffffffffff821115612d1d57612d1c612c87565b5b612d2682612c76565b9050602081019050919050565b82818337600083830152505050565b6000612d55612d5084612d02565b612ce7565b905082815260208101848484011115612d7157612d70612c71565b5b612d7c848285612d33565b509392505050565b600082601f830112612d9957612d98612c6c565b5b8135612da9848260208601612d42565b91505092915050565b60008115159050919050565b612dc781612db2565b8114612dd257600080fd5b50565b600081359050612de481612dbe565b92915050565b600080600080600080600080610100898b031215612e0b57612e0a612a34565b5b6000612e198b828c01612a87565b9850506020612e2a8b828c01612a87565b9750506040612e3b8b828c01612bca565b9650506060612e4c8b828c01612c57565b9550506080612e5d8b828c01612a87565b94505060a089013567ffffffffffffffff811115612e7e57612e7d612a39565b5b612e8a8b828c01612d84565b93505060c0612e9b8b828c01612dd5565b92505060e0612eac8b828c01612dd5565b9150509295985092959890939650565b60007fffffffff0000000000000000000000000000000000000000000000000000000082169050919050565b612ef181612ebc565b8114612efc57600080fd5b50565b600081359050612f0e81612ee8565b92915050565b600080fd5b600080fd5b600067ffffffffffffffff821115612f3957612f38612c87565b5b602082029050602081019050919050565b600080fd5b60068110612f5c57600080fd5b50565b600081359050612f6e81612f4f565b92915050565b6000612f87612f8284612f1e565b612ce7565b90508083825260208201905060208402830185811115612faa57612fa9612f4a565b5b835b81811015612fd35780612fbf8882612f5f565b845260208401935050602081019050612fac565b5050509392505050565b600082601f830112612ff257612ff1612c6c565b5b8135613002848260208601612f74565b91505092915050565b600067ffffffffffffffff82111561302657613025612c87565b5b602082029050602081019050919050565b600061304a6130458461300b565b612ce7565b9050808382526020820190506020840283018581111561306d5761306c612f4a565b5b835b818110156130b457803567ffffffffffffffff81111561309257613091612c6c565b5b80860161309f8982612d84565b8552602085019450505060208101905061306f565b5050509392505050565b600082601f8301126130d3576130d2612c6c565b5b81356130e3848260208601613037565b91505092915050565b60006040828403121561310257613101612f14565b5b61310c6040612ce7565b9050600082013567ffffffffffffffff81111561312c5761312b612f19565b5b61313884828501612fdd565b600083015250602082013567ffffffffffffffff81111561315c5761315b612f19565b5b613168848285016130be565b60208301525092915050565b600080600080600060a086880312156131905761318f612a34565b5b600061319e88828901612a87565b95505060206131af88828901612a87565b94505060406131c088828901612eff565b935050606086013567ffffffffffffffff8111156131e1576131e0612a39565b5b6131ed888289016130ec565b92505060806131fe88828901612a87565b9150509295509295909350565b61321481612af5565b82525050565b600060208201905061322f600083018461320b565b92915050565b600080fd5b60008083601f8401126132505761324f612c6c565b5b8235905067ffffffffffffffff81111561326d5761326c613235565b5b60208301915083600182028301111561328957613288612f4a565b5b9250929050565b600080fd5b6000604082840312156132ab576132aa613290565b5b81905092915050565b6000806000806000608086880312156132d0576132cf612a34565b5b60006132de88828901612a87565b955050602086013567ffffffffffffffff8111156132ff576132fe612a39565b5b61330b8882890161323a565b9450945050604086013567ffffffffffffffff81111561332e5761332d612a39565b5b61333a88828901613295565b925050606061334b88828901612a87565b9150509295509295909350565b600081519050919050565b600082825260208201905092915050565b60005b83811015613392578082015181840152602081019050613377565b838111156133a1576000848401525b50505050565b60006133b282613358565b6133bc8185613363565b93506133cc818560208601613374565b6133d581612c76565b840191505092915050565b600060208201905081810360008301526133fa81846133a7565b905092915050565b600061340d82612a3e565b9050919050565b61341d81613402565b82525050565b60006020820190506134386000830184613414565b92915050565b600080600080600080600060e0888a03121561345d5761345c612a34565b5b600061346b8a828b01612a87565b975050602061347c8a828b01612a87565b965050604061348d8a828b01612bca565b955050606061349e8a828b01612bca565b945050608088013567ffffffffffffffff8111156134bf576134be612a39565b5b6134cb8a828b01612d84565b93505060a06134dc8a828b01612dd5565b92505060c06134ed8a828b01612dd5565b91505092959891949750929550565b60008083601f84011261351257613511612c6c565b5b8235905067ffffffffffffffff81111561352f5761352e613235565b5b60208301915083602082028301111561354b5761354a612f4a565b5b9250929050565b60008083601f84011261356857613567612c6c565b5b8235905067ffffffffffffffff81111561358557613584613235565b5b6020830191508360208202830111156135a1576135a0612f4a565b5b9250929050565b600080600080604085870312156135c2576135c1612a34565b5b600085013567ffffffffffffffff8111156135e0576135df612a39565b5b6135ec878288016134fc565b9450945050602085013567ffffffffffffffff81111561360f5761360e612a39565b5b61361b87828801613552565b925092505092959194509250565b600060c0828403121561363f5761363e613290565b5b81905092915050565b600080600080600080610160878903121561366657613665612a34565b5b600061367489828a01612a87565b965050602061368589828a01612a87565b955050604087013567ffffffffffffffff8111156136a6576136a5612a39565b5b6136b289828a01612d84565b945050606087013567ffffffffffffffff8111156136d3576136d2612a39565b5b6136df89828a01613295565b93505060806136f089828a01613629565b92505061014061370289828a01612dd5565b9150509295509295509295565b61371881612c36565b82525050565b6000602082019050613733600083018461370f565b92915050565b600060408201905061374e600083018561370f565b61375b6020830184612c0c565b9392505050565b60006fffffffffffffffffffffffffffffffff82169050919050565b61378781613762565b82525050565b60006040820190506137a2600083018561377e565b6137af602083018461377e565b9392505050565b6000602082840312156137cc576137cb612a34565b5b60006137da84828501612f5f565b91505092915050565b600080600080600080600060e0888a03121561380257613801612a34565b5b60006138108a828b01612a87565b97505060206138218a828b01612a87565b965050604088013567ffffffffffffffff81111561384257613841612a39565b5b61384e8a828b01612d84565b955050606088013567ffffffffffffffff81111561386f5761386e612a39565b5b61387b8a828b01613295565b945050608061388c8a828b01612c57565b93505060a061389d8a828b01612a87565b92505060c06138ae8a828b01612dd5565b91505092959891949750929550565b7f47656c61746f666965643a204f6e6c792067656c61746f000000000000000000600082015250565b60006138f3601783613363565b91506138fe826138bd565b602082019050919050565b60006020820190508181036000830152613922816138e6565b9050919050565b7f4175746f6d6174652e657865633a205461736b206e6f7420666f756e64000000600082015250565b600061395f601d83613363565b915061396a82613929565b602082019050919050565b6000602082019050818103600083015261398e81613952565b9050919050565b61399e81612db2565b82525050565b60006080820190506139b9600083018761320b565b6139c6602083018661370f565b6139d36040830185612c0c565b6139e06060830184613995565b95945050505050565b60006139f536836130ec565b9050919050565b6000606082019050613a11600083018661320b565b613a1e602083018561320b565b613a2b6040830184613995565b949350505050565b7f4e4f545f415554484f52495a4544000000000000000000000000000000000000600082015250565b6000613a69600e83613363565b9150613a7482613a33565b602082019050919050565b60006020820190508181036000830152613a9881613a5c565b9050919050565b7f4e487b7100000000000000000000000000000000000000000000000000000000600052603260045260246000fd5b7f4e487b7100000000000000000000000000000000000000000000000000000000600052602160045260246000fd5b7f4e487b7100000000000000000000000000000000000000000000000000000000600052601160045260246000fd5b6000613b3782612c36565b91507fffffffffffffffffffffffffffffffffffffffffffffffffffffffffffffffff8203613b6957613b68613afd565b5b600182019050919050565b600080fd5b600080fd5b600080fd5b60008083356001602003843603038112613ba057613b9f613b74565b5b80840192508235915067ffffffffffffffff821115613bc257613bc1613b79565b5b602083019250602082023603831315613bde57613bdd613b7e565b5b509250929050565b600081519050919050565b600082825260208201905092915050565b6000613c0d82613be6565b613c178185613bf1565b9350613c27818560208601613374565b613c3081612c76565b840191505092915050565b60006060820190508181036000830152613c558186613c02565b9050613c64602083018561320b565b613c716040830184613995565b949350505050565b6000608082019050613c8e600083018761370f565b613c9b602083018661370f565b613ca8604083018561370f565b613cb5606083018461320b565b95945050505050565b600081905092915050565b6000613cd482613be6565b613cde8185613cbe565b9350613cee818560208601613374565b80840191505092915050565b60008160601b9050919050565b6000613d1282613cfa565b9050919050565b6000613d2482613d07565b9050919050565b613d3c613d3782612a5e565b613d19565b82525050565b6000613d4e8285613cc9565b9150613d5a8284613d2b565b6014820191508190509392505050565b6000604082019050613d7f600083018561320b565b613d8c6020830184612c0c565b9392505050565b613d9c81612ebc565b82525050565b600081519050919050565b600082825260208201905092915050565b6000819050602082019050919050565b60068110613ddf57613dde613ace565b5b50565b6000819050613df082613dce565b919050565b6000613e0082613de2565b9050919050565b613e1081613df5565b82525050565b6000613e228383613e07565b60208301905092915050565b6000602082019050919050565b6000613e4682613da2565b613e508185613dad565b9350613e5b83613dbe565b8060005b83811015613e8c578151613e738882613e16565b9750613e7e83613e2e565b925050600181019050613e5f565b5085935050505092915050565b600081519050919050565b600082825260208201905092915050565b6000819050602082019050919050565b600082825260208201905092915050565b6000613ee182613be6565b613eeb8185613ec5565b9350613efb818560208601613374565b613f0481612c76565b840191505092915050565b6000613f1b8383613ed6565b905092915050565b6000602082019050919050565b6000613f3b82613e99565b613f458185613ea4565b935083602082028501613f5785613eb5565b8060005b85811015613f935784840389528151613f748582613f0f565b9450613f7f83613f23565b925060208a01995050600181019050613f5b565b50829750879550505050505092915050565b60006040830160008301518482036000860152613fc28282613e3b565b91505060208301518482036020860152613fdc8282613f30565b9150508091505092915050565b600060a082019050613ffe6000830188612c0c565b61400b6020830187612c0c565b6140186040830186613d93565b818103606083015261402a8185613fa5565b90506140396080830184612c0c565b9695505050505050565b600061404e82612c36565b915061405983612c36565b9250827fffffffffffffffffffffffffffffffffffffffffffffffffffffffffffffffff0382111561408e5761408d613afd565b5b828201905092915050565b60006040820190506140ae6000830185612c0c565b6140bb6020830184612c0c565b9392505050565b6140cb81613402565b81146140d657600080fd5b50565b6000815190506140e8816140c2565b92915050565b6000806040838503121561410557614104612a34565b5b6000614113858286016140d9565b9250506020614124858286016140d9565b9150509250929050565b7f4175746f6d6174652e6372656174655461736b3a204475706c6963617465207460008201527f61736b0000000000000000000000000000000000000000000000000000000000602082015250565b600061418a602383613363565b91506141958261412e565b604082019050919050565b600060208201905081810360008301526141b98161417d565b9050919050565b600060608201905081810360008301526141da8186613c02565b905081810360208301526141ee8185613fa5565b90506141fd6040830184612c0c565b949350505050565b60006020828403121561421b5761421a612a34565b5b6000614229848285016140d9565b91505092915050565b7f4175746f6d6174652e63616e63656c5461736b3a205461736b206e6f7420666f60008201527f756e640000000000000000000000000000000000000000000000000000000000602082015250565b600061428e602383613363565b915061429982614232565b604082019050919050565b600060208201905081810360008301526142bd81614281565b9050919050565b60006142d08284613cc9565b915081905092915050565b7f4175746f6d6174652e5f6d6f64756c65496e697469616c697365643a204e6f7460008201527f20696e6974000000000000000000000000000000000000000000000000000000602082015250565b6000614337602583613363565b9150614342826142db565b604082019050919050565b600060208201905081810360008301526143668161432a565b9050919050565b600060a082019050614382600083018861320b565b61438f6020830187612c0c565b61439c6040830186612c0c565b81810360608301526143ae8185613c02565b905081810360808301526143c28184613c02565b90509695505050505050565b60006080820190506143e3600083018761320b565b6143f06020830186612c0c565b6143fd6040830185612c0c565b818103606083015261440f8184613c02565b905095945050505050565b600061442d61442884612d02565b612ce7565b90508281526020810184848401111561444957614448612c71565b5b614454848285613374565b509392505050565b600082601f83011261447157614470612c6c565b5b815161448184826020860161441a565b91505092915050565b600080604083850312156144a1576144a0612a34565b5b60006144af858286016140d9565b925050602083015167ffffffffffffffff8111156144d0576144cf612a39565b5b6144dc8582860161445c565b9150509250929050565b7f4e487b7100000000000000000000000000000000000000000000000000000000600052601260045260246000fd5b600061452082612c36565b915061452b83612c36565b92508261453b5761453a6144e6565b5b828206905092915050565b600081905092915050565b600061455c82613358565b6145668185614546565b9350614576818560208601613374565b80840191505092915050565b600061458e8285614551565b915061459a8284614551565b91508190509392505050565b7f4e6f4572726f7253656c6563746f720000000000000000000000000000000000600082015250565b60006145dc600f83614546565b91506145e7826145a6565b600f82019050919050565b60006145fe8284614551565b9150614609826145cf565b915081905092915050565b7f556e657870656374656452657475726e64617461000000000000000000000000600082015250565b600061464a601483614546565b915061465582614614565b601482019050919050565b600061466c8284614551565b91506146778261463d565b915081905092915050565b600061468d82612c36565b915061469883612c36565b9250828210156146ab576146aa613afd565b5b828203905092915050565b7f4e487b7100000000000000000000000000000000000000000000000000000000600052603160045260246000fd5b7f4175746f6d6174652e5f76616c69644d6f64756c65733a20417363206f6e6c79600082015250565b600061471b602083613363565b9150614726826146e5565b602082019050919050565b6000602082019050818103600083015261474a8161470e565b9050919050565b7f4175746f6d6174652e5f76616c69644d6f64756c65733a2054494d452069732060008201527f6465707265636174656400000000000000000000000000000000000000000000602082015250565b60006147ad602a83613363565b91506147b882614751565b604082019050919050565b600060208201905081810360008301526147dc816147a0565b9050919050565b7f4175746f6d6174652e5f76616c69644d6f64756c65733a204f6e6c792052455360008201527f4f4c564552206f7220574542335f46554e4354494f4e00000000000000000000602082015250565b600061483f603683613363565b915061484a826147e3565b604082019050919050565b6000602082019050818103600083015261486e81614832565b9050919050565b7f4175746f6d6174652e5f76616c69644d6f64756c65733a2050524f585920697360008201527f2072657175697265640000000000000000000000000000000000000000000000602082015250565b60006148d1602983613363565b91506148dc82614875565b604082019050919050565b60006020820190508181036000830152614900816148c4565b905091905056fea26469706673582212205e3bb0f92dcdfca5d5820bc0efcc1723ff7968ee45e32a1b257e1f0b6e05cb6d64736f6c634300080e0033",
  "devdoc": {
    "kind": "dev",
    "methods": {
      "cancelTask(bytes32)": {
        "params": {
          "taskId": "Unique hash of the task that is being cancelled. {See LibTaskId-getTaskId}"
        }
      },
      "createTask(address,bytes,(uint8[],bytes[]),address)": {
        "params": {
          "execAddress": "Address of contract that should be called by Gelato.",
          "execData": "Execution data to be called with / function selector if execution data is yet to be determined.",
          "feeToken": "Address of token to be used as payment. Use address(0) if Gelato 1Balance is being used, 0xeeeeee... for ETH or native tokens.",
          "moduleData": "Conditional modules that will be used. {See LibDataTypes-ModuleData}"
        },
        "returns": {
          "taskId": "Unique hash of the task created."
        }
      },
      "exec(address,address,bytes,(uint8[],bytes[]),uint256,address,bool)": {
        "params": {
          "execAddress": "Address of contract that should be called by Gelato.",
          "execData": "Execution data to be called with / function selector if execution data is yet to be determined.",
          "feeToken": "Token used to pay for the execution. ETH = 0xeeeeee...",
          "moduleData": "Conditional modules that will be used. {See LibDataTypes-ModuleData}",
          "revertOnFailure": "To revert or not if call to execAddress fails. (Used for off-chain simulations)",
          "taskCreator": "The address which created the task.",
          "txFee": "Fee paid to Gelato for execution, transfered to Gelato.feeCollector()."
        }
      },
      "exec1Balance(address,address,bytes,(uint8[],bytes[]),(address,address,uint256,uint256,uint256,bytes32),bool)": {
        "params": {
          "execAddress": "Address of contract that should be called by Gelato.",
          "execData": "Execution data to be called with / function selector if execution data is yet to be determined.",
          "moduleData": "Conditional modules that will be used. {See LibDataTypes-ModuleData}",
          "oneBalanceParam": "Parameters required for fee payment with Gelato 1Balance.",
          "revertOnFailure": "To revert or not if call to execAddress fails. (Used for off-chain simulations)",
          "taskCreator": "The address which created the task."
        }
      },
      "execBypassModule(address,address,bytes32,bytes32,bytes,bool,bool)": {
        "params": {
          "correlationId": "Id of the execution to be used for 1Balance settlement.",
          "execAddress": "Address of contract that should be called by Gelato.",
          "execData": "Execution data to be called with / function selector if execution data is yet to be determined.",
          "revertOnFailure": "To revert or not if call to execAddress fails. (Used for off-chain simulations)",
          "singleExec": "If the task is a SingleExec task. If true, task will be cancelled after execution.",
          "taskCreator": "The address which created the task.",
          "taskId": "Unique hash of the task."
        }
      },
      "getFeeDetails()": {
        "returns": {
          "_0": "uint256 Fee amount to be paid.",
          "_1": "address Token to be paid. (Determined and passed by taskCreator during createTask)"
        }
      },
      "getTaskId(address,address,bytes4,(uint8[],bytes[]),address)": {
        "params": {
          "execAddress": "Address of contract that will be called by Gelato.",
          "execSelector": "Signature of the function which will be called by Gelato.",
          "feeToken": "Address of token to be used as payment. Use address(0) if Gelato 1Balance is being used, 0xeeeeee... for ETH or native tokens.",
          "moduleData": "Conditional modules that will be used. {See LibDataTypes-ModuleData}",
          "taskCreator": "The address which created the task."
        }
      },
      "getTaskIdsByUser(address)": {
        "params": {
          "taskCreator": "Address of task creator to query."
        },
        "returns": {
          "_0": "bytes32[] List of taskIds created."
        }
      },
      "setModule(uint8[],address[])": {
        "params": {
          "moduleAddresses": "List of addresses for respective modules.",
          "modules": "List of modules to be set"
        }
      }
    },
    "version": 1
  },
  "userdoc": {
    "kind": "user",
    "methods": {
      "cancelTask(bytes32)": {
        "notice": "Terminates a task that was created and Gelato can no longer execute it."
      },
      "createTask(address,bytes,(uint8[],bytes[]),address)": {
        "notice": "Initiates a task with conditions which Gelato will monitor and execute when conditions are met."
      },
      "exec(address,address,bytes,(uint8[],bytes[]),uint256,address,bool)": {
        "notice": "Execution API called by Gelato, using Sync Fee as fee payment method"
      },
      "exec1Balance(address,address,bytes,(uint8[],bytes[]),(address,address,uint256,uint256,uint256,bytes32),bool)": {
        "notice": "Execution API called by Gelato, using Gelato 1Balance as fee payment method."
      },
      "execBypassModule(address,address,bytes32,bytes32,bytes,bool,bool)": {
        "notice": "Execution API called by Gelato, using Gelato 1Balance as fee payment method."
      },
      "getFeeDetails()": {
        "notice": "Helper function to query fee and feeToken to be used for payment. (For executions which pays itself)"
      },
      "getTaskId(address,address,bytes4,(uint8[],bytes[]),address)": {
        "notice": "Helper function to compute task id with module arguments"
      },
      "getTaskIdsByUser(address)": {
        "notice": "Helper func to query all open tasks by a task creator."
      },
      "setModule(uint8[],address[])": {
        "notice": "Sets the address of task modules. Only callable by proxy admin."
      }
    },
    "notice": "Automate enables everyone to have Gelato monitor and execute transactions.ExecAddress refers to the contract that has the function which Gelato will call.Modules allow users to customise conditions and specifications when creating a task.",
    "version": 1
  },
  "storageLayout": {
    "storage": [
      {
        "astId": 2704,
        "contract": "contracts/Automate.sol:Automate",
        "label": "taskCreator",
        "offset": 0,
        "slot": "0",
        "type": "t_mapping(t_bytes32,t_address)"
      },
      {
        "astId": 2709,
        "contract": "contracts/Automate.sol:Automate",
        "label": "execAddresses",
        "offset": 0,
        "slot": "1",
        "type": "t_mapping(t_bytes32,t_address)"
      },
      {
        "astId": 2715,
        "contract": "contracts/Automate.sol:Automate",
        "label": "_createdTasks",
        "offset": 0,
        "slot": "2",
        "type": "t_mapping(t_address,t_struct(Bytes32Set)1666_storage)"
      },
      {
        "astId": 2717,
        "contract": "contracts/Automate.sol:Automate",
        "label": "fee",
        "offset": 0,
        "slot": "3",
        "type": "t_uint256"
      },
      {
        "astId": 2719,
        "contract": "contracts/Automate.sol:Automate",
        "label": "feeToken",
        "offset": 0,
        "slot": "4",
        "type": "t_address"
      },
      {
        "astId": 2725,
        "contract": "contracts/Automate.sol:Automate",
        "label": "timedTask",
        "offset": 0,
        "slot": "5",
        "type": "t_mapping(t_bytes32,t_struct(Time)5933_storage)"
      },
      {
        "astId": 2731,
        "contract": "contracts/Automate.sol:Automate",
        "label": "taskModuleAddresses",
        "offset": 0,
        "slot": "6",
        "type": "t_mapping(t_enum(Module)5920,t_address)"
      },
      {
        "astId": 2735,
        "contract": "contracts/Automate.sol:Automate",
        "label": "nonce1Balance",
        "offset": 0,
        "slot": "7",
        "type": "t_mapping(t_bytes32,t_uint256)"
      }
    ],
    "types": {
      "t_address": {
        "encoding": "inplace",
        "label": "address",
        "numberOfBytes": "20"
      },
      "t_array(t_bytes32)dyn_storage": {
        "base": "t_bytes32",
        "encoding": "dynamic_array",
        "label": "bytes32[]",
        "numberOfBytes": "32"
      },
      "t_bytes32": {
        "encoding": "inplace",
        "label": "bytes32",
        "numberOfBytes": "32"
      },
      "t_enum(Module)5920": {
        "encoding": "inplace",
        "label": "enum LibDataTypes.Module",
        "numberOfBytes": "1"
      },
      "t_mapping(t_address,t_struct(Bytes32Set)1666_storage)": {
        "encoding": "mapping",
        "key": "t_address",
        "label": "mapping(address => struct EnumerableSet.Bytes32Set)",
        "numberOfBytes": "32",
        "value": "t_struct(Bytes32Set)1666_storage"
      },
      "t_mapping(t_bytes32,t_address)": {
        "encoding": "mapping",
        "key": "t_bytes32",
        "label": "mapping(bytes32 => address)",
        "numberOfBytes": "32",
        "value": "t_address"
      },
      "t_mapping(t_bytes32,t_struct(Time)5933_storage)": {
        "encoding": "mapping",
        "key": "t_bytes32",
        "label": "mapping(bytes32 => struct LibDataTypes.Time)",
        "numberOfBytes": "32",
        "value": "t_struct(Time)5933_storage"
      },
      "t_mapping(t_bytes32,t_uint256)": {
        "encoding": "mapping",
        "key": "t_bytes32",
        "label": "mapping(bytes32 => uint256)",
        "numberOfBytes": "32",
        "value": "t_uint256"
      },
      "t_mapping(t_enum(Module)5920,t_address)": {
        "encoding": "mapping",
        "key": "t_enum(Module)5920",
        "label": "mapping(enum LibDataTypes.Module => address)",
        "numberOfBytes": "32",
        "value": "t_address"
      },
      "t_struct(Bytes32Set)1666_storage": {
        "encoding": "inplace",
        "label": "struct EnumerableSet.Bytes32Set",
        "members": [
          {
            "astId": 1665,
            "contract": "contracts/Automate.sol:Automate",
            "label": "_inner",
            "offset": 0,
            "slot": "0",
            "type": "t_struct(Set)1472_storage"
          }
        ],
        "numberOfBytes": "64"
      },
      "t_struct(Set)1472_storage": {
        "encoding": "inplace",
        "label": "struct EnumerableSet.Set",
        "members": [
          {
            "astId": 1467,
            "contract": "contracts/Automate.sol:Automate",
            "label": "_values",
            "offset": 0,
            "slot": "0",
            "type": "t_array(t_bytes32)dyn_storage"
          },
          {
            "astId": 1471,
            "contract": "contracts/Automate.sol:Automate",
            "label": "_indexes",
            "offset": 0,
            "slot": "1",
            "type": "t_mapping(t_bytes32,t_uint256)"
          }
        ],
        "numberOfBytes": "64"
      },
      "t_struct(Time)5933_storage": {
        "encoding": "inplace",
        "label": "struct LibDataTypes.Time",
        "members": [
          {
            "astId": 5930,
            "contract": "contracts/Automate.sol:Automate",
            "label": "nextExec",
            "offset": 0,
            "slot": "0",
            "type": "t_uint128"
          },
          {
            "astId": 5932,
            "contract": "contracts/Automate.sol:Automate",
            "label": "interval",
            "offset": 16,
            "slot": "0",
            "type": "t_uint128"
          }
        ],
        "numberOfBytes": "32"
      },
      "t_uint128": {
        "encoding": "inplace",
        "label": "uint128",
        "numberOfBytes": "16"
      },
      "t_uint256": {
        "encoding": "inplace",
        "label": "uint256",
        "numberOfBytes": "32"
      }
    }
  }
}