{
  "address": "0x86B7e611194978F556007ac1F52D09d114D8f160",
  "abi": [
    {
      "inputs": [
        {
          "internalType": "address payable",
          "name": "_gelato",
          "type": "address"
        },
        {
          "internalType": "contract ITaskTreasuryUpgradable",
          "name": "_taskTreasury",
          "type": "address"
        }
      ],
      "stateMutability": "nonpayable",
      "type": "constructor"
    },
    {
      "anonymous": false,
      "inputs": [
        {
          "indexed": true,
          "internalType": "uint256",
          "name": "txFee",
          "type": "uint256"
        },
        {
          "indexed": true,
          "internalType": "address",
          "name": "feeToken",
          "type": "address"
        },
        {
          "indexed": true,
          "internalType": "address",
          "name": "execAddress",
          "type": "address"
        },
        {
          "indexed": false,
          "internalType": "bytes",
          "name": "execData",
          "type": "bytes"
        },
        {
          "indexed": false,
          "internalType": "bytes32",
          "name": "taskId",
          "type": "bytes32"
        },
        {
          "indexed": false,
          "internalType": "bool",
          "name": "callSuccess",
          "type": "bool"
        }
      ],
      "name": "ExecSuccess",
      "type": "event"
    },
    {
      "anonymous": false,
      "inputs": [
        {
          "indexed": false,
          "internalType": "bytes32",
          "name": "taskId",
          "type": "bytes32"
        },
        {
          "indexed": false,
          "internalType": "address",
          "name": "taskCreator",
          "type": "address"
        }
      ],
      "name": "TaskCancelled",
      "type": "event"
    },
    {
      "anonymous": false,
      "inputs": [
        {
          "indexed": false,
          "internalType": "address",
          "name": "taskCreator",
          "type": "address"
        },
        {
          "indexed": false,
          "internalType": "address",
          "name": "execAddress",
          "type": "address"
        },
        {
          "indexed": false,
          "internalType": "bytes4",
          "name": "selector",
          "type": "bytes4"
        },
        {
          "indexed": false,
          "internalType": "address",
          "name": "resolverAddress",
          "type": "address"
        },
        {
          "indexed": false,
          "internalType": "bytes32",
          "name": "taskId",
          "type": "bytes32"
        },
        {
          "indexed": false,
          "internalType": "bytes",
          "name": "resolverData",
          "type": "bytes"
        },
        {
          "indexed": false,
          "internalType": "bool",
          "name": "useTaskTreasuryFunds",
          "type": "bool"
        },
        {
          "indexed": false,
          "internalType": "address",
          "name": "feeToken",
          "type": "address"
        },
        {
          "indexed": false,
          "internalType": "bytes32",
          "name": "resolverHash",
          "type": "bytes32"
        }
      ],
      "name": "TaskCreated",
      "type": "event"
    },
    {
      "anonymous": false,
      "inputs": [
        {
          "indexed": true,
          "internalType": "bytes32",
          "name": "taskId",
          "type": "bytes32"
        },
        {
          "indexed": true,
          "internalType": "uint128",
          "name": "nextExec",
          "type": "uint128"
        },
        {
          "indexed": true,
          "internalType": "uint128",
          "name": "interval",
          "type": "uint128"
        }
      ],
      "name": "TimerSet",
      "type": "event"
    },
    {
      "inputs": [
        {
          "internalType": "bytes32",
          "name": "_taskId",
          "type": "bytes32"
        }
      ],
      "name": "cancelTask",
      "outputs": [],
      "stateMutability": "nonpayable",
      "type": "function"
    },
    {
      "inputs": [
        {
          "internalType": "address",
          "name": "_execAddress",
          "type": "address"
        },
        {
          "internalType": "bytes4",
          "name": "_execSelector",
          "type": "bytes4"
        },
        {
          "internalType": "address",
          "name": "_resolverAddress",
          "type": "address"
        },
        {
          "internalType": "bytes",
          "name": "_resolverData",
          "type": "bytes"
        }
      ],
      "name": "createTask",
      "outputs": [
        {
          "internalType": "bytes32",
          "name": "task",
          "type": "bytes32"
        }
      ],
      "stateMutability": "nonpayable",
      "type": "function"
    },
    {
      "inputs": [
        {
          "internalType": "address",
          "name": "_execAddress",
          "type": "address"
        },
        {
          "internalType": "bytes4",
          "name": "_execSelector",
          "type": "bytes4"
        },
        {
          "internalType": "address",
          "name": "_resolverAddress",
          "type": "address"
        },
        {
          "internalType": "bytes",
          "name": "_resolverData",
          "type": "bytes"
        },
        {
          "internalType": "address",
          "name": "_feeToken",
          "type": "address"
        }
      ],
      "name": "createTaskNoPrepayment",
      "outputs": [
        {
          "internalType": "bytes32",
          "name": "task",
          "type": "bytes32"
        }
      ],
      "stateMutability": "nonpayable",
      "type": "function"
    },
    {
      "inputs": [
        {
          "internalType": "uint128",
          "name": "_startTime",
          "type": "uint128"
        },
        {
          "internalType": "uint128",
          "name": "_interval",
          "type": "uint128"
        },
        {
          "internalType": "address",
          "name": "_execAddress",
          "type": "address"
        },
        {
          "internalType": "bytes4",
          "name": "_execSelector",
          "type": "bytes4"
        },
        {
          "internalType": "address",
          "name": "_resolverAddress",
          "type": "address"
        },
        {
          "internalType": "bytes",
          "name": "_resolverData",
          "type": "bytes"
        },
        {
          "internalType": "address",
          "name": "_feeToken",
          "type": "address"
        },
        {
          "internalType": "bool",
          "name": "_useTreasury",
          "type": "bool"
        }
      ],
      "name": "createTimedTask",
      "outputs": [
        {
          "internalType": "bytes32",
          "name": "task",
          "type": "bytes32"
        }
      ],
      "stateMutability": "nonpayable",
      "type": "function"
    },
    {
      "inputs": [
        {
          "internalType": "uint256",
          "name": "_txFee",
          "type": "uint256"
        },
        {
          "internalType": "address",
          "name": "_feeToken",
          "type": "address"
        },
        {
          "internalType": "address",
          "name": "_taskCreator",
          "type": "address"
        },
        {
          "internalType": "bool",
          "name": "_useTaskTreasuryFunds",
          "type": "bool"
        },
        {
          "internalType": "bool",
          "name": "_revertOnFailure",
          "type": "bool"
        },
        {
          "internalType": "bytes32",
          "name": "_resolverHash",
          "type": "bytes32"
        },
        {
          "internalType": "address",
          "name": "_execAddress",
          "type": "address"
        },
        {
          "internalType": "bytes",
          "name": "_execData",
          "type": "bytes"
        }
      ],
      "name": "exec",
      "outputs": [],
      "stateMutability": "nonpayable",
      "type": "function"
    },
    {
      "inputs": [
        {
          "internalType": "bytes32",
          "name": "",
          "type": "bytes32"
        }
      ],
      "name": "execAddresses",
      "outputs": [
        {
          "internalType": "address",
          "name": "",
          "type": "address"
        }
      ],
      "stateMutability": "view",
      "type": "function"
    },
    {
      "inputs": [],
      "name": "fee",
      "outputs": [
        {
          "internalType": "uint256",
          "name": "",
          "type": "uint256"
        }
      ],
      "stateMutability": "view",
      "type": "function"
    },
    {
      "inputs": [],
      "name": "feeToken",
      "outputs": [
        {
          "internalType": "address",
          "name": "",
          "type": "address"
        }
      ],
      "stateMutability": "view",
      "type": "function"
    },
    {
      "inputs": [],
      "name": "gelato",
      "outputs": [
        {
          "internalType": "address payable",
          "name": "",
          "type": "address"
        }
      ],
      "stateMutability": "view",
      "type": "function"
    },
    {
      "inputs": [],
      "name": "getFeeDetails",
      "outputs": [
        {
          "internalType": "uint256",
          "name": "",
          "type": "uint256"
        },
        {
          "internalType": "address",
          "name": "",
          "type": "address"
        }
      ],
      "stateMutability": "view",
      "type": "function"
    },
    {
      "inputs": [
        {
          "internalType": "address",
          "name": "_resolverAddress",
          "type": "address"
        },
        {
          "internalType": "bytes",
          "name": "_resolverData",
          "type": "bytes"
        }
      ],
      "name": "getResolverHash",
      "outputs": [
        {
          "internalType": "bytes32",
          "name": "",
          "type": "bytes32"
        }
      ],
      "stateMutability": "pure",
      "type": "function"
    },
    {
      "inputs": [
        {
          "internalType": "string",
          "name": "_func",
          "type": "string"
        }
      ],
      "name": "getSelector",
      "outputs": [
        {
          "internalType": "bytes4",
          "name": "",
          "type": "bytes4"
        }
      ],
      "stateMutability": "pure",
      "type": "function"
    },
    {
      "inputs": [
        {
          "internalType": "address",
          "name": "_taskCreator",
          "type": "address"
        },
        {
          "internalType": "address",
          "name": "_execAddress",
          "type": "address"
        },
        {
          "internalType": "bytes4",
          "name": "_selector",
          "type": "bytes4"
        },
        {
          "internalType": "bool",
          "name": "_useTaskTreasuryFunds",
          "type": "bool"
        },
        {
          "internalType": "address",
          "name": "_feeToken",
          "type": "address"
        },
        {
          "internalType": "bytes32",
          "name": "_resolverHash",
          "type": "bytes32"
        }
      ],
      "name": "getTaskId",
      "outputs": [
        {
          "internalType": "bytes32",
          "name": "",
          "type": "bytes32"
        }
      ],
      "stateMutability": "pure",
      "type": "function"
    },
    {
      "inputs": [
        {
          "internalType": "address",
          "name": "_taskCreator",
          "type": "address"
        }
      ],
      "name": "getTaskIdsByUser",
      "outputs": [
        {
          "internalType": "bytes32[]",
          "name": "",
          "type": "bytes32[]"
        }
      ],
      "stateMutability": "view",
      "type": "function"
    },
    {
      "inputs": [
        {
          "internalType": "bytes32",
          "name": "",
          "type": "bytes32"
        }
      ],
      "name": "taskCreator",
      "outputs": [
        {
          "internalType": "address",
          "name": "",
          "type": "address"
        }
      ],
      "stateMutability": "view",
      "type": "function"
    },
    {
      "inputs": [],
      "name": "taskTreasury",
      "outputs": [
        {
          "internalType": "contract ITaskTreasuryUpgradable",
          "name": "",
          "type": "address"
        }
      ],
      "stateMutability": "view",
      "type": "function"
    },
    {
      "inputs": [
        {
          "internalType": "bytes32",
          "name": "",
          "type": "bytes32"
        }
      ],
      "name": "timedTask",
      "outputs": [
        {
          "internalType": "uint128",
          "name": "nextExec",
          "type": "uint128"
        },
        {
          "internalType": "uint128",
          "name": "interval",
          "type": "uint128"
        }
      ],
      "stateMutability": "view",
      "type": "function"
    },
    {
      "inputs": [],
      "name": "version",
      "outputs": [
        {
          "internalType": "string",
          "name": "",
          "type": "string"
        }
      ],
      "stateMutability": "view",
      "type": "function"
    }
  ],
  "transactionHash": "0x749f1df0c5ac0c7cad60710a7ff48acdfc37e9a3df76974269794c0718442bb8",
  "args": [
    "0xDf592cB2d32445F8e831d211AB20D3233cA41bD8",
    "0x340759c8346A1E6Ed92035FB8B6ec57cE1D82c2c"
  ],
  "numDeployments": 1,
  "solcInputHash": "07324167f4bf468b271334a7271a4559",
  "bytecode": "0x60c06040523480156200001157600080fd5b50604051620031563803806200315683398181016040528101906200003791906200016c565b818073ffffffffffffffffffffffffffffffffffffffff1660808173ffffffffffffffffffffffffffffffffffffffff1681525050508073ffffffffffffffffffffffffffffffffffffffff1660a08173ffffffffffffffffffffffffffffffffffffffff16815250505050620001b3565b600080fd5b600073ffffffffffffffffffffffffffffffffffffffff82169050919050565b6000620000db82620000ae565b9050919050565b620000ed81620000ce565b8114620000f957600080fd5b50565b6000815190506200010d81620000e2565b92915050565b60006200012082620000ae565b9050919050565b6000620001348262000113565b9050919050565b620001468162000127565b81146200015257600080fd5b50565b60008151905062000166816200013b565b92915050565b60008060408385031215620001865762000185620000a9565b5b60006200019685828601620000fc565b9250506020620001a98582860162000155565b9150509250929050565b60805160a051612f6f620001e76000396000818161079b015261115801526000818161051e01526109410152612f6f6000f3fe608060405234801561001057600080fd5b50600436106101165760003560e01c80638b92696a116100a2578063b9f45adb11610071578063b9f45adb14610331578063cabcb34914610361578063ddca3f4314610391578063e60a3213146103af578063ee8ca3b5146103cd57610116565b80638b92696a14610281578063a8738825146102b1578063b810c636146102e1578063b81cd8661461030057610116565b8063573ea575116100e9578063573ea575146101b5578063647846a5146101d35780636d2dd29f146101f15780637b4e45e91461022157806380a003ff1461025157610116565b80630407145c1461011b5780630ea65a631461014b5780632e6e0bd01461016757806354fd4d5014610197575b600080fd5b61013560048036038101906101309190611bcb565b6103e9565b6040516101429190611cc0565b60405180910390f35b61016560048036038101906101609190611de1565b61051c565b005b610181600480360381019061017c9190611eb7565b6108d3565b60405161018e9190611ef3565b60405180910390f35b61019f610906565b6040516101ac9190611fa7565b60405180910390f35b6101bd61093f565b6040516101ca9190611fea565b60405180910390f35b6101db610963565b6040516101e89190611ef3565b60405180910390f35b61020b60048036038101906102069190611eb7565b610989565b6040516102189190611ef3565b60405180910390f35b61023b6004803603810190610236919061205d565b6109bc565b60405161024891906120f9565b60405180910390f35b61026b6004803603810190610266919061216a565b6109fb565b60405161027891906121c6565b60405180910390f35b61029b600480360381019061029691906121e1565b610a1d565b6040516102a891906120f9565b60405180910390f35b6102cb60048036038101906102c691906122b1565b610c6d565b6040516102d891906120f9565b60405180910390f35b6102e9610e41565b6040516102f7929190612396565b60405180910390f35b61031a60048036038101906103159190611eb7565b610e72565b6040516103289291906123ce565b60405180910390f35b61034b600480360381019061034691906123f7565b610ece565b60405161035891906120f9565b60405180910390f35b61037b600480360381019061037691906125c1565b61111d565b60405161038891906120f9565b60405180910390f35b610399611150565b6040516103a6919061261d565b60405180910390f35b6103b7611156565b6040516103c49190612697565b60405180910390f35b6103e760048036038101906103e29190611eb7565b61117a565b005b60606000610434600260008573ffffffffffffffffffffffffffffffffffffffff1673ffffffffffffffffffffffffffffffffffffffff16815260200190815260200160002061145a565b905060008167ffffffffffffffff81111561045257610451612496565b5b6040519080825280602002602001820160405280156104805781602001602082028036833780820191505090505b50905060005b82811015610511576104df81600260008873ffffffffffffffffffffffffffffffffffffffff1673ffffffffffffffffffffffffffffffffffffffff16815260200190815260200160002061146f90919063ffffffff16565b8282815181106104f2576104f16126b2565b5b602002602001018181525050808061050990612710565b915050610486565b508092505050919050565b7f000000000000000000000000000000000000000000000000000000000000000073ffffffffffffffffffffffffffffffffffffffff163373ffffffffffffffffffffffffffffffffffffffff16146105aa576040517f08c379a00000000000000000000000000000000000000000000000000000000081526004016105a1906127a5565b60405180910390fd5b60006105d088856105bb8686611486565b8a8b6105c7578d6105ca565b60005b8a6109bc565b90508773ffffffffffffffffffffffffffffffffffffffff1660008083815260200190815260200160002060009054906101000a900473ffffffffffffffffffffffffffffffffffffffff1673ffffffffffffffffffffffffffffffffffffffff1614610672576040517f08c379a000000000000000000000000000000000000000000000000000000000815260040161066990612811565b60405180910390fd5b866106c0578960038190555088600460006101000a81548173ffffffffffffffffffffffffffffffffffffffff021916908373ffffffffffffffffffffffffffffffffffffffff1602179055505b6106c9816115fc565b6000808573ffffffffffffffffffffffffffffffffffffffff1685856040516106f3929190612861565b6000604051808303816000865af19150503d8060008114610730576040519150601f19603f3d011682016040523d82523d6000602084013e610735565b606091505b5091509150811580156107455750875b15610793576107926040518060400160405280600981526020017f4f70732e657865633a0000000000000000000000000000000000000000000000815250826117df90919063ffffffff16565b5b881561082d577f000000000000000000000000000000000000000000000000000000000000000073ffffffffffffffffffffffffffffffffffffffff1663a3f1233e8b8d8f6040518463ffffffff1660e01b81526004016107f69392919061287a565b600060405180830381600087803b15801561081057600080fd5b505af1158015610824573d6000803e3d6000fd5b50505050610859565b600360009055600460006101000a81549073ffffffffffffffffffffffffffffffffffffffff02191690555b8573ffffffffffffffffffffffffffffffffffffffff168b73ffffffffffffffffffffffffffffffffffffffff168d7fa458375b1282695a972870cbfbc4891a9d856b79d563d17667d171d87e0c527a888888886040516108bd94939291906128fe565b60405180910390a4505050505050505050505050565b60006020528060005260406000206000915054906101000a900473ffffffffffffffffffffffffffffffffffffffff1681565b6040518060400160405280600181526020017f340000000000000000000000000000000000000000000000000000000000000081525081565b7f000000000000000000000000000000000000000000000000000000000000000081565b600460009054906101000a900473ffffffffffffffffffffffffffffffffffffffff1681565b60016020528060005260406000206000915054906101000a900473ffffffffffffffffffffffffffffffffffffffff1681565b60008686868686866040516020016109d99695949392919061293e565b6040516020818303038152906040528051906020012090509695505050505050565b60008282604051610a0d929190612861565b6040518091039020905092915050565b600080610a6e8585858080601f016020809104026020016040519081016040528093929190818152602001838380828437600081840152601f19601f8201169050808301925050505050505061111d565b9050610a8033888860016000866109bc565b9150600073ffffffffffffffffffffffffffffffffffffffff1660008084815260200190815260200160002060009054906101000a900473ffffffffffffffffffffffffffffffffffffffff1673ffffffffffffffffffffffffffffffffffffffff1614610b23576040517f08c379a0000000000000000000000000000000000000000000000000000000008152600401610b1a90612a11565b60405180910390fd5b610b7482600260003373ffffffffffffffffffffffffffffffffffffffff1673ffffffffffffffffffffffffffffffffffffffff16815260200190815260200160002061194890919063ffffffff16565b503360008084815260200190815260200160002060006101000a81548173ffffffffffffffffffffffffffffffffffffffff021916908373ffffffffffffffffffffffffffffffffffffffff160217905550866001600084815260200190815260200160002060006101000a81548173ffffffffffffffffffffffffffffffffffffffff021916908373ffffffffffffffffffffffffffffffffffffffff1602179055507fcfd64545826fbe236e660141349bd1ed0b30c9bec7e213894afd7745a1f76f3333888888868989600160008a604051610c5b9a99989796959493929190612a31565b60405180910390a15095945050505050565b600080896fffffffffffffffffffffffffffffffff1611610cc3576040517f08c379a0000000000000000000000000000000000000000000000000000000008152600401610cba90612b39565b60405180910390fd5b8115610cdd57610cd68888888888610a1d565b9050610cee565b610ceb888888888888610ece565b90505b6000428b6fffffffffffffffffffffffffffffffff1611610d0f5742610d11565b8a5b90506040518060400160405280826fffffffffffffffffffffffffffffffff1681526020018b6fffffffffffffffffffffffffffffffff168152506005600084815260200190815260200160002060008201518160000160006101000a8154816fffffffffffffffffffffffffffffffff02191690836fffffffffffffffffffffffffffffffff16021790555060208201518160000160106101000a8154816fffffffffffffffffffffffffffffffff02191690836fffffffffffffffffffffffffffffffff160217905550905050896fffffffffffffffffffffffffffffffff16816fffffffffffffffffffffffffffffffff16837f857791ec95701b6fff966bff1b5ce9a86107aeabaf6d2fdfd89993aa0f084e3760405160405180910390a4509998505050505050505050565b600080600354600460009054906101000a900473ffffffffffffffffffffffffffffffffffffffff16915091509091565b60056020528060005260406000206000915090508060000160009054906101000a90046fffffffffffffffffffffffffffffffff16908060000160109054906101000a90046fffffffffffffffffffffffffffffffff16905082565b600080610f1f8686868080601f016020809104026020016040519081016040528093929190818152602001838380828437600081840152601f19601f8201169050808301925050505050505061111d565b9050610f30338989600087866109bc565b9150600073ffffffffffffffffffffffffffffffffffffffff1660008084815260200190815260200160002060009054906101000a900473ffffffffffffffffffffffffffffffffffffffff1673ffffffffffffffffffffffffffffffffffffffff1614610fd3576040517f08c379a0000000000000000000000000000000000000000000000000000000008152600401610fca90612a11565b60405180910390fd5b61102482600260003373ffffffffffffffffffffffffffffffffffffffff1673ffffffffffffffffffffffffffffffffffffffff16815260200190815260200160002061194890919063ffffffff16565b503360008084815260200190815260200160002060006101000a81548173ffffffffffffffffffffffffffffffffffffffff021916908373ffffffffffffffffffffffffffffffffffffffff160217905550876001600084815260200190815260200160002060006101000a81548173ffffffffffffffffffffffffffffffffffffffff021916908373ffffffffffffffffffffffffffffffffffffffff1602179055507fcfd64545826fbe236e660141349bd1ed0b30c9bec7e213894afd7745a1f76f3333898989868a8a60008b8a60405161110a9a99989796959493929190612a31565b60405180910390a1509695505050505050565b60008282604051602001611132929190612b9d565b60405160208183030381529060405280519060200120905092915050565b60035481565b7f000000000000000000000000000000000000000000000000000000000000000081565b3373ffffffffffffffffffffffffffffffffffffffff1660008083815260200190815260200160002060009054906101000a900473ffffffffffffffffffffffffffffffffffffffff1673ffffffffffffffffffffffffffffffffffffffff161461121a576040517f08c379a000000000000000000000000000000000000000000000000000000000815260040161121190612c3f565b60405180910390fd5b61126b81600260003373ffffffffffffffffffffffffffffffffffffffff1673ffffffffffffffffffffffffffffffffffffffff16815260200190815260200160002061195f90919063ffffffff16565b5060008082815260200190815260200160002060006101000a81549073ffffffffffffffffffffffffffffffffffffffff02191690556001600082815260200190815260200160002060006101000a81549073ffffffffffffffffffffffffffffffffffffffff02191690556000600560008381526020019081526020016000206040518060400160405290816000820160009054906101000a90046fffffffffffffffffffffffffffffffff166fffffffffffffffffffffffffffffffff166fffffffffffffffffffffffffffffffff1681526020016000820160109054906101000a90046fffffffffffffffffffffffffffffffff166fffffffffffffffffffffffffffffffff166fffffffffffffffffffffffffffffffff1681525050905060008082600001516fffffffffffffffffffffffffffffffff1614156113b45760006113b7565b60015b9050801561141c5760056000848152602001908152602001600020600080820160006101000a8154906fffffffffffffffffffffffffffffffff02191690556000820160106101000a8154906fffffffffffffffffffffffffffffffff021916905550505b7f44d83729a43f9c6046446df014d073dd242e0ad672071e9b292f31b669c25b09833360405161144d929190612c5f565b60405180910390a1505050565b600061146882600001611976565b9050919050565b600061147e8360000183611987565b905092915050565b600060188383600381811061149e5761149d6126b2565b5b9050013560f81c60f81b7effffffffffffffffffffffffffffffffffffffffffffffffffffffffffffff19167bffffffffffffffffffffffffffffffffffffffffffffffffffffffff1916901c601084846002818110611501576115006126b2565b5b9050013560f81c60f81b7effffffffffffffffffffffffffffffffffffffffffffffffffffffffffffff19167bffffffffffffffffffffffffffffffffffffffffffffffffffffffff1916901c600885856001818110611564576115636126b2565b5b9050013560f81c60f81b7effffffffffffffffffffffffffffffffffffffffffffffffffffffffffffff19167bffffffffffffffffffffffffffffffffffffffffffffffffffffffff1916901c858560008181106115c5576115c46126b2565b5b9050013560f81c60f81b7effffffffffffffffffffffffffffffffffffffffffffffffffffffffffffff1916171717905092915050565b60006005600083815260200190815260200160002090506000808260000160009054906101000a90046fffffffffffffffffffffffffffffffff166fffffffffffffffffffffffffffffffff161415611656576000611659565b60015b905080156117da57426fffffffffffffffffffffffffffffffff168260000160009054906101000a90046fffffffffffffffffffffffffffffffff166fffffffffffffffffffffffffffffffff1611156116e8576040517f08c379a00000000000000000000000000000000000000000000000000000000081526004016116df90612cd4565b60405180910390fd5b60008260000160109054906101000a90046fffffffffffffffffffffffffffffffff168360000160009054906101000a90046fffffffffffffffffffffffffffffffff166117369190612cf4565b905060004290505b816fffffffffffffffffffffffffffffffff16816fffffffffffffffffffffffffffffffff161061179c578360000160109054906101000a90046fffffffffffffffffffffffffffffffff16826117959190612cf4565b915061173e565b818460000160006101000a8154816fffffffffffffffffffffffffffffffff02191690836fffffffffffffffffffffffffffffffff16021790555050505b505050565b6004602083516117ef9190612d69565b14156118ec576000826020015190506308c379a060e01b817bffffffffffffffffffffffffffffffffffffffffffffffffffffffff19161415611890576044830192508183604051602001611845929190612dd6565b6040516020818303038152906040526040517f08c379a00000000000000000000000000000000000000000000000000000000081526004016118879190611fa7565b60405180910390fd5b816040516020016118a19190612e46565b6040516020818303038152906040526040517f08c379a00000000000000000000000000000000000000000000000000000000081526004016118e39190611fa7565b60405180910390fd5b806040516020016118fd9190612eb4565b6040516020818303038152906040526040517f08c379a000000000000000000000000000000000000000000000000000000000815260040161193f9190611fa7565b60405180910390fd5b600061195783600001836119b2565b905092915050565b600061196e8360000183611a22565b905092915050565b600081600001805490509050919050565b600082600001828154811061199f5761199e6126b2565b5b9060005260206000200154905092915050565b60006119be8383611b36565b611a17578260000182908060018154018082558091505060019003906000526020600020016000909190919091505582600001805490508360010160008481526020019081526020016000208190555060019050611a1c565b600090505b92915050565b60008083600101600084815260200190815260200160002054905060008114611b2a576000600182611a549190612ed6565b9050600060018660000180549050611a6c9190612ed6565b9050818114611adb576000866000018281548110611a8d57611a8c6126b2565b5b9060005260206000200154905080876000018481548110611ab157611ab06126b2565b5b90600052602060002001819055508387600101600083815260200190815260200160002081905550505b85600001805480611aef57611aee612f0a565b5b600190038181906000526020600020016000905590558560010160008681526020019081526020016000206000905560019350505050611b30565b60009150505b92915050565b600080836001016000848152602001908152602001600020541415905092915050565b6000604051905090565b600080fd5b600080fd5b600073ffffffffffffffffffffffffffffffffffffffff82169050919050565b6000611b9882611b6d565b9050919050565b611ba881611b8d565b8114611bb357600080fd5b50565b600081359050611bc581611b9f565b92915050565b600060208284031215611be157611be0611b63565b5b6000611bef84828501611bb6565b91505092915050565b600081519050919050565b600082825260208201905092915050565b6000819050602082019050919050565b6000819050919050565b611c3781611c24565b82525050565b6000611c498383611c2e565b60208301905092915050565b6000602082019050919050565b6000611c6d82611bf8565b611c778185611c03565b9350611c8283611c14565b8060005b83811015611cb3578151611c9a8882611c3d565b9750611ca583611c55565b925050600181019050611c86565b5085935050505092915050565b60006020820190508181036000830152611cda8184611c62565b905092915050565b6000819050919050565b611cf581611ce2565b8114611d0057600080fd5b50565b600081359050611d1281611cec565b92915050565b60008115159050919050565b611d2d81611d18565b8114611d3857600080fd5b50565b600081359050611d4a81611d24565b92915050565b611d5981611c24565b8114611d6457600080fd5b50565b600081359050611d7681611d50565b92915050565b600080fd5b600080fd5b600080fd5b60008083601f840112611da157611da0611d7c565b5b8235905067ffffffffffffffff811115611dbe57611dbd611d81565b5b602083019150836001820283011115611dda57611dd9611d86565b5b9250929050565b60008060008060008060008060006101008a8c031215611e0457611e03611b63565b5b6000611e128c828d01611d03565b9950506020611e238c828d01611bb6565b9850506040611e348c828d01611bb6565b9750506060611e458c828d01611d3b565b9650506080611e568c828d01611d3b565b95505060a0611e678c828d01611d67565b94505060c0611e788c828d01611bb6565b93505060e08a013567ffffffffffffffff811115611e9957611e98611b68565b5b611ea58c828d01611d8b565b92509250509295985092959850929598565b600060208284031215611ecd57611ecc611b63565b5b6000611edb84828501611d67565b91505092915050565b611eed81611b8d565b82525050565b6000602082019050611f086000830184611ee4565b92915050565b600081519050919050565b600082825260208201905092915050565b60005b83811015611f48578082015181840152602081019050611f2d565b83811115611f57576000848401525b50505050565b6000601f19601f8301169050919050565b6000611f7982611f0e565b611f838185611f19565b9350611f93818560208601611f2a565b611f9c81611f5d565b840191505092915050565b60006020820190508181036000830152611fc18184611f6e565b905092915050565b6000611fd482611b6d565b9050919050565b611fe481611fc9565b82525050565b6000602082019050611fff6000830184611fdb565b92915050565b60007fffffffff0000000000000000000000000000000000000000000000000000000082169050919050565b61203a81612005565b811461204557600080fd5b50565b60008135905061205781612031565b92915050565b60008060008060008060c0878903121561207a57612079611b63565b5b600061208889828a01611bb6565b965050602061209989828a01611bb6565b95505060406120aa89828a01612048565b94505060606120bb89828a01611d3b565b93505060806120cc89828a01611bb6565b92505060a06120dd89828a01611d67565b9150509295509295509295565b6120f381611c24565b82525050565b600060208201905061210e60008301846120ea565b92915050565b60008083601f84011261212a57612129611d7c565b5b8235905067ffffffffffffffff81111561214757612146611d81565b5b60208301915083600182028301111561216357612162611d86565b5b9250929050565b6000806020838503121561218157612180611b63565b5b600083013567ffffffffffffffff81111561219f5761219e611b68565b5b6121ab85828601612114565b92509250509250929050565b6121c081612005565b82525050565b60006020820190506121db60008301846121b7565b92915050565b6000806000806000608086880312156121fd576121fc611b63565b5b600061220b88828901611bb6565b955050602061221c88828901612048565b945050604061222d88828901611bb6565b935050606086013567ffffffffffffffff81111561224e5761224d611b68565b5b61225a88828901611d8b565b92509250509295509295909350565b60006fffffffffffffffffffffffffffffffff82169050919050565b61228e81612269565b811461229957600080fd5b50565b6000813590506122ab81612285565b92915050565b60008060008060008060008060006101008a8c0312156122d4576122d3611b63565b5b60006122e28c828d0161229c565b99505060206122f38c828d0161229c565b98505060406123048c828d01611bb6565b97505060606123158c828d01612048565b96505060806123268c828d01611bb6565b95505060a08a013567ffffffffffffffff81111561234757612346611b68565b5b6123538c828d01611d8b565b945094505060c06123668c828d01611bb6565b92505060e06123778c828d01611d3b565b9150509295985092959850929598565b61239081611ce2565b82525050565b60006040820190506123ab6000830185612387565b6123b86020830184611ee4565b9392505050565b6123c881612269565b82525050565b60006040820190506123e360008301856123bf565b6123f060208301846123bf565b9392505050565b60008060008060008060a0878903121561241457612413611b63565b5b600061242289828a01611bb6565b965050602061243389828a01612048565b955050604061244489828a01611bb6565b945050606087013567ffffffffffffffff81111561246557612464611b68565b5b61247189828a01611d8b565b9350935050608061248489828a01611bb6565b9150509295509295509295565b600080fd5b7f4e487b7100000000000000000000000000000000000000000000000000000000600052604160045260246000fd5b6124ce82611f5d565b810181811067ffffffffffffffff821117156124ed576124ec612496565b5b80604052505050565b6000612500611b59565b905061250c82826124c5565b919050565b600067ffffffffffffffff82111561252c5761252b612496565b5b61253582611f5d565b9050602081019050919050565b82818337600083830152505050565b600061256461255f84612511565b6124f6565b9050828152602081018484840111156125805761257f612491565b5b61258b848285612542565b509392505050565b600082601f8301126125a8576125a7611d7c565b5b81356125b8848260208601612551565b91505092915050565b600080604083850312156125d8576125d7611b63565b5b60006125e685828601611bb6565b925050602083013567ffffffffffffffff81111561260757612606611b68565b5b61261385828601612593565b9150509250929050565b60006020820190506126326000830184612387565b92915050565b6000819050919050565b600061265d61265861265384611b6d565b612638565b611b6d565b9050919050565b600061266f82612642565b9050919050565b600061268182612664565b9050919050565b61269181612676565b82525050565b60006020820190506126ac6000830184612688565b92915050565b7f4e487b7100000000000000000000000000000000000000000000000000000000600052603260045260246000fd5b7f4e487b7100000000000000000000000000000000000000000000000000000000600052601160045260246000fd5b600061271b82611ce2565b91507fffffffffffffffffffffffffffffffffffffffffffffffffffffffffffffffff82141561274e5761274d6126e1565b5b600182019050919050565b7f47656c61746f666965643a204f6e6c792067656c61746f000000000000000000600082015250565b600061278f601783611f19565b915061279a82612759565b602082019050919050565b600060208201905081810360008301526127be81612782565b9050919050565b7f4f70733a20657865633a204e6f207461736b20666f756e640000000000000000600082015250565b60006127fb601883611f19565b9150612806826127c5565b602082019050919050565b6000602082019050818103600083015261282a816127ee565b9050919050565b600081905092915050565b60006128488385612831565b9350612855838584612542565b82840190509392505050565b600061286e82848661283c565b91508190509392505050565b600060608201905061288f6000830186611ee4565b61289c6020830185611ee4565b6128a96040830184612387565b949350505050565b600082825260208201905092915050565b60006128ce83856128b1565b93506128db838584612542565b6128e483611f5d565b840190509392505050565b6128f881611d18565b82525050565b600060608201905081810360008301526129198186886128c2565b905061292860208301856120ea565b61293560408301846128ef565b95945050505050565b600060c0820190506129536000830189611ee4565b6129606020830188611ee4565b61296d60408301876121b7565b61297a60608301866128ef565b6129876080830185611ee4565b61299460a08301846120ea565b979650505050505050565b7f4f70733a206372656174655461736b3a2053656e64657220616c72656164792060008201527f73746172746564207461736b0000000000000000000000000000000000000000602082015250565b60006129fb602c83611f19565b9150612a068261299f565b604082019050919050565b60006020820190508181036000830152612a2a816129ee565b9050919050565b600061012082019050612a47600083018d611ee4565b612a54602083018c611ee4565b612a61604083018b6121b7565b612a6e606083018a611ee4565b612a7b60808301896120ea565b81810360a0830152612a8e8187896128c2565b9050612a9d60c08301866128ef565b612aaa60e0830185611ee4565b612ab86101008301846120ea565b9b9a5050505050505050505050565b7f4f70733a2063726561746554696d65645461736b3a20696e74657276616c206360008201527f616e6e6f74206265203000000000000000000000000000000000000000000000602082015250565b6000612b23602a83611f19565b9150612b2e82612ac7565b604082019050919050565b60006020820190508181036000830152612b5281612b16565b9050919050565b600081519050919050565b6000612b6f82612b59565b612b7981856128b1565b9350612b89818560208601611f2a565b612b9281611f5d565b840191505092915050565b6000604082019050612bb26000830185611ee4565b8181036020830152612bc48184612b64565b90509392505050565b7f4f70733a2063616e63656c5461736b3a2053656e64657220646964206e6f742060008201527f7374617274207461736b20796574000000000000000000000000000000000000602082015250565b6000612c29602e83611f19565b9150612c3482612bcd565b604082019050919050565b60006020820190508181036000830152612c5881612c1c565b9050919050565b6000604082019050612c7460008301856120ea565b612c816020830184611ee4565b9392505050565b7f4f70733a20657865633a20546f6f206561726c79000000000000000000000000600082015250565b6000612cbe601483611f19565b9150612cc982612c88565b602082019050919050565b60006020820190508181036000830152612ced81612cb1565b9050919050565b6000612cff82612269565b9150612d0a83612269565b9250826fffffffffffffffffffffffffffffffff03821115612d2f57612d2e6126e1565b5b828201905092915050565b7f4e487b7100000000000000000000000000000000000000000000000000000000600052601260045260246000fd5b6000612d7482611ce2565b9150612d7f83611ce2565b925082612d8f57612d8e612d3a565b5b828206905092915050565b600081905092915050565b6000612db082611f0e565b612dba8185612d9a565b9350612dca818560208601611f2a565b80840191505092915050565b6000612de28285612da5565b9150612dee8284612da5565b91508190509392505050565b7f4e6f4572726f7253656c6563746f720000000000000000000000000000000000600082015250565b6000612e30600f83612d9a565b9150612e3b82612dfa565b600f82019050919050565b6000612e528284612da5565b9150612e5d82612e23565b915081905092915050565b7f556e657870656374656452657475726e64617461000000000000000000000000600082015250565b6000612e9e601483612d9a565b9150612ea982612e68565b601482019050919050565b6000612ec08284612da5565b9150612ecb82612e91565b915081905092915050565b6000612ee182611ce2565b9150612eec83611ce2565b925082821015612eff57612efe6126e1565b5b828203905092915050565b7f4e487b7100000000000000000000000000000000000000000000000000000000600052603160045260246000fdfea26469706673582212203ecf88645d63a5e4d09d50d759f0b555fe719d0b2b2ca0e2b5c0ab1a605c666d64736f6c634300080c0033",
  "devdoc": {
    "kind": "dev",
    "methods": {
      "cancelTask(bytes32)": {
        "params": {
          "_taskId": "The hash of the task, can be computed using getTaskId()"
        }
      },
      "createTask(address,bytes4,address,bytes)": {
        "details": "Requires funds to be added in Task Treasury, assumes treasury sends fee to Gelato via Ops",
        "params": {
          "_execAddress": "On which contract should Gelato execute the transactions",
          "_execSelector": "Which function Gelato should eecute on the _execAddress",
          "_resolverAddress": "On which contract should Gelato check when to execute the tx",
          "_resolverData": "Which data should be used to check on the Resolver when to execute the tx"
        }
      },
      "createTaskNoPrepayment(address,bytes4,address,bytes,address)": {
        "details": "Requires no funds to be added in Task Treasury, assumes tasks sends fee to Gelato directly",
        "params": {
          "_execAddress": "On which contract should Gelato execute the transactions",
          "_execSelector": "Which function Gelato should eecute on the _execAddress",
          "_feeToken": "Which token to use as fee payment",
          "_resolverAddress": "On which contract should Gelato check when to execute the tx",
          "_resolverData": "Which data should be used to check on the Resolver when to execute the tx"
        }
      },
      "createTimedTask(uint128,uint128,address,bytes4,address,bytes,address,bool)": {
        "params": {
          "_execAddress": "On which contract should Gelato execute the transactions",
          "_execSelector": "Which function Gelato should eecute on the _execAddress",
          "_feeToken": "Which token to use as fee payment",
          "_interval": "After how many seconds should each task be executed",
          "_resolverAddress": "On which contract should Gelato check when to execute the tx",
          "_resolverData": "Which data should be used to check on the Resolver when to execute the tx",
          "_startTime": "Timestamp when the first task should become executable. 0 for right now",
          "_useTreasury": "True if Gelato should charge fees from TaskTreasury, false if not"
        }
      },
      "exec(uint256,address,address,bool,bool,bytes32,address,bytes)": {
        "params": {
          "_execAddress": "On which contract should Gelato execute the tx",
          "_execData": "Data used to execute the tx, queried from the Resolver by Gelato",
          "_feeToken": "Token used to pay for the execution. ETH = 0xeeeeee...",
          "_revertOnFailure": "To revert or not if call to execAddress fails",
          "_taskCreator": "On which contract should Gelato check when to execute the tx",
          "_txFee": "Fee paid to Gelato for execution, deducted on the TaskTreasury",
          "_useTaskTreasuryFunds": "If msg.sender's balance on TaskTreasury should pay for the tx"
        }
      },
      "getResolverHash(address,bytes)": {
        "params": {
          "_resolverAddress": "Address of resolver",
          "_resolverData": "Data passed to resolver"
        }
      },
      "getSelector(string)": {
        "details": "Example: \"transferFrom(address,address,uint256)\" => 0x23b872dd",
        "params": {
          "_func": "String of the function you want the selector from"
        }
      },
      "getTaskId(address,address,bytes4,bool,address,bytes32)": {
        "params": {
          "_execAddress": "Address of the contract to be executed by Gelato",
          "_feeToken": "FeeToken to use, address 0 if task treasury is used",
          "_resolverHash": "hash of resolver address and data",
          "_selector": "Function on the _execAddress which should be executed",
          "_taskCreator": "Address of the task creator",
          "_useTaskTreasuryFunds": "If msg.sender's balance on TaskTreasury should pay for the tx"
        }
      },
      "getTaskIdsByUser(address)": {
        "params": {
          "_taskCreator": "Address who created the task"
        }
      }
    },
    "version": 1
  },
  "userdoc": {
    "kind": "user",
    "methods": {
      "cancelTask(bytes32)": {
        "notice": "Cancel a task so that Gelato can no longer execute it"
      },
      "createTask(address,bytes4,address,bytes)": {
        "notice": "Create a task that tells Gelato to monitor and execute transactions on specific contracts"
      },
      "createTaskNoPrepayment(address,bytes4,address,bytes,address)": {
        "notice": "Create a task that tells Gelato to monitor and execute transactions on specific contracts"
      },
      "createTimedTask(uint128,uint128,address,bytes4,address,bytes,address,bool)": {
        "notice": "Create a timed task that executes every so often based on the inputted interval"
      },
      "exec(uint256,address,address,bool,bool,bytes32,address,bytes)": {
        "notice": "Execution API called by Gelato"
      },
      "getFeeDetails()": {
        "notice": "Helper func to query fee and feeToken"
      },
      "getResolverHash(address,bytes)": {
        "notice": "Helper func to query the resolverHash"
      },
      "getSelector(string)": {
        "notice": "Helper func to query the _selector of a function you want to automate"
      },
      "getTaskId(address,address,bytes4,bool,address,bytes32)": {
        "notice": "Returns TaskId of a task Creator"
      },
      "getTaskIdsByUser(address)": {
        "notice": "Helper func to query all open tasks by a task creator"
      }
    },
    "notice": "Ops enables everyone to communicate to Gelato Bots to monitor and execute certain transactionsResolverAddresses determine when Gelato should execute and provides bots with the payload they should use to executeExecAddress determine the actual contracts to execute a function on",
    "version": 1
  },
  "storageLayout": {
    "storage": [
      {
        "astId": 1883,
        "contract": "contracts/Ops.sol:Ops",
        "label": "taskCreator",
        "offset": 0,
        "slot": "0",
        "type": "t_mapping(t_bytes32,t_address)"
      },
      {
        "astId": 1887,
        "contract": "contracts/Ops.sol:Ops",
        "label": "execAddresses",
        "offset": 0,
        "slot": "1",
        "type": "t_mapping(t_bytes32,t_address)"
      },
      {
        "astId": 1892,
        "contract": "contracts/Ops.sol:Ops",
        "label": "_createdTasks",
        "offset": 0,
        "slot": "2",
        "type": "t_mapping(t_address,t_struct(Bytes32Set)1433_storage)"
      },
      {
        "astId": 1897,
        "contract": "contracts/Ops.sol:Ops",
        "label": "fee",
        "offset": 0,
        "slot": "3",
        "type": "t_uint256"
      },
      {
        "astId": 1899,
        "contract": "contracts/Ops.sol:Ops",
        "label": "feeToken",
        "offset": 0,
        "slot": "4",
        "type": "t_address"
      },
      {
        "astId": 1904,
        "contract": "contracts/Ops.sol:Ops",
        "label": "timedTask",
        "offset": 0,
        "slot": "5",
        "type": "t_mapping(t_bytes32,t_struct(Time)1876_storage)"
      }
    ],
    "types": {
      "t_address": {
        "encoding": "inplace",
        "label": "address",
        "numberOfBytes": "20"
      },
      "t_array(t_bytes32)dyn_storage": {
        "base": "t_bytes32",
        "encoding": "dynamic_array",
        "label": "bytes32[]",
        "numberOfBytes": "32"
      },
      "t_bytes32": {
        "encoding": "inplace",
        "label": "bytes32",
        "numberOfBytes": "32"
      },
      "t_mapping(t_address,t_struct(Bytes32Set)1433_storage)": {
        "encoding": "mapping",
        "key": "t_address",
        "label": "mapping(address => struct EnumerableSet.Bytes32Set)",
        "numberOfBytes": "32",
        "value": "t_struct(Bytes32Set)1433_storage"
      },
      "t_mapping(t_bytes32,t_address)": {
        "encoding": "mapping",
        "key": "t_bytes32",
        "label": "mapping(bytes32 => address)",
        "numberOfBytes": "32",
        "value": "t_address"
      },
      "t_mapping(t_bytes32,t_struct(Time)1876_storage)": {
        "encoding": "mapping",
        "key": "t_bytes32",
        "label": "mapping(bytes32 => struct Ops.Time)",
        "numberOfBytes": "32",
        "value": "t_struct(Time)1876_storage"
      },
      "t_mapping(t_bytes32,t_uint256)": {
        "encoding": "mapping",
        "key": "t_bytes32",
        "label": "mapping(bytes32 => uint256)",
        "numberOfBytes": "32",
        "value": "t_uint256"
      },
      "t_struct(Bytes32Set)1433_storage": {
        "encoding": "inplace",
        "label": "struct EnumerableSet.Bytes32Set",
        "members": [
          {
            "astId": 1432,
            "contract": "contracts/Ops.sol:Ops",
            "label": "_inner",
            "offset": 0,
            "slot": "0",
            "type": "t_struct(Set)1239_storage"
          }
        ],
        "numberOfBytes": "64"
      },
      "t_struct(Set)1239_storage": {
        "encoding": "inplace",
        "label": "struct EnumerableSet.Set",
        "members": [
          {
            "astId": 1234,
            "contract": "contracts/Ops.sol:Ops",
            "label": "_values",
            "offset": 0,
            "slot": "0",
            "type": "t_array(t_bytes32)dyn_storage"
          },
          {
            "astId": 1238,
            "contract": "contracts/Ops.sol:Ops",
            "label": "_indexes",
            "offset": 0,
            "slot": "1",
            "type": "t_mapping(t_bytes32,t_uint256)"
          }
        ],
        "numberOfBytes": "64"
      },
      "t_struct(Time)1876_storage": {
        "encoding": "inplace",
        "label": "struct Ops.Time",
        "members": [
          {
            "astId": 1873,
            "contract": "contracts/Ops.sol:Ops",
            "label": "nextExec",
            "offset": 0,
            "slot": "0",
            "type": "t_uint128"
          },
          {
            "astId": 1875,
            "contract": "contracts/Ops.sol:Ops",
            "label": "interval",
            "offset": 16,
            "slot": "0",
            "type": "t_uint128"
          }
        ],
        "numberOfBytes": "32"
      },
      "t_uint128": {
        "encoding": "inplace",
        "label": "uint128",
        "numberOfBytes": "16"
      },
      "t_uint256": {
        "encoding": "inplace",
        "label": "uint256",
        "numberOfBytes": "32"
      }
    }
  }
}